{
  "_format": "hh3-artifact-1",
  "contractName": "FundRaisingClaims",
  "sourceName": "contracts/FundRaisingClaims.sol",
  "abi": [
    {
      "inputs": [
        {
          "internalType": "address",
          "name": "_coreContract",
          "type": "address"
        },
        {
          "internalType": "address",
          "name": "_dzNFT",
          "type": "address"
        },
        {
          "internalType": "address",
          "name": "_usdtToken",
          "type": "address"
        }
      ],
      "stateMutability": "nonpayable",
      "type": "constructor"
    },
    {
      "inputs": [
        {
          "internalType": "address",
          "name": "owner",
          "type": "address"
        }
      ],
      "name": "OwnableInvalidOwner",
      "type": "error"
    },
    {
      "inputs": [
        {
          "internalType": "address",
          "name": "account",
          "type": "address"
        }
      ],
      "name": "OwnableUnauthorizedAccount",
      "type": "error"
    },
    {
      "inputs": [],
      "name": "ReentrancyGuardReentrantCall",
      "type": "error"
    },
    {
      "anonymous": false,
      "inputs": [
        {
          "indexed": true,
          "internalType": "address",
          "name": "previousOwner",
          "type": "address"
        },
        {
          "indexed": true,
          "internalType": "address",
          "name": "newOwner",
          "type": "address"
        }
      ],
      "name": "OwnershipTransferred",
      "type": "event"
    },
    {
      "anonymous": false,
      "inputs": [
        {
          "indexed": true,
          "internalType": "address",
          "name": "investor",
          "type": "address"
        },
        {
          "indexed": true,
          "internalType": "uint256",
          "name": "roundId",
          "type": "uint256"
        },
        {
          "indexed": false,
          "internalType": "uint256",
          "name": "rewardAmount",
          "type": "uint256"
        },
        {
          "indexed": false,
          "internalType": "uint256",
          "name": "claimPhase",
          "type": "uint256"
        }
      ],
      "name": "RewardClaimed",
      "type": "event"
    },
    {
      "inputs": [],
      "name": "FIRST_CLAIM_DAYS",
      "outputs": [
        {
          "internalType": "uint256",
          "name": "",
          "type": "uint256"
        }
      ],
      "stateMutability": "view",
      "type": "function"
    },
    {
      "inputs": [],
      "name": "FULL_CLAIM_DAYS",
      "outputs": [
        {
          "internalType": "uint256",
          "name": "",
          "type": "uint256"
        }
      ],
      "stateMutability": "view",
      "type": "function"
    },
    {
      "inputs": [],
      "name": "MAX_BATCH_CLAIM",
      "outputs": [
        {
          "internalType": "uint256",
          "name": "",
          "type": "uint256"
        }
      ],
      "stateMutability": "view",
      "type": "function"
    },
    {
      "inputs": [
        {
          "internalType": "uint256",
          "name": "roundId",
          "type": "uint256"
        }
      ],
      "name": "claimRewardRound",
      "outputs": [],
      "stateMutability": "nonpayable",
      "type": "function"
    },
    {
      "inputs": [],
      "name": "coreContract",
      "outputs": [
        {
          "internalType": "contract FundRaisingCore",
          "name": "",
          "type": "address"
        }
      ],
      "stateMutability": "view",
      "type": "function"
    },
    {
      "inputs": [],
      "name": "dzNFT",
      "outputs": [
        {
          "internalType": "contract DZNFT",
          "name": "",
          "type": "address"
        }
      ],
      "stateMutability": "view",
      "type": "function"
    },
    {
      "inputs": [
        {
          "internalType": "uint256",
          "name": "roundId",
          "type": "uint256"
        }
      ],
      "name": "getClaimableReward",
      "outputs": [
        {
          "internalType": "uint256",
          "name": "claimableAmount",
          "type": "uint256"
        },
        {
          "internalType": "uint256",
          "name": "claimPhase",
          "type": "uint256"
        }
      ],
      "stateMutability": "view",
      "type": "function"
    },
    {
      "inputs": [
        {
          "internalType": "address",
          "name": "",
          "type": "address"
        },
        {
          "internalType": "uint256",
          "name": "",
          "type": "uint256"
        }
      ],
      "name": "leadgerRoundUserClaimed",
      "outputs": [
        {
          "internalType": "uint256",
          "name": "",
          "type": "uint256"
        }
      ],
      "stateMutability": "view",
      "type": "function"
    },
    {
      "inputs": [],
      "name": "owner",
      "outputs": [
        {
          "internalType": "address",
          "name": "",
          "type": "address"
        }
      ],
      "stateMutability": "view",
      "type": "function"
    },
    {
      "inputs": [],
      "name": "renounceOwnership",
      "outputs": [],
      "stateMutability": "nonpayable",
      "type": "function"
    },
    {
      "inputs": [
        {
          "internalType": "address",
          "name": "newOwner",
          "type": "address"
        }
      ],
      "name": "transferOwnership",
      "outputs": [],
      "stateMutability": "nonpayable",
      "type": "function"
    },
    {
      "inputs": [
        {
          "internalType": "uint256",
          "name": "roundId",
          "type": "uint256"
        },
        {
          "internalType": "uint256",
          "name": "amount",
          "type": "uint256"
        },
        {
          "internalType": "bool",
          "name": "increase",
          "type": "bool"
        }
      ],
      "name": "updateRoundLedger",
      "outputs": [],
      "stateMutability": "nonpayable",
      "type": "function"
    },
    {
      "inputs": [],
      "name": "usdtToken",
      "outputs": [
        {
          "internalType": "contract IERC20",
          "name": "",
          "type": "address"
        }
      ],
      "stateMutability": "view",
      "type": "function"
    }
  ],
  "bytecode": "0x60e03461021d57601f6113b938819003918201601f19168301916001600160401b038311848410176102225780849260609460405283398101031261021d5761004781610238565b90610060604061005960208401610238565b9201610238565b9033156102075760008054336001600160a01b0319821681178355604051959290916001600160a01b0316907f8be0079c531659141344cd1fd0a4f28419497f9722a3daafe3b4186f6b6457e09080a3600180556001600160a01b03169283156101c557506001600160a01b0316908115610180576001600160a01b031691821561013b5760805260a05260c05260405161116c908161024d823960805181818161014e0152818161022f0152610670015260a0518181816101d6015281816104140152610d20015260c0518181816102f0015261073c0152f35b60405162461bcd60e51b815260206004820152601460248201527f496e76616c6964205553445420616464726573730000000000000000000000006044820152606490fd5b60405162461bcd60e51b815260206004820152601560248201527f496e76616c696420445a4e4654206164647265737300000000000000000000006044820152606490fd5b62461bcd60e51b815260206004820152601d60248201527f496e76616c696420636f726520636f6e747261637420616464726573730000006044820152606490fd5b631e4fbdf760e01b600052600060045260246000fd5b600080fd5b634e487b7160e01b600052604160045260246000fd5b51906001600160a01b038216820361021d5756fe608080604052600436101561001357600080fd5b600090813560e01c9081631144e79e14610bcb5750806335b72d3014610bac57806367604551146103cb578063715018a6146103715780638c25be3d146103465780638da5cb5b1461031f578063a98ad46c146102da578063ba8713c2146102bc578063bb3505f414610205578063bf32eb01146101c0578063d0efcb0a1461017d578063e80db5db146101385763f2fde38b146100b057600080fd5b34610135576020366003190112610135576100c9610be6565b6100d161110d565b6001600160a01b031680156101215781546001600160a01b03198116821783556001600160a01b03167f8be0079c531659141344cd1fd0a4f28419497f9722a3daafe3b4186f6b6457e08380a380f35b631e4fbdf760e01b82526004829052602482fd5b80fd5b50346101355780600319360112610135576040517f00000000000000000000000000000000000000000000000000000000000000006001600160a01b03168152602090f35b5034610135576040366003190112610135576020906040906001600160a01b036101a5610be6565b16815260028352818120602435825283522054604051908152f35b50346101355780600319360112610135576040517f00000000000000000000000000000000000000000000000000000000000000006001600160a01b03168152602090f35b503461013557606036600319011261013557806044358015158091036102b95761022d61110d565b7f00000000000000000000000000000000000000000000000000000000000000006001600160a01b031690813b156102b7578291606483926040519485938492632ecd417d60e21b84526004356004850152602435602485015260448401525af180156102ac5761029b5750f35b816102a591610c01565b6101355780f35b6040513d84823e3d90fd5b505b50fd5b5034610135578060031936011261013557602060405162ed4e008152f35b50346101355780600319360112610135576040517f00000000000000000000000000000000000000000000000000000000000000006001600160a01b03168152602090f35b5034610135578060031936011261013557546040516001600160a01b039091168152602090f35b5034610135576020366003190112610135576040610365600435610cfb565b82519182526020820152f35b503461013557806003193601126101355761038a61110d565b80546001600160a01b03198116825581906001600160a01b03167f8be0079c531659141344cd1fd0a4f28419497f9722a3daafe3b4186f6b6457e08280a380f35b503461013557602036600319011261013557600435600260015414610b9d576002600155604051631683a8f560e21b815233600482015260248101829052906001600160a01b037f000000000000000000000000000000000000000000000000000000000000000016908383604481855afa928315610a30578493610b79575b50825115610b3c576032835111610af757839291839284938561046e8351610ee1565b956104798451610ee1565b93889389908a935b835185101561063857908392918961049a878f97610f13565b519d8e602460405180948193634712f17360e11b835260048301525afa90811561062d57869161060b575b506101008101516105fb5760a0810151804211156105ea576104e790426110a4565b9162ed4e0083106105d9576040820151986301e13380606461050d60608601518d6110b1565b04941061057d5750506101200151156105635761054f929161053661053c9260011c8099610ccb565b90610ccb565b959b5b610549828a610f13565b526110c4565b9760016002945b019394909891929a610481565b9561054f92916105368861057693610ccb565b959b61053f565b979398509d9190610120909c949c01511561059d575b5050600190610556565b8c9d5090610549896105b86105bf959b9460011c809b610ccb565b999f610f13565b95600185106105d0575b3880610593565b600194506105c9565b9d5050509493600190999199610556565b50509b509493600190999199610556565b509b509493600190999199610556565b61062791503d8088833e61061f8183610c01565b810190610f3d565b386104c5565b6040513d88823e3d90fd5b979592509892509296985080610a65575b50508061096e575b50505082156109345760405163b175b32f60e01b8152600481018590527f00000000000000000000000000000000000000000000000000000000000000006001600160a01b03169190602081602481865afa801561092957859188916108f0575b50106108ab573386526002602052604086208587526020526106d960408720918254610ccb565b9055803b156108a7578460405163d5b52b9560e01b8152856004820152846024820152818160448183875af180156102ac57610892575b50506040516323b872dd60e01b81526004810182905233602482015260448101849052602081606481897f00000000000000000000000000000000000000000000000000000000000000006001600160a01b03165af190811561062d578691610854575b501561080f578085913b1561080b57818091606460405180948193632ecd417d60e21b83528a60048401528960248401528160448401525af180156102ac576107f2575b505060405191825260208201527f812be816db82c66cd18ca8457005cd84689642d8ac4d38599cc6af444a2dc72a60403392a36001805580f35b816107fc91610c01565b6108075783386107b8565b8380fd5b5080fd5b60405162461bcd60e51b815260206004820152601e60248201527f55534454207472616e736665722066726f6d20636f7265206661696c656400006044820152606490fd5b90506020813d60201161088a575b8161086f60209383610c01565b810103126108865761088090610cee565b38610774565b8580fd5b3d9150610862565b8161089c91610c01565b6108a7578438610710565b8480fd5b60405162461bcd60e51b815260206004820152601e60248201527f496e73756666696369656e7420726f756e642072657761726420706f6f6c00006044820152606490fd5b9150506020813d602011610921575b8161090c60209383610c01565b8101031261091d57849051386106b2565b8680fd5b3d91506108ff565b6040513d89823e3d90fd5b60405162461bcd60e51b81526020600482015260126024820152714e6f20616d6f756e7420746f20636c61696d60701b6044820152606490fd5b908161097b899493610ee1565b92845b828110610a3b57505050803b15610a175760405162875b4d60e31b81528381806109ab86600483016110d3565b038183865af1908115610a30578491610a1b575b5050803b15610a175760405163f72484eb60e01b815291839183918290849082906109ed90600483016110d3565b03925af180156102ac57610a02575b80610651565b81610a0c91610c01565b6108a75784386109fc565b8280fd5b81610a2591610c01565b610a175782386109bf565b6040513d86823e3d90fd5b819293949550610a4d81600193610f13565b51610a588288610f13565b520190899493929161097e565b610a6e81610ee1565b918a5b828110610ad85750505088833b1561013557604051631f2d1b8360e31b81529182908190610aa290600483016110d3565b038183875af18015610acd57610ab9575b80610649565b88610ac691999299610c01565b9638610ab3565b6040513d8b823e3d90fd5b80610ae560019284610f13565b51610af08287610f13565b5201610a71565b60405162461bcd60e51b815260206004820152601e60248201527f546f6f206d616e79204e46547320746f20636c61696d206174206f6e636500006044820152606490fd5b60405162461bcd60e51b8152602060048201526015602482015274139bc81391951cc81a5b881d1a1a5cc81c9bdd5b99605a1b6044820152606490fd5b610b969193503d8086833e610b8e8183610c01565b810190610c51565b913861044b565b633ee5aeb560e01b8252600482fd5b503461013557806003193601126101355760206040516301e133808152f35b90503461080b578160031936011261080b5780603260209252f35b600435906001600160a01b0382168203610bfc57565b600080fd5b90601f8019910116810190811067ffffffffffffffff821117610c2357604052565b634e487b7160e01b600052604160045260246000fd5b67ffffffffffffffff8111610c235760051b60200190565b602081830312610bfc5780519067ffffffffffffffff8211610bfc57019080601f83011215610bfc578151610c8581610c39565b92610c936040519485610c01565b81845260208085019260051b820101928311610bfc57602001905b828210610cbb5750505090565b8151815260209182019101610cae565b91908201809211610cd857565b634e487b7160e01b600052601160045260246000fd5b51908115158203610bfc57565b604051631683a8f560e21b815233600482015260248101919091526001600160a01b037f0000000000000000000000000000000000000000000000000000000000000000169190600081604481865afa908115610ea957600091610ec6575b50805115610ebd5760009081805b8251841015610eb557610d7b8484610f13565b5160405190634712f17360e11b825260048201526000816024818a5afa908115610ea957600091610e90575b50610100810151610e845760a081015180421115610e7757610dc990426110a4565b9062ed4e008210610e77576040810151936301e133806064610def6060850151886110b1565b049310610e365750610120015115610e2357610e12926105369160011c90610ccb565b905b60016002935b01929091610d68565b61053690610e3093610ccb565b90610e14565b9592949350610120015115610e4f575b50600190610e1a565b92610e5e919360011c90610ccb565b9160018410610e6e575b38610e46565b60019350610e68565b5050919092600190610e1a565b50919092600190610e1a565b610ea3913d8091833e61061f8183610c01565b38610da7565b6040513d6000823e3d90fd5b945092915050565b50600091508190565b610edb91503d806000833e610b8e8183610c01565b38610d5a565b90610eeb82610c39565b610ef86040519182610c01565b8281528092610f09601f1991610c39565b0190602036910137565b8051821015610f275760209160051b010190565b634e487b7160e01b600052603260045260246000fd5b602081830312610bfc5780519067ffffffffffffffff8211610bfc57019061018082820312610bfc5760405191610180830183811067ffffffffffffffff821117610c2357604052805183526020810151602084015260408101516040840152606081015160608401526080810151608084015260a081015160a084015260c081015160c084015260e081015160018060a01b0381168103610bfc5760e0840152610feb6101008201610cee565b610100840152610ffe6101208201610cee565b6101208401526110116101408201610cee565b6101408401526101608101519067ffffffffffffffff8211610bfc570181601f82011215610bfc5780519067ffffffffffffffff8211610c235760405192611063601f8401601f191660200185610c01565b82845260208383010111610bfc5760005b82811061108f57505060206000918301015261016082015290565b80602080928401015182828701015201611074565b91908203918211610cd857565b81810292918115918404141715610cd857565b6000198114610cd85760010190565b602060408183019282815284518094520192019060005b8181106110f75750505090565b82518452602093840193909201916001016110ea565b6000546001600160a01b0316330361112157565b63118cdaa760e01b6000523360045260246000fdfea2646970667358221220930d9204955cee863fd9d1b60d9ce7d820203e9c4c34df621d22a4480a87129664736f6c634300081c0033",
  "linkReferences": {},
  "deployedLinkReferences": {},
  "immutableReferences": {
    "9365": [
      {
        "length": 32,
        "start": 334
      },
      {
        "length": 32,
        "start": 559
      },
      {
        "length": 32,
        "start": 1648
      }
    ],
    "9368": [
      {
        "length": 32,
        "start": 470
      },
      {
        "length": 32,
        "start": 1044
      },
      {
        "length": 32,
        "start": 3360
      }
    ],
    "9371": [
      {
        "length": 32,
        "start": 752
      },
      {
        "length": 32,
        "start": 1852
      }
    ]
  },
  "inputSourceName": "project/contracts/FundRaisingClaims.sol",
  "buildInfoId": "solc-0_8_28-2f9565478b0d52cd96368be0842595edc100913e"
}