{
  "_format": "hh3-artifact-1",
  "contractName": "FundRaisingFactory",
  "sourceName": "contracts/FundRaisingFactory.sol",
  "abi": [
    {
      "inputs": [],
      "stateMutability": "nonpayable",
      "type": "constructor"
    },
    {
      "inputs": [
        {
          "internalType": "address",
          "name": "owner",
          "type": "address"
        }
      ],
      "name": "OwnableInvalidOwner",
      "type": "error"
    },
    {
      "inputs": [
        {
          "internalType": "address",
          "name": "account",
          "type": "address"
        }
      ],
      "name": "OwnableUnauthorizedAccount",
      "type": "error"
    },
    {
      "anonymous": false,
      "inputs": [
        {
          "indexed": true,
          "internalType": "address",
          "name": "coreContract",
          "type": "address"
        },
        {
          "indexed": false,
          "internalType": "bool",
          "name": "active",
          "type": "bool"
        }
      ],
      "name": "DeploymentStatusChanged",
      "type": "event"
    },
    {
      "anonymous": false,
      "inputs": [
        {
          "indexed": true,
          "internalType": "address",
          "name": "deployer",
          "type": "address"
        },
        {
          "indexed": true,
          "internalType": "address",
          "name": "coreContract",
          "type": "address"
        },
        {
          "indexed": false,
          "internalType": "address",
          "name": "analyticsContract",
          "type": "address"
        },
        {
          "indexed": false,
          "internalType": "address",
          "name": "adminContract",
          "type": "address"
        },
        {
          "indexed": false,
          "internalType": "address",
          "name": "dzNFT",
          "type": "address"
        },
        {
          "indexed": false,
          "internalType": "address",
          "name": "usdtToken",
          "type": "address"
        }
      ],
      "name": "FundRaisingDeployed",
      "type": "event"
    },
    {
      "anonymous": false,
      "inputs": [
        {
          "indexed": true,
          "internalType": "address",
          "name": "previousOwner",
          "type": "address"
        },
        {
          "indexed": true,
          "internalType": "address",
          "name": "newOwner",
          "type": "address"
        }
      ],
      "name": "OwnershipTransferred",
      "type": "event"
    },
    {
      "inputs": [
        {
          "internalType": "uint256",
          "name": "",
          "type": "uint256"
        }
      ],
      "name": "allDeployments",
      "outputs": [
        {
          "internalType": "address",
          "name": "",
          "type": "address"
        }
      ],
      "stateMutability": "view",
      "type": "function"
    },
    {
      "inputs": [
        {
          "internalType": "address",
          "name": "dzNFT",
          "type": "address"
        },
        {
          "internalType": "address",
          "name": "usdtToken",
          "type": "address"
        }
      ],
      "name": "deployFundRaising",
      "outputs": [
        {
          "internalType": "address",
          "name": "coreContract",
          "type": "address"
        },
        {
          "internalType": "address",
          "name": "analyticsContract",
          "type": "address"
        },
        {
          "internalType": "address",
          "name": "adminContract",
          "type": "address"
        }
      ],
      "stateMutability": "nonpayable",
      "type": "function"
    },
    {
      "inputs": [
        {
          "internalType": "address",
          "name": "",
          "type": "address"
        }
      ],
      "name": "deployments",
      "outputs": [
        {
          "internalType": "address",
          "name": "coreContract",
          "type": "address"
        },
        {
          "internalType": "address",
          "name": "analyticsContract",
          "type": "address"
        },
        {
          "internalType": "address",
          "name": "adminContract",
          "type": "address"
        },
        {
          "internalType": "address",
          "name": "deployer",
          "type": "address"
        },
        {
          "internalType": "uint256",
          "name": "deployedAt",
          "type": "uint256"
        },
        {
          "internalType": "bool",
          "name": "active",
          "type": "bool"
        }
      ],
      "stateMutability": "view",
      "type": "function"
    },
    {
      "inputs": [],
      "name": "getActiveDeploymentsCount",
      "outputs": [
        {
          "internalType": "uint256",
          "name": "",
          "type": "uint256"
        }
      ],
      "stateMutability": "view",
      "type": "function"
    },
    {
      "inputs": [
        {
          "internalType": "address",
          "name": "coreContract",
          "type": "address"
        }
      ],
      "name": "getDeploymentInfo",
      "outputs": [
        {
          "components": [
            {
              "internalType": "address",
              "name": "coreContract",
              "type": "address"
            },
            {
              "internalType": "address",
              "name": "analyticsContract",
              "type": "address"
            },
            {
              "internalType": "address",
              "name": "adminContract",
              "type": "address"
            },
            {
              "internalType": "address",
              "name": "deployer",
              "type": "address"
            },
            {
              "internalType": "uint256",
              "name": "deployedAt",
              "type": "uint256"
            },
            {
              "internalType": "bool",
              "name": "active",
              "type": "bool"
            }
          ],
          "internalType": "struct FundRaisingFactory.DeploymentInfo",
          "name": "",
          "type": "tuple"
        }
      ],
      "stateMutability": "view",
      "type": "function"
    },
    {
      "inputs": [],
      "name": "getDeploymentStats",
      "outputs": [
        {
          "internalType": "uint256",
          "name": "totalDeployments",
          "type": "uint256"
        },
        {
          "internalType": "uint256",
          "name": "activeDeployments",
          "type": "uint256"
        },
        {
          "internalType": "uint256",
          "name": "deploymentsFunded",
          "type": "uint256"
        },
        {
          "internalType": "address[]",
          "name": "recentDeployments",
          "type": "address[]"
        }
      ],
      "stateMutability": "view",
      "type": "function"
    },
    {
      "inputs": [
        {
          "internalType": "address",
          "name": "deployer",
          "type": "address"
        }
      ],
      "name": "getDeploymentsByDeployer",
      "outputs": [
        {
          "internalType": "address[]",
          "name": "coreContracts",
          "type": "address[]"
        }
      ],
      "stateMutability": "view",
      "type": "function"
    },
    {
      "inputs": [],
      "name": "getTotalDeployments",
      "outputs": [
        {
          "internalType": "uint256",
          "name": "",
          "type": "uint256"
        }
      ],
      "stateMutability": "view",
      "type": "function"
    },
    {
      "inputs": [],
      "name": "owner",
      "outputs": [
        {
          "internalType": "address",
          "name": "",
          "type": "address"
        }
      ],
      "stateMutability": "view",
      "type": "function"
    },
    {
      "inputs": [],
      "name": "renounceOwnership",
      "outputs": [],
      "stateMutability": "nonpayable",
      "type": "function"
    },
    {
      "inputs": [
        {
          "internalType": "address",
          "name": "coreContract",
          "type": "address"
        },
        {
          "internalType": "bool",
          "name": "active",
          "type": "bool"
        }
      ],
      "name": "setDeploymentStatus",
      "outputs": [],
      "stateMutability": "nonpayable",
      "type": "function"
    },
    {
      "inputs": [
        {
          "internalType": "address",
          "name": "newOwner",
          "type": "address"
        }
      ],
      "name": "transferOwnership",
      "outputs": [],
      "stateMutability": "nonpayable",
      "type": "function"
    }
  ],
  "bytecode": "0x608080604052346071573315605e575f8054336001600160a01b0319821681178355916001600160a01b03909116907f8be0079c531659141344cd1fd0a4f28419497f9722a3daafe3b4186f6b6457e09080a361525e90816100768239f35b631e4fbdf760e01b5f525f60045260245ffd5b5f80fdfe60806040526004361015610011575f80fd5b5f5f3560e01c80630ac54d3714610a8e5780630e0b173d146109b057806316f3dd131461096e578063246c751f14610951578063316b3739146108bd5780633fc756f8146107c25780634015cabd14610626578063715018a6146105e25780638da5cb5b146105bb578063a748c23614610495578063f2fde38b146104235763ff8bde971461009e575f80fd5b34610392576040366003190112610392576100b7610b02565b6024356001600160a01b0381169190829003610392576001600160a01b03169182156103e65781156103aa576040516122dc808201906001600160401b03821183831017610396576040918391610c5083398681528560208201520301905ff08015610387576001600160a01b031691823b156103925760405163f2fde38b60e01b81523360048201525f8160248183885af1801561038757610372575b50604051610ef2808201906001600160401b0382118383101761035e576020918391612f2c833986815203019083f08015610353576040516001600160a01b039190911691906113eb808201906001600160401b0382118383101761033f576020918391613e1e833987815203019084f080156103345760018060a01b0316926102936040516101e481610b8e565b8681526020808201868152604080840189815233606086019081524260808701908152600160a088018181528e8b5296819052938920965187546001600160a01b039182166001600160a01b03199182161789559551948801805495821695871695909517909455915160028701805491851691861691909117905551600386018054919093169316929092179055516004830155516005909101805460ff191691151560ff16919091179055565b60025490600160401b82101561032057509484916102b987600160609901600255610b18565b81549060031b9085821b9160018060a01b03901b1916179055604051918483528560208401526040830152868201527f23891405c98399ffab8b9348e1256ef18989a3ae55b82a79638c5f3a826a7cde60803392a360405192835260208301526040820152f35b634e487b7160e01b81526041600452602490fd5b6040513d85823e3d90fd5b634e487b7160e01b86526041600452602486fd5b6040513d84823e3d90fd5b634e487b7160e01b85526041600452602485fd5b61037f9192505f90610ba9565b5f905f610155565b6040513d5f823e3d90fd5b5f80fd5b634e487b7160e01b5f52604160045260245ffd5b60405162461bcd60e51b8152602060048201526014602482015273496e76616c69642055534454206164647265737360601b6044820152606490fd5b60405162461bcd60e51b8152602060048201526015602482015274496e76616c696420445a4e4654206164647265737360581b6044820152606490fd5b346103925760203660031901126103925761043c610b02565b610444610c29565b6001600160a01b03168015610482575f80546001600160a01b03198116831782556001600160a01b0316905f5160206152095f395f51905f529080a3005b631e4fbdf760e01b5f525f60045260245ffd5b34610392576020366003190112610392576104ae610b02565b6002546001600160a01b03909116905f805b82811061056a57506104d190610be3565b915f905f5b8381106104f757604051602080825281906104f390820188610b44565b0390f35b61050081610b18565b9054600391821b1c6001600160a01b039081165f90815260016020526040902090910154168214610534575b6001016104d6565b9161056260019161054485610b18565b848060a01b0391549060031b1c1661055c8289610c15565b52610b80565b92905061052c565b61057381610b18565b9054600391821b1c6001600160a01b039081165f908152600160205260409020909101541684146105a7575b6001016104c0565b906105b3600191610b80565b91905061059f565b34610392575f366003190112610392575f546040516001600160a01b039091168152602090f35b34610392575f366003190112610392576105fa610c29565b5f80546001600160a01b0319811682556001600160a01b03165f5160206152095f395f51905f528280a3005b34610392575f366003190112610392576002545f905f5f5b8281106106f0575060058211156106e9576005905b61065c82610be3565b915f198401908482115f5b8281106106985787876104f38888604051948594855260208501526040840152608060608401526080830190610b44565b816106d5578087035f1901908482116106d5576106b6600192610b18565b838060a01b0391549060031b1c166106ce8289610c15565b5201610667565b634e487b7160e01b5f52601160045260245ffd5b8190610653565b6106f981610b18565b60018060a01b0391549060031b1c165f52600160205260ff600560405f200154166107b2575b6004602061072c83610b18565b90546040516308c89b6d60e01b81529384929091839160031b1c6001600160a01b03165afa908115610387575f91610781575b5061076d575b60010161063e565b90610779600191610b80565b919050610765565b90506020813d82116107aa575b8161079b60209383610ba9565b8101031261039257518561075f565b3d915061078e565b926107bc90610b80565b9261071f565b34610392576020366003190112610392576107db610b02565b5f60a06040516107ea81610b8e565b828152826020820152826040820152826060820152826080820152015260018060a01b03165f52600160205260c060405f2060405161082881610b8e565b81546001600160a01b0390811680835260018401548216602080850191825260028601548416604080870191825260038801548616606080890191825260048a01546080808b019182526005909b015460ff16151560a09a8b01908152845198895296518916958801959095529251871691860191909152519094169383019390935291519381019390935251151590820152f35b34610392576020366003190112610392576001600160a01b036108de610b02565b165f52600160205260c060405f2060018060a01b038154169060018060a01b036001820154169060018060a01b0360028201541660018060a01b036003830154169060ff6005600485015494015416936040519586526020860152604085015260608401526080830152151560a0820152f35b34610392575f366003190112610392576020600254604051908152f35b346103925760203660031901126103925760043560025481101561039257610997602091610b18565b905460405160039290921b1c6001600160a01b03168152f35b34610392576040366003190112610392576109c9610b02565b6024359081151590818303610392576109e0610c29565b6001600160a01b039081165f818152600160205260409020549093911615610a52577fad21e57ff80c1c67f91b0665a19edac158013d6b38beba9323b23761bb90ca9091610a49602092855f5260018452600560405f20019060ff801983541691151516179055565b604051908152a2005b60405162461bcd60e51b815260206004820152601460248201527311195c1b1bde5b595b9d081b9bdd08199bdd5b9960621b6044820152606490fd5b34610392575f366003190112610392575f5f600254905b818110610ab757602083604051908152f35b610ac081610b18565b60018060a01b0391549060031b1c165f52600160205260ff600560405f20015416610aee575b600101610aa5565b91610afa600191610b80565b929050610ae6565b600435906001600160a01b038216820361039257565b600254811015610b305760025f5260205f2001905f90565b634e487b7160e01b5f52603260045260245ffd5b90602080835192838152019201905f5b818110610b615750505090565b82516001600160a01b0316845260209384019390920191600101610b54565b5f1981146106d55760010190565b60c081019081106001600160401b0382111761039657604052565b601f909101601f19168101906001600160401b0382119082101761039657604052565b6001600160401b0381116103965760051b60200190565b90610bed82610bcc565b610bfa6040519182610ba9565b8281528092610c0b601f1991610bcc565b0190602036910137565b8051821015610b305760209160051b010190565b5f546001600160a01b03163303610c3c57565b63118cdaa760e01b5f523360045260245ffdfe60a0346101bb57601f6122dc38819003918201601f19168301916001600160401b038311848410176101bf5780849260409485528339810103126101bb57610052602061004b836101d3565b92016101d3565b9033156101a8575f8054336001600160a01b0319821681178355604051939290916001600160a01b0316907f8be0079c531659141344cd1fd0a4f28419497f9722a3daafe3b4186f6b6457e09080a3600180556001600160a01b031690811561016657506001600160a01b038216156101215760805260028054610100600160a81b03191660089290921b610100600160a81b03169190911790556040516120f490816101e8823960805181818161095b01528181610b1d01528181610f7d01528181610ff0015261184b0152f35b60405162461bcd60e51b815260206004820152601460248201527f496e76616c6964205553445420616464726573730000000000000000000000006044820152606490fd5b62461bcd60e51b815260206004820152601560248201527f496e76616c696420445a4e4654206164647265737300000000000000000000006044820152606490fd5b631e4fbdf760e01b5f525f60045260245ffd5b5f80fd5b634e487b7160e01b5f52604160045260245ffd5b51906001600160a01b03821682036101bb5756fe6080806040526004361015610012575f80fd5b5f3560e01c90816308c89b6d14611cd6575080630cee172514611bec5780631470e87d1461118d578063161f662214611b8857806318f38da214611afe5780631c25dc581461196357806321bdff09146118a757806330814b1b1461188a5780633090134714611809578063354281a0146117df5780635c975abb146117bd578063632d45eb1461179357806366e226bd146116cb57806369fbd3cc146115635780636a37a9bf146114ab578063715018a614611467578063760ca4f4146112e357806379b2c17a1461124c57806384e97c8c146112245780638da5cb5b146111fd57806393b58d81146111b9578063a98ad46c1461118d578063b0eff31614611170578063b175b32f14611146578063b201c0c314611117578063bb3505f41461101f578063bf32eb0114610fdb578063c52c5c8814610f3b578063c6f8341814610f20578063c8f7604014610e96578063d5b52b9514610d07578063df8493b0146107f2578063e96d87b41461029a578063ef1b92a414610239578063ef2cfd1a1461021e5763f2fde38b146101a8575f80fd5b3461021a57602036600319011261021a576101c1611d3f565b6101c9612058565b6001600160a01b03168015610207575f80546001600160a01b03198116831782556001600160a01b0316905f51602061209f5f395f51905f529080a3005b631e4fbdf760e01b5f525f60045260245ffd5b5f80fd5b3461021a575f36600319011261021a57602060405160128152f35b3461021a57606036600319011261021a57610252611d29565b604435906004355f52600660205260405f209060018060a01b03165f5260205260405f20805482101561021a5760209161028b91611dea565b90549060031b1c604051908152f35b3461021a5760c036600319011261021a576004356001600160401b03811161021a573660238201121561021a5760048101356001600160401b0381116105fc57604051916102f2601f8301601f191660200184611d8d565b818352366024838301011161021a57815f92602460209301838601378301015260243560443590606435926084359260a43561032c612058565b8251156107b057831561076057851561070057811515806106f4575b156106a3574285111561065f578481111561061057600a549561036a8761204a565b600a55604051926101808401926001600160401b038411858510176105fc575f97899460405284865260208601928784526040870194898652606088019182526080880190815260a08801918b835260c0890193845260e08901948552610100890196600188526101208a0196600188526101408b0199428b526101608c019e8f525f52600460205260405f209a518b5560018b01905180519060018060401b0382116105fc5761041b8354611d55565b601f81116105b7575b50602090601f831160011461054657600a9d9c9b9a9998979695949392915f918361053b575b50508160011b915f199060031b1c19161790555b5160028a015551600389015551600488015551600587015551600686015551600785015561049f6008850192511515839060ff801983541691151516179055565b51151561ff0082549160081b169061ff001916179055516009820155019251916005831015610527577f9bd719c4581ad3c2ad551d9f5ec0458ef29b8c209c84ca2e49fe88d321063d8f9361051c9360ff80198354169116179055610505600b5461204a565b600b55604051928392604084526040840190611db0565b9060208301520390a2005b634e487b7160e01b5f52602160045260245ffd5b015190505f8061044a565b90601f19831691845f52815f20925f5b81811061059f575091600a9f9e9d9c9b9a9998979695949291836001959310610587575b505050811b01905561045e565b01515f1960f88460031b161c191690555f808061057a565b92936020600181928786015181550195019301610556565b835f5260205f20601f840160051c810191602085106105f2575b601f0160051c01905b8181106105e75750610424565b5f81556001016105da565b90915081906105d1565b634e487b7160e01b5f52604160045260245ffd5b60405162461bcd60e51b815260206004820152602160248201527f456e642064617465206d75737420626520616674657220636c6f7365206461746044820152606560f81b6064820152608490fd5b60405162461bcd60e51b815260206004820152601c60248201527b436c6f73652064617465206d75737420626520696e2066757475726560201b6044820152606490fd5b60405162461bcd60e51b815260206004820152602360248201527f496e76616c6964207265776172642070657263656e746167652028302d31303060448201526230302960e81b6064820152608490fd5b50612710821115610348565b60405162461bcd60e51b815260206004820152603260248201527f546f74616c20746f6b656e206f70656e20696e766573746d656e74206d75737460448201527102062652067726561746572207468616e20360741b6064820152608490fd5b60405162461bcd60e51b815260206004820152602260248201527f546f6b656e207072696365206d7573742062652067726561746572207468616e604482015261020360f41b6064820152608490fd5b60405162461bcd60e51b815260206004820152601a602482015279526f756e64206e616d652063616e6e6f7420626520656d70747960301b6044820152606490fd5b3461021a5761080036611dd4565b61080861207e565b60025460ff8116610cf857825f52600460205261083160ff600860405f20015460081c16611dff565b825f52600460205260ff600860405f2001541615610cbd57825f526004602052600660405f2001544211610c7957811590811580610c6e575b15610c3257835f52600460205260405f206002810180549384860294868604141715610c1e5760058201926108a0868554611f04565b600484015410610bc757602060405180926323b872dd60e01b8252815f816108cd8b303360048501611fb9565b039260081c6001600160a01b03165af18015610a98576108f4915f91610b98575b50611e75565b6001851115610aa3575490600381015490600760068201549101549160405193632fdc968f60e21b855233600486015287602486015288604486015260648501526084840152600160a484015260c483015260e48201525f81610104818360018060a01b037f0000000000000000000000000000000000000000000000000000000000000000165af1908115610a98575f91610a76575b505b845f52600560205260405f20905f5b858110610a12575050506109b1838254611f04565b9055825f52600760205260405f206109ca828254611f04565b90556109d881600c54611f04565b600c5560405191825260208201527f3bdff14eed6ddd6ca85e178ed7df644a6a676c0796374ce875e380bc74a28e7860403392a360018055005b8151811015610a6257600581901b82016020015183549190600160401b8310156105fc57610a47836001809501875586611dea565b819291549060031b91821b915f19901b19161790550161099c565b634e487b7160e01b5f52603260045260245ffd5b610a9291503d805f833e610a8a8183611d8d565b810190611f11565b8561098b565b6040513d5f823e3d90fd5b906040908151610ab38382611d8d565b600181526020810191601f19840136843781945490600381015490600760068201549101549186519363f4fb815960e01b85523360048601528c6024860152604485015260648401526001608484015260a483015260c482015260208160e4815f60018060a01b037f0000000000000000000000000000000000000000000000000000000000000000165af1938415610b8f57505f93610b5b575b505115610a62575261098d565b9092506020813d602011610b87575b81610b7760209383611d8d565b8101031261021a57519188610b4e565b3d9150610b6a565b513d5f823e3d90fd5b610bba915060203d602011610bc0575b610bb28183611d8d565b810190611e42565b886108ee565b503d610ba8565b60405162461bcd60e51b815260206004820152602960248201527f4e6f7420656e6f75676820746f6b656e7320617661696c61626c6520696e20746044820152681a1a5cc81c9bdd5b9960ba1b6064820152608490fd5b634e487b7160e01b5f52601160045260245ffd5b60405162461bcd60e51b8152602060048201526014602482015273125b9d985b1a59081d1bdad95b88185b5bdd5b9d60621b6044820152606490fd5b50603283111561086a565b60405162461bcd60e51b815260206004820152601c60248201527b125b9d995cdd1b595b9d081c195c9a5bd9081a185cc818db1bdcd95960221b6044820152606490fd5b60405162461bcd60e51b8152602060048201526013602482015272526f756e64206973206e6f742061637469766560681b6044820152606490fd5b63d93c066560e01b5f5260045ffd5b3461021a57610d1536611dd4565b610d2a60018060a01b03600354163314611fdb565b8015610e6057815f526004602052610d4e60ff600860405f20015460081c16611dff565b815f5260086020528060405f205410610e2057610db16020915f9384526008835260408420610d7e82825461203d565b905560025460405163095ea7b360e01b815294859360089290921c6001600160a01b031692849283913360048401611e5a565b03925af1908115610a98575f91610e01575b5015610dcb57005b60405162461bcd60e51b815260206004820152600e60248201526d105c1c1c9bdd994819985a5b195960921b6044820152606490fd5b610e1a915060203d602011610bc057610bb28183611d8d565b81610dc3565b60405162461bcd60e51b8152602060048201526018602482015277125b9cdd59999a58da595b9d081c995dd85c99081c1bdbdb60421b6044820152606490fd5b60405162461bcd60e51b815260206004820152600e60248201526d125b9d985b1a5908185b5bdd5b9d60921b6044820152606490fd5b3461021a575f36600319011261021a576002546040516370a0823160e01b8152306004820152906020908290602490829060081c6001600160a01b03165afa8015610a98575f90610eed575b602090604051908152f35b506020813d602011610f18575b81610f0760209383611d8d565b8101031261021a5760209051610ee2565b3d9150610efa565b3461021a575f36600319011261021a57602060405160328152f35b3461021a57602036600319011261021a57610f54611d3f565b604051635447be0b60e01b81526001600160a01b039182166004820152905f90829060249082907f0000000000000000000000000000000000000000000000000000000000000000165afa8015610a9857610fbd915f91610fc1575b5060405191829182611cf0565b0390f35b610fd591503d805f833e610a8a8183611d8d565b82610fb0565b3461021a575f36600319011261021a576040517f00000000000000000000000000000000000000000000000000000000000000006001600160a01b03168152602090f35b3461021a57606036600319011261021a57602435600435604435801515810361021a5761105760018060a01b03600354163314611fdb565b815f52600460205261107560ff600860405f20015460081c16611dff565b611080831515611eb8565b1561109f575f52600760205261109b60405f20918254611f04565b9055005b805f5260076020528160405f2054106110c8575f52600760205261109b60405f2091825461203d565b60405162461bcd60e51b815260206004820152602160248201527f496e73756666696369656e7420726f756e64206c65646765722062616c616e636044820152606560f81b6064820152608490fd5b3461021a5761112536611dd4565b905f52600560205260405f20805482101561021a5760209161028b91611dea565b3461021a57602036600319011261021a576004355f526008602052602060405f2054604051908152f35b3461021a575f36600319011261021a576020600a54604051908152f35b3461021a575f36600319011261021a5760025460405160089190911c6001600160a01b03168152602090f35b3461021a57604036600319011261021a576001600160a01b036111da611d3f565b165f52600960205260405f206024355f52602052602060405f2054604051908152f35b3461021a575f36600319011261021a575f546040516001600160a01b039091168152602090f35b3461021a575f36600319011261021a576003546040516001600160a01b039091168152602090f35b3461021a57604036600319011261021a576004356024358015159081810361021a577fdd8c33b779db77b877161fe300dfc92dc5b0d87c7e4199701eb25330a83e16f9916112da60209261129e612058565b855f52600484526112bb60ff600860405f20015460081c16611dff565b855f5260048452600860405f20019060ff801983541691151516179055565b604051908152a2005b3461021a576112f136611dd4565b6112f9612058565b815f52600460205261131760ff600860405f20015460081c16611dff565b8015611416576002545f919060209061135d9060081c6001600160a01b031661133f84611f95565b6040519586809481936323b872dd60e01b8352303360048501611fb9565b03925af1908115610a985761139c6040927f9795f222c951ae3e749f872dbe287f78d21fa52353e9175cb20ed3aa2b29b82b945f916113f75750611e75565b6113a581611f95565b845f5260086020526113bb835f20918254611f04565b90556113c681611f95565b845f5260076020526113dc835f20918254611f04565b9055835f526008602052815f205482519182526020820152a2005b611410915060203d602011610bc057610bb28183611d8d565b866108ee565b60405162461bcd60e51b8152602060048201526024808201527f52657761726420616d6f756e74206d75737420626520677265617465722074686044820152630616e20360e41b6064820152608490fd5b3461021a575f36600319011261021a5761147f612058565b5f80546001600160a01b0319811682556001600160a01b03165f51602061209f5f395f51905f528280a3005b3461021a57602036600319011261021a576114c4611d3f565b6114cc612058565b6001600160a01b0316801561151e57600380546001600160a01b0319811683179091556001600160a01b03167ffe66ddef0f2a9c1d6f97182ba039017c769bd48d0d1ec0a3cc405c078f3c17f45f80a3005b60405162461bcd60e51b815260206004820152601f60248201527f496e76616c696420636c61696d7320636f6e74726163742061646472657373006044820152606490fd5b3461021a57602036600319011261021a576004355f52600460205260405f20805490600181019060405191825f82549261159c84611d55565b80845293600181169081156116a95750600114611665575b506115c192500383611d8d565b60028101549060ff60038201546004830154600584015460068501549060078601549260088701549461161487600a60098b01549a0154169a61018060206040519e8f90815201526101808d0190611db0565b9860408c015260608b015260808a015260a089015260c088015260e0870152818116151561010087015260081c16151561012085015261014084015260058210156105275782916101608301520390f35b90505f9291925260205f20905f915b81831061168d5750509060206115c192820101866115b4565b6020919350806001915483858901015201910190918492611674565b9050602092506115c194915060ff191682840152151560051b820101866115b4565b3461021a57602036600319011261021a576116e4611d3f565b6116ec612058565b6001600160a01b0381169081156117515760028054610100600160a81b03198116600893841b610100600160a81b031617909155901c6001600160a01b03167f92852dbadca7e6fa4e0d5dd87891e6dd13f50a304561a86ea9d5a710b972e4495f80a3005b60405162461bcd60e51b815260206004820152601a602482015279496e76616c6964205553445420746f6b656e206164647265737360301b6044820152606490fd5b3461021a57602036600319011261021a576004355f526007602052602060405f2054604051908152f35b3461021a575f36600319011261021a57602060ff600254166040519015158152f35b3461021a57602036600319011261021a576004355f526005602052602060405f2054604051908152f35b3461021a57602036600319011261021a57611822611d3f565b604051633090134760e01b81526001600160a01b039182166004820152905f90829060249082907f0000000000000000000000000000000000000000000000000000000000000000165afa8015610a9857610fbd915f91610fc1575060405191829182611cf0565b3461021a575f36600319011261021a576020600b54604051908152f35b3461021a57606036600319011261021a576118c0611d3f565b602435604435916118cf612058565b6001600160a01b0316801561192757815f5260046020526118fc60ff600860405f20015460081c16611dff565b611907831515611eb8565b5f52600960205260405f20905f5260205261109b60405f20918254611f04565b60405162461bcd60e51b8152602060048201526014602482015273496e76616c69642075736572206164647265737360601b6044820152606490fd5b3461021a57604036600319011261021a5761197c611d3f565b60243590611988612058565b6001600160a01b03811615611abd576119a2821515611eb8565b6002546040516370a0823160e01b815230600482015260089190911c6001600160a01b03169290602081602481875afa8015610a985782915f91611a88575b5010611a4757611a0b926020925f60405180968195829463a9059cbb60e01b845260048401611e5a565b03925af18015610a98576020915f91611a2a575b506040519015158152f35b611a419150823d8411610bc057610bb28183611d8d565b82611a1f565b60405162461bcd60e51b8152602060048201526019602482015278496e73756666696369656e7420555344542062616c616e636560381b6044820152606490fd5b9150506020813d602011611ab5575b81611aa460209383611d8d565b8101031261021a57819051856119e1565b3d9150611a97565b60405162461bcd60e51b8152602060048201526019602482015278496e76616c696420726563697069656e74206164647265737360381b6044820152606490fd5b3461021a57604036600319011261021a57611b17611d29565b6004355f52600660205260405f209060018060a01b03165f5260205260405f206040519081602082549182815201915f5260205f20905f5b818110611b7257610fbd85611b6681870382611d8d565b60405191829182611cf0565b8254845260209093019260019283019201611b4f565b3461021a57602036600319011261021a576004355f52600560205260405f206040519081602082549182815201915f5260205f20905f5b818110611bd657610fbd85611b6681870382611d8d565b8254845260209093019260019283019201611bbf565b3461021a57602036600319011261021a57600435611c08612058565b611c1061207e565b805f526004602052611c2e60ff600860405f20015460081c16611dff565b5f8181526007602090815260408083208054908490556002548454925163a9059cbb60e01b81529485936001600160a01b0360089390931c83169385938492611c7c92911660048401611e5a565b03925af18015610a9857611c96915f91611cb75750611e75565b5f908152600460205260409020600a01805460ff1916600317905560018055005b611cd0915060203d602011610bc057610bb28183611d8d565b836108ee565b3461021a575f36600319011261021a57602090600c548152f35b60206040818301928281528451809452019201905f5b818110611d135750505090565b8251845260209384019390920191600101611d06565b602435906001600160a01b038216820361021a57565b600435906001600160a01b038216820361021a57565b90600182811c92168015611d83575b6020831014611d6f57565b634e487b7160e01b5f52602260045260245ffd5b91607f1691611d64565b601f909101601f19168101906001600160401b038211908210176105fc57604052565b805180835260209291819084018484015e5f828201840152601f01601f1916010190565b604090600319011261021a576004359060243590565b8054821015610a62575f5260205f2001905f90565b15611e0657565b60405162461bcd60e51b8152602060048201526014602482015273149bdd5b9908191bd95cc81b9bdd08195e1a5cdd60621b6044820152606490fd5b9081602091031261021a5751801515810361021a5790565b6001600160a01b039091168152602081019190915260400190565b15611e7c57565b60405162461bcd60e51b81526020600482015260146024820152731554d115081d1c985b9cd9995c8819985a5b195960621b6044820152606490fd5b15611ebf57565b60405162461bcd60e51b815260206004820152601d60248201527f416d6f756e74206d7573742062652067726561746572207468616e20300000006044820152606490fd5b91908201809211610c1e57565b60208183031261021a578051906001600160401b03821161021a57019080601f8301121561021a578151916001600160401b0383116105fc578260051b906020820193611f616040519586611d8d565b845260208085019282010192831161021a57602001905b828210611f855750505090565b8151815260209182019101611f78565b90670de0b6b3a7640000820291808304670de0b6b3a76400001490151715610c1e57565b6001600160a01b03918216815291166020820152604081019190915260600190565b15611fe257565b60405162461bcd60e51b815260206004820152602d60248201527f4f6e6c7920617574686f72697a656420636c61696d7320636f6e74726163742060448201526c63616e2063616c6c207468697360981b6064820152608490fd5b91908203918211610c1e57565b5f198114610c1e5760010190565b5f546001600160a01b0316330361206b57565b63118cdaa760e01b5f523360045260245ffd5b60026001541461208f576002600155565b633ee5aeb560e01b5f5260045ffdfe8be0079c531659141344cd1fd0a4f28419497f9722a3daafe3b4186f6b6457e0a2646970667358221220776c1ee66650734c92f3aec13d874b6284c5fa9450f2b610c965661ca6c4246064736f6c634300081c003360a0346100ee57601f610ef238819003918201601f19168301916001600160401b038311848410176100f2578084926020946040528339810103126100ee57516001600160a01b038116908190036100ee5780156100a957608052604051610deb9081610107823960805181818160ac01528181610159015281816101ca0152818161026e015281816103bb01528181610522015281816105a1015281816109940152610a0d0152f35b60405162461bcd60e51b815260206004820152601d60248201527f496e76616c696420636f726520636f6e747261637420616464726573730000006044820152606490fd5b5f80fd5b634e487b7160e01b5f52604160045260245ffdfe6080806040526004361015610012575f80fd5b5f3560e01c908163161f6622146109e35750806318f38da21461094a5780631f8cfb031461056957806330901347146104e0578063a09686c41461039c578063b82e4fc314610238578063c52c5c8814610188578063e80db5db146101445763ef2dcbee1461007f575f80fd5b3461014057602036600319011261014057604051631a7ef4f360e21b815260048035908201525f816024817f00000000000000000000000000000000000000000000000000000000000000006001600160a01b03165afa8015610135576020915f905f92610105575b50421190816100fd575b506040519015158152f35b90505f6100f2565b905061012391503d805f833e61011b8183610b7d565b810190610d2c565b5050509750509450505050505f6100e8565b6040513d5f823e3d90fd5b5f80fd5b34610140575f366003190112610140576040517f00000000000000000000000000000000000000000000000000000000000000006001600160a01b03168152602090f35b34610140576020366003190112610140576101a1610a8b565b6040516318a58b9160e31b81526001600160a01b039182166004820152905f90829060249082907f0000000000000000000000000000000000000000000000000000000000000000165afa801561013557610212915f91610216575b50604051918291602083526020830190610a58565b0390f35b61023291503d805f833e61022a8183610b7d565b810190610bb7565b826101fd565b3461014057602036600319011261014057610251610c49565b50604051631a7ef4f360e21b815260048035908201525f816024817f00000000000000000000000000000000000000000000000000000000000000006001600160a01b03165afa8015610135575f915f915f935f915f935f935f5f955f975f935f955f97610363575b50600587101561034f5761033b9b6102d99b60ff996040519d8e610b4d565b8d5260208d015260408c015260608b015260808a015260a089015260c08801528460e088015285151561010088015215156101208701526101408601521661016084015242119081610347575b50604051928392604084526040840190610aa1565b90151560208301520390f35b905083610326565b634e487b7160e01b5f52602160045260245ffd5b9a505050505050505050505061038391503d805f833e61011b8183610b7d565b989a92989397929693959094919391929091908c6102ba565b34610140575f366003190112610140576040516330814b1b60e01b81527f00000000000000000000000000000000000000000000000000000000000000006001600160a01b031690602081600481855afa908115610135575f916104ae575b505f915f5b828110610417576040838582519182526020820152f35b604051631a7ef4f360e21b8152600481018290525f81602481865afa908115610135575f905f92610486575b508161047e575b50610458575b600101610400565b925f19811461046a5760010192610450565b634e487b7160e01b5f52601160045260245ffd5b90508561044a565b905061049c91503d805f833e61011b8183610b7d565b50509850965050505050505086610443565b90506020813d6020116104d8575b816104c960209383610b7d565b810103126101405751826103fb565b3d91506104bc565b34610140576020366003190112610140576104f9610a8b565b604051633090134760e01b81526001600160a01b039182166004820152905f90829060249082907f0000000000000000000000000000000000000000000000000000000000000000165afa801561013557610212915f916102165750604051918291602083526020830190610a58565b3461014057602036600319011261014057610582610a8b565b604051633090134760e01b81526001600160a01b0382811660048301527f000000000000000000000000000000000000000000000000000000000000000016915f82602481865afa918215610135575f9261092e575b508151906105e582610ba0565b916105f36040519384610b7d565b808352610602601f1991610ba0565b015f5b81811061091757505082519361061a85610ba0565b946106286040519687610b7d565b808652610637601f1991610ba0565b015f5b8181106109065750505f5b845181101561080f576106588186610ca2565b51906040519163b82e4fc360e01b835260048301525f82602481305afa8015610135575f90610706575b6106ba92506106918287610ca2565b525f8461069e8389610ca2565b51604051630c79c6d160e11b8152948592839260048401610c30565b0381865afa8015610135576001925f916106ec575b506106da8289610ca2565b526106e58188610ca2565b5001610645565b61070091503d805f833e61022a8183610b7d565b886106cf565b503d805f843e6107168184610b7d565b82016040838203126101405782516001600160401b0381116101405783019061018082820312610140576040519161074d83610b4d565b8051835260208101516001600160401b0381116101405761016092610773918301610cca565b602084015260408101516040840152606081015160608401526080810151608084015260a081015160a084015260c081015160c084015260e081015160e08401526107c16101008201610d1f565b6101008401526107d46101208201610d1f565b61012084015261014081015161014084015201519260ff84168403610140576020610809916106ba9561016085015201610d1f565b50610682565b5050509161082860405192606084526060840190610a58565b8281036020840152835180825260208201916020808360051b8301019601925f915b8383106108d9578787878183036040830152805180845260208401906020808260051b8701019301915f905b8282106108835785850386f35b90919293601f19878203018252845190602080835192838152019201905f905b8082106108c157505050602080600192960192019201909291610876565b909192602080600192865181520194019201906108a3565b90919293966020806108f7600193601f198682030187528b51610aa1565b9901930193019193929061084a565b806060602080938a0101520161063a565b602090610922610c49565b82828701015201610605565b6109439192503d805f833e61022a8183610b7d565b90836105d8565b34610140576040366003190112610140576024356001600160a01b0381168103610140575f6109909160405180938192630c79c6d160e11b835260043560048401610c30565b03817f00000000000000000000000000000000000000000000000000000000000000006001600160a01b03165afa801561013557610212915f916102165750604051918291602083526020830190610a58565b3461014057602036600319011261014057630b0fb31160e11b815260048035908201525f816024817f00000000000000000000000000000000000000000000000000000000000000006001600160a01b03165afa801561013557610212915f9161021657506040519182916020835260208301905b90602080835192838152019201905f5b818110610a755750505090565b8251845260209384019390920191600101610a68565b600435906001600160a01b038216820361014057565b90602060ff6101606101a094805185528381015161018085870152805194859182610180890152018787015e5f86858701015260408101516040860152606081015160608601526080810151608086015260a081015160a086015260c081015160c086015260e081015160e086015261010081015115156101008601526101208101511515610120860152610140810151610140860152015116610160830152601f8019910116010190565b61018081019081106001600160401b03821117610b6957604052565b634e487b7160e01b5f52604160045260245ffd5b601f909101601f19168101906001600160401b03821190821017610b6957604052565b6001600160401b038111610b695760051b60200190565b602081830312610140578051906001600160401b03821161014057019080601f83011215610140578151610bea81610ba0565b92610bf86040519485610b7d565b81845260208085019260051b82010192831161014057602001905b828210610c205750505090565b8151815260209182019101610c13565b9081526001600160a01b03909116602082015260400190565b60405190610c5682610b4d565b5f61016083828152606060208201528260408201528260608201528260808201528260a08201528260c08201528260e08201528261010082015282610120820152826101408201520152565b8051821015610cb65760209160051b010190565b634e487b7160e01b5f52603260045260245ffd5b81601f82011215610140578051906001600160401b038211610b695760405192610cfe601f8401601f191660200185610b7d565b8284526020838301011161014057815f9260208093018386015e8301015290565b5190811515820361014057565b91909161018081840312610140578051602082015190936001600160401b03821161014057610d5c918301610cca565b9160408201519160608101519160808201519160a08101519160c08201519160e081015191610d8e6101008301610d1f565b91610d9c6101208201610d1f565b916101606101408301519201516005811015610140579056fea2646970667358221220b9ecbc454195a680634e613033a0abb7d5fab5d181d1122ebcd305eac3054c2264736f6c634300081c003360a03461013e57601f6113eb38819003918201601f19168301916001600160401b038311848410176101425780849260209460405283398101031261013e57516001600160a01b0381169081900361013e57331561012b575f8054336001600160a01b03198216811783556040519290916001600160a01b0316907f8be0079c531659141344cd1fd0a4f28419497f9722a3daafe3b4186f6b6457e09080a381156100e957506080526040516112949081610157823960805181818160d0015281816104310152818161048b01528181610609015281816108ab015281816109a20152610b830152f35b62461bcd60e51b815260206004820152601d60248201527f496e76616c696420636f726520636f6e747261637420616464726573730000006044820152606490fd5b631e4fbdf760e01b5f525f60045260245ffd5b5f80fd5b634e487b7160e01b5f52604160045260245ffdfe60806040526004361015610011575f80fd5b5f5f3560e01c80633a1b3d3114610e725780633b510eee14610ddf5780634646876314610b425780635312ea8e1461096b578063639e8bb71461086c578063715018a6146108255780638da5cb5b146107fe578063c116d936146105e9578063e5346bf214610460578063e80db5db1461041b578063f2fde38b146103a45763f5fe8a581461009e575f80fd5b346103a15760203660031901126103a1576004356100ba6111d8565b60405163632d45eb60e01b8152600481018290527f00000000000000000000000000000000000000000000000000000000000000006001600160a01b0316602082602481845afa918215610396578492610362575b50811561030e57604051632a62b51b60e21b8152849190602081600481855afa9081156102975760249160209185916102e1575b506040516370a0823160e01b81526004810185905292839182906001600160a01b03165afa801561029757849184916102a2575b50906101849110156110fd565b8154604051630384bb8b60e31b815290602090829081906101b39088906001600160a01b031660048401611161565b038186865af18015610297576101d0918491610268575b5061117c565b803b1561026457818091606460405180948193632ecd417d60e21b83528960048401528860248401528160448401525af1801561025957610240575b505082546040515f5160206111ff5f395f51905f52929091829161023a916001600160a01b031690836111bf565b0390a280f35b8161024a916110a7565b61025557825f61020c565b8280fd5b6040513d84823e3d90fd5b5080fd5b61028a915060203d602011610290575b61028281836110a7565b810190611149565b5f6101ca565b503d610278565b6040513d85823e3d90fd5b935050506020823d6020116102d9575b816102bf602093836110a7565b810103126102d557610184838693519091610177565b5f80fd5b3d91506102b2565b6103019150823d8411610307575b6102f981836110a7565b8101906110de565b5f610143565b503d6102ef565b60405162461bcd60e51b815260206004820152602660248201527f4e6f2062616c616e636520746f2077697468647261772066726f6d2074686973604482015265081c9bdd5b9960d21b6064820152608490fd5b9091506020813d60201161038e575b8161037e602093836110a7565b810103126102d55751905f61010f565b3d9150610371565b6040513d86823e3d90fd5b80fd5b50346103a15760203660031901126103a1576004356001600160a01b03811690819003610264576103d36111d8565b80156104075781546001600160a01b03198116821783556001600160a01b03165f51602061121f5f395f51905f528380a380f35b631e4fbdf760e01b82526004829052602482fd5b50346103a157806003193601126103a1576040517f00000000000000000000000000000000000000000000000000000000000000006001600160a01b03168152602090f35b50346103a15760203660031901126103a15760405163632d45eb60e01b8152600480359082018190527f00000000000000000000000000000000000000000000000000000000000000006001600160a01b0316929091602081602481875afa9081156102595782916105b7575b5060405163b175b32f60e01b81526004810184905292602084602481885afa938415610297578394610582575b506020906024604051809781936301aa140d60e51b835260048301525afa9182156105765791610541575b6080935060405192818452602084015260408301526060820152f35b90506020833d60201161056e575b8161055c602093836110a7565b810103126102d5576080925190610525565b3d915061054f565b604051903d90823e3d90fd5b9093506020813d6020116105af575b8161059e602093836110a7565b810103126102d557519260206104fa565b3d9150610591565b90506020813d6020116105e1575b816105d2602093836110a7565b810103126102d557515f6104cd565b3d91506105c5565b50346103a157806003193601126103a1576040516330814b1b60e01b81527f00000000000000000000000000000000000000000000000000000000000000006001600160a01b0316602082600481845afa9182156102975783926107ca575b506040516308c89b6d60e01b8152602081600481855afa908115610396578491610798575b50604051632a62b51b60e21b815290602082600481865afa91821561073957602492602091879161077b575b506040516370a0823160e01b81526004810186905293849182906001600160a01b03165afa918215610739578592610744575b50602060049360405194858092632a62b51b60e21b82525afa9283156107395760809593610718575b506040805194855260208501919091528301526001600160a01b03166060820152f35b61073291935060203d602011610307576102f981836110a7565b915f6106f5565b6040513d87823e3d90fd5b9291506020833d602011610773575b81610760602093836110a7565b810103126102d5579151909160206106cc565b3d9150610753565b6107929150823d8411610307576102f981836110a7565b5f610699565b90506020813d6020116107c2575b816107b3602093836110a7565b810103126102d557515f61066d565b3d91506107a6565b9091506020813d6020116107f6575b816107e6602093836110a7565b810103126102d55751905f610648565b3d91506107d9565b50346103a157806003193601126103a157546040516001600160a01b039091168152602090f35b50346103a157806003193601126103a15761083e6111d8565b80546001600160a01b03198116825581906001600160a01b03165f51602061121f5f395f51905f528280a380f35b50346103a1578061087c36610eeb565b93916108866111d8565b610891858214610f62565b61089c811515610fa6565b6108a96032821115610fe1565b7f00000000000000000000000000000000000000000000000000000000000000006001600160a01b031693835b8281106108e1578480f35b6108ec818484611037565b356108f8828987611037565b3580151580910361096757873b156109675760405191633cd960bd60e11b8352600483015260248201528581604481838b5af190811561095c578691610943575b50506001016108d6565b8161094d916110a7565b61095857845f610939565b8480fd5b6040513d88823e3d90fd5b8680fd5b50346103a15760203660031901126103a1576004356109886111d8565b61099381151561105b565b604051632a62b51b60e21b81527f00000000000000000000000000000000000000000000000000000000000000006001600160a01b03169190602081600481865afa908115610396576024916020918691610b25575b506040516370a0823160e01b81526004810186905292839182906001600160a01b03165afa80156103965782918591610af0575b5010610ab4578254604051630384bb8b60e31b815292602091849190829087908290610a579088906001600160a01b031660048401611161565b03925af1918215610297577f418aae9de8f7ab4df1c137475770ff373eb33fd62a060544e9f4fc90f3cdb1a492610a94918591610268575061117c565b60018060a01b0383541690610aae604051928392836111bf565b0390a180f35b60405162461bcd60e51b8152602060048201526014602482015273496e73756666696369656e742062616c616e636560601b6044820152606490fd5b9150506020813d602011610b1d575b81610b0c602093836110a7565b810103126102d5578190515f610a1d565b3d9150610aff565b610b3c9150823d8411610307576102f981836110a7565b5f6109e9565b50346102d55760403660031901126102d557600435602435610b626111d8565b610b6d81151561105b565b60405163632d45eb60e01b8152600481018390527f00000000000000000000000000000000000000000000000000000000000000006001600160a01b031690602081602481855afa8015610d0a5783915f91610daa575b5010610d6857604051632a62b51b60e21b8152602081600481855afa908115610d0a576024916020915f91610d4b575b506040516370a0823160e01b81526004810185905292839182906001600160a01b03165afa8015610d0a5783905f90610d15575b610c34925010156110fd565b5f54604051630384bb8b60e31b81529060209082908190610c639087906001600160a01b031660048401611161565b03815f865af18015610d0a57610c7f915f91610268575061117c565b803b156102d5575f8091606460405180948193632ecd417d60e21b83528860048401528760248401528160448401525af18015610d0a57610ce8575b5082546040515f5160206111ff5f395f51905f52929091829161023a916001600160a01b031690836111bf565b610cf59193505f906110a7565b5f915f5160206111ff5f395f51905f52610cbb565b6040513d5f823e3d90fd5b50506020813d602011610d43575b81610d30602093836110a7565b810103126102d55782610c349151610c28565b3d9150610d23565b610d629150823d8411610307576102f981836110a7565b5f610bf4565b60405162461bcd60e51b815260206004820152601a602482015279496e73756666696369656e7420726f756e642062616c616e636560301b6044820152606490fd5b9150506020813d602011610dd7575b81610dc6602093836110a7565b810103126102d5578290515f610bc4565b3d9150610db9565b346102d557610ded36610eeb565b919092610df86111d8565b610e03838314610f62565b610e0e821515610fa6565b610e1b6032831115610fe1565b5f5b828110610e2657005b610e31818484611037565b3590610e3e818688611037565b359160058310156102d5575f51602061123f5f395f51905f52610e6960019460405191829182610f3b565b0390a201610e1d565b346102d55760403660031901126102d55760243560058110156102d557610e976111d8565b5f51602061123f5f395f51905f5260405180610eb66004359482610f3b565b0390a2005b9181601f840112156102d5578235916001600160401b0383116102d5576020808501948460051b0101116102d557565b60406003198201126102d5576004356001600160401b0381116102d55781610f1591600401610ebb565b90929091602435906001600160401b0382116102d557610f3791600401610ebb565b9091565b919060208301926005821015610f4e5752565b634e487b7160e01b5f52602160045260245ffd5b15610f6957565b60405162461bcd60e51b8152602060048201526015602482015274082e4e4c2f240d8cadccee8d040dad2e6dac2e8c6d605b1b6044820152606490fd5b15610fad57565b60405162461bcd60e51b815260206004820152600c60248201526b456d7074792061727261797360a01b6044820152606490fd5b15610fe857565b60405162461bcd60e51b815260206004820152602160248201527f546f6f206d616e7920726f756e647320746f20757064617465206174206f6e636044820152606560f81b6064820152608490fd5b91908110156110475760051b0190565b634e487b7160e01b5f52603260045260245ffd5b1561106257565b60405162461bcd60e51b815260206004820152601d60248201527f416d6f756e74206d7573742062652067726561746572207468616e20300000006044820152606490fd5b601f909101601f19168101906001600160401b038211908210176110ca57604052565b634e487b7160e01b5f52604160045260245ffd5b908160209103126102d557516001600160a01b03811681036102d55790565b1561110457565b60405162461bcd60e51b815260206004820152601d60248201527f496e73756666696369656e7420636f6e74726163742062616c616e63650000006044820152606490fd5b908160209103126102d5575180151581036102d55790565b6001600160a01b039091168152602081019190915260400190565b1561118357565b60405162461bcd60e51b81526020600482015260146024820152731554d115081d1c985b9cd9995c8819985a5b195960621b6044820152606490fd5b9081526001600160a01b03909116602082015260400190565b5f546001600160a01b031633036111eb57565b63118cdaa760e01b5f523360045260245ffdfe04f1d8f866097f810d061db2341a96804fc3ca3f7d5b3150080815cdd8853e488be0079c531659141344cd1fd0a4f28419497f9722a3daafe3b4186f6b6457e02da7b23ca63c1eb969eee5fae4acb98186abecf5358b0354a82a5183ebca6b2aa26469706673582212200e561faef019cc62f71ea716adb5326b81cc6993af7d528b28ffa64c4ea9ca2164736f6c634300081c00338be0079c531659141344cd1fd0a4f28419497f9722a3daafe3b4186f6b6457e0a2646970667358221220dffacf437264e305df98f376dc905dd44c90f50c6d5fb357525ceac596999fe864736f6c634300081c0033",
  "linkReferences": {},
  "deployedLinkReferences": {},
  "immutableReferences": {},
  "inputSourceName": "project/contracts/FundRaisingFactory.sol",
  "buildInfoId": "solc-0_8_28-7459c6fdaa3bfef03b0a8842faa709486d4dbebe"
}