{
  "_format": "hh3-artifact-1",
  "contractName": "FundRaisingContractNFT",
  "sourceName": "contracts/FundRaisingContractNFT.sol",
  "abi": [
    {
      "inputs": [
        {
          "internalType": "address",
          "name": "_dzNFT",
          "type": "address"
        },
        {
          "internalType": "address",
          "name": "_usdtToken",
          "type": "address"
        }
      ],
      "stateMutability": "nonpayable",
      "type": "constructor"
    },
    {
      "inputs": [],
      "name": "EnforcedPause",
      "type": "error"
    },
    {
      "inputs": [],
      "name": "ExpectedPause",
      "type": "error"
    },
    {
      "inputs": [
        {
          "internalType": "address",
          "name": "owner",
          "type": "address"
        }
      ],
      "name": "OwnableInvalidOwner",
      "type": "error"
    },
    {
      "inputs": [
        {
          "internalType": "address",
          "name": "account",
          "type": "address"
        }
      ],
      "name": "OwnableUnauthorizedAccount",
      "type": "error"
    },
    {
      "inputs": [],
      "name": "ReentrancyGuardReentrantCall",
      "type": "error"
    },
    {
      "anonymous": false,
      "inputs": [
        {
          "indexed": true,
          "internalType": "uint256",
          "name": "tokenId",
          "type": "uint256"
        },
        {
          "indexed": true,
          "internalType": "address",
          "name": "investor",
          "type": "address"
        },
        {
          "indexed": false,
          "internalType": "uint256",
          "name": "rewardAmount",
          "type": "uint256"
        }
      ],
      "name": "EarlyRewardClaimed",
      "type": "event"
    },
    {
      "anonymous": false,
      "inputs": [
        {
          "indexed": true,
          "internalType": "uint256",
          "name": "roundId",
          "type": "uint256"
        },
        {
          "indexed": true,
          "internalType": "uint256",
          "name": "tokenId",
          "type": "uint256"
        },
        {
          "indexed": true,
          "internalType": "address",
          "name": "investor",
          "type": "address"
        },
        {
          "indexed": false,
          "internalType": "uint256",
          "name": "amountUSDT",
          "type": "uint256"
        },
        {
          "indexed": false,
          "internalType": "uint256",
          "name": "tokensReceived",
          "type": "uint256"
        }
      ],
      "name": "InvestmentMade",
      "type": "event"
    },
    {
      "anonymous": false,
      "inputs": [
        {
          "indexed": true,
          "internalType": "address",
          "name": "previousOwner",
          "type": "address"
        },
        {
          "indexed": true,
          "internalType": "address",
          "name": "newOwner",
          "type": "address"
        }
      ],
      "name": "OwnershipTransferred",
      "type": "event"
    },
    {
      "anonymous": false,
      "inputs": [
        {
          "indexed": false,
          "internalType": "address",
          "name": "account",
          "type": "address"
        }
      ],
      "name": "Paused",
      "type": "event"
    },
    {
      "anonymous": false,
      "inputs": [
        {
          "indexed": true,
          "internalType": "uint256",
          "name": "tokenId",
          "type": "uint256"
        },
        {
          "indexed": true,
          "internalType": "address",
          "name": "investor",
          "type": "address"
        },
        {
          "indexed": false,
          "internalType": "uint256",
          "name": "payout",
          "type": "uint256"
        }
      ],
      "name": "RedemptionMade",
      "type": "event"
    },
    {
      "anonymous": false,
      "inputs": [
        {
          "indexed": true,
          "internalType": "uint256",
          "name": "roundId",
          "type": "uint256"
        },
        {
          "indexed": false,
          "internalType": "string",
          "name": "roundName",
          "type": "string"
        },
        {
          "indexed": false,
          "internalType": "uint256",
          "name": "tokenPrice",
          "type": "uint256"
        },
        {
          "indexed": false,
          "internalType": "uint256",
          "name": "rewardPercentage",
          "type": "uint256"
        },
        {
          "indexed": false,
          "internalType": "uint256",
          "name": "totalTokenOpenInvestment",
          "type": "uint256"
        },
        {
          "indexed": false,
          "internalType": "uint256",
          "name": "closeDateInvestment",
          "type": "uint256"
        },
        {
          "indexed": false,
          "internalType": "uint256",
          "name": "endDateInvestment",
          "type": "uint256"
        }
      ],
      "name": "RoundCreated",
      "type": "event"
    },
    {
      "anonymous": false,
      "inputs": [
        {
          "indexed": true,
          "internalType": "uint256",
          "name": "roundId",
          "type": "uint256"
        },
        {
          "indexed": false,
          "internalType": "uint256",
          "name": "amount",
          "type": "uint256"
        }
      ],
      "name": "RoundEmergencyWithdraw",
      "type": "event"
    },
    {
      "anonymous": false,
      "inputs": [
        {
          "indexed": true,
          "internalType": "uint256",
          "name": "roundId",
          "type": "uint256"
        },
        {
          "indexed": false,
          "internalType": "uint256",
          "name": "amount",
          "type": "uint256"
        }
      ],
      "name": "RoundFunded",
      "type": "event"
    },
    {
      "anonymous": false,
      "inputs": [
        {
          "indexed": true,
          "internalType": "uint256",
          "name": "roundId",
          "type": "uint256"
        },
        {
          "indexed": false,
          "internalType": "bool",
          "name": "isActive",
          "type": "bool"
        }
      ],
      "name": "RoundStatusChanged",
      "type": "event"
    },
    {
      "anonymous": false,
      "inputs": [
        {
          "indexed": true,
          "internalType": "address",
          "name": "oldToken",
          "type": "address"
        },
        {
          "indexed": true,
          "internalType": "address",
          "name": "newToken",
          "type": "address"
        }
      ],
      "name": "USDTTokenUpdated",
      "type": "event"
    },
    {
      "anonymous": false,
      "inputs": [
        {
          "indexed": false,
          "internalType": "address",
          "name": "account",
          "type": "address"
        }
      ],
      "name": "Unpaused",
      "type": "event"
    },
    {
      "inputs": [],
      "name": "MAX_BATCH_CLAIM",
      "outputs": [
        {
          "internalType": "uint256",
          "name": "",
          "type": "uint256"
        }
      ],
      "stateMutability": "view",
      "type": "function"
    },
    {
      "inputs": [],
      "name": "MAX_TOKENS_PER_INVESTMENT",
      "outputs": [
        {
          "internalType": "uint256",
          "name": "",
          "type": "uint256"
        }
      ],
      "stateMutability": "view",
      "type": "function"
    },
    {
      "inputs": [],
      "name": "USDT_DECIMALS",
      "outputs": [
        {
          "internalType": "uint256",
          "name": "",
          "type": "uint256"
        }
      ],
      "stateMutability": "view",
      "type": "function"
    },
    {
      "inputs": [
        {
          "internalType": "uint256",
          "name": "roundId",
          "type": "uint256"
        },
        {
          "internalType": "uint256",
          "name": "amount",
          "type": "uint256"
        }
      ],
      "name": "addReward",
      "outputs": [],
      "stateMutability": "nonpayable",
      "type": "function"
    },
    {
      "inputs": [
        {
          "internalType": "uint256",
          "name": "tokenId",
          "type": "uint256"
        }
      ],
      "name": "canTokenClaimEarlyReward",
      "outputs": [
        {
          "internalType": "bool",
          "name": "",
          "type": "bool"
        }
      ],
      "stateMutability": "view",
      "type": "function"
    },
    {
      "inputs": [
        {
          "internalType": "uint256",
          "name": "tokenId",
          "type": "uint256"
        }
      ],
      "name": "canTokenFullyRedeem",
      "outputs": [
        {
          "internalType": "bool",
          "name": "",
          "type": "bool"
        }
      ],
      "stateMutability": "view",
      "type": "function"
    },
    {
      "inputs": [
        {
          "internalType": "uint256",
          "name": "roundId",
          "type": "uint256"
        }
      ],
      "name": "claimRewardRound",
      "outputs": [],
      "stateMutability": "nonpayable",
      "type": "function"
    },
    {
      "inputs": [
        {
          "internalType": "uint256",
          "name": "tokenId",
          "type": "uint256"
        }
      ],
      "name": "claimRewards",
      "outputs": [],
      "stateMutability": "nonpayable",
      "type": "function"
    },
    {
      "inputs": [
        {
          "internalType": "string",
          "name": "roundName",
          "type": "string"
        },
        {
          "internalType": "uint256",
          "name": "tokenPrice",
          "type": "uint256"
        },
        {
          "internalType": "uint256",
          "name": "rewardPercentage",
          "type": "uint256"
        },
        {
          "internalType": "uint256",
          "name": "totalTokenOpenInvestment",
          "type": "uint256"
        },
        {
          "internalType": "uint256",
          "name": "closeDateInvestment",
          "type": "uint256"
        },
        {
          "internalType": "uint256",
          "name": "endDateInvestment",
          "type": "uint256"
        }
      ],
      "name": "createInvestmentRound",
      "outputs": [
        {
          "internalType": "uint256",
          "name": "",
          "type": "uint256"
        }
      ],
      "stateMutability": "nonpayable",
      "type": "function"
    },
    {
      "inputs": [],
      "name": "dzNFT",
      "outputs": [
        {
          "internalType": "contract DZNFT",
          "name": "",
          "type": "address"
        }
      ],
      "stateMutability": "view",
      "type": "function"
    },
    {
      "inputs": [
        {
          "internalType": "uint256",
          "name": "amount",
          "type": "uint256"
        }
      ],
      "name": "emergencyWithdraw",
      "outputs": [],
      "stateMutability": "nonpayable",
      "type": "function"
    },
    {
      "inputs": [
        {
          "internalType": "uint256",
          "name": "roundId",
          "type": "uint256"
        },
        {
          "internalType": "uint256",
          "name": "amount",
          "type": "uint256"
        }
      ],
      "name": "emergencyWithdrawFromRound",
      "outputs": [],
      "stateMutability": "nonpayable",
      "type": "function"
    },
    {
      "inputs": [
        {
          "internalType": "uint256",
          "name": "amount",
          "type": "uint256"
        }
      ],
      "name": "fundContract",
      "outputs": [],
      "stateMutability": "nonpayable",
      "type": "function"
    },
    {
      "inputs": [],
      "name": "getAllRoundUSDTBalances",
      "outputs": [
        {
          "internalType": "uint256[]",
          "name": "roundIds",
          "type": "uint256[]"
        },
        {
          "internalType": "uint256[]",
          "name": "balances",
          "type": "uint256[]"
        }
      ],
      "stateMutability": "view",
      "type": "function"
    },
    {
      "inputs": [
        {
          "internalType": "uint256",
          "name": "offset",
          "type": "uint256"
        },
        {
          "internalType": "uint256",
          "name": "limit",
          "type": "uint256"
        },
        {
          "internalType": "enum FundRaisingContractNFT.SortField",
          "name": "sortField",
          "type": "uint8"
        },
        {
          "internalType": "enum FundRaisingContractNFT.SortDirection",
          "name": "sortDirection",
          "type": "uint8"
        }
      ],
      "name": "getAllRoundsDetailedPaginated",
      "outputs": [
        {
          "components": [
            {
              "internalType": "uint256",
              "name": "roundId",
              "type": "uint256"
            },
            {
              "internalType": "string",
              "name": "roundName",
              "type": "string"
            },
            {
              "internalType": "uint256",
              "name": "tokenPrice",
              "type": "uint256"
            },
            {
              "internalType": "uint256",
              "name": "rewardPercentage",
              "type": "uint256"
            },
            {
              "internalType": "uint256",
              "name": "totalTokenOpenInvestment",
              "type": "uint256"
            },
            {
              "internalType": "uint256",
              "name": "tokensSold",
              "type": "uint256"
            },
            {
              "internalType": "uint256",
              "name": "closeDateInvestment",
              "type": "uint256"
            },
            {
              "internalType": "uint256",
              "name": "endDateInvestment",
              "type": "uint256"
            },
            {
              "internalType": "bool",
              "name": "isActive",
              "type": "bool"
            },
            {
              "internalType": "bool",
              "name": "exists",
              "type": "bool"
            },
            {
              "internalType": "uint256",
              "name": "createdAt",
              "type": "uint256"
            }
          ],
          "internalType": "struct FundRaisingContractNFT.InvestmentRound[]",
          "name": "rounds",
          "type": "tuple[]"
        },
        {
          "internalType": "uint256[]",
          "name": "investorCounts",
          "type": "uint256[]"
        },
        {
          "internalType": "uint256",
          "name": "totalPages",
          "type": "uint256"
        },
        {
          "internalType": "uint256",
          "name": "currentPage",
          "type": "uint256"
        },
        {
          "internalType": "bool",
          "name": "hasMore",
          "type": "bool"
        }
      ],
      "stateMutability": "view",
      "type": "function"
    },
    {
      "inputs": [
        {
          "internalType": "uint256",
          "name": "offset",
          "type": "uint256"
        },
        {
          "internalType": "uint256",
          "name": "limit",
          "type": "uint256"
        }
      ],
      "name": "getAllRoundsDetailedPaginatedDefault",
      "outputs": [
        {
          "components": [
            {
              "internalType": "uint256",
              "name": "roundId",
              "type": "uint256"
            },
            {
              "internalType": "string",
              "name": "roundName",
              "type": "string"
            },
            {
              "internalType": "uint256",
              "name": "tokenPrice",
              "type": "uint256"
            },
            {
              "internalType": "uint256",
              "name": "rewardPercentage",
              "type": "uint256"
            },
            {
              "internalType": "uint256",
              "name": "totalTokenOpenInvestment",
              "type": "uint256"
            },
            {
              "internalType": "uint256",
              "name": "tokensSold",
              "type": "uint256"
            },
            {
              "internalType": "uint256",
              "name": "closeDateInvestment",
              "type": "uint256"
            },
            {
              "internalType": "uint256",
              "name": "endDateInvestment",
              "type": "uint256"
            },
            {
              "internalType": "bool",
              "name": "isActive",
              "type": "bool"
            },
            {
              "internalType": "bool",
              "name": "exists",
              "type": "bool"
            },
            {
              "internalType": "uint256",
              "name": "createdAt",
              "type": "uint256"
            }
          ],
          "internalType": "struct FundRaisingContractNFT.InvestmentRound[]",
          "name": "rounds",
          "type": "tuple[]"
        },
        {
          "internalType": "uint256[]",
          "name": "investorCounts",
          "type": "uint256[]"
        },
        {
          "internalType": "uint256",
          "name": "totalPages",
          "type": "uint256"
        },
        {
          "internalType": "uint256",
          "name": "currentPage",
          "type": "uint256"
        },
        {
          "internalType": "bool",
          "name": "hasMore",
          "type": "bool"
        }
      ],
      "stateMutability": "view",
      "type": "function"
    },
    {
      "inputs": [],
      "name": "getAllRoundsSummary",
      "outputs": [
        {
          "internalType": "uint256[]",
          "name": "roundIds",
          "type": "uint256[]"
        },
        {
          "internalType": "string[]",
          "name": "roundNames",
          "type": "string[]"
        },
        {
          "internalType": "bool[]",
          "name": "roundStatuses",
          "type": "bool[]"
        },
        {
          "internalType": "uint256[]",
          "name": "totalRaised",
          "type": "uint256[]"
        },
        {
          "internalType": "bool[]",
          "name": "isInvestmentOpenArray",
          "type": "bool[]"
        }
      ],
      "stateMutability": "view",
      "type": "function"
    },
    {
      "inputs": [
        {
          "internalType": "uint256",
          "name": "offset",
          "type": "uint256"
        },
        {
          "internalType": "uint256",
          "name": "limit",
          "type": "uint256"
        },
        {
          "internalType": "enum FundRaisingContractNFT.SortField",
          "name": "sortField",
          "type": "uint8"
        },
        {
          "internalType": "enum FundRaisingContractNFT.SortDirection",
          "name": "sortDirection",
          "type": "uint8"
        }
      ],
      "name": "getAllRoundsSummaryPaginated",
      "outputs": [
        {
          "internalType": "uint256[]",
          "name": "roundIds",
          "type": "uint256[]"
        },
        {
          "internalType": "string[]",
          "name": "roundNames",
          "type": "string[]"
        },
        {
          "internalType": "bool[]",
          "name": "roundStatuses",
          "type": "bool[]"
        },
        {
          "internalType": "uint256[]",
          "name": "totalRaised",
          "type": "uint256[]"
        },
        {
          "internalType": "bool[]",
          "name": "isInvestmentOpenArray",
          "type": "bool[]"
        },
        {
          "internalType": "uint256[]",
          "name": "availableTokensArray",
          "type": "uint256[]"
        },
        {
          "internalType": "uint256[]",
          "name": "daysUntilCloseArray",
          "type": "uint256[]"
        },
        {
          "internalType": "uint256",
          "name": "totalPages",
          "type": "uint256"
        },
        {
          "internalType": "uint256",
          "name": "currentPage",
          "type": "uint256"
        },
        {
          "internalType": "bool",
          "name": "hasMore",
          "type": "bool"
        }
      ],
      "stateMutability": "view",
      "type": "function"
    },
    {
      "inputs": [
        {
          "internalType": "uint256",
          "name": "offset",
          "type": "uint256"
        },
        {
          "internalType": "uint256",
          "name": "limit",
          "type": "uint256"
        }
      ],
      "name": "getAllRoundsSummaryPaginatedDefault",
      "outputs": [
        {
          "internalType": "uint256[]",
          "name": "roundIds",
          "type": "uint256[]"
        },
        {
          "internalType": "string[]",
          "name": "roundNames",
          "type": "string[]"
        },
        {
          "internalType": "bool[]",
          "name": "roundStatuses",
          "type": "bool[]"
        },
        {
          "internalType": "uint256[]",
          "name": "totalRaised",
          "type": "uint256[]"
        },
        {
          "internalType": "bool[]",
          "name": "isInvestmentOpenArray",
          "type": "bool[]"
        },
        {
          "internalType": "uint256[]",
          "name": "availableTokensArray",
          "type": "uint256[]"
        },
        {
          "internalType": "uint256[]",
          "name": "daysUntilCloseArray",
          "type": "uint256[]"
        },
        {
          "internalType": "uint256",
          "name": "totalPages",
          "type": "uint256"
        },
        {
          "internalType": "uint256",
          "name": "currentPage",
          "type": "uint256"
        },
        {
          "internalType": "bool",
          "name": "hasMore",
          "type": "bool"
        }
      ],
      "stateMutability": "view",
      "type": "function"
    },
    {
      "inputs": [
        {
          "internalType": "uint256",
          "name": "roundId",
          "type": "uint256"
        }
      ],
      "name": "getAvailableTokens",
      "outputs": [
        {
          "internalType": "uint256",
          "name": "",
          "type": "uint256"
        }
      ],
      "stateMutability": "view",
      "type": "function"
    },
    {
      "inputs": [
        {
          "internalType": "uint256",
          "name": "roundId",
          "type": "uint256"
        }
      ],
      "name": "getCalculationRewardAmount",
      "outputs": [
        {
          "internalType": "uint256",
          "name": "totalPrincipalAmount",
          "type": "uint256"
        },
        {
          "internalType": "uint256",
          "name": "totalRewardAmount",
          "type": "uint256"
        },
        {
          "internalType": "uint256",
          "name": "totalNFTs",
          "type": "uint256"
        },
        {
          "internalType": "uint256",
          "name": "redeemedNFTs",
          "type": "uint256"
        },
        {
          "internalType": "uint256",
          "name": "rewardClaimedNFTs",
          "type": "uint256"
        }
      ],
      "stateMutability": "view",
      "type": "function"
    },
    {
      "inputs": [],
      "name": "getContractStats",
      "outputs": [
        {
          "internalType": "uint256",
          "name": "totalRounds",
          "type": "uint256"
        },
        {
          "internalType": "uint256",
          "name": "totalUSDTRaisedAmount",
          "type": "uint256"
        },
        {
          "internalType": "uint256",
          "name": "contractUSDTBalance",
          "type": "uint256"
        },
        {
          "internalType": "uint256",
          "name": "activeRounds",
          "type": "uint256"
        }
      ],
      "stateMutability": "view",
      "type": "function"
    },
    {
      "inputs": [],
      "name": "getContractUSDTBalance",
      "outputs": [
        {
          "internalType": "uint256",
          "name": "",
          "type": "uint256"
        }
      ],
      "stateMutability": "view",
      "type": "function"
    },
    {
      "inputs": [
        {
          "internalType": "uint256",
          "name": "roundId",
          "type": "uint256"
        }
      ],
      "name": "getInvestmentRound",
      "outputs": [
        {
          "components": [
            {
              "internalType": "uint256",
              "name": "roundId",
              "type": "uint256"
            },
            {
              "internalType": "string",
              "name": "roundName",
              "type": "string"
            },
            {
              "internalType": "uint256",
              "name": "tokenPrice",
              "type": "uint256"
            },
            {
              "internalType": "uint256",
              "name": "rewardPercentage",
              "type": "uint256"
            },
            {
              "internalType": "uint256",
              "name": "totalTokenOpenInvestment",
              "type": "uint256"
            },
            {
              "internalType": "uint256",
              "name": "tokensSold",
              "type": "uint256"
            },
            {
              "internalType": "uint256",
              "name": "closeDateInvestment",
              "type": "uint256"
            },
            {
              "internalType": "uint256",
              "name": "endDateInvestment",
              "type": "uint256"
            },
            {
              "internalType": "bool",
              "name": "isActive",
              "type": "bool"
            },
            {
              "internalType": "bool",
              "name": "exists",
              "type": "bool"
            },
            {
              "internalType": "uint256",
              "name": "createdAt",
              "type": "uint256"
            }
          ],
          "internalType": "struct FundRaisingContractNFT.InvestmentRound",
          "name": "",
          "type": "tuple"
        }
      ],
      "stateMutability": "view",
      "type": "function"
    },
    {
      "inputs": [
        {
          "internalType": "uint256",
          "name": "roundId",
          "type": "uint256"
        }
      ],
      "name": "getRoundInformation",
      "outputs": [
        {
          "components": [
            {
              "internalType": "uint256",
              "name": "roundId",
              "type": "uint256"
            },
            {
              "internalType": "string",
              "name": "roundName",
              "type": "string"
            },
            {
              "internalType": "uint256",
              "name": "tokenPrice",
              "type": "uint256"
            },
            {
              "internalType": "uint256",
              "name": "rewardPercentage",
              "type": "uint256"
            },
            {
              "internalType": "uint256",
              "name": "totalTokenOpenInvestment",
              "type": "uint256"
            },
            {
              "internalType": "uint256",
              "name": "tokensSold",
              "type": "uint256"
            },
            {
              "internalType": "uint256",
              "name": "closeDateInvestment",
              "type": "uint256"
            },
            {
              "internalType": "uint256",
              "name": "endDateInvestment",
              "type": "uint256"
            },
            {
              "internalType": "bool",
              "name": "isActive",
              "type": "bool"
            },
            {
              "internalType": "bool",
              "name": "exists",
              "type": "bool"
            },
            {
              "internalType": "uint256",
              "name": "createdAt",
              "type": "uint256"
            }
          ],
          "internalType": "struct FundRaisingContractNFT.InvestmentRound",
          "name": "roundInfo",
          "type": "tuple"
        },
        {
          "internalType": "uint256",
          "name": "totalUSDTRaisedInRound",
          "type": "uint256"
        },
        {
          "internalType": "uint256",
          "name": "totalInvestors",
          "type": "uint256"
        },
        {
          "internalType": "uint256",
          "name": "availableTokens",
          "type": "uint256"
        },
        {
          "internalType": "bool",
          "name": "isInvestmentOpen",
          "type": "bool"
        },
        {
          "internalType": "bool",
          "name": "isRedemptionOpen",
          "type": "bool"
        },
        {
          "internalType": "uint256",
          "name": "daysUntilClose",
          "type": "uint256"
        },
        {
          "internalType": "uint256",
          "name": "daysUntilRedemption",
          "type": "uint256"
        }
      ],
      "stateMutability": "view",
      "type": "function"
    },
    {
      "inputs": [
        {
          "internalType": "uint256",
          "name": "roundId",
          "type": "uint256"
        }
      ],
      "name": "getRoundInvestors",
      "outputs": [
        {
          "internalType": "address[]",
          "name": "investors",
          "type": "address[]"
        },
        {
          "internalType": "uint256[]",
          "name": "nftCounts",
          "type": "uint256[]"
        }
      ],
      "stateMutability": "view",
      "type": "function"
    },
    {
      "inputs": [
        {
          "internalType": "uint256",
          "name": "roundId",
          "type": "uint256"
        }
      ],
      "name": "getRoundMetrics",
      "outputs": [
        {
          "internalType": "uint256",
          "name": "soldPercentage",
          "type": "uint256"
        },
        {
          "internalType": "uint256",
          "name": "averageInvestmentSize",
          "type": "uint256"
        },
        {
          "internalType": "uint256",
          "name": "totalRewardsPaid",
          "type": "uint256"
        },
        {
          "internalType": "uint256",
          "name": "totalPrincipalRedeemed",
          "type": "uint256"
        },
        {
          "internalType": "uint256",
          "name": "earlyRewardsClaimed",
          "type": "uint256"
        },
        {
          "internalType": "uint256",
          "name": "fullRedemptions",
          "type": "uint256"
        }
      ],
      "stateMutability": "view",
      "type": "function"
    },
    {
      "inputs": [
        {
          "internalType": "uint256",
          "name": "roundId",
          "type": "uint256"
        }
      ],
      "name": "getRoundTokenIds",
      "outputs": [
        {
          "internalType": "uint256[]",
          "name": "",
          "type": "uint256[]"
        }
      ],
      "stateMutability": "view",
      "type": "function"
    },
    {
      "inputs": [
        {
          "internalType": "uint256",
          "name": "roundId",
          "type": "uint256"
        }
      ],
      "name": "getRoundUSDTBalance",
      "outputs": [
        {
          "internalType": "uint256",
          "name": "",
          "type": "uint256"
        }
      ],
      "stateMutability": "view",
      "type": "function"
    },
    {
      "inputs": [],
      "name": "getRoundsCount",
      "outputs": [
        {
          "internalType": "uint256",
          "name": "totalRounds",
          "type": "uint256"
        },
        {
          "internalType": "uint256",
          "name": "activeRounds",
          "type": "uint256"
        }
      ],
      "stateMutability": "view",
      "type": "function"
    },
    {
      "inputs": [],
      "name": "getUSDTTokenAddress",
      "outputs": [
        {
          "internalType": "address",
          "name": "",
          "type": "address"
        }
      ],
      "stateMutability": "view",
      "type": "function"
    },
    {
      "inputs": [
        {
          "internalType": "address",
          "name": "user",
          "type": "address"
        }
      ],
      "name": "getUserInvestments",
      "outputs": [
        {
          "internalType": "uint256[]",
          "name": "",
          "type": "uint256[]"
        }
      ],
      "stateMutability": "view",
      "type": "function"
    },
    {
      "inputs": [
        {
          "internalType": "uint256",
          "name": "roundId",
          "type": "uint256"
        },
        {
          "internalType": "address",
          "name": "user",
          "type": "address"
        }
      ],
      "name": "getUserNFTCountInRound",
      "outputs": [
        {
          "internalType": "uint256",
          "name": "",
          "type": "uint256"
        }
      ],
      "stateMutability": "view",
      "type": "function"
    },
    {
      "inputs": [
        {
          "internalType": "uint256",
          "name": "roundId",
          "type": "uint256"
        },
        {
          "internalType": "address",
          "name": "user",
          "type": "address"
        }
      ],
      "name": "getUserNFTsInRound",
      "outputs": [
        {
          "internalType": "uint256[]",
          "name": "",
          "type": "uint256[]"
        }
      ],
      "stateMutability": "view",
      "type": "function"
    },
    {
      "inputs": [
        {
          "internalType": "uint256",
          "name": "roundId",
          "type": "uint256"
        },
        {
          "internalType": "address",
          "name": "user",
          "type": "address"
        }
      ],
      "name": "getUserRoundSummary",
      "outputs": [
        {
          "internalType": "uint256",
          "name": "nftCount",
          "type": "uint256"
        },
        {
          "internalType": "uint256",
          "name": "totalUSDTInvested",
          "type": "uint256"
        },
        {
          "internalType": "uint256",
          "name": "totalTokens",
          "type": "uint256"
        },
        {
          "internalType": "uint256",
          "name": "expectedReward",
          "type": "uint256"
        },
        {
          "internalType": "uint256",
          "name": "totalExpectedPayout",
          "type": "uint256"
        },
        {
          "internalType": "bool",
          "name": "hasMaturedInvestments",
          "type": "bool"
        },
        {
          "internalType": "bool",
          "name": "hasRedeemedInvestments",
          "type": "bool"
        }
      ],
      "stateMutability": "view",
      "type": "function"
    },
    {
      "inputs": [
        {
          "internalType": "uint256",
          "name": "roundId",
          "type": "uint256"
        },
        {
          "internalType": "address",
          "name": "user",
          "type": "address"
        }
      ],
      "name": "getUserTotalInvestmentInRound",
      "outputs": [
        {
          "internalType": "uint256",
          "name": "totalUSDT",
          "type": "uint256"
        },
        {
          "internalType": "uint256",
          "name": "totalTokens",
          "type": "uint256"
        }
      ],
      "stateMutability": "view",
      "type": "function"
    },
    {
      "inputs": [
        {
          "internalType": "uint256",
          "name": "roundId",
          "type": "uint256"
        },
        {
          "internalType": "address",
          "name": "user",
          "type": "address"
        }
      ],
      "name": "hasUserInvestedInRound",
      "outputs": [
        {
          "internalType": "bool",
          "name": "",
          "type": "bool"
        }
      ],
      "stateMutability": "view",
      "type": "function"
    },
    {
      "inputs": [
        {
          "internalType": "uint256",
          "name": "roundId",
          "type": "uint256"
        },
        {
          "internalType": "uint256",
          "name": "tokenAmount",
          "type": "uint256"
        }
      ],
      "name": "investInRound",
      "outputs": [
        {
          "internalType": "uint256",
          "name": "",
          "type": "uint256"
        }
      ],
      "stateMutability": "nonpayable",
      "type": "function"
    },
    {
      "inputs": [
        {
          "internalType": "uint256",
          "name": "",
          "type": "uint256"
        }
      ],
      "name": "investmentRounds",
      "outputs": [
        {
          "internalType": "uint256",
          "name": "roundId",
          "type": "uint256"
        },
        {
          "internalType": "string",
          "name": "roundName",
          "type": "string"
        },
        {
          "internalType": "uint256",
          "name": "tokenPrice",
          "type": "uint256"
        },
        {
          "internalType": "uint256",
          "name": "rewardPercentage",
          "type": "uint256"
        },
        {
          "internalType": "uint256",
          "name": "totalTokenOpenInvestment",
          "type": "uint256"
        },
        {
          "internalType": "uint256",
          "name": "tokensSold",
          "type": "uint256"
        },
        {
          "internalType": "uint256",
          "name": "closeDateInvestment",
          "type": "uint256"
        },
        {
          "internalType": "uint256",
          "name": "endDateInvestment",
          "type": "uint256"
        },
        {
          "internalType": "bool",
          "name": "isActive",
          "type": "bool"
        },
        {
          "internalType": "bool",
          "name": "exists",
          "type": "bool"
        },
        {
          "internalType": "uint256",
          "name": "createdAt",
          "type": "uint256"
        }
      ],
      "stateMutability": "view",
      "type": "function"
    },
    {
      "inputs": [
        {
          "internalType": "uint256",
          "name": "roundId",
          "type": "uint256"
        }
      ],
      "name": "isRoundOpen",
      "outputs": [
        {
          "internalType": "bool",
          "name": "",
          "type": "bool"
        }
      ],
      "stateMutability": "view",
      "type": "function"
    },
    {
      "inputs": [],
      "name": "owner",
      "outputs": [
        {
          "internalType": "address",
          "name": "",
          "type": "address"
        }
      ],
      "stateMutability": "view",
      "type": "function"
    },
    {
      "inputs": [],
      "name": "pause",
      "outputs": [],
      "stateMutability": "nonpayable",
      "type": "function"
    },
    {
      "inputs": [],
      "name": "paused",
      "outputs": [
        {
          "internalType": "bool",
          "name": "",
          "type": "bool"
        }
      ],
      "stateMutability": "view",
      "type": "function"
    },
    {
      "inputs": [],
      "name": "renounceOwnership",
      "outputs": [],
      "stateMutability": "nonpayable",
      "type": "function"
    },
    {
      "inputs": [
        {
          "internalType": "uint256",
          "name": "",
          "type": "uint256"
        },
        {
          "internalType": "uint256",
          "name": "",
          "type": "uint256"
        }
      ],
      "name": "roundTokenIds",
      "outputs": [
        {
          "internalType": "uint256",
          "name": "",
          "type": "uint256"
        }
      ],
      "stateMutability": "view",
      "type": "function"
    },
    {
      "inputs": [
        {
          "internalType": "uint256",
          "name": "",
          "type": "uint256"
        }
      ],
      "name": "roundUSDTLedger",
      "outputs": [
        {
          "internalType": "uint256",
          "name": "",
          "type": "uint256"
        }
      ],
      "stateMutability": "view",
      "type": "function"
    },
    {
      "inputs": [
        {
          "internalType": "uint256",
          "name": "roundId",
          "type": "uint256"
        },
        {
          "internalType": "bool",
          "name": "active",
          "type": "bool"
        }
      ],
      "name": "setRoundActive",
      "outputs": [],
      "stateMutability": "nonpayable",
      "type": "function"
    },
    {
      "inputs": [
        {
          "internalType": "address",
          "name": "newUSDTToken",
          "type": "address"
        }
      ],
      "name": "setUSDTToken",
      "outputs": [],
      "stateMutability": "nonpayable",
      "type": "function"
    },
    {
      "inputs": [],
      "name": "totalRoundsCreated",
      "outputs": [
        {
          "internalType": "uint256",
          "name": "",
          "type": "uint256"
        }
      ],
      "stateMutability": "view",
      "type": "function"
    },
    {
      "inputs": [],
      "name": "totalUSDTRaised",
      "outputs": [
        {
          "internalType": "uint256",
          "name": "",
          "type": "uint256"
        }
      ],
      "stateMutability": "view",
      "type": "function"
    },
    {
      "inputs": [
        {
          "internalType": "address",
          "name": "newOwner",
          "type": "address"
        }
      ],
      "name": "transferOwnership",
      "outputs": [],
      "stateMutability": "nonpayable",
      "type": "function"
    },
    {
      "inputs": [],
      "name": "unpause",
      "outputs": [],
      "stateMutability": "nonpayable",
      "type": "function"
    },
    {
      "inputs": [],
      "name": "usdtToken",
      "outputs": [
        {
          "internalType": "contract IERC20",
          "name": "",
          "type": "address"
        }
      ],
      "stateMutability": "view",
      "type": "function"
    },
    {
      "inputs": [
        {
          "internalType": "address",
          "name": "",
          "type": "address"
        },
        {
          "internalType": "uint256",
          "name": "",
          "type": "uint256"
        }
      ],
      "name": "userInvestments",
      "outputs": [
        {
          "internalType": "uint256",
          "name": "",
          "type": "uint256"
        }
      ],
      "stateMutability": "view",
      "type": "function"
    },
    {
      "inputs": [
        {
          "internalType": "uint256",
          "name": "",
          "type": "uint256"
        },
        {
          "internalType": "address",
          "name": "",
          "type": "address"
        },
        {
          "internalType": "uint256",
          "name": "",
          "type": "uint256"
        }
      ],
      "name": "userNFTsInRound",
      "outputs": [
        {
          "internalType": "uint256",
          "name": "",
          "type": "uint256"
        }
      ],
      "stateMutability": "view",
      "type": "function"
    },
    {
      "inputs": [
        {
          "internalType": "uint256",
          "name": "roundId",
          "type": "uint256"
        }
      ],
      "name": "withdrawFund",
      "outputs": [],
      "stateMutability": "nonpayable",
      "type": "function"
    }
  ],
  "bytecode": "0x60a0346101ec57601f615c6738819003918201601f19168301916001600160401b038311848410176101f05780849260409485528339810103126101ec57610052602061004b83610204565b9201610204565b9033156101d9575f8054336001600160a01b0319821681178355604051939290916001600160a01b0316907f8be0079c531659141344cd1fd0a4f28419497f9722a3daafe3b4186f6b6457e09080a3600180556001600160a01b031690811561019757506001600160a01b038216156101525760805260028054610100600160a81b03191660089290921b610100600160a81b0316919091179055604051615a4e90816102198239608051818181610ba601528181610db0015281816111a40152818161134001528181611840015281816120a10152818161308701528181613df901528181613eb70152818161440a0152818161479201526151f40152f35b60405162461bcd60e51b815260206004820152601460248201527f496e76616c6964205553445420616464726573730000000000000000000000006044820152606490fd5b62461bcd60e51b815260206004820152601560248201527f496e76616c696420445a4e4654206164647265737300000000000000000000006044820152606490fd5b631e4fbdf760e01b5f525f60045260245ffd5b5f80fd5b634e487b7160e01b5f52604160045260245ffd5b51906001600160a01b03821682036101ec5756fe60806040526004361015610011575f80fd5b5f5f3560e01c8063048f80ba1461470457806304d575251461448857806306d93838146143dc578063079ac6a41461438057806308c89b6d146143635780630962ef7914613e7b5780630c64428f14613dc95780630c8344e714613bb85780630cee172514613b1e5780631144e79e14613b02578063140fa8b214613a0a5780631470e87d146114c6578063161f66221461398857806318f38da2146138eb57806330814b1b146138cd5780633519a2f81461386f5780633b7275711461380a5780633f4ba83a146137a25780633ff0c9c41461358157806342b38fd1146134cc578063464687631461327f5780634cadabdc146130045780635312ea8e14612ea55780635848b10914612b8a5780635c975abb14612b6757806360985a4b1461295157806366e226bd146128335780636760455114611ffa57806369fbd3cc14611f3e5780636d796db514611d32578063715018a614611cd857806375c93bb914611b6957806379b2c17a14611acc5780638456cb5914611a715780638b0f9552146116e95780638da5cb5b146116c25780639187cb03146115ed5780639244adcd146115a5578063a09686c41461151d578063a8f252b0146114f3578063a98ad46c146114c6578063b201c0c314611494578063b4ad7d3a1461144e578063b6dc2c29146112b6578063b82e4fc3146111d3578063bf32eb011461118e578063c52c5c8814611104578063c6f83418146110e8578063c8f760401461105c578063cfbb52d314610ff9578063df8493b014610a11578063dfe6b5d6146108fb578063e96d87b41461038a578063ef1b92a414610326578063ef2cfd1a1461030a5763f2fde38b14610282575f80fd5b346103075760203660031901126103075761029b614921565b6102a36159f2565b6001600160a01b031680156102f35781546001600160a01b03198116821783556001600160a01b03167f8be0079c531659141344cd1fd0a4f28419497f9722a3daafe3b4186f6b6457e08380a380f35b631e4fbdf760e01b82526004829052602482fd5b80fd5b5034610307578060031936011261030757602060405160128152f35b50346103075760603660031901126103075761034061490b565b906044359160043582526006602052604082209060018060a01b03165f5260205260405f2090815483101561030757602061037b8484614d32565b90549060031b1c604051908152f35b50346103075760c0366003190112610307576004356001600160401b0381116108f757366023820112156108f757818160040135916103c883614d5b565b926103d66040519485614c71565b80845236602482840101116108f3578060246020930183860137830101526103fc6159f2565b8051156108ae57602435156108695760443515158061085b575b1561080a57606435156107b9574260843511156107745760843560a4351115610725576008549061044682615199565b600855610454602435614f43565b60405161046081614c41565b83815260208101918383526040820152604435606082015260643560808201528460a082015260843560c082015260a43560e082015260016101008201526001610120820152426101408201528385526003602052604085209181518355518051906001600160401b038211610711576104dd6001850154614c09565b601f81116106c9575b5060209686959493929188916001601f8511146106305793836105f59694600994610140947f068fdde760e5730532959669855b5a6f20cb96e8685d2d1330a83d3a6fad0bbb9a9892610625575b50508160011b915f199060031b1c19161760018501555b60408101516002850155606081015160038501556080810151600485015560a0810151600585015560c0810151600685015560e08101516007850155600884016105a86101008301511515829060ff801983541691151516179055565b610120820151815461ff00191690151560081b61ff001617905501519101556009546105d390615199565b6009556105e1602435614f43565b60405192839260c0845260c0840190614967565b908783015260443560408301526064356060830152608435608083015260a43560a08301520390a2604051908152f35b015190505f80610534565b9190600186018352818320925b601f19851681106106af575093600184600994610140947f068fdde760e5730532959669855b5a6f20cb96e8685d2d1330a83d3a6fad0bbb9a986105f59a98601f19811610610697575b505050811b01600185015561054b565b01515f1960f88460031b161c191690555f8080610687565b818301518455899850600190930192918a01918a0161063d565b60018501885260208820601f840160051c81019160208510610707575b601f0160051c01905b8181106106fc57506104e6565b8881556001016106ef565b90915081906106e6565b634e487b7160e01b87526041600452602487fd5b60405162461bcd60e51b815260206004820152602160248201527f456e642064617465206d75737420626520616674657220636c6f7365206461746044820152606560f81b6064820152608490fd5b60405162461bcd60e51b815260206004820152601c60248201527f436c6f73652064617465206d75737420626520696e20667574757265000000006044820152606490fd5b60405162461bcd60e51b815260206004820152602360248201527f546f74616c20746f6b656e73206d75737420626520677265617465722074686160448201526206e20360ec1b6064820152608490fd5b60405162461bcd60e51b815260206004820152602360248201527f496e76616c6964207265776172642070657263656e746167652028302d31303060448201526230302960e81b6064820152608490fd5b506127106044351115610416565b60405162461bcd60e51b815260206004820152601c60248201527f5072696365206d7573742062652067726561746572207468616e2030000000006044820152606490fd5b60405162461bcd60e51b815260206004820152601a60248201527f526f756e64206e616d652063616e6e6f7420626520656d7074790000000000006044820152606490fd5b8280fd5b5080fd5b50346103075780600319360112610307576008549080805b8381106109bb576024838360095491600a54602060018060a01b0360025460081c16604051968780926370a0823160e01b82523060048301525afa9182156109af5791610976575b60809450604051938452602084015260408301526060820152f35b90506020843d6020116109a7575b8161099160209383614c71565b810103126109a357608093519061095b565b5f80fd5b3d9150610984565b604051903d90823e3d90fd5b808352600360205260ff600860408520015460081c16806109f8575b6109e4575b600101610913565b906109f0600191615199565b9190506109dc565b50808352600360205260ff6008604085200154166109d7565b503461030757610a2036614aca565b9091610a2a6159b7565b610a326159d7565b8281526003602052610a5060ff600860408420015460081c16614d76565b828152600360205260ff60086040832001541615610fbe578281526003602052610a836006604083200154421115615559565b8281526003602052610a9d60066040832001544210615559565b8115610f6d5760648211610f0b578281526003602052604081209260028401610ac7815485614f67565b938415610ecd576005860191610ade828454614f98565b600488015410610e76576002546040516323b872dd60e01b81523360048201523060248201526044810188905290602090829060081c6001600160a01b03168189816064810103925af18015610e6b578690610e30575b610b3f915061541c565b54956003810154906007600682015491015490600184115f14610d4757604051632fdc968f60e21b81523360048201526024810185905260448101879052606481018a90526084810193909352600160a484015260c483015260e4820152848161010481837f00000000000000000000000000000000000000000000000000000000000000006001600160a01b03165af1908115610d3c578591610cf4575b50955b8385526004602052604085209033865260056020526040862085875260066020526040872060018060a01b0333165f5260205260405f2090875b858110610c70576020610c638c8c610c5c60408e8e8e610c3c8f8254614f98565b9055610c4a85600a54614f98565b600a5581526007875220918254614f98565b9055614db9565b5160018055604051908152f35b80610caf610ca8828e610c8f610c8860019783614dc6565b518b6155a5565b610ca3610c9c8383614dc6565b51886155a5565b614dc6565b51856155a5565b610cb9818d614dc6565b51604051908682528360208301528a7f30a6facb9fa9a18999d5ff7f2ce5641caca8d5f45c8ff24bced9833614b8e88060403394a401610c1b565b90503d8086833e610d058183614c71565b810190602081830312610d38578051906001600160401b038211610d3457610d2e929101615099565b5f610bde565b8680fd5b8580fd5b6040513d87823e3d90fd5b979190604091825191610d5a8484614c71565b60018352601f198401366020850137829a84519263f4fb815960e01b845233600485015289602485015286604485015260648401526001608484015260a483015260c482015260208160e4818b60018060a01b037f0000000000000000000000000000000000000000000000000000000000000000165af1928315610e2757508792610df1575b50610deb90614db9565b52610be1565b9091506020813d602011610e1f575b81610e0d60209383614c71565b810103126109a3575190610deb610de1565b3d9150610e00565b513d89823e3d90fd5b506020813d602011610e63575b81610e4a60209383614c71565b81010312610d3857610e5e610b3f91614dee565b610b35565b3d9150610e3d565b6040513d88823e3d90fd5b60405162461bcd60e51b815260206004820152602960248201527f4e6f7420656e6f75676820746f6b656e7320617661696c61626c6520696e20746044820152681a1a5cc81c9bdd5b9960ba1b6064820152608490fd5b60405162461bcd60e51b8152602060048201526016602482015275151bdad95b88185b5bdd5b9d081d1bdbc81cdb585b1b60521b6044820152606490fd5b60405162461bcd60e51b815260206004820152603460248201527f546f6b656e20616d6f756e742065786365656473206d6178696d756d20616c6c60448201527337bbb2b2103832b9103a3930b739b0b1ba34b7b760611b6064820152608490fd5b60405162461bcd60e51b815260206004820152602360248201527f546f6b656e20616d6f756e74206d75737420626520677265617465722074686160448201526206e20360ec1b6064820152608490fd5b60405162461bcd60e51b8152602060048201526013602482015272526f756e64206973206e6f742061637469766560681b6044820152606490fd5b50346103075760403660031901126103075760406004359161101961490b565b92808252600360205261103760ff6008858520015460081c16614d76565b81526006602052209060018060a01b03165f52602052602060405f2054604051908152f35b50346103075780600319360112610307576002546040516370a0823160e01b815230600482015291906020908390602490829060081c6001600160a01b03165afa9081156109af57906110b5575b602090604051908152f35b506020813d6020116110e0575b816110cf60209383614c71565b810103126109a357602090516110aa565b3d91506110c2565b5034610307578060031936011261030757602060405160648152f35b5034610307576020366003190112610307576001600160a01b03611126614921565b168152600560205260408120604051918260208354918281520192825260208220915b818110611178576111748561116081870382614c71565b604051918291602083526020830190614a10565b0390f35b8254845260209093019260019283019201611149565b50346103075780600319360112610307576040517f00000000000000000000000000000000000000000000000000000000000000006001600160a01b03168152602090f35b5034610307576020366003190112610307576040611174916004356111f6615015565b50808252600360205261121460ff6008858520015460081c16614d76565b815260036020522060096040519161122b83614c41565b8054835261123b60018201614c92565b6020840152600281015460408401526003810154606084015260048101546080840152600581015460a0840152600681015460c0840152600781015460e084015260ff6008820154818116151561010086015260081c161515610120840152015461014082015260405191829160208352602083019061498b565b5034610307576040366003190112610307576004356112d361490b565b9080835260036020526112f260ff600860408620015460081c16614d76565b82526006602052604082209060018060a01b03165f5260205260405f206040518082602082945493848152019085526020852092855b81811061143557505061133d92500382614c71565b817f00000000000000000000000000000000000000000000000000000000000000006001600160a01b031681805b84518410156114255761137e8486614dc6565b519160405192634712f17360e11b845260048401528683602481875afa92831561141a5787936113e9575b506001916113d96113e192670de0b6b3a76400006113d260808801976040895191015190614f67565b0490614f98565b935190614f98565b93019261136b565b6113e1919350916113d96114106001943d808c833e6114088183614c71565b810190614e41565b94925050916113a9565b6040513d89823e3d90fd5b6040925082519182526020820152f35b8454835260019485019486945060209093019201611328565b50346103075760203660031901126103075760406020916004358082526003845261148460ff6008858520015460081c16614d76565b8152600783522054604051908152f35b5034610307576114a336614aca565b9190815260046020526040812090815483101561030757602061037b8484614d32565b503461030757806003193601126103075760025460405160089190911c6001600160a01b03168152602090f35b50346103075760203660031901126103075760406020916004358152600783522054604051908152f35b50346103075780600319360112610307576009548182600854935b84811061154f576040848482519182526020820152f35b808252600360205260ff600860408420015460081c168061158c575b611578575b600101611538565b91611584600191615199565b929050611570565b50808252600360205260ff60086040842001541661156b565b5034610307576040366003190112610307576115bf614921565b6001600160a01b031681526005602052604081208054602435929083101561030757602061037b8484614d32565b5034610307576020366003190112610307576116ba60406020926004358082526003855261162660ff6008858520015460081c16614d76565b8152600384522060405161163981614c41565b8154815261164960018301614c92565b84820152600282015460408201526003820154606082015260048201549081608082015261014060096005850154948560a0850152600681015460c0850152600781015460e085015260ff6008820154818116151561010087015260081c1615156101208501520154910152614ff1565b604051908152f35b5034610307578060031936011261030757546040516001600160a01b039091168152602090f35b503461030757602036600319011261030757600435808252600360205261171c60ff600860408520015460081c16614d76565b8190829083908492859086908388526003602052604088209360405161174181614c41565b8554815261175160018701614c92565b6020820152600286015491604082019283526003870154966060830197885260048101549260808101938452610140600960058401549360a08401948552600681015460c0850152600781015460e085015260ff6008820154818116151561010087015260081c1615156101208501520154910152818c52600460205260408c20928c6040518095869160208254918281520191845260208420935b818110611a5857505061180292500385614c71565b8051611a18575b506040519163132b6af760e21b835260048301528b82602481305afa918215611a0d578c926119e7575b5081516119c4575b5092987f00000000000000000000000000000000000000000000000000000000000000006001600160a01b031693508a5b825181101561199a5761187f8184614dc6565b5160405190634712f17360e11b825260048201528c81602481895afa90811561198f578d91611975575b506101408101908151611938575b6101208101516118cc575b505060010161186c565b96996118f76118f060806118e5949e946001969e615199565b9a0151885190614f67565b8093614f98565b9b511561192157606461190f611918938c5190614f67565b04831c90614f98565b985b905f6118c2565b60646113d2611932938c5190614f67565b9861191a565b9961196f90606461196561195d60808f9d61195290615199565b9d01518a5190614f67565b8d5190614f67565b0460011c90614f98565b996118b7565b61198991503d808f833e6114088183614c71565b5f6118a9565b6040513d8f823e3d90fd5b5060c09085878b8b8e604051958652602086015260408501526060840152608083015260a0820152f35b6119df9294506119d79051845190614f67565b905190614f7a565b915f8061183b565b611a059192508c3d8091833e6119fd8183614c71565b8101906150f6565b50905f611833565b6040513d8e823e3d90fd5b90809b5051906127108202918083046127101490151715611a445751611a3d91614f7a565b995f611809565b634e487b7160e01b8d52601160045260248dfd5b84548352600194850194899450602090930192016117ed565b5034610307578060031936011261030757611a8a6159f2565b611a926159d7565b600160ff1960025416176002557f62e78cea01bee320cd4e420270b5ea74000d11b0c9f74754ebdbfc544b05a2586020604051338152a180f35b50346103075760403660031901126103075760043560243580151590818103611b65577fdd8c33b779db77b877161fe300dfc92dc5b0d87c7e4199701eb25330a83e16f991611b5b602092611b1f6159f2565b85875260038452611b3c60ff600860408a20015460081c16614d76565b85875260038452600860408820019060ff801983541691151516179055565b604051908152a280f35b8380fd5b50346103075780611b7936614aca565b611b849291926159f2565b8282526003602052611ba260ff600860408520015460081c16614d76565b611bad8115156154c4565b600254602090611bfc9060081c6001600160a01b0316611bcc84614f43565b6040516323b872dd60e01b8152336004820152306024820152604481019190915294859283919082906064820190565b03925af1918215611ccd578492611c65575b50611b5b602091611c3f7f840f34d9e1ef4bad95d455fc5722e970ebdcfec5778eca96c54edd60e69b463f9461541c565b611c4881614f43565b85875260078452611c5e60408820918254614f98565b9055614f43565b91506020823d602011611cc5575b81611c8060209383614c71565b81010312611b6557611b5b602091611c3f611cbb7f840f34d9e1ef4bad95d455fc5722e970ebdcfec5778eca96c54edd60e69b463f95614dee565b9450509150611c0e565b3d9150611c73565b6040513d86823e3d90fd5b5034610307578060031936011261030757611cf16159f2565b80546001600160a01b03198116825581906001600160a01b03167f8be0079c531659141344cd1fd0a4f28419497f9722a3daafe3b4186f6b6457e08280a380f35b503461030757806003193601126103075760095490611d5082615067565b90611d5a83615510565b611d6384615067565b90611d6d85615067565b94611d7781615067565b93805b828110611de157611da98761117488611dd38c611dc58b611db78c604051998a9960a08b5260a08b0190614a10565b9089820360208b0152614ae0565b908782036040890152614b38565b908582036060870152614a10565b908382036080850152614b38565b6001810190818111611f2a578183526003602052604083208860405193611e0785614c41565b82548552838c611e1960018601614c92565b6020880190815260028601549060408901918252600387015460608a015260048701549460808a0195865260058801549660a08b019788528560068a01549b60c081019c8d5260078b015460e082015260088b01549a61010082019b60ff811615158d5260081c60ff16151561012083015260090154906101400152611e9e91614dc6565b5251611eaa848d614dc6565b52611eb5838c614dc6565b5085511515611ec4848e614dc6565b5284519051611ed291614f67565b91611edc91614dc6565b52519051611ee991614ff1565b905115159060019382611f1e575b5081611f14575b50611f098289614dc6565b901515905201611d7a565b905015155f611efe565b5142111591505f611ef7565b634e487b7160e01b83526011600452602483fd5b50346103075760203660031901126103075760409060043581526003602052208054611f6c60018301614c92565b9160028101549060ff600382015491600481015460058201546006830154906007840154926009600886015495015496611fba6040519b8c9b8c5261016060208d01526101608c0190614967565b9860408b015260608a0152608089015260a088015260c087015260e0860152818116151561010086015260081c1615156101208401526101408301520390f35b5034610307576020366003190112610307576004356120176159b7565b61201f6159d7565b808252600360205261203d60ff600860408520015460081c16614d76565b80825260066020526040822060018060a01b0333165f5260205260405f20906040518083602082955493848152019086526020862092865b81811061281a57505061208a92500383614c71565b8151156127dd5760328251116127685790829081907f00000000000000000000000000000000000000000000000000000000000000006001600160a01b031690825b81518410156122a8576120df8483614dc6565b51604051906331a9108f60e11b82526004820152602081602481875afa90811561225657889161226b575b50336001600160a01b0390911603612261576121268483614dc6565b519060405191634712f17360e11b835260048301528782602481875afa91821561225657889261223a575b5061012082015161222f5761216a60a083015142614ff1565b62ed4e008110612223576121876080840151604085015190614f67565b926301e13380606461219d606084015187614f67565b0492106121ec5761014001516001936121d59390929091156121df576121cf926121c991861c90614f98565b90614f98565b95615199565b935b0192936120cc565b6121c9906121cf93614f98565b6101409192979350015115612208575b506121d5600191615199565b61221b600192966121d592841c90614f98565b9591506121fc565b509493600191506121d7565b9493600191506121d7565b61224f9192503d808a833e6114088183614c71565b905f612151565b6040513d8a823e3d90fd5b93926001906121d7565b90506020813d82116122a0575b8161228560209383614c71565b8101031261229c5761229690614dda565b5f61210a565b8780fd5b3d9150612278565b828787928715612723576122bd811515615338565b6002546040516370a0823160e01b8152306004820152906020908290602490829060081c6001600160a01b03165afa801561271857829084906126e2575b61230792501015615379565b838252600760205261231f81604084205410156153d0565b815b855181101561261c576123348187614dc6565b51604051906331a9108f60e11b82526004820152602081602481885afa908115611ccd5784916125e3575b50336001600160a01b03909116036125db5761237b8187614dc6565b5160405190634712f17360e11b825260048201528381602481885afa908115611ccd5784916125c1575b50610120810151612518576123be60a082015142614ff1565b62ed4e0081106125b7576123db6080830151604084015190614f67565b916301e1338060646123f1606084015186614f67565b04921061250a576101400151156124fc57906124109160011c90614f98565b61241a8288614dc6565b51853b156124e357604051906319f477d960e01b825260048201528481602481838a5af18015610d3c579085916124e7575b50506124588288614dc6565b51853b156124e3576040519063bed62f3560e01b825260048201528481602481838a5af18015610d3c579085916124ce575b50509060019161249a8289614dc6565b516040519182527fec830d68f9642b924e6a2bbc2ebeb8f06c0ab5417a38f641b088b2412cbaba9560203393a35b01612321565b816124d891614c71565b611b6557838861248a565b8480fd5b816124f191614c71565b611b6557838861244c565b61250591614f98565b612410565b610140919250015115612521575b506001906124c8565b61252b8288614dc6565b51853b156124e357604051906318d8e2a560e01b825260048201528481602481838a5af18015610d3c579085916125a2575b50509060019161256d8289614dc6565b5160405191841c82527f05609d8b66d3b17249aefcaaa68fa2000914aeeb46371ad3fcae3db02304bde960203393a390612518565b816125ac91614c71565b611b6557838861255d565b50506001906124c8565b6125d591503d8086833e6114088183614c71565b876123a5565b6001906124c8565b90506020813d8211612614575b816125fd60209383614c71565b81010312611b655761260e90614dda565b8761235f565b3d91506125f0565b50602061267a8392868452600783526040842061263a828254614ff1565b905560025460405163a9059cbb60e01b815233600482015260248101929092529093849260089290921c6001600160a01b03169183919082906044820190565b03925af180156126d757829061269c575b612695915061541c565b6001805580f35b506020813d6020116126cf575b816126b660209383614c71565b810103126108f7576126ca61269591614dee565b61268b565b3d91506126a9565b6040513d84823e3d90fd5b50506020813d602011612710575b816126fd60209383614c71565b810103126109a3578161230791516122fb565b3d91506126f0565b6040513d85823e3d90fd5b60405162461bcd60e51b815260206004820152601960248201527f4e6f20656c696769626c65204e46547320746f20636c61696d000000000000006044820152606490fd5b60405162461bcd60e51b815260206004820152604160248201527f546f6f206d616e79204e46547320746f20636c61696d206174206f6e63652c2060448201527f706c656173652073706c697420696e746f20736d616c6c6572206261746368656064820152607360f81b608482015260a490fd5b60405162461bcd60e51b8152602060048201526015602482015274139bc81391951cc81a5b881d1a1a5cc81c9bdd5b99605a1b6044820152606490fd5b8454835260019485019487945060209093019201612075565b50346103075760203660031901126103075761284d614921565b6128556159f2565b6001600160a01b03811690811561290c57600254600881901c6001600160a01b0316918383146128c757610100600160a81b031990911660089190911b610100600160a81b0316176002557f92852dbadca7e6fa4e0d5dd87891e6dd13f50a304561a86ea9d5a710b972e4498380a380f35b60405162461bcd60e51b815260206004820152601760248201527f53616d65205553445420746f6b656e20616464726573730000000000000000006044820152606490fd5b60405162461bcd60e51b815260206004820152601a60248201527f496e76616c6964205553445420746f6b656e20616464726573730000000000006044820152606490fd5b5034610307576129978161296436614aca565b6040516304d5752560e01b8152600481019290925260248201525f60448201819052606482015291829081906084820190565b0381305afa80156126d7578290839284859186936129c3575b5090611174929160405195869586614a43565b9450505050503d8083833e6129d88183614c71565b810160a0828203126108f35781516001600160401b038111611b655782019281601f85011215610307578351612a0d81614ffe565b94612a1b6040519687614c71565b81865260208087019260051b82010190848211611b655760208101925b828410612a8d57505050506020830151906001600160401b038211610307575061117491612a67918401615099565b91604081015193612a7f608060608401519301614dee565b9093949190918594936129b0565b83516001600160401b038111610d38578201610160818803601f190112610d385760405190612abb82614c41565b6020810151825260408101516001600160401b03811161229c579161016082612aed8b60208098969781980101614dfb565b85840152606081015160408401526080810151606084015260a0810151608084015260c081015160a084015260e081015160c084015261010081015160e0840152612b3b6101208201614dee565b610100840152612b4e6101408201614dee565b6101208401520151610140820152815201930192612a38565b5034610307578060031936011261030757602060ff600254166040519015158152f35b503461030757612b9936614937565b929391906009549382151580612e9a575b15612e5557612bba858710614fa5565b612bc48386614f98565b5f198101908111612e415783612bd991614f7a565b90612be48488614f7a565b9260018401809411612e2d5790612bfa916155de565b92612c058787614ff1565b81811115612e255750945b612c1a8688614f98565b1092612c2586615067565b94612c2f87615510565b96612c3981615067565b612c4282615067565b90612c4c83615067565b92612c5681615067565b94612c6082615067565b96815b838110612c81575050505061117498999a506040519a8b9a8b614b6d565b808f8f8f612d7f90612d5e85612ca4612c9e60019960c098614f98565b8a614dc6565b5194858b52600360205260408b209360405196612cc088614c41565b85548852612d4c84612cd38d8901614c92565b9360208b01948552600960028a01549960408d019a8b528c606060038301549101528c608060048301549101528c60a060058301549101528c8e60068301549101528c60e060078301549101528c61012060ff6008840154818116151561010085015260081c16151591015201546101408c0152614dc6565b5251612d588383614dc6565b52614dc6565b506101008301511515612d71868c614dc6565b5260a0830151905190614f67565b612d89848b614dc6565b52828b612daa612da2608085015160a086015190614ff1565b928392614dc6565b5261010082015115159081612e17575b81612e0d575b50612dcb848c614dc6565b90151590520151428111612ded575083612de5828c614dc6565b525b01612c63565b612dfc62015180914290614ff1565b04612e07828c614dc6565b52612de7565b905015155f612dc0565b828401514211159150612dba565b905094612c10565b634e487b7160e01b86526011600452602486fd5b634e487b7160e01b85526011600452602485fd5b60405162461bcd60e51b815260206004820152601f60248201527f4c696d6974206d757374206265206265747765656e203120616e6420313030006044820152606490fd5b506064831115612baa565b503461030757602036600319011261030757600435612ec26159f2565b6002546040516370a0823160e01b815230600482015260089190911c6001600160a01b031690602081602481855afa8015611ccd5783918591612fcf575b5010612f9357825460405163a9059cbb60e01b81526001600160a01b03909116600482015260248101929092526020908290818581604481015b03925af180156126d7578290612f58575b612f55915061541c565b80f35b506020813d602011612f8b575b81612f7260209383614c71565b810103126108f757612f86612f5591614dee565b612f4b565b3d9150612f65565b60405162461bcd60e51b8152602060048201526014602482015273496e73756666696369656e742062616c616e636560601b6044820152606490fd5b9150506020813d602011612ffc575b81612feb60209383614c71565b810103126109a3578290515f612f00565b3d9150612fde565b503461030757602036600319011261030757600435808252600360205261303760ff600860408520015460081c16614d76565b815260046020526040812060405190816020825491828152019184526020842090845b8181106132695750505081613070910382614c71565b61307a8151615067565b916130858251615067565b7f00000000000000000000000000000000000000000000000000000000000000006001600160a01b0316939091908190815b85518110156131b3576130ca8187614dc6565b5160405190634712f17360e11b8252600482015284816024818b5afa908115610d3c578591613199575b50610100015184906001600160a01b031681805b86811061316c575b50156131405750908161313861313161312b6001958a614dc6565b51615199565b9188614dc6565b525b016130b7565b613166915093600192946131548286614dc6565b52826131608289614dc6565b52615199565b9261313a565b826001600160a01b0361317f8389614dc6565b51161461318e57600101613108565b92505060015f613110565b6131ad91503d8087833e6114088183614c71565b5f6130f4565b50906131be81615067565b936131c882615067565b92845b83811061322b575050505060405191604083016040845284518091526020606085019501915b81811061320c57848061117488878382036020850152614a10565b82516001600160a01b03168652602095860195909201916001016131f1565b6001906001600160a01b036132408285614dc6565b511661324c828a614dc6565b526132578185614dc6565b516132628288614dc6565b52016131cb565b825484526020909301926001928301920161305a565b50346103075761328e36614aca565b6132966159f2565b81835260036020526132b460ff600860408620015460081c16614d76565b6132bf8115156154c4565b818352600760205280604084205410613487576002546040516370a0823160e01b8152306004820152906020908290602490829060081c6001600160a01b03165afa8015611ccd5782918591613452575b501061340d5781835260076020526040832061332d828254614ff1565b9055600254835460405163a9059cbb60e01b81526001600160a01b0391821660048201526024810184905291602091839160081c168187816044810103925af1908115611ccd5784916133a9575b507fc97223d9627a5c8977b5ce63bcc729264c8ab2575ef525d2d42e39af20550dc491611b5b60209261541c565b90506020813d602011613405575b816133c460209383614c71565b81010312611b65577fc97223d9627a5c8977b5ce63bcc729264c8ab2575ef525d2d42e39af20550dc491611b5b6133fc602093614dee565b9250509161337b565b3d91506133b7565b60405162461bcd60e51b815260206004820152601d60248201527f496e73756666696369656e7420636f6e74726163742062616c616e63650000006044820152606490fd5b9150506020813d60201161347f575b8161346e60209383614c71565b810103126109a3578190515f613310565b3d9150613461565b60405162461bcd60e51b815260206004820152601a60248201527f496e73756666696369656e7420726f756e642062616c616e63650000000000006044820152606490fd5b5034610307578060031936011261030757600954906134f36134ed83615067565b92615067565b908081600854925b83811061352c5761351e8661117487604051938493604085526040850190614a10565b908382036020850152614a10565b808252600360205260ff600860408420015460081c1661354f575b6001016134fb565b9161357981846135616001948a614dc6565b52848452600760205260408420546131608289614dc6565b929050613547565b5034610307576135c78161359436614aca565b604051635848b10960e01b8152600481019290925260248201525f60448201819052606482015291829081906084820190565b0381305afa80156126d757829083928485868790889289948a968b986135fa575b506040519a508a99611174998b614b6d565b99505050505050505050503d8083833e6136148183614c71565b810191610140828403126103075781516001600160401b0381116108f7578361363e918401615099565b9060208301516001600160401b0381116108f75783019184601f840112156108f75782519261366c84614ffe565b9361367a6040519586614c71565b80855260208086019160051b830101918783116124e35760208101915b838310613775575050505060408401516001600160401b0381116108f357856136c191860161545f565b9360608101516001600160401b038111611b6557866136e1918301615099565b9260808201516001600160401b0381116108f7578761370191840161545f565b9060a08301516001600160401b0381116108f75788613721918501615099565b9060c0840151906001600160401b0382116103075750611174969798613748918501615099565b9060e0840151926137626101206101008701519601614dee565b95989996909192939495968a99986135e8565b82516001600160401b038111610d34576020916137978b848094870101614dfb565b815201920191613697565b50346103075780600319360112610307576137bb6159f2565b60025460ff8116156137fb5760ff19166002557f5db9ee0a495bf2e6ff9c91a7834c1ba4fdd244a5e8aa4e537bd38aeae4b073aa6020604051338152a180f35b638dfc202b60e01b8252600482fd5b50346103075760403660031901126103075760406004359161382a61490b565b92808252600360205261384860ff6008858520015460081c16614d76565b81526006602052209060018060a01b03165f52602052602060405f20541515604051908152f35b5034610307576020366003190112610307576138896159f2565b6002546040516323b872dd60e01b81523360048083019190915230602483015235604482015290602090829060081c6001600160a01b031681858160648101612f3a565b50346103075780600319360112610307576020600954604051908152f35b50346103075760403660031901126103075760043561390861490b565b90808352600360205261392760ff600860408620015460081c16614d76565b82526006602052604082209060018060a01b03165f5260205260405f20604051918260208354918281520192825260208220915b818110613972576111748561116081870382614c71565b825484526020909301926001928301920161395b565b50346103075760203660031901126103075760043580825260036020526139bb60ff600860408520015460081c16614d76565b8152600460205260408120604051918260208354918281520192825260208220915b8181106139f4576111748561116081870382614c71565b82548452602090930192600192830192016139dd565b503461030757602036600319011261030757604060209160043580825260038452613a4060ff6008858520015460081c16614d76565b81526003835220604051613a5381614c41565b81548152613a6360018301614c92565b8382015260028201546040820152600382015460608201526004820154908160808201526005830154908160a08201526006840154908160c0820152600785015460e0820152610140600960088701549660ff8089161515988961010087015260081c161515610120850152015491015283613af7575b5082613aed575b50506040519015158152f35b1090505f80613ae1565b42111592505f613ada565b5034610307578060031936011261030757602060405160328152f35b503461030757602036600319011261030757612f3a6020600435613b406159f2565b80845260038252613b5d60ff600860408720015460081c16614d76565b80845260078083526040808620549286529083528085208590556002548554915163a9059cbb60e01b81526001600160a01b03928316600482015260248101939093529193849260081c909116908290869082906044820190565b503461030757602036600319011261030757600435613bd5615015565b508082526003602052613bf460ff600860408520015460081c16614d76565b80825260036020526040822060405191613c0d83614c41565b81548352613c1d60018301614c92565b60208401526002820154918260408501526003810154606085015260048101549160808501928352600582015490613c9d60a087019583875260068501549360c08901948552600786015460e08a0152600960088701549660ff6101008c019881811615158a5260081c1615156101208c015201546101408a0152614f67565b946040519163132b6af760e21b835260048301528782602481305afa801561225657613cd6928991613dae575b50519451905190614ff1565b9151151580613da3575b80613d9a575b8151926301e133808401809411613d8657613d2e97844210159351804210155f14613d70575080945b8415613d585750945b6040519889986101008a526101008a019061498b565b966020890152604088015260608701521515608086015260a085015260c084015260e08301520390f35b620151809150613d69904290614ff1565b0494613d18565b613d7f62015180914290614ff1565b0494613d0f565b634e487b7160e01b88526011600452602488fd5b50811515613ce6565b508051421115613ce0565b613dc291503d808b833e6119fd8183614c71565b505f613cca565b503461030757602036600319011261030757604051631d3653e360e01b81526004803590820152906020826024817f00000000000000000000000000000000000000000000000000000000000000006001600160a01b03165afa9081156109af578091613e3e575b6020826040519015158152f35b90506020823d602011613e73575b81613e5960209383614c71565b810103126103075750613e6d602091614dee565b5f613e31565b3d9150613e4c565b50346109a35760203660031901126109a35760043590613e996159b7565b613ea16159d7565b6040516331a9108f60e11b8152600481018390527f00000000000000000000000000000000000000000000000000000000000000006001600160a01b03169290602081602481875afa908115614197575f91614329575b50336001600160a01b03909116036142e457604051634712f17360e11b815260048101829052905f82602481875afa918215614197575f926142c8575b5061012082015161428357613f4e60a083015142614ff1565b9362ed4e00851061423e57613f6c6080840151604085015190614f67565b946301e133806064613f82606087015189614f67565b0491101595865f146141e95761014085015160249290156141da5790613fab9160011c90614f98565b935b613fb8851515615338565b6002546040516370a0823160e01b815230600482015292602091849190829060081c6001600160a01b03165afa80156141975785925f916141a2575b50602092614003911015615379565b019485515f52600760205261401e8460405f205410156153d0565b1561410f579081849593923b156124e3576040516319f477d960e01b815260048101839052858160248183865af1908115610e6b5786916140fa575b5050803b156124e35784809160246040518094819363bed62f3560e01b83528760048401525af1908115610d3c5785916140dc575b50509060209261267a92604051908382527fec830d68f9642b924e6a2bbc2ebeb8f06c0ab5417a38f641b088b2412cbaba95863393a35b518452600783526040842061263a828254614ff1565b816140e991949394614c71565b6140f55790835f61408f565b505050fd5b8161410491614c71565b6124e357845f61405a565b803b156109a3575f80916024604051809481936318d8e2a560e01b83528760048401525af180156141975761417a575b50602091839461267a92604051908382527f05609d8b66d3b17249aefcaaa68fa2000914aeeb46371ad3fcae3db02304bde9863393a36140c6565b61267a9193509161418d5f602094614c71565b5f9391509161413f565b6040513d5f823e3d90fd5b9250506020823d6020116141d2575b816141be60209383614c71565b810103126109a35790518491906020613ff4565b3d91506141b1565b6141e391614f98565b93613fad565b506101408401516142005760249060011c93613fad565b60405162461bcd60e51b815260206004820152601660248201527514995dd85c9908185b1c9958591e4818db185a5b595960521b6044820152606490fd5b60405162461bcd60e51b815260206004820152601b60248201527f4d7573742077616974206174206c656173742036206d6f6e74687300000000006044820152606490fd5b60405162461bcd60e51b815260206004820152601b60248201527f496e766573746d656e7420616c72656164792072656465656d656400000000006044820152606490fd5b6142dd9192503d805f833e6114088183614c71565b905f613f35565b60405162461bcd60e51b815260206004820152601960248201527f4e6f7420746865206f776e6572206f662074686973204e4654000000000000006044820152606490fd5b90506020813d60201161435b575b8161434460209383614c71565b810103126109a35761435590614dda565b5f613ef8565b3d9150614337565b346109a3575f3660031901126109a3576020600a54604051908152f35b346109a35760203660031901126109a35760a06143bc600435805f5260036020526143b760ff600860405f20015460081c16614d76565b6151a7565b926040929192519485526020850152604084015260608301526080820152f35b346109a35760203660031901126109a357604051635a7f04d560e01b815260048035908201526020816024817f00000000000000000000000000000000000000000000000000000000000000006001600160a01b03165afa8015614197575f9061444e575b6020906040519015158152f35b506020813d602011614480575b8161446860209383614c71565b810103126109a35761447b602091614dee565b614441565b3d915061445b565b346109a35761449636614937565b60095491831515806146f9575b156146b4576144b3838610614fa5565b6144bd8484614f98565b5f1981019081116146a057846144d291614f7a565b906144dd8587614f7a565b92600184018094116146a0576144f2916155de565b936144fd8685614ff1565b818111156146985750925b6145128487614f98565b109261451d81614ffe565b9461452b6040519687614c71565b818652601f1961453a83614ffe565b015f5b81811061468157505061454f82615067565b965f5b83811061456b57604051806111748989898e8e86614a43565b61457e6145788284614f98565b84614dc6565b5190815f52600360205260405f2060096040519161459b83614c41565b805483526145ab60018201614c92565b6020840152600281015460408401526003810154606084015260048101546080840152600581015460a0840152600681015460c0840152600781015460e084015260ff6008820154818116151561010086015260081c161515610120840152015461014082015261461c828b614dc6565b52614627818a614dc6565b506040519163132b6af760e21b835260048301525f82602481305afa8015614197576001925f91614666575b505161465f828c614dc6565b5201614552565b61467a91503d805f833e6119fd8183614c71565b508b614653565b60209061468c615015565b82828b0101520161453d565b905092614508565b634e487b7160e01b5f52601160045260245ffd5b60405162461bcd60e51b815260206004820152601e60248201527f4c696d6974206d757374206265206265747765656e203120616e6420353000006044820152606490fd5b5060328411156144a3565b346109a35760403660031901126109a35760043561472061490b565b90805f52600360205261473f60ff600860405f20015460081c16614d76565b5f52600660205260405f209060018060a01b03165f5260205260405f20604051808260208294549384815201905f5260205f20925f5b8181106148f257505061478a92500382614c71565b80515f9182917f00000000000000000000000000000000000000000000000000000000000000006001600160a01b03169183918291829182805b83518110156148be576147d78185614dc6565b519460405195634712f17360e11b875260048701525f866024818c5afa958615614197575f966148a2575b5060808601978851604088015161481891614f67565b670de0b6b3a7640000900497889160608901516148359084614f67565b606490049d8e9a61484591614f98565b9a5161485091614f98565b9c61485a91614f98565b9761486491614f98565b61486d91614f98565b9460e0810151421015614899575b6101200151614890575b6001019895986147c4565b60019150614885565b6001995061487b565b6148b79196503d805f833e6114088183614c71565b948b614802565b5060e09250878486888c6040519687526020870152604086015260608501526080840152151560a0830152151560c0820152f35b8454835260019485019486945060209093019201614775565b602435906001600160a01b03821682036109a357565b600435906001600160a01b03821682036109a357565b60809060031901126109a357600435906024359060443560078110156109a3579060643560028110156109a35790565b805180835260209291819084018484015e5f828201840152601f01601f1916010190565b9081518152610140806149af60208501516101606020860152610160850190614967565b9360408101516040850152606081015160608501526080810151608085015260a081015160a085015260c081015160c085015260e081015160e085015261010081015115156101008501526101208101511515610120850152015191015290565b90602080835192838152019201905f5b818110614a2d5750505090565b8251845260209384019390920191600101614a20565b93919594929560a0850160a08652825180915260c0860190602060c08260051b8901019401915f905b828210614a9f575050505081614a8d91866080969594036020880152614a10565b95604085015260608401521515910152565b90919294602080614abc60019360bf198d8203018652895161498b565b970192019201909291614a6c565b60409060031901126109a3576004359060243590565b9080602083519182815201916020808360051b8301019401925f915b838310614b0b57505050505090565b9091929394602080614b29600193601f198682030187528951614967565b97019301930191939290614afc565b90602080835192838152019201905f5b818110614b555750505090565b82511515845260209384019390920191600101614b48565b98959194614bcc610120999c9b9895614bbe8c614be897614bb0614bf69b614ba2614bda996101408652610140860190614a10565b908482036020860152614ae0565b916040818403910152614b38565b8c810360608e015290614a10565b908a820360808c0152614b38565b9088820360a08a0152614a10565b9086820360c0880152614a10565b9560e08501526101008401521515910152565b90600182811c92168015614c37575b6020831014614c2357565b634e487b7160e01b5f52602260045260245ffd5b91607f1691614c18565b61016081019081106001600160401b03821117614c5d57604052565b634e487b7160e01b5f52604160045260245ffd5b90601f801991011681019081106001600160401b03821117614c5d57604052565b9060405191825f825492614ca584614c09565b8084529360018116908115614d105750600114614ccc575b50614cca92500383614c71565b565b90505f9291925260205f20905f915b818310614cf4575050906020614cca928201015f614cbd565b6020919350806001915483858901015201910190918492614cdb565b905060209250614cca94915060ff191682840152151560051b8201015f614cbd565b8054821015614d47575f5260205f2001905f90565b634e487b7160e01b5f52603260045260245ffd5b6001600160401b038111614c5d57601f01601f191660200190565b15614d7d57565b60405162461bcd60e51b8152602060048201526014602482015273149bdd5b9908191bd95cc81b9bdd08195e1a5cdd60621b6044820152606490fd5b805115614d475760200190565b8051821015614d475760209160051b010190565b51906001600160a01b03821682036109a357565b519081151582036109a357565b81601f820112156109a357805190614e1282614d5b565b92614e206040519485614c71565b828452602083830101116109a357815f9260208093018386015e8301015290565b6020818303126109a3578051906001600160401b0382116109a357016101a0818303126109a357604051916101a083018381106001600160401b03821117614c5d57604052815183526020820151602084015260408201516040840152606082015160608401526080820151608084015260a082015160a084015260c082015160c084015260e082015160e0840152614edd6101008301614dda565b610100840152614ef06101208301614dee565b610120840152614f036101408301614dee565b610140840152614f166101608301614dee565b6101608401526101808201516001600160401b0381116109a357614f3a9201614dfb565b61018082015290565b90670de0b6b3a7640000820291808304670de0b6b3a764000014901517156146a057565b818102929181159184041417156146a057565b8115614f84570490565b634e487b7160e01b5f52601260045260245ffd5b919082018092116146a057565b15614fac57565b60405162461bcd60e51b815260206004820152601b60248201527f4f6666736574206578636565647320746f74616c20726f756e647300000000006044820152606490fd5b919082039182116146a057565b6001600160401b038111614c5d5760051b60200190565b6040519061502282614c41565b5f61014083828152606060208201528260408201528260608201528260808201528260a08201528260c08201528260e082015282610100820152826101208201520152565b9061507182614ffe565b61507e6040519182614c71565b828152809261508f601f1991614ffe565b0190602036910137565b9080601f830112156109a35781516150b081614ffe565b926150be6040519485614c71565b81845260208085019260051b8201019283116109a357602001905b8282106150e65750505090565b81518152602091820191016150d9565b9190916040818403126109a35780516001600160401b0381116109a357810183601f820112156109a35780519061512c82614ffe565b9161513a6040519384614c71565b80835260208084019160051b830101918683116109a357602001905b828210615181575050509260208201516001600160401b0381116109a35761517e9201615099565b90565b6020809161518e84614dda565b815201910190615156565b5f1981146146a05760010190565b5f52600460205260405f20604051808260208294549384815201905f5260205f20925f5b81811061531f5750506151e092500382614c71565b8051908115615311575f92839182919082907f00000000000000000000000000000000000000000000000000000000000000006001600160a01b0316825b87811061522f575050509493929190565b61523c81849a959a614dc6565b519860405199634712f17360e11b8b5260048b01525f8a602481865afa998a15614197575f9a6152f1575b506152aa906152a48b606461529d6060670de0b6b3a76400006152936080860151604087015190614f67565b0493015183614f67565b0492614f98565b95614f98565b986101208101516152dc575b61014001516152c8575b60010161521e565b946152d4600191615199565b9590506152c0565b966152e961014091615199565b9790506152b6565b6152aa919a5061530a903d805f833e6114088183614c71565b9990615267565b50505f905f905f905f905f90565b84548352600194850194869450602090930192016151cb565b1561533f57565b60405162461bcd60e51b81526020600482015260126024820152714e6f20616d6f756e7420746f20636c61696d60701b6044820152606490fd5b1561538057565b60405162461bcd60e51b815260206004820152602260248201527f496e73756666696369656e7420636f6e747261637420555344542062616c616e604482015261636560f01b6064820152608490fd5b156153d757565b60405162461bcd60e51b815260206004820152601f60248201527f496e73756666696369656e7420726f756e6420555344542062616c616e6365006044820152606490fd5b1561542357565b60405162461bcd60e51b81526020600482015260146024820152731554d115081d1c985b9cd9995c8819985a5b195960621b6044820152606490fd5b9080601f830112156109a357815161547681614ffe565b926154846040519485614c71565b81845260208085019260051b8201019283116109a357602001905b8282106154ac5750505090565b602080916154b984614dee565b81520191019061549f565b156154cb57565b60405162461bcd60e51b815260206004820152601d60248201527f416d6f756e74206d7573742062652067726561746572207468616e20300000006044820152606490fd5b9061551a82614ffe565b6155276040519182614c71565b8281528092615538601f1991614ffe565b01905f5b82811061554857505050565b80606060208093850101520161553c565b1561556057565b60405162461bcd60e51b815260206004820152601c60248201527f496e766573746d656e7420706572696f642068617320636c6f736564000000006044820152606490fd5b805468010000000000000000811015614c5d576155c791600182018155614d32565b819291549060031b91821b915f19901b1916179055565b9091600854916155ed83615067565b915f935f5b81811061597a57505061560484615067565b925f5b85811061595b5750505f905b5f1985018581116146a057821015615952575f5b6156318387614ff1565b5f1981019081116146a0578110156159475761564d8186614dc6565b519060018101918282116146a0576156658388614dc6565b51905f52600360205260405f2090866040519161568183614c41565b8354835261569160018501614c92565b906020840191825260028501549060408501918252600386015491606086019283526004870154608087015260058701549660a08701978852600960068201549160c08901928352600781015460e08a015260ff600882015481811615156101008c015260081c1615156101208a015201549261014088019384525f52600360205260405f20604051988995869461572886614c41565b8354865261573860018501614c92565b99602087019a8b526002850154926040880193845260038601549060608901918252600487015460808a0152610140600960058901549860a08c01998a5260c060068201549c019b8c528d60e060078301549101528d61012060ff6008840154818116151561010085015260081c16151591015201549b019a8b525f92600781101561582d578061584157505050505050505050505050505051905110915b600289101561582d5760019289615827575b6157f5575b5001615627565b6158206158028389614dc6565b519161580e818a614dc6565b51615819858b614dc6565b5288614dc6565b525f6157ee565b156157e9565b634e487b7160e01b5f52602160045260245ffd5b91939597999b9d5091939597999b9d50600181145f1461587f57505050505050505050505050516020815191012090516020815191012010916157d7565b91939597999b5091939597999b50600281145f146158ab575050505050505050505051905110916157d7565b90929496989a506003919395979950145f146158d2575050505050505051905110916157d7565b91939597509193955060048c145f1461590a575050506158f9906159039351905190614f67565b9251905190614f67565b10916157d7565b919350915060058a036159245750505051905110916157d7565b9195935091506006881461593a575b50506157d7565b5190511092505f80615933565b509060010190615613565b94505050905090565b8061596860019284614dc6565b516159738288614dc6565b5201615607565b805f52600360205260ff600860405f20015460081c1661599d575b6001016155f2565b946159af818761316060019489614dc6565b959050615995565b6002600154146159c8576002600155565b633ee5aeb560e01b5f5260045ffd5b60ff600254166159e357565b63d93c066560e01b5f5260045ffd5b5f546001600160a01b03163303615a0557565b63118cdaa760e01b5f523360045260245ffdfea2646970667358221220d26cd832495176a1114ed075cac374c84f6dea71bbdfec8fee0fdd4ef905280c64736f6c634300081c0033",
  "linkReferences": {},
  "deployedLinkReferences": {},
  "immutableReferences": {
    "16572": [
      {
        "length": 32,
        "start": 2982
      },
      {
        "length": 32,
        "start": 3504
      },
      {
        "length": 32,
        "start": 4516
      },
      {
        "length": 32,
        "start": 4928
      },
      {
        "length": 32,
        "start": 6208
      },
      {
        "length": 32,
        "start": 8353
      },
      {
        "length": 32,
        "start": 12423
      },
      {
        "length": 32,
        "start": 15865
      },
      {
        "length": 32,
        "start": 16055
      },
      {
        "length": 32,
        "start": 17418
      },
      {
        "length": 32,
        "start": 18322
      },
      {
        "length": 32,
        "start": 20980
      }
    ]
  },
  "inputSourceName": "project/contracts/FundRaisingContractNFT.sol",
  "buildInfoId": "solc-0_8_28-cddd0589b27738c789ecf08afb4d65db2e791af0"
}