{
  "_format": "hh3-artifact-1",
  "contractName": "DZNFT",
  "sourceName": "contracts/DZNFT.sol",
  "abi": [
    {
      "inputs": [],
      "stateMutability": "nonpayable",
      "type": "constructor"
    },
    {
      "inputs": [],
      "name": "AccessControlBadConfirmation",
      "type": "error"
    },
    {
      "inputs": [
        {
          "internalType": "address",
          "name": "account",
          "type": "address"
        },
        {
          "internalType": "bytes32",
          "name": "neededRole",
          "type": "bytes32"
        }
      ],
      "name": "AccessControlUnauthorizedAccount",
      "type": "error"
    },
    {
      "inputs": [],
      "name": "ERC721EnumerableForbiddenBatchMint",
      "type": "error"
    },
    {
      "inputs": [
        {
          "internalType": "address",
          "name": "sender",
          "type": "address"
        },
        {
          "internalType": "uint256",
          "name": "tokenId",
          "type": "uint256"
        },
        {
          "internalType": "address",
          "name": "owner",
          "type": "address"
        }
      ],
      "name": "ERC721IncorrectOwner",
      "type": "error"
    },
    {
      "inputs": [
        {
          "internalType": "address",
          "name": "operator",
          "type": "address"
        },
        {
          "internalType": "uint256",
          "name": "tokenId",
          "type": "uint256"
        }
      ],
      "name": "ERC721InsufficientApproval",
      "type": "error"
    },
    {
      "inputs": [
        {
          "internalType": "address",
          "name": "approver",
          "type": "address"
        }
      ],
      "name": "ERC721InvalidApprover",
      "type": "error"
    },
    {
      "inputs": [
        {
          "internalType": "address",
          "name": "operator",
          "type": "address"
        }
      ],
      "name": "ERC721InvalidOperator",
      "type": "error"
    },
    {
      "inputs": [
        {
          "internalType": "address",
          "name": "owner",
          "type": "address"
        }
      ],
      "name": "ERC721InvalidOwner",
      "type": "error"
    },
    {
      "inputs": [
        {
          "internalType": "address",
          "name": "receiver",
          "type": "address"
        }
      ],
      "name": "ERC721InvalidReceiver",
      "type": "error"
    },
    {
      "inputs": [
        {
          "internalType": "address",
          "name": "sender",
          "type": "address"
        }
      ],
      "name": "ERC721InvalidSender",
      "type": "error"
    },
    {
      "inputs": [
        {
          "internalType": "uint256",
          "name": "tokenId",
          "type": "uint256"
        }
      ],
      "name": "ERC721NonexistentToken",
      "type": "error"
    },
    {
      "inputs": [
        {
          "internalType": "address",
          "name": "owner",
          "type": "address"
        },
        {
          "internalType": "uint256",
          "name": "index",
          "type": "uint256"
        }
      ],
      "name": "ERC721OutOfBoundsIndex",
      "type": "error"
    },
    {
      "inputs": [],
      "name": "EnforcedPause",
      "type": "error"
    },
    {
      "inputs": [],
      "name": "ExpectedPause",
      "type": "error"
    },
    {
      "inputs": [
        {
          "internalType": "address",
          "name": "owner",
          "type": "address"
        }
      ],
      "name": "OwnableInvalidOwner",
      "type": "error"
    },
    {
      "inputs": [
        {
          "internalType": "address",
          "name": "account",
          "type": "address"
        }
      ],
      "name": "OwnableUnauthorizedAccount",
      "type": "error"
    },
    {
      "anonymous": false,
      "inputs": [
        {
          "indexed": true,
          "internalType": "address",
          "name": "owner",
          "type": "address"
        },
        {
          "indexed": true,
          "internalType": "address",
          "name": "approved",
          "type": "address"
        },
        {
          "indexed": true,
          "internalType": "uint256",
          "name": "tokenId",
          "type": "uint256"
        }
      ],
      "name": "Approval",
      "type": "event"
    },
    {
      "anonymous": false,
      "inputs": [
        {
          "indexed": true,
          "internalType": "address",
          "name": "owner",
          "type": "address"
        },
        {
          "indexed": true,
          "internalType": "address",
          "name": "operator",
          "type": "address"
        },
        {
          "indexed": false,
          "internalType": "bool",
          "name": "approved",
          "type": "bool"
        }
      ],
      "name": "ApprovalForAll",
      "type": "event"
    },
    {
      "anonymous": false,
      "inputs": [
        {
          "indexed": false,
          "internalType": "string",
          "name": "newBaseURI",
          "type": "string"
        }
      ],
      "name": "BaseURIUpdated",
      "type": "event"
    },
    {
      "anonymous": false,
      "inputs": [
        {
          "indexed": true,
          "internalType": "address",
          "name": "account",
          "type": "address"
        },
        {
          "indexed": false,
          "internalType": "bool",
          "name": "granted",
          "type": "bool"
        }
      ],
      "name": "ExecutorRoleUpdated",
      "type": "event"
    },
    {
      "anonymous": false,
      "inputs": [
        {
          "indexed": true,
          "internalType": "uint256",
          "name": "tokenId",
          "type": "uint256"
        },
        {
          "indexed": false,
          "internalType": "string",
          "name": "metadata",
          "type": "string"
        }
      ],
      "name": "MetadataStamped",
      "type": "event"
    },
    {
      "anonymous": false,
      "inputs": [
        {
          "indexed": true,
          "internalType": "uint256",
          "name": "tokenId",
          "type": "uint256"
        },
        {
          "indexed": true,
          "internalType": "address",
          "name": "owner",
          "type": "address"
        }
      ],
      "name": "NFTBurned",
      "type": "event"
    },
    {
      "anonymous": false,
      "inputs": [
        {
          "indexed": true,
          "internalType": "uint256",
          "name": "tokenId",
          "type": "uint256"
        },
        {
          "indexed": true,
          "internalType": "address",
          "name": "buyer",
          "type": "address"
        },
        {
          "indexed": true,
          "internalType": "uint256",
          "name": "roundId",
          "type": "uint256"
        },
        {
          "indexed": false,
          "internalType": "uint256",
          "name": "tokenPrice",
          "type": "uint256"
        },
        {
          "indexed": false,
          "internalType": "uint256",
          "name": "rewardPercentage",
          "type": "uint256"
        }
      ],
      "name": "NFTMinted",
      "type": "event"
    },
    {
      "anonymous": false,
      "inputs": [
        {
          "indexed": true,
          "internalType": "address",
          "name": "previousOwner",
          "type": "address"
        },
        {
          "indexed": true,
          "internalType": "address",
          "name": "newOwner",
          "type": "address"
        }
      ],
      "name": "OwnershipTransferred",
      "type": "event"
    },
    {
      "anonymous": false,
      "inputs": [
        {
          "indexed": false,
          "internalType": "address",
          "name": "account",
          "type": "address"
        }
      ],
      "name": "Paused",
      "type": "event"
    },
    {
      "anonymous": false,
      "inputs": [
        {
          "indexed": true,
          "internalType": "uint256",
          "name": "tokenId",
          "type": "uint256"
        },
        {
          "indexed": true,
          "internalType": "address",
          "name": "claimer",
          "type": "address"
        }
      ],
      "name": "RewardClaimed",
      "type": "event"
    },
    {
      "anonymous": false,
      "inputs": [
        {
          "indexed": true,
          "internalType": "bytes32",
          "name": "role",
          "type": "bytes32"
        },
        {
          "indexed": true,
          "internalType": "bytes32",
          "name": "previousAdminRole",
          "type": "bytes32"
        },
        {
          "indexed": true,
          "internalType": "bytes32",
          "name": "newAdminRole",
          "type": "bytes32"
        }
      ],
      "name": "RoleAdminChanged",
      "type": "event"
    },
    {
      "anonymous": false,
      "inputs": [
        {
          "indexed": true,
          "internalType": "bytes32",
          "name": "role",
          "type": "bytes32"
        },
        {
          "indexed": true,
          "internalType": "address",
          "name": "account",
          "type": "address"
        },
        {
          "indexed": true,
          "internalType": "address",
          "name": "sender",
          "type": "address"
        }
      ],
      "name": "RoleGranted",
      "type": "event"
    },
    {
      "anonymous": false,
      "inputs": [
        {
          "indexed": true,
          "internalType": "bytes32",
          "name": "role",
          "type": "bytes32"
        },
        {
          "indexed": true,
          "internalType": "address",
          "name": "account",
          "type": "address"
        },
        {
          "indexed": true,
          "internalType": "address",
          "name": "sender",
          "type": "address"
        }
      ],
      "name": "RoleRevoked",
      "type": "event"
    },
    {
      "anonymous": false,
      "inputs": [
        {
          "indexed": true,
          "internalType": "uint256",
          "name": "tokenId",
          "type": "uint256"
        },
        {
          "indexed": false,
          "internalType": "string",
          "name": "newTokenURI",
          "type": "string"
        }
      ],
      "name": "TokenURIUpdated",
      "type": "event"
    },
    {
      "anonymous": false,
      "inputs": [
        {
          "indexed": true,
          "internalType": "address",
          "name": "from",
          "type": "address"
        },
        {
          "indexed": true,
          "internalType": "address",
          "name": "to",
          "type": "address"
        },
        {
          "indexed": true,
          "internalType": "uint256",
          "name": "tokenId",
          "type": "uint256"
        }
      ],
      "name": "Transfer",
      "type": "event"
    },
    {
      "anonymous": false,
      "inputs": [
        {
          "indexed": true,
          "internalType": "uint256",
          "name": "tokenId",
          "type": "uint256"
        },
        {
          "indexed": false,
          "internalType": "bool",
          "name": "locked",
          "type": "bool"
        }
      ],
      "name": "TransferLockUpdated",
      "type": "event"
    },
    {
      "anonymous": false,
      "inputs": [
        {
          "indexed": false,
          "internalType": "address",
          "name": "account",
          "type": "address"
        }
      ],
      "name": "Unpaused",
      "type": "event"
    },
    {
      "inputs": [],
      "name": "DEFAULT_ADMIN_ROLE",
      "outputs": [
        {
          "internalType": "bytes32",
          "name": "",
          "type": "bytes32"
        }
      ],
      "stateMutability": "view",
      "type": "function"
    },
    {
      "inputs": [],
      "name": "EXECUTOR_ROLE",
      "outputs": [
        {
          "internalType": "bytes32",
          "name": "",
          "type": "bytes32"
        }
      ],
      "stateMutability": "view",
      "type": "function"
    },
    {
      "inputs": [
        {
          "internalType": "address",
          "name": "to",
          "type": "address"
        },
        {
          "internalType": "uint256",
          "name": "tokenId",
          "type": "uint256"
        }
      ],
      "name": "approve",
      "outputs": [],
      "stateMutability": "nonpayable",
      "type": "function"
    },
    {
      "inputs": [
        {
          "internalType": "address",
          "name": "owner",
          "type": "address"
        }
      ],
      "name": "balanceOf",
      "outputs": [
        {
          "internalType": "uint256",
          "name": "",
          "type": "uint256"
        }
      ],
      "stateMutability": "view",
      "type": "function"
    },
    {
      "inputs": [],
      "name": "baseURI",
      "outputs": [
        {
          "internalType": "string",
          "name": "",
          "type": "string"
        }
      ],
      "stateMutability": "view",
      "type": "function"
    },
    {
      "inputs": [
        {
          "internalType": "uint256[]",
          "name": "tokenIds",
          "type": "uint256[]"
        },
        {
          "internalType": "address",
          "name": "user",
          "type": "address"
        }
      ],
      "name": "batchCheckOwnership",
      "outputs": [
        {
          "internalType": "bool[]",
          "name": "ownedTokens",
          "type": "bool[]"
        }
      ],
      "stateMutability": "view",
      "type": "function"
    },
    {
      "inputs": [
        {
          "internalType": "uint256[]",
          "name": "tokenIds",
          "type": "uint256[]"
        }
      ],
      "name": "batchGetTokensDetail",
      "outputs": [
        {
          "components": [
            {
              "internalType": "uint256",
              "name": "tokenId",
              "type": "uint256"
            },
            {
              "internalType": "uint256",
              "name": "roundId",
              "type": "uint256"
            },
            {
              "internalType": "uint256",
              "name": "tokenPrice",
              "type": "uint256"
            },
            {
              "internalType": "uint256",
              "name": "rewardPercentage",
              "type": "uint256"
            },
            {
              "internalType": "uint256",
              "name": "totalTokenOpenInvestment",
              "type": "uint256"
            },
            {
              "internalType": "uint256",
              "name": "purchaseTimestamp",
              "type": "uint256"
            },
            {
              "internalType": "uint256",
              "name": "closeDateInvestment",
              "type": "uint256"
            },
            {
              "internalType": "uint256",
              "name": "endDateInvestment",
              "type": "uint256"
            },
            {
              "internalType": "address",
              "name": "originalBuyer",
              "type": "address"
            },
            {
              "internalType": "bool",
              "name": "redeemed",
              "type": "bool"
            },
            {
              "internalType": "bool",
              "name": "rewardClaimed",
              "type": "bool"
            },
            {
              "internalType": "bool",
              "name": "transferLocked",
              "type": "bool"
            },
            {
              "internalType": "string",
              "name": "metadata",
              "type": "string"
            }
          ],
          "internalType": "struct DZNFT.InvestmentData[]",
          "name": "investments",
          "type": "tuple[]"
        }
      ],
      "stateMutability": "view",
      "type": "function"
    },
    {
      "inputs": [
        {
          "internalType": "address",
          "name": "to",
          "type": "address"
        },
        {
          "internalType": "uint256",
          "name": "count",
          "type": "uint256"
        },
        {
          "internalType": "uint256",
          "name": "roundId",
          "type": "uint256"
        },
        {
          "internalType": "uint256",
          "name": "tokenPrice",
          "type": "uint256"
        },
        {
          "internalType": "uint256",
          "name": "rewardPercentage",
          "type": "uint256"
        },
        {
          "internalType": "uint256",
          "name": "totalTokenOpenInvestment",
          "type": "uint256"
        },
        {
          "internalType": "uint256",
          "name": "closeDateInvestment",
          "type": "uint256"
        },
        {
          "internalType": "uint256",
          "name": "endDateInvestment",
          "type": "uint256"
        }
      ],
      "name": "batchMintNFT",
      "outputs": [
        {
          "internalType": "uint256[]",
          "name": "tokenIds",
          "type": "uint256[]"
        }
      ],
      "stateMutability": "nonpayable",
      "type": "function"
    },
    {
      "inputs": [
        {
          "internalType": "uint256",
          "name": "tokenId",
          "type": "uint256"
        }
      ],
      "name": "burn",
      "outputs": [],
      "stateMutability": "nonpayable",
      "type": "function"
    },
    {
      "inputs": [
        {
          "internalType": "uint256",
          "name": "tokenId",
          "type": "uint256"
        }
      ],
      "name": "canClaimEarlyReward",
      "outputs": [
        {
          "internalType": "bool",
          "name": "",
          "type": "bool"
        }
      ],
      "stateMutability": "view",
      "type": "function"
    },
    {
      "inputs": [
        {
          "internalType": "uint256",
          "name": "tokenId",
          "type": "uint256"
        }
      ],
      "name": "canFullyRedeem",
      "outputs": [
        {
          "internalType": "bool",
          "name": "",
          "type": "bool"
        }
      ],
      "stateMutability": "view",
      "type": "function"
    },
    {
      "inputs": [
        {
          "internalType": "uint256",
          "name": "tokenId",
          "type": "uint256"
        }
      ],
      "name": "getApproved",
      "outputs": [
        {
          "internalType": "address",
          "name": "",
          "type": "address"
        }
      ],
      "stateMutability": "view",
      "type": "function"
    },
    {
      "inputs": [
        {
          "internalType": "address",
          "name": "walletAddress",
          "type": "address"
        }
      ],
      "name": "getDividendEarning",
      "outputs": [
        {
          "internalType": "uint256",
          "name": "dividendEarned",
          "type": "uint256"
        },
        {
          "internalType": "uint256",
          "name": "dividendPending",
          "type": "uint256"
        }
      ],
      "stateMutability": "view",
      "type": "function"
    },
    {
      "inputs": [
        {
          "internalType": "uint256",
          "name": "tokenId",
          "type": "uint256"
        }
      ],
      "name": "getInvestmentData",
      "outputs": [
        {
          "components": [
            {
              "internalType": "uint256",
              "name": "tokenId",
              "type": "uint256"
            },
            {
              "internalType": "uint256",
              "name": "roundId",
              "type": "uint256"
            },
            {
              "internalType": "uint256",
              "name": "tokenPrice",
              "type": "uint256"
            },
            {
              "internalType": "uint256",
              "name": "rewardPercentage",
              "type": "uint256"
            },
            {
              "internalType": "uint256",
              "name": "totalTokenOpenInvestment",
              "type": "uint256"
            },
            {
              "internalType": "uint256",
              "name": "purchaseTimestamp",
              "type": "uint256"
            },
            {
              "internalType": "uint256",
              "name": "closeDateInvestment",
              "type": "uint256"
            },
            {
              "internalType": "uint256",
              "name": "endDateInvestment",
              "type": "uint256"
            },
            {
              "internalType": "address",
              "name": "originalBuyer",
              "type": "address"
            },
            {
              "internalType": "bool",
              "name": "redeemed",
              "type": "bool"
            },
            {
              "internalType": "bool",
              "name": "rewardClaimed",
              "type": "bool"
            },
            {
              "internalType": "bool",
              "name": "transferLocked",
              "type": "bool"
            },
            {
              "internalType": "string",
              "name": "metadata",
              "type": "string"
            }
          ],
          "internalType": "struct DZNFT.InvestmentData",
          "name": "",
          "type": "tuple"
        }
      ],
      "stateMutability": "view",
      "type": "function"
    },
    {
      "inputs": [
        {
          "internalType": "address",
          "name": "walletAddress",
          "type": "address"
        }
      ],
      "name": "getInvestorRounds",
      "outputs": [
        {
          "internalType": "uint256[]",
          "name": "roundIds",
          "type": "uint256[]"
        }
      ],
      "stateMutability": "view",
      "type": "function"
    },
    {
      "inputs": [
        {
          "internalType": "address",
          "name": "investor",
          "type": "address"
        }
      ],
      "name": "getInvestorSummary",
      "outputs": [
        {
          "internalType": "uint256",
          "name": "totalTokensOwned",
          "type": "uint256"
        },
        {
          "internalType": "uint256[]",
          "name": "nftTokenIds",
          "type": "uint256[]"
        },
        {
          "internalType": "uint256",
          "name": "totalInvestment",
          "type": "uint256"
        },
        {
          "internalType": "uint256",
          "name": "dividendsEarned",
          "type": "uint256"
        },
        {
          "internalType": "uint256[]",
          "name": "activeRounds",
          "type": "uint256[]"
        }
      ],
      "stateMutability": "view",
      "type": "function"
    },
    {
      "inputs": [
        {
          "internalType": "bytes32",
          "name": "role",
          "type": "bytes32"
        }
      ],
      "name": "getRoleAdmin",
      "outputs": [
        {
          "internalType": "bytes32",
          "name": "",
          "type": "bytes32"
        }
      ],
      "stateMutability": "view",
      "type": "function"
    },
    {
      "inputs": [
        {
          "internalType": "uint256",
          "name": "tokenId",
          "type": "uint256"
        }
      ],
      "name": "getTokenDetail",
      "outputs": [
        {
          "components": [
            {
              "internalType": "uint256",
              "name": "tokenId",
              "type": "uint256"
            },
            {
              "internalType": "uint256",
              "name": "roundId",
              "type": "uint256"
            },
            {
              "internalType": "uint256",
              "name": "tokenPrice",
              "type": "uint256"
            },
            {
              "internalType": "uint256",
              "name": "rewardPercentage",
              "type": "uint256"
            },
            {
              "internalType": "uint256",
              "name": "totalTokenOpenInvestment",
              "type": "uint256"
            },
            {
              "internalType": "uint256",
              "name": "purchaseTimestamp",
              "type": "uint256"
            },
            {
              "internalType": "uint256",
              "name": "closeDateInvestment",
              "type": "uint256"
            },
            {
              "internalType": "uint256",
              "name": "endDateInvestment",
              "type": "uint256"
            },
            {
              "internalType": "address",
              "name": "originalBuyer",
              "type": "address"
            },
            {
              "internalType": "bool",
              "name": "redeemed",
              "type": "bool"
            },
            {
              "internalType": "bool",
              "name": "rewardClaimed",
              "type": "bool"
            },
            {
              "internalType": "bool",
              "name": "transferLocked",
              "type": "bool"
            },
            {
              "internalType": "string",
              "name": "metadata",
              "type": "string"
            }
          ],
          "internalType": "struct DZNFT.InvestmentData",
          "name": "",
          "type": "tuple"
        }
      ],
      "stateMutability": "view",
      "type": "function"
    },
    {
      "inputs": [
        {
          "internalType": "address",
          "name": "user",
          "type": "address"
        },
        {
          "internalType": "uint256",
          "name": "roundId",
          "type": "uint256"
        }
      ],
      "name": "getUserNFTsByRound",
      "outputs": [
        {
          "internalType": "uint256[]",
          "name": "tokenIds",
          "type": "uint256[]"
        }
      ],
      "stateMutability": "view",
      "type": "function"
    },
    {
      "inputs": [
        {
          "internalType": "address",
          "name": "walletAddress",
          "type": "address"
        }
      ],
      "name": "getWalletNFTSummary",
      "outputs": [
        {
          "internalType": "uint256",
          "name": "totalNFTs",
          "type": "uint256"
        },
        {
          "internalType": "uint256",
          "name": "activeInvestments",
          "type": "uint256"
        },
        {
          "internalType": "uint256",
          "name": "redeemedInvestments",
          "type": "uint256"
        },
        {
          "internalType": "uint256",
          "name": "claimedRewards",
          "type": "uint256"
        },
        {
          "internalType": "uint256",
          "name": "totalInvestedValue",
          "type": "uint256"
        },
        {
          "internalType": "uint256",
          "name": "totalExpectedRewards",
          "type": "uint256"
        },
        {
          "internalType": "uint256",
          "name": "claimableAmount",
          "type": "uint256"
        }
      ],
      "stateMutability": "view",
      "type": "function"
    },
    {
      "inputs": [
        {
          "internalType": "address",
          "name": "walletAddress",
          "type": "address"
        },
        {
          "internalType": "uint256",
          "name": "offset",
          "type": "uint256"
        },
        {
          "internalType": "uint256",
          "name": "limit",
          "type": "uint256"
        }
      ],
      "name": "getWalletNFTsPaginated",
      "outputs": [
        {
          "internalType": "uint256[]",
          "name": "tokenIds",
          "type": "uint256[]"
        },
        {
          "components": [
            {
              "internalType": "uint256",
              "name": "tokenId",
              "type": "uint256"
            },
            {
              "internalType": "uint256",
              "name": "roundId",
              "type": "uint256"
            },
            {
              "internalType": "uint256",
              "name": "tokenPrice",
              "type": "uint256"
            },
            {
              "internalType": "uint256",
              "name": "rewardPercentage",
              "type": "uint256"
            },
            {
              "internalType": "uint256",
              "name": "totalTokenOpenInvestment",
              "type": "uint256"
            },
            {
              "internalType": "uint256",
              "name": "purchaseTimestamp",
              "type": "uint256"
            },
            {
              "internalType": "uint256",
              "name": "closeDateInvestment",
              "type": "uint256"
            },
            {
              "internalType": "uint256",
              "name": "endDateInvestment",
              "type": "uint256"
            },
            {
              "internalType": "address",
              "name": "originalBuyer",
              "type": "address"
            },
            {
              "internalType": "bool",
              "name": "redeemed",
              "type": "bool"
            },
            {
              "internalType": "bool",
              "name": "rewardClaimed",
              "type": "bool"
            },
            {
              "internalType": "bool",
              "name": "transferLocked",
              "type": "bool"
            },
            {
              "internalType": "string",
              "name": "metadata",
              "type": "string"
            }
          ],
          "internalType": "struct DZNFT.InvestmentData[]",
          "name": "investmentDetails",
          "type": "tuple[]"
        },
        {
          "internalType": "uint256",
          "name": "totalTokens",
          "type": "uint256"
        },
        {
          "internalType": "uint256",
          "name": "totalPages",
          "type": "uint256"
        },
        {
          "internalType": "uint256",
          "name": "currentPage",
          "type": "uint256"
        },
        {
          "internalType": "bool",
          "name": "hasMore",
          "type": "bool"
        }
      ],
      "stateMutability": "view",
      "type": "function"
    },
    {
      "inputs": [
        {
          "internalType": "address",
          "name": "walletAddress",
          "type": "address"
        }
      ],
      "name": "getWalletTokensDetail",
      "outputs": [
        {
          "internalType": "uint256[]",
          "name": "tokenIds",
          "type": "uint256[]"
        },
        {
          "components": [
            {
              "internalType": "uint256",
              "name": "tokenId",
              "type": "uint256"
            },
            {
              "internalType": "uint256",
              "name": "roundId",
              "type": "uint256"
            },
            {
              "internalType": "uint256",
              "name": "tokenPrice",
              "type": "uint256"
            },
            {
              "internalType": "uint256",
              "name": "rewardPercentage",
              "type": "uint256"
            },
            {
              "internalType": "uint256",
              "name": "totalTokenOpenInvestment",
              "type": "uint256"
            },
            {
              "internalType": "uint256",
              "name": "purchaseTimestamp",
              "type": "uint256"
            },
            {
              "internalType": "uint256",
              "name": "closeDateInvestment",
              "type": "uint256"
            },
            {
              "internalType": "uint256",
              "name": "endDateInvestment",
              "type": "uint256"
            },
            {
              "internalType": "address",
              "name": "originalBuyer",
              "type": "address"
            },
            {
              "internalType": "bool",
              "name": "redeemed",
              "type": "bool"
            },
            {
              "internalType": "bool",
              "name": "rewardClaimed",
              "type": "bool"
            },
            {
              "internalType": "bool",
              "name": "transferLocked",
              "type": "bool"
            },
            {
              "internalType": "string",
              "name": "metadata",
              "type": "string"
            }
          ],
          "internalType": "struct DZNFT.InvestmentData[]",
          "name": "nftsDetail",
          "type": "tuple[]"
        }
      ],
      "stateMutability": "view",
      "type": "function"
    },
    {
      "inputs": [
        {
          "internalType": "bytes32",
          "name": "role",
          "type": "bytes32"
        },
        {
          "internalType": "address",
          "name": "account",
          "type": "address"
        }
      ],
      "name": "grantRole",
      "outputs": [],
      "stateMutability": "nonpayable",
      "type": "function"
    },
    {
      "inputs": [
        {
          "internalType": "bytes32",
          "name": "role",
          "type": "bytes32"
        },
        {
          "internalType": "address",
          "name": "account",
          "type": "address"
        }
      ],
      "name": "hasRole",
      "outputs": [
        {
          "internalType": "bool",
          "name": "",
          "type": "bool"
        }
      ],
      "stateMutability": "view",
      "type": "function"
    },
    {
      "inputs": [
        {
          "internalType": "uint256",
          "name": "",
          "type": "uint256"
        }
      ],
      "name": "investmentData",
      "outputs": [
        {
          "internalType": "uint256",
          "name": "tokenId",
          "type": "uint256"
        },
        {
          "internalType": "uint256",
          "name": "roundId",
          "type": "uint256"
        },
        {
          "internalType": "uint256",
          "name": "tokenPrice",
          "type": "uint256"
        },
        {
          "internalType": "uint256",
          "name": "rewardPercentage",
          "type": "uint256"
        },
        {
          "internalType": "uint256",
          "name": "totalTokenOpenInvestment",
          "type": "uint256"
        },
        {
          "internalType": "uint256",
          "name": "purchaseTimestamp",
          "type": "uint256"
        },
        {
          "internalType": "uint256",
          "name": "closeDateInvestment",
          "type": "uint256"
        },
        {
          "internalType": "uint256",
          "name": "endDateInvestment",
          "type": "uint256"
        },
        {
          "internalType": "address",
          "name": "originalBuyer",
          "type": "address"
        },
        {
          "internalType": "bool",
          "name": "redeemed",
          "type": "bool"
        },
        {
          "internalType": "bool",
          "name": "rewardClaimed",
          "type": "bool"
        },
        {
          "internalType": "bool",
          "name": "transferLocked",
          "type": "bool"
        },
        {
          "internalType": "string",
          "name": "metadata",
          "type": "string"
        }
      ],
      "stateMutability": "view",
      "type": "function"
    },
    {
      "inputs": [
        {
          "internalType": "address",
          "name": "owner",
          "type": "address"
        },
        {
          "internalType": "address",
          "name": "operator",
          "type": "address"
        }
      ],
      "name": "isApprovedForAll",
      "outputs": [
        {
          "internalType": "bool",
          "name": "",
          "type": "bool"
        }
      ],
      "stateMutability": "view",
      "type": "function"
    },
    {
      "inputs": [
        {
          "internalType": "address",
          "name": "account",
          "type": "address"
        }
      ],
      "name": "isExecutor",
      "outputs": [
        {
          "internalType": "bool",
          "name": "",
          "type": "bool"
        }
      ],
      "stateMutability": "view",
      "type": "function"
    },
    {
      "inputs": [
        {
          "internalType": "uint256",
          "name": "tokenId",
          "type": "uint256"
        }
      ],
      "name": "isInvestmentMatured",
      "outputs": [
        {
          "internalType": "bool",
          "name": "",
          "type": "bool"
        }
      ],
      "stateMutability": "view",
      "type": "function"
    },
    {
      "inputs": [
        {
          "internalType": "uint256",
          "name": "tokenId",
          "type": "uint256"
        }
      ],
      "name": "isInvestmentOpen",
      "outputs": [
        {
          "internalType": "bool",
          "name": "",
          "type": "bool"
        }
      ],
      "stateMutability": "view",
      "type": "function"
    },
    {
      "inputs": [
        {
          "internalType": "uint256",
          "name": "tokenId",
          "type": "uint256"
        }
      ],
      "name": "isTransferLocked",
      "outputs": [
        {
          "internalType": "bool",
          "name": "",
          "type": "bool"
        }
      ],
      "stateMutability": "view",
      "type": "function"
    },
    {
      "inputs": [
        {
          "internalType": "uint256",
          "name": "tokenId",
          "type": "uint256"
        }
      ],
      "name": "lockTransfer",
      "outputs": [],
      "stateMutability": "nonpayable",
      "type": "function"
    },
    {
      "inputs": [
        {
          "internalType": "uint256",
          "name": "tokenId",
          "type": "uint256"
        }
      ],
      "name": "markAsRedeemed",
      "outputs": [],
      "stateMutability": "nonpayable",
      "type": "function"
    },
    {
      "inputs": [
        {
          "internalType": "uint256",
          "name": "tokenId",
          "type": "uint256"
        }
      ],
      "name": "markRewardClaimed",
      "outputs": [],
      "stateMutability": "nonpayable",
      "type": "function"
    },
    {
      "inputs": [
        {
          "internalType": "address",
          "name": "to",
          "type": "address"
        },
        {
          "internalType": "uint256",
          "name": "roundId",
          "type": "uint256"
        },
        {
          "internalType": "uint256",
          "name": "tokenPrice",
          "type": "uint256"
        },
        {
          "internalType": "uint256",
          "name": "rewardPercentage",
          "type": "uint256"
        },
        {
          "internalType": "uint256",
          "name": "totalTokenOpenInvestment",
          "type": "uint256"
        },
        {
          "internalType": "uint256",
          "name": "closeDateInvestment",
          "type": "uint256"
        },
        {
          "internalType": "uint256",
          "name": "endDateInvestment",
          "type": "uint256"
        }
      ],
      "name": "mintNFT",
      "outputs": [
        {
          "internalType": "uint256",
          "name": "",
          "type": "uint256"
        }
      ],
      "stateMutability": "nonpayable",
      "type": "function"
    },
    {
      "inputs": [],
      "name": "name",
      "outputs": [
        {
          "internalType": "string",
          "name": "",
          "type": "string"
        }
      ],
      "stateMutability": "view",
      "type": "function"
    },
    {
      "inputs": [],
      "name": "owner",
      "outputs": [
        {
          "internalType": "address",
          "name": "",
          "type": "address"
        }
      ],
      "stateMutability": "view",
      "type": "function"
    },
    {
      "inputs": [
        {
          "internalType": "uint256",
          "name": "tokenId",
          "type": "uint256"
        }
      ],
      "name": "ownerOf",
      "outputs": [
        {
          "internalType": "address",
          "name": "",
          "type": "address"
        }
      ],
      "stateMutability": "view",
      "type": "function"
    },
    {
      "inputs": [],
      "name": "pause",
      "outputs": [],
      "stateMutability": "nonpayable",
      "type": "function"
    },
    {
      "inputs": [],
      "name": "paused",
      "outputs": [
        {
          "internalType": "bool",
          "name": "",
          "type": "bool"
        }
      ],
      "stateMutability": "view",
      "type": "function"
    },
    {
      "inputs": [],
      "name": "renounceOwnership",
      "outputs": [],
      "stateMutability": "nonpayable",
      "type": "function"
    },
    {
      "inputs": [
        {
          "internalType": "bytes32",
          "name": "role",
          "type": "bytes32"
        },
        {
          "internalType": "address",
          "name": "callerConfirmation",
          "type": "address"
        }
      ],
      "name": "renounceRole",
      "outputs": [],
      "stateMutability": "nonpayable",
      "type": "function"
    },
    {
      "inputs": [
        {
          "internalType": "bytes32",
          "name": "role",
          "type": "bytes32"
        },
        {
          "internalType": "address",
          "name": "account",
          "type": "address"
        }
      ],
      "name": "revokeRole",
      "outputs": [],
      "stateMutability": "nonpayable",
      "type": "function"
    },
    {
      "inputs": [
        {
          "internalType": "address",
          "name": "from",
          "type": "address"
        },
        {
          "internalType": "address",
          "name": "to",
          "type": "address"
        },
        {
          "internalType": "uint256",
          "name": "tokenId",
          "type": "uint256"
        }
      ],
      "name": "safeTransferFrom",
      "outputs": [],
      "stateMutability": "nonpayable",
      "type": "function"
    },
    {
      "inputs": [
        {
          "internalType": "address",
          "name": "from",
          "type": "address"
        },
        {
          "internalType": "address",
          "name": "to",
          "type": "address"
        },
        {
          "internalType": "uint256",
          "name": "tokenId",
          "type": "uint256"
        },
        {
          "internalType": "bytes",
          "name": "data",
          "type": "bytes"
        }
      ],
      "name": "safeTransferFrom",
      "outputs": [],
      "stateMutability": "nonpayable",
      "type": "function"
    },
    {
      "inputs": [
        {
          "internalType": "address",
          "name": "operator",
          "type": "address"
        },
        {
          "internalType": "bool",
          "name": "approved",
          "type": "bool"
        }
      ],
      "name": "setApprovalForAll",
      "outputs": [],
      "stateMutability": "nonpayable",
      "type": "function"
    },
    {
      "inputs": [
        {
          "internalType": "string",
          "name": "newBaseURI",
          "type": "string"
        }
      ],
      "name": "setBaseURI",
      "outputs": [],
      "stateMutability": "nonpayable",
      "type": "function"
    },
    {
      "inputs": [
        {
          "internalType": "uint256",
          "name": "tokenId",
          "type": "uint256"
        },
        {
          "internalType": "string",
          "name": "newTokenURI",
          "type": "string"
        }
      ],
      "name": "setTokenURI",
      "outputs": [],
      "stateMutability": "nonpayable",
      "type": "function"
    },
    {
      "inputs": [
        {
          "internalType": "uint256",
          "name": "tokenId",
          "type": "uint256"
        },
        {
          "internalType": "string",
          "name": "metadata",
          "type": "string"
        }
      ],
      "name": "stampMetadata",
      "outputs": [],
      "stateMutability": "nonpayable",
      "type": "function"
    },
    {
      "inputs": [
        {
          "internalType": "bytes4",
          "name": "interfaceId",
          "type": "bytes4"
        }
      ],
      "name": "supportsInterface",
      "outputs": [
        {
          "internalType": "bool",
          "name": "",
          "type": "bool"
        }
      ],
      "stateMutability": "view",
      "type": "function"
    },
    {
      "inputs": [],
      "name": "symbol",
      "outputs": [
        {
          "internalType": "string",
          "name": "",
          "type": "string"
        }
      ],
      "stateMutability": "view",
      "type": "function"
    },
    {
      "inputs": [
        {
          "internalType": "uint256",
          "name": "index",
          "type": "uint256"
        }
      ],
      "name": "tokenByIndex",
      "outputs": [
        {
          "internalType": "uint256",
          "name": "",
          "type": "uint256"
        }
      ],
      "stateMutability": "view",
      "type": "function"
    },
    {
      "inputs": [
        {
          "internalType": "uint256",
          "name": "",
          "type": "uint256"
        }
      ],
      "name": "tokenExists",
      "outputs": [
        {
          "internalType": "bool",
          "name": "",
          "type": "bool"
        }
      ],
      "stateMutability": "view",
      "type": "function"
    },
    {
      "inputs": [
        {
          "internalType": "address",
          "name": "owner",
          "type": "address"
        },
        {
          "internalType": "uint256",
          "name": "index",
          "type": "uint256"
        }
      ],
      "name": "tokenOfOwnerByIndex",
      "outputs": [
        {
          "internalType": "uint256",
          "name": "",
          "type": "uint256"
        }
      ],
      "stateMutability": "view",
      "type": "function"
    },
    {
      "inputs": [
        {
          "internalType": "uint256",
          "name": "tokenId",
          "type": "uint256"
        }
      ],
      "name": "tokenURI",
      "outputs": [
        {
          "internalType": "string",
          "name": "",
          "type": "string"
        }
      ],
      "stateMutability": "view",
      "type": "function"
    },
    {
      "inputs": [],
      "name": "totalSupply",
      "outputs": [
        {
          "internalType": "uint256",
          "name": "",
          "type": "uint256"
        }
      ],
      "stateMutability": "view",
      "type": "function"
    },
    {
      "inputs": [
        {
          "internalType": "address",
          "name": "from",
          "type": "address"
        },
        {
          "internalType": "address",
          "name": "to",
          "type": "address"
        },
        {
          "internalType": "uint256",
          "name": "tokenId",
          "type": "uint256"
        }
      ],
      "name": "transferFrom",
      "outputs": [],
      "stateMutability": "nonpayable",
      "type": "function"
    },
    {
      "inputs": [
        {
          "internalType": "address",
          "name": "newOwner",
          "type": "address"
        }
      ],
      "name": "transferOwner",
      "outputs": [],
      "stateMutability": "nonpayable",
      "type": "function"
    },
    {
      "inputs": [
        {
          "internalType": "address",
          "name": "newOwner",
          "type": "address"
        }
      ],
      "name": "transferOwnership",
      "outputs": [],
      "stateMutability": "nonpayable",
      "type": "function"
    },
    {
      "inputs": [
        {
          "internalType": "uint256",
          "name": "tokenId",
          "type": "uint256"
        }
      ],
      "name": "unlockTransfer",
      "outputs": [],
      "stateMutability": "nonpayable",
      "type": "function"
    },
    {
      "inputs": [],
      "name": "unpause",
      "outputs": [],
      "stateMutability": "nonpayable",
      "type": "function"
    },
    {
      "inputs": [
        {
          "internalType": "address",
          "name": "account",
          "type": "address"
        },
        {
          "internalType": "bool",
          "name": "grant",
          "type": "bool"
        }
      ],
      "name": "updateExecutorRole",
      "outputs": [],
      "stateMutability": "nonpayable",
      "type": "function"
    }
  ],
  "bytecode": "0x60806040523461039757604080519081016001600160401b038111828210176102cc5760409081526011825270111688125b9d995cdd1b595b9d08139195607a1b602083015280519081016001600160401b038111828210176102cc576040526005815264111693919560da1b602082015281516001600160401b0381116102cc5761008b5f5461039b565b601f811161034a575b50602092601f82116001146102eb57928192935f926102e0575b50508160011b915f199060031b1c1916175f555b80516001600160401b0381116102cc576100dd60015461039b565b601f8111610273575b50602091601f8211600114610213579181925f92610208575b50508160011b915f199060031b1c1916176001555b33156101f557600a8054336001600160a01b0319821681179092556001600160a01b03167f8be0079c531659141344cd1fd0a4f28419497f9722a3daafe3b4186f6b6457e05f80a3610165336103e9565b5061016f3361045f565b5061017b600e5461039b565b601f81116101b7575b7f68747470733a2f2f6170692e647a6e66742e636f6d2f6d657461646174612f3e600e55604051614c4990816104f38239f35b600e5f526101ef90601f0160051c7fbb7b4a454dc3493923482f07822329ed19e8244eff582cc204f8554c3620c3fd908101906103d3565b5f610184565b631e4fbdf760e01b5f525f60045260245ffd5b015190505f806100ff565b601f1982169260015f52805f20915f5b85811061025b57508360019510610243575b505050811b01600155610114565b01515f1960f88460031b161c191690555f8080610235565b91926020600181928685015181550194019201610223565b60015f526102bc907fb10e2d527612073b26eecdfd717e6a320cf44b4afac2b0732d9fcbe2b7fa0cf6601f840160051c810191602085106102c2575b601f0160051c01906103d3565b5f6100e6565b90915081906102af565b634e487b7160e01b5f52604160045260245ffd5b015190505f806100ae565b601f198216935f8052805f20915f5b868110610332575083600195961061031a575b505050811b015f556100c2565b01515f1960f88460031b161c191690555f808061030d565b919260206001819286850151815501940192016102fa565b5f8052610391907f290decd9548b62a8d60345a988386fc84ba6bc95484008f6362f93160ef3e563601f840160051c810191602085106102c257601f0160051c01906103d3565b5f610094565b5f80fd5b90600182811c921680156103c9575b60208310146103b557565b634e487b7160e01b5f52602260045260245ffd5b91607f16916103aa565b8181106103de575050565b5f81556001016103d3565b6001600160a01b0381165f9081525f51602061515c5f395f51905f52602052604090205460ff1661045a576001600160a01b03165f8181525f51602061515c5f395f51905f5260205260408120805460ff191660011790553391905f51602061513c5f395f51905f528180a4600190565b505f90565b6001600160a01b0381165f9081525f51602061517c5f395f51905f52602052604090205460ff1661045a576001600160a01b03165f8181525f51602061517c5f395f51905f5260205260408120805460ff191660011790553391907fd8aa0f3194971a2a116679f7c2090f6939c8d4e01a2a8d7e41d55e5351469e63905f51602061513c5f395f51905f529080a460019056fe610120806040526004361015610013575f80fd5b5f3560e01c908162923f9e1461273e5750806301ffc9a71461269d57806306fdde03146125fb57806307bd0265146125d4578063081812fc146125b6578063095ea7b3146124cc5780630981551714612423578063162094c4146122cb57806318160ddd146122ae57806318d8e2a5146121a657806319f477d91461212f5780631d3653e31461201457806323b872dd14611ffd578063248a9ca314611fdf578063293af81a14611ee35780632c5d23a514611d155780632f2ff15d14611ce45780632f745c5914611cbd5780633090134714611c85578063364b610114611c3d57806336568abe14611bf95780633f4ba83a14611b9357806342842e0e14611b6457806342966c68146119cf578063471769ef1461195d5780634f6ccce71461190f5780634fb2e45d146118ee57806355f804b3146117815780635a0ea3d41461164c5780635a7f04d5146115245780635c8f45b1146113ef5780635c975abb146113cd5780636352211e1461139d5780636c0360eb1461138257806370a0823114611357578063715018a61461130f578063785b5e98146112c45780638456cb591461126b5780638da5cb5b146112435780638e25e2e6146109a657806391d14854146111fa57806395d89b41146111305780639913627f146110e3578063a217fddf146110c9578063a22cb46514611041578063acb7ebfa14610f6c578063b88d4fde14610ed8578063badd5c4d14610e52578063bed62f3514610d72578063bf725a3c146109ab578063c0bcc07a146109a6578063c2bf0fa11461095e578063c87b56dd14610927578063ccdbc50e146108d7578063d547741f146108a1578063d9852f8d14610813578063debfda30146107c5578063e01beb9d14610682578063e985e9c51461062b578063f2fde38b146105dd5763f4fb8159146102bb575f80fd5b346105d95760e03660031901126105d9576102d461278d565b335f9081525f516020614b345f395f51905f5260205260409020546084359160a4359160c435906103079060ff16612ebd565b61030f61468d565b6103236001600160a01b038316151561377d565b61033060443515156137c5565b6064351515806105cb575b61034490613810565b61034f841515613858565b61035a4284116138b0565b6103658382116138fb565b600d54926103728461373e565b600d5560405194610382866127b9565b84865260243560208701526044356040870152606435606087015260808601524260a086015260c085015260e084015260018060a01b0381166101008401525f6101208401525f6101408401525f6101608401526020926040516103e685826127d5565b5f8152610180820152825f5260108452610180600960405f20835181556020840151600182015560408401516002820155606084015160038201556080840151600482015560a0840151600582015560c0840151600682015560e084015160078201556104a46008820160018060a01b0360018060a01b03610100880151161660018060a01b0319825416178155610485610120870151151582612f3f565b610496610140870151151582612f05565b610160860151151590612f22565b0191015180519060018060401b0382116105b7576104cc826104c68554612b64565b85612e4c565b8590601f8311600114610554576104ed92915f9183610549575b5050612e84565b90555b815f526011835260405f20600160ff1982541617905561051082826146a8565b60408051604435815260643585820152602435926001600160a01b03169184915f516020614b145f395f51905f529190a4604051908152f35b015190505f806104e6565b90601f19831691845f52875f20925f5b898282106105a1575050908460019594939210610589575b505050811b0190556104f0565b01515f1960f88460031b161c191690555f808061057c565b6001859682939686015181550195019301610564565b634e487b7160e01b5f52604160045260245ffd5b50612710606435111561033b565b5f80fd5b346105d95760203660031901126105d9576105f661278d565b6105fe6144fb565b6001600160a01b038116156106185761061690614522565b005b631e4fbdf760e01b5f525f60045260245ffd5b346105d95760403660031901126105d95761064461278d565b61064c6127a3565b9060018060a01b03165f52600560205260405f209060018060a01b03165f52602052602060ff60405f2054166040519015158152f35b346105d95761069036612998565b335f9081525f516020614b345f395f51905f5260205260409020549192916106ba9060ff16612ebd565b815f5260116020526106d260ff60405f205416612df3565b5f828152601060205260409020600901926001600160401b0382116105b757610705826106ff8654612b64565b86612e4c565b5f93601f83116001146107565761073483805f516020614b545f395f51905f5296975f9161074b575b50612e84565b90555b61074660405192839283612e96565b0390a2005b90508401358861072e565b601f19831694815f5260205f20905f5b8781106107ad5750845f516020614b545f395f51905f52969710610794575b5050600183811b019055610737565b8301355f19600386901b60f8161c191690558580610785565b90916020600181928588013581550193019101610766565b346105d95760203660031901126105d9576107de61278d565b6001600160a01b03165f9081525f516020614b345f395f51905f52602090815260409182902054915160ff9092161515825290f35b346105d95760203660031901126105d957335f9081525f516020614b345f395f51905f5260205260409020546004359061084f9060ff16612ebd565b805f52601160205261086760ff60405f205416612df3565b805f526010602052600860405f2001600160b01b60ff60b01b198254161790555f516020614af45f395f51905f52602060405160018152a2005b346105d95760403660031901126105d9576106166004356108c06127a3565b906108d26108cd826132d5565b6142d4565b61448a565b346105d95760203660031901126105d95760e06108fa6108f561278d565b6139ff565b94604094919493929351968752602087015260408601526060850152608084015260a083015260c0820152f35b346105d95760203660031901126105d95761095a610946600435613951565b604051918291602083526020830190612769565b0390f35b346105d95760203660031901126105d957600435805f52601160205261098a60ff60405f205416612df3565b5f5260106020526020600660405f200154421115604051908152f35b612a38565b346105d9576101003660031901126105d9576109c561278d565b602435608052335f9081525f516020614b345f395f51905f5260205260409020546109f29060ff16612ebd565b6109fa61468d565b610a0e6001600160a01b038216151561377d565b608051151580610d65575b15610d2957610a2b60643515156137c5565b610a386084351515613810565b610a4560a4351515613858565b610a524260c435116138b0565b610a6160c43560e435116138fb565b610a6c6080516132e7565b60e052602060c0525f905b6080518210610a995760405160c05181528061095a60c051820160e051612a05565b600d5491610aa68361373e565b600d55828160e05190610ab891612dcb565b5282604051610ac6816127b9565b81815260c05181016101005260443561010051526040810190606435825260608101916084358352608082019260a435845260a0830142815260c0840160c435815260e085019160e4358352610100860196600160a01b600190038b1688526101208701945f86526101408801965f88526101608901985f8a526040519b8c60c051610b51916127d5565b5f808e5261018083019d8e5290815260c051601090526040902060a081905290518155610100515160018201559051600282015590516003820155905160048201559051600582015590516006820155905160078201559351600890940180546001600160a01b0319166001600160a01b039590951694909417845551610bda90151584612f3f565b511515610be79083612f05565b511515610bf391612f22565b51805193906001600160401b0385116105b757610c2485610c19600960a0510154612b64565b600960a05101612e4c565b60c05190601f8611600114610cb4579480610c4a92600196975f92610ca9575050612e84565b600960a05101555b805f52601160c0515260405f208360ff19825416179055610c7381856146a8565b604051606435815260843560c051820152604435915f516020614b145f395f51905f526040868060a01b03881693a40190610a77565b0151905087806104e6565b90600960a051015f5260c0515f20915f5b601f1988168110610d10575091869160019697938794601f19811610610cf8575b505050811b01600960a0510155610c52565b01515f1960f88460031b161c19169055868080610ce6565b81830151845560c0516001909401939283019201610cc5565b60405162461bcd60e51b8152602060048201526014602482015273496e76616c696420636f756e742028312d38302960601b6044820152606490fd5b5060326080511115610a19565b346105d95760203660031901126105d957335f9081525f516020614b345f395f51905f52602052604090205460043590610dae9060ff16612ebd565b805f526011602052610dc660ff60405f205416612df3565b805f52601060205260ff600860405f20015460a01c1615610e1457805f526010602052600860405f200160ff60b01b1981541690555f516020614af45f395f51905f5260206040515f8152a2005b60405162461bcd60e51b8152602060048201526016602482015275135d5cdd081899481c995919595b595908199a5c9cdd60521b6044820152606490fd5b346105d95760207f9440a95c3c13d1dc9ebcfdcf7b9963a680dd7ca9d62246a91a9be07e6de1f86f610e8336612b35565b9290610e8d6144fb565b8315610ebe57610e9e6108cd61329b565b610ea78161430e565b505b60405193151584526001600160a01b031692a2005b610ec96108cd61329b565b610ed28161440c565b50610ea9565b346105d95760803660031901126105d957610ef161278d565b610ef96127a3565b6064359190604435906001600160401b0384116105d957366023850112156105d957836004013592610f2a84612cde565b93610f3860405195866127d5565b80855236602482880101116105d9576020815f92602461061699018389013786010152610f66838383612f69565b33614557565b346105d95760203660031901126105d9576004355f52601060205260405f20805461095a60018301549260ff600282015491600381015460048201546005830154600684015491600785015493610fca600960088801549701612c40565b976040519b8c9b8c5260208c015260408b015260608a0152608089015260a088015260c087015260e086015260018060a01b038116610100860152818160a01c161515610120860152818160a81c16151561014086015260b01c1615156101608401526101a06101808401526101a0830190612769565b346105d95761104f36612b35565b6001600160a01b039091169081156110b657335f52600560205260405f20825f5260205260405f209015159060ff1981541660ff83161790556040519081527f17307eab39ab6107e8899845ad3d59bd9653f200f220920489ca2b5937696c3160203392a3005b50630b61174360e31b5f5260045260245ffd5b346105d9575f3660031901126105d95760206040515f8152f35b346105d95760203660031901126105d957600435805f52601160205261110f60ff60405f205416612df3565b5f526010602052602060ff600860405f20015460b01c166040519015158152f35b346105d9575f3660031901126105d9576040515f60015461115081612b64565b80845290600181169081156111d65750600114611178575b61095a83610946818503826127d5565b60015f9081527fb10e2d527612073b26eecdfd717e6a320cf44b4afac2b0732d9fcbe2b7fa0cf6939250905b8082106111bc57509091508101602001610946611168565b9192600181602092548385880101520191019092916111a4565b60ff191660208086019190915291151560051b840190910191506109469050611168565b346105d95760403660031901126105d9576112136127a3565b6004355f52600b60205260405f209060018060a01b03165f52602052602060ff60405f2054166040519015158152f35b346105d9575f3660031901126105d957600a546040516001600160a01b039091168152602090f35b346105d9575f3660031901126105d9576112836144fb565b61128b61468d565b600160ff19600c541617600c557f62e78cea01bee320cd4e420270b5ea74000d11b0c9f74754ebdbfc544b05a2586020604051338152a1005b346105d95760203660031901126105d95760406113036112fe6112e561278d565b6112f96001600160a01b03821615156133c8565b613ecf565b613fa7565b82519182526020820152f35b346105d9575f3660031901126105d9576113276144fb565b600a80546001600160a01b031981169091555f906001600160a01b03165f516020614b745f395f51905f528280a3005b346105d95760203660031901126105d957602061137a61137561278d565b61374c565b604051908152f35b346105d9575f3660031901126105d95761095a610946612b9c565b346105d95760203660031901126105d95760206113bb600435613c43565b6040516001600160a01b039091168152f35b346105d9575f3660031901126105d957602060ff600c54166040519015158152f35b346105d95760203660031901126105d95761140b6112e561278d565b6114158151612d7c565b905f5b81518110156114fa578061142e60019284612dcb565b515f52601060205260405f206114d860096040519261144c846127b9565b80548452858101546020850152600281015460408501526003810154606085015260048101546080850152600581015460a0850152600681015460c0850152600781015460e085015260ff6008820154878060a01b038116610100870152818160a01c161515610120870152818160a81c16151561014087015260b01c16151561016085015201612c40565b6101808201526114e88286612dcb565b526114f38185612dcb565b5001611418565b5061095a61151692604051938493604085526040850190612a05565b908382036020850152612913565b346105d95760203660031901126105d957600435805f52601160205261155060ff60405f205416612df3565b5f52601060205260405f20604051611567816127b9565b8154815260018201546020820152600282015460408201526003820154606082015260048201546080820152600582015460a082015260068201549060c08101918252600783015460e0820152610180611603600960088601549560018060a01b03871661010086015260ff610120860197818160a01c1615158952818160a81c16151561014088015260b01c16151561016086015201612c40565b91015251906301e13380820180921161163857602091421015908161162e575b506040519015158152f35b9050511582611623565b634e487b7160e01b5f52601160045260245ffd5b346105d95760403660031901126105d95761166561278d565b602435906001600160a01b03811615611745576116818161374c565b61168a816132e7565b925f925f5b8381106116e05785856116a1816132e7565b915f5b8281106116c1576040516020808252819061095a90820187612a05565b806116ce60019284612dcb565b516116d98287612dcb565b52016116a4565b6116ea818361332c565b805f52601160205260ff60405f2054168061172d575b61170e575b5060010161168f565b8561172691611720600194988a612dcb565b5261373e565b9490611705565b50805f52601060205283600160405f20015414611700565b60405162461bcd60e51b8152602060048201526014602482015273496e76616c69642075736572206164647265737360601b6044820152606490fd5b346105d95760203660031901126105d9576004356001600160401b0381116105d9576117b190369060040161296b565b6117b96144fb565b6001600160401b0381116105b7576117d2600e54612b64565b601f81116118a8575b505f91601f821160011461182c5761180982805f516020614bf45f395f51905f52955f916118215750612e84565b600e555b61181c60405192839283612e96565b0390a1005b90508301358661072e565b600e5f9081525f516020614ad45f395f51905f5290601f198416905b818110611890575093835f516020614bf45f395f51905f529510611877575b5050600182811b01600e5561180d565b8201355f19600385901b60f8161c191690558380611867565b83860135835560209586019560019093019201611848565b600e5f526118de905f516020614ad45f395f51905f52601f840160051c810191602085106118e4575b601f0160051c0190612e36565b826117db565b90915081906118d1565b346105d95760203660031901126105d95761190761278d565b6105f66144fb565b346105d95760203660031901126105d95760043560085481101561194757611938602091613726565b90549060031b1c604051908152f35b63295f44f760e21b5f525f60045260245260445ffd5b346105d95760603660031901126105d9576119a66119b461198c61197f61278d565b6044359060243590613438565b93604096919395965197889760c0895260c0890190612a05565b908782036020890152612913565b93604086015260608501526080840152151560a08301520390f35b346105d95760203660031901126105d957600435805f5260116020526119fb60ff60405f205416612df3565b611a0481613c43565b6001600160a01b031633148015611b4a575b8015611b16575b15611ad857611a2b81613c43565b815f52601160205260405f2060ff198154169055815f526010602052611a89600960405f205f81555f60018201555f60028201555f60038201555f60048201555f60058201555f60068201555f60078201555f60088201550161337a565b815f52600f602052611a9d60405f2061337a565b611aa73383613c77565b506001600160a01b0316907f8f0a80450bfbfadc6d05658c9dc494e43beb79be53b44adbb146c6d5040f87705f80a3005b60405162461bcd60e51b8152602060048201526016602482015275139bdd081bdddb995c881b9bdc88185c1c1c9bdd995960521b6044820152606490fd5b506001600160a01b03611b2882613c43565b165f90815260056020908152604080832033845290915290205460ff16611a1d565b50336001600160a01b03611b5d83612cf9565b1614611a16565b346105d957610616611b75366129cb565b9060405192611b856020856127d5565b5f8452610f66838383612f69565b346105d9575f3660031901126105d957611bab6144fb565b600c5460ff811615611bea5760ff1916600c557f5db9ee0a495bf2e6ff9c91a7834c1ba4fdd244a5e8aa4e537bd38aeae4b073aa6020604051338152a1005b638dfc202b60e01b5f5260045ffd5b346105d95760403660031901126105d957611c126127a3565b336001600160a01b03821603611c2e576106169060043561448a565b63334bd91960e11b5f5260045ffd5b346105d95760203660031901126105d957600435805f526011602052611c6960ff60405f205416612df3565b5f5260106020526020600760405f200154421015604051908152f35b346105d95760203660031901126105d95761095a611ca9611ca461278d565b614167565b604051918291602083526020830190612a05565b346105d95760403660031901126105d957602061137a611cdb61278d565b6024359061332c565b346105d95760403660031901126105d957610616600435611d036127a3565b90611d106108cd826132d5565b614393565b346105d95760203660031901126105d957611d2e61278d565b6001600160a01b03811615611ea357611d4681613ecf565b908151611d52816132e7565b925f91825b8251841015611e5557611e4d600191611d708686612dcb565b515f526010602052611e4760405f20604051611d8b816127b9565b815481528582015460208201526002820154906040810191825260038301546060820152610180611e25600960048601549560808501968752600581015460a0860152600681015460c0860152600781015460e086015260ff60088201548c8060a01b038116610100880152818160a01c161515610120880152818160a81c16151561014088015260b01c16151561016086015201612c40565b910152611e328989612dcb565b51611e3d8a8d612dcb565b5251905190613319565b90612f5c565b930192611d57565b61095a9085611e6e611e678996613fa7565b5091614167565b90611e8b604051968796875260a0602088015260a0870190612a05565b92604086015260608501528382036080850152612a05565b60405162461bcd60e51b8152602060048201526018602482015277496e76616c696420696e766573746f72206164647265737360401b6044820152606490fd5b346105d95760403660031901126105d9576004356001600160401b0381116105d957611f1390369060040161280f565b611f1b6127a3565b90805191611f41611f2b846127f8565b93611f3960405195866127d5565b8085526127f8565b602084019290601f19013684376001600160a01b03909116905f5b8151811015611f9757600190836001600160a01b03611f84611f7e8487612dcb565b51613c43565b1614611f908288612dcb565b5201611f5c565b50505090604051918291602083019060208452518091526040830191905f5b818110611fc4575050500390f35b82511515845285945060209384019390920191600101611fb6565b346105d95760203660031901126105d957602061137a6004356132d5565b346105d95761061661200e366129cb565b91612f69565b346105d95760203660031901126105d957600435805f52601160205261204060ff60405f205416612df3565b5f52601060205260405f20604051612057816127b9565b8154815260018201546020820152600282015460408201526003820154606082015260048201546080820152600582015460a0820152600682015460c08201908152600783015460e083015260088301549160018060a01b0383166101008201526101806120f5600961012084019660ff8760a01c161515885260ff610140860197818160a81c161515895260b01c16151561016086015201612c40565b910152519162ed4e008301809311611638576020924210159182612125575b508161162e57506040519015158152f35b5115915083612114565b346105d95760203660031901126105d957335f9081525f516020614b345f395f51905f5260205260409020546004359061216b9060ff16612ebd565b805f52601160205261218360ff60405f205416612df3565b5f908152601060205260409020600801805460ff60a01b1916600160a01b179055005b346105d95760203660031901126105d957335f9081525f516020614b345f395f51905f526020526040902054600435906121e29060ff16612ebd565b805f5260116020526121fa60ff60405f205416612df3565b805f52601060205260ff600860405f20015460a81c16612270575f818152601060205260409020600801805461ffff60a81b191661010160a81b1790556001600160a01b0361224882613c43565b16907f5dd59f4285b36241394b73f8f7ae03d0290b030a86803cf2562ecf33eeb617bd5f80a3005b60405162461bcd60e51b815260206004820152601660248201527514995dd85c9908185b1c9958591e4818db185a5b595960521b6044820152606490fd5b346105d9575f3660031901126105d9576020600854604051908152f35b346105d9576122d936612998565b600a549192916001600160a01b0316331480156123ff575b156123bb57815f52601160205261230e60ff60405f205416612df3565b5f828152600f60205260409020926001600160401b0382116105b757612338826106ff8654612b64565b5f93601f83116001146123665761073483805f516020614ab45f395f51905f5296975f9161074b5750612e84565b601f19831694815f5260205f20905f5b8781106123a35750845f516020614ab45f395f51905f52969710610794575050600183811b019055610737565b90916020600181928588013581550193019101612376565b606460405162461bcd60e51b815260206004820152602060248201527f43616c6c6572206973206e6f74206f776e6572206e6f72206578656375746f726044820152fd5b50335f9081525f516020614b345f395f51905f52602052604090205460ff166122f1565b346105d95760203660031901126105d9576004356001600160401b0381116105d95761245390369060040161280f565b61245d8151612d7c565b905f5b81518110156124b6578061247660019284612dcb565b515f52601060205260405f2061249460096040519261144c846127b9565b6101808201526124a48286612dcb565b526124af8185612dcb565b5001612460565b6040516020808252819061095a90820186612913565b346105d95760403660031901126105d9576124e561278d565b6024356124f181613c43565b331515806125a3575b80612576575b6125635781906001600160a01b0384811691167f8c5be1e5ebec7d5bd14f71427d1e84f3dd0314c0f7b2291e5b200ac8c7c3b9255f80a45f90815260046020526040902080546001600160a01b0319166001600160a01b03909216919091179055005b63a9fbf51f60e01b5f523360045260245ffd5b506001600160a01b0381165f90815260056020908152604080832033845290915290205460ff1615612500565b506001600160a01b0381163314156124fa565b346105d95760203660031901126105d95760206113bb600435612cf9565b346105d9575f3660031901126105d95760206040515f516020614bd45f395f51905f528152f35b346105d9575f3660031901126105d9576040515f5f5461261a81612b64565b80845290600181169081156111d657506001146126415761095a83610946818503826127d5565b5f8080527f290decd9548b62a8d60345a988386fc84ba6bc95484008f6362f93160ef3e563939250905b80821061268357509091508101602001610946611168565b91926001816020925483858801015201910190929161266b565b346105d95760203660031901126105d95760043563ffffffff60e01b81168091036105d957602090637965db0b60e01b81149081156126e157506040519015158152f35b63780e9d6360e01b8114915081156126fb575b5082611623565b6380ac58cd60e01b81149150811561272d575b811561271c575b50826126f4565b6301ffc9a760e01b14905082612715565b635b5e139f60e01b8114915061270e565b346105d95760203660031901126105d9576020906004355f526011825260ff60405f20541615158152f35b805180835260209291819084018484015e5f828201840152601f01601f1916010190565b600435906001600160a01b03821682036105d957565b602435906001600160a01b03821682036105d957565b6101a081019081106001600160401b038211176105b757604052565b601f909101601f19168101906001600160401b038211908210176105b757604052565b6001600160401b0381116105b75760051b60200190565b9080601f830112156105d9578135612826816127f8565b9261283460405194856127d5565b81845260208085019260051b8201019283116105d957602001905b82821061285c5750505090565b813581526020918201910161284f565b906101a061018061291093805184526020810151602085015260408101516040850152606081015160608501526080810151608085015260a081015160a085015260c081015160c085015260e081015160e085015260018060a01b0361010082015116610100850152610120810151151561012085015261014081015115156101408501526101608101511515610160850152015191816101808201520190612769565b90565b9080602083519182815201916020808360051b8301019401925f915b83831061293e57505050505090565b909192939460208061295c600193601f19868203018752895161286c565b9701930193019193929061292f565b9181601f840112156105d9578235916001600160401b0383116105d957602083818601950101116105d957565b9060406003198301126105d95760043591602435906001600160401b0382116105d9576129c79160040161296b565b9091565b60609060031901126105d9576004356001600160a01b03811681036105d957906024356001600160a01b03811681036105d9579060443590565b90602080835192838152019201905f5b818110612a225750505090565b8251845260209384019390920191600101612a15565b346105d95760203660031901126105d957600435612a54612d1d565b50805f526011602052612a6d60ff60405f205416612df3565b5f52601060205261095a60405f20612b1b600960405192612a8d846127b9565b8054845260018101546020850152600281015460408501526003810154606085015260048101546080850152600581015460a0850152600681015460c0850152600781015460e085015260ff600882015460018060a01b038116610100870152818160a01c161515610120870152818160a81c16151561014087015260b01c16151561016085015201612c40565b61018082015260405191829160208352602083019061286c565b60409060031901126105d9576004356001600160a01b03811681036105d9579060243580151581036105d95790565b90600182811c92168015612b92575b6020831014612b7e57565b634e487b7160e01b5f52602260045260245ffd5b91607f1691612b73565b604051905f82600e5491612baf83612b64565b8083529260018116908115612c215750600114612bd5575b612bd3925003836127d5565b565b50600e5f90815290915f516020614ad45f395f51905f525b818310612c05575050906020612bd392820101612bc7565b6020919350806001915483858901015201910190918492612bed565b60209250612bd394915060ff191682840152151560051b820101612bc7565b9060405191825f825492612c5384612b64565b8084529360018116908115612cbc5750600114612c78575b50612bd3925003836127d5565b90505f9291925260205f20905f915b818310612ca0575050906020612bd3928201015f612c6b565b6020919350806001915483858901015201910190918492612c87565b905060209250612bd394915060ff191682840152151560051b8201015f612c6b565b6001600160401b0381116105b757601f01601f191660200190565b612d0281613c43565b505f908152600460205260409020546001600160a01b031690565b60405190612d2a826127b9565b6060610180835f81525f60208201525f60408201525f838201525f60808201525f60a08201525f60c08201525f60e08201525f6101008201525f6101208201525f6101408201525f6101608201520152565b90612d86826127f8565b612d9360405191826127d5565b8281528092612da4601f19916127f8565b01905f5b828110612db457505050565b602090612dbf612d1d565b82828501015201612da8565b8051821015612ddf5760209160051b010190565b634e487b7160e01b5f52603260045260245ffd5b15612dfa57565b60405162461bcd60e51b8152602060048201526014602482015273151bdad95b88191bd95cc81b9bdd08195e1a5cdd60621b6044820152606490fd5b818110612e41575050565b5f8155600101612e36565b9190601f8111612e5b57505050565b612bd3925f5260205f20906020601f840160051c830193106118e457601f0160051c0190612e36565b8160011b915f199060031b1c19161790565b90918060409360208452816020850152848401375f828201840152601f01601f1916010190565b15612ec457565b60405162461bcd60e51b815260206004820152601960248201527821b0b63632b91034b9903737ba1030b71032bc32b1baba37b960391b6044820152606490fd5b805460ff60a81b191691151560a81b60ff60a81b16919091179055565b805460ff60b01b191691151560b01b60ff60b01b16919091179055565b805460ff60a01b191691151560a01b60ff60a01b16919091179055565b9190820180921161163857565b9091906001600160a01b03831680156132885760ff600c54166132455733151593846131ed575b5f848152600260205260409020546001600160a01b0316948061315d575b508415801561313c575b825f52600360205260405f2060018154019055845f52600260205260405f208360018060a01b03198254161790558483875f516020614b945f395f51905f525f80a4156130bf57600854845f5260096020528060405f2055600160401b8110156105b757846130308260016130489401600855613726565b90919082549060031b91821b915f19901b1916179055565b81850361307f575b50506001600160a01b031680830361306757505050565b6364283d7b60e01b5f5260045260245260445260645ffd5b6130889061374c565b5f19810191908211611638575f52600660205260405f20815f526020528260405f2055825f52600760205260405f20555f80613050565b848214613048576130cf8561374c565b845f52600760205260405f205490865f52600660205260405f2091818103613111575b50855f5260076020525f60408120555f526020525f6040812055613048565b815f528260205260405f2054815f52836020528060405f20555f52600760205260405f20555f6130f2565b61314585614a76565b855f52600360205260405f205f198154019055612fb8565b8061319c575b1561316e575f612fae565b838561318657637e27328960e01b5f5260045260245ffd5b63177e802f60e01b5f523360045260245260445ffd5b5033851480156131cb575b8061316357505f848152600460205260409020546001600160a01b03163314613163565b505f85815260056020908152604080832033845290915290205460ff166131a7565b835f52601060205260ff600860405f20015460b01c1615612f905760405162461bcd60e51b8152602060048201526015602482015274151bdad95b881d1c985b9cd9995c881b1bd8dad959605a1b6044820152606490fd5b60405162461bcd60e51b815260206004820152601b60248201527a151bdad95b881d1c985b9cd9995c881dda1a5b19481c185d5cd959602a1b6044820152606490fd5b633250574960e11b5f525f60045260245ffd5b5f516020614bd45f395f51905f525f52600b6020527f722c076037ad8ffdcc6741eab5f84938edc5ad0e2aada3e8603ecd986134c0fc5490565b5f52600b602052600160405f20015490565b906132f1826127f8565b6132fe60405191826127d5565b828152809261330f601f19916127f8565b0190602036910137565b8181029291811591840414171561163857565b6133358161374c565b82101561335d5760018060a01b03165f52600660205260405f20905f5260205260405f205490565b63295f44f760e21b5f5260018060a01b031660045260245260445ffd5b6133848154612b64565b908161338e575050565b81601f5f931160011461339f575055565b818352602083206133bb91601f0160051c810190600101612e36565b8082528160208120915555565b156133cf57565b60405162461bcd60e51b8152602060048201526016602482015275496e76616c69642077616c6c6574206164647265737360501b6044820152606490fd5b9190820391821161163857565b8115613424570490565b634e487b7160e01b5f52601260045260245ffd5b90929061344f6001600160a01b03821615156133c8565b8215158061371b575b156136d65761346690613ecf565b9182519283851080156136ce575b1561368b578315801593906136845761348d8386612f5c565b5f19810190811161163857836134a29161341a565b915b82945f1461367d576134b6848861341a565b6001810180911161163857925b83948888115f14613677576134d8898961340d565b8181111561366f5750905b876134ee838b612f5c565b10948215613610575050613501816132e7565b9161350b82612d7c565b985f5b8381106135215750505050959493929190565b8061353761353160019385612f5c565b85612dcb565b51806135438389612dcb565b525f5260106020528b6135fe8260405f20926135f3600960405195613567876127b9565b80548752888101546020880152600281015460408801526003810154606088015260048101546080880152600581015460a0880152600681015460c0880152600781015460e088015260ff60088201548a8060a01b0381166101008a0152818160a01c1615156101208a0152818160a81c1615156101408a015260b01c16151561016088015201612c40565b610180850152612dcb565b52613609818d612dcb565b500161350e565b955095505050945060209460405161362887826127d5565b5f81525f3681376040519661363d81896127d5565b5f8852601f1981015f5b81811061365957505050959493929190565b8290613663612d1d565b82828d01015201613647565b9050906134e3565b5f6134d8565b5f926134c3565b5f916134a4565b60405162461bcd60e51b815260206004820152601b60248201527a4f6666736574206578636565647320746f74616c20746f6b656e7360281b6044820152606490fd5b508315613474565b60405162461bcd60e51b815260206004820152601f60248201527f4c696d6974206d757374206265206265747765656e203120616e6420313030006044820152606490fd5b506064831115613458565b600854811015612ddf5760085f5260205f2001905f90565b5f1981146116385760010190565b6001600160a01b0316801561376a575f52600360205260405f205490565b6322718ad960e21b5f525f60045260245ffd5b1561378457565b60405162461bcd60e51b8152602060048201526019602482015278496e76616c696420726563697069656e74206164647265737360381b6044820152606490fd5b156137cc57565b60405162461bcd60e51b815260206004820152601c60248201527b05072696365206d7573742062652067726561746572207468616e20360241b6044820152606490fd5b1561381757565b60405162461bcd60e51b8152602060048201526019602482015278496e76616c6964207265776172642070657263656e7461676560381b6044820152606490fd5b1561385f57565b60405162461bcd60e51b815260206004820152602360248201527f546f74616c20746f6b656e73206d75737420626520677265617465722074686160448201526206e20360ec1b6064820152608490fd5b156138b757565b60405162461bcd60e51b815260206004820152601c60248201527b436c6f73652064617465206d75737420626520696e2066757475726560201b6044820152606490fd5b1561390257565b60405162461bcd60e51b815260206004820152602160248201527f456e642064617465206d75737420626520616674657220636c6f7365206461746044820152606560f81b6064820152608490fd5b805f52601160205261396960ff60405f205416612df3565b805f52600f60205261397d60405f20612c40565b613985612b9c565b9080516139f9575080516139a95750506040516139a36020826127d5565b5f815290565b6005612910916020806139bc81966149b8565b6040519684889551918291018487015e8401908282015f8152815193849201905e010164173539b7b760d91b815203601a198101845201826127d5565b91505090565b5f919082908190819081908190613a24906112f96001600160a01b03821615156133c8565b8051968715613c2a575f9692965b8251811015613c1e57613a458184612dcb565b515f52601060205260405f2093604051613a5e816127b9565b8554815260018601546020820152600286015490604081019182526003870154916060820192835260048801549060808301918252600589015460a084015260068901549160c0840192835260078a015460e085015260088a015493600160a01b60019003851661010082015261012081019a8560a01c60ff1615158c526101408201958060a81c60ff161515875260b01c60ff161515610160830152600901613b0790612c40565b906101800152519051613b1991613319565b93849351613b279085613319565b61271090049a8b94613b3891612f5c565b9a613b4291612f5c565b8851909c9015613c0d57613b559061373e565b975b8251613bfd575b5115613b74575b50505050600101969296613a32565b613b7f90514261340d565b62ed4e008110613b6557939992936301e1338011613bd1575160019392919015613bbe57613bb392611e4791851c90612f5c565b965b905f8080613b65565b611e4790613bcb93612f5c565b96613bb5565b90919892505115613be6575b50600190613bb5565b60019197613bf691831c90612f5c565b9690613bdd565b98613c079061373e565b98613b5e565b979d613c189061373e565b9d613b57565b50969796929491929050565b9750505050505050505f905f905f905f905f905f905f90565b5f818152600260205260409020546001600160a01b0316908115613c65575090565b637e27328960e01b5f5260045260245ffd5b60ff600c5416613245575f818152600260205260409020546001600160a01b03908116921680151580613e42575b5050811580159081613e21575b5f83815260026020526040812080546001600160a01b03191690558390855f516020614b945f395f51905f528280a415613da65750600854815f5260096020528060405f2055600160401b8110156105b75781613030826001613d189401600855613726565b6008545f19810190811161163857815f526009602052613d3c60405f205491613726565b90549060031b1c613d508161303084613726565b5f52600960205260405f20555f5260096020525f60408120556008548015613d92575f1901613d7e81613726565b8154905f199060031b1b1916905560085590565b634e487b7160e01b5f52603160045260245ffd5b15613d1857613db48261374c565b815f52600760205260405f205490835f52600660205260405f2091818103613df6575b50825f5260076020525f60408120555f526020525f6040812055613d18565b815f528260205260405f2054815f52836020528060405f20555f52600760205260405f20555f613dd7565b613e2a83614a76565b835f52600360205260405f205f198154019055613cb2565b80613e80575b15613e535780613ca5565b82613e6b5750637e27328960e01b5f5260045260245ffd5b63177e802f60e01b5f5260045260245260445ffd5b508083148015613eaf575b80613e4857505f828152600460205260409020546001600160a01b03168114613e48565b50825f52600560205260405f20815f5260205260ff60405f205416613e8b565b600d545f805b828110613f535750613ee6906132e7565b915f905f5b838110613ef9575050505090565b805f52601160205260ff60405f20541680613f36575b613f1c575b600101613eeb565b91613f2e818461172060019489612dcb565b929050613f14565b50613f4081613c43565b6001600160a01b03838116911614613f0f565b805f52601160205260ff60405f20541680613f8a575b613f76575b600101613ed5565b90613f8260019161373e565b919050613f6e565b50613f9481613c43565b6001600160a01b03858116911614613f69565b905f5f9280511561412a575f915b815183101561412357613fc88383612dcb565b515f526011602052613fe060ff60405f205416612df3565b613fea8383612dcb565b515f52601060205260405f2060405190614003826127b9565b8054825260018101546020830152600281015490604083019182526003810154926060810193845260048201546080820152600582015460a0820152600682015460c0820152600782015460e082015260088201549060018060a01b0382166101008201526101806140a5600961012084019560ff8660a01c161515875260ff610140860196818160a81c161515885260b01c16151561016086015201612c40565b91015251905190151590156140db57509160646140cb6140d29360019551905190613319565b0490612f5c565b925b0191613fb5565b15614105579160646140f66140ff9360019551905190613319565b04831c90612f5c565b926140d4565b9560646140cb61411d93600195979951905190613319565b946140d4565b9150509190565b60405162461bcd60e51b8152602060048201526015602482015274139bc81d1bdad95b8812511cc81c1c9bdd9a591959605a1b6044820152606490fd5b61417f906112f96001600160a01b03821615156133c8565b908151156142ba5761419182516132e7565b5f5b83518110156141c957806141a960019286612dcb565b515f5260106020528160405f2001546141c28285612dcb565b5201614193565b509091505f5f5b82518110156142335760015f5b828110614207575b506141f3575b6001016141d0565b906141ff60019161373e565b9190506141eb565b6142118386612dcb565b5161421c8287612dcb565b511461422a576001016141dd565b50505f5f6141e5565b5061423d906132e7565b5f5f5b83518110156142b35760015f5b828110614287575b50614263575b600101614240565b9061427f6001916142748487612dcb565b516117208287612dcb565b91905061425b565b6142918387612dcb565b5161429c8288612dcb565b51146142aa5760010161424d565b50505f5f614255565b5050905090565b90506040516142ca6020826127d5565b5f81525f36813790565b5f818152600b6020908152604080832033845290915290205460ff16156142f85750565b63e2517d3f60e01b5f523360045260245260445ffd5b6001600160a01b0381165f9081525f516020614b345f395f51905f52602052604090205460ff1661438e576001600160a01b03165f8181525f516020614b345f395f51905f5260205260408120805460ff191660011790553391905f516020614bd45f395f51905f52905f516020614a945f395f51905f529080a4600190565b505f90565b5f818152600b602090815260408083206001600160a01b038616845290915290205460ff16614406575f818152600b602090815260408083206001600160a01b0395909516808452949091528120805460ff19166001179055339291905f516020614a945f395f51905f529080a4600190565b50505f90565b6001600160a01b0381165f9081525f516020614b345f395f51905f52602052604090205460ff161561438e576001600160a01b03165f8181525f516020614b345f395f51905f5260205260408120805460ff191690553391905f516020614bd45f395f51905f52905f516020614bb45f395f51905f529080a4600190565b5f818152600b602090815260408083206001600160a01b038616845290915290205460ff1615614406575f818152600b602090815260408083206001600160a01b0395909516808452949091528120805460ff19169055339291905f516020614bb45f395f51905f529080a4600190565b600a546001600160a01b0316330361450f57565b63118cdaa760e01b5f523360045260245ffd5b600a80546001600160a01b039283166001600160a01b0319821681179092559091165f516020614b745f395f51905f525f80a3565b823b614565575b5050505050565b604051630a85bd0160e11b81526001600160a01b0391821660048201529181166024830152604482019390935260806064820152911691602090829081906145b1906084830190612769565b03815f865af15f9181614648575b5061461457503d1561460d573d6145d581612cde565b906145e360405192836127d5565b81523d5f602083013e5b805190816146085782633250574960e11b5f5260045260245ffd5b602001fd5b60606145ed565b6001600160e01b03191663757a42ff60e11b0161463657505f8080808061455e565b633250574960e11b5f5260045260245ffd5b9091506020813d602011614685575b81614664602093836127d5565b810103126105d957516001600160e01b0319811681036105d957905f6145bf565b3d9150614657565b60ff600c541661469957565b63d93c066560e01b5f5260045ffd5b90602090604051906146ba83836127d5565b5f82526001600160a01b0384169384156132885760ff600c5416614975575f8281526002855260409020546001600160a01b031680158015919082614955575b5f8881526003885260408082208054600101905586825260028952812080546001600160a01b0319168a1790558590899084905f516020614b945f395f51905f529080a4156148df57600854845f52600987528060405f2055600160401b8110156105b757846130308260016147739401600855613726565b8681036148a4575b50614891573b61478c575b50505050565b916147c991819495936040519384928392630a85bd0160e11b84523360048501525f60248501526044840152608060648401526084830190612769565b03815f885af15f9181614851575b5061482c5750503d15614824573d906147ef82612cde565b916147fd60405193846127d5565b82523d5f8284013e5b815191826148215783633250574960e11b5f5260045260245ffd5b01fd5b606090614806565b909291506001600160e01b03191663757a42ff60e11b0161463657505f808080614786565b9091508381813d831161488a575b61486981836127d5565b810103126105d957516001600160e01b0319811681036105d957905f6147d7565b503d61485f565b6339e3563760e11b5f525f60045260245ffd5b6148ad8361374c565b5f19810190811161163857875f526006875260405f20815f5287528460405f2055845f526007875260405f205561477b565b808714614773576148ef8161374c565b845f526007875260405f205490825f526006885260405f209181810361492d575b50855f52600788525f60408120555f5286525f6040812055614773565b815f5282895260405f2054815f52838a528060405f20555f526007895260405f20555f614910565b61495e85614a76565b815f526003875260405f205f1981540190556146fa565b60405162461bcd60e51b815260048101859052601b60248201527a151bdad95b881d1c985b9cd9995c881dda1a5b19481c185d5cd959602a1b6044820152606490fd5b8015614a56575f81805b614a4257506149d081612cde565b906149de60405192836127d5565b808252601f196149ed82612cde565b013660208401375b809280156142b3575f198201918211611638578193600a820660300192836030116116385784511115612ddf57600a9260f81b6001600160f81b0319165f1a908401601f015304916149f5565b90614a4e600a9161373e565b9104806149c2565b50604051614a656040826127d5565b60018152600360fc1b602082015290565b5f90815260046020526040902080546001600160a01b031916905556fe2f8788117e7eff1d82e926ec794901d17c78024a50270940304540a733656f0d931f495b9a8e5d8e61946ea5d61e021f636cfe213a801f97589c18c152e408bdbb7b4a454dc3493923482f07822329ed19e8244eff582cc204f8554c3620c3fd90e929fbd463dd0bab90901d998cd0d0908551c0e028b559f240ef01b23058be19cc59039f8eb7ba436b5b291277e03e5209d6d8e48c1bdba4716897fc614b99722c076037ad8ffdcc6741eab5f84938edc5ad0e2aada3e8603ecd986134c0fb0aa07a7d01a8e97dec64df7f721c779f94884dfd3f5a0c61bfc2dd469032661d8be0079c531659141344cd1fd0a4f28419497f9722a3daafe3b4186f6b6457e0ddf252ad1be2c89b69c2b068fc378daa952ba7f163c4a11628f55a4df523b3eff6391f5c32d9c69d2a47ea670b442974b53935d1edc7fd64eb21e047a839171bd8aa0f3194971a2a116679f7c2090f6939c8d4e01a2a8d7e41d55e5351469e636741b2fc379fad678116fe3d4d4b9a1a184ab53ba36b86ad0fa66340b1ab41ada264697066735822122079bf76fcb170376e97aee53915937bbb20a92cfe10c740b659988832e67f438464736f6c634300081c00332f8788117e7eff1d82e926ec794901d17c78024a50270940304540a733656f0ddf7de25b7f1fd6d0b5205f0e18f1f35bd7b8d84cce336588d184533ce43a6f76722c076037ad8ffdcc6741eab5f84938edc5ad0e2aada3e8603ecd986134c0fb",
  "linkReferences": {},
  "deployedLinkReferences": {},
  "immutableReferences": {},
  "inputSourceName": "project/contracts/DZNFT.sol",
  "buildInfoId": "solc-0_8_28-5720845809855c6fe58f2df32dc3cb885afe3912"
}