{
  "_format": "hh3-artifact-1",
  "contractName": "FundRaisingAdmin",
  "sourceName": "contracts/FundRaisingAdmin.sol",
  "abi": [
    {
      "inputs": [
        {
          "internalType": "address",
          "name": "_coreContract",
          "type": "address"
        }
      ],
      "stateMutability": "nonpayable",
      "type": "constructor"
    },
    {
      "inputs": [
        {
          "internalType": "address",
          "name": "owner",
          "type": "address"
        }
      ],
      "name": "OwnableInvalidOwner",
      "type": "error"
    },
    {
      "inputs": [
        {
          "internalType": "address",
          "name": "account",
          "type": "address"
        }
      ],
      "name": "OwnableUnauthorizedAccount",
      "type": "error"
    },
    {
      "anonymous": false,
      "inputs": [
        {
          "indexed": true,
          "internalType": "uint256",
          "name": "roundId",
          "type": "uint256"
        },
        {
          "indexed": false,
          "internalType": "uint256",
          "name": "amount",
          "type": "uint256"
        },
        {
          "indexed": false,
          "internalType": "address",
          "name": "recipient",
          "type": "address"
        }
      ],
      "name": "EmergencyRoundWithdrawal",
      "type": "event"
    },
    {
      "anonymous": false,
      "inputs": [
        {
          "indexed": false,
          "internalType": "uint256",
          "name": "amount",
          "type": "uint256"
        },
        {
          "indexed": false,
          "internalType": "address",
          "name": "recipient",
          "type": "address"
        }
      ],
      "name": "EmergencyWithdrawal",
      "type": "event"
    },
    {
      "anonymous": false,
      "inputs": [
        {
          "indexed": true,
          "internalType": "address",
          "name": "previousOwner",
          "type": "address"
        },
        {
          "indexed": true,
          "internalType": "address",
          "name": "newOwner",
          "type": "address"
        }
      ],
      "name": "OwnershipTransferred",
      "type": "event"
    },
    {
      "anonymous": false,
      "inputs": [
        {
          "indexed": true,
          "internalType": "uint256",
          "name": "roundId",
          "type": "uint256"
        },
        {
          "indexed": false,
          "internalType": "enum IFundRaisingStorage.Status",
          "name": "status",
          "type": "uint8"
        }
      ],
      "name": "StatusUpdated",
      "type": "event"
    },
    {
      "inputs": [
        {
          "internalType": "uint256[]",
          "name": "roundIds",
          "type": "uint256[]"
        },
        {
          "internalType": "bool[]",
          "name": "activeStates",
          "type": "bool[]"
        }
      ],
      "name": "batchSetRoundActive",
      "outputs": [],
      "stateMutability": "nonpayable",
      "type": "function"
    },
    {
      "inputs": [
        {
          "internalType": "uint256[]",
          "name": "roundIds",
          "type": "uint256[]"
        },
        {
          "internalType": "enum IFundRaisingStorage.Status[]",
          "name": "statuses",
          "type": "uint8[]"
        }
      ],
      "name": "batchUpdateStatus",
      "outputs": [],
      "stateMutability": "nonpayable",
      "type": "function"
    },
    {
      "inputs": [],
      "name": "coreContract",
      "outputs": [
        {
          "internalType": "contract FundRaisingCore",
          "name": "",
          "type": "address"
        }
      ],
      "stateMutability": "view",
      "type": "function"
    },
    {
      "inputs": [
        {
          "internalType": "uint256",
          "name": "amount",
          "type": "uint256"
        }
      ],
      "name": "emergencyWithdraw",
      "outputs": [],
      "stateMutability": "nonpayable",
      "type": "function"
    },
    {
      "inputs": [
        {
          "internalType": "uint256",
          "name": "roundId",
          "type": "uint256"
        }
      ],
      "name": "emergencyWithdrawAllFromRound",
      "outputs": [],
      "stateMutability": "nonpayable",
      "type": "function"
    },
    {
      "inputs": [
        {
          "internalType": "uint256",
          "name": "roundId",
          "type": "uint256"
        },
        {
          "internalType": "uint256",
          "name": "amount",
          "type": "uint256"
        }
      ],
      "name": "emergencyWithdrawFromRound",
      "outputs": [],
      "stateMutability": "nonpayable",
      "type": "function"
    },
    {
      "inputs": [],
      "name": "getAdminStats",
      "outputs": [
        {
          "internalType": "uint256",
          "name": "totalRounds",
          "type": "uint256"
        },
        {
          "internalType": "uint256",
          "name": "totalUSDTRaised",
          "type": "uint256"
        },
        {
          "internalType": "uint256",
          "name": "contractBalance",
          "type": "uint256"
        },
        {
          "internalType": "address",
          "name": "usdtTokenAddress",
          "type": "address"
        }
      ],
      "stateMutability": "view",
      "type": "function"
    },
    {
      "inputs": [
        {
          "internalType": "uint256",
          "name": "roundId",
          "type": "uint256"
        }
      ],
      "name": "getRoundFinancialSummary",
      "outputs": [
        {
          "internalType": "uint256",
          "name": "totalInvestment",
          "type": "uint256"
        },
        {
          "internalType": "uint256",
          "name": "rewardPool",
          "type": "uint256"
        },
        {
          "internalType": "uint256",
          "name": "remainingBalance",
          "type": "uint256"
        },
        {
          "internalType": "uint256",
          "name": "totalNFTs",
          "type": "uint256"
        }
      ],
      "stateMutability": "view",
      "type": "function"
    },
    {
      "inputs": [],
      "name": "owner",
      "outputs": [
        {
          "internalType": "address",
          "name": "",
          "type": "address"
        }
      ],
      "stateMutability": "view",
      "type": "function"
    },
    {
      "inputs": [],
      "name": "renounceOwnership",
      "outputs": [],
      "stateMutability": "nonpayable",
      "type": "function"
    },
    {
      "inputs": [
        {
          "internalType": "address",
          "name": "newOwner",
          "type": "address"
        }
      ],
      "name": "transferOwnership",
      "outputs": [],
      "stateMutability": "nonpayable",
      "type": "function"
    },
    {
      "inputs": [
        {
          "internalType": "uint256",
          "name": "roundId",
          "type": "uint256"
        },
        {
          "internalType": "enum IFundRaisingStorage.Status",
          "name": "status",
          "type": "uint8"
        }
      ],
      "name": "updateStatus",
      "outputs": [],
      "stateMutability": "nonpayable",
      "type": "function"
    }
  ],
  "bytecode": "0x60a03461013e57601f6113eb38819003918201601f19168301916001600160401b038311848410176101425780849260209460405283398101031261013e57516001600160a01b0381169081900361013e57331561012b575f8054336001600160a01b03198216811783556040519290916001600160a01b0316907f8be0079c531659141344cd1fd0a4f28419497f9722a3daafe3b4186f6b6457e09080a381156100e957506080526040516112949081610157823960805181818160d0015281816104310152818161048b01528181610609015281816108ab015281816109a20152610b830152f35b62461bcd60e51b815260206004820152601d60248201527f496e76616c696420636f726520636f6e747261637420616464726573730000006044820152606490fd5b631e4fbdf760e01b5f525f60045260245ffd5b5f80fd5b634e487b7160e01b5f52604160045260245ffdfe60806040526004361015610011575f80fd5b5f5f3560e01c80633a1b3d3114610e725780633b510eee14610ddf5780634646876314610b425780635312ea8e1461096b578063639e8bb71461086c578063715018a6146108255780638da5cb5b146107fe578063c116d936146105e9578063e5346bf214610460578063e80db5db1461041b578063f2fde38b146103a45763f5fe8a581461009e575f80fd5b346103a15760203660031901126103a1576004356100ba6111d8565b60405163632d45eb60e01b8152600481018290527f00000000000000000000000000000000000000000000000000000000000000006001600160a01b0316602082602481845afa918215610396578492610362575b50811561030e57604051632a62b51b60e21b8152849190602081600481855afa9081156102975760249160209185916102e1575b506040516370a0823160e01b81526004810185905292839182906001600160a01b03165afa801561029757849184916102a2575b50906101849110156110fd565b8154604051630384bb8b60e31b815290602090829081906101b39088906001600160a01b031660048401611161565b038186865af18015610297576101d0918491610268575b5061117c565b803b1561026457818091606460405180948193632ecd417d60e21b83528960048401528860248401528160448401525af1801561025957610240575b505082546040515f5160206111ff5f395f51905f52929091829161023a916001600160a01b031690836111bf565b0390a280f35b8161024a916110a7565b61025557825f61020c565b8280fd5b6040513d84823e3d90fd5b5080fd5b61028a915060203d602011610290575b61028281836110a7565b810190611149565b5f6101ca565b503d610278565b6040513d85823e3d90fd5b935050506020823d6020116102d9575b816102bf602093836110a7565b810103126102d557610184838693519091610177565b5f80fd5b3d91506102b2565b6103019150823d8411610307575b6102f981836110a7565b8101906110de565b5f610143565b503d6102ef565b60405162461bcd60e51b815260206004820152602660248201527f4e6f2062616c616e636520746f2077697468647261772066726f6d2074686973604482015265081c9bdd5b9960d21b6064820152608490fd5b9091506020813d60201161038e575b8161037e602093836110a7565b810103126102d55751905f61010f565b3d9150610371565b6040513d86823e3d90fd5b80fd5b50346103a15760203660031901126103a1576004356001600160a01b03811690819003610264576103d36111d8565b80156104075781546001600160a01b03198116821783556001600160a01b03165f51602061121f5f395f51905f528380a380f35b631e4fbdf760e01b82526004829052602482fd5b50346103a157806003193601126103a1576040517f00000000000000000000000000000000000000000000000000000000000000006001600160a01b03168152602090f35b50346103a15760203660031901126103a15760405163632d45eb60e01b8152600480359082018190527f00000000000000000000000000000000000000000000000000000000000000006001600160a01b0316929091602081602481875afa9081156102595782916105b7575b5060405163b175b32f60e01b81526004810184905292602084602481885afa938415610297578394610582575b506020906024604051809781936301aa140d60e51b835260048301525afa9182156105765791610541575b6080935060405192818452602084015260408301526060820152f35b90506020833d60201161056e575b8161055c602093836110a7565b810103126102d5576080925190610525565b3d915061054f565b604051903d90823e3d90fd5b9093506020813d6020116105af575b8161059e602093836110a7565b810103126102d557519260206104fa565b3d9150610591565b90506020813d6020116105e1575b816105d2602093836110a7565b810103126102d557515f6104cd565b3d91506105c5565b50346103a157806003193601126103a1576040516330814b1b60e01b81527f00000000000000000000000000000000000000000000000000000000000000006001600160a01b0316602082600481845afa9182156102975783926107ca575b506040516308c89b6d60e01b8152602081600481855afa908115610396578491610798575b50604051632a62b51b60e21b815290602082600481865afa91821561073957602492602091879161077b575b506040516370a0823160e01b81526004810186905293849182906001600160a01b03165afa918215610739578592610744575b50602060049360405194858092632a62b51b60e21b82525afa9283156107395760809593610718575b506040805194855260208501919091528301526001600160a01b03166060820152f35b61073291935060203d602011610307576102f981836110a7565b915f6106f5565b6040513d87823e3d90fd5b9291506020833d602011610773575b81610760602093836110a7565b810103126102d5579151909160206106cc565b3d9150610753565b6107929150823d8411610307576102f981836110a7565b5f610699565b90506020813d6020116107c2575b816107b3602093836110a7565b810103126102d557515f61066d565b3d91506107a6565b9091506020813d6020116107f6575b816107e6602093836110a7565b810103126102d55751905f610648565b3d91506107d9565b50346103a157806003193601126103a157546040516001600160a01b039091168152602090f35b50346103a157806003193601126103a15761083e6111d8565b80546001600160a01b03198116825581906001600160a01b03165f51602061121f5f395f51905f528280a380f35b50346103a1578061087c36610eeb565b93916108866111d8565b610891858214610f62565b61089c811515610fa6565b6108a96032821115610fe1565b7f00000000000000000000000000000000000000000000000000000000000000006001600160a01b031693835b8281106108e1578480f35b6108ec818484611037565b356108f8828987611037565b3580151580910361096757873b156109675760405191633cd960bd60e11b8352600483015260248201528581604481838b5af190811561095c578691610943575b50506001016108d6565b8161094d916110a7565b61095857845f610939565b8480fd5b6040513d88823e3d90fd5b8680fd5b50346103a15760203660031901126103a1576004356109886111d8565b61099381151561105b565b604051632a62b51b60e21b81527f00000000000000000000000000000000000000000000000000000000000000006001600160a01b03169190602081600481865afa908115610396576024916020918691610b25575b506040516370a0823160e01b81526004810186905292839182906001600160a01b03165afa80156103965782918591610af0575b5010610ab4578254604051630384bb8b60e31b815292602091849190829087908290610a579088906001600160a01b031660048401611161565b03925af1918215610297577f418aae9de8f7ab4df1c137475770ff373eb33fd62a060544e9f4fc90f3cdb1a492610a94918591610268575061117c565b60018060a01b0383541690610aae604051928392836111bf565b0390a180f35b60405162461bcd60e51b8152602060048201526014602482015273496e73756666696369656e742062616c616e636560601b6044820152606490fd5b9150506020813d602011610b1d575b81610b0c602093836110a7565b810103126102d5578190515f610a1d565b3d9150610aff565b610b3c9150823d8411610307576102f981836110a7565b5f6109e9565b50346102d55760403660031901126102d557600435602435610b626111d8565b610b6d81151561105b565b60405163632d45eb60e01b8152600481018390527f00000000000000000000000000000000000000000000000000000000000000006001600160a01b031690602081602481855afa8015610d0a5783915f91610daa575b5010610d6857604051632a62b51b60e21b8152602081600481855afa908115610d0a576024916020915f91610d4b575b506040516370a0823160e01b81526004810185905292839182906001600160a01b03165afa8015610d0a5783905f90610d15575b610c34925010156110fd565b5f54604051630384bb8b60e31b81529060209082908190610c639087906001600160a01b031660048401611161565b03815f865af18015610d0a57610c7f915f91610268575061117c565b803b156102d5575f8091606460405180948193632ecd417d60e21b83528860048401528760248401528160448401525af18015610d0a57610ce8575b5082546040515f5160206111ff5f395f51905f52929091829161023a916001600160a01b031690836111bf565b610cf59193505f906110a7565b5f915f5160206111ff5f395f51905f52610cbb565b6040513d5f823e3d90fd5b50506020813d602011610d43575b81610d30602093836110a7565b810103126102d55782610c349151610c28565b3d9150610d23565b610d629150823d8411610307576102f981836110a7565b5f610bf4565b60405162461bcd60e51b815260206004820152601a602482015279496e73756666696369656e7420726f756e642062616c616e636560301b6044820152606490fd5b9150506020813d602011610dd7575b81610dc6602093836110a7565b810103126102d5578290515f610bc4565b3d9150610db9565b346102d557610ded36610eeb565b919092610df86111d8565b610e03838314610f62565b610e0e821515610fa6565b610e1b6032831115610fe1565b5f5b828110610e2657005b610e31818484611037565b3590610e3e818688611037565b359160058310156102d5575f51602061123f5f395f51905f52610e6960019460405191829182610f3b565b0390a201610e1d565b346102d55760403660031901126102d55760243560058110156102d557610e976111d8565b5f51602061123f5f395f51905f5260405180610eb66004359482610f3b565b0390a2005b9181601f840112156102d5578235916001600160401b0383116102d5576020808501948460051b0101116102d557565b60406003198201126102d5576004356001600160401b0381116102d55781610f1591600401610ebb565b90929091602435906001600160401b0382116102d557610f3791600401610ebb565b9091565b919060208301926005821015610f4e5752565b634e487b7160e01b5f52602160045260245ffd5b15610f6957565b60405162461bcd60e51b8152602060048201526015602482015274082e4e4c2f240d8cadccee8d040dad2e6dac2e8c6d605b1b6044820152606490fd5b15610fad57565b60405162461bcd60e51b815260206004820152600c60248201526b456d7074792061727261797360a01b6044820152606490fd5b15610fe857565b60405162461bcd60e51b815260206004820152602160248201527f546f6f206d616e7920726f756e647320746f20757064617465206174206f6e636044820152606560f81b6064820152608490fd5b91908110156110475760051b0190565b634e487b7160e01b5f52603260045260245ffd5b1561106257565b60405162461bcd60e51b815260206004820152601d60248201527f416d6f756e74206d7573742062652067726561746572207468616e20300000006044820152606490fd5b601f909101601f19168101906001600160401b038211908210176110ca57604052565b634e487b7160e01b5f52604160045260245ffd5b908160209103126102d557516001600160a01b03811681036102d55790565b1561110457565b60405162461bcd60e51b815260206004820152601d60248201527f496e73756666696369656e7420636f6e74726163742062616c616e63650000006044820152606490fd5b908160209103126102d5575180151581036102d55790565b6001600160a01b039091168152602081019190915260400190565b1561118357565b60405162461bcd60e51b81526020600482015260146024820152731554d115081d1c985b9cd9995c8819985a5b195960621b6044820152606490fd5b9081526001600160a01b03909116602082015260400190565b5f546001600160a01b031633036111eb57565b63118cdaa760e01b5f523360045260245ffdfe04f1d8f866097f810d061db2341a96804fc3ca3f7d5b3150080815cdd8853e488be0079c531659141344cd1fd0a4f28419497f9722a3daafe3b4186f6b6457e02da7b23ca63c1eb969eee5fae4acb98186abecf5358b0354a82a5183ebca6b2aa264697066735822122051dd4edf051dc72062067ac91b40e1605b7a2ef8a0d4406e15872e65bf42ac0064736f6c634300081c0033",
  "linkReferences": {},
  "deployedLinkReferences": {},
  "immutableReferences": {
    "9297": [
      {
        "length": 32,
        "start": 208
      },
      {
        "length": 32,
        "start": 1073
      },
      {
        "length": 32,
        "start": 1163
      },
      {
        "length": 32,
        "start": 1545
      },
      {
        "length": 32,
        "start": 2219
      },
      {
        "length": 32,
        "start": 2466
      },
      {
        "length": 32,
        "start": 2947
      }
    ]
  },
  "inputSourceName": "project/contracts/FundRaisingAdmin.sol",
  "buildInfoId": "solc-0_8_28-2e051cdea0b6bee909135784314e31aa4dd4118c"
}