{
  "_format": "hh3-artifact-1",
  "contractName": "FundRaisingCore",
  "sourceName": "contracts/FundRaisingCore.sol",
  "abi": [
    {
      "inputs": [
        {
          "internalType": "address",
          "name": "_dzNFT",
          "type": "address"
        },
        {
          "internalType": "address",
          "name": "_usdtToken",
          "type": "address"
        }
      ],
      "stateMutability": "nonpayable",
      "type": "constructor"
    },
    {
      "inputs": [],
      "name": "EnforcedPause",
      "type": "error"
    },
    {
      "inputs": [],
      "name": "ExpectedPause",
      "type": "error"
    },
    {
      "inputs": [
        {
          "internalType": "address",
          "name": "owner",
          "type": "address"
        }
      ],
      "name": "OwnableInvalidOwner",
      "type": "error"
    },
    {
      "inputs": [
        {
          "internalType": "address",
          "name": "account",
          "type": "address"
        }
      ],
      "name": "OwnableUnauthorizedAccount",
      "type": "error"
    },
    {
      "inputs": [],
      "name": "ReentrancyGuardReentrantCall",
      "type": "error"
    },
    {
      "anonymous": false,
      "inputs": [
        {
          "indexed": true,
          "internalType": "address",
          "name": "oldContract",
          "type": "address"
        },
        {
          "indexed": true,
          "internalType": "address",
          "name": "newContract",
          "type": "address"
        }
      ],
      "name": "AuthorizedClaimsContractUpdated",
      "type": "event"
    },
    {
      "anonymous": false,
      "inputs": [
        {
          "indexed": true,
          "internalType": "address",
          "name": "investor",
          "type": "address"
        },
        {
          "indexed": true,
          "internalType": "uint256",
          "name": "roundId",
          "type": "uint256"
        },
        {
          "indexed": false,
          "internalType": "uint256",
          "name": "tokenCount",
          "type": "uint256"
        },
        {
          "indexed": false,
          "internalType": "uint256",
          "name": "usdtAmount",
          "type": "uint256"
        }
      ],
      "name": "Investment",
      "type": "event"
    },
    {
      "anonymous": false,
      "inputs": [
        {
          "indexed": true,
          "internalType": "uint256",
          "name": "roundId",
          "type": "uint256"
        },
        {
          "indexed": false,
          "internalType": "string",
          "name": "roundName",
          "type": "string"
        },
        {
          "indexed": false,
          "internalType": "uint256",
          "name": "tokenPrice",
          "type": "uint256"
        }
      ],
      "name": "InvestmentRoundCreated",
      "type": "event"
    },
    {
      "anonymous": false,
      "inputs": [
        {
          "indexed": true,
          "internalType": "address",
          "name": "previousOwner",
          "type": "address"
        },
        {
          "indexed": true,
          "internalType": "address",
          "name": "newOwner",
          "type": "address"
        }
      ],
      "name": "OwnershipTransferred",
      "type": "event"
    },
    {
      "anonymous": false,
      "inputs": [
        {
          "indexed": false,
          "internalType": "address",
          "name": "account",
          "type": "address"
        }
      ],
      "name": "Paused",
      "type": "event"
    },
    {
      "anonymous": false,
      "inputs": [
        {
          "indexed": true,
          "internalType": "uint256",
          "name": "roundId",
          "type": "uint256"
        },
        {
          "indexed": false,
          "internalType": "uint256",
          "name": "amount",
          "type": "uint256"
        },
        {
          "indexed": false,
          "internalType": "uint256",
          "name": "totalRewardPool",
          "type": "uint256"
        }
      ],
      "name": "RewardAdded",
      "type": "event"
    },
    {
      "anonymous": false,
      "inputs": [
        {
          "indexed": true,
          "internalType": "uint256",
          "name": "roundId",
          "type": "uint256"
        },
        {
          "indexed": false,
          "internalType": "bool",
          "name": "isActive",
          "type": "bool"
        }
      ],
      "name": "RoundStatusChanged",
      "type": "event"
    },
    {
      "anonymous": false,
      "inputs": [
        {
          "indexed": true,
          "internalType": "address",
          "name": "oldToken",
          "type": "address"
        },
        {
          "indexed": true,
          "internalType": "address",
          "name": "newToken",
          "type": "address"
        }
      ],
      "name": "USDTTokenUpdated",
      "type": "event"
    },
    {
      "anonymous": false,
      "inputs": [
        {
          "indexed": false,
          "internalType": "address",
          "name": "account",
          "type": "address"
        }
      ],
      "name": "Unpaused",
      "type": "event"
    },
    {
      "inputs": [],
      "name": "MAX_TOKENS_PER_INVESTMENT",
      "outputs": [
        {
          "internalType": "uint256",
          "name": "",
          "type": "uint256"
        }
      ],
      "stateMutability": "view",
      "type": "function"
    },
    {
      "inputs": [],
      "name": "USDT_DECIMALS",
      "outputs": [
        {
          "internalType": "uint256",
          "name": "",
          "type": "uint256"
        }
      ],
      "stateMutability": "view",
      "type": "function"
    },
    {
      "inputs": [],
      "name": "_nextRoundId",
      "outputs": [
        {
          "internalType": "uint256",
          "name": "",
          "type": "uint256"
        }
      ],
      "stateMutability": "view",
      "type": "function"
    },
    {
      "inputs": [
        {
          "internalType": "uint256",
          "name": "roundId",
          "type": "uint256"
        },
        {
          "internalType": "uint256",
          "name": "amount",
          "type": "uint256"
        }
      ],
      "name": "addRewardToRound",
      "outputs": [],
      "stateMutability": "nonpayable",
      "type": "function"
    },
    {
      "inputs": [],
      "name": "authorizedClaimsContract",
      "outputs": [
        {
          "internalType": "address",
          "name": "",
          "type": "address"
        }
      ],
      "stateMutability": "view",
      "type": "function"
    },
    {
      "inputs": [
        {
          "internalType": "uint256[]",
          "name": "tokenIds",
          "type": "uint256[]"
        }
      ],
      "name": "batchGetTokensDetail",
      "outputs": [
        {
          "components": [
            {
              "internalType": "uint256",
              "name": "tokenId",
              "type": "uint256"
            },
            {
              "internalType": "uint256",
              "name": "roundId",
              "type": "uint256"
            },
            {
              "internalType": "uint256",
              "name": "tokenPrice",
              "type": "uint256"
            },
            {
              "internalType": "uint256",
              "name": "rewardPercentage",
              "type": "uint256"
            },
            {
              "internalType": "uint256",
              "name": "totalTokenOpenInvestment",
              "type": "uint256"
            },
            {
              "internalType": "uint256",
              "name": "purchaseTimestamp",
              "type": "uint256"
            },
            {
              "internalType": "uint256",
              "name": "closeDateInvestment",
              "type": "uint256"
            },
            {
              "internalType": "uint256",
              "name": "endDateInvestment",
              "type": "uint256"
            },
            {
              "internalType": "address",
              "name": "originalBuyer",
              "type": "address"
            },
            {
              "internalType": "bool",
              "name": "redeemed",
              "type": "bool"
            },
            {
              "internalType": "bool",
              "name": "rewardClaimed",
              "type": "bool"
            },
            {
              "internalType": "bool",
              "name": "transferLocked",
              "type": "bool"
            },
            {
              "internalType": "string",
              "name": "metadata",
              "type": "string"
            }
          ],
          "internalType": "struct DZNFT.InvestmentData[]",
          "name": "",
          "type": "tuple[]"
        }
      ],
      "stateMutability": "view",
      "type": "function"
    },
    {
      "inputs": [
        {
          "internalType": "string",
          "name": "roundName",
          "type": "string"
        },
        {
          "internalType": "uint256",
          "name": "tokenPrice",
          "type": "uint256"
        },
        {
          "internalType": "uint256",
          "name": "rewardPercentage",
          "type": "uint256"
        },
        {
          "internalType": "uint256",
          "name": "totalTokenOpenInvestment",
          "type": "uint256"
        },
        {
          "internalType": "uint256",
          "name": "closeDateInvestment",
          "type": "uint256"
        },
        {
          "internalType": "uint256",
          "name": "endDateInvestment",
          "type": "uint256"
        }
      ],
      "name": "createInvestmentRound",
      "outputs": [],
      "stateMutability": "nonpayable",
      "type": "function"
    },
    {
      "inputs": [],
      "name": "dzNFT",
      "outputs": [
        {
          "internalType": "contract DZNFT",
          "name": "",
          "type": "address"
        }
      ],
      "stateMutability": "view",
      "type": "function"
    },
    {
      "inputs": [
        {
          "internalType": "address",
          "name": "recipient",
          "type": "address"
        },
        {
          "internalType": "uint256",
          "name": "amount",
          "type": "uint256"
        }
      ],
      "name": "emergencyTransferUSDT",
      "outputs": [
        {
          "internalType": "bool",
          "name": "",
          "type": "bool"
        }
      ],
      "stateMutability": "nonpayable",
      "type": "function"
    },
    {
      "inputs": [
        {
          "internalType": "address",
          "name": "investor",
          "type": "address"
        }
      ],
      "name": "getAllTokensOwnedBy",
      "outputs": [
        {
          "internalType": "uint256[]",
          "name": "",
          "type": "uint256[]"
        }
      ],
      "stateMutability": "view",
      "type": "function"
    },
    {
      "inputs": [],
      "name": "getContractUSDTBalance",
      "outputs": [
        {
          "internalType": "uint256",
          "name": "",
          "type": "uint256"
        }
      ],
      "stateMutability": "view",
      "type": "function"
    },
    {
      "inputs": [
        {
          "internalType": "uint256",
          "name": "tokenId",
          "type": "uint256"
        }
      ],
      "name": "getExistsToken",
      "outputs": [
        {
          "internalType": "bool",
          "name": "",
          "type": "bool"
        }
      ],
      "stateMutability": "view",
      "type": "function"
    },
    {
      "inputs": [
        {
          "internalType": "uint256",
          "name": "tokenId",
          "type": "uint256"
        }
      ],
      "name": "getInvestmentData",
      "outputs": [
        {
          "components": [
            {
              "internalType": "uint256",
              "name": "tokenId",
              "type": "uint256"
            },
            {
              "internalType": "uint256",
              "name": "roundId",
              "type": "uint256"
            },
            {
              "internalType": "uint256",
              "name": "tokenPrice",
              "type": "uint256"
            },
            {
              "internalType": "uint256",
              "name": "rewardPercentage",
              "type": "uint256"
            },
            {
              "internalType": "uint256",
              "name": "totalTokenOpenInvestment",
              "type": "uint256"
            },
            {
              "internalType": "uint256",
              "name": "purchaseTimestamp",
              "type": "uint256"
            },
            {
              "internalType": "uint256",
              "name": "closeDateInvestment",
              "type": "uint256"
            },
            {
              "internalType": "uint256",
              "name": "endDateInvestment",
              "type": "uint256"
            },
            {
              "internalType": "address",
              "name": "originalBuyer",
              "type": "address"
            },
            {
              "internalType": "bool",
              "name": "redeemed",
              "type": "bool"
            },
            {
              "internalType": "bool",
              "name": "rewardClaimed",
              "type": "bool"
            },
            {
              "internalType": "bool",
              "name": "transferLocked",
              "type": "bool"
            },
            {
              "internalType": "string",
              "name": "metadata",
              "type": "string"
            }
          ],
          "internalType": "struct DZNFT.InvestmentData",
          "name": "",
          "type": "tuple"
        }
      ],
      "stateMutability": "view",
      "type": "function"
    },
    {
      "inputs": [
        {
          "internalType": "uint256",
          "name": "roundId",
          "type": "uint256"
        }
      ],
      "name": "getRoundTokenCount",
      "outputs": [
        {
          "internalType": "uint256",
          "name": "",
          "type": "uint256"
        }
      ],
      "stateMutability": "view",
      "type": "function"
    },
    {
      "inputs": [
        {
          "internalType": "uint256",
          "name": "roundId",
          "type": "uint256"
        }
      ],
      "name": "getRoundTokenIds",
      "outputs": [
        {
          "internalType": "uint256[]",
          "name": "",
          "type": "uint256[]"
        }
      ],
      "stateMutability": "view",
      "type": "function"
    },
    {
      "inputs": [
        {
          "internalType": "uint256[]",
          "name": "roundIds",
          "type": "uint256[]"
        }
      ],
      "name": "getRoundsDetail",
      "outputs": [
        {
          "components": [
            {
              "internalType": "uint256",
              "name": "roundId",
              "type": "uint256"
            },
            {
              "internalType": "string",
              "name": "roundName",
              "type": "string"
            },
            {
              "internalType": "uint256",
              "name": "tokenPrice",
              "type": "uint256"
            },
            {
              "internalType": "uint256",
              "name": "rewardPercentage",
              "type": "uint256"
            },
            {
              "internalType": "uint256",
              "name": "totalTokenOpenInvestment",
              "type": "uint256"
            },
            {
              "internalType": "uint256",
              "name": "tokensSold",
              "type": "uint256"
            },
            {
              "internalType": "uint256",
              "name": "closeDateInvestment",
              "type": "uint256"
            },
            {
              "internalType": "uint256",
              "name": "endDateInvestment",
              "type": "uint256"
            },
            {
              "internalType": "bool",
              "name": "isActive",
              "type": "bool"
            },
            {
              "internalType": "bool",
              "name": "exists",
              "type": "bool"
            },
            {
              "internalType": "uint256",
              "name": "createdAt",
              "type": "uint256"
            },
            {
              "internalType": "enum FundRaisingCore.Status",
              "name": "status",
              "type": "uint8"
            }
          ],
          "internalType": "struct FundRaisingCore.InvestmentRound[]",
          "name": "",
          "type": "tuple[]"
        }
      ],
      "stateMutability": "view",
      "type": "function"
    },
    {
      "inputs": [
        {
          "internalType": "uint256",
          "name": "tokenId",
          "type": "uint256"
        }
      ],
      "name": "getTokenDetail",
      "outputs": [
        {
          "components": [
            {
              "internalType": "uint256",
              "name": "tokenId",
              "type": "uint256"
            },
            {
              "internalType": "uint256",
              "name": "roundId",
              "type": "uint256"
            },
            {
              "internalType": "uint256",
              "name": "tokenPrice",
              "type": "uint256"
            },
            {
              "internalType": "uint256",
              "name": "rewardPercentage",
              "type": "uint256"
            },
            {
              "internalType": "uint256",
              "name": "totalTokenOpenInvestment",
              "type": "uint256"
            },
            {
              "internalType": "uint256",
              "name": "purchaseTimestamp",
              "type": "uint256"
            },
            {
              "internalType": "uint256",
              "name": "closeDateInvestment",
              "type": "uint256"
            },
            {
              "internalType": "uint256",
              "name": "endDateInvestment",
              "type": "uint256"
            },
            {
              "internalType": "address",
              "name": "originalBuyer",
              "type": "address"
            },
            {
              "internalType": "bool",
              "name": "redeemed",
              "type": "bool"
            },
            {
              "internalType": "bool",
              "name": "rewardClaimed",
              "type": "bool"
            },
            {
              "internalType": "bool",
              "name": "transferLocked",
              "type": "bool"
            },
            {
              "internalType": "string",
              "name": "metadata",
              "type": "string"
            }
          ],
          "internalType": "struct DZNFT.InvestmentData",
          "name": "",
          "type": "tuple"
        }
      ],
      "stateMutability": "view",
      "type": "function"
    },
    {
      "inputs": [],
      "name": "getUSDTTokenAddress",
      "outputs": [
        {
          "internalType": "address",
          "name": "",
          "type": "address"
        }
      ],
      "stateMutability": "view",
      "type": "function"
    },
    {
      "inputs": [
        {
          "internalType": "address",
          "name": "investor",
          "type": "address"
        }
      ],
      "name": "getWalletTokensDetail",
      "outputs": [
        {
          "internalType": "uint256[]",
          "name": "tokenIds",
          "type": "uint256[]"
        },
        {
          "components": [
            {
              "internalType": "uint256",
              "name": "tokenId",
              "type": "uint256"
            },
            {
              "internalType": "uint256",
              "name": "roundId",
              "type": "uint256"
            },
            {
              "internalType": "uint256",
              "name": "tokenPrice",
              "type": "uint256"
            },
            {
              "internalType": "uint256",
              "name": "rewardPercentage",
              "type": "uint256"
            },
            {
              "internalType": "uint256",
              "name": "totalTokenOpenInvestment",
              "type": "uint256"
            },
            {
              "internalType": "uint256",
              "name": "purchaseTimestamp",
              "type": "uint256"
            },
            {
              "internalType": "uint256",
              "name": "closeDateInvestment",
              "type": "uint256"
            },
            {
              "internalType": "uint256",
              "name": "endDateInvestment",
              "type": "uint256"
            },
            {
              "internalType": "address",
              "name": "originalBuyer",
              "type": "address"
            },
            {
              "internalType": "bool",
              "name": "redeemed",
              "type": "bool"
            },
            {
              "internalType": "bool",
              "name": "rewardClaimed",
              "type": "bool"
            },
            {
              "internalType": "bool",
              "name": "transferLocked",
              "type": "bool"
            },
            {
              "internalType": "string",
              "name": "metadata",
              "type": "string"
            }
          ],
          "internalType": "struct DZNFT.InvestmentData[]",
          "name": "nftsDetail",
          "type": "tuple[]"
        }
      ],
      "stateMutability": "view",
      "type": "function"
    },
    {
      "inputs": [
        {
          "internalType": "uint256",
          "name": "roundId",
          "type": "uint256"
        },
        {
          "internalType": "uint256",
          "name": "tokenAmount",
          "type": "uint256"
        }
      ],
      "name": "investInRound",
      "outputs": [],
      "stateMutability": "nonpayable",
      "type": "function"
    },
    {
      "inputs": [
        {
          "internalType": "uint256",
          "name": "",
          "type": "uint256"
        }
      ],
      "name": "investmentRounds",
      "outputs": [
        {
          "internalType": "uint256",
          "name": "roundId",
          "type": "uint256"
        },
        {
          "internalType": "string",
          "name": "roundName",
          "type": "string"
        },
        {
          "internalType": "uint256",
          "name": "tokenPrice",
          "type": "uint256"
        },
        {
          "internalType": "uint256",
          "name": "rewardPercentage",
          "type": "uint256"
        },
        {
          "internalType": "uint256",
          "name": "totalTokenOpenInvestment",
          "type": "uint256"
        },
        {
          "internalType": "uint256",
          "name": "tokensSold",
          "type": "uint256"
        },
        {
          "internalType": "uint256",
          "name": "closeDateInvestment",
          "type": "uint256"
        },
        {
          "internalType": "uint256",
          "name": "endDateInvestment",
          "type": "uint256"
        },
        {
          "internalType": "bool",
          "name": "isActive",
          "type": "bool"
        },
        {
          "internalType": "bool",
          "name": "exists",
          "type": "bool"
        },
        {
          "internalType": "uint256",
          "name": "createdAt",
          "type": "uint256"
        },
        {
          "internalType": "enum FundRaisingCore.Status",
          "name": "status",
          "type": "uint8"
        }
      ],
      "stateMutability": "view",
      "type": "function"
    },
    {
      "inputs": [],
      "name": "owner",
      "outputs": [
        {
          "internalType": "address",
          "name": "",
          "type": "address"
        }
      ],
      "stateMutability": "view",
      "type": "function"
    },
    {
      "inputs": [],
      "name": "paused",
      "outputs": [
        {
          "internalType": "bool",
          "name": "",
          "type": "bool"
        }
      ],
      "stateMutability": "view",
      "type": "function"
    },
    {
      "inputs": [],
      "name": "renounceOwnership",
      "outputs": [],
      "stateMutability": "nonpayable",
      "type": "function"
    },
    {
      "inputs": [
        {
          "internalType": "uint256",
          "name": "",
          "type": "uint256"
        }
      ],
      "name": "roundLedger",
      "outputs": [
        {
          "internalType": "uint256",
          "name": "",
          "type": "uint256"
        }
      ],
      "stateMutability": "view",
      "type": "function"
    },
    {
      "inputs": [
        {
          "internalType": "uint256",
          "name": "",
          "type": "uint256"
        }
      ],
      "name": "roundRewardPool",
      "outputs": [
        {
          "internalType": "uint256",
          "name": "",
          "type": "uint256"
        }
      ],
      "stateMutability": "view",
      "type": "function"
    },
    {
      "inputs": [
        {
          "internalType": "uint256",
          "name": "",
          "type": "uint256"
        },
        {
          "internalType": "uint256",
          "name": "",
          "type": "uint256"
        }
      ],
      "name": "roundTokenIds",
      "outputs": [
        {
          "internalType": "uint256",
          "name": "",
          "type": "uint256"
        }
      ],
      "stateMutability": "view",
      "type": "function"
    },
    {
      "inputs": [
        {
          "internalType": "address",
          "name": "_claimsContract",
          "type": "address"
        }
      ],
      "name": "setAuthorizedClaimsContract",
      "outputs": [],
      "stateMutability": "nonpayable",
      "type": "function"
    },
    {
      "inputs": [
        {
          "internalType": "uint256",
          "name": "roundId",
          "type": "uint256"
        },
        {
          "internalType": "bool",
          "name": "active",
          "type": "bool"
        }
      ],
      "name": "setRoundActive",
      "outputs": [],
      "stateMutability": "nonpayable",
      "type": "function"
    },
    {
      "inputs": [
        {
          "internalType": "address",
          "name": "newUSDTToken",
          "type": "address"
        }
      ],
      "name": "setUSDTToken",
      "outputs": [],
      "stateMutability": "nonpayable",
      "type": "function"
    },
    {
      "inputs": [],
      "name": "totalRoundsCreated",
      "outputs": [
        {
          "internalType": "uint256",
          "name": "",
          "type": "uint256"
        }
      ],
      "stateMutability": "view",
      "type": "function"
    },
    {
      "inputs": [],
      "name": "totalUSDTRaised",
      "outputs": [
        {
          "internalType": "uint256",
          "name": "",
          "type": "uint256"
        }
      ],
      "stateMutability": "view",
      "type": "function"
    },
    {
      "inputs": [
        {
          "internalType": "address",
          "name": "newOwner",
          "type": "address"
        }
      ],
      "name": "transferOwnership",
      "outputs": [],
      "stateMutability": "nonpayable",
      "type": "function"
    },
    {
      "inputs": [
        {
          "internalType": "uint256",
          "name": "roundId",
          "type": "uint256"
        },
        {
          "internalType": "uint256",
          "name": "amount",
          "type": "uint256"
        }
      ],
      "name": "transferRewardToClaims",
      "outputs": [],
      "stateMutability": "nonpayable",
      "type": "function"
    },
    {
      "inputs": [
        {
          "internalType": "uint256",
          "name": "roundId",
          "type": "uint256"
        },
        {
          "internalType": "uint256",
          "name": "amount",
          "type": "uint256"
        },
        {
          "internalType": "bool",
          "name": "increase",
          "type": "bool"
        }
      ],
      "name": "updateRoundLedger",
      "outputs": [],
      "stateMutability": "nonpayable",
      "type": "function"
    },
    {
      "inputs": [
        {
          "internalType": "address",
          "name": "user",
          "type": "address"
        },
        {
          "internalType": "uint256",
          "name": "roundId",
          "type": "uint256"
        },
        {
          "internalType": "uint256",
          "name": "amount",
          "type": "uint256"
        }
      ],
      "name": "updateUserClaimedRewards",
      "outputs": [],
      "stateMutability": "nonpayable",
      "type": "function"
    },
    {
      "inputs": [],
      "name": "usdtToken",
      "outputs": [
        {
          "internalType": "contract IERC20",
          "name": "",
          "type": "address"
        }
      ],
      "stateMutability": "view",
      "type": "function"
    },
    {
      "inputs": [
        {
          "internalType": "address",
          "name": "",
          "type": "address"
        },
        {
          "internalType": "uint256",
          "name": "",
          "type": "uint256"
        }
      ],
      "name": "userClaimedRewards",
      "outputs": [
        {
          "internalType": "uint256",
          "name": "",
          "type": "uint256"
        }
      ],
      "stateMutability": "view",
      "type": "function"
    },
    {
      "inputs": [
        {
          "internalType": "uint256",
          "name": "roundId",
          "type": "uint256"
        }
      ],
      "name": "withdrawFund",
      "outputs": [],
      "stateMutability": "nonpayable",
      "type": "function"
    }
  ],
  "bytecode": "0x60a0346101d757601f612d5838819003918201601f19168301916001600160401b038311848410176101db5780849260409485528339810103126101d757610052602061004b836101ef565b92016101ef565b9033156101c4575f8054336001600160a01b0319821681178355604051939290916001600160a01b0316907f8be0079c531659141344cd1fd0a4f28419497f9722a3daafe3b4186f6b6457e09080a3600180556001600160a01b031690811561018257506001600160a01b0382161561013d5760805260028054610100600160a81b03191660089290921b610100600160a81b0316919091179055604051612b549081610204823960805181818161090a01528181610aaf0152818161120b01528181611340015281816115450152818161163d015281816116e901528181611cf101526121ec0152f35b60405162461bcd60e51b815260206004820152601460248201527f496e76616c6964205553445420616464726573730000000000000000000000006044820152606490fd5b62461bcd60e51b815260206004820152601560248201527f496e76616c696420445a4e4654206164647265737300000000000000000000006044820152606490fd5b631e4fbdf760e01b5f525f60045260245ffd5b5f80fd5b634e487b7160e01b5f52604160045260245ffd5b51906001600160a01b03821682036101d75756fe6080806040526004361015610012575f80fd5b5f3560e01c90816308c89b6d1461227c5750806309815517146121b45780630cee1725146120ad5780631470e87d146114ec578063161f6622146120355780631c25dc5814611eb957806321bdff0914611dfd57806330814b1b14611de0578063354281a014611db65780635c8f45b114611caf5780635c975abb14611c8d578063632d45eb14611c6357806366e226bd14611b9b57806369fbd3cc14611ad05780636a37a9bf14611a18578063715018a6146119d4578063760ca4f41461183157806379b2c17a1461179a57806384e97c8c146117725780638da5cb5b1461174b5780638debb546146116a75780638e25e2e61461160757806393b58d81146115c357806398ee9f1514611518578063a98ad46c146114ec578063b0eff316146114cf578063b175b32f146114a5578063b201c0c314611467578063bb3505f41461136f578063bf32eb011461132b578063c0bcc07a146111d5578063c6f83418146111ba578063c8f7604014611130578063d5b52b9514610f86578063df0201b014610d0e578063df8493b014610791578063e96d87b41461025a578063ef2cfd1a1461023f5763f2fde38b146101c9575f80fd5b3461023b57602036600319011261023b576101e26124dc565b6101ea612a98565b6001600160a01b03168015610228575f80546001600160a01b03198116831782556001600160a01b0316905f516020612aff5f395f51905f529080a3005b631e4fbdf760e01b5f525f60045260245ffd5b5f80fd5b3461023b575f36600319011261023b57602060405160128152f35b3461023b5760c036600319011261023b576004356001600160401b03811161023b573660238201121561023b57806004013561029581612602565b916102a360405193846122ce565b818352366024838301011161023b57815f92602460209301838601378301015260243590604435916064359160843560a4356102dd612a98565b82511561074f5783156106ff57841561069f5785151580610693575b1561064257428211156105fe57818111156105af575f9460095496879261031f84612a8a565b6009556040519461032f866122b2565b84865260208601928784526040870194898652606088019182526080880190815260a08801918b835260c0890193845260e08901948552610100890196600188526101208a0196600188526101408b0199428b526101608c019e8f525f52600460205260405f209a518b5560018b01905180519060018060401b03821161059b576103ba83546124f2565b601f8111610556575b50602090601f83116001146104e557600a9d9c9b9a9998979695949392915f91836104da575b50508160011b915f199060031b1c19161790555b5160028a015551600389015551600488015551600587015551600686015551600785015561043e6008850192511515839060ff801983541691151516179055565b51151561ff0082549160081b169061ff0019161790555160098201550192519160058310156104c6577f9bd719c4581ad3c2ad551d9f5ec0458ef29b8c209c84ca2e49fe88d321063d8f936104bb9360ff801983541691161790556104a4600a54612a8a565b600a55604051928392604084526040840190612386565b9060208301520390a2005b634e487b7160e01b5f52602160045260245ffd5b015190505f806103e9565b90601f19831691845f52815f20925f5b81811061053e575091600a9f9e9d9c9b9a9998979695949291836001959310610526575b505050811b0190556103fd565b01515f1960f88460031b161c191690555f8080610519565b929360206001819287860151815501950193016104f5565b835f5260205f20601f840160051c81019160208510610591575b601f0160051c01905b81811061058657506103c3565b5f8155600101610579565b9091508190610570565b634e487b7160e01b5f52604160045260245ffd5b60405162461bcd60e51b815260206004820152602160248201527f456e642064617465206d75737420626520616674657220636c6f7365206461746044820152606560f81b6064820152608490fd5b60405162461bcd60e51b815260206004820152601c60248201527b436c6f73652064617465206d75737420626520696e2066757475726560201b6044820152606490fd5b60405162461bcd60e51b815260206004820152602360248201527f496e76616c6964207265776172642070657263656e746167652028302d31303060448201526230302960e81b6064820152608490fd5b506127108611156102f9565b60405162461bcd60e51b815260206004820152603260248201527f546f74616c20746f6b656e206f70656e20696e766573746d656e74206d75737460448201527102062652067726561746572207468616e20360741b6064820152608490fd5b60405162461bcd60e51b815260206004820152602260248201527f546f6b656e207072696365206d7573742062652067726561746572207468616e604482015261020360f41b6064820152608490fd5b60405162461bcd60e51b815260206004820152601a602482015279526f756e64206e616d652063616e6e6f7420626520656d70747960301b6044820152606490fd5b3461023b5761079f366125d7565b6107a7612abe565b60025460ff8116610cff57825f5260046020526107d060ff600860405f20015460081c166127c1565b825f52600460205260ff600860405f2001541615610cc457825f526004602052600660405f2001544211610c8057811590811580610c75575b15610c3957835f52600460205260405f20600281018054938415610c2557845f19048611610be45784860294868604141715610bd057600582019261084f8685546128ae565b600484015410610b7957602060405180926323b872dd60e01b8252815f8161087c8b30336004850161293c565b039260081c6001600160a01b03165af18015610a2a575f90610b3e575b6108a3915061281f565b6001851115610a35575490600381015490600760068201549101549160405193632fdc968f60e21b855233600486015287602486015288604486015260648501526084840152600160a484015260c483015260e48201525f81610104818360018060a01b037f0000000000000000000000000000000000000000000000000000000000000000165af1908115610a2a575f91610a08575b505b845f52600560205260405f20905f5b8581106109c1575050506109608382546128ae565b9055825f52600660205260405f206109798282546128ae565b905561098781600b546128ae565b600b5560405191825260208201527f3bdff14eed6ddd6ca85e178ed7df644a6a676c0796374ce875e380bc74a28e7860403392a360018055005b6109cb8183612a76565b5183549190600160401b83101561059b576109ed8360018095018755866125ed565b819291549060031b91821b915f19901b19161790550161094b565b610a2491503d805f833e610a1c81836122ce565b81019061295e565b8561093a565b6040513d5f823e3d90fd5b906040908151610a4583826122ce565b600181526020810191601f19840136843781945490600381015490600760068201549101549186519363f4fb815960e01b85523360048601528c6024860152604485015260648401526001608484015260a483015260c482015260208160e4815f60018060a01b037f0000000000000000000000000000000000000000000000000000000000000000165af1938415610b3557505f93610b01575b505115610aed575261093c565b634e487b7160e01b5f52603260045260245ffd5b9092506020813d602011610b2d575b81610b1d602093836122ce565b8101031261023b57519188610ae0565b3d9150610b10565b513d5f823e3d90fd5b506020813d602011610b71575b81610b58602093836122ce565b8101031261023b57610b6c6108a39161261d565b610899565b3d9150610b4b565b60405162461bcd60e51b815260206004820152602960248201527f4e6f7420656e6f75676820746f6b656e7320617661696c61626c6520696e20746044820152681a1a5cc81c9bdd5b9960ba1b6064820152608490fd5b634e487b7160e01b5f52601160045260245ffd5b60405162461bcd60e51b815260206004820152601960248201527843616c63756c6174696f6e206f766572666c6f77207269736b60381b6044820152606490fd5b634e487b7160e01b5f52601260045260245ffd5b60405162461bcd60e51b8152602060048201526014602482015273125b9d985b1a59081d1bdad95b88185b5bdd5b9d60621b6044820152606490fd5b506032831115610809565b60405162461bcd60e51b815260206004820152601c60248201527b125b9d995cdd1b595b9d081c195c9a5bd9081a185cc818db1bdcd95960221b6044820152606490fd5b60405162461bcd60e51b8152602060048201526013602482015272526f756e64206973206e6f742061637469766560681b6044820152606490fd5b63d93c066560e01b5f5260045ffd5b3461023b57610d1c36612308565b805190610d28826122f1565b91610d3660405193846122ce565b808352610d45601f19916122f1565b015f5b818110610f225750505f5b8151811015610e2f57610d668183612a76565b515f52600460205260405f209060ff600a60405193610d84856122b2565b80548552610d946001820161252a565b6020860152600281015460408601526003810154606086015260048101546080860152600581015460a0860152600681015460c0860152600781015460e0860152826008820154818116151561010088015260081c16151561012086015260098101546101408601520154169160058310156104c657600192610160820152610e1d8286612a76565b52610e288185612a76565b5001610d53565b826040518091602082016020835281518091526040830190602060408260051b8601019301915f905b828210610e6757505050500390f35b919360019193955060208091603f19898203018552610f128851918251815261016080610ea38686015161018088860152610180850190612386565b9460408101516040850152606081015160608501526080810151608085015260a081015160a085015260c081015160c085015260e081015160e08501526101008101511515610100850152610120810151151561012085015261014081015161014085015201519101906125ca565b9601920192018594939192610e58565b602090604051610f31816122b2565b5f81526060838201525f60408201525f60608201525f60808201525f60a08201525f60c08201525f60e08201525f6101008201525f6101208201525f6101408201525f61016082015282828701015201610d48565b3461023b57610f94366125d7565b610fa960018060a01b03600354163314612a07565b80156110fa57815f526004602052610fcd60ff600860405f20015460081c166127c1565b815f5260076020528060405f2054106110ba576110306020915f9384526007835260408420610ffd828254612a69565b905560025460405163095ea7b360e01b815294859360089290921c6001600160a01b031692849283913360048401612804565b03925af1908115610a2a575f91611080575b501561104a57005b60405162461bcd60e51b815260206004820152600e60248201526d105c1c1c9bdd994819985a5b195960921b6044820152606490fd5b90506020813d6020116110b2575b8161109b602093836122ce565b8101031261023b576110ac9061261d565b81611042565b3d915061108e565b60405162461bcd60e51b8152602060048201526018602482015277125b9cdd59999a58da595b9d081c995dd85c99081c1bdbdb60421b6044820152606490fd5b60405162461bcd60e51b815260206004820152600e60248201526d125b9d985b1a5908185b5bdd5b9d60921b6044820152606490fd5b3461023b575f36600319011261023b576002546040516370a0823160e01b8152306004820152906020908290602490829060081c6001600160a01b03165afa8015610a2a575f90611187575b602090604051908152f35b506020813d6020116111b2575b816111a1602093836122ce565b8101031261023b576020905161117c565b3d9150611194565b3461023b575f36600319011261023b57602060405160328152f35b3461023b57602036600319011261023b576111ee612983565b5060405163605e603d60e11b815260048035908201525f816024817f00000000000000000000000000000000000000000000000000000000000000006001600160a01b03165afa908115610a2a57611305916112ae915f91611309575b50805190602081015160408201516060830151608084015160a085015160c08601519060e08701519260018060a01b0361010089015116946101208901511515966101408a01511515986101806101608c015115159b01519b6040519d8e612296565b8d5260208d015260408c015260608b015260808a015260a089015260c088015260e08701526101008601526101208501526101408401526101608301526101808201526040519182916020835260208301906123aa565b0390f35b61132591503d805f833e61131d81836122ce565b8101906129e2565b8361124b565b3461023b575f36600319011261023b576040517f00000000000000000000000000000000000000000000000000000000000000006001600160a01b03168152602090f35b3461023b57606036600319011261023b57602435600435604435801515810361023b576113a760018060a01b03600354163314612a07565b815f5260046020526113c560ff600860405f20015460081c166127c1565b6113d0831515612862565b156113ef575f5260066020526113eb60405f209182546128ae565b9055005b805f5260066020528160405f205410611418575f5260066020526113eb60405f20918254612a69565b60405162461bcd60e51b815260206004820152602160248201527f496e73756666696369656e7420726f756e64206c65646765722062616c616e636044820152606560f81b6064820152608490fd5b3461023b57611475366125d7565b905f52600560205260405f20805482101561023b57602091611496916125ed565b90549060031b1c604051908152f35b3461023b57602036600319011261023b576004355f526007602052602060405f2054604051908152f35b3461023b575f36600319011261023b576020600954604051908152f35b3461023b575f36600319011261023b5760025460405160089190911c6001600160a01b03168152602090f35b3461023b57602036600319011261023b5760405162491fcf60e11b815260048035908201526020816024817f00000000000000000000000000000000000000000000000000000000000000006001600160a01b03165afa8015610a2a575f90611589575b6020906040519015158152f35b506020813d6020116115bb575b816115a3602093836122ce565b8101031261023b576115b660209161261d565b61157c565b3d9150611596565b3461023b57604036600319011261023b576001600160a01b036115e46124dc565b165f52600860205260405f206024355f52602052602060405f2054604051908152f35b3461023b57602036600319011261023b57611620612983565b50604051634712f17360e11b815260048035908201525f816024817f00000000000000000000000000000000000000000000000000000000000000006001600160a01b03165afa8015610a2a57611305915f9161168d575b506040519182916020835260208301906123aa565b6116a191503d805f833e61131d81836122ce565b82611678565b3461023b57602036600319011261023b576116c06124dc565b6040516346f5daa360e11b81526001600160a01b039182166004820152905f90829060249082907f0000000000000000000000000000000000000000000000000000000000000000165afa8015610a2a57611305915f91611731575b506040519182916020835260208301906124a9565b61174591503d805f833e610a1c81836122ce565b8261171c565b3461023b575f36600319011261023b575f546040516001600160a01b039091168152602090f35b3461023b575f36600319011261023b576003546040516001600160a01b039091168152602090f35b3461023b57604036600319011261023b576004356024358015159081810361023b577fdd8c33b779db77b877161fe300dfc92dc5b0d87c7e4199701eb25330a83e16f9916118286020926117ec612a98565b855f526004845261180960ff600860405f20015460081c166127c1565b855f5260048452600860405f20019060ff801983541691151516179055565b604051908152a2005b3461023b5761183f366125d7565b611847612a98565b815f52600460205261186560ff600860405f20015460081c166127c1565b8015611983576002545f906020906118aa9060081c6001600160a01b031661188c85612918565b6040519485809481936323b872dd60e01b835230336004850161293c565b03925af1908115610a2a575f91611932575b505f516020612adf5f395f51905f52916118d760409261281f565b6118e081612918565b845f5260076020526118f6835f209182546128ae565b905561190181612918565b845f526006602052611917835f209182546128ae565b9055835f526007602052815f205482519182526020820152a2005b90506020813d60201161197b575b8161194d602093836122ce565b8101031261023b575f516020612adf5f395f51905f52916118d761197260409361261d565b925050916118bc565b3d9150611940565b60405162461bcd60e51b8152602060048201526024808201527f52657761726420616d6f756e74206d75737420626520677265617465722074686044820152630616e20360e41b6064820152608490fd5b3461023b575f36600319011261023b576119ec612a98565b5f80546001600160a01b0319811682556001600160a01b03165f516020612aff5f395f51905f528280a3005b3461023b57602036600319011261023b57611a316124dc565b611a39612a98565b6001600160a01b03168015611a8b57600380546001600160a01b0319811683179091556001600160a01b03167ffe66ddef0f2a9c1d6f97182ba039017c769bd48d0d1ec0a3cc405c078f3c17f45f80a3005b60405162461bcd60e51b815260206004820152601f60248201527f496e76616c696420636c61696d7320636f6e74726163742061646472657373006044820152606490fd5b3461023b57602036600319011261023b576004355f52600460205261018060405f20805490611305611b046001830161252a565b60028301549260ff600382015460048301546005840154600685015490600786015492600887015494611b5487600a60098b01549a015416996040519e8f9e8f9081528160208201520190612386565b9a60408d015260608c015260808b015260a08a015260c089015260e0880152818116151561010088015260081c1615156101208601526101408501526101608401906125ca565b3461023b57602036600319011261023b57611bb46124dc565b611bbc612a98565b6001600160a01b038116908115611c215760028054610100600160a81b03198116600893841b610100600160a81b031617909155901c6001600160a01b03167f92852dbadca7e6fa4e0d5dd87891e6dd13f50a304561a86ea9d5a710b972e4495f80a3005b60405162461bcd60e51b815260206004820152601a602482015279496e76616c6964205553445420746f6b656e206164647265737360301b6044820152606490fd5b3461023b57602036600319011261023b576004355f526006602052602060405f2054604051908152f35b3461023b575f36600319011261023b57602060ff600254166040519015158152f35b3461023b57602036600319011261023b57611cc86124dc565b604051635c8f45b160e01b81526001600160a01b039182166004820152905f90829060249082907f0000000000000000000000000000000000000000000000000000000000000000165afa908115610a2a575f905f92611d4d575b50611305611d3f926040519384936040855260408501906124a9565b908382036020850152612451565b9150503d805f833e611d5f81836122ce565b81019060408183031261023b5780516001600160401b03811161023b5782611d889183016128bb565b602082015190916001600160401b03821161023b57611d3f9361130592611daf9201612743565b9250611d23565b3461023b57602036600319011261023b576004355f526005602052602060405f2054604051908152f35b3461023b575f36600319011261023b576020600a54604051908152f35b3461023b57606036600319011261023b57611e166124dc565b60243560443591611e25612a98565b6001600160a01b03168015611e7d57815f526004602052611e5260ff600860405f20015460081c166127c1565b611e5d831515612862565b5f52600860205260405f20905f526020526113eb60405f209182546128ae565b60405162461bcd60e51b8152602060048201526014602482015273496e76616c69642075736572206164647265737360601b6044820152606490fd5b3461023b57604036600319011261023b57611ed26124dc565b60243590611ede612a98565b6001600160a01b03811615611ff457611ef8821515612862565b6002546040516370a0823160e01b815230600482015260089190911c6001600160a01b03169290602081602481875afa8015610a2a5782915f91611fbf575b5010611f7e57611f61926020925f60405180968195829463a9059cbb60e01b845260048401612804565b03925af18015610a2a575f90611589576020906040519015158152f35b60405162461bcd60e51b8152602060048201526019602482015278496e73756666696369656e7420555344542062616c616e636560381b6044820152606490fd5b9150506020813d602011611fec575b81611fdb602093836122ce565b8101031261023b5781905185611f37565b3d9150611fce565b60405162461bcd60e51b8152602060048201526019602482015278496e76616c696420726563697069656e74206164647265737360381b6044820152606490fd5b3461023b57602036600319011261023b576004355f52600560205260405f206040519081602082549182815201915f5260205f20905f5b8181106120975761130585612083818703826122ce565b6040519182916020835260208301906124a9565b825484526020909301926001928301920161206c565b3461023b57602036600319011261023b576004356120c9612a98565b6120d1612abe565b805f5260046020526120ef60ff600860405f20015460081c166127c1565b5f8181526006602090815260408083208054908490556002548454925163a9059cbb60e01b81529485936001600160a01b0360089390931c8316938593849261213d92911660048401612804565b03925af18015610a2a575f90612179575b612158915061281f565b5f908152600460205260409020600a01805460ff1916600317905560018055005b506020813d6020116121ac575b81612193602093836122ce565b8101031261023b576121a76121589161261d565b61214e565b3d9150612186565b3461023b576121e85f6121c636612308565b60405180938192630981551760e01b83526020600484015260248301906124a9565b03817f00000000000000000000000000000000000000000000000000000000000000006001600160a01b03165afa8015610a2a575f9061223b575b61130590604051918291602083526020830190612451565b503d805f833e61224b81836122ce565b81019060208183031261023b578051916001600160401b03831161023b57611305926122779201612743565b612223565b3461023b575f36600319011261023b57602090600b548152f35b6101a081019081106001600160401b0382111761059b57604052565b61018081019081106001600160401b0382111761059b57604052565b601f909101601f19168101906001600160401b0382119082101761059b57604052565b6001600160401b03811161059b5760051b60200190565b602060031982011261023b57600435906001600160401b03821161023b578060238301121561023b57816004013561233f816122f1565b9261234d60405194856122ce565b8184526024602085019260051b82010192831161023b57602401905b8282106123765750505090565b8135815260209182019101612369565b805180835260209291819084018484015e5f828201840152601f01601f1916010190565b906101a061018061244e93805184526020810151602085015260408101516040850152606081015160608501526080810151608085015260a081015160a085015260c081015160c085015260e081015160e085015260018060a01b0361010082015116610100850152610120810151151561012085015261014081015115156101408501526101608101511515610160850152015191816101808201520190612386565b90565b9080602083519182815201916020808360051b8301019401925f915b83831061247c57505050505090565b909192939460208061249a600193601f1986820301875289516123aa565b9701930193019193929061246d565b90602080835192838152019201905f5b8181106124c65750505090565b82518452602093840193909201916001016124b9565b600435906001600160a01b038216820361023b57565b90600182811c92168015612520575b602083101461250c57565b634e487b7160e01b5f52602260045260245ffd5b91607f1691612501565b9060405191825f82549261253d846124f2565b80845293600181169081156125a85750600114612564575b50612562925003836122ce565b565b90505f9291925260205f20905f915b81831061258c575050906020612562928201015f612555565b6020919350806001915483858901015201910190918492612573565b90506020925061256294915060ff191682840152151560051b8201015f612555565b9060058210156104c65752565b604090600319011261023b576004359060243590565b8054821015610aed575f5260205f2001905f90565b6001600160401b03811161059b57601f01601f191660200190565b5190811515820361023b57565b91906101a08382031261023b5760405161264381612296565b8093805182526020810151602083015260408101516040830152606081015160608301526080810151608083015260a081015160a083015260c081015160c083015260e081015160e083015261010081015160018060a01b038116810361023b576101008301526126b7610120820161261d565b6101208301526126ca610140820161261d565b6101408301526126dd610160820161261d565b610160830152610180810151906001600160401b03821161023b57019082601f8301121561023b57815161271081612602565b9361271e60405195866122ce565b8185526020828501011161023b576020815f928261018096018388015e850101520152565b9080601f8301121561023b57815161275a816122f1565b9261276860405194856122ce565b81845260208085019260051b8201019183831161023b5760208201905b83821061279457505050505090565b81516001600160401b03811161023b576020916127b68784809488010161262a565b815201910190612785565b156127c857565b60405162461bcd60e51b8152602060048201526014602482015273149bdd5b9908191bd95cc81b9bdd08195e1a5cdd60621b6044820152606490fd5b6001600160a01b039091168152602081019190915260400190565b1561282657565b60405162461bcd60e51b81526020600482015260146024820152731554d115081d1c985b9cd9995c8819985a5b195960621b6044820152606490fd5b1561286957565b60405162461bcd60e51b815260206004820152601d60248201527f416d6f756e74206d7573742062652067726561746572207468616e20300000006044820152606490fd5b91908201809211610bd057565b9080601f8301121561023b5781516128d2816122f1565b926128e060405194856122ce565b81845260208085019260051b82010192831161023b57602001905b8282106129085750505090565b81518152602091820191016128fb565b90670de0b6b3a7640000820291808304670de0b6b3a76400001490151715610bd057565b6001600160a01b03918216815291166020820152604081019190915260600190565b9060208282031261023b5781516001600160401b03811161023b5761244e92016128bb565b6040519061299082612296565b6060610180835f81525f60208201525f60408201525f838201525f60808201525f60a08201525f60c08201525f60e08201525f6101008201525f6101208201525f6101408201525f6101608201520152565b9060208282031261023b5781516001600160401b03811161023b5761244e920161262a565b15612a0e57565b60405162461bcd60e51b815260206004820152602d60248201527f4f6e6c7920617574686f72697a656420636c61696d7320636f6e74726163742060448201526c63616e2063616c6c207468697360981b6064820152608490fd5b91908203918211610bd057565b8051821015610aed5760209160051b010190565b5f198114610bd05760010190565b5f546001600160a01b03163303612aab57565b63118cdaa760e01b5f523360045260245ffd5b600260015414612acf576002600155565b633ee5aeb560e01b5f5260045ffdfe9795f222c951ae3e749f872dbe287f78d21fa52353e9175cb20ed3aa2b29b82b8be0079c531659141344cd1fd0a4f28419497f9722a3daafe3b4186f6b6457e0a26469706673582212209eaf34b263b629ed4d54a2fdae90dbe9d942a4f617add09d014db529954037f964736f6c634300081c0033",
  "linkReferences": {},
  "deployedLinkReferences": {},
  "immutableReferences": {
    "9369": [
      {
        "length": 32,
        "start": 2314
      },
      {
        "length": 32,
        "start": 2735
      },
      {
        "length": 32,
        "start": 4619
      },
      {
        "length": 32,
        "start": 4928
      },
      {
        "length": 32,
        "start": 5445
      },
      {
        "length": 32,
        "start": 5693
      },
      {
        "length": 32,
        "start": 5865
      },
      {
        "length": 32,
        "start": 7409
      },
      {
        "length": 32,
        "start": 8684
      }
    ]
  },
  "inputSourceName": "project/contracts/FundRaisingCore.sol",
  "buildInfoId": "solc-0_8_28-2635bad22b3955cac2907846eca58873bab7f993"
}