{
  "_format": "hh3-artifact-1",
  "contractName": "DZNFT",
  "sourceName": "contracts/DZNFT.sol",
  "abi": [
    {
      "inputs": [],
      "stateMutability": "nonpayable",
      "type": "constructor"
    },
    {
      "inputs": [],
      "name": "AccessControlBadConfirmation",
      "type": "error"
    },
    {
      "inputs": [
        {
          "internalType": "address",
          "name": "account",
          "type": "address"
        },
        {
          "internalType": "bytes32",
          "name": "neededRole",
          "type": "bytes32"
        }
      ],
      "name": "AccessControlUnauthorizedAccount",
      "type": "error"
    },
    {
      "inputs": [
        {
          "internalType": "address",
          "name": "sender",
          "type": "address"
        },
        {
          "internalType": "uint256",
          "name": "tokenId",
          "type": "uint256"
        },
        {
          "internalType": "address",
          "name": "owner",
          "type": "address"
        }
      ],
      "name": "ERC721IncorrectOwner",
      "type": "error"
    },
    {
      "inputs": [
        {
          "internalType": "address",
          "name": "operator",
          "type": "address"
        },
        {
          "internalType": "uint256",
          "name": "tokenId",
          "type": "uint256"
        }
      ],
      "name": "ERC721InsufficientApproval",
      "type": "error"
    },
    {
      "inputs": [
        {
          "internalType": "address",
          "name": "approver",
          "type": "address"
        }
      ],
      "name": "ERC721InvalidApprover",
      "type": "error"
    },
    {
      "inputs": [
        {
          "internalType": "address",
          "name": "operator",
          "type": "address"
        }
      ],
      "name": "ERC721InvalidOperator",
      "type": "error"
    },
    {
      "inputs": [
        {
          "internalType": "address",
          "name": "owner",
          "type": "address"
        }
      ],
      "name": "ERC721InvalidOwner",
      "type": "error"
    },
    {
      "inputs": [
        {
          "internalType": "address",
          "name": "receiver",
          "type": "address"
        }
      ],
      "name": "ERC721InvalidReceiver",
      "type": "error"
    },
    {
      "inputs": [
        {
          "internalType": "address",
          "name": "sender",
          "type": "address"
        }
      ],
      "name": "ERC721InvalidSender",
      "type": "error"
    },
    {
      "inputs": [
        {
          "internalType": "uint256",
          "name": "tokenId",
          "type": "uint256"
        }
      ],
      "name": "ERC721NonexistentToken",
      "type": "error"
    },
    {
      "inputs": [],
      "name": "EnforcedPause",
      "type": "error"
    },
    {
      "inputs": [],
      "name": "ExpectedPause",
      "type": "error"
    },
    {
      "inputs": [
        {
          "internalType": "address",
          "name": "owner",
          "type": "address"
        }
      ],
      "name": "OwnableInvalidOwner",
      "type": "error"
    },
    {
      "inputs": [
        {
          "internalType": "address",
          "name": "account",
          "type": "address"
        }
      ],
      "name": "OwnableUnauthorizedAccount",
      "type": "error"
    },
    {
      "anonymous": false,
      "inputs": [
        {
          "indexed": true,
          "internalType": "address",
          "name": "owner",
          "type": "address"
        },
        {
          "indexed": true,
          "internalType": "address",
          "name": "approved",
          "type": "address"
        },
        {
          "indexed": true,
          "internalType": "uint256",
          "name": "tokenId",
          "type": "uint256"
        }
      ],
      "name": "Approval",
      "type": "event"
    },
    {
      "anonymous": false,
      "inputs": [
        {
          "indexed": true,
          "internalType": "address",
          "name": "owner",
          "type": "address"
        },
        {
          "indexed": true,
          "internalType": "address",
          "name": "operator",
          "type": "address"
        },
        {
          "indexed": false,
          "internalType": "bool",
          "name": "approved",
          "type": "bool"
        }
      ],
      "name": "ApprovalForAll",
      "type": "event"
    },
    {
      "anonymous": false,
      "inputs": [
        {
          "indexed": false,
          "internalType": "string",
          "name": "newBaseURI",
          "type": "string"
        }
      ],
      "name": "BaseURIUpdated",
      "type": "event"
    },
    {
      "anonymous": false,
      "inputs": [
        {
          "indexed": true,
          "internalType": "address",
          "name": "account",
          "type": "address"
        },
        {
          "indexed": false,
          "internalType": "bool",
          "name": "granted",
          "type": "bool"
        }
      ],
      "name": "ExecutorRoleUpdated",
      "type": "event"
    },
    {
      "anonymous": false,
      "inputs": [
        {
          "indexed": true,
          "internalType": "uint256",
          "name": "tokenId",
          "type": "uint256"
        },
        {
          "indexed": false,
          "internalType": "string",
          "name": "metadata",
          "type": "string"
        }
      ],
      "name": "MetadataStamped",
      "type": "event"
    },
    {
      "anonymous": false,
      "inputs": [
        {
          "indexed": true,
          "internalType": "uint256",
          "name": "tokenId",
          "type": "uint256"
        },
        {
          "indexed": true,
          "internalType": "address",
          "name": "owner",
          "type": "address"
        }
      ],
      "name": "NFTBurned",
      "type": "event"
    },
    {
      "anonymous": false,
      "inputs": [
        {
          "indexed": true,
          "internalType": "uint256",
          "name": "tokenId",
          "type": "uint256"
        },
        {
          "indexed": true,
          "internalType": "address",
          "name": "buyer",
          "type": "address"
        },
        {
          "indexed": true,
          "internalType": "uint256",
          "name": "roundId",
          "type": "uint256"
        },
        {
          "indexed": false,
          "internalType": "uint256",
          "name": "tokenPrice",
          "type": "uint256"
        },
        {
          "indexed": false,
          "internalType": "uint256",
          "name": "rewardPercentage",
          "type": "uint256"
        }
      ],
      "name": "NFTMinted",
      "type": "event"
    },
    {
      "anonymous": false,
      "inputs": [
        {
          "indexed": true,
          "internalType": "address",
          "name": "previousOwner",
          "type": "address"
        },
        {
          "indexed": true,
          "internalType": "address",
          "name": "newOwner",
          "type": "address"
        }
      ],
      "name": "OwnershipTransferred",
      "type": "event"
    },
    {
      "anonymous": false,
      "inputs": [
        {
          "indexed": false,
          "internalType": "address",
          "name": "account",
          "type": "address"
        }
      ],
      "name": "Paused",
      "type": "event"
    },
    {
      "anonymous": false,
      "inputs": [
        {
          "indexed": true,
          "internalType": "uint256",
          "name": "tokenId",
          "type": "uint256"
        },
        {
          "indexed": true,
          "internalType": "address",
          "name": "claimer",
          "type": "address"
        }
      ],
      "name": "RewardClaimed",
      "type": "event"
    },
    {
      "anonymous": false,
      "inputs": [
        {
          "indexed": true,
          "internalType": "bytes32",
          "name": "role",
          "type": "bytes32"
        },
        {
          "indexed": true,
          "internalType": "bytes32",
          "name": "previousAdminRole",
          "type": "bytes32"
        },
        {
          "indexed": true,
          "internalType": "bytes32",
          "name": "newAdminRole",
          "type": "bytes32"
        }
      ],
      "name": "RoleAdminChanged",
      "type": "event"
    },
    {
      "anonymous": false,
      "inputs": [
        {
          "indexed": true,
          "internalType": "bytes32",
          "name": "role",
          "type": "bytes32"
        },
        {
          "indexed": true,
          "internalType": "address",
          "name": "account",
          "type": "address"
        },
        {
          "indexed": true,
          "internalType": "address",
          "name": "sender",
          "type": "address"
        }
      ],
      "name": "RoleGranted",
      "type": "event"
    },
    {
      "anonymous": false,
      "inputs": [
        {
          "indexed": true,
          "internalType": "bytes32",
          "name": "role",
          "type": "bytes32"
        },
        {
          "indexed": true,
          "internalType": "address",
          "name": "account",
          "type": "address"
        },
        {
          "indexed": true,
          "internalType": "address",
          "name": "sender",
          "type": "address"
        }
      ],
      "name": "RoleRevoked",
      "type": "event"
    },
    {
      "anonymous": false,
      "inputs": [
        {
          "indexed": true,
          "internalType": "uint256",
          "name": "tokenId",
          "type": "uint256"
        },
        {
          "indexed": false,
          "internalType": "string",
          "name": "newTokenURI",
          "type": "string"
        }
      ],
      "name": "TokenURIUpdated",
      "type": "event"
    },
    {
      "anonymous": false,
      "inputs": [
        {
          "indexed": true,
          "internalType": "address",
          "name": "from",
          "type": "address"
        },
        {
          "indexed": true,
          "internalType": "address",
          "name": "to",
          "type": "address"
        },
        {
          "indexed": true,
          "internalType": "uint256",
          "name": "tokenId",
          "type": "uint256"
        }
      ],
      "name": "Transfer",
      "type": "event"
    },
    {
      "anonymous": false,
      "inputs": [
        {
          "indexed": true,
          "internalType": "uint256",
          "name": "tokenId",
          "type": "uint256"
        },
        {
          "indexed": false,
          "internalType": "bool",
          "name": "locked",
          "type": "bool"
        }
      ],
      "name": "TransferLockUpdated",
      "type": "event"
    },
    {
      "anonymous": false,
      "inputs": [
        {
          "indexed": false,
          "internalType": "address",
          "name": "account",
          "type": "address"
        }
      ],
      "name": "Unpaused",
      "type": "event"
    },
    {
      "inputs": [],
      "name": "DEFAULT_ADMIN_ROLE",
      "outputs": [
        {
          "internalType": "bytes32",
          "name": "",
          "type": "bytes32"
        }
      ],
      "stateMutability": "view",
      "type": "function"
    },
    {
      "inputs": [],
      "name": "EXECUTOR_ROLE",
      "outputs": [
        {
          "internalType": "bytes32",
          "name": "",
          "type": "bytes32"
        }
      ],
      "stateMutability": "view",
      "type": "function"
    },
    {
      "inputs": [
        {
          "internalType": "address",
          "name": "to",
          "type": "address"
        },
        {
          "internalType": "uint256",
          "name": "tokenId",
          "type": "uint256"
        }
      ],
      "name": "approve",
      "outputs": [],
      "stateMutability": "nonpayable",
      "type": "function"
    },
    {
      "inputs": [
        {
          "internalType": "address",
          "name": "owner",
          "type": "address"
        }
      ],
      "name": "balanceOf",
      "outputs": [
        {
          "internalType": "uint256",
          "name": "",
          "type": "uint256"
        }
      ],
      "stateMutability": "view",
      "type": "function"
    },
    {
      "inputs": [],
      "name": "baseURI",
      "outputs": [
        {
          "internalType": "string",
          "name": "",
          "type": "string"
        }
      ],
      "stateMutability": "view",
      "type": "function"
    },
    {
      "inputs": [
        {
          "internalType": "uint256[]",
          "name": "tokenIds",
          "type": "uint256[]"
        },
        {
          "internalType": "address",
          "name": "user",
          "type": "address"
        }
      ],
      "name": "batchCheckOwnership",
      "outputs": [
        {
          "internalType": "bool[]",
          "name": "ownedTokens",
          "type": "bool[]"
        }
      ],
      "stateMutability": "view",
      "type": "function"
    },
    {
      "inputs": [
        {
          "internalType": "uint256[]",
          "name": "tokenIds",
          "type": "uint256[]"
        }
      ],
      "name": "batchGetInvestmentData",
      "outputs": [
        {
          "components": [
            {
              "internalType": "uint256",
              "name": "tokenId",
              "type": "uint256"
            },
            {
              "internalType": "uint256",
              "name": "roundId",
              "type": "uint256"
            },
            {
              "internalType": "uint256",
              "name": "tokenPrice",
              "type": "uint256"
            },
            {
              "internalType": "uint256",
              "name": "rewardPercentage",
              "type": "uint256"
            },
            {
              "internalType": "uint256",
              "name": "totalTokenOpenInvestment",
              "type": "uint256"
            },
            {
              "internalType": "uint256",
              "name": "purchaseTimestamp",
              "type": "uint256"
            },
            {
              "internalType": "uint256",
              "name": "closeDateInvestment",
              "type": "uint256"
            },
            {
              "internalType": "uint256",
              "name": "endDateInvestment",
              "type": "uint256"
            },
            {
              "internalType": "address",
              "name": "originalBuyer",
              "type": "address"
            },
            {
              "internalType": "bool",
              "name": "redeemed",
              "type": "bool"
            },
            {
              "internalType": "bool",
              "name": "rewardClaimed",
              "type": "bool"
            },
            {
              "internalType": "bool",
              "name": "transferLocked",
              "type": "bool"
            },
            {
              "internalType": "string",
              "name": "metadata",
              "type": "string"
            }
          ],
          "internalType": "struct DZNFT.InvestmentData[]",
          "name": "investments",
          "type": "tuple[]"
        }
      ],
      "stateMutability": "view",
      "type": "function"
    },
    {
      "inputs": [
        {
          "internalType": "address",
          "name": "to",
          "type": "address"
        },
        {
          "internalType": "uint256",
          "name": "count",
          "type": "uint256"
        },
        {
          "internalType": "uint256",
          "name": "roundId",
          "type": "uint256"
        },
        {
          "internalType": "uint256",
          "name": "tokenPrice",
          "type": "uint256"
        },
        {
          "internalType": "uint256",
          "name": "rewardPercentage",
          "type": "uint256"
        },
        {
          "internalType": "uint256",
          "name": "totalTokenOpenInvestment",
          "type": "uint256"
        },
        {
          "internalType": "uint256",
          "name": "closeDateInvestment",
          "type": "uint256"
        },
        {
          "internalType": "uint256",
          "name": "endDateInvestment",
          "type": "uint256"
        }
      ],
      "name": "batchMintNFT",
      "outputs": [
        {
          "internalType": "uint256[]",
          "name": "tokenIds",
          "type": "uint256[]"
        }
      ],
      "stateMutability": "nonpayable",
      "type": "function"
    },
    {
      "inputs": [
        {
          "internalType": "uint256",
          "name": "tokenId",
          "type": "uint256"
        }
      ],
      "name": "burn",
      "outputs": [],
      "stateMutability": "nonpayable",
      "type": "function"
    },
    {
      "inputs": [
        {
          "internalType": "uint256",
          "name": "tokenId",
          "type": "uint256"
        }
      ],
      "name": "canClaimEarlyReward",
      "outputs": [
        {
          "internalType": "bool",
          "name": "",
          "type": "bool"
        }
      ],
      "stateMutability": "view",
      "type": "function"
    },
    {
      "inputs": [
        {
          "internalType": "uint256",
          "name": "tokenId",
          "type": "uint256"
        }
      ],
      "name": "canFullyRedeem",
      "outputs": [
        {
          "internalType": "bool",
          "name": "",
          "type": "bool"
        }
      ],
      "stateMutability": "view",
      "type": "function"
    },
    {
      "inputs": [
        {
          "internalType": "uint256",
          "name": "tokenId",
          "type": "uint256"
        }
      ],
      "name": "getApproved",
      "outputs": [
        {
          "internalType": "address",
          "name": "",
          "type": "address"
        }
      ],
      "stateMutability": "view",
      "type": "function"
    },
    {
      "inputs": [
        {
          "internalType": "uint256",
          "name": "tokenId",
          "type": "uint256"
        }
      ],
      "name": "getInvestmentData",
      "outputs": [
        {
          "components": [
            {
              "internalType": "uint256",
              "name": "tokenId",
              "type": "uint256"
            },
            {
              "internalType": "uint256",
              "name": "roundId",
              "type": "uint256"
            },
            {
              "internalType": "uint256",
              "name": "tokenPrice",
              "type": "uint256"
            },
            {
              "internalType": "uint256",
              "name": "rewardPercentage",
              "type": "uint256"
            },
            {
              "internalType": "uint256",
              "name": "totalTokenOpenInvestment",
              "type": "uint256"
            },
            {
              "internalType": "uint256",
              "name": "purchaseTimestamp",
              "type": "uint256"
            },
            {
              "internalType": "uint256",
              "name": "closeDateInvestment",
              "type": "uint256"
            },
            {
              "internalType": "uint256",
              "name": "endDateInvestment",
              "type": "uint256"
            },
            {
              "internalType": "address",
              "name": "originalBuyer",
              "type": "address"
            },
            {
              "internalType": "bool",
              "name": "redeemed",
              "type": "bool"
            },
            {
              "internalType": "bool",
              "name": "rewardClaimed",
              "type": "bool"
            },
            {
              "internalType": "bool",
              "name": "transferLocked",
              "type": "bool"
            },
            {
              "internalType": "string",
              "name": "metadata",
              "type": "string"
            }
          ],
          "internalType": "struct DZNFT.InvestmentData",
          "name": "",
          "type": "tuple"
        }
      ],
      "stateMutability": "view",
      "type": "function"
    },
    {
      "inputs": [
        {
          "internalType": "bytes32",
          "name": "role",
          "type": "bytes32"
        }
      ],
      "name": "getRoleAdmin",
      "outputs": [
        {
          "internalType": "bytes32",
          "name": "",
          "type": "bytes32"
        }
      ],
      "stateMutability": "view",
      "type": "function"
    },
    {
      "inputs": [
        {
          "internalType": "address",
          "name": "walletAddress",
          "type": "address"
        }
      ],
      "name": "getWalletNFTSummary",
      "outputs": [
        {
          "internalType": "uint256",
          "name": "totalNFTs",
          "type": "uint256"
        },
        {
          "internalType": "uint256",
          "name": "activeInvestments",
          "type": "uint256"
        },
        {
          "internalType": "uint256",
          "name": "redeemedInvestments",
          "type": "uint256"
        },
        {
          "internalType": "uint256",
          "name": "claimedRewards",
          "type": "uint256"
        },
        {
          "internalType": "uint256",
          "name": "totalInvestedValue",
          "type": "uint256"
        },
        {
          "internalType": "uint256",
          "name": "totalExpectedRewards",
          "type": "uint256"
        },
        {
          "internalType": "uint256",
          "name": "claimableAmount",
          "type": "uint256"
        }
      ],
      "stateMutability": "view",
      "type": "function"
    },
    {
      "inputs": [
        {
          "internalType": "address",
          "name": "walletAddress",
          "type": "address"
        },
        {
          "internalType": "uint256",
          "name": "offset",
          "type": "uint256"
        },
        {
          "internalType": "uint256",
          "name": "limit",
          "type": "uint256"
        }
      ],
      "name": "getWalletNFTsPaginated",
      "outputs": [
        {
          "internalType": "uint256[]",
          "name": "tokenIds",
          "type": "uint256[]"
        },
        {
          "components": [
            {
              "internalType": "uint256",
              "name": "tokenId",
              "type": "uint256"
            },
            {
              "internalType": "uint256",
              "name": "roundId",
              "type": "uint256"
            },
            {
              "internalType": "uint256",
              "name": "tokenPrice",
              "type": "uint256"
            },
            {
              "internalType": "uint256",
              "name": "rewardPercentage",
              "type": "uint256"
            },
            {
              "internalType": "uint256",
              "name": "totalTokenOpenInvestment",
              "type": "uint256"
            },
            {
              "internalType": "uint256",
              "name": "purchaseTimestamp",
              "type": "uint256"
            },
            {
              "internalType": "uint256",
              "name": "closeDateInvestment",
              "type": "uint256"
            },
            {
              "internalType": "uint256",
              "name": "endDateInvestment",
              "type": "uint256"
            },
            {
              "internalType": "address",
              "name": "originalBuyer",
              "type": "address"
            },
            {
              "internalType": "bool",
              "name": "redeemed",
              "type": "bool"
            },
            {
              "internalType": "bool",
              "name": "rewardClaimed",
              "type": "bool"
            },
            {
              "internalType": "bool",
              "name": "transferLocked",
              "type": "bool"
            },
            {
              "internalType": "string",
              "name": "metadata",
              "type": "string"
            }
          ],
          "internalType": "struct DZNFT.InvestmentData[]",
          "name": "investmentDetails",
          "type": "tuple[]"
        },
        {
          "internalType": "uint256",
          "name": "totalTokens",
          "type": "uint256"
        },
        {
          "internalType": "uint256",
          "name": "totalPages",
          "type": "uint256"
        },
        {
          "internalType": "uint256",
          "name": "currentPage",
          "type": "uint256"
        },
        {
          "internalType": "bool",
          "name": "hasMore",
          "type": "bool"
        }
      ],
      "stateMutability": "view",
      "type": "function"
    },
    {
      "inputs": [
        {
          "internalType": "address",
          "name": "walletAddress",
          "type": "address"
        }
      ],
      "name": "getWalletTokenIds",
      "outputs": [
        {
          "internalType": "uint256[]",
          "name": "tokenIds",
          "type": "uint256[]"
        }
      ],
      "stateMutability": "view",
      "type": "function"
    },
    {
      "inputs": [
        {
          "internalType": "bytes32",
          "name": "role",
          "type": "bytes32"
        },
        {
          "internalType": "address",
          "name": "account",
          "type": "address"
        }
      ],
      "name": "grantRole",
      "outputs": [],
      "stateMutability": "nonpayable",
      "type": "function"
    },
    {
      "inputs": [
        {
          "internalType": "bytes32",
          "name": "role",
          "type": "bytes32"
        },
        {
          "internalType": "address",
          "name": "account",
          "type": "address"
        }
      ],
      "name": "hasRole",
      "outputs": [
        {
          "internalType": "bool",
          "name": "",
          "type": "bool"
        }
      ],
      "stateMutability": "view",
      "type": "function"
    },
    {
      "inputs": [
        {
          "internalType": "uint256",
          "name": "",
          "type": "uint256"
        }
      ],
      "name": "investmentData",
      "outputs": [
        {
          "internalType": "uint256",
          "name": "tokenId",
          "type": "uint256"
        },
        {
          "internalType": "uint256",
          "name": "roundId",
          "type": "uint256"
        },
        {
          "internalType": "uint256",
          "name": "tokenPrice",
          "type": "uint256"
        },
        {
          "internalType": "uint256",
          "name": "rewardPercentage",
          "type": "uint256"
        },
        {
          "internalType": "uint256",
          "name": "totalTokenOpenInvestment",
          "type": "uint256"
        },
        {
          "internalType": "uint256",
          "name": "purchaseTimestamp",
          "type": "uint256"
        },
        {
          "internalType": "uint256",
          "name": "closeDateInvestment",
          "type": "uint256"
        },
        {
          "internalType": "uint256",
          "name": "endDateInvestment",
          "type": "uint256"
        },
        {
          "internalType": "address",
          "name": "originalBuyer",
          "type": "address"
        },
        {
          "internalType": "bool",
          "name": "redeemed",
          "type": "bool"
        },
        {
          "internalType": "bool",
          "name": "rewardClaimed",
          "type": "bool"
        },
        {
          "internalType": "bool",
          "name": "transferLocked",
          "type": "bool"
        },
        {
          "internalType": "string",
          "name": "metadata",
          "type": "string"
        }
      ],
      "stateMutability": "view",
      "type": "function"
    },
    {
      "inputs": [
        {
          "internalType": "address",
          "name": "owner",
          "type": "address"
        },
        {
          "internalType": "address",
          "name": "operator",
          "type": "address"
        }
      ],
      "name": "isApprovedForAll",
      "outputs": [
        {
          "internalType": "bool",
          "name": "",
          "type": "bool"
        }
      ],
      "stateMutability": "view",
      "type": "function"
    },
    {
      "inputs": [
        {
          "internalType": "address",
          "name": "account",
          "type": "address"
        }
      ],
      "name": "isExecutor",
      "outputs": [
        {
          "internalType": "bool",
          "name": "",
          "type": "bool"
        }
      ],
      "stateMutability": "view",
      "type": "function"
    },
    {
      "inputs": [
        {
          "internalType": "uint256",
          "name": "tokenId",
          "type": "uint256"
        }
      ],
      "name": "isInvestmentMatured",
      "outputs": [
        {
          "internalType": "bool",
          "name": "",
          "type": "bool"
        }
      ],
      "stateMutability": "view",
      "type": "function"
    },
    {
      "inputs": [
        {
          "internalType": "uint256",
          "name": "tokenId",
          "type": "uint256"
        }
      ],
      "name": "isInvestmentOpen",
      "outputs": [
        {
          "internalType": "bool",
          "name": "",
          "type": "bool"
        }
      ],
      "stateMutability": "view",
      "type": "function"
    },
    {
      "inputs": [
        {
          "internalType": "uint256",
          "name": "tokenId",
          "type": "uint256"
        }
      ],
      "name": "isTransferLocked",
      "outputs": [
        {
          "internalType": "bool",
          "name": "",
          "type": "bool"
        }
      ],
      "stateMutability": "view",
      "type": "function"
    },
    {
      "inputs": [
        {
          "internalType": "uint256",
          "name": "tokenId",
          "type": "uint256"
        }
      ],
      "name": "lockTransfer",
      "outputs": [],
      "stateMutability": "nonpayable",
      "type": "function"
    },
    {
      "inputs": [
        {
          "internalType": "uint256",
          "name": "tokenId",
          "type": "uint256"
        }
      ],
      "name": "markAsRedeemed",
      "outputs": [],
      "stateMutability": "nonpayable",
      "type": "function"
    },
    {
      "inputs": [
        {
          "internalType": "uint256",
          "name": "tokenId",
          "type": "uint256"
        }
      ],
      "name": "markRewardClaimed",
      "outputs": [],
      "stateMutability": "nonpayable",
      "type": "function"
    },
    {
      "inputs": [
        {
          "internalType": "address",
          "name": "to",
          "type": "address"
        },
        {
          "internalType": "uint256",
          "name": "roundId",
          "type": "uint256"
        },
        {
          "internalType": "uint256",
          "name": "tokenPrice",
          "type": "uint256"
        },
        {
          "internalType": "uint256",
          "name": "rewardPercentage",
          "type": "uint256"
        },
        {
          "internalType": "uint256",
          "name": "totalTokenOpenInvestment",
          "type": "uint256"
        },
        {
          "internalType": "uint256",
          "name": "closeDateInvestment",
          "type": "uint256"
        },
        {
          "internalType": "uint256",
          "name": "endDateInvestment",
          "type": "uint256"
        }
      ],
      "name": "mintNFT",
      "outputs": [
        {
          "internalType": "uint256",
          "name": "",
          "type": "uint256"
        }
      ],
      "stateMutability": "nonpayable",
      "type": "function"
    },
    {
      "inputs": [],
      "name": "name",
      "outputs": [
        {
          "internalType": "string",
          "name": "",
          "type": "string"
        }
      ],
      "stateMutability": "view",
      "type": "function"
    },
    {
      "inputs": [],
      "name": "owner",
      "outputs": [
        {
          "internalType": "address",
          "name": "",
          "type": "address"
        }
      ],
      "stateMutability": "view",
      "type": "function"
    },
    {
      "inputs": [
        {
          "internalType": "uint256",
          "name": "tokenId",
          "type": "uint256"
        }
      ],
      "name": "ownerOf",
      "outputs": [
        {
          "internalType": "address",
          "name": "",
          "type": "address"
        }
      ],
      "stateMutability": "view",
      "type": "function"
    },
    {
      "inputs": [],
      "name": "pause",
      "outputs": [],
      "stateMutability": "nonpayable",
      "type": "function"
    },
    {
      "inputs": [],
      "name": "paused",
      "outputs": [
        {
          "internalType": "bool",
          "name": "",
          "type": "bool"
        }
      ],
      "stateMutability": "view",
      "type": "function"
    },
    {
      "inputs": [],
      "name": "renounceOwnership",
      "outputs": [],
      "stateMutability": "nonpayable",
      "type": "function"
    },
    {
      "inputs": [
        {
          "internalType": "bytes32",
          "name": "role",
          "type": "bytes32"
        },
        {
          "internalType": "address",
          "name": "callerConfirmation",
          "type": "address"
        }
      ],
      "name": "renounceRole",
      "outputs": [],
      "stateMutability": "nonpayable",
      "type": "function"
    },
    {
      "inputs": [
        {
          "internalType": "bytes32",
          "name": "role",
          "type": "bytes32"
        },
        {
          "internalType": "address",
          "name": "account",
          "type": "address"
        }
      ],
      "name": "revokeRole",
      "outputs": [],
      "stateMutability": "nonpayable",
      "type": "function"
    },
    {
      "inputs": [
        {
          "internalType": "address",
          "name": "from",
          "type": "address"
        },
        {
          "internalType": "address",
          "name": "to",
          "type": "address"
        },
        {
          "internalType": "uint256",
          "name": "tokenId",
          "type": "uint256"
        }
      ],
      "name": "safeTransferFrom",
      "outputs": [],
      "stateMutability": "nonpayable",
      "type": "function"
    },
    {
      "inputs": [
        {
          "internalType": "address",
          "name": "from",
          "type": "address"
        },
        {
          "internalType": "address",
          "name": "to",
          "type": "address"
        },
        {
          "internalType": "uint256",
          "name": "tokenId",
          "type": "uint256"
        },
        {
          "internalType": "bytes",
          "name": "data",
          "type": "bytes"
        }
      ],
      "name": "safeTransferFrom",
      "outputs": [],
      "stateMutability": "nonpayable",
      "type": "function"
    },
    {
      "inputs": [
        {
          "internalType": "address",
          "name": "operator",
          "type": "address"
        },
        {
          "internalType": "bool",
          "name": "approved",
          "type": "bool"
        }
      ],
      "name": "setApprovalForAll",
      "outputs": [],
      "stateMutability": "nonpayable",
      "type": "function"
    },
    {
      "inputs": [
        {
          "internalType": "string",
          "name": "newBaseURI",
          "type": "string"
        }
      ],
      "name": "setBaseURI",
      "outputs": [],
      "stateMutability": "nonpayable",
      "type": "function"
    },
    {
      "inputs": [
        {
          "internalType": "uint256",
          "name": "tokenId",
          "type": "uint256"
        },
        {
          "internalType": "string",
          "name": "newTokenURI",
          "type": "string"
        }
      ],
      "name": "setTokenURI",
      "outputs": [],
      "stateMutability": "nonpayable",
      "type": "function"
    },
    {
      "inputs": [
        {
          "internalType": "uint256",
          "name": "tokenId",
          "type": "uint256"
        },
        {
          "internalType": "string",
          "name": "metadata",
          "type": "string"
        }
      ],
      "name": "stampMetadata",
      "outputs": [],
      "stateMutability": "nonpayable",
      "type": "function"
    },
    {
      "inputs": [
        {
          "internalType": "bytes4",
          "name": "interfaceId",
          "type": "bytes4"
        }
      ],
      "name": "supportsInterface",
      "outputs": [
        {
          "internalType": "bool",
          "name": "",
          "type": "bool"
        }
      ],
      "stateMutability": "view",
      "type": "function"
    },
    {
      "inputs": [],
      "name": "symbol",
      "outputs": [
        {
          "internalType": "string",
          "name": "",
          "type": "string"
        }
      ],
      "stateMutability": "view",
      "type": "function"
    },
    {
      "inputs": [
        {
          "internalType": "uint256",
          "name": "",
          "type": "uint256"
        }
      ],
      "name": "tokenExists",
      "outputs": [
        {
          "internalType": "bool",
          "name": "",
          "type": "bool"
        }
      ],
      "stateMutability": "view",
      "type": "function"
    },
    {
      "inputs": [
        {
          "internalType": "uint256",
          "name": "tokenId",
          "type": "uint256"
        }
      ],
      "name": "tokenURI",
      "outputs": [
        {
          "internalType": "string",
          "name": "",
          "type": "string"
        }
      ],
      "stateMutability": "view",
      "type": "function"
    },
    {
      "inputs": [
        {
          "internalType": "address",
          "name": "from",
          "type": "address"
        },
        {
          "internalType": "address",
          "name": "to",
          "type": "address"
        },
        {
          "internalType": "uint256",
          "name": "tokenId",
          "type": "uint256"
        }
      ],
      "name": "transferFrom",
      "outputs": [],
      "stateMutability": "nonpayable",
      "type": "function"
    },
    {
      "inputs": [
        {
          "internalType": "address",
          "name": "newOwner",
          "type": "address"
        }
      ],
      "name": "transferOwner",
      "outputs": [],
      "stateMutability": "nonpayable",
      "type": "function"
    },
    {
      "inputs": [
        {
          "internalType": "address",
          "name": "newOwner",
          "type": "address"
        }
      ],
      "name": "transferOwnership",
      "outputs": [],
      "stateMutability": "nonpayable",
      "type": "function"
    },
    {
      "inputs": [
        {
          "internalType": "uint256",
          "name": "tokenId",
          "type": "uint256"
        }
      ],
      "name": "unlockTransfer",
      "outputs": [],
      "stateMutability": "nonpayable",
      "type": "function"
    },
    {
      "inputs": [],
      "name": "unpause",
      "outputs": [],
      "stateMutability": "nonpayable",
      "type": "function"
    },
    {
      "inputs": [
        {
          "internalType": "address",
          "name": "account",
          "type": "address"
        },
        {
          "internalType": "bool",
          "name": "grant",
          "type": "bool"
        }
      ],
      "name": "updateExecutorRole",
      "outputs": [],
      "stateMutability": "nonpayable",
      "type": "function"
    }
  ],
  "bytecode": "0x60806040523461039757604080519081016001600160401b038111828210176102cc5760409081526011825270111688125b9d995cdd1b595b9d08139195607a1b602083015280519081016001600160401b038111828210176102cc576040526005815264111693919560da1b602082015281516001600160401b0381116102cc5761008b5f5461039b565b601f811161034a575b50602092601f82116001146102eb57928192935f926102e0575b50508160011b915f199060031b1c1916175f555b80516001600160401b0381116102cc576100dd60015461039b565b601f8111610273575b50602091601f8211600114610213579181925f92610208575b50508160011b915f199060031b1c1916176001555b33156101f55760068054336001600160a01b0319821681179092556001600160a01b03167f8be0079c531659141344cd1fd0a4f28419497f9722a3daafe3b4186f6b6457e05f80a3610165336103e9565b5061016f3361045f565b5061017b600a5461039b565b601f81116101b7575b7f68747470733a2f2f6170692e647a6e66742e636f6d2f6d657461646174612f3e600a5560405161409890816104f38239f35b600a5f526101ef90601f0160051c7fc65a7bb8d6351c1cf70c95a316cc6a92839c986682d98bc35f958f4883f9d2a8908101906103d3565b5f610184565b631e4fbdf760e01b5f525f60045260245ffd5b015190505f806100ff565b601f1982169260015f52805f20915f5b85811061025b57508360019510610243575b505050811b01600155610114565b01515f1960f88460031b161c191690555f8080610235565b91926020600181928685015181550194019201610223565b60015f526102bc907fb10e2d527612073b26eecdfd717e6a320cf44b4afac2b0732d9fcbe2b7fa0cf6601f840160051c810191602085106102c2575b601f0160051c01906103d3565b5f6100e6565b90915081906102af565b634e487b7160e01b5f52604160045260245ffd5b015190505f806100ae565b601f198216935f8052805f20915f5b868110610332575083600195961061031a575b505050811b015f556100c2565b01515f1960f88460031b161c191690555f808061030d565b919260206001819286850151815501940192016102fa565b5f8052610391907f290decd9548b62a8d60345a988386fc84ba6bc95484008f6362f93160ef3e563601f840160051c810191602085106102c257601f0160051c01906103d3565b5f610094565b5f80fd5b90600182811c921680156103c9575b60208310146103b557565b634e487b7160e01b5f52602260045260245ffd5b91607f16916103aa565b8181106103de575050565b5f81556001016103d3565b6001600160a01b0381165f9081525f5160206145cb5f395f51905f52602052604090205460ff1661045a576001600160a01b03165f8181525f5160206145cb5f395f51905f5260205260408120805460ff191660011790553391905f51602061458b5f395f51905f528180a4600190565b505f90565b6001600160a01b0381165f9081525f5160206145ab5f395f51905f52602052604090205460ff1661045a576001600160a01b03165f8181525f5160206145ab5f395f51905f5260205260408120805460ff191660011790553391907fd8aa0f3194971a2a116679f7c2090f6939c8d4e01a2a8d7e41d55e5351469e63905f51602061458b5f395f51905f529080a460019056fe610120806040526004361015610013575f80fd5b5f3560e01c908162923f9e1461237d5750806301ffc9a7146122f657806306fdde031461225457806307bd02651461222d578063081812fc1461220f578063095ea7b314612125578063141f878a14611ff0578063162094c414611e9857806318d8e2a514611d9057806319f477d914611d195780631d3653e314611bfe57806323b872dd14611be7578063248a9ca314611bc1578063293af81a14611ac55780632f2ff15d14611a94578063364b610114611a4c57806336568abe14611a085780633f4ba83a146119a257806342842e0e1461197357806342966c68146117de578063471769ef1461176c5780634fb2e45d1461174b5780635447be0b146116ff57806355f804b3146115925780635a7f04d51461146a5780635c975abb146114485780636352211e146114185780636c0360eb146113fd57806370a08231146113ac578063715018a6146113645780638456cb591461130b5780638da5cb5b146112e35780638e25e2e6146111e657806391d148541461119d57806395d89b41146110d35780639913627f14611086578063a217fddf1461106c578063a22cb46514610fe4578063acb7ebfa14610f0f578063b88d4fde14610e7b578063badd5c4d14610df5578063bed62f3514610d15578063bf725a3c1461094e578063c2bf0fa114610906578063c87b56dd146108cf578063ccdbc50e1461087f578063d547741f14610849578063d9852f8d146107bb578063debfda301461076d578063e01beb9d1461062a578063e985e9c5146105d3578063f2fde38b146105855763f4fb815914610263575f80fd5b346105815760e03660031901126105815761027c6123cc565b335f9081525f516020613fc35f395f51905f5260205260409020546084359160a4359160c435906102af9060ff166129ff565b6102b7613bc5565b6102cb6001600160a01b038316151561310c565b6102d86044351515613154565b606435151580610573575b6102ec9061319f565b6102f78415156131e7565b61030242841161323f565b61030d83821161328a565b6009549261031a846132e0565b6009556040519461032a866123f8565b84865260243560208701526044356040870152606435606087015260808601524260a086015260c085015260e084015260018060a01b0381166101008401525f6101208401525f6101408401525f61016084015260209260405161038e8582612414565b5f8152610180820152825f52600c8452610180600960405f20835181556020840151600182015560408401516002820155606084015160038201556080840151600482015560a0840151600582015560c0840151600682015560e0840151600782015561044c6008820160018060a01b0360018060a01b03610100880151161660018060a01b031982541617815561042d610120870151151582612a81565b61043e610140870151151582612a47565b610160860151151590612a64565b0191015180519060018060401b03821161055f576104748261046e85546126a6565b8561298e565b8590601f83116001146104fc5761049592915f91836104f1575b50506129c6565b90555b815f52600d835260405f20600160ff198254161790556104b88282613be0565b60408051604435815260643585820152602435926001600160a01b03169184915f516020613f635f395f51905f529190a4604051908152f35b015190505f8061048e565b90601f19831691845f52875f20925f5b89828210610549575050908460019594939210610531575b505050811b019055610498565b01515f1960f88460031b161c191690555f8080610524565b600185968293968601518155019501930161050c565b634e487b7160e01b5f52604160045260245ffd5b5061271060643511156102e3565b5f80fd5b346105815760203660031901126105815761059e6123cc565b6105a6613955565b6001600160a01b038116156105c0576105be90613a5a565b005b631e4fbdf760e01b5f525f60045260245ffd5b34610581576040366003190112610581576105ec6123cc565b6105f46123e2565b9060018060a01b03165f52600560205260405f209060018060a01b03165f52602052602060ff60405f2054166040519015158152f35b3461058157610638366125d7565b335f9081525f516020613fc35f395f51905f5260205260409020549192916106629060ff166129ff565b815f52600d60205261067a60ff60405f205416612935565b5f828152600c60205260409020600901926001600160401b03821161055f576106ad826106a786546126a6565b8661298e565b5f93601f83116001146106fe576106dc83805f516020613f835f395f51905f5296975f916106f3575b506129c6565b90555b6106ee604051928392836129d8565b0390a2005b9050840135886106d6565b601f19831694815f5260205f20905f5b8781106107555750845f516020613f835f395f51905f5296971061073c575b5050600183811b0190556106df565b8301355f19600386901b60f8161c19169055858061072d565b9091602060018192858801358155019301910161070e565b34610581576020366003190112610581576107866123cc565b6001600160a01b03165f9081525f516020613fc35f395f51905f52602090815260409182902054915160ff9092161515825290f35b3461058157602036600319011261058157335f9081525f516020613fc35f395f51905f526020526040902054600435906107f79060ff166129ff565b805f52600d60205261080f60ff60405f205416612935565b805f52600c602052600860405f2001600160b01b60ff60b01b198254161790555f516020613f435f395f51905f52602060405160018152a2005b34610581576040366003190112610581576105be6004356108686123e2565b9061087a61087582612d09565b61372e565b6138e4565b346105815760203660031901126105815760e06108a261089d6123cc565b61339c565b94604094919493929351968752602087015260408601526060850152608084015260a083015260c0820152f35b34610581576020366003190112610581576109026108ee6004356132ee565b6040519182916020835260208301906123a8565b0390f35b3461058157602036600319011261058157600435805f52600d60205261093260ff60405f205416612935565b5f52600c6020526020600660405f200154421115604051908152f35b3461058157610100366003190112610581576109686123cc565b602435608052335f9081525f516020613fc35f395f51905f5260205260409020546109959060ff166129ff565b61099d613bc5565b6109b16001600160a01b038216151561310c565b608051151580610d08575b15610ccc576109ce6064351515613154565b6109db608435151561319f565b6109e860a43515156131e7565b6109f54260c4351161323f565b610a0460c43560e4351161328a565b610a0f608051612dec565b60e052602060c0525f905b6080518210610a3c5760405160c05181528061090260c051820160e051612644565b60095491610a49836132e0565b600955828160e05190610a5b9161290d565b5282604051610a69816123f8565b81815260c05181016101005260443561010051526040810190606435825260608101916084358352608082019260a435845260a0830142815260c0840160c435815260e085019160e4358352610100860196600160a01b600190038b1688526101208701945f86526101408801965f88526101608901985f8a526040519b8c60c051610af491612414565b5f808e5261018083019d8e5290815260c051600c90526040902060a081905290518155610100515160018201559051600282015590516003820155905160048201559051600582015590516006820155905160078201559351600890940180546001600160a01b0319166001600160a01b039590951694909417845551610b7d90151584612a81565b511515610b8a9083612a47565b511515610b9691612a64565b51805193906001600160401b03851161055f57610bc785610bbc600960a05101546126a6565b600960a0510161298e565b60c05190601f8611600114610c57579480610bed92600196975f92610c4c5750506129c6565b600960a05101555b805f52600d60c0515260405f208360ff19825416179055610c168185613be0565b604051606435815260843560c051820152604435915f516020613f635f395f51905f526040868060a01b03881693a40190610a1a565b01519050878061048e565b90600960a051015f5260c0515f20915f5b601f1988168110610cb3575091869160019697938794601f19811610610c9b575b505050811b01600960a0510155610bf5565b01515f1960f88460031b161c19169055868080610c89565b81830151845560c0516001909401939283019201610c68565b60405162461bcd60e51b8152602060048201526014602482015273496e76616c696420636f756e742028312d38302960601b6044820152606490fd5b50605060805111156109bc565b3461058157602036600319011261058157335f9081525f516020613fc35f395f51905f52602052604090205460043590610d519060ff166129ff565b805f52600d602052610d6960ff60405f205416612935565b805f52600c60205260ff600860405f20015460a01c1615610db757805f52600c602052600860405f200160ff60b01b1981541690555f516020613f435f395f51905f5260206040515f8152a2005b60405162461bcd60e51b8152602060048201526016602482015275135d5cdd081899481c995919595b595908199a5c9cdd60521b6044820152606490fd5b346105815760207f9440a95c3c13d1dc9ebcfdcf7b9963a680dd7ca9d62246a91a9be07e6de1f86f610e2636612677565b9290610e30613955565b8315610e6157610e41610875612ccf565b610e4a81613768565b505b60405193151584526001600160a01b031692a2005b610e6c610875612ccf565b610e7581613866565b50610e4c565b3461058157608036600319011261058157610e946123cc565b610e9c6123e2565b6064359190604435906001600160401b038411610581573660238501121561058157836004013592610ecd84612820565b93610edb6040519586612414565b8085523660248288010111610581576020815f9260246105be99018389013786010152610f09838383612aab565b33613a8f565b34610581576020366003190112610581576004355f52600c60205260405f20805461090260018301549260ff600282015491600381015460048201546005830154600684015491600785015493610f6d600960088801549701612782565b976040519b8c9b8c5260208c015260408b015260608a0152608089015260a088015260c087015260e086015260018060a01b038116610100860152818160a01c161515610120860152818160a81c16151561014086015260b01c1615156101608401526101a06101808401526101a08301906123a8565b3461058157610ff236612677565b6001600160a01b0390911690811561105957335f52600560205260405f20825f5260205260405f209015159060ff1981541660ff83161790556040519081527f17307eab39ab6107e8899845ad3d59bd9653f200f220920489ca2b5937696c3160203392a3005b50630b61174360e31b5f5260045260245ffd5b34610581575f3660031901126105815760206040515f8152f35b3461058157602036600319011261058157600435805f52600d6020526110b260ff60405f205416612935565b5f52600c602052602060ff600860405f20015460b01c166040519015158152f35b34610581575f366003190112610581576040515f6001546110f3816126a6565b8084529060018116908115611179575060011461111b575b610902836108ee81850382612414565b60015f9081527fb10e2d527612073b26eecdfd717e6a320cf44b4afac2b0732d9fcbe2b7fa0cf6939250905b80821061115f575090915081016020016108ee61110b565b919260018160209254838588010152019101909291611147565b60ff191660208086019190915291151560051b840190910191506108ee905061110b565b34610581576040366003190112610581576111b66123e2565b6004355f52600760205260405f209060018060a01b03165f52602052602060ff60405f2054166040519015158152f35b346105815760203660031901126105815760043561120261285f565b50805f52600d60205261121b60ff60405f205416612935565b5f52600c60205261090260405f206112c960096040519261123b846123f8565b8054845260018101546020850152600281015460408501526003810154606085015260048101546080850152600581015460a0850152600681015460c0850152600781015460e085015260ff600882015460018060a01b038116610100870152818160a01c161515610120870152818160a81c16151561014087015260b01c16151561016085015201612782565b6101808201526040519182916020835260208301906124ab565b34610581575f366003190112610581576006546040516001600160a01b039091168152602090f35b34610581575f36600319011261058157611323613955565b61132b613bc5565b600160ff1960085416176008557f62e78cea01bee320cd4e420270b5ea74000d11b0c9f74754ebdbfc544b05a2586020604051338152a1005b34610581575f3660031901126105815761137c613955565b600680546001600160a01b031981169091555f906001600160a01b03165f516020613fa35f395f51905f528280a3005b34610581576020366003190112610581576001600160a01b036113cd6123cc565b1680156113ea575f526003602052602060405f2054604051908152f35b6322718ad960e21b5f525f60045260245ffd5b34610581575f366003190112610581576109026108ee6126de565b346105815760203660031901126105815760206114366004356135e6565b6040516001600160a01b039091168152f35b34610581575f36600319011261058157602060ff600854166040519015158152f35b3461058157602036600319011261058157600435805f52600d60205261149660ff60405f205416612935565b5f52600c60205260405f206040516114ad816123f8565b815481526001820154602082015260028201546040820152600382015460608201526004820154608082015260058201549060a08101918252600683015460c0820152600783015460e0820152610180611549600960088601549560018060a01b03871661010086015260ff610120860197818160a01c1615158952818160a81c16151561014088015260b01c16151561016086015201612782565b91015251906301e13380820180921161157e576020914210159081611574575b506040519015158152f35b9050511582611569565b634e487b7160e01b5f52601160045260245ffd5b34610581576020366003190112610581576004356001600160401b038111610581576115c29036906004016125aa565b6115ca613955565b6001600160401b03811161055f576115e3600a546126a6565b601f81116116b9575b505f91601f821160011461163d5761161a82805f5160206140435f395f51905f52955f9161163257506129c6565b600a555b61162d604051928392836129d8565b0390a1005b9050830135866106d6565b600a5f9081525f516020613f235f395f51905f5290601f198416905b8181106116a1575093835f5160206140435f395f51905f529510611688575b5050600182811b01600a5561161e565b8201355f19600385901b60f8161c191690558380611678565b83860135835560209586019560019093019201611659565b600a5f526116ef905f516020613f235f395f51905f52601f840160051c810191602085106116f5575b601f0160051c0190612978565b826115ec565b90915081906116e2565b346105815760203660031901126105815761090261173761171e6123cc565b6117326001600160a01b0382161515612d7c565b61397c565b604051918291602083526020830190612644565b34610581576020366003190112610581576117646123cc565b61059e613955565b34610581576060366003190112610581576117b56117c361179b61178e6123cc565b6044359060243590612e1e565b93604096919395965197889760c0895260c0890190612644565b908782036020890152612552565b93604086015260608501526080840152151560a08301520390f35b3461058157602036600319011261058157600435805f52600d60205261180a60ff60405f205416612935565b611813816135e6565b6001600160a01b031633148015611959575b8015611925575b156118e75761183a816135e6565b815f52600d60205260405f2060ff198154169055815f52600c602052611898600960405f205f81555f60018201555f60028201555f60038201555f60048201555f60058201555f60068201555f60078201555f600882015501612d2e565b815f52600b6020526118ac60405f20612d2e565b6118b6338361361a565b506001600160a01b0316907f8f0a80450bfbfadc6d05658c9dc494e43beb79be53b44adbb146c6d5040f87705f80a3005b60405162461bcd60e51b8152602060048201526016602482015275139bdd081bdddb995c881b9bdc88185c1c1c9bdd995960521b6044820152606490fd5b506001600160a01b03611937826135e6565b165f90815260056020908152604080832033845290915290205460ff1661182c565b50336001600160a01b0361196c8361283b565b1614611825565b34610581576105be6119843661260a565b9060405192611994602085612414565b5f8452610f09838383612aab565b34610581575f366003190112610581576119ba613955565b60085460ff8116156119f95760ff19166008557f5db9ee0a495bf2e6ff9c91a7834c1ba4fdd244a5e8aa4e537bd38aeae4b073aa6020604051338152a1005b638dfc202b60e01b5f5260045ffd5b3461058157604036600319011261058157611a216123e2565b336001600160a01b03821603611a3d576105be906004356138e4565b63334bd91960e11b5f5260045ffd5b3461058157602036600319011261058157600435805f52600d602052611a7860ff60405f205416612935565b5f52600c6020526020600760405f200154421015604051908152f35b34610581576040366003190112610581576105be600435611ab36123e2565b90611ac061087582612d09565b6137ed565b34610581576040366003190112610581576004356001600160401b03811161058157611af590369060040161244e565b611afd6123e2565b90805191611b23611b0d84612437565b93611b1b6040519586612414565b808552612437565b602084019290601f19013684376001600160a01b03909116905f5b8151811015611b7957600190836001600160a01b03611b66611b60848761290d565b516135e6565b1614611b72828861290d565b5201611b3e565b50505090604051918291602083019060208452518091526040830191905f5b818110611ba6575050500390f35b82511515845285945060209384019390920191600101611b98565b34610581576020366003190112610581576020611bdf600435612d09565b604051908152f35b34610581576105be611bf83661260a565b91612aab565b3461058157602036600319011261058157600435805f52600d602052611c2a60ff60405f205416612935565b5f52600c60205260405f20604051611c41816123f8565b8154815260018201546020820152600282015460408201526003820154606082015260048201546080820152600582015460a08201908152600683015460c0830152600783015460e083015260088301549160018060a01b038316610100820152610180611cdf600961012084019660ff8760a01c161515885260ff610140860197818160a81c161515895260b01c16151561016086015201612782565b910152519162ed4e00830180931161157e576020924210159182611d0f575b508161157457506040519015158152f35b5115915083611cfe565b3461058157602036600319011261058157335f9081525f516020613fc35f395f51905f52602052604090205460043590611d559060ff166129ff565b805f52600d602052611d6d60ff60405f205416612935565b5f908152600c60205260409020600801805460ff60a01b1916600160a01b179055005b3461058157602036600319011261058157335f9081525f516020613fc35f395f51905f52602052604090205460043590611dcc9060ff166129ff565b805f52600d602052611de460ff60405f205416612935565b805f52600c60205260ff600860405f20015460a81c16611e5a575f818152600c60205260409020600801805461ffff60a81b191661010160a81b1790556001600160a01b03611e32826135e6565b16907f5dd59f4285b36241394b73f8f7ae03d0290b030a86803cf2562ecf33eeb617bd5f80a3005b60405162461bcd60e51b815260206004820152601660248201527514995dd85c9908185b1c9958591e4818db185a5b595960521b6044820152606490fd5b3461058157611ea6366125d7565b6006549192916001600160a01b031633148015611fcc575b15611f8857815f52600d602052611edb60ff60405f205416612935565b5f828152600b60205260409020926001600160401b03821161055f57611f05826106a786546126a6565b5f93601f8311600114611f33576106dc83805f516020613f035f395f51905f5296975f916106f357506129c6565b601f19831694815f5260205f20905f5b878110611f705750845f516020613f035f395f51905f5296971061073c575050600183811b0190556106df565b90916020600181928588013581550193019101611f43565b606460405162461bcd60e51b815260206004820152602060248201527f43616c6c6572206973206e6f74206f776e6572206e6f72206578656375746f726044820152fd5b50335f9081525f516020613fc35f395f51905f52602052604090205460ff16611ebe565b34610581576020366003190112610581576004356001600160401b0381116105815761202090369060040161244e565b61202a81516128be565b905f5b815181101561210f57806120436001928461290d565b515f52600c60205260405f206120ed600960405192612061846123f8565b80548452858101546020850152600281015460408501526003810154606085015260048101546080850152600581015460a0850152600681015460c0850152600781015460e085015260ff6008820154878060a01b038116610100870152818160a01c161515610120870152818160a81c16151561014087015260b01c16151561016085015201612782565b6101808201526120fd828661290d565b52612108818561290d565b500161202d565b6040516020808252819061090290820186612552565b346105815760403660031901126105815761213e6123cc565b60243561214a816135e6565b331515806121fc575b806121cf575b6121bc5781906001600160a01b0384811691167f8c5be1e5ebec7d5bd14f71427d1e84f3dd0314c0f7b2291e5b200ac8c7c3b9255f80a45f90815260046020526040902080546001600160a01b0319166001600160a01b03909216919091179055005b63a9fbf51f60e01b5f523360045260245ffd5b506001600160a01b0381165f90815260056020908152604080832033845290915290205460ff1615612159565b506001600160a01b038116331415612153565b3461058157602036600319011261058157602061143660043561283b565b34610581575f3660031901126105815760206040515f5160206140235f395f51905f528152f35b34610581575f366003190112610581576040515f5f54612273816126a6565b8084529060018116908115611179575060011461229a57610902836108ee81850382612414565b5f8080527f290decd9548b62a8d60345a988386fc84ba6bc95484008f6362f93160ef3e563939250905b8082106122dc575090915081016020016108ee61110b565b9192600181602092548385880101520191019092916122c4565b346105815760203660031901126105815760043563ffffffff60e01b811680910361058157602090637965db0b60e01b811490811561233a57506040519015158152f35b6380ac58cd60e01b81149150811561236c575b811561235b575b5082611569565b6301ffc9a760e01b14905082612354565b635b5e139f60e01b8114915061234d565b34610581576020366003190112610581576020906004355f52600d825260ff60405f20541615158152f35b805180835260209291819084018484015e5f828201840152601f01601f1916010190565b600435906001600160a01b038216820361058157565b602435906001600160a01b038216820361058157565b6101a081019081106001600160401b0382111761055f57604052565b601f909101601f19168101906001600160401b0382119082101761055f57604052565b6001600160401b03811161055f5760051b60200190565b9080601f8301121561058157813561246581612437565b926124736040519485612414565b81845260208085019260051b82010192831161058157602001905b82821061249b5750505090565b813581526020918201910161248e565b906101a061018061254f93805184526020810151602085015260408101516040850152606081015160608501526080810151608085015260a081015160a085015260c081015160c085015260e081015160e085015260018060a01b03610100820151166101008501526101208101511515610120850152610140810151151561014085015261016081015115156101608501520151918161018082015201906123a8565b90565b9080602083519182815201916020808360051b8301019401925f915b83831061257d57505050505090565b909192939460208061259b600193601f1986820301875289516124ab565b9701930193019193929061256e565b9181601f84011215610581578235916001600160401b038311610581576020838186019501011161058157565b9060406003198301126105815760043591602435906001600160401b03821161058157612606916004016125aa565b9091565b6060906003190112610581576004356001600160a01b038116810361058157906024356001600160a01b0381168103610581579060443590565b90602080835192838152019201905f5b8181106126615750505090565b8251845260209384019390920191600101612654565b6040906003190112610581576004356001600160a01b0381168103610581579060243580151581036105815790565b90600182811c921680156126d4575b60208310146126c057565b634e487b7160e01b5f52602260045260245ffd5b91607f16916126b5565b604051905f82600a54916126f1836126a6565b80835292600181169081156127635750600114612717575b61271592500383612414565b565b50600a5f90815290915f516020613f235f395f51905f525b81831061274757505090602061271592820101612709565b602091935080600191548385890101520191019091849261272f565b6020925061271594915060ff191682840152151560051b820101612709565b9060405191825f825492612795846126a6565b80845293600181169081156127fe57506001146127ba575b5061271592500383612414565b90505f9291925260205f20905f915b8183106127e2575050906020612715928201015f6127ad565b60209193508060019154838589010152019101909184926127c9565b90506020925061271594915060ff191682840152151560051b8201015f6127ad565b6001600160401b03811161055f57601f01601f191660200190565b612844816135e6565b505f908152600460205260409020546001600160a01b031690565b6040519061286c826123f8565b6060610180835f81525f60208201525f60408201525f838201525f60808201525f60a08201525f60c08201525f60e08201525f6101008201525f6101208201525f6101408201525f6101608201520152565b906128c882612437565b6128d56040519182612414565b82815280926128e6601f1991612437565b01905f5b8281106128f657505050565b60209061290161285f565b828285010152016128ea565b80518210156129215760209160051b010190565b634e487b7160e01b5f52603260045260245ffd5b1561293c57565b60405162461bcd60e51b8152602060048201526014602482015273151bdad95b88191bd95cc81b9bdd08195e1a5cdd60621b6044820152606490fd5b818110612983575050565b5f8155600101612978565b9190601f811161299d57505050565b612715925f5260205f20906020601f840160051c830193106116f557601f0160051c0190612978565b8160011b915f199060031b1c19161790565b90918060409360208452816020850152848401375f828201840152601f01601f1916010190565b15612a0657565b60405162461bcd60e51b815260206004820152601960248201527821b0b63632b91034b9903737ba1030b71032bc32b1baba37b960391b6044820152606490fd5b805460ff60a81b191691151560a81b60ff60a81b16919091179055565b805460ff60b01b191691151560b01b60ff60b01b16919091179055565b805460ff60a01b191691151560a01b60ff60a01b16919091179055565b9190820180921161157e57565b6001600160a01b0390911691908215612cbc5760ff60085416612c7957813315159384612c1b575b5f828152600260205260409020546001600160a01b03169480612b86575b5084612b65575b805f52600360205260405f2060018154019055815f52600260205260405f208160018060a01b0319825416179055845f516020613fe35f395f51905f525f80a46001600160a01b0316808303612b4d57505050565b6364283d7b60e01b5f5260045260245260445260645ffd5b612b6e82613ec5565b845f52600360205260405f205f198154019055612af8565b90915080612bca575b15612b9c5782905f612af1565b8284612bb457637e27328960e01b5f5260045260245ffd5b63177e802f60e01b5f523360045260245260445ffd5b503384148015612bf9575b80612b8f57505f838152600460205260409020546001600160a01b03163314612b8f565b505f84815260056020908152604080832033845290915290205460ff16612bd5565b905f52600c60205260ff600860405f20015460b01c16612c3c578290612ad3565b60405162461bcd60e51b8152602060048201526015602482015274151bdad95b881d1c985b9cd9995c881b1bd8dad959605a1b6044820152606490fd5b60405162461bcd60e51b815260206004820152601b60248201527a151bdad95b881d1c985b9cd9995c881dda1a5b19481c185d5cd959602a1b6044820152606490fd5b633250574960e11b5f525f60045260245ffd5b5f5160206140235f395f51905f525f5260076020527f6903d7e42e9982a5c1392687e480cd87de20d7af7ae6e45e5afebea960bf9ab95490565b5f526007602052600160405f20015490565b8181029291811591840414171561157e57565b612d3881546126a6565b9081612d42575050565b81601f5f9311600114612d53575055565b81835260208320612d6f91601f0160051c810190600101612978565b8082528160208120915555565b15612d8357565b60405162461bcd60e51b8152602060048201526016602482015275496e76616c69642077616c6c6574206164647265737360501b6044820152606490fd5b9190820391821161157e57565b8115612dd8570490565b634e487b7160e01b5f52601260045260245ffd5b90612df682612437565b612e036040519182612414565b8281528092612e14601f1991612437565b0190602036910137565b909290612e356001600160a01b0382161515612d7c565b82151580613101575b156130bc57612e4c9061397c565b9182519283851080156130b4575b156130715783158015939061306a57612e738386612a9e565b5f19810190811161157e5783612e8891612dce565b915b82945f1461306357612e9c8488612dce565b6001810180911161157e57925b83948888115f1461305d57612ebe8989612dc1565b818111156130555750905b87612ed4838b612a9e565b10948215612ff6575050612ee781612dec565b91612ef1826128be565b985f5b838110612f075750505050959493929190565b80612f1d612f1760019385612a9e565b8561290d565b5180612f29838961290d565b525f52600c6020528b612fe48260405f2092612fd9600960405195612f4d876123f8565b80548752888101546020880152600281015460408801526003810154606088015260048101546080880152600581015460a0880152600681015460c0880152600781015460e088015260ff60088201548a8060a01b0381166101008a0152818160a01c1615156101208a0152818160a81c1615156101408a015260b01c16151561016088015201612782565b61018085015261290d565b52612fef818d61290d565b5001612ef4565b955095505050945060209460405161300e8782612414565b5f81525f368137604051966130238189612414565b5f8852601f1981015f5b81811061303f57505050959493929190565b829061304961285f565b82828d0101520161302d565b905090612ec9565b5f612ebe565b5f92612ea9565b5f91612e8a565b60405162461bcd60e51b815260206004820152601b60248201527a4f6666736574206578636565647320746f74616c20746f6b656e7360281b6044820152606490fd5b508315612e5a565b60405162461bcd60e51b815260206004820152601f60248201527f4c696d6974206d757374206265206265747765656e203120616e6420313030006044820152606490fd5b506064831115612e3e565b1561311357565b60405162461bcd60e51b8152602060048201526019602482015278496e76616c696420726563697069656e74206164647265737360381b6044820152606490fd5b1561315b57565b60405162461bcd60e51b815260206004820152601c60248201527b05072696365206d7573742062652067726561746572207468616e20360241b6044820152606490fd5b156131a657565b60405162461bcd60e51b8152602060048201526019602482015278496e76616c6964207265776172642070657263656e7461676560381b6044820152606490fd5b156131ee57565b60405162461bcd60e51b815260206004820152602360248201527f546f74616c20746f6b656e73206d75737420626520677265617465722074686160448201526206e20360ec1b6064820152608490fd5b1561324657565b60405162461bcd60e51b815260206004820152601c60248201527b436c6f73652064617465206d75737420626520696e2066757475726560201b6044820152606490fd5b1561329157565b60405162461bcd60e51b815260206004820152602160248201527f456e642064617465206d75737420626520616674657220636c6f7365206461746044820152606560f81b6064820152608490fd5b5f19811461157e5760010190565b805f52600d60205261330660ff60405f205416612935565b805f52600b60205261331a60405f20612782565b6133226126de565b90805161339657508051613346575050604051613340602082612414565b5f815290565b600561254f916020806133598196613e00565b6040519684889551918291018487015e8401908282015f8152815193849201905e010164173539b7b760d91b815203601a19810184520182612414565b91505090565b5f9190829081908190819081906133c1906117326001600160a01b0382161515612d7c565b80519687156135cd575f9692965b82518110156135c1576133e2818461290d565b515f52600c60205260405f20936040516133fb816123f8565b855481526001860154602082015260028601549060408101918252600387015491606082019283526004880154906080830191825260058901549160a0840192835260068a015460c085015260078a015460e085015260088a015493600160a01b60019003851661010082015261012081019a8560a01c60ff1615158c526101408201958060a81c60ff161515875260b01c60ff1615156101608301526009016134a490612782565b9061018001525190516134b691612d1b565b938493516134c49085612d1b565b61271090049a8b946134d591612a9e565b9a6134df91612a9e565b8851909c90156135b0576134f2906132e0565b975b82516135a0575b5115613511575b505050506001019692966133cf565b61351c905142612dc1565b62ed4e00811061350257939992936301e1338011613574575160019392919015613561576135569261355091851c90612a9e565b90612a9e565b965b905f8080613502565b6135509061356e93612a9e565b96613558565b90919892505115613589575b50600190613558565b6001919761359991831c90612a9e565b9690613580565b986135aa906132e0565b986134fb565b979d6135bb906132e0565b9d6134f4565b50969796929491929050565b9750505050505050505f905f905f905f905f905f905f90565b5f818152600260205260409020546001600160a01b0316908115613608575090565b637e27328960e01b5f5260045260245ffd5b60ff60085416612c79575f818152600260205260409020546001600160a01b039081169216801515806136a1575b505081613680575b5f81815260026020526040812080546001600160a01b0319169055825f516020613fe35f395f51905f528280a490565b61368981613ec5565b815f52600360205260405f205f198154019055613650565b806136df575b156136b25780613648565b826136ca5750637e27328960e01b5f5260045260245ffd5b63177e802f60e01b5f5260045260245260445ffd5b50808314801561370e575b806136a757505f828152600460205260409020546001600160a01b031681146136a7565b50825f52600560205260405f20815f5260205260ff60405f2054166136ea565b5f81815260076020908152604080832033845290915290205460ff16156137525750565b63e2517d3f60e01b5f523360045260245260445ffd5b6001600160a01b0381165f9081525f516020613fc35f395f51905f52602052604090205460ff166137e8576001600160a01b03165f8181525f516020613fc35f395f51905f5260205260408120805460ff191660011790553391905f5160206140235f395f51905f52905f516020613ee35f395f51905f529080a4600190565b505f90565b5f8181526007602090815260408083206001600160a01b038616845290915290205460ff16613860575f8181526007602090815260408083206001600160a01b0395909516808452949091528120805460ff19166001179055339291905f516020613ee35f395f51905f529080a4600190565b50505f90565b6001600160a01b0381165f9081525f516020613fc35f395f51905f52602052604090205460ff16156137e8576001600160a01b03165f8181525f516020613fc35f395f51905f5260205260408120805460ff191690553391905f5160206140235f395f51905f52905f5160206140035f395f51905f529080a4600190565b5f8181526007602090815260408083206001600160a01b038616845290915290205460ff1615613860575f8181526007602090815260408083206001600160a01b0395909516808452949091528120805460ff19169055339291905f5160206140035f395f51905f529080a4600190565b6006546001600160a01b0316330361396957565b63118cdaa760e01b5f523360045260245ffd5b6009545f805b828110613a06575061399390612dec565b915f905f5b8381106139a6575050505090565b805f52600d60205260ff60405f205416806139e9575b6139c9575b600101613998565b916139e181846139db6001948961290d565b526132e0565b9290506139c1565b506139f3816135e6565b6001600160a01b038381169116146139bc565b805f52600d60205260ff60405f20541680613a3d575b613a29575b600101613982565b90613a356001916132e0565b919050613a21565b50613a47816135e6565b6001600160a01b03858116911614613a1c565b600680546001600160a01b039283166001600160a01b0319821681179092559091165f516020613fa35f395f51905f525f80a3565b823b613a9d575b5050505050565b604051630a85bd0160e11b81526001600160a01b039182166004820152918116602483015260448201939093526080606482015291169160209082908190613ae99060848301906123a8565b03815f865af15f9181613b80575b50613b4c57503d15613b45573d613b0d81612820565b90613b1b6040519283612414565b81523d5f602083013e5b80519081613b405782633250574960e11b5f5260045260245ffd5b602001fd5b6060613b25565b6001600160e01b03191663757a42ff60e11b01613b6e57505f80808080613a96565b633250574960e11b5f5260045260245ffd5b9091506020813d602011613bbd575b81613b9c60209383612414565b8101031261058157516001600160e01b03198116810361058157905f613af7565b3d9150613b8f565b60ff60085416613bd157565b63d93c066560e01b5f5260045ffd5b9060209060405190613bf28383612414565b5f82526001600160a01b038416938415612cbc5760ff60085416613dbd575f8281526002855260409020546001600160a01b03168015159081613d9d575b5f8781526003875260408082208054600101905585825260028852812080546001600160a01b031916891790558490889083905f516020613fe35f395f51905f529080a450613d8a573b613c85575b50505050565b91613cc291819495936040519384928392630a85bd0160e11b84523360048501525f602485015260448401526080606484015260848301906123a8565b03815f885af15f9181613d4a575b50613d255750503d15613d1d573d90613ce882612820565b91613cf66040519384612414565b82523d5f8284013e5b81519182613d1a5783633250574960e11b5f5260045260245ffd5b01fd5b606090613cff565b909291506001600160e01b03191663757a42ff60e11b01613b6e57505f808080613c7f565b9091508381813d8311613d83575b613d628183612414565b8101031261058157516001600160e01b03198116810361058157905f613cd0565b503d613d58565b6339e3563760e11b5f525f60045260245ffd5b613da684613ec5565b805f526003865260405f205f198154019055613c30565b60405162461bcd60e51b815260048101859052601b60248201527a151bdad95b881d1c985b9cd9995c881dda1a5b19481c185d5cd959602a1b6044820152606490fd5b8015613ea5575f81805b613e915750613e1881612820565b90613e266040519283612414565b808252601f19613e3582612820565b013660208401375b80928015613e8a575f19820191821161157e578193600a8206603001928360301161157e578451111561292157600a9260f81b6001600160f81b0319165f1a908401601f01530491613e3d565b5050905090565b90613e9d600a916132e0565b910480613e0a565b50604051613eb4604082612414565b60018152600360fc1b602082015290565b5f90815260046020526040902080546001600160a01b031916905556fe2f8788117e7eff1d82e926ec794901d17c78024a50270940304540a733656f0d931f495b9a8e5d8e61946ea5d61e021f636cfe213a801f97589c18c152e408bdc65a7bb8d6351c1cf70c95a316cc6a92839c986682d98bc35f958f4883f9d2a890e929fbd463dd0bab90901d998cd0d0908551c0e028b559f240ef01b23058be19cc59039f8eb7ba436b5b291277e03e5209d6d8e48c1bdba4716897fc614b990aa07a7d01a8e97dec64df7f721c779f94884dfd3f5a0c61bfc2dd469032661d8be0079c531659141344cd1fd0a4f28419497f9722a3daafe3b4186f6b6457e06903d7e42e9982a5c1392687e480cd87de20d7af7ae6e45e5afebea960bf9ab8ddf252ad1be2c89b69c2b068fc378daa952ba7f163c4a11628f55a4df523b3eff6391f5c32d9c69d2a47ea670b442974b53935d1edc7fd64eb21e047a839171bd8aa0f3194971a2a116679f7c2090f6939c8d4e01a2a8d7e41d55e5351469e636741b2fc379fad678116fe3d4d4b9a1a184ab53ba36b86ad0fa66340b1ab41ada2646970667358221220aae87965219fd2342a5b50706ecb8f23914b0d07355c13585ccc6cbe49dea42e64736f6c634300081c00332f8788117e7eff1d82e926ec794901d17c78024a50270940304540a733656f0d6903d7e42e9982a5c1392687e480cd87de20d7af7ae6e45e5afebea960bf9ab86d5257204ebe7d88fd91ae87941cb2dd9d8062b64ae5a2bd2d28ec40b9fbf6df",
  "linkReferences": {},
  "deployedLinkReferences": {},
  "immutableReferences": {},
  "inputSourceName": "project/contracts/DZNFT.sol",
  "buildInfoId": "solc-0_8_28-dcc16f4c7b3b912a19d4185ba8d690c1e3908dc1"
}