{
  "_format": "hh3-artifact-1",
  "contractName": "FundRaisingAnalytics",
  "sourceName": "contracts/FundRaisingAnalytics.sol",
  "abi": [
    {
      "inputs": [
        {
          "internalType": "address",
          "name": "_coreContract",
          "type": "address"
        }
      ],
      "stateMutability": "nonpayable",
      "type": "constructor"
    },
    {
      "inputs": [
        {
          "internalType": "uint256",
          "name": "size",
          "type": "uint256"
        },
        {
          "internalType": "uint256",
          "name": "maxSize",
          "type": "uint256"
        }
      ],
      "name": "ArrayTooLarge",
      "type": "error"
    },
    {
      "inputs": [],
      "name": "CalculationOverflow",
      "type": "error"
    },
    {
      "inputs": [],
      "name": "EmergencyPaused",
      "type": "error"
    },
    {
      "inputs": [],
      "name": "InvalidAddress",
      "type": "error"
    },
    {
      "inputs": [
        {
          "internalType": "address",
          "name": "owner",
          "type": "address"
        }
      ],
      "name": "OwnableInvalidOwner",
      "type": "error"
    },
    {
      "inputs": [
        {
          "internalType": "address",
          "name": "account",
          "type": "address"
        }
      ],
      "name": "OwnableUnauthorizedAccount",
      "type": "error"
    },
    {
      "inputs": [],
      "name": "RateLimitError",
      "type": "error"
    },
    {
      "inputs": [],
      "name": "ReentrancyGuardReentrantCall",
      "type": "error"
    },
    {
      "inputs": [
        {
          "internalType": "uint256",
          "name": "tokenId",
          "type": "uint256"
        }
      ],
      "name": "TokenNotExists",
      "type": "error"
    },
    {
      "inputs": [],
      "name": "UnauthorizedContract",
      "type": "error"
    },
    {
      "anonymous": false,
      "inputs": [
        {
          "indexed": true,
          "internalType": "address",
          "name": "admin",
          "type": "address"
        }
      ],
      "name": "EmergencyPauseActivated",
      "type": "event"
    },
    {
      "anonymous": false,
      "inputs": [
        {
          "indexed": true,
          "internalType": "address",
          "name": "user",
          "type": "address"
        },
        {
          "indexed": false,
          "internalType": "string",
          "name": "functionName",
          "type": "string"
        },
        {
          "indexed": false,
          "internalType": "uint256",
          "name": "arraySize",
          "type": "uint256"
        }
      ],
      "name": "LargeQueryDetected",
      "type": "event"
    },
    {
      "anonymous": false,
      "inputs": [
        {
          "indexed": true,
          "internalType": "address",
          "name": "previousOwner",
          "type": "address"
        },
        {
          "indexed": true,
          "internalType": "address",
          "name": "newOwner",
          "type": "address"
        }
      ],
      "name": "OwnershipTransferred",
      "type": "event"
    },
    {
      "anonymous": false,
      "inputs": [
        {
          "indexed": true,
          "internalType": "address",
          "name": "user",
          "type": "address"
        },
        {
          "indexed": false,
          "internalType": "uint256",
          "name": "attempts",
          "type": "uint256"
        }
      ],
      "name": "RateLimitExceeded",
      "type": "event"
    },
    {
      "anonymous": false,
      "inputs": [
        {
          "indexed": true,
          "internalType": "address",
          "name": "user",
          "type": "address"
        },
        {
          "indexed": false,
          "internalType": "string",
          "name": "reason",
          "type": "string"
        }
      ],
      "name": "SuspiciousActivity",
      "type": "event"
    },
    {
      "inputs": [],
      "name": "MAX_CALLS_PER_WINDOW",
      "outputs": [
        {
          "internalType": "uint256",
          "name": "",
          "type": "uint256"
        }
      ],
      "stateMutability": "view",
      "type": "function"
    },
    {
      "inputs": [],
      "name": "MAX_ROUNDS_PER_QUERY",
      "outputs": [
        {
          "internalType": "uint256",
          "name": "",
          "type": "uint256"
        }
      ],
      "stateMutability": "view",
      "type": "function"
    },
    {
      "inputs": [],
      "name": "MAX_ROUND_ID",
      "outputs": [
        {
          "internalType": "uint256",
          "name": "",
          "type": "uint256"
        }
      ],
      "stateMutability": "view",
      "type": "function"
    },
    {
      "inputs": [],
      "name": "MAX_TOKENS_PER_QUERY",
      "outputs": [
        {
          "internalType": "uint256",
          "name": "",
          "type": "uint256"
        }
      ],
      "stateMutability": "view",
      "type": "function"
    },
    {
      "inputs": [],
      "name": "RATE_LIMIT_WINDOW",
      "outputs": [
        {
          "internalType": "uint256",
          "name": "",
          "type": "uint256"
        }
      ],
      "stateMutability": "view",
      "type": "function"
    },
    {
      "inputs": [
        {
          "internalType": "address",
          "name": "contractAddr",
          "type": "address"
        }
      ],
      "name": "addWhitelistedContract",
      "outputs": [],
      "stateMutability": "nonpayable",
      "type": "function"
    },
    {
      "inputs": [],
      "name": "coreContract",
      "outputs": [
        {
          "internalType": "contract FundRaisingCore",
          "name": "",
          "type": "address"
        }
      ],
      "stateMutability": "view",
      "type": "function"
    },
    {
      "inputs": [],
      "name": "emergencyPause",
      "outputs": [],
      "stateMutability": "nonpayable",
      "type": "function"
    },
    {
      "inputs": [],
      "name": "emergencyPaused",
      "outputs": [
        {
          "internalType": "bool",
          "name": "",
          "type": "bool"
        }
      ],
      "stateMutability": "view",
      "type": "function"
    },
    {
      "inputs": [],
      "name": "emergencyUnpause",
      "outputs": [],
      "stateMutability": "nonpayable",
      "type": "function"
    },
    {
      "inputs": [],
      "name": "getAllRoundRewardAmount",
      "outputs": [
        {
          "internalType": "uint256",
          "name": "totalRewardPool",
          "type": "uint256"
        }
      ],
      "stateMutability": "view",
      "type": "function"
    },
    {
      "inputs": [],
      "name": "getAllRoundStatistics",
      "outputs": [
        {
          "internalType": "uint256[]",
          "name": "rewardPools",
          "type": "uint256[]"
        },
        {
          "internalType": "uint256[]",
          "name": "investedAmounts",
          "type": "uint256[]"
        },
        {
          "internalType": "uint256[]",
          "name": "roundLedger",
          "type": "uint256[]"
        }
      ],
      "stateMutability": "view",
      "type": "function"
    },
    {
      "inputs": [],
      "name": "getAllRoundsDetail",
      "outputs": [
        {
          "components": [
            {
              "internalType": "uint256",
              "name": "roundId",
              "type": "uint256"
            },
            {
              "internalType": "string",
              "name": "roundName",
              "type": "string"
            },
            {
              "internalType": "uint256",
              "name": "tokenPrice",
              "type": "uint256"
            },
            {
              "internalType": "uint256",
              "name": "rewardPercentage",
              "type": "uint256"
            },
            {
              "internalType": "uint256",
              "name": "totalTokenOpenInvestment",
              "type": "uint256"
            },
            {
              "internalType": "uint256",
              "name": "tokensSold",
              "type": "uint256"
            },
            {
              "internalType": "uint256",
              "name": "closeDateInvestment",
              "type": "uint256"
            },
            {
              "internalType": "uint256",
              "name": "endDateInvestment",
              "type": "uint256"
            },
            {
              "internalType": "bool",
              "name": "isActive",
              "type": "bool"
            },
            {
              "internalType": "bool",
              "name": "exists",
              "type": "bool"
            },
            {
              "internalType": "uint256",
              "name": "createdAt",
              "type": "uint256"
            },
            {
              "internalType": "enum FundRaisingCore.Status",
              "name": "status",
              "type": "uint8"
            }
          ],
          "internalType": "struct FundRaisingCore.InvestmentRound[]",
          "name": "",
          "type": "tuple[]"
        }
      ],
      "stateMutability": "view",
      "type": "function"
    },
    {
      "inputs": [
        {
          "internalType": "address",
          "name": "investor",
          "type": "address"
        }
      ],
      "name": "getAllTokensOwnedBy",
      "outputs": [
        {
          "internalType": "uint256[]",
          "name": "",
          "type": "uint256[]"
        }
      ],
      "stateMutability": "view",
      "type": "function"
    },
    {
      "inputs": [
        {
          "internalType": "address",
          "name": "walletAddress",
          "type": "address"
        }
      ],
      "name": "getDividendEarning",
      "outputs": [
        {
          "internalType": "uint256",
          "name": "dividendEarned",
          "type": "uint256"
        },
        {
          "internalType": "uint256",
          "name": "dividendPending",
          "type": "uint256"
        }
      ],
      "stateMutability": "view",
      "type": "function"
    },
    {
      "inputs": [],
      "name": "getGasUsageStats",
      "outputs": [
        {
          "internalType": "uint256[]",
          "name": "",
          "type": "uint256[]"
        }
      ],
      "stateMutability": "view",
      "type": "function"
    },
    {
      "inputs": [
        {
          "internalType": "uint256",
          "name": "roundId",
          "type": "uint256"
        }
      ],
      "name": "getInvestmentRound",
      "outputs": [
        {
          "components": [
            {
              "internalType": "uint256",
              "name": "roundId",
              "type": "uint256"
            },
            {
              "internalType": "string",
              "name": "roundName",
              "type": "string"
            },
            {
              "internalType": "uint256",
              "name": "tokenPrice",
              "type": "uint256"
            },
            {
              "internalType": "uint256",
              "name": "rewardPercentage",
              "type": "uint256"
            },
            {
              "internalType": "uint256",
              "name": "totalTokenOpenInvestment",
              "type": "uint256"
            },
            {
              "internalType": "uint256",
              "name": "tokensSold",
              "type": "uint256"
            },
            {
              "internalType": "uint256",
              "name": "closeDateInvestment",
              "type": "uint256"
            },
            {
              "internalType": "uint256",
              "name": "endDateInvestment",
              "type": "uint256"
            },
            {
              "internalType": "bool",
              "name": "isActive",
              "type": "bool"
            },
            {
              "internalType": "bool",
              "name": "exists",
              "type": "bool"
            },
            {
              "internalType": "uint256",
              "name": "createdAt",
              "type": "uint256"
            },
            {
              "internalType": "uint8",
              "name": "status",
              "type": "uint8"
            }
          ],
          "internalType": "struct FundRaisingAnalytics.InvestmentRound",
          "name": "round",
          "type": "tuple"
        },
        {
          "internalType": "bool",
          "name": "enableClaimReward",
          "type": "bool"
        }
      ],
      "stateMutability": "view",
      "type": "function"
    },
    {
      "inputs": [
        {
          "internalType": "address",
          "name": "investor",
          "type": "address"
        }
      ],
      "name": "getInvestorRounds",
      "outputs": [
        {
          "internalType": "uint256[]",
          "name": "roundIds",
          "type": "uint256[]"
        }
      ],
      "stateMutability": "view",
      "type": "function"
    },
    {
      "inputs": [
        {
          "internalType": "address",
          "name": "investor",
          "type": "address"
        }
      ],
      "name": "getInvestorRoundsDetail",
      "outputs": [
        {
          "components": [
            {
              "internalType": "uint256",
              "name": "roundId",
              "type": "uint256"
            },
            {
              "internalType": "string",
              "name": "roundName",
              "type": "string"
            },
            {
              "internalType": "uint256",
              "name": "tokenPrice",
              "type": "uint256"
            },
            {
              "internalType": "uint256",
              "name": "rewardPercentage",
              "type": "uint256"
            },
            {
              "internalType": "uint256",
              "name": "totalTokenOpenInvestment",
              "type": "uint256"
            },
            {
              "internalType": "uint256",
              "name": "tokensSold",
              "type": "uint256"
            },
            {
              "internalType": "uint256",
              "name": "closeDateInvestment",
              "type": "uint256"
            },
            {
              "internalType": "uint256",
              "name": "endDateInvestment",
              "type": "uint256"
            },
            {
              "internalType": "bool",
              "name": "isActive",
              "type": "bool"
            },
            {
              "internalType": "bool",
              "name": "exists",
              "type": "bool"
            },
            {
              "internalType": "uint256",
              "name": "createdAt",
              "type": "uint256"
            },
            {
              "internalType": "enum FundRaisingCore.Status",
              "name": "status",
              "type": "uint8"
            }
          ],
          "internalType": "struct FundRaisingCore.InvestmentRound[]",
          "name": "",
          "type": "tuple[]"
        }
      ],
      "stateMutability": "view",
      "type": "function"
    },
    {
      "inputs": [
        {
          "internalType": "address",
          "name": "investor",
          "type": "address"
        }
      ],
      "name": "getInvestorSummary",
      "outputs": [
        {
          "internalType": "uint256",
          "name": "totalTokensOwned",
          "type": "uint256"
        },
        {
          "internalType": "uint256[]",
          "name": "nftTokenIds",
          "type": "uint256[]"
        },
        {
          "internalType": "uint256",
          "name": "totalInvestment",
          "type": "uint256"
        },
        {
          "internalType": "uint256",
          "name": "dividendsEarned",
          "type": "uint256"
        }
      ],
      "stateMutability": "view",
      "type": "function"
    },
    {
      "inputs": [
        {
          "internalType": "address",
          "name": "user",
          "type": "address"
        }
      ],
      "name": "getRateLimitInfo",
      "outputs": [
        {
          "internalType": "uint256",
          "name": "lastCall",
          "type": "uint256"
        },
        {
          "internalType": "uint256",
          "name": "callsInWindow",
          "type": "uint256"
        }
      ],
      "stateMutability": "view",
      "type": "function"
    },
    {
      "inputs": [
        {
          "internalType": "uint256",
          "name": "roundId",
          "type": "uint256"
        }
      ],
      "name": "getRoundInvestedAmount",
      "outputs": [
        {
          "internalType": "uint256",
          "name": "",
          "type": "uint256"
        }
      ],
      "stateMutability": "view",
      "type": "function"
    },
    {
      "inputs": [
        {
          "internalType": "uint256",
          "name": "roundId",
          "type": "uint256"
        }
      ],
      "name": "getRoundTokenIds",
      "outputs": [
        {
          "internalType": "uint256[]",
          "name": "",
          "type": "uint256[]"
        }
      ],
      "stateMutability": "view",
      "type": "function"
    },
    {
      "inputs": [],
      "name": "getRoundsCount",
      "outputs": [
        {
          "internalType": "uint256",
          "name": "totalRounds",
          "type": "uint256"
        },
        {
          "internalType": "uint256",
          "name": "activeRounds",
          "type": "uint256"
        }
      ],
      "stateMutability": "view",
      "type": "function"
    },
    {
      "inputs": [
        {
          "internalType": "uint256",
          "name": "offset",
          "type": "uint256"
        },
        {
          "internalType": "uint256",
          "name": "limit",
          "type": "uint256"
        }
      ],
      "name": "getRoundsCountPaginated",
      "outputs": [
        {
          "internalType": "uint256",
          "name": "totalRounds",
          "type": "uint256"
        },
        {
          "internalType": "uint256",
          "name": "activeRounds",
          "type": "uint256"
        },
        {
          "internalType": "bool",
          "name": "hasMore",
          "type": "bool"
        }
      ],
      "stateMutability": "view",
      "type": "function"
    },
    {
      "inputs": [
        {
          "internalType": "uint256[]",
          "name": "roundIds",
          "type": "uint256[]"
        }
      ],
      "name": "getRoundsDetail",
      "outputs": [
        {
          "components": [
            {
              "internalType": "uint256",
              "name": "roundId",
              "type": "uint256"
            },
            {
              "internalType": "string",
              "name": "roundName",
              "type": "string"
            },
            {
              "internalType": "uint256",
              "name": "tokenPrice",
              "type": "uint256"
            },
            {
              "internalType": "uint256",
              "name": "rewardPercentage",
              "type": "uint256"
            },
            {
              "internalType": "uint256",
              "name": "totalTokenOpenInvestment",
              "type": "uint256"
            },
            {
              "internalType": "uint256",
              "name": "tokensSold",
              "type": "uint256"
            },
            {
              "internalType": "uint256",
              "name": "closeDateInvestment",
              "type": "uint256"
            },
            {
              "internalType": "uint256",
              "name": "endDateInvestment",
              "type": "uint256"
            },
            {
              "internalType": "bool",
              "name": "isActive",
              "type": "bool"
            },
            {
              "internalType": "bool",
              "name": "exists",
              "type": "bool"
            },
            {
              "internalType": "uint256",
              "name": "createdAt",
              "type": "uint256"
            },
            {
              "internalType": "enum FundRaisingCore.Status",
              "name": "status",
              "type": "uint8"
            }
          ],
          "internalType": "struct FundRaisingCore.InvestmentRound[]",
          "name": "",
          "type": "tuple[]"
        }
      ],
      "stateMutability": "view",
      "type": "function"
    },
    {
      "inputs": [
        {
          "internalType": "uint256",
          "name": "roundId",
          "type": "uint256"
        }
      ],
      "name": "getRoundsRewardPool",
      "outputs": [
        {
          "internalType": "uint256",
          "name": "",
          "type": "uint256"
        }
      ],
      "stateMutability": "view",
      "type": "function"
    },
    {
      "inputs": [
        {
          "internalType": "address",
          "name": "investor",
          "type": "address"
        }
      ],
      "name": "getWalletTokensDetail",
      "outputs": [
        {
          "internalType": "uint256[]",
          "name": "tokenIds",
          "type": "uint256[]"
        },
        {
          "components": [
            {
              "internalType": "uint256",
              "name": "tokenId",
              "type": "uint256"
            },
            {
              "internalType": "uint256",
              "name": "roundId",
              "type": "uint256"
            },
            {
              "internalType": "uint256",
              "name": "tokenPrice",
              "type": "uint256"
            },
            {
              "internalType": "uint256",
              "name": "rewardPercentage",
              "type": "uint256"
            },
            {
              "internalType": "uint256",
              "name": "purchaseTimestamp",
              "type": "uint256"
            },
            {
              "internalType": "uint256",
              "name": "closeDateInvestment",
              "type": "uint256"
            },
            {
              "internalType": "uint256",
              "name": "endDateInvestment",
              "type": "uint256"
            },
            {
              "internalType": "address",
              "name": "originalBuyer",
              "type": "address"
            },
            {
              "internalType": "bool",
              "name": "redeemed",
              "type": "bool"
            },
            {
              "internalType": "bool",
              "name": "rewardClaimed",
              "type": "bool"
            },
            {
              "internalType": "bool",
              "name": "transferLocked",
              "type": "bool"
            },
            {
              "internalType": "string",
              "name": "metadata",
              "type": "string"
            }
          ],
          "internalType": "struct DZNFT.InvestmentData[]",
          "name": "nftsDetail",
          "type": "tuple[]"
        }
      ],
      "stateMutability": "view",
      "type": "function"
    },
    {
      "inputs": [
        {
          "internalType": "uint256",
          "name": "roundId",
          "type": "uint256"
        }
      ],
      "name": "isClaimRewardEnabled",
      "outputs": [
        {
          "internalType": "bool",
          "name": "",
          "type": "bool"
        }
      ],
      "stateMutability": "view",
      "type": "function"
    },
    {
      "inputs": [],
      "name": "owner",
      "outputs": [
        {
          "internalType": "address",
          "name": "",
          "type": "address"
        }
      ],
      "stateMutability": "view",
      "type": "function"
    },
    {
      "inputs": [
        {
          "internalType": "address",
          "name": "contractAddr",
          "type": "address"
        }
      ],
      "name": "removeWhitelistedContract",
      "outputs": [],
      "stateMutability": "nonpayable",
      "type": "function"
    },
    {
      "inputs": [],
      "name": "renounceOwnership",
      "outputs": [],
      "stateMutability": "nonpayable",
      "type": "function"
    },
    {
      "inputs": [
        {
          "internalType": "address",
          "name": "newOwner",
          "type": "address"
        }
      ],
      "name": "transferOwnership",
      "outputs": [],
      "stateMutability": "nonpayable",
      "type": "function"
    },
    {
      "inputs": [
        {
          "internalType": "address",
          "name": "",
          "type": "address"
        }
      ],
      "name": "whitelistedContracts",
      "outputs": [
        {
          "internalType": "bool",
          "name": "",
          "type": "bool"
        }
      ],
      "stateMutability": "view",
      "type": "function"
    }
  ],
  "bytecode": "0x60a03461016b57601f61258838819003918201601f19168301916001600160401b038311848410176101705780849260209460405283398101031261016b57516001600160a01b0381169081900361016b57600160005533156101555760018054336001600160a01b0319821681179092556040519291906001600160a01b03167f8be0079c531659141344cd1fd0a4f28419497f9722a3daafe3b4186f6b6457e0600080a360ff19600554166005558015610144576080526124019081610187823960805181818161025301528181610301015281816103c7015281816104750152818161050b015281816107b60152818161096a01528181610ba101528181610ccb01528181610e3101528181610f3601528181611034015281816113fd015281816115d401528181611b8501528181611d050152818161206c01526122190152f35b63e6c4247b60e01b60005260046000fd5b631e4fbdf760e01b600052600060045260246000fd5b600080fd5b634e487b7160e01b600052604160045260246000fdfe6080604052600436101561001257600080fd5b60003560e01c8063026af01b146116f957806304692d4d146116a55780630ff24ee21461165f5780631033fcd81461165a5780631333217914611624578063161f6622146115a657806327c830a9146115835780632c5d23a5146113b7578063309013471461137357806337cfdebd14611356578063391feebb1461131357806346704adb146112c45780634a4e3bd51461129f57806351858e27146112515780635c8f45b114610ff15780637130dfc914610fd5578063715018a614610f785780637632dffa14610f08578063785b5e9814610d8457806385b71e4e14610d685780638da5cb5b14610d3f5780638debb54614610c88578063934925f614610b81578063a09686c414610b3e578063aea664a514610ad0578063b3ad5c9c14610a7f578063b5f582cf1461094a578063b82e4fc31461072b578063d10f56a6146104eb578063d9e1059714610447578063df0201b014610330578063e80db5db146102eb578063ef2dcbee146102255763f2fde38b1461019257600080fd5b34610220576020366003190112610220576004356001600160a01b03811690819003610220576101c0612032565b801561020a57600180546001600160a01b0319811683179091556001600160a01b03167f8be0079c531659141344cd1fd0a4f28419497f9722a3daafe3b4186f6b6457e0600080a3005b631e4fbdf760e01b600052600060045260246000fd5b600080fd5b3461022057602036600319011261022057604051631a7ef4f360e21b815260048035908201526000816024817f00000000000000000000000000000000000000000000000000000000000000006001600160a01b03165afa80156102df576020916000906000926102ae575b50421190816102a6575b506040519015158152f35b90508261029b565b90506102cd91503d806000833e6102c581836118b2565b810190611acf565b50505097505094505050505083610291565b6040513d6000823e3d90fd5b34610220576000366003190112610220576040517f00000000000000000000000000000000000000000000000000000000000000006001600160a01b03168152602090f35b34610220576020366003190112610220576004356001600160401b03811161022057366023820112156102205780600401359061036c826118d3565b9161037a60405193846118b2565b8083526024602084019160051b8301019136831161022057602401905b82821061043757604051630df0201b60e41b815260206004820152600081806103c3602482018961184c565b03817f00000000000000000000000000000000000000000000000000000000000000006001600160a01b03165afa80156102df5761041091600091610414575b506040519182918261175e565b0390f35b61043191503d806000833e61042981836118b2565b81019061194b565b82610403565b8135815260209182019101610397565b346102205760203660031901126102205760405163b175b32f60e01b815260048035908201526020816024817f00000000000000000000000000000000000000000000000000000000000000006001600160a01b03165afa80156102df576000906104b8575b602090604051908152f35b506020813d6020116104e3575b816104d2602093836118b2565b8101031261022057602090516104ad565b3d91506104c5565b34610220576000366003190112610220576040516330814b1b60e01b81527f00000000000000000000000000000000000000000000000000000000000000006001600160a01b031690602081600481855afa9081156102df576000916106f9575b5061055681611ef1565b9061056081611ef1565b61056982611ef1565b9160005b8181106105b05761059485610410866105a28760405195869560608752606087019061184c565b90858203602087015261184c565b90838203604085015261184c565b60405163b175b32f60e01b8152600481018290526020816024818a5afa9081156102df576000916106c8575b506105e78287611f23565b52604051631adf214f60e31b8152600481018290526020816024818a5afa9081156102df57600091610697575b5061061f8285611f23565b5260405163632d45eb60e01b8152600481018290526020816024818a5afa9081156102df57600091610662575b509060019161065b8287611f23565b520161056d565b906020823d821161068f575b8161067b602093836118b2565b8101031261068c575051600161064c565b80fd5b3d915061066e565b906020823d82116106c0575b816106b0602093836118b2565b8101031261068c57505187610614565b3d91506106a3565b906020823d82116106f1575b816106e1602093836118b2565b8101031261068c575051876105dc565b3d91506106d4565b906020823d602011610723575b81610713602093836118b2565b8101031261068c5750518261054c565b3d9150610706565b3461022057602036600319011261022057600061016060405161074d81611880565b828152606060208201528260408201528260608201528260808201528260a08201528260c08201528260e08201528261010082015282610120820152826101408201520152604051631a7ef4f360e21b8152600435600482015260008160248160018060a01b037f0000000000000000000000000000000000000000000000000000000000000000165afa9081156102df57600091828091819382838081908296839484968598610913575b5060058810156108fd576040519a8b9561081287611880565b8652602086019c8d52604086019a8b52606086019081526080860191825260a0860192835260c0860193845260e086019480865260ff6101606101008901988d15158a5261012081019a15158b5261014081019b8c52019a168a524211998a6108f5575b506040519c8d809d604082525190604001525160608d0161018090526101c08d016108a091611739565b9a5160808d01525160a08c01525160c08b01525160e08a01525161010089015251610120880152511515610140870152511515610160860152516101808501525160ff166101a0840152151560208301520390f35b99508d610876565b634e487b7160e01b600052602160045260246000fd5b9a505050505094505050505061093392503d8091833e6102c581836118b2565b999a9799929792969095919492939291908c6107f9565b34610220576000366003190112610220576040516330814b1b60e01b81527f00000000000000000000000000000000000000000000000000000000000000006001600160a01b0316906000602082600481865afa918215610a72578192610a3a575b50906000925b8184106109c457602083604051908152f35b909160405163b175b32f60e01b8152846004820152602081602481865afa9081156102df57600091610a08575b506109fe90600192611aac565b93019291906109b2565b906020823d8211610a32575b81610a21602093836118b2565b8101031261068c57505160016109f1565b3d9150610a14565b9091506020813d602011610a6a575b81610a56602093836118b2565b81010312610a66575190836109ac565b5080fd5b3d9150610a49565b50604051903d90823e3d90fd5b34610220576020366003190112610220576004356001600160a01b03811690819003610220578060409160005260026020528160002054906000526003602052816000205482519182526020820152f35b3461022057600036600319011261022057610ae9612032565b604051610af760a0826118b2565b60048152602081019060803683375a815115610b28578261041093505260405191829160208352602083019061184c565b634e487b7160e01b600052603260045260246000fd5b346102205760003660031901126102205760ff60055416610b70576040610b63611b67565b5082519182526020820152f35b634cb3183d60e01b60005260046000fd5b34610220576000366003190112610220576040516330814b1b60e01b81527f00000000000000000000000000000000000000000000000000000000000000006001600160a01b0316602082600481845afa9182156102df57600092610c54575b50610beb82611ef1565b9160005b818110610c3f57604051630df0201b60e41b815260206004820152600081858180610c1d602482018b61184c565b03915afa80156102df576104109160009161041457506040519182918261175e565b8080610c4d60019387611f23565b5201610bef565b90916020823d602011610c80575b81610c6f602093836118b2565b8101031261068c5750519082610be1565b3d9150610c62565b34610220576020366003190112610220576004356001600160a01b03811690819003610220576040516346f5daa360e11b815260048101919091526000816024817f00000000000000000000000000000000000000000000000000000000000000006001600160a01b03165afa80156102df5761041091600091610d1c575b5060405191829160208352602083019061184c565b610d3991503d806000833e610d3181836118b2565b810190611ecc565b82610d07565b34610220576000366003190112610220576001546040516001600160a01b039091168152602090f35b3461022057600036600319011261022057602060405160148152f35b34610220576020366003190112610220576004356001600160a01b0381169081900361022057604090716765744469766964656e644561726e696e6760701b60208351610dd185826118b2565b60128152015260ff60055416610b7057333b151580610ef0575b610edf57336000526002602052603c826000205404603c42041480610ec7575b610eb6578015610ea55781516346f5daa360e11b815260048101919091526000816024817f00000000000000000000000000000000000000000000000000000000000000006001600160a01b03165afa8015610e9a57610e7391600091610e7f575b5061205b565b82519182526020820152f35b610e9491503d806000833e610d3181836118b2565b83610e6d565b82513d6000823e3d90fd5b63e6c4247b60e01b60005260046000fd5b6351b2f6e360e11b60005260046000fd5b50336000526003602052601482600020541015610e0b565b6372312d7960e01b60005260046000fd5b5033600052600460205260ff82600020541615610deb565b3461022057602036600319011261022057604051631adf214f60e31b815260048035908201526020816024817f00000000000000000000000000000000000000000000000000000000000000006001600160a01b03165afa80156102df576000906104b857602090604051908152f35b3461022057600036600319011261022057610f91612032565b600180546001600160a01b031981169091556000906001600160a01b03167f8be0079c531659141344cd1fd0a4f28419497f9722a3daafe3b4186f6b6457e08280a3005b34610220576000366003190112610220576020604051603c8152f35b34610220576020366003190112610220576004356001600160a01b0381169081900361022057604051635c8f45b160e01b815260048101919091526000816024817f00000000000000000000000000000000000000000000000000000000000000006001600160a01b03165afa80156102df576000918291611174575b50906110889160405192839260408452604084019061184c565b8281036020840152815180825260208201916020808360051b8301019401926000915b8383106110b85786860387f35b919395509193602080611162600193601f198682030187526101806101608b5180518452858101518685015260408101516040850152606081015160608501526080810151608085015260a081015160a085015260c081015160c0850152878060a01b0360e08201511660e0850152610100810151151561010085015261012081015115156101208501526101408101511515610140850152015191816101608201520190611739565b970193019301909286959492936110ab565b90503d8083833e61118581836118b2565b810160408282031261124d5781516001600160401b03811161124557816111ad918401611e6f565b916020810151906001600160401b038211611249570181601f820112156112455780516111d9816118d3565b946111e760405196876118b2565b81865260208087019260051b84010192848411610a665760208101925b84841061121857505050505050908261106e565b83516001600160401b0381116112455760209161123a88848094870101611f37565b815201930192611204565b8380fd5b8480fd5b8280fd5b346102205760003660031901126102205761126a612032565b600160ff196005541617600555337fd22f4bfe91f61d907b056bd69bbd188a22d589ccc82a2acefd1b909e648f579d600080a2005b34610220576000366003190112610220576112b8612032565b6005805460ff19169055005b34610220576020366003190112610220576004356001600160a01b03811690819003610220576112f2612032565b8015610ea5576000908152600460205260409020805460ff19166001179055005b34610220576020366003190112610220576004356001600160a01b03811690819003610220576000526004602052602060ff604060002054166040519015158152f35b346102205760003660031901126102205760206040516127108152f35b34610220576020366003190112610220576004356001600160a01b0381168103610220576113a3610410916121f2565b60405191829160208352602083019061184c565b34610220576020366003190112610220576004356001600160a01b0381169081900361022057600090801561153e576040516346f5daa360e11b815260048101919091527f00000000000000000000000000000000000000000000000000000000000000006001600160a01b03168282602481845afa918215611533578392611517575b5081519161144883611ef1565b93906000915b81518310156114df576114618383611f23565b519060405191634712f17360e11b83526004830152600082602481885afa9081156102df5760406114b6926001946000916114be575b506114a28787611f23565b516114ad888c611f23565b52015190611aac565b92019161144e565b6114d9913d8091833e6114d181836118b2565b81019061200d565b8a611497565b92506114eb915061205b565b50611508604051948594855260806020860152608085019061184c565b91604084015260608301520390f35b61152c9192503d8085833e610d3181836118b2565b908361143b565b6040513d85823e3d90fd5b60405162461bcd60e51b815260206004820152601860248201527f496e76616c696420696e766573746f72206164647265737300000000000000006044820152606490fd5b3461022057600036600319011261022057602060ff600554166040519015158152f35b3461022057602036600319011261022057604051630b0fb31160e11b815260048035908201526000816024817f00000000000000000000000000000000000000000000000000000000000000006001600160a01b03165afa80156102df5761041091600091610d1c575060405191829160208352602083019061184c565b34610220576040366003190112610220576060611645602435600435611cd9565b90604051928352602083015215156040820152f35b6116f9565b34610220576020366003190112610220576004356001600160a01b038116908190036102205761168d612032565b6000908152600460205260409020805460ff19169055005b34610220576020366003190112610220576004356001600160a01b03811681036102205760006116d76103c3926121f2565b60405180938192630df0201b60e41b835260206004840152602483019061184c565b346102205760003660031901126102205760206040516103e88152f35b60005b8381106117295750506000910152565b8181015183820152602001611719565b9060209161175281518092818552858086019101611716565b601f01601f1916010190565b6020810160208252825180915260408201602060408360051b8501019401926000905b83821061179057505050505090565b9091929394603f19828203018452855190815181526101606117c360208401516101806020850152610180840190611739565b9260408101516040840152606081015160608401526080810151608084015260a081015160a084015260c081015160c084015260e081015160e08401526101008101511515610100840152610120810151151561012084015261014081015161014084015201519060058210156108fd5761016001529460209081019493019160010190611781565b906020808351928381520192019060005b81811061186a5750505090565b825184526020938401939092019160010161185d565b61018081019081106001600160401b0382111761189c57604052565b634e487b7160e01b600052604160045260246000fd5b90601f801991011681019081106001600160401b0382111761189c57604052565b6001600160401b03811161189c5760051b60200190565b81601f820112156102205780516001600160401b03811161189c576040519261191d601f8301601f1916602001856118b2565b818452602082840101116102205761193b9160208085019101611716565b90565b5190811515820361022057565b602081830312610220578051906001600160401b03821161022057019080601f830112156102205781519161197f836118d3565b9261198d60405194856118b2565b80845260208085019160051b830101918383116102205760208101915b8383106119b957505050505090565b82516001600160401b03811161022057820190610180828703601f19011261022057604051916119e883611880565b602081015183526040810151906001600160401b03821161022057611a15886020610180948401016118ea565b6020850152606081015160408501526080810151606085015260a0810151608085015260c081015160a085015260e081015160c085015261010081015160e0850152611a64610120820161193e565b610100850152611a77610140820161193e565b6101208501526101608101516101408501520151906005821015610220578260209392610160859401528152019201916119aa565b91908201809211611ab957565b634e487b7160e01b600052601160045260246000fd5b91909161018081840312610220578051926020820151906001600160401b03821161022057611aff9183016118ea565b9160408201519160608101519160808201519160a08101519160c08201519160e081015191611b31610100830161193e565b91611b3f610120820161193e565b9161016061014083015192015160058110156102205790565b6000198114611ab95760010190565b6000908160ff60055416611cca57506040516330814b1b60e01b81527f00000000000000000000000000000000000000000000000000000000000000006001600160a01b03169190602081600481865afa9081156102df57600091611c98575b50808015611c8c575060006103e882811115611c8457508181945b825b828110611bf45750505050929190565b604051631a7ef4f360e21b8152600481018290528481602481865afa908115611c795785908692611c51575b5081611c49575b50611c35575b600101611be4565b96611c41600191611b58565b979050611c2d565b905038611c27565b9050611c6791503d8087833e6102c581836118b2565b50509850965050505050505038611c20565b6040513d87823e3d90fd5b600194611be2565b93506000925082919050565b906020823d602011611cc2575b81611cb2602093836118b2565b8101031261068c57505138611bc7565b3d9150611ca5565b634cb3183d60e01b8152600490fd5b909160009260ff60055416610b705780158015611e64575b611e4a576040516330814b1b60e01b8152907f00000000000000000000000000000000000000000000000000000000000000006001600160a01b031690602083600481855afa9283156102df57600093611e16575b508280861015611e085750611d5b9085611aac565b82811115611dff575081906000945b828110611d7957505050929190565b604051631a7ef4f360e21b815260048101829052600081602481865afa9081156102df576000908192611dd8575b5081611dd0575b50611dbc575b600101611d6a565b95611dc8600191611b58565b969050611db4565b905038611dae565b90611ded92503d8091833e6102c581836118b2565b50509850965050505050505038611da7565b90600194611d6a565b955060009450849392505050565b90926020823d602011611e42575b81611e31602093836118b2565b8101031261068c5750519138611d46565b3d9150611e24565b6342b154e560e01b6000526004526103e860245260446000fd5b506103e88111611cf1565b9080601f83011215610220578151611e86816118d3565b92611e9460405194856118b2565b81845260208085019260051b82010192831161022057602001905b828210611ebc5750505090565b8151815260209182019101611eaf565b906020828203126102205781516001600160401b0381116102205761193b9201611e6f565b90611efb826118d3565b611f0860405191826118b2565b8281528092611f19601f19916118d3565b0190602036910137565b8051821015610b285760209160051b010190565b9190610180838203126102205760405190611f5182611880565b8193805183526020810151602084015260408101516040840152606081015160608401526080810151608084015260a081015160a084015260c081015160c084015260e081015160018060a01b03811681036102205760e0840152611fb9610100820161193e565b610100840152611fcc610120820161193e565b610120840152611fdf610140820161193e565b610140840152610160810151916001600160401b038311610220576101609261200892016118ea565b910152565b906020828203126102205781516001600160401b0381116102205761193b9201611f37565b6001546001600160a01b0316330361204657565b63118cdaa760e01b6000523360045260246000fd5b60008082516103e88111611e4a57507f00000000000000000000000000000000000000000000000000000000000000006001600160a01b0316939260005b81518110156121ea576120ac8183611f23565b5160405190634712f17360e11b825260048201526000816024818a5afa9081156102df576000916121d1575b5060408101805190811515806121c4575b6120f9575b505050600101612099565b6060839794970191825180156121ae5760001904106121585751905190818102918183041490151715611ab9576101008201516064909104919015612169575090811981116121585760019161214e91611aac565b935b9038806120ee565b639c154db960e01b60005260046000fd5b6101200151156121915760011c90811981116121585760019161218b91611aac565b93612150565b90939281198111612158576001916121a891611aac565b92612150565b634e487b7160e01b600052601260045260246000fd5b50606083015115156120e9565b6121e4913d8091833e6114d181836118b2565b386120d8565b505092509190565b6001600160a01b0316908115610ea5576040516346f5daa360e11b815260048101929092527f00000000000000000000000000000000000000000000000000000000000000006001600160a01b031691600081602481865afa9081156102df576000916123b2575b508051156123955780516103e88111611e4a5750604051906204e22061228081846118b2565b6127108352601f19013660208401376122998151611ef1565b600091825b8151811015612355576122b18183611f23565b5160405190634712f17360e11b825260048201526000816024818b5afa80156102df5760209160009161233c575b500151612710811015612333576122f68187611f23565b5115612308575b506001905b0161229e565b60019194818361231b61232c948a611f23565b526123268287611f23565b52611b58565b93906122fd565b50600190612302565b61234f913d8091833e6114d181836118b2565b386122df565b50509350905061236481611ef1565b9060005b818110612376575090925050565b8061238360019287611f23565b5161238e8286611f23565b5201612368565b5090506040516123a66020826118b2565b60008152600036813790565b6123c5913d8091833e610d3181836118b2565b3861225a56fea26469706673582212205c60d995a14d3139ea121bbb24b08706ea96ed80b09f00b7ca9cad0300e1cf1f64736f6c634300081c0033",
  "linkReferences": {},
  "deployedLinkReferences": {},
  "immutableReferences": {
    "9364": [
      {
        "length": 32,
        "start": 595
      },
      {
        "length": 32,
        "start": 769
      },
      {
        "length": 32,
        "start": 967
      },
      {
        "length": 32,
        "start": 1141
      },
      {
        "length": 32,
        "start": 1291
      },
      {
        "length": 32,
        "start": 1974
      },
      {
        "length": 32,
        "start": 2410
      },
      {
        "length": 32,
        "start": 2977
      },
      {
        "length": 32,
        "start": 3275
      },
      {
        "length": 32,
        "start": 3633
      },
      {
        "length": 32,
        "start": 3894
      },
      {
        "length": 32,
        "start": 4148
      },
      {
        "length": 32,
        "start": 5117
      },
      {
        "length": 32,
        "start": 5588
      },
      {
        "length": 32,
        "start": 7045
      },
      {
        "length": 32,
        "start": 7429
      },
      {
        "length": 32,
        "start": 8300
      },
      {
        "length": 32,
        "start": 8729
      }
    ]
  },
  "inputSourceName": "project/contracts/FundRaisingAnalytics.sol",
  "buildInfoId": "solc-0_8_28-8af3bbcfcc43d6dda9f07406928f0d08dc4e920b"
}