{
  "_format": "hh3-artifact-1",
  "contractName": "FundRaisingClaims",
  "sourceName": "contracts/FundRaisingClaims.sol",
  "abi": [
    {
      "inputs": [
        {
          "internalType": "address",
          "name": "_coreContract",
          "type": "address"
        },
        {
          "internalType": "address",
          "name": "_dzNFT",
          "type": "address"
        },
        {
          "internalType": "address",
          "name": "_usdtToken",
          "type": "address"
        }
      ],
      "stateMutability": "nonpayable",
      "type": "constructor"
    },
    {
      "inputs": [
        {
          "internalType": "address",
          "name": "owner",
          "type": "address"
        }
      ],
      "name": "OwnableInvalidOwner",
      "type": "error"
    },
    {
      "inputs": [
        {
          "internalType": "address",
          "name": "account",
          "type": "address"
        }
      ],
      "name": "OwnableUnauthorizedAccount",
      "type": "error"
    },
    {
      "inputs": [],
      "name": "ReentrancyGuardReentrantCall",
      "type": "error"
    },
    {
      "anonymous": false,
      "inputs": [
        {
          "indexed": true,
          "internalType": "address",
          "name": "previousOwner",
          "type": "address"
        },
        {
          "indexed": true,
          "internalType": "address",
          "name": "newOwner",
          "type": "address"
        }
      ],
      "name": "OwnershipTransferred",
      "type": "event"
    },
    {
      "anonymous": false,
      "inputs": [
        {
          "indexed": true,
          "internalType": "address",
          "name": "investor",
          "type": "address"
        },
        {
          "indexed": true,
          "internalType": "uint256",
          "name": "roundId",
          "type": "uint256"
        },
        {
          "indexed": false,
          "internalType": "uint256",
          "name": "rewardAmount",
          "type": "uint256"
        },
        {
          "indexed": false,
          "internalType": "uint256",
          "name": "claimPhase",
          "type": "uint256"
        }
      ],
      "name": "RewardClaimed",
      "type": "event"
    },
    {
      "inputs": [],
      "name": "FIRST_CLAIM_DAYS",
      "outputs": [
        {
          "internalType": "uint256",
          "name": "",
          "type": "uint256"
        }
      ],
      "stateMutability": "view",
      "type": "function"
    },
    {
      "inputs": [],
      "name": "FULL_CLAIM_DAYS",
      "outputs": [
        {
          "internalType": "uint256",
          "name": "",
          "type": "uint256"
        }
      ],
      "stateMutability": "view",
      "type": "function"
    },
    {
      "inputs": [],
      "name": "MAX_BATCH_CLAIM",
      "outputs": [
        {
          "internalType": "uint256",
          "name": "",
          "type": "uint256"
        }
      ],
      "stateMutability": "view",
      "type": "function"
    },
    {
      "inputs": [
        {
          "internalType": "uint256",
          "name": "roundId",
          "type": "uint256"
        }
      ],
      "name": "claimRewardRound",
      "outputs": [],
      "stateMutability": "nonpayable",
      "type": "function"
    },
    {
      "inputs": [],
      "name": "coreContract",
      "outputs": [
        {
          "internalType": "contract FundRaisingCore",
          "name": "",
          "type": "address"
        }
      ],
      "stateMutability": "view",
      "type": "function"
    },
    {
      "inputs": [],
      "name": "dzNFT",
      "outputs": [
        {
          "internalType": "contract DZNFT",
          "name": "",
          "type": "address"
        }
      ],
      "stateMutability": "view",
      "type": "function"
    },
    {
      "inputs": [
        {
          "internalType": "uint256",
          "name": "roundId",
          "type": "uint256"
        }
      ],
      "name": "getClaimableReward",
      "outputs": [
        {
          "internalType": "uint256",
          "name": "claimableAmount",
          "type": "uint256"
        },
        {
          "internalType": "uint256",
          "name": "claimPhase",
          "type": "uint256"
        }
      ],
      "stateMutability": "view",
      "type": "function"
    },
    {
      "inputs": [],
      "name": "owner",
      "outputs": [
        {
          "internalType": "address",
          "name": "",
          "type": "address"
        }
      ],
      "stateMutability": "view",
      "type": "function"
    },
    {
      "inputs": [],
      "name": "renounceOwnership",
      "outputs": [],
      "stateMutability": "nonpayable",
      "type": "function"
    },
    {
      "inputs": [
        {
          "internalType": "address",
          "name": "newOwner",
          "type": "address"
        }
      ],
      "name": "transferOwnership",
      "outputs": [],
      "stateMutability": "nonpayable",
      "type": "function"
    },
    {
      "inputs": [
        {
          "internalType": "uint256",
          "name": "roundId",
          "type": "uint256"
        },
        {
          "internalType": "uint256",
          "name": "amount",
          "type": "uint256"
        },
        {
          "internalType": "bool",
          "name": "increase",
          "type": "bool"
        }
      ],
      "name": "updateRoundLedger",
      "outputs": [],
      "stateMutability": "nonpayable",
      "type": "function"
    },
    {
      "inputs": [],
      "name": "usdtToken",
      "outputs": [
        {
          "internalType": "contract IERC20",
          "name": "",
          "type": "address"
        }
      ],
      "stateMutability": "view",
      "type": "function"
    }
  ],
  "bytecode": "0x60e03461022057601f6112b638819003918201601f19168301916001600160401b03831184841017610224578084926060946040528339810103126102205761004781610238565b90610060604061005960208401610238565b9201610238565b90331561020d575f8054336001600160a01b0319821681178355604051959290916001600160a01b0316907f8be0079c531659141344cd1fd0a4f28419497f9722a3daafe3b4186f6b6457e09080a3600180556001600160a01b03169283156101cb57506001600160a01b0316908115610186576001600160a01b03169182156101415760805260a05260c052604051611069908161024d823960805181818161012f015281816101ca01526103f9015260a0518181816101730152818161037401528181610b470152610d70015260c05181818161027e015261075a0152f35b60405162461bcd60e51b815260206004820152601460248201527f496e76616c6964205553445420616464726573730000000000000000000000006044820152606490fd5b60405162461bcd60e51b815260206004820152601560248201527f496e76616c696420445a4e4654206164647265737300000000000000000000006044820152606490fd5b62461bcd60e51b815260206004820152601d60248201527f496e76616c696420636f726520636f6e747261637420616464726573730000006044820152606490fd5b631e4fbdf760e01b5f525f60045260245ffd5b5f80fd5b634e487b7160e01b5f52604160045260245ffd5b51906001600160a01b03821682036102205756fe6080806040526004361015610012575f80fd5b5f3560e01c9081631144e79e14610a285750806335b72d3014610a0a5780636760455114610342578063715018a6146102fe5780638c25be3d146102d45780638da5cb5b146102ad578063a98ad46c14610269578063ba8713c21461024c578063bb3505f4146101a2578063bf32eb011461015e578063e80db5db1461011a5763f2fde38b146100a0575f80fd5b34610116576020366003190112610116576004356001600160a01b03811690819003610116576100ce610fed565b8015610103575f80546001600160a01b03198116831782556001600160a01b0316905f5160206110145f395f51905f529080a3005b631e4fbdf760e01b5f525f60045260245ffd5b5f80fd5b34610116575f366003190112610116576040517f00000000000000000000000000000000000000000000000000000000000000006001600160a01b03168152602090f35b34610116575f366003190112610116576040517f00000000000000000000000000000000000000000000000000000000000000006001600160a01b03168152602090f35b3461011657606036600319011261011657604435801515809103610116576101c8610fed565b7f00000000000000000000000000000000000000000000000000000000000000006001600160a01b031690813b15610116575f91606483926040519485938492632ecd417d60e21b84526004356004850152602435602485015260448401525af180156102415761023557005b5f61023f91610a41565b005b6040513d5f823e3d90fd5b34610116575f36600319011261011657602060405162ed4e008152f35b34610116575f366003190112610116576040517f00000000000000000000000000000000000000000000000000000000000000006001600160a01b03168152602090f35b34610116575f366003190112610116575f546040516001600160a01b039091168152602090f35b346101165760203660031901126101165760406102f2600435610b23565b82519182526020820152f35b34610116575f36600319011261011657610316610fed565b5f80546001600160a01b0319811682556001600160a01b03165f5160206110145f395f51905f528280a3005b34610116576020366003190112610116576004356002600154146109fb576002600155604051631683a8f560e21b81527f00000000000000000000000000000000000000000000000000000000000000006001600160a01b0316905f81806103ae863360048401610afb565b0381855afa908115610241575f916109d9575b5080511561099c576032815111610957576103db81610d6b565b9390801561091d5760405163b175b32f60e01b8152600481018390527f00000000000000000000000000000000000000000000000000000000000000006001600160a01b031695906020816024818a5afa80156102415783915f916108e8575b50106108a35783511561085e57909391945f955b84518710156106f7576104628786610bb5565b5195600188018089116106e3575b86518110156104e357876104848289610bb5565b511461049257600101610470565b60405162461bcd60e51b815260206004820152602360248201527f4475706c696361746520746f6b656e20494420696e2070726f6365737320617260448201526272617960e81b6064820152608490fd5b50929196959093956040516331a9108f60e11b81528260048201526020816024818b5afa908115610241575f916106aa575b50336001600160a01b039091160361062257604051634712f17360e11b8152600481018390525f816024818b5afa908115610241575f91610688575b5061012081015161067e5760c081015180421115610673576105739042610d4b565b62ed4e008110610673576301e13380116106175750863b15610116576040516319f477d960e01b8152600481018390525f81602481838c5af1801561024157610607575b50863b15610116576040519163bed62f3560e01b835260048301525f82602481838b5af1918215610241576001926105f7575b505b01959091949261044f565b5f61060191610a41565b886105ea565b5f61061191610a41565b886105b7565b61014001511561062b575b600191506105ec565b863b1561011657604051916318d8e2a560e01b835260048301525f82602481838b5af191821561024157600192610663575b50610622565b5f61066d91610a41565b8861065d565b5050600191506105ec565b50600191506105ec565b6106a491503d805f833e61069c8183610a41565b810190610bfe565b89610551565b90506020813d82116106db575b816106c460209383610a41565b81010312610116576106d590610bea565b89610515565b3d91506106b7565b634e487b7160e01b5f52601160045260245ffd5b918591803b156101165760405163d5b52b9560e01b81528460048201528360248201525f8160448183865af180156102415761084e575b506040516323b872dd60e01b81526004810191909152336024820152604481018390526020816064815f7f00000000000000000000000000000000000000000000000000000000000000006001600160a01b03165af1908115610241575f91610814575b50156107cf5760405191825260208201527f812be816db82c66cd18ca8457005cd84689642d8ac4d38599cc6af444a2dc72a60403392a360018055005b60405162461bcd60e51b815260206004820152601e60248201527f55534454207472616e736665722066726f6d20636f7265206661696c656400006044820152606490fd5b90506020813d602011610846575b8161082f60209383610a41565b810103126101165761084090610b16565b84610792565b3d9150610822565b5f61085891610a41565b8461072e565b60405162461bcd60e51b815260206004820152601f60248201527f546f6b656e204944732061727261792063616e6e6f7420626520656d707479006044820152606490fd5b60405162461bcd60e51b815260206004820152601e60248201527f496e73756666696369656e7420726f756e642072657761726420706f6f6c00006044820152606490fd5b9150506020813d602011610915575b8161090460209383610a41565b81010312610116578290518861043b565b3d91506108f7565b60405162461bcd60e51b81526020600482015260126024820152714e6f20616d6f756e7420746f20636c61696d60701b6044820152606490fd5b60405162461bcd60e51b815260206004820152601e60248201527f546f6f206d616e79204e46547320746f20636c61696d206174206f6e636500006044820152606490fd5b60405162461bcd60e51b8152602060048201526015602482015274139bc81391951cc81a5b881d1a1a5cc81c9bdd5b99605a1b6044820152606490fd5b6109f591503d805f833e6109ed8183610a41565b810190610a78565b836103c1565b633ee5aeb560e01b5f5260045ffd5b34610116575f3660031901126101165760206040516301e133808152f35b34610116575f3660031901126101165780603260209252f35b601f909101601f19168101906001600160401b03821190821017610a6457604052565b634e487b7160e01b5f52604160045260245ffd5b602081830312610116578051906001600160401b03821161011657019080601f83011215610116578151916001600160401b038311610a64578260051b9060405193610ac76020840186610a41565b845260208085019282010192831161011657602001905b828210610aeb5750505090565b8151815260209182019101610ade565b6001600160a01b039091168152602081019190915260400190565b5190811515820361011657565b5f610b439160405180938192631683a8f560e21b83523360048401610afb565b03817f00000000000000000000000000000000000000000000000000000000000000006001600160a01b03165afa908115610241575f91610b9b575b50805115610b9457610b9090610d6b565b9091565b505f905f90565b610baf91503d805f833e6109ed8183610a41565b5f610b7f565b8051821015610bc95760209160051b010190565b634e487b7160e01b5f52603260045260245ffd5b919082018092116106e357565b51906001600160a01b038216820361011657565b602081830312610116578051906001600160401b0382116101165701906101a08282031261011657604051916101a083016001600160401b03811184821017610a6457604052805183526020810151602084015260408101516040840152606081015160608401526080810151608084015260a081015160a084015260c081015160c084015260e081015160e0840152610c9b6101008201610bea565b610100840152610cae6101208201610b16565b610120840152610cc16101408201610b16565b610140840152610cd46101608201610b16565b610160840152610180810151906001600160401b038211610116570181601f82011215610116578051906001600160401b038211610a645760405192610d24601f8401601f191660200185610a41565b8284526020838301011161011657815f9260208093018386015e8301015261018082015290565b919082039182116106e357565b818102929181159184041417156106e357565b5f91907f00000000000000000000000000000000000000000000000000000000000000006001600160a01b031683805b8351821015610fe657610dae8285610bb5565b5194600183018084116106e3575b8551811015610e2d5786610dd08288610bb5565b5114610dde57600101610dbc565b60405162461bcd60e51b815260206004820152602160248201527f4475706c696361746520746f6b656e20494420696e20636c61696d20617272616044820152607960f81b6064820152608490fd5b50959091946040516331a9108f60e11b8152816004820152602081602481885afa908115610241575f91610fad575b50336001600160a01b0390911603610f875760405190634712f17360e11b825260048201525f81602481875afa908115610241575f91610f93575b50610120810151610f875760c081015180421115610f7a57610eb99042610d4b565b9062ed4e008210610f7a57610ed76040820151608083015190610d58565b936301e133806064610eed606085015188610d58565b049310610f395750610140015115610f2657610f1692610f109160011c90610bdd565b90610bdd565b935b60016002945b019093610d9b565b610f1090610f3393610bdd565b93610f18565b9692979350610140015115610f52575b50600190610f1e565b95610f61919660011c90610bdd565b9460018510610f71575b5f610f49565b60019450610f6b565b5050949093600190610f1e565b50949093600190610f1e565b610fa791503d805f833e61069c8183610a41565b5f610e97565b90506020813d8211610fde575b81610fc760209383610a41565b8101031261011657610fd890610bea565b5f610e5c565b3d9150610fba565b9392505050565b5f546001600160a01b0316330361100057565b63118cdaa760e01b5f523360045260245ffdfe8be0079c531659141344cd1fd0a4f28419497f9722a3daafe3b4186f6b6457e0a26469706673582212204193c2958fce2c63a6ec977d905d2a4b5a470226fabcf4e512e731e6b8030db964736f6c634300081c0033",
  "linkReferences": {},
  "deployedLinkReferences": {},
  "immutableReferences": {
    "9301": [
      {
        "length": 32,
        "start": 303
      },
      {
        "length": 32,
        "start": 458
      },
      {
        "length": 32,
        "start": 1017
      }
    ],
    "9304": [
      {
        "length": 32,
        "start": 371
      },
      {
        "length": 32,
        "start": 884
      },
      {
        "length": 32,
        "start": 2887
      },
      {
        "length": 32,
        "start": 3440
      }
    ],
    "9307": [
      {
        "length": 32,
        "start": 638
      },
      {
        "length": 32,
        "start": 1882
      }
    ]
  },
  "inputSourceName": "project/contracts/FundRaisingClaims.sol",
  "buildInfoId": "solc-0_8_28-50e0d9108c8810830d5c4020fa99699fae3a02a8"
}