{
  "_format": "hh3-artifact-1",
  "contractName": "FundRaisingContractNFT",
  "sourceName": "contracts/FundRaisingContractNFT.sol",
  "abi": [
    {
      "inputs": [
        {
          "internalType": "address",
          "name": "_dzNFT",
          "type": "address"
        },
        {
          "internalType": "address",
          "name": "_usdtToken",
          "type": "address"
        }
      ],
      "stateMutability": "nonpayable",
      "type": "constructor"
    },
    {
      "inputs": [],
      "name": "EnforcedPause",
      "type": "error"
    },
    {
      "inputs": [],
      "name": "ExpectedPause",
      "type": "error"
    },
    {
      "inputs": [
        {
          "internalType": "address",
          "name": "owner",
          "type": "address"
        }
      ],
      "name": "OwnableInvalidOwner",
      "type": "error"
    },
    {
      "inputs": [
        {
          "internalType": "address",
          "name": "account",
          "type": "address"
        }
      ],
      "name": "OwnableUnauthorizedAccount",
      "type": "error"
    },
    {
      "inputs": [],
      "name": "ReentrancyGuardReentrantCall",
      "type": "error"
    },
    {
      "anonymous": false,
      "inputs": [
        {
          "indexed": true,
          "internalType": "uint256",
          "name": "tokenId",
          "type": "uint256"
        },
        {
          "indexed": true,
          "internalType": "address",
          "name": "investor",
          "type": "address"
        },
        {
          "indexed": false,
          "internalType": "uint256",
          "name": "rewardAmount",
          "type": "uint256"
        }
      ],
      "name": "EarlyRewardClaimed",
      "type": "event"
    },
    {
      "anonymous": false,
      "inputs": [
        {
          "indexed": true,
          "internalType": "address",
          "name": "previousOwner",
          "type": "address"
        },
        {
          "indexed": true,
          "internalType": "address",
          "name": "newOwner",
          "type": "address"
        }
      ],
      "name": "OwnershipTransferred",
      "type": "event"
    },
    {
      "anonymous": false,
      "inputs": [
        {
          "indexed": false,
          "internalType": "address",
          "name": "account",
          "type": "address"
        }
      ],
      "name": "Paused",
      "type": "event"
    },
    {
      "anonymous": false,
      "inputs": [
        {
          "indexed": true,
          "internalType": "uint256",
          "name": "roundId",
          "type": "uint256"
        },
        {
          "indexed": false,
          "internalType": "uint256",
          "name": "amount",
          "type": "uint256"
        },
        {
          "indexed": false,
          "internalType": "uint256",
          "name": "totalPoolAmount",
          "type": "uint256"
        }
      ],
      "name": "RewardAdded",
      "type": "event"
    },
    {
      "anonymous": false,
      "inputs": [
        {
          "indexed": true,
          "internalType": "uint256",
          "name": "roundId",
          "type": "uint256"
        },
        {
          "indexed": false,
          "internalType": "uint256",
          "name": "amount",
          "type": "uint256"
        }
      ],
      "name": "RoundFunded",
      "type": "event"
    },
    {
      "anonymous": false,
      "inputs": [
        {
          "indexed": true,
          "internalType": "uint256",
          "name": "roundId",
          "type": "uint256"
        },
        {
          "indexed": false,
          "internalType": "bool",
          "name": "isActive",
          "type": "bool"
        }
      ],
      "name": "RoundStatusChanged",
      "type": "event"
    },
    {
      "anonymous": false,
      "inputs": [
        {
          "indexed": true,
          "internalType": "address",
          "name": "oldToken",
          "type": "address"
        },
        {
          "indexed": true,
          "internalType": "address",
          "name": "newToken",
          "type": "address"
        }
      ],
      "name": "USDTTokenUpdated",
      "type": "event"
    },
    {
      "anonymous": false,
      "inputs": [
        {
          "indexed": false,
          "internalType": "address",
          "name": "account",
          "type": "address"
        }
      ],
      "name": "Unpaused",
      "type": "event"
    },
    {
      "inputs": [],
      "name": "MAX_BATCH_CLAIM",
      "outputs": [
        {
          "internalType": "uint256",
          "name": "",
          "type": "uint256"
        }
      ],
      "stateMutability": "view",
      "type": "function"
    },
    {
      "inputs": [],
      "name": "MAX_TOKENS_PER_INVESTMENT",
      "outputs": [
        {
          "internalType": "uint256",
          "name": "",
          "type": "uint256"
        }
      ],
      "stateMutability": "view",
      "type": "function"
    },
    {
      "inputs": [],
      "name": "USDT_DECIMALS",
      "outputs": [
        {
          "internalType": "uint256",
          "name": "",
          "type": "uint256"
        }
      ],
      "stateMutability": "view",
      "type": "function"
    },
    {
      "inputs": [],
      "name": "_nextRoundId",
      "outputs": [
        {
          "internalType": "uint256",
          "name": "",
          "type": "uint256"
        }
      ],
      "stateMutability": "view",
      "type": "function"
    },
    {
      "inputs": [
        {
          "internalType": "uint256",
          "name": "roundId",
          "type": "uint256"
        },
        {
          "internalType": "uint256",
          "name": "amount",
          "type": "uint256"
        }
      ],
      "name": "addRewardToRound",
      "outputs": [],
      "stateMutability": "nonpayable",
      "type": "function"
    },
    {
      "inputs": [
        {
          "internalType": "uint256",
          "name": "roundId",
          "type": "uint256"
        }
      ],
      "name": "claimRewardRound",
      "outputs": [],
      "stateMutability": "nonpayable",
      "type": "function"
    },
    {
      "inputs": [
        {
          "internalType": "string",
          "name": "roundName",
          "type": "string"
        },
        {
          "internalType": "uint256",
          "name": "tokenPrice",
          "type": "uint256"
        },
        {
          "internalType": "uint256",
          "name": "rewardPercentage",
          "type": "uint256"
        },
        {
          "internalType": "uint256",
          "name": "totalTokenOpenInvestment",
          "type": "uint256"
        },
        {
          "internalType": "uint256",
          "name": "closeDateInvestment",
          "type": "uint256"
        },
        {
          "internalType": "uint256",
          "name": "endDateInvestment",
          "type": "uint256"
        }
      ],
      "name": "createInvestmentRound",
      "outputs": [
        {
          "internalType": "uint256",
          "name": "",
          "type": "uint256"
        }
      ],
      "stateMutability": "nonpayable",
      "type": "function"
    },
    {
      "inputs": [],
      "name": "dzNFT",
      "outputs": [
        {
          "internalType": "contract DZNFT",
          "name": "",
          "type": "address"
        }
      ],
      "stateMutability": "view",
      "type": "function"
    },
    {
      "inputs": [
        {
          "internalType": "uint256",
          "name": "amount",
          "type": "uint256"
        }
      ],
      "name": "emergencyWithdraw",
      "outputs": [],
      "stateMutability": "nonpayable",
      "type": "function"
    },
    {
      "inputs": [
        {
          "internalType": "uint256",
          "name": "roundId",
          "type": "uint256"
        },
        {
          "internalType": "uint256",
          "name": "amount",
          "type": "uint256"
        }
      ],
      "name": "emergencyWithdrawFromRound",
      "outputs": [],
      "stateMutability": "nonpayable",
      "type": "function"
    },
    {
      "inputs": [],
      "name": "getContractUSDTBalance",
      "outputs": [
        {
          "internalType": "uint256",
          "name": "",
          "type": "uint256"
        }
      ],
      "stateMutability": "view",
      "type": "function"
    },
    {
      "inputs": [
        {
          "internalType": "uint256",
          "name": "roundId",
          "type": "uint256"
        }
      ],
      "name": "getInvestmentRound",
      "outputs": [
        {
          "components": [
            {
              "internalType": "uint256",
              "name": "roundId",
              "type": "uint256"
            },
            {
              "internalType": "string",
              "name": "roundName",
              "type": "string"
            },
            {
              "internalType": "uint256",
              "name": "tokenPrice",
              "type": "uint256"
            },
            {
              "internalType": "uint256",
              "name": "rewardPercentage",
              "type": "uint256"
            },
            {
              "internalType": "uint256",
              "name": "totalTokenOpenInvestment",
              "type": "uint256"
            },
            {
              "internalType": "uint256",
              "name": "tokensSold",
              "type": "uint256"
            },
            {
              "internalType": "uint256",
              "name": "closeDateInvestment",
              "type": "uint256"
            },
            {
              "internalType": "uint256",
              "name": "endDateInvestment",
              "type": "uint256"
            },
            {
              "internalType": "bool",
              "name": "isActive",
              "type": "bool"
            },
            {
              "internalType": "bool",
              "name": "exists",
              "type": "bool"
            },
            {
              "internalType": "uint256",
              "name": "createdAt",
              "type": "uint256"
            },
            {
              "internalType": "enum FundRaisingContractNFT.Status",
              "name": "status",
              "type": "uint8"
            }
          ],
          "internalType": "struct FundRaisingContractNFT.InvestmentRound",
          "name": "",
          "type": "tuple"
        },
        {
          "internalType": "bool",
          "name": "enableClaimReward",
          "type": "bool"
        }
      ],
      "stateMutability": "view",
      "type": "function"
    },
    {
      "inputs": [
        {
          "internalType": "address",
          "name": "investor",
          "type": "address"
        }
      ],
      "name": "getInvestorDetail",
      "outputs": [
        {
          "internalType": "uint256",
          "name": "totalTokensOwned",
          "type": "uint256"
        },
        {
          "internalType": "uint256[]",
          "name": "nftTokenIds",
          "type": "uint256[]"
        },
        {
          "internalType": "uint256",
          "name": "totalInvestment",
          "type": "uint256"
        },
        {
          "internalType": "uint256",
          "name": "dividendsEarned",
          "type": "uint256"
        },
        {
          "internalType": "uint256[]",
          "name": "activeRounds",
          "type": "uint256[]"
        }
      ],
      "stateMutability": "view",
      "type": "function"
    },
    {
      "inputs": [
        {
          "internalType": "address",
          "name": "investor",
          "type": "address"
        }
      ],
      "name": "getInvestorRoundIds",
      "outputs": [
        {
          "internalType": "uint256[]",
          "name": "roundIds",
          "type": "uint256[]"
        }
      ],
      "stateMutability": "view",
      "type": "function"
    },
    {
      "inputs": [
        {
          "internalType": "address",
          "name": "investor",
          "type": "address"
        }
      ],
      "name": "getInvestorRounds",
      "outputs": [
        {
          "internalType": "uint256[]",
          "name": "roundIds",
          "type": "uint256[]"
        },
        {
          "components": [
            {
              "internalType": "uint256",
              "name": "roundId",
              "type": "uint256"
            },
            {
              "internalType": "string",
              "name": "roundName",
              "type": "string"
            },
            {
              "internalType": "uint256",
              "name": "tokenPrice",
              "type": "uint256"
            },
            {
              "internalType": "uint256",
              "name": "rewardPercentage",
              "type": "uint256"
            },
            {
              "internalType": "uint256",
              "name": "totalTokenOpenInvestment",
              "type": "uint256"
            },
            {
              "internalType": "uint256",
              "name": "tokensSold",
              "type": "uint256"
            },
            {
              "internalType": "uint256",
              "name": "closeDateInvestment",
              "type": "uint256"
            },
            {
              "internalType": "uint256",
              "name": "endDateInvestment",
              "type": "uint256"
            },
            {
              "internalType": "bool",
              "name": "isActive",
              "type": "bool"
            },
            {
              "internalType": "bool",
              "name": "exists",
              "type": "bool"
            },
            {
              "internalType": "uint256",
              "name": "createdAt",
              "type": "uint256"
            },
            {
              "internalType": "enum FundRaisingContractNFT.Status",
              "name": "status",
              "type": "uint8"
            }
          ],
          "internalType": "struct FundRaisingContractNFT.InvestmentRound[]",
          "name": "rounds",
          "type": "tuple[]"
        },
        {
          "internalType": "uint256[][]",
          "name": "nfts",
          "type": "uint256[][]"
        },
        {
          "internalType": "bool[]",
          "name": "isEnableClaimReward",
          "type": "bool[]"
        }
      ],
      "stateMutability": "view",
      "type": "function"
    },
    {
      "inputs": [
        {
          "internalType": "uint256",
          "name": "roundId",
          "type": "uint256"
        }
      ],
      "name": "getRoundStatus",
      "outputs": [
        {
          "internalType": "enum FundRaisingContractNFT.Status",
          "name": "status",
          "type": "uint8"
        }
      ],
      "stateMutability": "view",
      "type": "function"
    },
    {
      "inputs": [
        {
          "internalType": "uint256",
          "name": "roundId",
          "type": "uint256"
        }
      ],
      "name": "getRoundTokenIds",
      "outputs": [
        {
          "internalType": "uint256[]",
          "name": "",
          "type": "uint256[]"
        }
      ],
      "stateMutability": "view",
      "type": "function"
    },
    {
      "inputs": [
        {
          "internalType": "uint256",
          "name": "roundId",
          "type": "uint256"
        }
      ],
      "name": "getRoundUSDTBalance",
      "outputs": [
        {
          "internalType": "uint256",
          "name": "",
          "type": "uint256"
        }
      ],
      "stateMutability": "view",
      "type": "function"
    },
    {
      "inputs": [],
      "name": "getRoundsCount",
      "outputs": [
        {
          "internalType": "uint256",
          "name": "totalRounds",
          "type": "uint256"
        },
        {
          "internalType": "uint256",
          "name": "activeRounds",
          "type": "uint256"
        }
      ],
      "stateMutability": "view",
      "type": "function"
    },
    {
      "inputs": [],
      "name": "getUSDTTokenAddress",
      "outputs": [
        {
          "internalType": "address",
          "name": "",
          "type": "address"
        }
      ],
      "stateMutability": "view",
      "type": "function"
    },
    {
      "inputs": [
        {
          "internalType": "address",
          "name": "user",
          "type": "address"
        }
      ],
      "name": "getUserInvestments",
      "outputs": [
        {
          "internalType": "uint256[]",
          "name": "",
          "type": "uint256[]"
        }
      ],
      "stateMutability": "view",
      "type": "function"
    },
    {
      "inputs": [
        {
          "internalType": "uint256",
          "name": "roundId",
          "type": "uint256"
        },
        {
          "internalType": "address",
          "name": "user",
          "type": "address"
        }
      ],
      "name": "getUserNFTsInRound",
      "outputs": [
        {
          "internalType": "uint256[]",
          "name": "",
          "type": "uint256[]"
        }
      ],
      "stateMutability": "view",
      "type": "function"
    },
    {
      "inputs": [
        {
          "internalType": "uint256",
          "name": "roundId",
          "type": "uint256"
        },
        {
          "internalType": "uint256",
          "name": "tokenAmount",
          "type": "uint256"
        }
      ],
      "name": "investInRound",
      "outputs": [
        {
          "internalType": "uint256",
          "name": "",
          "type": "uint256"
        }
      ],
      "stateMutability": "nonpayable",
      "type": "function"
    },
    {
      "inputs": [
        {
          "internalType": "uint256",
          "name": "",
          "type": "uint256"
        }
      ],
      "name": "investmentRounds",
      "outputs": [
        {
          "internalType": "uint256",
          "name": "roundId",
          "type": "uint256"
        },
        {
          "internalType": "string",
          "name": "roundName",
          "type": "string"
        },
        {
          "internalType": "uint256",
          "name": "tokenPrice",
          "type": "uint256"
        },
        {
          "internalType": "uint256",
          "name": "rewardPercentage",
          "type": "uint256"
        },
        {
          "internalType": "uint256",
          "name": "totalTokenOpenInvestment",
          "type": "uint256"
        },
        {
          "internalType": "uint256",
          "name": "tokensSold",
          "type": "uint256"
        },
        {
          "internalType": "uint256",
          "name": "closeDateInvestment",
          "type": "uint256"
        },
        {
          "internalType": "uint256",
          "name": "endDateInvestment",
          "type": "uint256"
        },
        {
          "internalType": "bool",
          "name": "isActive",
          "type": "bool"
        },
        {
          "internalType": "bool",
          "name": "exists",
          "type": "bool"
        },
        {
          "internalType": "uint256",
          "name": "createdAt",
          "type": "uint256"
        },
        {
          "internalType": "enum FundRaisingContractNFT.Status",
          "name": "status",
          "type": "uint8"
        }
      ],
      "stateMutability": "view",
      "type": "function"
    },
    {
      "inputs": [
        {
          "internalType": "address",
          "name": "",
          "type": "address"
        }
      ],
      "name": "investorDividendsEarned",
      "outputs": [
        {
          "internalType": "uint256",
          "name": "",
          "type": "uint256"
        }
      ],
      "stateMutability": "view",
      "type": "function"
    },
    {
      "inputs": [
        {
          "internalType": "address",
          "name": "",
          "type": "address"
        },
        {
          "internalType": "uint256",
          "name": "",
          "type": "uint256"
        }
      ],
      "name": "investorRounds",
      "outputs": [
        {
          "internalType": "uint256",
          "name": "",
          "type": "uint256"
        }
      ],
      "stateMutability": "view",
      "type": "function"
    },
    {
      "inputs": [],
      "name": "owner",
      "outputs": [
        {
          "internalType": "address",
          "name": "",
          "type": "address"
        }
      ],
      "stateMutability": "view",
      "type": "function"
    },
    {
      "inputs": [],
      "name": "pause",
      "outputs": [],
      "stateMutability": "nonpayable",
      "type": "function"
    },
    {
      "inputs": [],
      "name": "paused",
      "outputs": [
        {
          "internalType": "bool",
          "name": "",
          "type": "bool"
        }
      ],
      "stateMutability": "view",
      "type": "function"
    },
    {
      "inputs": [],
      "name": "renounceOwnership",
      "outputs": [],
      "stateMutability": "nonpayable",
      "type": "function"
    },
    {
      "inputs": [
        {
          "internalType": "uint256",
          "name": "",
          "type": "uint256"
        }
      ],
      "name": "roundLedger",
      "outputs": [
        {
          "internalType": "uint256",
          "name": "",
          "type": "uint256"
        }
      ],
      "stateMutability": "view",
      "type": "function"
    },
    {
      "inputs": [
        {
          "internalType": "uint256",
          "name": "",
          "type": "uint256"
        }
      ],
      "name": "roundRewardPool",
      "outputs": [
        {
          "internalType": "uint256",
          "name": "",
          "type": "uint256"
        }
      ],
      "stateMutability": "view",
      "type": "function"
    },
    {
      "inputs": [
        {
          "internalType": "uint256",
          "name": "",
          "type": "uint256"
        },
        {
          "internalType": "uint256",
          "name": "",
          "type": "uint256"
        }
      ],
      "name": "roundTokenIds",
      "outputs": [
        {
          "internalType": "uint256",
          "name": "",
          "type": "uint256"
        }
      ],
      "stateMutability": "view",
      "type": "function"
    },
    {
      "inputs": [
        {
          "internalType": "uint256",
          "name": "roundId",
          "type": "uint256"
        },
        {
          "internalType": "bool",
          "name": "active",
          "type": "bool"
        }
      ],
      "name": "setRoundActive",
      "outputs": [],
      "stateMutability": "nonpayable",
      "type": "function"
    },
    {
      "inputs": [
        {
          "internalType": "address",
          "name": "newUSDTToken",
          "type": "address"
        }
      ],
      "name": "setUSDTToken",
      "outputs": [],
      "stateMutability": "nonpayable",
      "type": "function"
    },
    {
      "inputs": [],
      "name": "totalAddReward",
      "outputs": [
        {
          "internalType": "uint256",
          "name": "",
          "type": "uint256"
        }
      ],
      "stateMutability": "view",
      "type": "function"
    },
    {
      "inputs": [],
      "name": "totalRoundsCreated",
      "outputs": [
        {
          "internalType": "uint256",
          "name": "",
          "type": "uint256"
        }
      ],
      "stateMutability": "view",
      "type": "function"
    },
    {
      "inputs": [],
      "name": "totalUSDTRaised",
      "outputs": [
        {
          "internalType": "uint256",
          "name": "",
          "type": "uint256"
        }
      ],
      "stateMutability": "view",
      "type": "function"
    },
    {
      "inputs": [
        {
          "internalType": "address",
          "name": "newOwner",
          "type": "address"
        }
      ],
      "name": "transferOwnership",
      "outputs": [],
      "stateMutability": "nonpayable",
      "type": "function"
    },
    {
      "inputs": [],
      "name": "unpause",
      "outputs": [],
      "stateMutability": "nonpayable",
      "type": "function"
    },
    {
      "inputs": [
        {
          "internalType": "uint256",
          "name": "roundId",
          "type": "uint256"
        },
        {
          "internalType": "enum FundRaisingContractNFT.Status",
          "name": "status",
          "type": "uint8"
        }
      ],
      "name": "updateStatus",
      "outputs": [],
      "stateMutability": "nonpayable",
      "type": "function"
    },
    {
      "inputs": [],
      "name": "usdtToken",
      "outputs": [
        {
          "internalType": "contract IERC20",
          "name": "",
          "type": "address"
        }
      ],
      "stateMutability": "view",
      "type": "function"
    },
    {
      "inputs": [
        {
          "internalType": "address",
          "name": "",
          "type": "address"
        },
        {
          "internalType": "uint256",
          "name": "",
          "type": "uint256"
        }
      ],
      "name": "userClaimedRewards",
      "outputs": [
        {
          "internalType": "uint256",
          "name": "",
          "type": "uint256"
        }
      ],
      "stateMutability": "view",
      "type": "function"
    },
    {
      "inputs": [
        {
          "internalType": "address",
          "name": "",
          "type": "address"
        },
        {
          "internalType": "uint256",
          "name": "",
          "type": "uint256"
        }
      ],
      "name": "userInvestments",
      "outputs": [
        {
          "internalType": "uint256",
          "name": "",
          "type": "uint256"
        }
      ],
      "stateMutability": "view",
      "type": "function"
    },
    {
      "inputs": [
        {
          "internalType": "uint256",
          "name": "",
          "type": "uint256"
        },
        {
          "internalType": "address",
          "name": "",
          "type": "address"
        },
        {
          "internalType": "uint256",
          "name": "",
          "type": "uint256"
        }
      ],
      "name": "userNFTsInRound",
      "outputs": [
        {
          "internalType": "uint256",
          "name": "",
          "type": "uint256"
        }
      ],
      "stateMutability": "view",
      "type": "function"
    },
    {
      "inputs": [
        {
          "internalType": "uint256",
          "name": "roundId",
          "type": "uint256"
        }
      ],
      "name": "withdrawFund",
      "outputs": [],
      "stateMutability": "nonpayable",
      "type": "function"
    }
  ],
  "bytecode": "0x60a0346101bb57601f61390b38819003918201601f19168301916001600160401b038311848410176101bf5780849260409485528339810103126101bb57610052602061004b836101d3565b92016101d3565b9033156101a8575f8054336001600160a01b0319821681178355604051939290916001600160a01b0316907f8be0079c531659141344cd1fd0a4f28419497f9722a3daafe3b4186f6b6457e09080a3600180556001600160a01b031690811561016657506001600160a01b038216156101215760805260028054610100600160a81b03191660089290921b610100600160a81b031691909117905560405161372390816101e8823960805181818161096201528181610b2701528181610e93015281816116db01526131900152f35b60405162461bcd60e51b815260206004820152601460248201527f496e76616c6964205553445420616464726573730000000000000000000000006044820152606490fd5b62461bcd60e51b815260206004820152601560248201527f496e76616c696420445a4e4654206164647265737300000000000000000000006044820152606490fd5b631e4fbdf760e01b5f525f60045260245ffd5b5f80fd5b634e487b7160e01b5f52604160045260245ffd5b51906001600160a01b03821682036101bb5756fe6080806040526004361015610012575f80fd5b5f3560e01c90816308c89b6d14612ae9575080630cee1725146129ee5780631086bfdc146129995780631144e79e14610def5780631470e87d1461108d578063161f66221461291757806318f38da21461287a5780631aadde111461285d5780631f8cfb031461280157806330814b1b146127e457806330901347146124015780633a1b3d31146123a45780633f4ba83a1461233e5780634007a76214612306578063464687631461211d5780635312ea8e14611fc25780635c975abb14611fa0578063632d45eb14611f7657806366e226bd14611e63578063676045511461168a57806369fbd3cc146115bf578063715018a61461157b578063760ca4f4146113ab57806379b2c17a146113145780637c315754146112cb5780637f46f82e1461124e5780638456cb59146111f55780638da5cb5b146111ce5780639244adcd1461118557806393b58d8114611141578063a09686c4146110b9578063a98ad46c1461108d578063b0eff31614611070578063b175b32f14611046578063b201c0c314611017578063b4ad7d3a14610fcf578063b82e4fc314610ec2578063bf32eb0114610e7e578063c52c5c8814610df4578063c6f8341814610def578063c8f7604014610d65578063df8493b0146107d9578063e96d87b414610308578063ef1b92a4146102a7578063ef2cfd1a1461028c5763f2fde38b14610216575f80fd5b346102885760203660031901126102885761022f612b74565b610237613562565b6001600160a01b03168015610275575f80546001600160a01b03198116831782556001600160a01b0316905f5160206136ce5f395f51905f529080a3005b631e4fbdf760e01b5f525f60045260245ffd5b5f80fd5b34610288575f36600319011261028857602060405160128152f35b34610288576060366003190112610288576102c0612b5e565b604435906004355f52600660205260405f209060018060a01b03165f5260205260405f208054821015610288576020916102f991612d75565b90549060031b1c604051908152f35b346102885760c0366003190112610288576004356001600160401b038111610288573660238201121561028857806004013561034381612d9e565b916103516040519384612cb2565b818352366024838301011161028857815f926024602093018386013783010152608435906024359060a43560643560443561038a613562565b8351156107975784156107535780151580610747575b156106f65781156106a557428611156106615785831115610612576103d3600c54956103cb87613153565b600c556130fb565b92604051966103e188612c96565b8688526020880195865260408801948552606088019283526080880193845260a088015f815260c0890191825260e08901928352610100890194600186526101208a0194600186526101408b01974289526101608c01995f8b528b5f52600360205260405f209c518d5560018d01905180519060018060401b0382116105fe57819061046d8454612c5e565b601f81116105ae575b50602090601f831160011461054b575f92610540575b50508160011b915f199060031b1c19161790555b5160028c01555160038b01555160048a01555160058901555160068801555160078701556104e16008870192511515839060ff801983541691151516179055565b51815461ff00191690151560081b61ff00161790555160098401555191600583101561052c57602092600a6105169201612e67565b610521600d54613153565b600d55604051908152f35b634e487b7160e01b5f52602160045260245ffd5b015190508f8061048c565b5f8581528281209350601f198516905b818110610596575090846001959493921061057e575b505050811b0190556104a0565b01515f1960f88460031b161c191690558f8080610571565b9293602060018192878601518155019501930161055b565b909150835f5260205f20601f840160051c810191602085106105f4575b90601f859493920160051c01905b8181106105e65750610476565b5f81558493506001016105d9565b90915081906105cb565b634e487b7160e01b5f52604160045260245ffd5b60405162461bcd60e51b815260206004820152602160248201527f456e642064617465206d75737420626520616674657220636c6f7365206461746044820152606560f81b6064820152608490fd5b60405162461bcd60e51b815260206004820152601c60248201527b436c6f73652064617465206d75737420626520696e2066757475726560201b6044820152606490fd5b60405162461bcd60e51b815260206004820152602360248201527f546f74616c20746f6b656e73206d75737420626520677265617465722074686160448201526206e20360ec1b6064820152608490fd5b60405162461bcd60e51b815260206004820152602360248201527f496e76616c6964207265776172642070657263656e746167652028302d31303060448201526230302960e81b6064820152608490fd5b506127108111156103a0565b60405162461bcd60e51b815260206004820152601c60248201527b05072696365206d7573742062652067726561746572207468616e20360241b6044820152606490fd5b60405162461bcd60e51b815260206004820152601a602482015279526f756e64206e616d652063616e6e6f7420626520656d70747960301b6044820152606490fd5b34610288576107e736612c48565b906107f0613672565b6107f8613692565b805f52600360205261081660ff600860405f20015460081c16612db9565b805f52600360205260ff600860405f2001541615610d2a57805f526003602052610849600660405f2001544211156134e3565b805f526003602052610863600660405f20015442106134e3565b8115610cd95760328211610c7757805f52600360205260405f20906002820161088d815485613133565b928315610c395760058101916108a4868454613146565b600483015410610be2576002546040516323b872dd60e01b815290602090829060081c6001600160a01b0316815f816108e28c3033600485016134c1565b03925af18015610ab5575f90610ba7575b6108fd9150612e24565b54906003810154906007600682015491015491600188115f14610ac057604051632fdc968f60e21b8152336004820152602481018990526044810187905260648101949094526084840152600160a484015260c483015260e48201525f8161010481837f00000000000000000000000000000000000000000000000000000000000000006001600160a01b03165af1908115610ab5575f91610a93575b50935b825f52600460205260405f20335f52600560205260405f2090845f52600660205260405f2060018060a01b0333165f5260205260405f20805415925f5b858110610a4e576020610a288b8b8b8b6109fb8c8c610a35575b8254613146565b9055610a0982600e54613146565b600e555f5260078452610a2160405f20918254613146565b9055612f88565b5160018055604051908152f35b335f5260088852610a498460405f2061352e565b6109f4565b80610a65610a5e6001938d612f95565b518661352e565b610a79610a72828d612f95565b518461352e565b610a8d610a86828d612f95565b518561352e565b016109da565b610aaf91503d805f833e610aa78183612cb2565b810190612edd565b8561099a565b6040513d5f823e3d90fd5b9692604092835192610ad28585612cb2565b60018452601f198501366020860137839985519363f4fb815960e01b8552336004860152896024860152604485015260648401526001608484015260a483015260c482015260208160e4815f60018060a01b037f0000000000000000000000000000000000000000000000000000000000000000165af1928315610b9e57505f92610b68575b50610b6290612f88565b5261099d565b9091506020813d602011610b96575b81610b8460209383612cb2565b81010312610288575190610b62610b58565b3d9150610b77565b513d5f823e3d90fd5b506020813d602011610bda575b81610bc160209383612cb2565b8101031261028857610bd56108fd91612dfc565b6108f3565b3d9150610bb4565b60405162461bcd60e51b815260206004820152602960248201527f4e6f7420656e6f75676820746f6b656e7320617661696c61626c6520696e20746044820152681a1a5cc81c9bdd5b9960ba1b6064820152608490fd5b60405162461bcd60e51b8152602060048201526016602482015275151bdad95b88185b5bdd5b9d081d1bdbc81cdb585b1b60521b6044820152606490fd5b60405162461bcd60e51b815260206004820152603460248201527f546f6b656e20616d6f756e742065786365656473206d6178696d756d20616c6c60448201527337bbb2b2103832b9103a3930b739b0b1ba34b7b760611b6064820152608490fd5b60405162461bcd60e51b815260206004820152602360248201527f546f6b656e20616d6f756e74206d75737420626520677265617465722074686160448201526206e20360ec1b6064820152608490fd5b60405162461bcd60e51b8152602060048201526013602482015272526f756e64206973206e6f742061637469766560681b6044820152606490fd5b34610288575f366003190112610288576002546040516370a0823160e01b8152306004820152906020908290602490829060081c6001600160a01b03165afa8015610ab5575f90610dbc575b602090604051908152f35b506020813d602011610de7575b81610dd660209383612cb2565b810103126102885760209051610db1565b3d9150610dc9565b612b10565b34610288576020366003190112610288576001600160a01b03610e15612b74565b165f52600560205260405f206040519081602082549182815201915f5260205f20905f5b818110610e6857610e6485610e5081870382612cb2565b604051918291602083526020830190612b2b565b0390f35b8254845260209093019260019283019201610e39565b34610288575f366003190112610288576040517f00000000000000000000000000000000000000000000000000000000000000006001600160a01b03168152602090f35b3461028857602036600319011261028857610fc3600435610ee161340b565b50805f526003602052610f0060ff600860405f20015460081c16612db9565b805f526003602052610faf60405f2091610faa60ff600a60405195610f2487612c96565b80548752610f3460018201612cd5565b6020880152600281015460408801526003810154606088015260048101546080880152600581015460a0880152600681015460c0880152600781015460e088015282600882015481811615156101008a015260081c16151561012088015260098101546101408801520154166101608501613464565b613588565b604051928392604084526040840190612bae565b90151560208301520390f35b3461028857602036600319011261028857600435805f52600360205261100160ff600860405f20015460081c16612db9565b5f526007602052602060405f2054604051908152f35b346102885761102536612c48565b905f52600460205260405f208054821015610288576020916102f991612d75565b34610288576020366003190112610288576004355f526009602052602060405f2054604051908152f35b34610288575f366003190112610288576020600c54604051908152f35b34610288575f3660031901126102885760025460405160089190911c6001600160a01b03168152602090f35b34610288575f36600319011261028857600d545f905f600c54905b8181106110eb576040838582519182526020820152f35b805f52600360205260ff600860405f20015460081c1680611128575b611114575b6001016110d4565b92611120600191613153565b93905061110c565b50805f52600360205260ff600860405f20015416611107565b34610288576040366003190112610288576001600160a01b03611162612b74565b165f52600a60205260405f206024355f52602052602060405f2054604051908152f35b346102885760403660031901126102885761119e612b74565b6001600160a01b03165f90815260056020526040902080546024359190821015610288576020916102f991612d75565b34610288575f366003190112610288575f546040516001600160a01b039091168152602090f35b34610288575f3660031901126102885761120d613562565b611215613692565b600160ff1960025416176002557f62e78cea01bee320cd4e420270b5ea74000d11b0c9f74754ebdbfc544b05a2586020604051338152a1005b34610288576020366003190112610288576001600160a01b0361126f612b74565b1661127b811515612e7f565b5f52600860205260405f206040519081602082549182815201915f5260205f20905f5b8181106112b557610e6485610e5081870382612cb2565b825484526020909301926001928301920161129e565b34610288576040366003190112610288576112e4612b74565b6001600160a01b03165f90815260086020526040902080546024359190821015610288576020916102f991612d75565b346102885760403660031901126102885760043560243580151590818103610288577fdd8c33b779db77b877161fe300dfc92dc5b0d87c7e4199701eb25330a83e16f9916113a2602092611366613562565b855f526003845261138360ff600860405f20015460081c16612db9565b855f5260038452600860405f20019060ff801983541691151516179055565b604051908152a2005b34610288576113b936612c48565b6113c1613562565b815f5260036020526113df60ff600860405f20015460081c16612db9565b801561152a576002545f906020906114249060081c6001600160a01b0316611406856130fb565b6040519485809481936323b872dd60e01b83523033600485016134c1565b03925af1908115610ab5575f916114d9575b505f5160206136ae5f395f51905f5291611451604092612e24565b61145a816130fb565b845f526009602052611470835f20918254613146565b905561147b816130fb565b845f526007602052611491835f20918254613146565b9055835f5260046020526114a9825f2054151561347d565b6114bd6114b5826130fb565b600f54613146565b600f55835f526009602052815f205482519182526020820152a2005b90506020813d602011611522575b816114f460209383612cb2565b81010312610288575f5160206136ae5f395f51905f5291611451611519604093612dfc565b92505091611436565b3d91506114e7565b60405162461bcd60e51b8152602060048201526024808201527f52657761726420616d6f756e74206d75737420626520677265617465722074686044820152630616e20360e41b6064820152608490fd5b34610288575f36600319011261028857611593613562565b5f80546001600160a01b0319811682556001600160a01b03165f5160206136ce5f395f51905f528280a3005b34610288576020366003190112610288576004355f52600360205261018060405f20805490610e646115f360018301612cd5565b60028301549260ff60038201546004830154600584015460068501549060078601549260088701549461164387600a60098b01549a015416996040519e8f9e8f9081528160208201520190612b8a565b9a60408d015260608c015260808b015260a08a015260c089015260e0880152818116151561010088015260081c161515610120860152610140850152610160840190612b03565b34610288576020366003190112610288576004356116a6613672565b6116ae613692565b805f5260036020526116cc60ff600860405f20015460081c16612db9565b604051631683a8f560e21b81527f00000000000000000000000000000000000000000000000000000000000000006001600160a01b031691905f8180611716853360048401612e09565b0381865afa908115610ab5575f91611e49575b506117368151151561347d565b6032815111611dd4575f5f915f915b8151831015611923576117588383612f95565b51604051906331a9108f60e11b825260048201526020816024818a5afa908115610ab5575f916118ea575b50336001600160a01b03909116036118e05761179f8383612f95565b519060405191634712f17360e11b835260048301525f826024818a5afa918215610ab5575f926118bc575b506101208201516118b15760c0820151804211156118a5576117ec9042613470565b62ed4e0081106118a5576118096080840151604085015190613133565b926301e13380606461181f606084015187613133565b04921061186e576101400151600193611857939092909115611861576118519261184b91861c90613146565b90613146565b94613153565b925b019192611745565b61184b9061185193613146565b610140919296935001511561188a575b50611857600191613153565b61189d6001929561185792841c90613146565b94915061187e565b50939260019150611859565b939260019150611859565b6118d99192503d805f833e6118d18183612cb2565b810190612fbd565b90876117ca565b9291600190611859565b90506020813d821161191b575b8161190460209383612cb2565b810103126102885761191590612fa9565b87611783565b3d91506118f7565b91509115611d93578015611d59576002546040516370a0823160e01b8152306004820152906020908290602490829060081c6001600160a01b03165afa8015610ab55782915f91611d24575b5010611cd457825f5260096020528060405f205410611c8f575f5b8251811015611bb45761199d8184612f95565b51604051906331a9108f60e11b82526004820152602081602481895afa908115610ab5575f91611b7b575b50336001600160a01b0390911603611af0576119e48184612f95565b5160405190634712f17360e11b825260048201525f81602481895afa908115610ab5575f91611b61575b50610120810151611b585760c081015180421115611b4e57611a309042613470565b62ed4e008110611b4e576301e1338011611ae55750611a4f8184612f95565b51853b1561028857604051906319f477d960e01b825260048201525f81602481838a5af18015610ab557611ad5575b50611a898184612f95565b5190853b15610288576040519163bed62f3560e01b835260048301525f82602481838a5af1918215610ab557600192611ac5575b505b0161198a565b5f611acf91612cb2565b86611abd565b5f611adf91612cb2565b85611a7e565b610140015115611af8575b600190611abf565b611b028184612f95565b5190853b1561028857604051916318d8e2a560e01b835260048301525f82602481838a5af1918215610ab557600192611b3e575b509050611af0565b5f611b4891612cb2565b86611b36565b5050600190611abf565b50600190611abf565b611b7591503d805f833e6118d18183612cb2565b86611a0e565b90506020813d8211611bac575b81611b9560209383612cb2565b8101031261028857611ba690612fa9565b866119c8565b3d9150611b88565b5f6020611c348487338552600b845260408520611bd2838254613146565b90558085526009845260408520611bea838254613470565b905584526007835260408420611c01828254613470565b905560025460405163a9059cbb60e01b815294859360089290921c6001600160a01b031692849283913360048401612e09565b03925af18015610ab5575f90611c54575b611c4e90612e24565b60018055005b506020813d602011611c87575b81611c6e60209383612cb2565b8101031261028857611c82611c4e91612dfc565b611c45565b3d9150611c61565b60405162461bcd60e51b815260206004820152601f60248201527f496e73756666696369656e7420726f756e6420555344542062616c616e6365006044820152606490fd5b60405162461bcd60e51b815260206004820152602260248201527f496e73756666696369656e7420636f6e747261637420555344542062616c616e604482015261636560f01b6064820152608490fd5b9150506020813d602011611d51575b81611d4060209383612cb2565b81010312610288578190518661196f565b3d9150611d33565b60405162461bcd60e51b81526020600482015260126024820152714e6f20616d6f756e7420746f20636c61696d60701b6044820152606490fd5b60405162461bcd60e51b81526020600482015260196024820152784e6f20656c696769626c65204e46547320746f20636c61696d60381b6044820152606490fd5b60405162461bcd60e51b815260206004820152604160248201527f546f6f206d616e79204e46547320746f20636c61696d206174206f6e63652c2060448201527f706c656173652073706c697420696e746f20736d616c6c6572206261746368656064820152607360f81b608482015260a490fd5b611e5d91503d805f833e610aa78183612cb2565b83611729565b3461028857602036600319011261028857611e7c612b74565b611e84613562565b6001600160a01b038116908115611f3457600254600881901c6001600160a01b031691838314611ef557610100600160a81b031990911660089190911b610100600160a81b0316176002557f92852dbadca7e6fa4e0d5dd87891e6dd13f50a304561a86ea9d5a710b972e4495f80a3005b60405162461bcd60e51b815260206004820152601760248201527653616d65205553445420746f6b656e206164647265737360481b6044820152606490fd5b60405162461bcd60e51b815260206004820152601a602482015279496e76616c6964205553445420746f6b656e206164647265737360301b6044820152606490fd5b34610288576020366003190112610288576004355f526007602052602060405f2054604051908152f35b34610288575f36600319011261028857602060ff600254166040519015158152f35b3461028857602036600319011261028857600435611fde613562565b6002546040516370a0823160e01b815230600482015260089190911c6001600160a01b031690602081602481855afa8015610ab55783915f916120e8575b50106120ac575f805460405163a9059cbb60e01b815293602093859390928492839161205591906001600160a01b031660048401612e09565b03925af18015610ab5575f90612071575b61206f90612e24565b005b506020813d6020116120a4575b8161208b60209383612cb2565b810103126102885761209f61206f91612dfc565b612066565b3d915061207e565b60405162461bcd60e51b8152602060048201526014602482015273496e73756666696369656e742062616c616e636560601b6044820152606490fd5b9150506020813d602011612115575b8161210460209383612cb2565b81010312610288578290518461201c565b3d91506120f7565b346102885761212b36612c48565b90612134613562565b805f52600360205261215260ff600860405f20015460081c16612db9565b81156122c157805f5260076020528160405f20541061227f576002546040516370a0823160e01b8152306004820152906020908290602490829060081c6001600160a01b03165afa8015610ab55783915f9161224a575b501061220557612055916020915f526007825260405f206121cb828254613470565b90556002545f805460405163a9059cbb60e01b815295869460089490941c6001600160a01b03908116948694938593921660048401612e09565b60405162461bcd60e51b815260206004820152601d60248201527f496e73756666696369656e7420636f6e74726163742062616c616e63650000006044820152606490fd5b9150506020813d602011612277575b8161226660209383612cb2565b8101031261028857829051846121a9565b3d9150612259565b60405162461bcd60e51b815260206004820152601a602482015279496e73756666696369656e7420726f756e642062616c616e636560301b6044820152606490fd5b60405162461bcd60e51b815260206004820152601d60248201527f416d6f756e74206d7573742062652067726561746572207468616e20300000006044820152606490fd5b34610288576020366003190112610288576001600160a01b03612327612b74565b165f52600b602052602060405f2054604051908152f35b34610288575f36600319011261028857612356613562565b60025460ff8116156123955760ff19166002557f5db9ee0a495bf2e6ff9c91a7834c1ba4fdd244a5e8aa4e537bd38aeae4b073aa6020604051338152a1005b638dfc202b60e01b5f5260045ffd5b346102885760403660031901126102885760043560243560058110156102885761206f916123d0613562565b805f5260036020526123ee60ff600860405f20015460081c16612db9565b5f526003602052600a60405f2001612e67565b34610288576020366003190112610288576001600160a01b03612422612b74565b1661242e811515612e7f565b805f52600860205260405f2090604051808360208295549384815201905f5260205f20925f5b8181106127cb57505061246992500383612cb2565b81519161247583612ec6565b926124836040519485612cb2565b808452612492601f1991612ec6565b015f5b8181106127b45750508051906124aa82612ec6565b916124b86040519384612cb2565b8083526124c7601f1991612ec6565b015f5b8181106127a35750506124dd8151612f56565b915f5b8251811015612658576124f38184612f95565b515f52600360205260405f2061259960ff600a6040519361251385612c96565b8054855261252360018201612cd5565b6020860152600281015460408601526003810154606086015260048101546080860152600581015460a0860152600681015460c0860152600781015460e0860152826008820154818116151561010088015260081c16151561012086015260098101546101408601520154166101608301613464565b6125a38288612f95565b526125ae8187612f95565b506125b98184612f95565b515f52600660205260405f20855f5260205260405f206040519081602082549182815201915f5260205f20905f905b808210612640575050509061260281600194930382612cb2565b61260c8285612f95565b526126178184612f95565b5061262b6126258286612f95565b51613588565b6126358287612f95565b9015159052016124e0565b909192600160208192865481520194019201906125e8565b5090826126749286604051948594608086526080860190612b2b565b8481036020860152815180825260208201916020808360051b8301019401925f915b83831061276e5750505050508381036040850152815180825260208201916020808360051b8301019401925f915b8383106127105750505050508281036060840152602080835192838152019201905f5b8181106126f5575050500390f35b825115158452859450602093840193909201916001016126e7565b91939596509193601f19828203018352855190602080835192838152019201905f905b8082106127565750505060208060019297019301930190928796959492936126c4565b90919260208060019286518152019401920190612733565b919395969750919360208061278f600193601f198682030187528951612bae565b970193019301909288979695949293612696565b8060606020809387010152016124ca565b6020906127bf61340b565b82828801015201612495565b8454835260019485019487945060209093019201612454565b34610288575f366003190112610288576020600d54604051908152f35b3461028857602036600319011261028857610e64612825612820612b74565b613161565b90612845604096949651968796875260a0602088015260a0870190612b2b565b92604086015260608501528382036080850152612b2b565b34610288575f366003190112610288576020600f54604051908152f35b3461028857604036600319011261028857600435612896612b5e565b90805f5260036020526128b560ff600860405f20015460081c16612db9565b5f52600660205260405f209060018060a01b03165f5260205260405f206040519081602082549182815201915f5260205f20905f5b81811061290157610e6485610e5081870382612cb2565b82548452602090930192600192830192016128ea565b3461028857602036600319011261028857600435805f52600360205261294960ff600860405f20015460081c16612db9565b5f52600460205260405f206040519081602082549182815201915f5260205f20905f5b81811061298357610e6485610e5081870382612cb2565b825484526020909301926001928301920161296c565b3461028857602036600319011261028857600435805f5260036020526129cb60ff600860405f20015460081c16612db9565b5f526003602052602060ff600a60405f200154166129ec6040518092612b03565bf35b3461028857602036600319011261028857600435612a0a613562565b805f526003602052612a2860ff600860405f20015460081c16612db9565b5f8181526007602090815260408083208054908490556002548454925163a9059cbb60e01b81529485936001600160a01b0360089390931c83169385938492612a7692911660048401612e09565b03925af18015610ab5575f90612aae575b612a919150612e24565b5f526003602052600a60405f2001600360ff198254161790555f80f35b506020813d602011612ae1575b81612ac860209383612cb2565b8101031261028857612adc612a9191612dfc565b612a87565b3d9150612abb565b34610288575f36600319011261028857602090600e548152f35b90600582101561052c5752565b34610288575f36600319011261028857602060405160328152f35b90602080835192838152019201905f5b818110612b485750505090565b8251845260209384019390920191600101612b3b565b602435906001600160a01b038216820361028857565b600435906001600160a01b038216820361028857565b805180835260209291819084018484015e5f828201840152601f01601f1916010190565b90612c45908251815261016080612bd660208601516101806020860152610180850190612b8a565b9460408101516040850152606081015160608501526080810151608085015260a081015160a085015260c081015160c085015260e081015160e0850152610100810151151561010085015261012081015115156101208501526101408101516101408501520151910190612b03565b90565b6040906003190112610288576004359060243590565b90600182811c92168015612c8c575b6020831014612c7857565b634e487b7160e01b5f52602260045260245ffd5b91607f1691612c6d565b61018081019081106001600160401b038211176105fe57604052565b601f909101601f19168101906001600160401b038211908210176105fe57604052565b9060405191825f825492612ce884612c5e565b8084529360018116908115612d535750600114612d0f575b50612d0d92500383612cb2565b565b90505f9291925260205f20905f915b818310612d37575050906020612d0d928201015f612d00565b6020919350806001915483858901015201910190918492612d1e565b905060209250612d0d94915060ff191682840152151560051b8201015f612d00565b8054821015612d8a575f5260205f2001905f90565b634e487b7160e01b5f52603260045260245ffd5b6001600160401b0381116105fe57601f01601f191660200190565b15612dc057565b60405162461bcd60e51b8152602060048201526014602482015273149bdd5b9908191bd95cc81b9bdd08195e1a5cdd60621b6044820152606490fd5b5190811515820361028857565b6001600160a01b039091168152602081019190915260400190565b15612e2b57565b60405162461bcd60e51b81526020600482015260146024820152731554d115081d1c985b9cd9995c8819985a5b195960621b6044820152606490fd5b90600581101561052c5760ff80198354169116179055565b15612e8657565b60405162461bcd60e51b8152602060048201526018602482015277496e76616c696420696e766573746f72206164647265737360401b6044820152606490fd5b6001600160401b0381116105fe5760051b60200190565b602081830312610288578051906001600160401b03821161028857019080601f83011215610288578151612f1081612ec6565b92612f1e6040519485612cb2565b81845260208085019260051b82010192831161028857602001905b828210612f465750505090565b8151815260209182019101612f39565b90612f6082612ec6565b612f6d6040519182612cb2565b8281528092612f7e601f1991612ec6565b0190602036910137565b805115612d8a5760200190565b8051821015612d8a5760209160051b010190565b51906001600160a01b038216820361028857565b602081830312610288578051906001600160401b0382116102885701906101a08282031261028857604051916101a083016001600160401b038111848210176105fe57604052805183526020810151602084015260408101516040840152606081015160608401526080810151608084015260a081015160a084015260c081015160c084015260e081015160e084015261305a6101008201612fa9565b61010084015261306d6101208201612dfc565b6101208401526130806101408201612dfc565b6101408401526130936101608201612dfc565b610160840152610180810151906001600160401b038211610288570181601f82011215610288578051906130c682612d9e565b926130d46040519485612cb2565b8284526020838301011161028857815f9260208093018386015e8301015261018082015290565b90670de0b6b3a7640000820291808304670de0b6b3a7640000149015171561311f57565b634e487b7160e01b5f52601160045260245ffd5b8181029291811591840414171561311f57565b9190820180921161311f57565b5f19811461311f5760010190565b5f916001600160a01b039091169061317a821515612e7f565b604051635447be0b60e01b8152600481018390527f00000000000000000000000000000000000000000000000000000000000000006001600160a01b031691905f81602481865afa908115610ab5575f916133f1575b5080928151945f52600b60205260405f20549185156133cc5750600d54936132006131fa86612f56565b95612f56565b925f945f5b83518110156132cc576132188185612f95565b51996040519a634712f17360e11b8c5260048c01525f8b602481895afa9a8b15610ab5575f9b6132a9575b5061325e60209161184b8d6040608082015191015190613133565b9a01518861326c8289612f95565b511561327d575b5050600101613205565b97600161329b836132a1946132948585989e612f95565b528a612f95565b52613153565b969088613273565b6020919b506132c461325e913d805f833e6118d18183612cb2565b9b9150613243565b509350949390969591505f5f5b82811061336857506132ea90612f56565b935f905f5b83811061330157505050509493929190565b61330b8183612f95565b51805f52600360205260ff600860405f20015460081c168061334f575b613336575b506001016132ef565b836133489161329b600194968b612f95565b929061332d565b50805f52600360205260ff600860405f20015416613328565b6133728187612f95565b51805f52600360205260ff600860405f20015460081c1690816133b2575b5061339e575b6001016132d9565b906133aa600191613153565b919050613396565b90505f52600360205260ff600860405f200154165f613390565b955050915091506040516133e1602082612cb2565b5f81525f3681375f93925f929190565b61340591503d805f833e610aa78183612cb2565b5f6131d0565b6040519061341882612c96565b5f61016083828152606060208201528260408201528260608201528260808201528260a08201528260c08201528260e08201528261010082015282610120820152826101408201520152565b600582101561052c5752565b9190820391821161311f57565b1561348457565b60405162461bcd60e51b8152602060048201526015602482015274139bc81391951cc81a5b881d1a1a5cc81c9bdd5b99605a1b6044820152606490fd5b6001600160a01b03918216815291166020820152604081019190915260600190565b156134ea57565b60405162461bcd60e51b815260206004820152601c60248201527b125b9d995cdd1b595b9d081c195c9a5bd9081a185cc818db1bdcd95960221b6044820152606490fd5b8054600160401b8110156105fe5761354b91600182018155612d75565b819291549060031b91821b915f19901b1916179055565b5f546001600160a01b0316330361357557565b63118cdaa760e01b5f523360045260245ffd5b612c4590805f5260036020526135aa60ff600860405f20015460081c16612db9565b5f52600360205260405f206136516040516135c481612c96565b825481526135d460018401612cd5565b6020820152600283015460408201526003830154606082015260048301546080820152600583015460a082015261016060ff600a60068601549560c08501968752600781015460e0860152826008820154818116151561010088015260081c16151561012086015260098101546101408601520154169101613464565b518042111561366d5761366862ed4e009142613470565b101590565b505f90565b600260015414613683576002600155565b633ee5aeb560e01b5f5260045ffd5b60ff6002541661369e57565b63d93c066560e01b5f5260045ffdfe9795f222c951ae3e749f872dbe287f78d21fa52353e9175cb20ed3aa2b29b82b8be0079c531659141344cd1fd0a4f28419497f9722a3daafe3b4186f6b6457e0a26469706673582212207630f60aa39fe607b149b031dbd7d5a1166584e57c062577569a24ce572e08dc64736f6c634300081c0033",
  "linkReferences": {},
  "deployedLinkReferences": {},
  "immutableReferences": {
    "9580": [
      {
        "length": 32,
        "start": 2402
      },
      {
        "length": 32,
        "start": 2855
      },
      {
        "length": 32,
        "start": 3731
      },
      {
        "length": 32,
        "start": 5851
      },
      {
        "length": 32,
        "start": 12688
      }
    ]
  },
  "inputSourceName": "project/contracts/FundRaisingContractNFT.sol",
  "buildInfoId": "solc-0_8_28-bd54fdd6afe8cf8b242377c06a48bdd4ac0e5032"
}