{
  "_format": "hh3-artifact-1",
  "contractName": "FundRaisingContractNFT",
  "sourceName": "contracts/FundRaisingContractNFT.sol",
  "abi": [
    {
      "inputs": [
        {
          "internalType": "address",
          "name": "_dzNFT",
          "type": "address"
        },
        {
          "internalType": "address",
          "name": "_usdtToken",
          "type": "address"
        }
      ],
      "stateMutability": "nonpayable",
      "type": "constructor"
    },
    {
      "inputs": [],
      "name": "EnforcedPause",
      "type": "error"
    },
    {
      "inputs": [],
      "name": "ExpectedPause",
      "type": "error"
    },
    {
      "inputs": [
        {
          "internalType": "address",
          "name": "owner",
          "type": "address"
        }
      ],
      "name": "OwnableInvalidOwner",
      "type": "error"
    },
    {
      "inputs": [
        {
          "internalType": "address",
          "name": "account",
          "type": "address"
        }
      ],
      "name": "OwnableUnauthorizedAccount",
      "type": "error"
    },
    {
      "inputs": [],
      "name": "ReentrancyGuardReentrantCall",
      "type": "error"
    },
    {
      "anonymous": false,
      "inputs": [
        {
          "indexed": true,
          "internalType": "uint256",
          "name": "tokenId",
          "type": "uint256"
        },
        {
          "indexed": true,
          "internalType": "address",
          "name": "investor",
          "type": "address"
        },
        {
          "indexed": false,
          "internalType": "uint256",
          "name": "rewardAmount",
          "type": "uint256"
        }
      ],
      "name": "EarlyRewardClaimed",
      "type": "event"
    },
    {
      "anonymous": false,
      "inputs": [
        {
          "indexed": true,
          "internalType": "uint256",
          "name": "roundId",
          "type": "uint256"
        },
        {
          "indexed": true,
          "internalType": "uint256",
          "name": "tokenId",
          "type": "uint256"
        },
        {
          "indexed": true,
          "internalType": "address",
          "name": "investor",
          "type": "address"
        },
        {
          "indexed": false,
          "internalType": "uint256",
          "name": "amountUSDT",
          "type": "uint256"
        },
        {
          "indexed": false,
          "internalType": "uint256",
          "name": "tokensReceived",
          "type": "uint256"
        }
      ],
      "name": "InvestmentMade",
      "type": "event"
    },
    {
      "anonymous": false,
      "inputs": [
        {
          "indexed": true,
          "internalType": "address",
          "name": "previousOwner",
          "type": "address"
        },
        {
          "indexed": true,
          "internalType": "address",
          "name": "newOwner",
          "type": "address"
        }
      ],
      "name": "OwnershipTransferred",
      "type": "event"
    },
    {
      "anonymous": false,
      "inputs": [
        {
          "indexed": false,
          "internalType": "address",
          "name": "account",
          "type": "address"
        }
      ],
      "name": "Paused",
      "type": "event"
    },
    {
      "anonymous": false,
      "inputs": [
        {
          "indexed": true,
          "internalType": "uint256",
          "name": "tokenId",
          "type": "uint256"
        },
        {
          "indexed": true,
          "internalType": "address",
          "name": "investor",
          "type": "address"
        },
        {
          "indexed": false,
          "internalType": "uint256",
          "name": "payout",
          "type": "uint256"
        }
      ],
      "name": "RedemptionMade",
      "type": "event"
    },
    {
      "anonymous": false,
      "inputs": [
        {
          "indexed": true,
          "internalType": "uint256",
          "name": "roundId",
          "type": "uint256"
        },
        {
          "indexed": false,
          "internalType": "string",
          "name": "roundName",
          "type": "string"
        },
        {
          "indexed": false,
          "internalType": "uint256",
          "name": "tokenPrice",
          "type": "uint256"
        },
        {
          "indexed": false,
          "internalType": "uint256",
          "name": "rewardPercentage",
          "type": "uint256"
        },
        {
          "indexed": false,
          "internalType": "uint256",
          "name": "totalTokenOpenInvestment",
          "type": "uint256"
        },
        {
          "indexed": false,
          "internalType": "uint256",
          "name": "closeDateInvestment",
          "type": "uint256"
        },
        {
          "indexed": false,
          "internalType": "uint256",
          "name": "endDateInvestment",
          "type": "uint256"
        }
      ],
      "name": "RoundCreated",
      "type": "event"
    },
    {
      "anonymous": false,
      "inputs": [
        {
          "indexed": true,
          "internalType": "uint256",
          "name": "roundId",
          "type": "uint256"
        },
        {
          "indexed": false,
          "internalType": "uint256",
          "name": "amount",
          "type": "uint256"
        }
      ],
      "name": "RoundEmergencyWithdraw",
      "type": "event"
    },
    {
      "anonymous": false,
      "inputs": [
        {
          "indexed": true,
          "internalType": "uint256",
          "name": "roundId",
          "type": "uint256"
        },
        {
          "indexed": false,
          "internalType": "uint256",
          "name": "amount",
          "type": "uint256"
        }
      ],
      "name": "RoundFunded",
      "type": "event"
    },
    {
      "anonymous": false,
      "inputs": [
        {
          "indexed": true,
          "internalType": "uint256",
          "name": "roundId",
          "type": "uint256"
        },
        {
          "indexed": false,
          "internalType": "bool",
          "name": "isActive",
          "type": "bool"
        }
      ],
      "name": "RoundStatusChanged",
      "type": "event"
    },
    {
      "anonymous": false,
      "inputs": [
        {
          "indexed": true,
          "internalType": "address",
          "name": "oldToken",
          "type": "address"
        },
        {
          "indexed": true,
          "internalType": "address",
          "name": "newToken",
          "type": "address"
        }
      ],
      "name": "USDTTokenUpdated",
      "type": "event"
    },
    {
      "anonymous": false,
      "inputs": [
        {
          "indexed": false,
          "internalType": "address",
          "name": "account",
          "type": "address"
        }
      ],
      "name": "Unpaused",
      "type": "event"
    },
    {
      "inputs": [],
      "name": "MAX_BATCH_CLAIM",
      "outputs": [
        {
          "internalType": "uint256",
          "name": "",
          "type": "uint256"
        }
      ],
      "stateMutability": "view",
      "type": "function"
    },
    {
      "inputs": [],
      "name": "MAX_TOKENS_PER_INVESTMENT",
      "outputs": [
        {
          "internalType": "uint256",
          "name": "",
          "type": "uint256"
        }
      ],
      "stateMutability": "view",
      "type": "function"
    },
    {
      "inputs": [],
      "name": "USDT_DECIMALS",
      "outputs": [
        {
          "internalType": "uint256",
          "name": "",
          "type": "uint256"
        }
      ],
      "stateMutability": "view",
      "type": "function"
    },
    {
      "inputs": [
        {
          "internalType": "uint256",
          "name": "roundId",
          "type": "uint256"
        },
        {
          "internalType": "uint256",
          "name": "amount",
          "type": "uint256"
        }
      ],
      "name": "addReward",
      "outputs": [],
      "stateMutability": "nonpayable",
      "type": "function"
    },
    {
      "inputs": [
        {
          "internalType": "uint256",
          "name": "tokenId",
          "type": "uint256"
        }
      ],
      "name": "canTokenClaimEarlyReward",
      "outputs": [
        {
          "internalType": "bool",
          "name": "",
          "type": "bool"
        }
      ],
      "stateMutability": "view",
      "type": "function"
    },
    {
      "inputs": [
        {
          "internalType": "uint256",
          "name": "tokenId",
          "type": "uint256"
        }
      ],
      "name": "canTokenFullyRedeem",
      "outputs": [
        {
          "internalType": "bool",
          "name": "",
          "type": "bool"
        }
      ],
      "stateMutability": "view",
      "type": "function"
    },
    {
      "inputs": [
        {
          "internalType": "uint256",
          "name": "roundId",
          "type": "uint256"
        }
      ],
      "name": "claimRewardRound",
      "outputs": [],
      "stateMutability": "nonpayable",
      "type": "function"
    },
    {
      "inputs": [
        {
          "internalType": "uint256",
          "name": "tokenId",
          "type": "uint256"
        }
      ],
      "name": "claimRewards",
      "outputs": [],
      "stateMutability": "nonpayable",
      "type": "function"
    },
    {
      "inputs": [
        {
          "internalType": "string",
          "name": "roundName",
          "type": "string"
        },
        {
          "internalType": "uint256",
          "name": "tokenPrice",
          "type": "uint256"
        },
        {
          "internalType": "uint256",
          "name": "rewardPercentage",
          "type": "uint256"
        },
        {
          "internalType": "uint256",
          "name": "totalTokenOpenInvestment",
          "type": "uint256"
        },
        {
          "internalType": "uint256",
          "name": "closeDateInvestment",
          "type": "uint256"
        },
        {
          "internalType": "uint256",
          "name": "endDateInvestment",
          "type": "uint256"
        }
      ],
      "name": "createInvestmentRound",
      "outputs": [
        {
          "internalType": "uint256",
          "name": "",
          "type": "uint256"
        }
      ],
      "stateMutability": "nonpayable",
      "type": "function"
    },
    {
      "inputs": [],
      "name": "dzNFT",
      "outputs": [
        {
          "internalType": "contract DZNFT",
          "name": "",
          "type": "address"
        }
      ],
      "stateMutability": "view",
      "type": "function"
    },
    {
      "inputs": [
        {
          "internalType": "uint256",
          "name": "amount",
          "type": "uint256"
        }
      ],
      "name": "emergencyWithdraw",
      "outputs": [],
      "stateMutability": "nonpayable",
      "type": "function"
    },
    {
      "inputs": [
        {
          "internalType": "uint256",
          "name": "roundId",
          "type": "uint256"
        },
        {
          "internalType": "uint256",
          "name": "amount",
          "type": "uint256"
        }
      ],
      "name": "emergencyWithdrawFromRound",
      "outputs": [],
      "stateMutability": "nonpayable",
      "type": "function"
    },
    {
      "inputs": [
        {
          "internalType": "uint256",
          "name": "amount",
          "type": "uint256"
        }
      ],
      "name": "fundContract",
      "outputs": [],
      "stateMutability": "nonpayable",
      "type": "function"
    },
    {
      "inputs": [],
      "name": "getAllRoundUSDTBalances",
      "outputs": [
        {
          "internalType": "uint256[]",
          "name": "roundIds",
          "type": "uint256[]"
        },
        {
          "internalType": "uint256[]",
          "name": "balances",
          "type": "uint256[]"
        }
      ],
      "stateMutability": "view",
      "type": "function"
    },
    {
      "inputs": [
        {
          "internalType": "uint256",
          "name": "roundId",
          "type": "uint256"
        }
      ],
      "name": "getAvailableTokens",
      "outputs": [
        {
          "internalType": "uint256",
          "name": "",
          "type": "uint256"
        }
      ],
      "stateMutability": "view",
      "type": "function"
    },
    {
      "inputs": [
        {
          "internalType": "uint256",
          "name": "roundId",
          "type": "uint256"
        }
      ],
      "name": "getCalculationRewardAmount",
      "outputs": [
        {
          "internalType": "uint256",
          "name": "totalPrincipalAmount",
          "type": "uint256"
        },
        {
          "internalType": "uint256",
          "name": "totalRewardAmount",
          "type": "uint256"
        },
        {
          "internalType": "uint256",
          "name": "totalNFTs",
          "type": "uint256"
        },
        {
          "internalType": "uint256",
          "name": "redeemedNFTs",
          "type": "uint256"
        },
        {
          "internalType": "uint256",
          "name": "rewardClaimedNFTs",
          "type": "uint256"
        }
      ],
      "stateMutability": "view",
      "type": "function"
    },
    {
      "inputs": [],
      "name": "getContractStats",
      "outputs": [
        {
          "internalType": "uint256",
          "name": "totalRounds",
          "type": "uint256"
        },
        {
          "internalType": "uint256",
          "name": "totalUSDTRaisedAmount",
          "type": "uint256"
        },
        {
          "internalType": "uint256",
          "name": "contractUSDTBalance",
          "type": "uint256"
        },
        {
          "internalType": "uint256",
          "name": "activeRounds",
          "type": "uint256"
        }
      ],
      "stateMutability": "view",
      "type": "function"
    },
    {
      "inputs": [],
      "name": "getContractUSDTBalance",
      "outputs": [
        {
          "internalType": "uint256",
          "name": "",
          "type": "uint256"
        }
      ],
      "stateMutability": "view",
      "type": "function"
    },
    {
      "inputs": [
        {
          "internalType": "uint256",
          "name": "roundId",
          "type": "uint256"
        }
      ],
      "name": "getInvestmentRound",
      "outputs": [
        {
          "components": [
            {
              "internalType": "uint256",
              "name": "roundId",
              "type": "uint256"
            },
            {
              "internalType": "string",
              "name": "roundName",
              "type": "string"
            },
            {
              "internalType": "uint256",
              "name": "tokenPrice",
              "type": "uint256"
            },
            {
              "internalType": "uint256",
              "name": "rewardPercentage",
              "type": "uint256"
            },
            {
              "internalType": "uint256",
              "name": "totalTokenOpenInvestment",
              "type": "uint256"
            },
            {
              "internalType": "uint256",
              "name": "tokensSold",
              "type": "uint256"
            },
            {
              "internalType": "uint256",
              "name": "closeDateInvestment",
              "type": "uint256"
            },
            {
              "internalType": "uint256",
              "name": "endDateInvestment",
              "type": "uint256"
            },
            {
              "internalType": "bool",
              "name": "isActive",
              "type": "bool"
            },
            {
              "internalType": "bool",
              "name": "exists",
              "type": "bool"
            },
            {
              "internalType": "uint256",
              "name": "createdAt",
              "type": "uint256"
            }
          ],
          "internalType": "struct FundRaisingContractNFT.InvestmentRound",
          "name": "",
          "type": "tuple"
        }
      ],
      "stateMutability": "view",
      "type": "function"
    },
    {
      "inputs": [
        {
          "internalType": "uint256",
          "name": "roundId",
          "type": "uint256"
        }
      ],
      "name": "getRoundInvestors",
      "outputs": [
        {
          "internalType": "address[]",
          "name": "investors",
          "type": "address[]"
        },
        {
          "internalType": "uint256[]",
          "name": "nftCounts",
          "type": "uint256[]"
        }
      ],
      "stateMutability": "view",
      "type": "function"
    },
    {
      "inputs": [
        {
          "internalType": "uint256",
          "name": "roundId",
          "type": "uint256"
        }
      ],
      "name": "getRoundTokenIds",
      "outputs": [
        {
          "internalType": "uint256[]",
          "name": "",
          "type": "uint256[]"
        }
      ],
      "stateMutability": "view",
      "type": "function"
    },
    {
      "inputs": [
        {
          "internalType": "uint256",
          "name": "roundId",
          "type": "uint256"
        }
      ],
      "name": "getRoundUSDTBalance",
      "outputs": [
        {
          "internalType": "uint256",
          "name": "",
          "type": "uint256"
        }
      ],
      "stateMutability": "view",
      "type": "function"
    },
    {
      "inputs": [],
      "name": "getUSDTTokenAddress",
      "outputs": [
        {
          "internalType": "address",
          "name": "",
          "type": "address"
        }
      ],
      "stateMutability": "view",
      "type": "function"
    },
    {
      "inputs": [
        {
          "internalType": "address",
          "name": "user",
          "type": "address"
        }
      ],
      "name": "getUserInvestments",
      "outputs": [
        {
          "internalType": "uint256[]",
          "name": "",
          "type": "uint256[]"
        }
      ],
      "stateMutability": "view",
      "type": "function"
    },
    {
      "inputs": [
        {
          "internalType": "uint256",
          "name": "roundId",
          "type": "uint256"
        },
        {
          "internalType": "address",
          "name": "user",
          "type": "address"
        }
      ],
      "name": "getUserNFTCountInRound",
      "outputs": [
        {
          "internalType": "uint256",
          "name": "",
          "type": "uint256"
        }
      ],
      "stateMutability": "view",
      "type": "function"
    },
    {
      "inputs": [
        {
          "internalType": "uint256",
          "name": "roundId",
          "type": "uint256"
        },
        {
          "internalType": "address",
          "name": "user",
          "type": "address"
        }
      ],
      "name": "getUserNFTsInRound",
      "outputs": [
        {
          "internalType": "uint256[]",
          "name": "",
          "type": "uint256[]"
        }
      ],
      "stateMutability": "view",
      "type": "function"
    },
    {
      "inputs": [
        {
          "internalType": "uint256",
          "name": "roundId",
          "type": "uint256"
        },
        {
          "internalType": "address",
          "name": "user",
          "type": "address"
        }
      ],
      "name": "getUserRoundSummary",
      "outputs": [
        {
          "internalType": "uint256",
          "name": "nftCount",
          "type": "uint256"
        },
        {
          "internalType": "uint256",
          "name": "totalUSDTInvested",
          "type": "uint256"
        },
        {
          "internalType": "uint256",
          "name": "totalTokens",
          "type": "uint256"
        },
        {
          "internalType": "uint256",
          "name": "expectedReward",
          "type": "uint256"
        },
        {
          "internalType": "uint256",
          "name": "totalExpectedPayout",
          "type": "uint256"
        },
        {
          "internalType": "bool",
          "name": "hasMaturedInvestments",
          "type": "bool"
        },
        {
          "internalType": "bool",
          "name": "hasRedeemedInvestments",
          "type": "bool"
        }
      ],
      "stateMutability": "view",
      "type": "function"
    },
    {
      "inputs": [
        {
          "internalType": "uint256",
          "name": "roundId",
          "type": "uint256"
        },
        {
          "internalType": "address",
          "name": "user",
          "type": "address"
        }
      ],
      "name": "getUserTotalInvestmentInRound",
      "outputs": [
        {
          "internalType": "uint256",
          "name": "totalUSDT",
          "type": "uint256"
        },
        {
          "internalType": "uint256",
          "name": "totalTokens",
          "type": "uint256"
        }
      ],
      "stateMutability": "view",
      "type": "function"
    },
    {
      "inputs": [
        {
          "internalType": "uint256",
          "name": "roundId",
          "type": "uint256"
        },
        {
          "internalType": "address",
          "name": "user",
          "type": "address"
        }
      ],
      "name": "hasUserInvestedInRound",
      "outputs": [
        {
          "internalType": "bool",
          "name": "",
          "type": "bool"
        }
      ],
      "stateMutability": "view",
      "type": "function"
    },
    {
      "inputs": [
        {
          "internalType": "uint256",
          "name": "roundId",
          "type": "uint256"
        },
        {
          "internalType": "uint256",
          "name": "tokenAmount",
          "type": "uint256"
        }
      ],
      "name": "investInRound",
      "outputs": [
        {
          "internalType": "uint256",
          "name": "",
          "type": "uint256"
        }
      ],
      "stateMutability": "nonpayable",
      "type": "function"
    },
    {
      "inputs": [
        {
          "internalType": "uint256",
          "name": "",
          "type": "uint256"
        }
      ],
      "name": "investmentRounds",
      "outputs": [
        {
          "internalType": "uint256",
          "name": "roundId",
          "type": "uint256"
        },
        {
          "internalType": "string",
          "name": "roundName",
          "type": "string"
        },
        {
          "internalType": "uint256",
          "name": "tokenPrice",
          "type": "uint256"
        },
        {
          "internalType": "uint256",
          "name": "rewardPercentage",
          "type": "uint256"
        },
        {
          "internalType": "uint256",
          "name": "totalTokenOpenInvestment",
          "type": "uint256"
        },
        {
          "internalType": "uint256",
          "name": "tokensSold",
          "type": "uint256"
        },
        {
          "internalType": "uint256",
          "name": "closeDateInvestment",
          "type": "uint256"
        },
        {
          "internalType": "uint256",
          "name": "endDateInvestment",
          "type": "uint256"
        },
        {
          "internalType": "bool",
          "name": "isActive",
          "type": "bool"
        },
        {
          "internalType": "bool",
          "name": "exists",
          "type": "bool"
        },
        {
          "internalType": "uint256",
          "name": "createdAt",
          "type": "uint256"
        }
      ],
      "stateMutability": "view",
      "type": "function"
    },
    {
      "inputs": [
        {
          "internalType": "uint256",
          "name": "roundId",
          "type": "uint256"
        }
      ],
      "name": "isRoundOpen",
      "outputs": [
        {
          "internalType": "bool",
          "name": "",
          "type": "bool"
        }
      ],
      "stateMutability": "view",
      "type": "function"
    },
    {
      "inputs": [],
      "name": "owner",
      "outputs": [
        {
          "internalType": "address",
          "name": "",
          "type": "address"
        }
      ],
      "stateMutability": "view",
      "type": "function"
    },
    {
      "inputs": [],
      "name": "pause",
      "outputs": [],
      "stateMutability": "nonpayable",
      "type": "function"
    },
    {
      "inputs": [],
      "name": "paused",
      "outputs": [
        {
          "internalType": "bool",
          "name": "",
          "type": "bool"
        }
      ],
      "stateMutability": "view",
      "type": "function"
    },
    {
      "inputs": [],
      "name": "renounceOwnership",
      "outputs": [],
      "stateMutability": "nonpayable",
      "type": "function"
    },
    {
      "inputs": [
        {
          "internalType": "uint256",
          "name": "",
          "type": "uint256"
        },
        {
          "internalType": "uint256",
          "name": "",
          "type": "uint256"
        }
      ],
      "name": "roundTokenIds",
      "outputs": [
        {
          "internalType": "uint256",
          "name": "",
          "type": "uint256"
        }
      ],
      "stateMutability": "view",
      "type": "function"
    },
    {
      "inputs": [
        {
          "internalType": "uint256",
          "name": "",
          "type": "uint256"
        }
      ],
      "name": "roundUSDTLedger",
      "outputs": [
        {
          "internalType": "uint256",
          "name": "",
          "type": "uint256"
        }
      ],
      "stateMutability": "view",
      "type": "function"
    },
    {
      "inputs": [
        {
          "internalType": "uint256",
          "name": "roundId",
          "type": "uint256"
        },
        {
          "internalType": "bool",
          "name": "active",
          "type": "bool"
        }
      ],
      "name": "setRoundActive",
      "outputs": [],
      "stateMutability": "nonpayable",
      "type": "function"
    },
    {
      "inputs": [
        {
          "internalType": "address",
          "name": "newUSDTToken",
          "type": "address"
        }
      ],
      "name": "setUSDTToken",
      "outputs": [],
      "stateMutability": "nonpayable",
      "type": "function"
    },
    {
      "inputs": [],
      "name": "totalRoundsCreated",
      "outputs": [
        {
          "internalType": "uint256",
          "name": "",
          "type": "uint256"
        }
      ],
      "stateMutability": "view",
      "type": "function"
    },
    {
      "inputs": [],
      "name": "totalUSDTRaised",
      "outputs": [
        {
          "internalType": "uint256",
          "name": "",
          "type": "uint256"
        }
      ],
      "stateMutability": "view",
      "type": "function"
    },
    {
      "inputs": [
        {
          "internalType": "address",
          "name": "newOwner",
          "type": "address"
        }
      ],
      "name": "transferOwnership",
      "outputs": [],
      "stateMutability": "nonpayable",
      "type": "function"
    },
    {
      "inputs": [],
      "name": "unpause",
      "outputs": [],
      "stateMutability": "nonpayable",
      "type": "function"
    },
    {
      "inputs": [],
      "name": "usdtToken",
      "outputs": [
        {
          "internalType": "contract IERC20",
          "name": "",
          "type": "address"
        }
      ],
      "stateMutability": "view",
      "type": "function"
    },
    {
      "inputs": [
        {
          "internalType": "address",
          "name": "",
          "type": "address"
        },
        {
          "internalType": "uint256",
          "name": "",
          "type": "uint256"
        }
      ],
      "name": "userInvestments",
      "outputs": [
        {
          "internalType": "uint256",
          "name": "",
          "type": "uint256"
        }
      ],
      "stateMutability": "view",
      "type": "function"
    },
    {
      "inputs": [
        {
          "internalType": "uint256",
          "name": "",
          "type": "uint256"
        },
        {
          "internalType": "address",
          "name": "",
          "type": "address"
        },
        {
          "internalType": "uint256",
          "name": "",
          "type": "uint256"
        }
      ],
      "name": "userNFTsInRound",
      "outputs": [
        {
          "internalType": "uint256",
          "name": "",
          "type": "uint256"
        }
      ],
      "stateMutability": "view",
      "type": "function"
    },
    {
      "inputs": [
        {
          "internalType": "uint256",
          "name": "roundId",
          "type": "uint256"
        }
      ],
      "name": "withdrawFund",
      "outputs": [],
      "stateMutability": "nonpayable",
      "type": "function"
    }
  ],
  "bytecode": "0x60a0346101e557601f61427a38819003918201601f19168301916001600160401b038311848410176101e95780849260409485528339810103126101e557610052602061004b836101fd565b92016101fd565b9033156101d2575f8054336001600160a01b0319821681178355604051939290916001600160a01b0316907f8be0079c531659141344cd1fd0a4f28419497f9722a3daafe3b4186f6b6457e09080a3600180556001600160a01b031690811561019057506001600160a01b0382161561014b5760805260028054610100600160a81b03191660089290921b610100600160a81b031691909117905560405161406890816102128239608051818181610b5001528181610daf015281816111a3015281816113f001528181611b35015281816125e601528181612f2601528181612fe401528181613537015281816136430152613c3e0152f35b60405162461bcd60e51b815260206004820152601460248201527f496e76616c6964205553445420616464726573730000000000000000000000006044820152606490fd5b62461bcd60e51b815260206004820152601560248201527f496e76616c696420445a4e4654206164647265737300000000000000000000006044820152606490fd5b631e4fbdf760e01b5f525f60045260245ffd5b5f80fd5b634e487b7160e01b5f52604160045260245ffd5b51906001600160a01b03821682036101e55756fe60806040526004361015610011575f80fd5b5f5f3560e01c8063048f80ba146135b557806306d9383814613509578063079ac6a4146134ad57806308c89b6d146134905780630962ef7914612fa85780630c64428f14612ef65780630cee172514612e5c5780631144e79e14612e40578063140fa8b214612d485780631470e87d14611576578063161f662214612cc657806318f38da214612c2957806330814b1b14612c0b5780633519a2f814612bad5780633b72757114612b485780633f4ba83a14612ae057806342b38fd114612a2b57806346468763146127de5780634cadabdc146125635780635312ea8e146124045780635c975abb146123e157806366e226bd146122c35780636760455114611a8e57806369fbd3cc146119d2578063715018a61461197857806375c93bb91461180957806379b2c17a1461176c5780638456cb59146117115780638da5cb5b146116ea5780639187cb03146116155780639244adcd146115cd578063a8f252b0146115a3578063a98ad46c14611576578063b201c0c314611544578063b4ad7d3a146114fe578063b6dc2c2914611366578063b82e4fc3146111d2578063bf32eb011461118d578063c52c5c8814611103578063c6f83418146110e7578063c8f760401461105b578063cfbb52d314610ff8578063df8493b0146109bb578063dfe6b5d6146108a5578063e96d87b414610332578063ef1b92a4146102ce578063ef2cfd1a146102b25763f2fde38b1461022a575f80fd5b346102af5760203660031901126102af576102436137d2565b61024b61400c565b6001600160a01b0316801561029b5781546001600160a01b03198116821783556001600160a01b03167f8be0079c531659141344cd1fd0a4f28419497f9722a3daafe3b4186f6b6457e08380a380f35b631e4fbdf760e01b82526004829052602482fd5b80fd5b50346102af57806003193601126102af57602060405160128152f35b50346102af5760603660031901126102af576102e86137bc565b906044359160043582526006602052604082209060018060a01b03165f5260205260405f209081548310156102af5760206103238484613980565b90549060031b1c604051908152f35b50346102af5760c03660031901126102af5760043567ffffffffffffffff81116108a157366023820112156108a15781816004013591610371836139a9565b9261037f604051948561389a565b808452366024828401011161089d578060246020930183860137830101526103a561400c565b805115610858576024351561081357604435151580610805575b156107b457606435156107635742608435111561071e5760843560a43511156106cf57600854906103ef82613be3565b6008556103fd602435613b8b565b60405161040981613869565b83815260208101918383526040820152604435606082015260643560808201528460a082015260843560c082015260a43560e0820152600161010082015260016101208201524261014082015283855260036020526040852091815183555180519067ffffffffffffffff82116106bb576104876001850154613831565b601f8111610673575b5060209686959493929188916001601f8511146105da57938361059f9694600994610140947f068fdde760e5730532959669855b5a6f20cb96e8685d2d1330a83d3a6fad0bbb9a98926105cf575b50508160011b915f199060031b1c19161760018501555b60408101516002850155606081015160038501556080810151600485015560a0810151600585015560c0810151600685015560e08101516007850155600884016105526101008301511515829060ff801983541691151516179055565b610120820151815461ff00191690151560081b61ff0016179055015191015560095461057d90613be3565b60095561058b602435613b8b565b60405192839260c0845260c084019061395c565b908783015260443560408301526064356060830152608435608083015260a43560a08301520390a2604051908152f35b015190505f806104de565b9190600186018352818320925b601f1985168110610659575093600184600994610140947f068fdde760e5730532959669855b5a6f20cb96e8685d2d1330a83d3a6fad0bbb9a9861059f9a98601f19811610610641575b505050811b0160018501556104f5565b01515f1960f88460031b161c191690555f8080610631565b818301518455899850600190930192918a01918a016105e7565b60018501885260208820601f840160051c810191602085106106b1575b601f0160051c01905b8181106106a65750610490565b888155600101610699565b9091508190610690565b634e487b7160e01b87526041600452602487fd5b60405162461bcd60e51b815260206004820152602160248201527f456e642064617465206d75737420626520616674657220636c6f7365206461746044820152606560f81b6064820152608490fd5b60405162461bcd60e51b815260206004820152601c60248201527f436c6f73652064617465206d75737420626520696e20667574757265000000006044820152606490fd5b60405162461bcd60e51b815260206004820152602360248201527f546f74616c20746f6b656e73206d75737420626520677265617465722074686160448201526206e20360ec1b6064820152608490fd5b60405162461bcd60e51b815260206004820152602360248201527f496e76616c6964207265776172642070657263656e746167652028302d31303060448201526230302960e81b6064820152608490fd5b5061271060443511156103bf565b60405162461bcd60e51b815260206004820152601c60248201527f5072696365206d7573742062652067726561746572207468616e2030000000006044820152606490fd5b60405162461bcd60e51b815260206004820152601a60248201527f526f756e64206e616d652063616e6e6f7420626520656d7074790000000000006044820152606490fd5b8280fd5b5080fd5b50346102af57806003193601126102af576008549080805b838110610965576024838360095491600a54602060018060a01b0360025460081c16604051968780926370a0823160e01b82523060048301525afa9182156109595791610920575b60809450604051938452602084015260408301526060820152f35b90506020843d602011610951575b8161093b6020938361389a565b8101031261094d576080935190610905565b5f80fd5b3d915061092e565b604051903d90823e3d90fd5b808352600360205260ff600860408520015460081c16806109a2575b61098e575b6001016108bd565b9061099a600191613be3565b919050610986565b50808352600360205260ff600860408520015416610981565b50346102af576109ca3661381b565b90916109d4613fd1565b6109dc613ff1565b82815260036020526109fa60ff600860408420015460081c166139c5565b828152600360205260ff60086040832001541615610fbd578281526003602052610a2d6006604083200154421115613f4c565b8281526003602052610a4760066040832001544210613f4c565b8115610f6c5760648211610f0a578281526003602052604081209260028401610a71815485613bc3565b938415610ecc576005860191610a88828454613bd6565b600488015410610e75576002546040516323b872dd60e01b81523360048201523060248201526044810188905290602090829060081c6001600160a01b03168189816064810103925af18015610e6a578690610e2f575b610ae99150613e73565b54956003810154906007600682015491015490600184115f14610d4657604051632fdc968f60e21b81523360048201526024810185905260448101879052606481018a90526084810193909352600160a484015260c483015260e4820152848161010481837f00000000000000000000000000000000000000000000000000000000000000006001600160a01b03165af1908115610d3b578591610c9e575b50955b8385526004602052604085209033865260056020526040862085875260066020526040872060018060a01b0333165f5260205260405f2090875b858110610c1a576020610c0d8c8c610c0660408e8e8e610be68f8254613bd6565b9055610bf485600a54613bd6565b600a5581526007875220918254613bd6565b9055613a08565b5160018055604051908152f35b80610c59610c52828e610c39610c3260019783613a15565b518b613f98565b610c4d610c468383613a15565b5188613f98565b613a15565b5185613f98565b610c63818d613a15565b51604051908682528360208301528a7f30a6facb9fa9a18999d5ff7f2ce5641caca8d5f45c8ff24bced9833614b8e88060403394a401610bc5565b90503d8086833e610caf818361389a565b810190602081830312610d335780519067ffffffffffffffff8211610d3757019080601f83011215610d33578151610ce681613eb6565b92610cf4604051948561389a565b81845260208085019260051b820101928311610d2f57602001905b828210610d1f575050505f610b88565b8151815260209182019101610d0f565b8780fd5b8580fd5b8680fd5b6040513d87823e3d90fd5b979190604091825191610d59848461389a565b60018352601f198401366020850137829a84519263f4fb815960e01b845233600485015289602485015286604485015260648401526001608484015260a483015260c482015260208160e4818b60018060a01b037f0000000000000000000000000000000000000000000000000000000000000000165af1928315610e2657508792610df0575b50610dea90613a08565b52610b8b565b9091506020813d602011610e1e575b81610e0c6020938361389a565b8101031261094d575190610dea610de0565b3d9150610dff565b513d89823e3d90fd5b506020813d602011610e62575b81610e496020938361389a565b81010312610d3357610e5d610ae991613a3d565b610adf565b3d9150610e3c565b6040513d88823e3d90fd5b60405162461bcd60e51b815260206004820152602960248201527f4e6f7420656e6f75676820746f6b656e7320617661696c61626c6520696e20746044820152681a1a5cc81c9bdd5b9960ba1b6064820152608490fd5b60405162461bcd60e51b8152602060048201526016602482015275151bdad95b88185b5bdd5b9d081d1bdbc81cdb585b1b60521b6044820152606490fd5b60405162461bcd60e51b815260206004820152603460248201527f546f6b656e20616d6f756e742065786365656473206d6178696d756d20616c6c60448201527337bbb2b2103832b9103a3930b739b0b1ba34b7b760611b6064820152608490fd5b60405162461bcd60e51b815260206004820152602360248201527f546f6b656e20616d6f756e74206d75737420626520677265617465722074686160448201526206e20360ec1b6064820152608490fd5b60405162461bcd60e51b8152602060048201526013602482015272526f756e64206973206e6f742061637469766560681b6044820152606490fd5b50346102af5760403660031901126102af576040600435916110186137bc565b92808252600360205261103660ff6008858520015460081c166139c5565b81526006602052209060018060a01b03165f52602052602060405f2054604051908152f35b50346102af57806003193601126102af576002546040516370a0823160e01b815230600482015291906020908390602490829060081c6001600160a01b03165afa90811561095957906110b4575b602090604051908152f35b506020813d6020116110df575b816110ce6020938361389a565b8101031261094d57602090516110a9565b3d91506110c1565b50346102af57806003193601126102af57602060405160648152f35b50346102af5760203660031901126102af576001600160a01b036111256137d2565b168152600560205260408120604051918260208354918281520192825260208220915b818110611177576111738561115f8187038261389a565b6040519182916020835260208301906137e8565b0390f35b8254845260209093019260019283019201611148565b50346102af57806003193601126102af576040517f00000000000000000000000000000000000000000000000000000000000000006001600160a01b03168152602090f35b50346102af5760203660031901126102af576040906004358161014084516111f981613869565b8281526060602082015282868201528260608201528260808201528260a08201528260c08201528260e082015282610100820152826101208201520152808252600360205261125360ff6008858520015460081c166139c5565b815260036020522060405161126781613869565b81548152611277600183016138bc565b9160208201928352600281015490604083019182526003810154906060840191825260048101549060808501918252600581015460a08601908152600682015460c0870190815260078301549160e0880192835260088401549460096101008a019560ff88161515875260ff6101208c019860081c16151588520154966101408a019788526113236040519b8c9b60208d525160208d01525161016060408d01526101808c019061395c565b985160608b01525160808a01525160a08901525160c08801525160e087015251610100860152511515610120850152511515610140840152516101608301520390f35b50346102af5760403660031901126102af576004356113836137bc565b9080835260036020526113a260ff600860408620015460081c166139c5565b82526006602052604082209060018060a01b03165f5260205260405f206040518082602082945493848152019085526020852092855b8181106114e55750506113ed9250038261389a565b817f00000000000000000000000000000000000000000000000000000000000000006001600160a01b031681805b84518410156114d55761142e8486613a15565b519160405192634712f17360e11b845260048401528683602481875afa9283156114ca578793611499575b5060019161148961149192670de0b6b3a764000061148260808801976040895191015190613bc3565b0490613bd6565b935190613bd6565b93019261141b565b611491919350916114896114c06001943d808c833e6114b8818361389a565b810190613a4a565b9492505091611459565b6040513d89823e3d90fd5b6040925082519182526020820152f35b84548352600194850194869450602090930192016113d8565b50346102af5760203660031901126102af5760406020916004358082526003845261153460ff6008858520015460081c166139c5565b8152600783522054604051908152f35b50346102af576115533661381b565b919081526004602052604081209081548310156102af5760206103238484613980565b50346102af57806003193601126102af5760025460405160089190911c6001600160a01b03168152602090f35b50346102af5760203660031901126102af5760406020916004358152600783522054604051908152f35b50346102af5760403660031901126102af576115e76137d2565b6001600160a01b03168152600560205260408120805460243592908310156102af5760206103238484613980565b50346102af5760203660031901126102af576116e260406020926004358082526003855261164e60ff6008858520015460081c166139c5565b8152600384522060405161166181613869565b81548152611671600183016138bc565b84820152600282015460408201526003820154606082015260048201549081608082015261014060096005850154948560a0850152600681015460c0850152600781015460e085015260ff6008820154818116151561010087015260081c1615156101208501520154910152613d82565b604051908152f35b50346102af57806003193601126102af57546040516001600160a01b039091168152602090f35b50346102af57806003193601126102af5761172a61400c565b611732613ff1565b600160ff1960025416176002557f62e78cea01bee320cd4e420270b5ea74000d11b0c9f74754ebdbfc544b05a2586020604051338152a180f35b50346102af5760403660031901126102af5760043560243580151590818103611805577fdd8c33b779db77b877161fe300dfc92dc5b0d87c7e4199701eb25330a83e16f9916117fb6020926117bf61400c565b858752600384526117dc60ff600860408a20015460081c166139c5565b85875260038452600860408820019060ff801983541691151516179055565b604051908152a280f35b8380fd5b50346102af57806118193661381b565b61182492919261400c565b828252600360205261184260ff600860408520015460081c166139c5565b61184d811515613f00565b60025460209061189c9060081c6001600160a01b031661186c84613b8b565b6040516323b872dd60e01b8152336004820152306024820152604481019190915294859283919082906064820190565b03925af191821561196d578492611905575b506117fb6020916118df7f840f34d9e1ef4bad95d455fc5722e970ebdcfec5778eca96c54edd60e69b463f94613e73565b6118e881613b8b565b858752600784526118fe60408820918254613bd6565b9055613b8b565b91506020823d602011611965575b816119206020938361389a565b81010312611805576117fb6020916118df61195b7f840f34d9e1ef4bad95d455fc5722e970ebdcfec5778eca96c54edd60e69b463f95613a3d565b94505091506118ae565b3d9150611913565b6040513d86823e3d90fd5b50346102af57806003193601126102af5761199161400c565b80546001600160a01b03198116825581906001600160a01b03167f8be0079c531659141344cd1fd0a4f28419497f9722a3daafe3b4186f6b6457e08280a380f35b50346102af5760203660031901126102af5760409060043581526003602052208054611a00600183016138bc565b9160028101549060ff600382015491600481015460058201546006830154906007840154926009600886015495015496611a4e6040519b8c9b8c5261016060208d01526101608c019061395c565b9860408b015260608a0152608089015260a088015260c087015260e0860152818116151561010086015260081c1615156101208401526101408301520390f35b50346102af5760203660031901126102af57600435611aab613fd1565b611ab3613ff1565b8082526003602052611ad160ff600860408520015460081c166139c5565b80825260066020526040822060018060a01b0333165f5260205260405f20906040518083602082955493848152019086526020862092865b8181106122aa575050611b1e9250038361389a565b81511561226d5760328251116121f85790829081907f00000000000000000000000000000000000000000000000000000000000000006001600160a01b031690825b8151841015611d3857611b738483613a15565b51604051906331a9108f60e11b82526004820152602081602481875afa908115611cea578891611cff575b50336001600160a01b0390911603611cf557611bba8483613a15565b519060405191634712f17360e11b835260048301528782602481875afa918215611cea578892611cce575b50610120820151611cc357611bfe60a083015142613d82565b62ed4e008110611cb757611c1b6080840151604085015190613bc3565b926301e133806064611c31606084015187613bc3565b049210611c80576101400151600193611c69939092909115611c7357611c6392611c5d91861c90613bd6565b90613bd6565b95613be3565b935b019293611b60565b611c5d90611c6393613bd6565b6101409192979350015115611c9c575b50611c69600191613be3565b611caf60019296611c6992841c90613bd6565b959150611c90565b50949360019150611c6b565b949360019150611c6b565b611ce39192503d808a833e6114b8818361389a565b905f611be5565b6040513d8a823e3d90fd5b9392600190611c6b565b90506020813d8211611d30575b81611d196020938361389a565b81010312610d2f57611d2a90613a29565b5f611b9e565b3d9150611d0c565b8287879287156121b357611d4d811515613d8f565b6002546040516370a0823160e01b8152306004820152906020908290602490829060081c6001600160a01b03165afa80156121a85782908490612172575b611d9792501015613dd0565b8382526007602052611daf8160408420541015613e27565b815b85518110156120ac57611dc48187613a15565b51604051906331a9108f60e11b82526004820152602081602481885afa90811561196d578491612073575b50336001600160a01b039091160361206b57611e0b8187613a15565b5160405190634712f17360e11b825260048201528381602481885afa90811561196d578491612051575b50610120810151611fa857611e4e60a082015142613d82565b62ed4e00811061204757611e6b6080830151604084015190613bc3565b916301e133806064611e81606084015186613bc3565b049210611f9a57610140015115611f8c5790611ea09160011c90613bd6565b611eaa8288613a15565b51853b15611f7357604051906319f477d960e01b825260048201528481602481838a5af18015610d3b57908591611f77575b5050611ee88288613a15565b51853b15611f73576040519063bed62f3560e01b825260048201528481602481838a5af18015610d3b57908591611f5e575b505090600191611f2a8289613a15565b516040519182527fec830d68f9642b924e6a2bbc2ebeb8f06c0ab5417a38f641b088b2412cbaba9560203393a35b01611db1565b81611f689161389a565b611805578388611f1a565b8480fd5b81611f819161389a565b611805578388611edc565b611f9591613bd6565b611ea0565b610140919250015115611fb1575b50600190611f58565b611fbb8288613a15565b51853b15611f7357604051906318d8e2a560e01b825260048201528481602481838a5af18015610d3b57908591612032575b505090600191611ffd8289613a15565b5160405191841c82527f05609d8b66d3b17249aefcaaa68fa2000914aeeb46371ad3fcae3db02304bde960203393a390611fa8565b8161203c9161389a565b611805578388611fed565b5050600190611f58565b61206591503d8086833e6114b8818361389a565b87611e35565b600190611f58565b90506020813d82116120a4575b8161208d6020938361389a565b810103126118055761209e90613a29565b87611def565b3d9150612080565b50602061210a839286845260078352604084206120ca828254613d82565b905560025460405163a9059cbb60e01b815233600482015260248101929092529093849260089290921c6001600160a01b03169183919082906044820190565b03925af1801561216757829061212c575b6121259150613e73565b6001805580f35b506020813d60201161215f575b816121466020938361389a565b810103126108a15761215a61212591613a3d565b61211b565b3d9150612139565b6040513d84823e3d90fd5b50506020813d6020116121a0575b8161218d6020938361389a565b8101031261094d5781611d979151611d8b565b3d9150612180565b6040513d85823e3d90fd5b60405162461bcd60e51b815260206004820152601960248201527f4e6f20656c696769626c65204e46547320746f20636c61696d000000000000006044820152606490fd5b60405162461bcd60e51b815260206004820152604160248201527f546f6f206d616e79204e46547320746f20636c61696d206174206f6e63652c2060448201527f706c656173652073706c697420696e746f20736d616c6c6572206261746368656064820152607360f81b608482015260a490fd5b60405162461bcd60e51b8152602060048201526015602482015274139bc81391951cc81a5b881d1a1a5cc81c9bdd5b99605a1b6044820152606490fd5b8454835260019485019487945060209093019201611b09565b50346102af5760203660031901126102af576122dd6137d2565b6122e561400c565b6001600160a01b03811690811561239c57600254600881901c6001600160a01b03169183831461235757610100600160a81b031990911660089190911b610100600160a81b0316176002557f92852dbadca7e6fa4e0d5dd87891e6dd13f50a304561a86ea9d5a710b972e4498380a380f35b60405162461bcd60e51b815260206004820152601760248201527f53616d65205553445420746f6b656e20616464726573730000000000000000006044820152606490fd5b60405162461bcd60e51b815260206004820152601a60248201527f496e76616c6964205553445420746f6b656e20616464726573730000000000006044820152606490fd5b50346102af57806003193601126102af57602060ff600254166040519015158152f35b50346102af5760203660031901126102af5760043561242161400c565b6002546040516370a0823160e01b815230600482015260089190911c6001600160a01b031690602081602481855afa801561196d578391859161252e575b50106124f257825460405163a9059cbb60e01b81526001600160a01b03909116600482015260248101929092526020908290818581604481015b03925af180156121675782906124b7575b6124b49150613e73565b80f35b506020813d6020116124ea575b816124d16020938361389a565b810103126108a1576124e56124b491613a3d565b6124aa565b3d91506124c4565b60405162461bcd60e51b8152602060048201526014602482015273496e73756666696369656e742062616c616e636560601b6044820152606490fd5b9150506020813d60201161255b575b8161254a6020938361389a565b8101031261094d578290515f61245f565b3d915061253d565b50346102af5760203660031901126102af57600435808252600360205261259660ff600860408520015460081c166139c5565b815260046020526040812060405190816020825491828152019184526020842090845b8181106127c857505050816125cf91038261389a565b6125d98151613ece565b916125e48251613ece565b7f00000000000000000000000000000000000000000000000000000000000000006001600160a01b0316939091908190815b8551811015612712576126298187613a15565b5160405190634712f17360e11b8252600482015284816024818b5afa908115610d3b5785916126f8575b50610100015184906001600160a01b031681805b8681106126cb575b501561269f5750908161269761269061268a6001958a613a15565b51613be3565b9188613a15565b525b01612616565b6126c5915093600192946126b38286613a15565b52826126bf8289613a15565b52613be3565b92612699565b826001600160a01b036126de8389613a15565b5116146126ed57600101612667565b92505060015f61266f565b61270c91503d8087833e6114b8818361389a565b5f612653565b509061271d81613ece565b9361272782613ece565b92845b83811061278a575050505060405191604083016040845284518091526020606085019501915b81811061276b578480611173888783820360208501526137e8565b82516001600160a01b0316865260209586019590920191600101612750565b6001906001600160a01b0361279f8285613a15565b51166127ab828a613a15565b526127b68185613a15565b516127c18288613a15565b520161272a565b82548452602090930192600192830192016125b9565b50346102af576127ed3661381b565b6127f561400c565b818352600360205261281360ff600860408620015460081c166139c5565b61281e811515613f00565b8183526007602052806040842054106129e6576002546040516370a0823160e01b8152306004820152906020908290602490829060081c6001600160a01b03165afa801561196d57829185916129b1575b501061296c5781835260076020526040832061288c828254613d82565b9055600254835460405163a9059cbb60e01b81526001600160a01b0391821660048201526024810184905291602091839160081c168187816044810103925af190811561196d578491612908575b507fc97223d9627a5c8977b5ce63bcc729264c8ab2575ef525d2d42e39af20550dc4916117fb602092613e73565b90506020813d602011612964575b816129236020938361389a565b81010312611805577fc97223d9627a5c8977b5ce63bcc729264c8ab2575ef525d2d42e39af20550dc4916117fb61295b602093613a3d565b925050916128da565b3d9150612916565b60405162461bcd60e51b815260206004820152601d60248201527f496e73756666696369656e7420636f6e74726163742062616c616e63650000006044820152606490fd5b9150506020813d6020116129de575b816129cd6020938361389a565b8101031261094d578190515f61286f565b3d91506129c0565b60405162461bcd60e51b815260206004820152601a60248201527f496e73756666696369656e7420726f756e642062616c616e63650000000000006044820152606490fd5b50346102af57806003193601126102af5760095490612a52612a4c83613ece565b92613ece565b908081600854925b838110612a8b57612a7d86611173876040519384936040855260408501906137e8565b9083820360208501526137e8565b808252600360205260ff600860408420015460081c16612aae575b600101612a5a565b91612ad88184612ac06001948a613a15565b52848452600760205260408420546126bf8289613a15565b929050612aa6565b50346102af57806003193601126102af57612af961400c565b60025460ff811615612b395760ff19166002557f5db9ee0a495bf2e6ff9c91a7834c1ba4fdd244a5e8aa4e537bd38aeae4b073aa6020604051338152a180f35b638dfc202b60e01b8252600482fd5b50346102af5760403660031901126102af57604060043591612b686137bc565b928082526003602052612b8660ff6008858520015460081c166139c5565b81526006602052209060018060a01b03165f52602052602060405f20541515604051908152f35b50346102af5760203660031901126102af57612bc761400c565b6002546040516323b872dd60e01b81523360048083019190915230602483015235604482015290602090829060081c6001600160a01b031681858160648101612499565b50346102af57806003193601126102af576020600954604051908152f35b50346102af5760403660031901126102af57600435612c466137bc565b908083526003602052612c6560ff600860408620015460081c166139c5565b82526006602052604082209060018060a01b03165f5260205260405f20604051918260208354918281520192825260208220915b818110612cb0576111738561115f8187038261389a565b8254845260209093019260019283019201612c99565b50346102af5760203660031901126102af576004358082526003602052612cf960ff600860408520015460081c166139c5565b8152600460205260408120604051918260208354918281520192825260208220915b818110612d32576111738561115f8187038261389a565b8254845260209093019260019283019201612d1b565b50346102af5760203660031901126102af57604060209160043580825260038452612d7e60ff6008858520015460081c166139c5565b81526003835220604051612d9181613869565b81548152612da1600183016138bc565b8382015260028201546040820152600382015460608201526004820154908160808201526005830154908160a08201526006840154908160c0820152600785015460e0820152610140600960088701549660ff8089161515988961010087015260081c161515610120850152015491015283612e35575b5082612e2b575b50506040519015158152f35b1090505f80612e1f565b42111592505f612e18565b50346102af57806003193601126102af57602060405160328152f35b50346102af5760203660031901126102af576124996020600435612e7e61400c565b80845260038252612e9b60ff600860408720015460081c166139c5565b80845260078083526040808620549286529083528085208590556002548554915163a9059cbb60e01b81526001600160a01b03928316600482015260248101939093529193849260081c909116908290869082906044820190565b50346102af5760203660031901126102af57604051631d3653e360e01b81526004803590820152906020826024817f00000000000000000000000000000000000000000000000000000000000000006001600160a01b03165afa908115610959578091612f6b575b6020826040519015158152f35b90506020823d602011612fa0575b81612f866020938361389a565b810103126102af5750612f9a602091613a3d565b5f612f5e565b3d9150612f79565b503461094d57602036600319011261094d5760043590612fc6613fd1565b612fce613ff1565b6040516331a9108f60e11b8152600481018390527f00000000000000000000000000000000000000000000000000000000000000006001600160a01b03169290602081602481875afa9081156132c4575f91613456575b50336001600160a01b039091160361341157604051634712f17360e11b815260048101829052905f82602481875afa9182156132c4575f926133f5575b506101208201516133b05761307b60a083015142613d82565b9362ed4e00851061336b576130996080840151604085015190613bc3565b946301e1338060646130af606087015189613bc3565b0491101595865f1461331657610140850151602492901561330757906130d89160011c90613bd6565b935b6130e5851515613d8f565b6002546040516370a0823160e01b815230600482015292602091849190829060081c6001600160a01b03165afa80156132c45785925f916132cf575b50602092613130911015613dd0565b019485515f52600760205261314b8460405f20541015613e27565b1561323c579081849593923b15611f73576040516319f477d960e01b815260048101839052858160248183865af1908115610e6a578691613227575b5050803b15611f735784809160246040518094819363bed62f3560e01b83528760048401525af1908115610d3b578591613209575b50509060209261210a92604051908382527fec830d68f9642b924e6a2bbc2ebeb8f06c0ab5417a38f641b088b2412cbaba95863393a35b51845260078352604084206120ca828254613d82565b816132169194939461389a565b6132225790835f6131bc565b505050fd5b816132319161389a565b611f7357845f613187565b803b1561094d575f80916024604051809481936318d8e2a560e01b83528760048401525af180156132c4576132a7575b50602091839461210a92604051908382527f05609d8b66d3b17249aefcaaa68fa2000914aeeb46371ad3fcae3db02304bde9863393a36131f3565b61210a919350916132ba5f60209461389a565b5f9391509161326c565b6040513d5f823e3d90fd5b9250506020823d6020116132ff575b816132eb6020938361389a565b8101031261094d5790518491906020613121565b3d91506132de565b61331091613bd6565b936130da565b5061014084015161332d5760249060011c936130da565b60405162461bcd60e51b815260206004820152601660248201527514995dd85c9908185b1c9958591e4818db185a5b595960521b6044820152606490fd5b60405162461bcd60e51b815260206004820152601b60248201527f4d7573742077616974206174206c656173742036206d6f6e74687300000000006044820152606490fd5b60405162461bcd60e51b815260206004820152601b60248201527f496e766573746d656e7420616c72656164792072656465656d656400000000006044820152606490fd5b61340a9192503d805f833e6114b8818361389a565b905f613062565b60405162461bcd60e51b815260206004820152601960248201527f4e6f7420746865206f776e6572206f662074686973204e4654000000000000006044820152606490fd5b90506020813d602011613488575b816134716020938361389a565b8101031261094d5761348290613a29565b5f613025565b3d9150613464565b3461094d575f36600319011261094d576020600a54604051908152f35b3461094d57602036600319011261094d5760a06134e9600435805f5260036020526134e460ff600860405f20015460081c166139c5565b613bf1565b926040929192519485526020850152604084015260608301526080820152f35b3461094d57602036600319011261094d57604051635a7f04d560e01b815260048035908201526020816024817f00000000000000000000000000000000000000000000000000000000000000006001600160a01b03165afa80156132c4575f9061357b575b6020906040519015158152f35b506020813d6020116135ad575b816135956020938361389a565b8101031261094d576135a8602091613a3d565b61356e565b3d9150613588565b3461094d57604036600319011261094d576004356135d16137bc565b90805f5260036020526135f060ff600860405f20015460081c166139c5565b5f52600660205260405f209060018060a01b03165f5260205260405f20604051808260208294549384815201905f5260205f20925f5b8181106137a357505061363b9250038261389a565b80515f9182917f00000000000000000000000000000000000000000000000000000000000000006001600160a01b03169183918291829182805b835181101561376f576136888185613a15565b519460405195634712f17360e11b875260048701525f866024818c5afa9586156132c4575f96613753575b506080860197885160408801516136c991613bc3565b670de0b6b3a7640000900497889160608901516136e69084613bc3565b606490049d8e9a6136f691613bd6565b9a5161370191613bd6565b9c61370b91613bd6565b9761371591613bd6565b61371e91613bd6565b9460e081015142101561374a575b6101200151613741575b600101989598613675565b60019150613736565b6001995061372c565b6137689196503d805f833e6114b8818361389a565b948b6136b3565b5060e09250878486888c6040519687526020870152604086015260608501526080840152151560a0830152151560c0820152f35b8454835260019485019486945060209093019201613626565b602435906001600160a01b038216820361094d57565b600435906001600160a01b038216820361094d57565b90602080835192838152019201905f5b8181106138055750505090565b82518452602093840193909201916001016137f8565b604090600319011261094d576004359060243590565b90600182811c9216801561385f575b602083101461384b57565b634e487b7160e01b5f52602260045260245ffd5b91607f1691613840565b610160810190811067ffffffffffffffff82111761388657604052565b634e487b7160e01b5f52604160045260245ffd5b90601f8019910116810190811067ffffffffffffffff82111761388657604052565b9060405191825f8254926138cf84613831565b808452936001811690811561393a57506001146138f6575b506138f49250038361389a565b565b90505f9291925260205f20905f915b81831061391e5750509060206138f4928201015f6138e7565b6020919350806001915483858901015201910190918492613905565b9050602092506138f494915060ff191682840152151560051b8201015f6138e7565b805180835260209291819084018484015e5f828201840152601f01601f1916010190565b8054821015613995575f5260205f2001905f90565b634e487b7160e01b5f52603260045260245ffd5b67ffffffffffffffff811161388657601f01601f191660200190565b156139cc57565b60405162461bcd60e51b8152602060048201526014602482015273149bdd5b9908191bd95cc81b9bdd08195e1a5cdd60621b6044820152606490fd5b8051156139955760200190565b80518210156139955760209160051b010190565b51906001600160a01b038216820361094d57565b5190811515820361094d57565b60208183031261094d5780519067ffffffffffffffff821161094d5701906101a08282031261094d57604051916101a0830183811067ffffffffffffffff82111761388657604052805183526020810151602084015260408101516040840152606081015160608401526080810151608084015260a081015160a084015260c081015160c084015260e081015160e0840152613ae96101008201613a29565b610100840152613afc6101208201613a3d565b610120840152613b0f6101408201613a3d565b610140840152613b226101608201613a3d565b6101608401526101808101519067ffffffffffffffff821161094d570181601f8201121561094d57805190613b56826139a9565b92613b64604051948561389a565b8284526020838301011161094d57815f9260208093018386015e8301015261018082015290565b90670de0b6b3a7640000820291808304670de0b6b3a76400001490151715613baf57565b634e487b7160e01b5f52601160045260245ffd5b81810292918115918404141715613baf57565b91908201809211613baf57565b5f198114613baf5760010190565b5f52600460205260405f20604051808260208294549384815201905f5260205f20925f5b818110613d69575050613c2a9250038261389a565b8051908115613d5b575f92839182919082907f00000000000000000000000000000000000000000000000000000000000000006001600160a01b0316825b878110613c79575050509493929190565b613c8681849a959a613a15565b519860405199634712f17360e11b8b5260048b01525f8a602481865afa998a156132c4575f9a613d3b575b50613cf490613cee8b6064613ce76060670de0b6b3a7640000613cdd6080860151604087015190613bc3565b0493015183613bc3565b0492613bd6565b95613bd6565b98610120810151613d26575b6101400151613d12575b600101613c68565b94613d1e600191613be3565b959050613d0a565b96613d3361014091613be3565b979050613d00565b613cf4919a50613d54903d805f833e6114b8818361389a565b9990613cb1565b50505f905f905f905f905f90565b8454835260019485019486945060209093019201613c15565b91908203918211613baf57565b15613d9657565b60405162461bcd60e51b81526020600482015260126024820152714e6f20616d6f756e7420746f20636c61696d60701b6044820152606490fd5b15613dd757565b60405162461bcd60e51b815260206004820152602260248201527f496e73756666696369656e7420636f6e747261637420555344542062616c616e604482015261636560f01b6064820152608490fd5b15613e2e57565b60405162461bcd60e51b815260206004820152601f60248201527f496e73756666696369656e7420726f756e6420555344542062616c616e6365006044820152606490fd5b15613e7a57565b60405162461bcd60e51b81526020600482015260146024820152731554d115081d1c985b9cd9995c8819985a5b195960621b6044820152606490fd5b67ffffffffffffffff81116138865760051b60200190565b90613ed882613eb6565b613ee5604051918261389a565b8281528092613ef6601f1991613eb6565b0190602036910137565b15613f0757565b60405162461bcd60e51b815260206004820152601d60248201527f416d6f756e74206d7573742062652067726561746572207468616e20300000006044820152606490fd5b15613f5357565b60405162461bcd60e51b815260206004820152601c60248201527f496e766573746d656e7420706572696f642068617320636c6f736564000000006044820152606490fd5b80546801000000000000000081101561388657613fba91600182018155613980565b819291549060031b91821b915f19901b1916179055565b600260015414613fe2576002600155565b633ee5aeb560e01b5f5260045ffd5b60ff60025416613ffd57565b63d93c066560e01b5f5260045ffd5b5f546001600160a01b0316330361401f57565b63118cdaa760e01b5f523360045260245ffdfea26469706673582212206e6517eaa2b22d1716a3038a877dbe7ce3bd9823adc0933da814ef0e48cdc3b464736f6c634300081c0033",
  "linkReferences": {},
  "deployedLinkReferences": {},
  "immutableReferences": {
    "8486": [
      {
        "length": 32,
        "start": 2896
      },
      {
        "length": 32,
        "start": 3503
      },
      {
        "length": 32,
        "start": 4515
      },
      {
        "length": 32,
        "start": 5104
      },
      {
        "length": 32,
        "start": 6965
      },
      {
        "length": 32,
        "start": 9702
      },
      {
        "length": 32,
        "start": 12070
      },
      {
        "length": 32,
        "start": 12260
      },
      {
        "length": 32,
        "start": 13623
      },
      {
        "length": 32,
        "start": 13891
      },
      {
        "length": 32,
        "start": 15422
      }
    ]
  },
  "inputSourceName": "project/contracts/FundRaisingContractNFT.sol",
  "buildInfoId": "solc-0_8_28-83272cc90b056343e31b4ae3c5697cecb63530ca"
}