{
  "_format": "hh3-artifact-1",
  "contractName": "FundRaisingAdmin",
  "sourceName": "contracts/FundRaisingAdmin.sol",
  "abi": [
    {
      "inputs": [
        {
          "internalType": "address",
          "name": "_coreContract",
          "type": "address"
        }
      ],
      "stateMutability": "nonpayable",
      "type": "constructor"
    },
    {
      "inputs": [
        {
          "internalType": "address",
          "name": "owner",
          "type": "address"
        }
      ],
      "name": "OwnableInvalidOwner",
      "type": "error"
    },
    {
      "inputs": [
        {
          "internalType": "address",
          "name": "account",
          "type": "address"
        }
      ],
      "name": "OwnableUnauthorizedAccount",
      "type": "error"
    },
    {
      "anonymous": false,
      "inputs": [
        {
          "indexed": true,
          "internalType": "uint256",
          "name": "roundId",
          "type": "uint256"
        },
        {
          "indexed": false,
          "internalType": "uint256",
          "name": "amount",
          "type": "uint256"
        },
        {
          "indexed": false,
          "internalType": "address",
          "name": "recipient",
          "type": "address"
        }
      ],
      "name": "EmergencyRoundWithdrawal",
      "type": "event"
    },
    {
      "anonymous": false,
      "inputs": [
        {
          "indexed": false,
          "internalType": "uint256",
          "name": "amount",
          "type": "uint256"
        },
        {
          "indexed": false,
          "internalType": "address",
          "name": "recipient",
          "type": "address"
        }
      ],
      "name": "EmergencyWithdrawal",
      "type": "event"
    },
    {
      "anonymous": false,
      "inputs": [
        {
          "indexed": true,
          "internalType": "address",
          "name": "previousOwner",
          "type": "address"
        },
        {
          "indexed": true,
          "internalType": "address",
          "name": "newOwner",
          "type": "address"
        }
      ],
      "name": "OwnershipTransferred",
      "type": "event"
    },
    {
      "anonymous": false,
      "inputs": [
        {
          "indexed": true,
          "internalType": "uint256",
          "name": "roundId",
          "type": "uint256"
        },
        {
          "indexed": false,
          "internalType": "enum IFundRaisingStorage.Status",
          "name": "status",
          "type": "uint8"
        }
      ],
      "name": "StatusUpdated",
      "type": "event"
    },
    {
      "inputs": [
        {
          "internalType": "uint256[]",
          "name": "roundIds",
          "type": "uint256[]"
        },
        {
          "internalType": "bool[]",
          "name": "activeStates",
          "type": "bool[]"
        }
      ],
      "name": "batchSetRoundActive",
      "outputs": [],
      "stateMutability": "nonpayable",
      "type": "function"
    },
    {
      "inputs": [
        {
          "internalType": "uint256[]",
          "name": "roundIds",
          "type": "uint256[]"
        },
        {
          "internalType": "enum IFundRaisingStorage.Status[]",
          "name": "statuses",
          "type": "uint8[]"
        }
      ],
      "name": "batchUpdateStatus",
      "outputs": [],
      "stateMutability": "nonpayable",
      "type": "function"
    },
    {
      "inputs": [],
      "name": "coreContract",
      "outputs": [
        {
          "internalType": "contract FundRaisingCore",
          "name": "",
          "type": "address"
        }
      ],
      "stateMutability": "view",
      "type": "function"
    },
    {
      "inputs": [
        {
          "internalType": "uint256",
          "name": "amount",
          "type": "uint256"
        }
      ],
      "name": "emergencyWithdraw",
      "outputs": [],
      "stateMutability": "nonpayable",
      "type": "function"
    },
    {
      "inputs": [
        {
          "internalType": "uint256",
          "name": "roundId",
          "type": "uint256"
        },
        {
          "internalType": "uint256",
          "name": "amount",
          "type": "uint256"
        }
      ],
      "name": "emergencyWithdrawFromRound",
      "outputs": [],
      "stateMutability": "nonpayable",
      "type": "function"
    },
    {
      "inputs": [],
      "name": "getAdminStats",
      "outputs": [
        {
          "internalType": "uint256",
          "name": "totalRounds",
          "type": "uint256"
        },
        {
          "internalType": "uint256",
          "name": "totalUSDTRaised",
          "type": "uint256"
        },
        {
          "internalType": "uint256",
          "name": "contractBalance",
          "type": "uint256"
        },
        {
          "internalType": "address",
          "name": "usdtTokenAddress",
          "type": "address"
        }
      ],
      "stateMutability": "view",
      "type": "function"
    },
    {
      "inputs": [
        {
          "internalType": "uint256",
          "name": "roundId",
          "type": "uint256"
        }
      ],
      "name": "getRoundFinancialSummary",
      "outputs": [
        {
          "internalType": "uint256",
          "name": "totalInvestment",
          "type": "uint256"
        },
        {
          "internalType": "uint256",
          "name": "rewardPool",
          "type": "uint256"
        },
        {
          "internalType": "uint256",
          "name": "remainingBalance",
          "type": "uint256"
        },
        {
          "internalType": "uint256",
          "name": "totalNFTs",
          "type": "uint256"
        }
      ],
      "stateMutability": "view",
      "type": "function"
    },
    {
      "inputs": [],
      "name": "owner",
      "outputs": [
        {
          "internalType": "address",
          "name": "",
          "type": "address"
        }
      ],
      "stateMutability": "view",
      "type": "function"
    },
    {
      "inputs": [],
      "name": "renounceOwnership",
      "outputs": [],
      "stateMutability": "nonpayable",
      "type": "function"
    },
    {
      "inputs": [
        {
          "internalType": "address",
          "name": "newOwner",
          "type": "address"
        }
      ],
      "name": "transferOwnership",
      "outputs": [],
      "stateMutability": "nonpayable",
      "type": "function"
    },
    {
      "inputs": [
        {
          "internalType": "uint256",
          "name": "roundId",
          "type": "uint256"
        },
        {
          "internalType": "enum IFundRaisingStorage.Status",
          "name": "status",
          "type": "uint8"
        }
      ],
      "name": "updateStatus",
      "outputs": [],
      "stateMutability": "nonpayable",
      "type": "function"
    }
  ],
  "bytecode": "0x60a03461013c57601f61111e38819003918201601f19168301916001600160401b038311848410176101415780849260209460405283398101031261013c57516001600160a01b0381169081900361013c5733156101265760008054336001600160a01b03198216811783556040519290916001600160a01b0316907f8be0079c531659141344cd1fd0a4f28419497f9722a3daafe3b4186f6b6457e09080a381156100e45750608052604051610fc69081610158823960805181818161013a015281816101940152818161032d015281816105fd015281816106f401526109000152f35b62461bcd60e51b815260206004820152601d60248201527f496e76616c696420636f726520636f6e747261637420616464726573730000006044820152606490fd5b631e4fbdf760e01b600052600060045260246000fd5b600080fd5b634e487b7160e01b600052604160045260246000fdfe6080604052600436101561001257600080fd5b6000803560e01c80633a1b3d3114610c6a5780633b510eee14610bbc57806346468763146108bf5780635312ea8e146106bd578063639e8bb7146105be578063715018a6146105645780638da5cb5b1461053d578063c116d9361461030d578063e5346bf214610169578063e80db5db146101245763f2fde38b1461009657600080fd5b34610121576020366003190112610121576004356001600160a01b0381169081900361011f576100c4610f67565b801561010b5781546001600160a01b03198116821783556001600160a01b03167f8be0079c531659141344cd1fd0a4f28419497f9722a3daafe3b4186f6b6457e08380a380f35b631e4fbdf760e01b82526004829052602482fd5b505b80fd5b50346101215780600319360112610121576040517f00000000000000000000000000000000000000000000000000000000000000006001600160a01b03168152602090f35b50346101215760203660031901126101215760405163632d45eb60e01b8152600480359082018190527f00000000000000000000000000000000000000000000000000000000000000006001600160a01b0316929091602081602481875afa9081156103025782916102d0575b5060405163b175b32f60e01b81526004810184905292602084602481885afa9384156102c5578394610290575b506020906024604051809781936301aa140d60e51b835260048301525afa918215610284579161024a575b6080935060405192818452602084015260408301526060820152f35b90506020833d60201161027c575b8161026560209383610eb5565b8101031261027757608092519061022e565b600080fd5b3d9150610258565b604051903d90823e3d90fd5b9093506020813d6020116102bd575b816102ac60209383610eb5565b810103126102775751926020610203565b3d915061029f565b6040513d85823e3d90fd5b90506020813d6020116102fa575b816102eb60209383610eb5565b810103126102775751386101d6565b3d91506102de565b6040513d84823e3d90fd5b50346101215780600319360112610121576040516330814b1b60e01b81527f00000000000000000000000000000000000000000000000000000000000000006001600160a01b0316602082600481845afa9182156102c5578392610509575b506040516308c89b6d60e01b8152602081600481855afa9081156104fe5784916104cc575b50604051632a62b51b60e21b815290602082600481865afa91821561046d5760249260209187916104af575b506040516370a0823160e01b81526004810186905293849182906001600160a01b03165afa91821561046d578592610478575b50602060049360405194858092632a62b51b60e21b82525afa92831561046d576080959361043c575b506040805194855260208501919091528301526001600160a01b03166060820152f35b61045f91935060203d602011610466575b6104578183610eb5565b810190610eed565b9138610419565b503d61044d565b6040513d87823e3d90fd5b9291506020833d6020116104a7575b8161049460209383610eb5565b81010312610277579151909160206103f0565b3d9150610487565b6104c69150823d8411610466576104578183610eb5565b386103bd565b90506020813d6020116104f6575b816104e760209383610eb5565b81010312610277575138610391565b3d91506104da565b6040513d86823e3d90fd5b9091506020813d602011610535575b8161052560209383610eb5565b810103126102775751903861036c565b3d9150610518565b5034610121578060031936011261012157546040516001600160a01b039091168152602090f35b503461012157806003193601126101215761057d610f67565b80546001600160a01b03198116825581906001600160a01b03167f8be0079c531659141344cd1fd0a4f28419497f9722a3daafe3b4186f6b6457e08280a380f35b503461012157806105ce36610cf3565b93916105d8610f67565b6105e3858214610d6e565b6105ee811515610db2565b6105fb6032821115610ded565b7f00000000000000000000000000000000000000000000000000000000000000006001600160a01b031693835b828110610633578480f35b61063e818484610e43565b3561064a828987610e43565b358015158091036106b957873b156106b95760405191633cd960bd60e11b8352600483015260248201528581604481838b5af19081156106ae578691610695575b5050600101610628565b8161069f91610eb5565b6106aa57843861068b565b8480fd5b6040513d88823e3d90fd5b8680fd5b5034610121576020366003190112610121576004356106da610f67565b6106e5811515610e69565b604051632a62b51b60e21b81527f00000000000000000000000000000000000000000000000000000000000000006001600160a01b03169190602081600481865afa9081156104fe5760249160209186916108a2575b506040516370a0823160e01b81526004810186905292839182906001600160a01b03165afa80156104fe578291859161086d575b5010610831578254604051630384bb8b60e31b81526001600160a01b03909116600482015260248101829052916020908390604490829087905af19182156102c5577f418aae9de8f7ab4df1c137475770ff373eb33fd62a060544e9f4fc90f3cdb1a4926107e4918591610802575b50610f24565b8254604080519283526001600160a01b03909116602083015290a180f35b610824915060203d60201161082a575b61081c8183610eb5565b810190610f0c565b386107de565b503d610812565b60405162461bcd60e51b8152602060048201526014602482015273496e73756666696369656e742062616c616e636560601b6044820152606490fd5b9150506020813d60201161089a575b8161088960209383610eb5565b81010312610277578190513861076f565b3d915061087c565b6108b99150823d8411610466576104578183610eb5565b3861073b565b5034610121576040366003190112610121576004356024356108df610f67565b6108ea811515610e69565b60405163632d45eb60e01b8152600481018390527f00000000000000000000000000000000000000000000000000000000000000006001600160a01b031690602081602481855afa801561046d5783918691610b87575b5010610b4257604051632a62b51b60e21b8152602081600481855afa90811561046d576024916020918791610b25575b506040516370a0823160e01b81526004810185905292839182906001600160a01b03165afa801561046d5783918691610af0575b5010610aab578354604051630384bb8b60e31b81526001600160a01b0390911660048201526024810183905284919060208160448186865af180156102c5576109f49184916108025750610f24565b803b1561011f578190606460405180948193632ecd417d60e21b83528860048401528760248401528160448401525af180156104fe57610a77575b508254604080519283526001600160a01b0390911660208301527f04f1d8f866097f810d061db2341a96804fc3ca3f7d5b3150080815cdd8853e489190819081015b0390a280f35b92610aa4817f04f1d8f866097f810d061db2341a96804fc3ca3f7d5b3150080815cdd8853e489395610eb5565b9290610a2f565b60405162461bcd60e51b815260206004820152601d60248201527f496e73756666696369656e7420636f6e74726163742062616c616e63650000006044820152606490fd5b9150506020813d602011610b1d575b81610b0c60209383610eb5565b810103126106aa57829051386109a5565b3d9150610aff565b610b3c9150823d8411610466576104578183610eb5565b38610971565b60405162461bcd60e51b815260206004820152601a60248201527f496e73756666696369656e7420726f756e642062616c616e63650000000000006044820152606490fd5b9150506020813d602011610bb4575b81610ba360209383610eb5565b810103126106aa5782905138610941565b3d9150610b96565b503461012157610bcb36610cf3565b92610bd7929192610f67565b610be2848314610d6e565b610bed821515610db2565b610bfa6032831115610ded565b845b828110610c07578580f35b610c12818484610e43565b3590610c1f818787610e43565b35916005831015610c66577f2da7b23ca63c1eb969eee5fae4acb98186abecf5358b0354a82a5183ebca6b2a610c5d60019460405191829182610d45565b0390a201610bfc565b8780fd5b503461012157604036600319011261012157602435600581101561011f57610c90610f67565b7f2da7b23ca63c1eb969eee5fae4acb98186abecf5358b0354a82a5183ebca6b2a60405180610a716004359482610d45565b9181601f840112156102775782359167ffffffffffffffff8311610277576020808501948460051b01011161027757565b60406003198201126102775760043567ffffffffffffffff81116102775781610d1e91600401610cc2565b929092916024359067ffffffffffffffff821161027757610d4191600401610cc2565b9091565b919060208301926005821015610d585752565b634e487b7160e01b600052602160045260246000fd5b15610d7557565b60405162461bcd60e51b8152602060048201526015602482015274082e4e4c2f240d8cadccee8d040dad2e6dac2e8c6d605b1b6044820152606490fd5b15610db957565b60405162461bcd60e51b815260206004820152600c60248201526b456d7074792061727261797360a01b6044820152606490fd5b15610df457565b60405162461bcd60e51b815260206004820152602160248201527f546f6f206d616e7920726f756e647320746f20757064617465206174206f6e636044820152606560f81b6064820152608490fd5b9190811015610e535760051b0190565b634e487b7160e01b600052603260045260246000fd5b15610e7057565b60405162461bcd60e51b815260206004820152601d60248201527f416d6f756e74206d7573742062652067726561746572207468616e20300000006044820152606490fd5b90601f8019910116810190811067ffffffffffffffff821117610ed757604052565b634e487b7160e01b600052604160045260246000fd5b9081602091031261027757516001600160a01b03811681036102775790565b90816020910312610277575180151581036102775790565b15610f2b57565b60405162461bcd60e51b81526020600482015260146024820152731554d115081d1c985b9cd9995c8819985a5b195960621b6044820152606490fd5b6000546001600160a01b03163303610f7b57565b63118cdaa760e01b6000523360045260246000fdfea264697066735822122005129760865f99e158df7c237827a112192cf46a2e7b3cce8604f1a09c8ce4a164736f6c634300081c0033",
  "linkReferences": {},
  "deployedLinkReferences": {},
  "immutableReferences": {
    "9371": [
      {
        "length": 32,
        "start": 314
      },
      {
        "length": 32,
        "start": 404
      },
      {
        "length": 32,
        "start": 813
      },
      {
        "length": 32,
        "start": 1533
      },
      {
        "length": 32,
        "start": 1780
      },
      {
        "length": 32,
        "start": 2304
      }
    ]
  },
  "inputSourceName": "project/contracts/FundRaisingAdmin.sol",
  "buildInfoId": "solc-0_8_28-5c91cafec89c81cbb4613b042e59b99dc1e0ef05"
}