{
  "_format": "hh3-artifact-1",
  "contractName": "FundRaisingContractNFT",
  "sourceName": "contracts/FundRaisingContractNFT.sol",
  "abi": [
    {
      "inputs": [
        {
          "internalType": "address",
          "name": "_dzNFT",
          "type": "address"
        },
        {
          "internalType": "address",
          "name": "_usdtToken",
          "type": "address"
        }
      ],
      "stateMutability": "nonpayable",
      "type": "constructor"
    },
    {
      "inputs": [],
      "name": "EnforcedPause",
      "type": "error"
    },
    {
      "inputs": [],
      "name": "ExpectedPause",
      "type": "error"
    },
    {
      "inputs": [
        {
          "internalType": "address",
          "name": "owner",
          "type": "address"
        }
      ],
      "name": "OwnableInvalidOwner",
      "type": "error"
    },
    {
      "inputs": [
        {
          "internalType": "address",
          "name": "account",
          "type": "address"
        }
      ],
      "name": "OwnableUnauthorizedAccount",
      "type": "error"
    },
    {
      "inputs": [],
      "name": "ReentrancyGuardReentrantCall",
      "type": "error"
    },
    {
      "anonymous": false,
      "inputs": [
        {
          "indexed": true,
          "internalType": "uint256",
          "name": "tokenId",
          "type": "uint256"
        },
        {
          "indexed": true,
          "internalType": "address",
          "name": "investor",
          "type": "address"
        },
        {
          "indexed": false,
          "internalType": "uint256",
          "name": "rewardAmount",
          "type": "uint256"
        }
      ],
      "name": "EarlyRewardClaimed",
      "type": "event"
    },
    {
      "anonymous": false,
      "inputs": [
        {
          "indexed": true,
          "internalType": "address",
          "name": "previousOwner",
          "type": "address"
        },
        {
          "indexed": true,
          "internalType": "address",
          "name": "newOwner",
          "type": "address"
        }
      ],
      "name": "OwnershipTransferred",
      "type": "event"
    },
    {
      "anonymous": false,
      "inputs": [
        {
          "indexed": false,
          "internalType": "address",
          "name": "account",
          "type": "address"
        }
      ],
      "name": "Paused",
      "type": "event"
    },
    {
      "anonymous": false,
      "inputs": [
        {
          "indexed": true,
          "internalType": "uint256",
          "name": "roundId",
          "type": "uint256"
        },
        {
          "indexed": false,
          "internalType": "uint256",
          "name": "amount",
          "type": "uint256"
        },
        {
          "indexed": false,
          "internalType": "uint256",
          "name": "totalPoolAmount",
          "type": "uint256"
        }
      ],
      "name": "RewardAdded",
      "type": "event"
    },
    {
      "anonymous": false,
      "inputs": [
        {
          "indexed": true,
          "internalType": "uint256",
          "name": "roundId",
          "type": "uint256"
        },
        {
          "indexed": false,
          "internalType": "uint256",
          "name": "amount",
          "type": "uint256"
        }
      ],
      "name": "RoundFunded",
      "type": "event"
    },
    {
      "anonymous": false,
      "inputs": [
        {
          "indexed": true,
          "internalType": "uint256",
          "name": "roundId",
          "type": "uint256"
        },
        {
          "indexed": false,
          "internalType": "bool",
          "name": "isActive",
          "type": "bool"
        }
      ],
      "name": "RoundStatusChanged",
      "type": "event"
    },
    {
      "anonymous": false,
      "inputs": [
        {
          "indexed": true,
          "internalType": "address",
          "name": "oldToken",
          "type": "address"
        },
        {
          "indexed": true,
          "internalType": "address",
          "name": "newToken",
          "type": "address"
        }
      ],
      "name": "USDTTokenUpdated",
      "type": "event"
    },
    {
      "anonymous": false,
      "inputs": [
        {
          "indexed": false,
          "internalType": "address",
          "name": "account",
          "type": "address"
        }
      ],
      "name": "Unpaused",
      "type": "event"
    },
    {
      "inputs": [],
      "name": "MAX_BATCH_CLAIM",
      "outputs": [
        {
          "internalType": "uint256",
          "name": "",
          "type": "uint256"
        }
      ],
      "stateMutability": "view",
      "type": "function"
    },
    {
      "inputs": [],
      "name": "MAX_TOKENS_PER_INVESTMENT",
      "outputs": [
        {
          "internalType": "uint256",
          "name": "",
          "type": "uint256"
        }
      ],
      "stateMutability": "view",
      "type": "function"
    },
    {
      "inputs": [],
      "name": "USDT_DECIMALS",
      "outputs": [
        {
          "internalType": "uint256",
          "name": "",
          "type": "uint256"
        }
      ],
      "stateMutability": "view",
      "type": "function"
    },
    {
      "inputs": [],
      "name": "_nextRoundId",
      "outputs": [
        {
          "internalType": "uint256",
          "name": "",
          "type": "uint256"
        }
      ],
      "stateMutability": "view",
      "type": "function"
    },
    {
      "inputs": [
        {
          "internalType": "uint256",
          "name": "roundId",
          "type": "uint256"
        },
        {
          "internalType": "uint256",
          "name": "amount",
          "type": "uint256"
        }
      ],
      "name": "addRewardToRound",
      "outputs": [],
      "stateMutability": "nonpayable",
      "type": "function"
    },
    {
      "inputs": [
        {
          "internalType": "uint256",
          "name": "roundId",
          "type": "uint256"
        }
      ],
      "name": "claimRewardRound",
      "outputs": [],
      "stateMutability": "nonpayable",
      "type": "function"
    },
    {
      "inputs": [
        {
          "internalType": "string",
          "name": "roundName",
          "type": "string"
        },
        {
          "internalType": "uint256",
          "name": "tokenPrice",
          "type": "uint256"
        },
        {
          "internalType": "uint256",
          "name": "rewardPercentage",
          "type": "uint256"
        },
        {
          "internalType": "uint256",
          "name": "totalTokenOpenInvestment",
          "type": "uint256"
        },
        {
          "internalType": "uint256",
          "name": "closeDateInvestment",
          "type": "uint256"
        },
        {
          "internalType": "uint256",
          "name": "endDateInvestment",
          "type": "uint256"
        }
      ],
      "name": "createInvestmentRound",
      "outputs": [
        {
          "internalType": "uint256",
          "name": "",
          "type": "uint256"
        }
      ],
      "stateMutability": "nonpayable",
      "type": "function"
    },
    {
      "inputs": [],
      "name": "dzNFT",
      "outputs": [
        {
          "internalType": "contract DZNFT",
          "name": "",
          "type": "address"
        }
      ],
      "stateMutability": "view",
      "type": "function"
    },
    {
      "inputs": [
        {
          "internalType": "uint256",
          "name": "amount",
          "type": "uint256"
        }
      ],
      "name": "emergencyWithdraw",
      "outputs": [],
      "stateMutability": "nonpayable",
      "type": "function"
    },
    {
      "inputs": [
        {
          "internalType": "uint256",
          "name": "roundId",
          "type": "uint256"
        },
        {
          "internalType": "uint256",
          "name": "amount",
          "type": "uint256"
        }
      ],
      "name": "emergencyWithdrawFromRound",
      "outputs": [],
      "stateMutability": "nonpayable",
      "type": "function"
    },
    {
      "inputs": [],
      "name": "getContractUSDTBalance",
      "outputs": [
        {
          "internalType": "uint256",
          "name": "",
          "type": "uint256"
        }
      ],
      "stateMutability": "view",
      "type": "function"
    },
    {
      "inputs": [
        {
          "internalType": "uint256",
          "name": "roundId",
          "type": "uint256"
        }
      ],
      "name": "getInvestmentRound",
      "outputs": [
        {
          "components": [
            {
              "internalType": "uint256",
              "name": "roundId",
              "type": "uint256"
            },
            {
              "internalType": "string",
              "name": "roundName",
              "type": "string"
            },
            {
              "internalType": "uint256",
              "name": "tokenPrice",
              "type": "uint256"
            },
            {
              "internalType": "uint256",
              "name": "rewardPercentage",
              "type": "uint256"
            },
            {
              "internalType": "uint256",
              "name": "totalTokenOpenInvestment",
              "type": "uint256"
            },
            {
              "internalType": "uint256",
              "name": "tokensSold",
              "type": "uint256"
            },
            {
              "internalType": "uint256",
              "name": "closeDateInvestment",
              "type": "uint256"
            },
            {
              "internalType": "uint256",
              "name": "endDateInvestment",
              "type": "uint256"
            },
            {
              "internalType": "bool",
              "name": "isActive",
              "type": "bool"
            },
            {
              "internalType": "bool",
              "name": "exists",
              "type": "bool"
            },
            {
              "internalType": "uint256",
              "name": "createdAt",
              "type": "uint256"
            },
            {
              "internalType": "enum FundRaisingContractNFT.Status",
              "name": "status",
              "type": "uint8"
            }
          ],
          "internalType": "struct FundRaisingContractNFT.InvestmentRound",
          "name": "",
          "type": "tuple"
        },
        {
          "internalType": "bool",
          "name": "enableClaimReward",
          "type": "bool"
        }
      ],
      "stateMutability": "view",
      "type": "function"
    },
    {
      "inputs": [
        {
          "internalType": "address",
          "name": "investor",
          "type": "address"
        }
      ],
      "name": "getInvestorDetail",
      "outputs": [
        {
          "internalType": "uint256",
          "name": "totalTokensOwned",
          "type": "uint256"
        },
        {
          "internalType": "uint256[]",
          "name": "nftTokenIds",
          "type": "uint256[]"
        },
        {
          "internalType": "uint256",
          "name": "totalInvestment",
          "type": "uint256"
        },
        {
          "internalType": "uint256",
          "name": "dividendsEarned",
          "type": "uint256"
        },
        {
          "internalType": "uint256[]",
          "name": "activeRounds",
          "type": "uint256[]"
        }
      ],
      "stateMutability": "view",
      "type": "function"
    },
    {
      "inputs": [
        {
          "internalType": "address",
          "name": "investor",
          "type": "address"
        }
      ],
      "name": "getInvestorRoundIds",
      "outputs": [
        {
          "internalType": "uint256[]",
          "name": "roundIds",
          "type": "uint256[]"
        }
      ],
      "stateMutability": "view",
      "type": "function"
    },
    {
      "inputs": [
        {
          "internalType": "address",
          "name": "investor",
          "type": "address"
        }
      ],
      "name": "getInvestorRounds",
      "outputs": [
        {
          "internalType": "uint256[]",
          "name": "roundIds",
          "type": "uint256[]"
        },
        {
          "components": [
            {
              "internalType": "uint256",
              "name": "roundId",
              "type": "uint256"
            },
            {
              "internalType": "string",
              "name": "roundName",
              "type": "string"
            },
            {
              "internalType": "uint256",
              "name": "tokenPrice",
              "type": "uint256"
            },
            {
              "internalType": "uint256",
              "name": "rewardPercentage",
              "type": "uint256"
            },
            {
              "internalType": "uint256",
              "name": "totalTokenOpenInvestment",
              "type": "uint256"
            },
            {
              "internalType": "uint256",
              "name": "tokensSold",
              "type": "uint256"
            },
            {
              "internalType": "uint256",
              "name": "closeDateInvestment",
              "type": "uint256"
            },
            {
              "internalType": "uint256",
              "name": "endDateInvestment",
              "type": "uint256"
            },
            {
              "internalType": "bool",
              "name": "isActive",
              "type": "bool"
            },
            {
              "internalType": "bool",
              "name": "exists",
              "type": "bool"
            },
            {
              "internalType": "uint256",
              "name": "createdAt",
              "type": "uint256"
            },
            {
              "internalType": "enum FundRaisingContractNFT.Status",
              "name": "status",
              "type": "uint8"
            }
          ],
          "internalType": "struct FundRaisingContractNFT.InvestmentRound[]",
          "name": "rounds",
          "type": "tuple[]"
        },
        {
          "internalType": "uint256[][]",
          "name": "nfts",
          "type": "uint256[][]"
        },
        {
          "internalType": "bool[]",
          "name": "isEnableClaimReward",
          "type": "bool[]"
        }
      ],
      "stateMutability": "view",
      "type": "function"
    },
    {
      "inputs": [
        {
          "internalType": "uint256",
          "name": "roundId",
          "type": "uint256"
        }
      ],
      "name": "getRoundStatus",
      "outputs": [
        {
          "internalType": "enum FundRaisingContractNFT.Status",
          "name": "status",
          "type": "uint8"
        }
      ],
      "stateMutability": "view",
      "type": "function"
    },
    {
      "inputs": [
        {
          "internalType": "uint256",
          "name": "roundId",
          "type": "uint256"
        }
      ],
      "name": "getRoundTokenIds",
      "outputs": [
        {
          "internalType": "uint256[]",
          "name": "",
          "type": "uint256[]"
        }
      ],
      "stateMutability": "view",
      "type": "function"
    },
    {
      "inputs": [
        {
          "internalType": "uint256",
          "name": "roundId",
          "type": "uint256"
        }
      ],
      "name": "getRoundUSDTBalance",
      "outputs": [
        {
          "internalType": "uint256",
          "name": "",
          "type": "uint256"
        }
      ],
      "stateMutability": "view",
      "type": "function"
    },
    {
      "inputs": [],
      "name": "getRoundsCount",
      "outputs": [
        {
          "internalType": "uint256",
          "name": "totalRounds",
          "type": "uint256"
        },
        {
          "internalType": "uint256",
          "name": "activeRounds",
          "type": "uint256"
        }
      ],
      "stateMutability": "view",
      "type": "function"
    },
    {
      "inputs": [],
      "name": "getUSDTTokenAddress",
      "outputs": [
        {
          "internalType": "address",
          "name": "",
          "type": "address"
        }
      ],
      "stateMutability": "view",
      "type": "function"
    },
    {
      "inputs": [
        {
          "internalType": "address",
          "name": "user",
          "type": "address"
        }
      ],
      "name": "getUserInvestments",
      "outputs": [
        {
          "internalType": "uint256[]",
          "name": "",
          "type": "uint256[]"
        }
      ],
      "stateMutability": "view",
      "type": "function"
    },
    {
      "inputs": [
        {
          "internalType": "uint256",
          "name": "roundId",
          "type": "uint256"
        },
        {
          "internalType": "address",
          "name": "user",
          "type": "address"
        }
      ],
      "name": "getUserNFTsInRound",
      "outputs": [
        {
          "internalType": "uint256[]",
          "name": "",
          "type": "uint256[]"
        }
      ],
      "stateMutability": "view",
      "type": "function"
    },
    {
      "inputs": [
        {
          "internalType": "uint256",
          "name": "roundId",
          "type": "uint256"
        },
        {
          "internalType": "uint256",
          "name": "tokenAmount",
          "type": "uint256"
        }
      ],
      "name": "investInRound",
      "outputs": [
        {
          "internalType": "uint256",
          "name": "",
          "type": "uint256"
        }
      ],
      "stateMutability": "nonpayable",
      "type": "function"
    },
    {
      "inputs": [
        {
          "internalType": "uint256",
          "name": "",
          "type": "uint256"
        }
      ],
      "name": "investmentRounds",
      "outputs": [
        {
          "internalType": "uint256",
          "name": "roundId",
          "type": "uint256"
        },
        {
          "internalType": "string",
          "name": "roundName",
          "type": "string"
        },
        {
          "internalType": "uint256",
          "name": "tokenPrice",
          "type": "uint256"
        },
        {
          "internalType": "uint256",
          "name": "rewardPercentage",
          "type": "uint256"
        },
        {
          "internalType": "uint256",
          "name": "totalTokenOpenInvestment",
          "type": "uint256"
        },
        {
          "internalType": "uint256",
          "name": "tokensSold",
          "type": "uint256"
        },
        {
          "internalType": "uint256",
          "name": "closeDateInvestment",
          "type": "uint256"
        },
        {
          "internalType": "uint256",
          "name": "endDateInvestment",
          "type": "uint256"
        },
        {
          "internalType": "bool",
          "name": "isActive",
          "type": "bool"
        },
        {
          "internalType": "bool",
          "name": "exists",
          "type": "bool"
        },
        {
          "internalType": "uint256",
          "name": "createdAt",
          "type": "uint256"
        },
        {
          "internalType": "enum FundRaisingContractNFT.Status",
          "name": "status",
          "type": "uint8"
        }
      ],
      "stateMutability": "view",
      "type": "function"
    },
    {
      "inputs": [
        {
          "internalType": "address",
          "name": "",
          "type": "address"
        }
      ],
      "name": "investorDividendsEarned",
      "outputs": [
        {
          "internalType": "uint256",
          "name": "",
          "type": "uint256"
        }
      ],
      "stateMutability": "view",
      "type": "function"
    },
    {
      "inputs": [
        {
          "internalType": "address",
          "name": "",
          "type": "address"
        },
        {
          "internalType": "uint256",
          "name": "",
          "type": "uint256"
        }
      ],
      "name": "investorRounds",
      "outputs": [
        {
          "internalType": "uint256",
          "name": "",
          "type": "uint256"
        }
      ],
      "stateMutability": "view",
      "type": "function"
    },
    {
      "inputs": [],
      "name": "owner",
      "outputs": [
        {
          "internalType": "address",
          "name": "",
          "type": "address"
        }
      ],
      "stateMutability": "view",
      "type": "function"
    },
    {
      "inputs": [],
      "name": "pause",
      "outputs": [],
      "stateMutability": "nonpayable",
      "type": "function"
    },
    {
      "inputs": [],
      "name": "paused",
      "outputs": [
        {
          "internalType": "bool",
          "name": "",
          "type": "bool"
        }
      ],
      "stateMutability": "view",
      "type": "function"
    },
    {
      "inputs": [],
      "name": "renounceOwnership",
      "outputs": [],
      "stateMutability": "nonpayable",
      "type": "function"
    },
    {
      "inputs": [
        {
          "internalType": "uint256",
          "name": "",
          "type": "uint256"
        }
      ],
      "name": "roundLedger",
      "outputs": [
        {
          "internalType": "uint256",
          "name": "",
          "type": "uint256"
        }
      ],
      "stateMutability": "view",
      "type": "function"
    },
    {
      "inputs": [
        {
          "internalType": "uint256",
          "name": "",
          "type": "uint256"
        }
      ],
      "name": "roundRewardPool",
      "outputs": [
        {
          "internalType": "uint256",
          "name": "",
          "type": "uint256"
        }
      ],
      "stateMutability": "view",
      "type": "function"
    },
    {
      "inputs": [
        {
          "internalType": "uint256",
          "name": "",
          "type": "uint256"
        },
        {
          "internalType": "uint256",
          "name": "",
          "type": "uint256"
        }
      ],
      "name": "roundTokenIds",
      "outputs": [
        {
          "internalType": "uint256",
          "name": "",
          "type": "uint256"
        }
      ],
      "stateMutability": "view",
      "type": "function"
    },
    {
      "inputs": [
        {
          "internalType": "uint256",
          "name": "roundId",
          "type": "uint256"
        },
        {
          "internalType": "bool",
          "name": "active",
          "type": "bool"
        }
      ],
      "name": "setRoundActive",
      "outputs": [],
      "stateMutability": "nonpayable",
      "type": "function"
    },
    {
      "inputs": [
        {
          "internalType": "address",
          "name": "newUSDTToken",
          "type": "address"
        }
      ],
      "name": "setUSDTToken",
      "outputs": [],
      "stateMutability": "nonpayable",
      "type": "function"
    },
    {
      "inputs": [],
      "name": "totalRoundsCreated",
      "outputs": [
        {
          "internalType": "uint256",
          "name": "",
          "type": "uint256"
        }
      ],
      "stateMutability": "view",
      "type": "function"
    },
    {
      "inputs": [],
      "name": "totalUSDTRaised",
      "outputs": [
        {
          "internalType": "uint256",
          "name": "",
          "type": "uint256"
        }
      ],
      "stateMutability": "view",
      "type": "function"
    },
    {
      "inputs": [
        {
          "internalType": "address",
          "name": "newOwner",
          "type": "address"
        }
      ],
      "name": "transferOwnership",
      "outputs": [],
      "stateMutability": "nonpayable",
      "type": "function"
    },
    {
      "inputs": [],
      "name": "unpause",
      "outputs": [],
      "stateMutability": "nonpayable",
      "type": "function"
    },
    {
      "inputs": [
        {
          "internalType": "uint256",
          "name": "roundId",
          "type": "uint256"
        },
        {
          "internalType": "enum FundRaisingContractNFT.Status",
          "name": "status",
          "type": "uint8"
        }
      ],
      "name": "updateStatus",
      "outputs": [],
      "stateMutability": "nonpayable",
      "type": "function"
    },
    {
      "inputs": [],
      "name": "usdtToken",
      "outputs": [
        {
          "internalType": "contract IERC20",
          "name": "",
          "type": "address"
        }
      ],
      "stateMutability": "view",
      "type": "function"
    },
    {
      "inputs": [
        {
          "internalType": "address",
          "name": "",
          "type": "address"
        },
        {
          "internalType": "uint256",
          "name": "",
          "type": "uint256"
        }
      ],
      "name": "userClaimedRewards",
      "outputs": [
        {
          "internalType": "uint256",
          "name": "",
          "type": "uint256"
        }
      ],
      "stateMutability": "view",
      "type": "function"
    },
    {
      "inputs": [
        {
          "internalType": "address",
          "name": "",
          "type": "address"
        },
        {
          "internalType": "uint256",
          "name": "",
          "type": "uint256"
        }
      ],
      "name": "userInvestments",
      "outputs": [
        {
          "internalType": "uint256",
          "name": "",
          "type": "uint256"
        }
      ],
      "stateMutability": "view",
      "type": "function"
    },
    {
      "inputs": [
        {
          "internalType": "uint256",
          "name": "",
          "type": "uint256"
        },
        {
          "internalType": "address",
          "name": "",
          "type": "address"
        },
        {
          "internalType": "uint256",
          "name": "",
          "type": "uint256"
        }
      ],
      "name": "userNFTsInRound",
      "outputs": [
        {
          "internalType": "uint256",
          "name": "",
          "type": "uint256"
        }
      ],
      "stateMutability": "view",
      "type": "function"
    },
    {
      "inputs": [
        {
          "internalType": "uint256",
          "name": "roundId",
          "type": "uint256"
        }
      ],
      "name": "withdrawFund",
      "outputs": [],
      "stateMutability": "nonpayable",
      "type": "function"
    }
  ],
  "bytecode": "0x60a0346101bb57601f6138e538819003918201601f19168301916001600160401b038311848410176101bf5780849260409485528339810103126101bb57610052602061004b836101d3565b92016101d3565b9033156101a8575f8054336001600160a01b0319821681178355604051939290916001600160a01b0316907f8be0079c531659141344cd1fd0a4f28419497f9722a3daafe3b4186f6b6457e09080a3600180556001600160a01b031690811561016657506001600160a01b038216156101215760805260028054610100600160a81b03191660089290921b610100600160a81b03169190911790556040516136fd90816101e8823960805181818161095701528181610b1c01528181610e880152818161170d015261316a0152f35b60405162461bcd60e51b815260206004820152601460248201527f496e76616c6964205553445420616464726573730000000000000000000000006044820152606490fd5b62461bcd60e51b815260206004820152601560248201527f496e76616c696420445a4e4654206164647265737300000000000000000000006044820152606490fd5b631e4fbdf760e01b5f525f60045260245ffd5b5f80fd5b634e487b7160e01b5f52604160045260245ffd5b51906001600160a01b03821682036101bb5756fe6080806040526004361015610012575f80fd5b5f3560e01c90816308c89b6d14612ac3575080630cee1725146129c85780631086bfdc146129735780631144e79e14610de45780631470e87d14611082578063161f6622146128f157806318f38da2146128545780631f8cfb03146127f857806330814b1b146127db57806330901347146123f85780633a1b3d311461239b5780633f4ba83a146123355780634007a762146122fd57806346468763146121145780635312ea8e14611fb95780635c975abb14611f97578063632d45eb14611f6d57806366e226bd14611e5a578063676045511461166857806369fbd3cc1461159d578063715018a614611559578063760ca4f4146113a057806379b2c17a146113095780637c315754146112c05780637f46f82e146112435780638456cb59146111ea5780638da5cb5b146111c35780639244adcd1461117a57806393b58d8114611136578063a09686c4146110ae578063a98ad46c14611082578063b0eff31614611065578063b175b32f1461103b578063b201c0c31461100c578063b4ad7d3a14610fc4578063b82e4fc314610eb7578063bf32eb0114610e73578063c52c5c8814610de9578063c6f8341814610de4578063c8f7604014610d5a578063df8493b0146107ce578063e96d87b4146102fd578063ef1b92a41461029c578063ef2cfd1a146102815763f2fde38b1461020b575f80fd5b3461027d57602036600319011261027d57610224612b4e565b61022c61353c565b6001600160a01b0316801561026a575f80546001600160a01b03198116831782556001600160a01b0316905f5160206136a85f395f51905f529080a3005b631e4fbdf760e01b5f525f60045260245ffd5b5f80fd5b3461027d575f36600319011261027d57602060405160128152f35b3461027d57606036600319011261027d576102b5612b38565b604435906004355f52600660205260405f209060018060a01b03165f5260205260405f20805482101561027d576020916102ee91612d4f565b90549060031b1c604051908152f35b3461027d5760c036600319011261027d576004356001600160401b03811161027d573660238201121561027d57806004013561033881612d78565b916103466040519384612c8c565b818352366024838301011161027d57815f926024602093018386013783010152608435906024359060a43560643560443561037f61353c565b83511561078c578415610748578015158061073c575b156106eb57811561069a57428611156106565785831115610607576103c8600c54956103c08761312d565b600c556130d5565b92604051966103d688612c70565b8688526020880195865260408801948552606088019283526080880193845260a088015f815260c0890191825260e08901928352610100890194600186526101208a0194600186526101408b01974289526101608c01995f8b528b5f52600360205260405f209c518d5560018d01905180519060018060401b0382116105f35781906104628454612c38565b601f81116105a3575b50602090601f8311600114610540575f92610535575b50508160011b915f199060031b1c19161790555b5160028c01555160038b01555160048a01555160058901555160068801555160078701556104d66008870192511515839060ff801983541691151516179055565b51815461ff00191690151560081b61ff00161790555160098401555191600583101561052157602092600a61050b9201612e41565b610516600d5461312d565b600d55604051908152f35b634e487b7160e01b5f52602160045260245ffd5b015190508f80610481565b5f8581528281209350601f198516905b81811061058b5750908460019594939210610573575b505050811b019055610495565b01515f1960f88460031b161c191690558f8080610566565b92936020600181928786015181550195019301610550565b909150835f5260205f20601f840160051c810191602085106105e9575b90601f859493920160051c01905b8181106105db575061046b565b5f81558493506001016105ce565b90915081906105c0565b634e487b7160e01b5f52604160045260245ffd5b60405162461bcd60e51b815260206004820152602160248201527f456e642064617465206d75737420626520616674657220636c6f7365206461746044820152606560f81b6064820152608490fd5b60405162461bcd60e51b815260206004820152601c60248201527b436c6f73652064617465206d75737420626520696e2066757475726560201b6044820152606490fd5b60405162461bcd60e51b815260206004820152602360248201527f546f74616c20746f6b656e73206d75737420626520677265617465722074686160448201526206e20360ec1b6064820152608490fd5b60405162461bcd60e51b815260206004820152602360248201527f496e76616c6964207265776172642070657263656e746167652028302d31303060448201526230302960e81b6064820152608490fd5b50612710811115610395565b60405162461bcd60e51b815260206004820152601c60248201527b05072696365206d7573742062652067726561746572207468616e20360241b6044820152606490fd5b60405162461bcd60e51b815260206004820152601a602482015279526f756e64206e616d652063616e6e6f7420626520656d70747960301b6044820152606490fd5b3461027d576107dc36612c22565b906107e561364c565b6107ed61366c565b805f52600360205261080b60ff600860405f20015460081c16612d93565b805f52600360205260ff600860405f2001541615610d1f57805f52600360205261083e600660405f2001544211156134bd565b805f526003602052610858600660405f20015442106134bd565b8115610cce5760508211610c6c57805f52600360205260405f20906002820161088281548561310d565b928315610c2e576005810191610899868454613120565b600483015410610bd7576002546040516323b872dd60e01b815290602090829060081c6001600160a01b0316815f816108d78c30336004850161349b565b03925af18015610aaa575f90610b9c575b6108f29150612dfe565b54906003810154906007600682015491015491600188115f14610ab557604051632fdc968f60e21b8152336004820152602481018990526044810187905260648101949094526084840152600160a484015260c483015260e48201525f8161010481837f00000000000000000000000000000000000000000000000000000000000000006001600160a01b03165af1908115610aaa575f91610a88575b50935b825f52600460205260405f20335f52600560205260405f2090845f52600660205260405f2060018060a01b0333165f5260205260405f20805415925f5b858110610a43576020610a1d8b8b8b8b6109f08c8c610a2a575b8254613120565b90556109fe82600e54613120565b600e555f5260078452610a1660405f20918254613120565b9055612f62565b5160018055604051908152f35b335f5260088852610a3e8460405f20613508565b6109e9565b80610a5a610a536001938d612f6f565b5186613508565b610a6e610a67828d612f6f565b5184613508565b610a82610a7b828d612f6f565b5185613508565b016109cf565b610aa491503d805f833e610a9c8183612c8c565b810190612eb7565b8561098f565b6040513d5f823e3d90fd5b9692604092835192610ac78585612c8c565b60018452601f198501366020860137839985519363f4fb815960e01b8552336004860152896024860152604485015260648401526001608484015260a483015260c482015260208160e4815f60018060a01b037f0000000000000000000000000000000000000000000000000000000000000000165af1928315610b9357505f92610b5d575b50610b5790612f62565b52610992565b9091506020813d602011610b8b575b81610b7960209383612c8c565b8101031261027d575190610b57610b4d565b3d9150610b6c565b513d5f823e3d90fd5b506020813d602011610bcf575b81610bb660209383612c8c565b8101031261027d57610bca6108f291612dd6565b6108e8565b3d9150610ba9565b60405162461bcd60e51b815260206004820152602960248201527f4e6f7420656e6f75676820746f6b656e7320617661696c61626c6520696e20746044820152681a1a5cc81c9bdd5b9960ba1b6064820152608490fd5b60405162461bcd60e51b8152602060048201526016602482015275151bdad95b88185b5bdd5b9d081d1bdbc81cdb585b1b60521b6044820152606490fd5b60405162461bcd60e51b815260206004820152603460248201527f546f6b656e20616d6f756e742065786365656473206d6178696d756d20616c6c60448201527337bbb2b2103832b9103a3930b739b0b1ba34b7b760611b6064820152608490fd5b60405162461bcd60e51b815260206004820152602360248201527f546f6b656e20616d6f756e74206d75737420626520677265617465722074686160448201526206e20360ec1b6064820152608490fd5b60405162461bcd60e51b8152602060048201526013602482015272526f756e64206973206e6f742061637469766560681b6044820152606490fd5b3461027d575f36600319011261027d576002546040516370a0823160e01b8152306004820152906020908290602490829060081c6001600160a01b03165afa8015610aaa575f90610db1575b602090604051908152f35b506020813d602011610ddc575b81610dcb60209383612c8c565b8101031261027d5760209051610da6565b3d9150610dbe565b612aea565b3461027d57602036600319011261027d576001600160a01b03610e0a612b4e565b165f52600560205260405f206040519081602082549182815201915f5260205f20905f5b818110610e5d57610e5985610e4581870382612c8c565b604051918291602083526020830190612b05565b0390f35b8254845260209093019260019283019201610e2e565b3461027d575f36600319011261027d576040517f00000000000000000000000000000000000000000000000000000000000000006001600160a01b03168152602090f35b3461027d57602036600319011261027d57610fb8600435610ed66133e5565b50805f526003602052610ef560ff600860405f20015460081c16612d93565b805f526003602052610fa460405f2091610f9f60ff600a60405195610f1987612c70565b80548752610f2960018201612caf565b6020880152600281015460408801526003810154606088015260048101546080880152600581015460a0880152600681015460c0880152600781015460e088015282600882015481811615156101008a015260081c1615156101208801526009810154610140880152015416610160850161343e565b613562565b604051928392604084526040840190612b88565b90151560208301520390f35b3461027d57602036600319011261027d57600435805f526003602052610ff660ff600860405f20015460081c16612d93565b5f526007602052602060405f2054604051908152f35b3461027d5761101a36612c22565b905f52600460205260405f20805482101561027d576020916102ee91612d4f565b3461027d57602036600319011261027d576004355f526009602052602060405f2054604051908152f35b3461027d575f36600319011261027d576020600c54604051908152f35b3461027d575f36600319011261027d5760025460405160089190911c6001600160a01b03168152602090f35b3461027d575f36600319011261027d57600d545f905f600c54905b8181106110e0576040838582519182526020820152f35b805f52600360205260ff600860405f20015460081c168061111d575b611109575b6001016110c9565b9261111560019161312d565b939050611101565b50805f52600360205260ff600860405f200154166110fc565b3461027d57604036600319011261027d576001600160a01b03611157612b4e565b165f52600a60205260405f206024355f52602052602060405f2054604051908152f35b3461027d57604036600319011261027d57611193612b4e565b6001600160a01b03165f9081526005602052604090208054602435919082101561027d576020916102ee91612d4f565b3461027d575f36600319011261027d575f546040516001600160a01b039091168152602090f35b3461027d575f36600319011261027d5761120261353c565b61120a61366c565b600160ff1960025416176002557f62e78cea01bee320cd4e420270b5ea74000d11b0c9f74754ebdbfc544b05a2586020604051338152a1005b3461027d57602036600319011261027d576001600160a01b03611264612b4e565b16611270811515612e59565b5f52600860205260405f206040519081602082549182815201915f5260205f20905f5b8181106112aa57610e5985610e4581870382612c8c565b8254845260209093019260019283019201611293565b3461027d57604036600319011261027d576112d9612b4e565b6001600160a01b03165f9081526008602052604090208054602435919082101561027d576020916102ee91612d4f565b3461027d57604036600319011261027d576004356024358015159081810361027d577fdd8c33b779db77b877161fe300dfc92dc5b0d87c7e4199701eb25330a83e16f99161139760209261135b61353c565b855f526003845261137860ff600860405f20015460081c16612d93565b855f5260038452600860405f20019060ff801983541691151516179055565b604051908152a2005b3461027d576113ae36612c22565b6113b661353c565b815f5260036020526113d460ff600860405f20015460081c16612d93565b8015611508576002545f906020906114199060081c6001600160a01b03166113fb856130d5565b6040519485809481936323b872dd60e01b835230336004850161349b565b03925af1908115610aaa575f916114b7575b505f5160206136885f395f51905f5291611446604092612dfe565b61144f816130d5565b845f526009602052611465835f20918254613120565b9055611470816130d5565b845f526007602052611486835f20918254613120565b9055835f52600460205261149e825f20541515613457565b835f526009602052815f205482519182526020820152a2005b90506020813d602011611500575b816114d260209383612c8c565b8101031261027d575f5160206136885f395f51905f52916114466114f7604093612dd6565b9250509161142b565b3d91506114c5565b60405162461bcd60e51b8152602060048201526024808201527f52657761726420616d6f756e74206d75737420626520677265617465722074686044820152630616e20360e41b6064820152608490fd5b3461027d575f36600319011261027d5761157161353c565b5f80546001600160a01b0319811682556001600160a01b03165f5160206136a85f395f51905f528280a3005b3461027d57602036600319011261027d576004355f52600360205261018060405f20805490610e596115d160018301612caf565b60028301549260ff60038201546004830154600584015460068501549060078601549260088701549461162187600a60098b01549a015416996040519e8f9e8f9081528160208201520190612b64565b9a60408d015260608c015260808b015260a08a015260c089015260e0880152818116151561010088015260081c161515610120860152610140850152610160840190612add565b3461027d57602036600319011261027d5760043561168461364c565b61168c61366c565b805f5260036020526116aa60ff600860405f20015460081c16612d93565b805f52600660205260405f2060018060a01b0333165f5260205260405f20604051808260208294549384815201905f5260205f20925f5b818110611e415750506116f692500382612c8c565b61170281511515613457565b6050815111611dcc577f00000000000000000000000000000000000000000000000000000000000000006001600160a01b031691905f908190815b815183101561191b576117508383612f6f565b51604051906331a9108f60e11b825260048201526020816024818a5afa908115610aaa575f916118e2575b50336001600160a01b03909116036118d8576117978383612f6f565b519060405191634712f17360e11b835260048301525f826024818a5afa918215610aaa575f926118b4575b506101208201516118a95760c08201518042111561189d576117e4904261344a565b62ed4e00811061189d57611801608084015160408501519061310d565b926301e13380606461181760608401518761310d565b04921061186657610140015160019361184f939092909115611859576118499261184391861c90613120565b90613120565b9461312d565b925b01919261173d565b6118439061184993613120565b6101409192969350015115611882575b5061184f60019161312d565b6118956001929561184f92841c90613120565b949150611876565b50939260019150611851565b939260019150611851565b6118d19192503d805f833e6118c98183612c8c565b810190612f97565b90876117c2565b9291600190611851565b90506020813d8211611913575b816118fc60209383612c8c565b8101031261027d5761190d90612f83565b8761177b565b3d91506118ef565b91509115611d8b578015611d51576002546040516370a0823160e01b8152306004820152906020908290602490829060081c6001600160a01b03165afa8015610aaa5782915f91611d1c575b5010611ccc57825f5260096020528060405f205410611c87575f5b8251811015611bac576119958184612f6f565b51604051906331a9108f60e11b82526004820152602081602481895afa908115610aaa575f91611b73575b50336001600160a01b0390911603611ae8576119dc8184612f6f565b5160405190634712f17360e11b825260048201525f81602481895afa908115610aaa575f91611b59575b50610120810151611b505760c081015180421115611b4657611a28904261344a565b62ed4e008110611b46576301e1338011611add5750611a478184612f6f565b51853b1561027d57604051906319f477d960e01b825260048201525f81602481838a5af18015610aaa57611acd575b50611a818184612f6f565b5190853b1561027d576040519163bed62f3560e01b835260048301525f82602481838a5af1918215610aaa57600192611abd575b505b01611982565b5f611ac791612c8c565b86611ab5565b5f611ad791612c8c565b85611a76565b610140015115611af0575b600190611ab7565b611afa8184612f6f565b5190853b1561027d57604051916318d8e2a560e01b835260048301525f82602481838a5af1918215610aaa57600192611b36575b509050611ae8565b5f611b4091612c8c565b86611b2e565b5050600190611ab7565b50600190611ab7565b611b6d91503d805f833e6118c98183612c8c565b86611a06565b90506020813d8211611ba4575b81611b8d60209383612c8c565b8101031261027d57611b9e90612f83565b866119c0565b3d9150611b80565b5f6020611c2c8487338552600b845260408520611bca838254613120565b90558085526009845260408520611be283825461344a565b905584526007835260408420611bf982825461344a565b905560025460405163a9059cbb60e01b815294859360089290921c6001600160a01b031692849283913360048401612de3565b03925af18015610aaa575f90611c4c575b611c4690612dfe565b60018055005b506020813d602011611c7f575b81611c6660209383612c8c565b8101031261027d57611c7a611c4691612dd6565b611c3d565b3d9150611c59565b60405162461bcd60e51b815260206004820152601f60248201527f496e73756666696369656e7420726f756e6420555344542062616c616e6365006044820152606490fd5b60405162461bcd60e51b815260206004820152602260248201527f496e73756666696369656e7420636f6e747261637420555344542062616c616e604482015261636560f01b6064820152608490fd5b9150506020813d602011611d49575b81611d3860209383612c8c565b8101031261027d5781905186611967565b3d9150611d2b565b60405162461bcd60e51b81526020600482015260126024820152714e6f20616d6f756e7420746f20636c61696d60701b6044820152606490fd5b60405162461bcd60e51b81526020600482015260196024820152784e6f20656c696769626c65204e46547320746f20636c61696d60381b6044820152606490fd5b60405162461bcd60e51b815260206004820152604160248201527f546f6f206d616e79204e46547320746f20636c61696d206174206f6e63652c2060448201527f706c656173652073706c697420696e746f20736d616c6c6572206261746368656064820152607360f81b608482015260a490fd5b84548352600194850194869450602090930192016116e1565b3461027d57602036600319011261027d57611e73612b4e565b611e7b61353c565b6001600160a01b038116908115611f2b57600254600881901c6001600160a01b031691838314611eec57610100600160a81b031990911660089190911b610100600160a81b0316176002557f92852dbadca7e6fa4e0d5dd87891e6dd13f50a304561a86ea9d5a710b972e4495f80a3005b60405162461bcd60e51b815260206004820152601760248201527653616d65205553445420746f6b656e206164647265737360481b6044820152606490fd5b60405162461bcd60e51b815260206004820152601a602482015279496e76616c6964205553445420746f6b656e206164647265737360301b6044820152606490fd5b3461027d57602036600319011261027d576004355f526007602052602060405f2054604051908152f35b3461027d575f36600319011261027d57602060ff600254166040519015158152f35b3461027d57602036600319011261027d57600435611fd561353c565b6002546040516370a0823160e01b815230600482015260089190911c6001600160a01b031690602081602481855afa8015610aaa5783915f916120df575b50106120a3575f805460405163a9059cbb60e01b815293602093859390928492839161204c91906001600160a01b031660048401612de3565b03925af18015610aaa575f90612068575b61206690612dfe565b005b506020813d60201161209b575b8161208260209383612c8c565b8101031261027d5761209661206691612dd6565b61205d565b3d9150612075565b60405162461bcd60e51b8152602060048201526014602482015273496e73756666696369656e742062616c616e636560601b6044820152606490fd5b9150506020813d60201161210c575b816120fb60209383612c8c565b8101031261027d5782905184612013565b3d91506120ee565b3461027d5761212236612c22565b9061212b61353c565b805f52600360205261214960ff600860405f20015460081c16612d93565b81156122b857805f5260076020528160405f205410612276576002546040516370a0823160e01b8152306004820152906020908290602490829060081c6001600160a01b03165afa8015610aaa5783915f91612241575b50106121fc5761204c916020915f526007825260405f206121c282825461344a565b90556002545f805460405163a9059cbb60e01b815295869460089490941c6001600160a01b03908116948694938593921660048401612de3565b60405162461bcd60e51b815260206004820152601d60248201527f496e73756666696369656e7420636f6e74726163742062616c616e63650000006044820152606490fd5b9150506020813d60201161226e575b8161225d60209383612c8c565b8101031261027d57829051846121a0565b3d9150612250565b60405162461bcd60e51b815260206004820152601a602482015279496e73756666696369656e7420726f756e642062616c616e636560301b6044820152606490fd5b60405162461bcd60e51b815260206004820152601d60248201527f416d6f756e74206d7573742062652067726561746572207468616e20300000006044820152606490fd5b3461027d57602036600319011261027d576001600160a01b0361231e612b4e565b165f52600b602052602060405f2054604051908152f35b3461027d575f36600319011261027d5761234d61353c565b60025460ff81161561238c5760ff19166002557f5db9ee0a495bf2e6ff9c91a7834c1ba4fdd244a5e8aa4e537bd38aeae4b073aa6020604051338152a1005b638dfc202b60e01b5f5260045ffd5b3461027d57604036600319011261027d57600435602435600581101561027d57612066916123c761353c565b805f5260036020526123e560ff600860405f20015460081c16612d93565b5f526003602052600a60405f2001612e41565b3461027d57602036600319011261027d576001600160a01b03612419612b4e565b16612425811515612e59565b805f52600860205260405f2090604051808360208295549384815201905f5260205f20925f5b8181106127c257505061246092500383612c8c565b81519161246c83612ea0565b9261247a6040519485612c8c565b808452612489601f1991612ea0565b015f5b8181106127ab5750508051906124a182612ea0565b916124af6040519384612c8c565b8083526124be601f1991612ea0565b015f5b81811061279a5750506124d48151612f30565b915f5b825181101561264f576124ea8184612f6f565b515f52600360205260405f2061259060ff600a6040519361250a85612c70565b8054855261251a60018201612caf565b6020860152600281015460408601526003810154606086015260048101546080860152600581015460a0860152600681015460c0860152600781015460e0860152826008820154818116151561010088015260081c1615156101208601526009810154610140860152015416610160830161343e565b61259a8288612f6f565b526125a58187612f6f565b506125b08184612f6f565b515f52600660205260405f20855f5260205260405f206040519081602082549182815201915f5260205f20905f905b80821061263757505050906125f981600194930382612c8c565b6126038285612f6f565b5261260e8184612f6f565b5061262261261c8286612f6f565b51613562565b61262c8287612f6f565b9015159052016124d7565b909192600160208192865481520194019201906125df565b50908261266b9286604051948594608086526080860190612b05565b8481036020860152815180825260208201916020808360051b8301019401925f915b8383106127655750505050508381036040850152815180825260208201916020808360051b8301019401925f915b8383106127075750505050508281036060840152602080835192838152019201905f5b8181106126ec575050500390f35b825115158452859450602093840193909201916001016126de565b91939596509193601f19828203018352855190602080835192838152019201905f905b80821061274d5750505060208060019297019301930190928796959492936126bb565b9091926020806001928651815201940192019061272a565b9193959697509193602080612786600193601f198682030187528951612b88565b97019301930190928897969594929361268d565b8060606020809387010152016124c1565b6020906127b66133e5565b8282880101520161248c565b845483526001948501948794506020909301920161244b565b3461027d575f36600319011261027d576020600d54604051908152f35b3461027d57602036600319011261027d57610e5961281c612817612b4e565b61313b565b9061283c604096949651968796875260a0602088015260a0870190612b05565b92604086015260608501528382036080850152612b05565b3461027d57604036600319011261027d57600435612870612b38565b90805f52600360205261288f60ff600860405f20015460081c16612d93565b5f52600660205260405f209060018060a01b03165f5260205260405f206040519081602082549182815201915f5260205f20905f5b8181106128db57610e5985610e4581870382612c8c565b82548452602090930192600192830192016128c4565b3461027d57602036600319011261027d57600435805f52600360205261292360ff600860405f20015460081c16612d93565b5f52600460205260405f206040519081602082549182815201915f5260205f20905f5b81811061295d57610e5985610e4581870382612c8c565b8254845260209093019260019283019201612946565b3461027d57602036600319011261027d57600435805f5260036020526129a560ff600860405f20015460081c16612d93565b5f526003602052602060ff600a60405f200154166129c66040518092612add565bf35b3461027d57602036600319011261027d576004356129e461353c565b805f526003602052612a0260ff600860405f20015460081c16612d93565b5f8181526007602090815260408083208054908490556002548454925163a9059cbb60e01b81529485936001600160a01b0360089390931c83169385938492612a5092911660048401612de3565b03925af18015610aaa575f90612a88575b612a6b9150612dfe565b5f526003602052600a60405f2001600360ff198254161790555f80f35b506020813d602011612abb575b81612aa260209383612c8c565b8101031261027d57612ab6612a6b91612dd6565b612a61565b3d9150612a95565b3461027d575f36600319011261027d57602090600e548152f35b9060058210156105215752565b3461027d575f36600319011261027d57602060405160508152f35b90602080835192838152019201905f5b818110612b225750505090565b8251845260209384019390920191600101612b15565b602435906001600160a01b038216820361027d57565b600435906001600160a01b038216820361027d57565b805180835260209291819084018484015e5f828201840152601f01601f1916010190565b90612c1f908251815261016080612bb060208601516101806020860152610180850190612b64565b9460408101516040850152606081015160608501526080810151608085015260a081015160a085015260c081015160c085015260e081015160e0850152610100810151151561010085015261012081015115156101208501526101408101516101408501520151910190612add565b90565b604090600319011261027d576004359060243590565b90600182811c92168015612c66575b6020831014612c5257565b634e487b7160e01b5f52602260045260245ffd5b91607f1691612c47565b61018081019081106001600160401b038211176105f357604052565b601f909101601f19168101906001600160401b038211908210176105f357604052565b9060405191825f825492612cc284612c38565b8084529360018116908115612d2d5750600114612ce9575b50612ce792500383612c8c565b565b90505f9291925260205f20905f915b818310612d11575050906020612ce7928201015f612cda565b6020919350806001915483858901015201910190918492612cf8565b905060209250612ce794915060ff191682840152151560051b8201015f612cda565b8054821015612d64575f5260205f2001905f90565b634e487b7160e01b5f52603260045260245ffd5b6001600160401b0381116105f357601f01601f191660200190565b15612d9a57565b60405162461bcd60e51b8152602060048201526014602482015273149bdd5b9908191bd95cc81b9bdd08195e1a5cdd60621b6044820152606490fd5b5190811515820361027d57565b6001600160a01b039091168152602081019190915260400190565b15612e0557565b60405162461bcd60e51b81526020600482015260146024820152731554d115081d1c985b9cd9995c8819985a5b195960621b6044820152606490fd5b9060058110156105215760ff80198354169116179055565b15612e6057565b60405162461bcd60e51b8152602060048201526018602482015277496e76616c696420696e766573746f72206164647265737360401b6044820152606490fd5b6001600160401b0381116105f35760051b60200190565b60208183031261027d578051906001600160401b03821161027d57019080601f8301121561027d578151612eea81612ea0565b92612ef86040519485612c8c565b81845260208085019260051b82010192831161027d57602001905b828210612f205750505090565b8151815260209182019101612f13565b90612f3a82612ea0565b612f476040519182612c8c565b8281528092612f58601f1991612ea0565b0190602036910137565b805115612d645760200190565b8051821015612d645760209160051b010190565b51906001600160a01b038216820361027d57565b60208183031261027d578051906001600160401b03821161027d5701906101a08282031261027d57604051916101a083016001600160401b038111848210176105f357604052805183526020810151602084015260408101516040840152606081015160608401526080810151608084015260a081015160a084015260c081015160c084015260e081015160e08401526130346101008201612f83565b6101008401526130476101208201612dd6565b61012084015261305a6101408201612dd6565b61014084015261306d6101608201612dd6565b610160840152610180810151906001600160401b03821161027d570181601f8201121561027d578051906130a082612d78565b926130ae6040519485612c8c565b8284526020838301011161027d57815f9260208093018386015e8301015261018082015290565b90670de0b6b3a7640000820291808304670de0b6b3a764000014901517156130f957565b634e487b7160e01b5f52601160045260245ffd5b818102929181159184041417156130f957565b919082018092116130f957565b5f1981146130f95760010190565b5f916001600160a01b0390911690613154821515612e59565b604051635447be0b60e01b8152600481018390527f00000000000000000000000000000000000000000000000000000000000000006001600160a01b031691905f81602481865afa908115610aaa575f916133cb575b5080928151945f52600b60205260405f20549185156133a65750600d54936131da6131d486612f30565b95612f30565b925f945f5b83518110156132a6576131f28185612f6f565b51996040519a634712f17360e11b8c5260048c01525f8b602481895afa9a8b15610aaa575f9b613283575b506132386020916118438d604060808201519101519061310d565b9a0151886132468289612f6f565b5115613257575b50506001016131df565b9760016132758361327b9461326e8585989e612f6f565b528a612f6f565b5261312d565b96908861324d565b6020919b5061329e613238913d805f833e6118c98183612c8c565b9b915061321d565b509350949390969591505f5f5b82811061334257506132c490612f30565b935f905f5b8381106132db57505050509493929190565b6132e58183612f6f565b51805f52600360205260ff600860405f20015460081c1680613329575b613310575b506001016132c9565b8361332291613275600194968b612f6f565b9290613307565b50805f52600360205260ff600860405f20015416613302565b61334c8187612f6f565b51805f52600360205260ff600860405f20015460081c16908161338c575b50613378575b6001016132b3565b9061338460019161312d565b919050613370565b90505f52600360205260ff600860405f200154165f61336a565b955050915091506040516133bb602082612c8c565b5f81525f3681375f93925f929190565b6133df91503d805f833e610a9c8183612c8c565b5f6131aa565b604051906133f282612c70565b5f61016083828152606060208201528260408201528260608201528260808201528260a08201528260c08201528260e08201528261010082015282610120820152826101408201520152565b60058210156105215752565b919082039182116130f957565b1561345e57565b60405162461bcd60e51b8152602060048201526015602482015274139bc81391951cc81a5b881d1a1a5cc81c9bdd5b99605a1b6044820152606490fd5b6001600160a01b03918216815291166020820152604081019190915260600190565b156134c457565b60405162461bcd60e51b815260206004820152601c60248201527b125b9d995cdd1b595b9d081c195c9a5bd9081a185cc818db1bdcd95960221b6044820152606490fd5b8054600160401b8110156105f35761352591600182018155612d4f565b819291549060031b91821b915f19901b1916179055565b5f546001600160a01b0316330361354f57565b63118cdaa760e01b5f523360045260245ffd5b612c1f90805f52600360205261358460ff600860405f20015460081c16612d93565b5f52600360205260405f2061362b60405161359e81612c70565b825481526135ae60018401612caf565b6020820152600283015460408201526003830154606082015260048301546080820152600583015460a082015261016060ff600a60068601549560c08501968752600781015460e0860152826008820154818116151561010088015260081c1615156101208601526009810154610140860152015416910161343e565b51804211156136475761364262ed4e00914261344a565b101590565b505f90565b60026001541461365d576002600155565b633ee5aeb560e01b5f5260045ffd5b60ff6002541661367857565b63d93c066560e01b5f5260045ffdfe9795f222c951ae3e749f872dbe287f78d21fa52353e9175cb20ed3aa2b29b82b8be0079c531659141344cd1fd0a4f28419497f9722a3daafe3b4186f6b6457e0a264697066735822122020f77447f6796bce7df075dd6367bf0d68bb311cee418f94cc96569eba8f883d64736f6c634300081c0033",
  "linkReferences": {},
  "deployedLinkReferences": {},
  "immutableReferences": {
    "9024": [
      {
        "length": 32,
        "start": 2391
      },
      {
        "length": 32,
        "start": 2844
      },
      {
        "length": 32,
        "start": 3720
      },
      {
        "length": 32,
        "start": 5901
      },
      {
        "length": 32,
        "start": 12650
      }
    ]
  },
  "inputSourceName": "project/contracts/FundRaisingContractNFT.sol",
  "buildInfoId": "solc-0_8_28-d959b33899d2425e41ec24b20d4820b3be64854a"
}