{
  "_format": "hh3-artifact-1",
  "contractName": "DZNFT",
  "sourceName": "contracts/DZNFT.sol",
  "abi": [
    {
      "inputs": [],
      "stateMutability": "nonpayable",
      "type": "constructor"
    },
    {
      "inputs": [],
      "name": "AccessControlBadConfirmation",
      "type": "error"
    },
    {
      "inputs": [
        {
          "internalType": "address",
          "name": "account",
          "type": "address"
        },
        {
          "internalType": "bytes32",
          "name": "neededRole",
          "type": "bytes32"
        }
      ],
      "name": "AccessControlUnauthorizedAccount",
      "type": "error"
    },
    {
      "inputs": [
        {
          "internalType": "address",
          "name": "sender",
          "type": "address"
        },
        {
          "internalType": "uint256",
          "name": "tokenId",
          "type": "uint256"
        },
        {
          "internalType": "address",
          "name": "owner",
          "type": "address"
        }
      ],
      "name": "ERC721IncorrectOwner",
      "type": "error"
    },
    {
      "inputs": [
        {
          "internalType": "address",
          "name": "operator",
          "type": "address"
        },
        {
          "internalType": "uint256",
          "name": "tokenId",
          "type": "uint256"
        }
      ],
      "name": "ERC721InsufficientApproval",
      "type": "error"
    },
    {
      "inputs": [
        {
          "internalType": "address",
          "name": "approver",
          "type": "address"
        }
      ],
      "name": "ERC721InvalidApprover",
      "type": "error"
    },
    {
      "inputs": [
        {
          "internalType": "address",
          "name": "operator",
          "type": "address"
        }
      ],
      "name": "ERC721InvalidOperator",
      "type": "error"
    },
    {
      "inputs": [
        {
          "internalType": "address",
          "name": "owner",
          "type": "address"
        }
      ],
      "name": "ERC721InvalidOwner",
      "type": "error"
    },
    {
      "inputs": [
        {
          "internalType": "address",
          "name": "receiver",
          "type": "address"
        }
      ],
      "name": "ERC721InvalidReceiver",
      "type": "error"
    },
    {
      "inputs": [
        {
          "internalType": "address",
          "name": "sender",
          "type": "address"
        }
      ],
      "name": "ERC721InvalidSender",
      "type": "error"
    },
    {
      "inputs": [
        {
          "internalType": "uint256",
          "name": "tokenId",
          "type": "uint256"
        }
      ],
      "name": "ERC721NonexistentToken",
      "type": "error"
    },
    {
      "inputs": [],
      "name": "EnforcedPause",
      "type": "error"
    },
    {
      "inputs": [],
      "name": "ExpectedPause",
      "type": "error"
    },
    {
      "inputs": [
        {
          "internalType": "address",
          "name": "owner",
          "type": "address"
        }
      ],
      "name": "OwnableInvalidOwner",
      "type": "error"
    },
    {
      "inputs": [
        {
          "internalType": "address",
          "name": "account",
          "type": "address"
        }
      ],
      "name": "OwnableUnauthorizedAccount",
      "type": "error"
    },
    {
      "anonymous": false,
      "inputs": [
        {
          "indexed": true,
          "internalType": "address",
          "name": "owner",
          "type": "address"
        },
        {
          "indexed": true,
          "internalType": "address",
          "name": "approved",
          "type": "address"
        },
        {
          "indexed": true,
          "internalType": "uint256",
          "name": "tokenId",
          "type": "uint256"
        }
      ],
      "name": "Approval",
      "type": "event"
    },
    {
      "anonymous": false,
      "inputs": [
        {
          "indexed": true,
          "internalType": "address",
          "name": "owner",
          "type": "address"
        },
        {
          "indexed": true,
          "internalType": "address",
          "name": "operator",
          "type": "address"
        },
        {
          "indexed": false,
          "internalType": "bool",
          "name": "approved",
          "type": "bool"
        }
      ],
      "name": "ApprovalForAll",
      "type": "event"
    },
    {
      "anonymous": false,
      "inputs": [
        {
          "indexed": false,
          "internalType": "string",
          "name": "newBaseURI",
          "type": "string"
        }
      ],
      "name": "BaseURIUpdated",
      "type": "event"
    },
    {
      "anonymous": false,
      "inputs": [
        {
          "indexed": true,
          "internalType": "address",
          "name": "account",
          "type": "address"
        },
        {
          "indexed": false,
          "internalType": "bool",
          "name": "granted",
          "type": "bool"
        }
      ],
      "name": "ExecutorRoleUpdated",
      "type": "event"
    },
    {
      "anonymous": false,
      "inputs": [
        {
          "indexed": true,
          "internalType": "uint256",
          "name": "tokenId",
          "type": "uint256"
        },
        {
          "indexed": false,
          "internalType": "string",
          "name": "metadata",
          "type": "string"
        }
      ],
      "name": "MetadataStamped",
      "type": "event"
    },
    {
      "anonymous": false,
      "inputs": [
        {
          "indexed": true,
          "internalType": "uint256",
          "name": "tokenId",
          "type": "uint256"
        },
        {
          "indexed": true,
          "internalType": "address",
          "name": "owner",
          "type": "address"
        }
      ],
      "name": "NFTBurned",
      "type": "event"
    },
    {
      "anonymous": false,
      "inputs": [
        {
          "indexed": true,
          "internalType": "uint256",
          "name": "tokenId",
          "type": "uint256"
        },
        {
          "indexed": true,
          "internalType": "address",
          "name": "buyer",
          "type": "address"
        },
        {
          "indexed": true,
          "internalType": "uint256",
          "name": "roundId",
          "type": "uint256"
        },
        {
          "indexed": false,
          "internalType": "uint256",
          "name": "tokenPrice",
          "type": "uint256"
        },
        {
          "indexed": false,
          "internalType": "uint256",
          "name": "rewardPercentage",
          "type": "uint256"
        }
      ],
      "name": "NFTMinted",
      "type": "event"
    },
    {
      "anonymous": false,
      "inputs": [
        {
          "indexed": true,
          "internalType": "address",
          "name": "previousOwner",
          "type": "address"
        },
        {
          "indexed": true,
          "internalType": "address",
          "name": "newOwner",
          "type": "address"
        }
      ],
      "name": "OwnershipTransferred",
      "type": "event"
    },
    {
      "anonymous": false,
      "inputs": [
        {
          "indexed": false,
          "internalType": "address",
          "name": "account",
          "type": "address"
        }
      ],
      "name": "Paused",
      "type": "event"
    },
    {
      "anonymous": false,
      "inputs": [
        {
          "indexed": true,
          "internalType": "uint256",
          "name": "tokenId",
          "type": "uint256"
        },
        {
          "indexed": true,
          "internalType": "address",
          "name": "claimer",
          "type": "address"
        }
      ],
      "name": "RewardClaimed",
      "type": "event"
    },
    {
      "anonymous": false,
      "inputs": [
        {
          "indexed": true,
          "internalType": "bytes32",
          "name": "role",
          "type": "bytes32"
        },
        {
          "indexed": true,
          "internalType": "bytes32",
          "name": "previousAdminRole",
          "type": "bytes32"
        },
        {
          "indexed": true,
          "internalType": "bytes32",
          "name": "newAdminRole",
          "type": "bytes32"
        }
      ],
      "name": "RoleAdminChanged",
      "type": "event"
    },
    {
      "anonymous": false,
      "inputs": [
        {
          "indexed": true,
          "internalType": "bytes32",
          "name": "role",
          "type": "bytes32"
        },
        {
          "indexed": true,
          "internalType": "address",
          "name": "account",
          "type": "address"
        },
        {
          "indexed": true,
          "internalType": "address",
          "name": "sender",
          "type": "address"
        }
      ],
      "name": "RoleGranted",
      "type": "event"
    },
    {
      "anonymous": false,
      "inputs": [
        {
          "indexed": true,
          "internalType": "bytes32",
          "name": "role",
          "type": "bytes32"
        },
        {
          "indexed": true,
          "internalType": "address",
          "name": "account",
          "type": "address"
        },
        {
          "indexed": true,
          "internalType": "address",
          "name": "sender",
          "type": "address"
        }
      ],
      "name": "RoleRevoked",
      "type": "event"
    },
    {
      "anonymous": false,
      "inputs": [
        {
          "indexed": true,
          "internalType": "uint256",
          "name": "tokenId",
          "type": "uint256"
        },
        {
          "indexed": false,
          "internalType": "string",
          "name": "newTokenURI",
          "type": "string"
        }
      ],
      "name": "TokenURIUpdated",
      "type": "event"
    },
    {
      "anonymous": false,
      "inputs": [
        {
          "indexed": true,
          "internalType": "address",
          "name": "from",
          "type": "address"
        },
        {
          "indexed": true,
          "internalType": "address",
          "name": "to",
          "type": "address"
        },
        {
          "indexed": true,
          "internalType": "uint256",
          "name": "tokenId",
          "type": "uint256"
        }
      ],
      "name": "Transfer",
      "type": "event"
    },
    {
      "anonymous": false,
      "inputs": [
        {
          "indexed": true,
          "internalType": "uint256",
          "name": "tokenId",
          "type": "uint256"
        },
        {
          "indexed": false,
          "internalType": "bool",
          "name": "locked",
          "type": "bool"
        }
      ],
      "name": "TransferLockUpdated",
      "type": "event"
    },
    {
      "anonymous": false,
      "inputs": [
        {
          "indexed": false,
          "internalType": "address",
          "name": "account",
          "type": "address"
        }
      ],
      "name": "Unpaused",
      "type": "event"
    },
    {
      "inputs": [],
      "name": "DEFAULT_ADMIN_ROLE",
      "outputs": [
        {
          "internalType": "bytes32",
          "name": "",
          "type": "bytes32"
        }
      ],
      "stateMutability": "view",
      "type": "function"
    },
    {
      "inputs": [],
      "name": "EXECUTOR_ROLE",
      "outputs": [
        {
          "internalType": "bytes32",
          "name": "",
          "type": "bytes32"
        }
      ],
      "stateMutability": "view",
      "type": "function"
    },
    {
      "inputs": [
        {
          "internalType": "address",
          "name": "to",
          "type": "address"
        },
        {
          "internalType": "uint256",
          "name": "tokenId",
          "type": "uint256"
        }
      ],
      "name": "approve",
      "outputs": [],
      "stateMutability": "nonpayable",
      "type": "function"
    },
    {
      "inputs": [
        {
          "internalType": "address",
          "name": "owner",
          "type": "address"
        }
      ],
      "name": "balanceOf",
      "outputs": [
        {
          "internalType": "uint256",
          "name": "",
          "type": "uint256"
        }
      ],
      "stateMutability": "view",
      "type": "function"
    },
    {
      "inputs": [],
      "name": "baseURI",
      "outputs": [
        {
          "internalType": "string",
          "name": "",
          "type": "string"
        }
      ],
      "stateMutability": "view",
      "type": "function"
    },
    {
      "inputs": [
        {
          "internalType": "uint256[]",
          "name": "tokenIds",
          "type": "uint256[]"
        },
        {
          "internalType": "address",
          "name": "user",
          "type": "address"
        }
      ],
      "name": "batchCheckOwnership",
      "outputs": [
        {
          "internalType": "bool[]",
          "name": "ownedTokens",
          "type": "bool[]"
        }
      ],
      "stateMutability": "view",
      "type": "function"
    },
    {
      "inputs": [
        {
          "internalType": "uint256[]",
          "name": "tokenIds",
          "type": "uint256[]"
        }
      ],
      "name": "batchGetInvestmentData",
      "outputs": [
        {
          "components": [
            {
              "internalType": "uint256",
              "name": "tokenId",
              "type": "uint256"
            },
            {
              "internalType": "uint256",
              "name": "roundId",
              "type": "uint256"
            },
            {
              "internalType": "uint256",
              "name": "tokenPrice",
              "type": "uint256"
            },
            {
              "internalType": "uint256",
              "name": "rewardPercentage",
              "type": "uint256"
            },
            {
              "internalType": "uint256",
              "name": "totalTokenOpenInvestment",
              "type": "uint256"
            },
            {
              "internalType": "uint256",
              "name": "purchaseTimestamp",
              "type": "uint256"
            },
            {
              "internalType": "uint256",
              "name": "closeDateInvestment",
              "type": "uint256"
            },
            {
              "internalType": "uint256",
              "name": "endDateInvestment",
              "type": "uint256"
            },
            {
              "internalType": "address",
              "name": "originalBuyer",
              "type": "address"
            },
            {
              "internalType": "bool",
              "name": "redeemed",
              "type": "bool"
            },
            {
              "internalType": "bool",
              "name": "rewardClaimed",
              "type": "bool"
            },
            {
              "internalType": "bool",
              "name": "transferLocked",
              "type": "bool"
            },
            {
              "internalType": "string",
              "name": "metadata",
              "type": "string"
            }
          ],
          "internalType": "struct DZNFT.InvestmentData[]",
          "name": "investments",
          "type": "tuple[]"
        }
      ],
      "stateMutability": "view",
      "type": "function"
    },
    {
      "inputs": [
        {
          "internalType": "address",
          "name": "to",
          "type": "address"
        },
        {
          "internalType": "uint256",
          "name": "count",
          "type": "uint256"
        },
        {
          "internalType": "uint256",
          "name": "roundId",
          "type": "uint256"
        },
        {
          "internalType": "uint256",
          "name": "tokenPrice",
          "type": "uint256"
        },
        {
          "internalType": "uint256",
          "name": "rewardPercentage",
          "type": "uint256"
        },
        {
          "internalType": "uint256",
          "name": "totalTokenOpenInvestment",
          "type": "uint256"
        },
        {
          "internalType": "uint256",
          "name": "closeDateInvestment",
          "type": "uint256"
        },
        {
          "internalType": "uint256",
          "name": "endDateInvestment",
          "type": "uint256"
        }
      ],
      "name": "batchMintNFT",
      "outputs": [
        {
          "internalType": "uint256[]",
          "name": "tokenIds",
          "type": "uint256[]"
        }
      ],
      "stateMutability": "nonpayable",
      "type": "function"
    },
    {
      "inputs": [
        {
          "internalType": "uint256",
          "name": "tokenId",
          "type": "uint256"
        }
      ],
      "name": "burn",
      "outputs": [],
      "stateMutability": "nonpayable",
      "type": "function"
    },
    {
      "inputs": [
        {
          "internalType": "uint256",
          "name": "tokenId",
          "type": "uint256"
        }
      ],
      "name": "canClaimEarlyReward",
      "outputs": [
        {
          "internalType": "bool",
          "name": "",
          "type": "bool"
        }
      ],
      "stateMutability": "view",
      "type": "function"
    },
    {
      "inputs": [
        {
          "internalType": "uint256",
          "name": "tokenId",
          "type": "uint256"
        }
      ],
      "name": "canFullyRedeem",
      "outputs": [
        {
          "internalType": "bool",
          "name": "",
          "type": "bool"
        }
      ],
      "stateMutability": "view",
      "type": "function"
    },
    {
      "inputs": [
        {
          "internalType": "uint256",
          "name": "tokenId",
          "type": "uint256"
        }
      ],
      "name": "getApproved",
      "outputs": [
        {
          "internalType": "address",
          "name": "",
          "type": "address"
        }
      ],
      "stateMutability": "view",
      "type": "function"
    },
    {
      "inputs": [
        {
          "internalType": "uint256",
          "name": "tokenId",
          "type": "uint256"
        }
      ],
      "name": "getInvestmentData",
      "outputs": [
        {
          "components": [
            {
              "internalType": "uint256",
              "name": "tokenId",
              "type": "uint256"
            },
            {
              "internalType": "uint256",
              "name": "roundId",
              "type": "uint256"
            },
            {
              "internalType": "uint256",
              "name": "tokenPrice",
              "type": "uint256"
            },
            {
              "internalType": "uint256",
              "name": "rewardPercentage",
              "type": "uint256"
            },
            {
              "internalType": "uint256",
              "name": "totalTokenOpenInvestment",
              "type": "uint256"
            },
            {
              "internalType": "uint256",
              "name": "purchaseTimestamp",
              "type": "uint256"
            },
            {
              "internalType": "uint256",
              "name": "closeDateInvestment",
              "type": "uint256"
            },
            {
              "internalType": "uint256",
              "name": "endDateInvestment",
              "type": "uint256"
            },
            {
              "internalType": "address",
              "name": "originalBuyer",
              "type": "address"
            },
            {
              "internalType": "bool",
              "name": "redeemed",
              "type": "bool"
            },
            {
              "internalType": "bool",
              "name": "rewardClaimed",
              "type": "bool"
            },
            {
              "internalType": "bool",
              "name": "transferLocked",
              "type": "bool"
            },
            {
              "internalType": "string",
              "name": "metadata",
              "type": "string"
            }
          ],
          "internalType": "struct DZNFT.InvestmentData",
          "name": "",
          "type": "tuple"
        }
      ],
      "stateMutability": "view",
      "type": "function"
    },
    {
      "inputs": [
        {
          "internalType": "bytes32",
          "name": "role",
          "type": "bytes32"
        }
      ],
      "name": "getRoleAdmin",
      "outputs": [
        {
          "internalType": "bytes32",
          "name": "",
          "type": "bytes32"
        }
      ],
      "stateMutability": "view",
      "type": "function"
    },
    {
      "inputs": [
        {
          "internalType": "bytes32",
          "name": "role",
          "type": "bytes32"
        },
        {
          "internalType": "address",
          "name": "account",
          "type": "address"
        }
      ],
      "name": "grantRole",
      "outputs": [],
      "stateMutability": "nonpayable",
      "type": "function"
    },
    {
      "inputs": [
        {
          "internalType": "bytes32",
          "name": "role",
          "type": "bytes32"
        },
        {
          "internalType": "address",
          "name": "account",
          "type": "address"
        }
      ],
      "name": "hasRole",
      "outputs": [
        {
          "internalType": "bool",
          "name": "",
          "type": "bool"
        }
      ],
      "stateMutability": "view",
      "type": "function"
    },
    {
      "inputs": [
        {
          "internalType": "uint256",
          "name": "",
          "type": "uint256"
        }
      ],
      "name": "investmentData",
      "outputs": [
        {
          "internalType": "uint256",
          "name": "tokenId",
          "type": "uint256"
        },
        {
          "internalType": "uint256",
          "name": "roundId",
          "type": "uint256"
        },
        {
          "internalType": "uint256",
          "name": "tokenPrice",
          "type": "uint256"
        },
        {
          "internalType": "uint256",
          "name": "rewardPercentage",
          "type": "uint256"
        },
        {
          "internalType": "uint256",
          "name": "totalTokenOpenInvestment",
          "type": "uint256"
        },
        {
          "internalType": "uint256",
          "name": "purchaseTimestamp",
          "type": "uint256"
        },
        {
          "internalType": "uint256",
          "name": "closeDateInvestment",
          "type": "uint256"
        },
        {
          "internalType": "uint256",
          "name": "endDateInvestment",
          "type": "uint256"
        },
        {
          "internalType": "address",
          "name": "originalBuyer",
          "type": "address"
        },
        {
          "internalType": "bool",
          "name": "redeemed",
          "type": "bool"
        },
        {
          "internalType": "bool",
          "name": "rewardClaimed",
          "type": "bool"
        },
        {
          "internalType": "bool",
          "name": "transferLocked",
          "type": "bool"
        },
        {
          "internalType": "string",
          "name": "metadata",
          "type": "string"
        }
      ],
      "stateMutability": "view",
      "type": "function"
    },
    {
      "inputs": [
        {
          "internalType": "address",
          "name": "owner",
          "type": "address"
        },
        {
          "internalType": "address",
          "name": "operator",
          "type": "address"
        }
      ],
      "name": "isApprovedForAll",
      "outputs": [
        {
          "internalType": "bool",
          "name": "",
          "type": "bool"
        }
      ],
      "stateMutability": "view",
      "type": "function"
    },
    {
      "inputs": [
        {
          "internalType": "address",
          "name": "account",
          "type": "address"
        }
      ],
      "name": "isExecutor",
      "outputs": [
        {
          "internalType": "bool",
          "name": "",
          "type": "bool"
        }
      ],
      "stateMutability": "view",
      "type": "function"
    },
    {
      "inputs": [
        {
          "internalType": "uint256",
          "name": "tokenId",
          "type": "uint256"
        }
      ],
      "name": "isInvestmentMatured",
      "outputs": [
        {
          "internalType": "bool",
          "name": "",
          "type": "bool"
        }
      ],
      "stateMutability": "view",
      "type": "function"
    },
    {
      "inputs": [
        {
          "internalType": "uint256",
          "name": "tokenId",
          "type": "uint256"
        }
      ],
      "name": "isInvestmentOpen",
      "outputs": [
        {
          "internalType": "bool",
          "name": "",
          "type": "bool"
        }
      ],
      "stateMutability": "view",
      "type": "function"
    },
    {
      "inputs": [
        {
          "internalType": "uint256",
          "name": "tokenId",
          "type": "uint256"
        }
      ],
      "name": "isTransferLocked",
      "outputs": [
        {
          "internalType": "bool",
          "name": "",
          "type": "bool"
        }
      ],
      "stateMutability": "view",
      "type": "function"
    },
    {
      "inputs": [
        {
          "internalType": "uint256",
          "name": "tokenId",
          "type": "uint256"
        }
      ],
      "name": "markAsRedeemed",
      "outputs": [],
      "stateMutability": "nonpayable",
      "type": "function"
    },
    {
      "inputs": [
        {
          "internalType": "uint256",
          "name": "tokenId",
          "type": "uint256"
        }
      ],
      "name": "markRewardClaimed",
      "outputs": [],
      "stateMutability": "nonpayable",
      "type": "function"
    },
    {
      "inputs": [
        {
          "internalType": "address",
          "name": "to",
          "type": "address"
        },
        {
          "internalType": "uint256",
          "name": "roundId",
          "type": "uint256"
        },
        {
          "internalType": "uint256",
          "name": "tokenPrice",
          "type": "uint256"
        },
        {
          "internalType": "uint256",
          "name": "rewardPercentage",
          "type": "uint256"
        },
        {
          "internalType": "uint256",
          "name": "totalTokenOpenInvestment",
          "type": "uint256"
        },
        {
          "internalType": "uint256",
          "name": "closeDateInvestment",
          "type": "uint256"
        },
        {
          "internalType": "uint256",
          "name": "endDateInvestment",
          "type": "uint256"
        }
      ],
      "name": "mintNFT",
      "outputs": [
        {
          "internalType": "uint256",
          "name": "",
          "type": "uint256"
        }
      ],
      "stateMutability": "nonpayable",
      "type": "function"
    },
    {
      "inputs": [],
      "name": "name",
      "outputs": [
        {
          "internalType": "string",
          "name": "",
          "type": "string"
        }
      ],
      "stateMutability": "view",
      "type": "function"
    },
    {
      "inputs": [],
      "name": "owner",
      "outputs": [
        {
          "internalType": "address",
          "name": "",
          "type": "address"
        }
      ],
      "stateMutability": "view",
      "type": "function"
    },
    {
      "inputs": [
        {
          "internalType": "uint256",
          "name": "tokenId",
          "type": "uint256"
        }
      ],
      "name": "ownerOf",
      "outputs": [
        {
          "internalType": "address",
          "name": "",
          "type": "address"
        }
      ],
      "stateMutability": "view",
      "type": "function"
    },
    {
      "inputs": [],
      "name": "pause",
      "outputs": [],
      "stateMutability": "nonpayable",
      "type": "function"
    },
    {
      "inputs": [],
      "name": "paused",
      "outputs": [
        {
          "internalType": "bool",
          "name": "",
          "type": "bool"
        }
      ],
      "stateMutability": "view",
      "type": "function"
    },
    {
      "inputs": [],
      "name": "renounceOwnership",
      "outputs": [],
      "stateMutability": "nonpayable",
      "type": "function"
    },
    {
      "inputs": [
        {
          "internalType": "bytes32",
          "name": "role",
          "type": "bytes32"
        },
        {
          "internalType": "address",
          "name": "callerConfirmation",
          "type": "address"
        }
      ],
      "name": "renounceRole",
      "outputs": [],
      "stateMutability": "nonpayable",
      "type": "function"
    },
    {
      "inputs": [
        {
          "internalType": "bytes32",
          "name": "role",
          "type": "bytes32"
        },
        {
          "internalType": "address",
          "name": "account",
          "type": "address"
        }
      ],
      "name": "revokeRole",
      "outputs": [],
      "stateMutability": "nonpayable",
      "type": "function"
    },
    {
      "inputs": [
        {
          "internalType": "address",
          "name": "from",
          "type": "address"
        },
        {
          "internalType": "address",
          "name": "to",
          "type": "address"
        },
        {
          "internalType": "uint256",
          "name": "tokenId",
          "type": "uint256"
        }
      ],
      "name": "safeTransferFrom",
      "outputs": [],
      "stateMutability": "nonpayable",
      "type": "function"
    },
    {
      "inputs": [
        {
          "internalType": "address",
          "name": "from",
          "type": "address"
        },
        {
          "internalType": "address",
          "name": "to",
          "type": "address"
        },
        {
          "internalType": "uint256",
          "name": "tokenId",
          "type": "uint256"
        },
        {
          "internalType": "bytes",
          "name": "data",
          "type": "bytes"
        }
      ],
      "name": "safeTransferFrom",
      "outputs": [],
      "stateMutability": "nonpayable",
      "type": "function"
    },
    {
      "inputs": [
        {
          "internalType": "address",
          "name": "operator",
          "type": "address"
        },
        {
          "internalType": "bool",
          "name": "approved",
          "type": "bool"
        }
      ],
      "name": "setApprovalForAll",
      "outputs": [],
      "stateMutability": "nonpayable",
      "type": "function"
    },
    {
      "inputs": [
        {
          "internalType": "string",
          "name": "newBaseURI",
          "type": "string"
        }
      ],
      "name": "setBaseURI",
      "outputs": [],
      "stateMutability": "nonpayable",
      "type": "function"
    },
    {
      "inputs": [
        {
          "internalType": "uint256",
          "name": "tokenId",
          "type": "uint256"
        },
        {
          "internalType": "string",
          "name": "newTokenURI",
          "type": "string"
        }
      ],
      "name": "setTokenURI",
      "outputs": [],
      "stateMutability": "nonpayable",
      "type": "function"
    },
    {
      "inputs": [
        {
          "internalType": "uint256",
          "name": "tokenId",
          "type": "uint256"
        },
        {
          "internalType": "string",
          "name": "metadata",
          "type": "string"
        }
      ],
      "name": "stampMetadata",
      "outputs": [],
      "stateMutability": "nonpayable",
      "type": "function"
    },
    {
      "inputs": [
        {
          "internalType": "bytes4",
          "name": "interfaceId",
          "type": "bytes4"
        }
      ],
      "name": "supportsInterface",
      "outputs": [
        {
          "internalType": "bool",
          "name": "",
          "type": "bool"
        }
      ],
      "stateMutability": "view",
      "type": "function"
    },
    {
      "inputs": [],
      "name": "symbol",
      "outputs": [
        {
          "internalType": "string",
          "name": "",
          "type": "string"
        }
      ],
      "stateMutability": "view",
      "type": "function"
    },
    {
      "inputs": [
        {
          "internalType": "uint256",
          "name": "",
          "type": "uint256"
        }
      ],
      "name": "tokenExists",
      "outputs": [
        {
          "internalType": "bool",
          "name": "",
          "type": "bool"
        }
      ],
      "stateMutability": "view",
      "type": "function"
    },
    {
      "inputs": [
        {
          "internalType": "uint256",
          "name": "tokenId",
          "type": "uint256"
        }
      ],
      "name": "tokenURI",
      "outputs": [
        {
          "internalType": "string",
          "name": "",
          "type": "string"
        }
      ],
      "stateMutability": "view",
      "type": "function"
    },
    {
      "inputs": [
        {
          "internalType": "address",
          "name": "from",
          "type": "address"
        },
        {
          "internalType": "address",
          "name": "to",
          "type": "address"
        },
        {
          "internalType": "uint256",
          "name": "tokenId",
          "type": "uint256"
        }
      ],
      "name": "transferFrom",
      "outputs": [],
      "stateMutability": "nonpayable",
      "type": "function"
    },
    {
      "inputs": [
        {
          "internalType": "address",
          "name": "newOwner",
          "type": "address"
        }
      ],
      "name": "transferOwner",
      "outputs": [],
      "stateMutability": "nonpayable",
      "type": "function"
    },
    {
      "inputs": [
        {
          "internalType": "address",
          "name": "newOwner",
          "type": "address"
        }
      ],
      "name": "transferOwnership",
      "outputs": [],
      "stateMutability": "nonpayable",
      "type": "function"
    },
    {
      "inputs": [
        {
          "internalType": "uint256",
          "name": "tokenId",
          "type": "uint256"
        }
      ],
      "name": "unlockTransfer",
      "outputs": [],
      "stateMutability": "nonpayable",
      "type": "function"
    },
    {
      "inputs": [],
      "name": "unpause",
      "outputs": [],
      "stateMutability": "nonpayable",
      "type": "function"
    },
    {
      "inputs": [
        {
          "internalType": "address",
          "name": "account",
          "type": "address"
        },
        {
          "internalType": "bool",
          "name": "grant",
          "type": "bool"
        }
      ],
      "name": "updateExecutorRole",
      "outputs": [],
      "stateMutability": "nonpayable",
      "type": "function"
    }
  ],
  "bytecode": "0x60806040523461039757604080519081016001600160401b038111828210176102cc5760409081526011825270111688125b9d995cdd1b595b9d08139195607a1b602083015280519081016001600160401b038111828210176102cc576040526005815264111693919560da1b602082015281516001600160401b0381116102cc5761008b5f5461039b565b601f811161034a575b50602092601f82116001146102eb57928192935f926102e0575b50508160011b915f199060031b1c1916175f555b80516001600160401b0381116102cc576100dd60015461039b565b601f8111610273575b50602091601f8211600114610213579181925f92610208575b50508160011b915f199060031b1c1916176001555b33156101f55760068054336001600160a01b0319821681179092556001600160a01b03167f8be0079c531659141344cd1fd0a4f28419497f9722a3daafe3b4186f6b6457e05f80a3610165336103e9565b5061016f3361045f565b5061017b600a5461039b565b601f81116101b7575b7f68747470733a2f2f6170692e647a6e66742e636f6d2f6d657461646174612f3e600a556040516138b190816104f38239f35b600a5f526101ef90601f0160051c7fc65a7bb8d6351c1cf70c95a316cc6a92839c986682d98bc35f958f4883f9d2a8908101906103d3565b5f610184565b631e4fbdf760e01b5f525f60045260245ffd5b015190505f806100ff565b601f1982169260015f52805f20915f5b85811061025b57508360019510610243575b505050811b01600155610114565b01515f1960f88460031b161c191690555f8080610235565b91926020600181928685015181550194019201610223565b60015f526102bc907fb10e2d527612073b26eecdfd717e6a320cf44b4afac2b0732d9fcbe2b7fa0cf6601f840160051c810191602085106102c2575b601f0160051c01906103d3565b5f6100e6565b90915081906102af565b634e487b7160e01b5f52604160045260245ffd5b015190505f806100ae565b601f198216935f8052805f20915f5b868110610332575083600195961061031a575b505050811b015f556100c2565b01515f1960f88460031b161c191690555f808061030d565b919260206001819286850151815501940192016102fa565b5f8052610391907f290decd9548b62a8d60345a988386fc84ba6bc95484008f6362f93160ef3e563601f840160051c810191602085106102c257601f0160051c01906103d3565b5f610094565b5f80fd5b90600182811c921680156103c9575b60208310146103b557565b634e487b7160e01b5f52602260045260245ffd5b91607f16916103aa565b8181106103de575050565b5f81556001016103d3565b6001600160a01b0381165f9081525f516020613de45f395f51905f52602052604090205460ff1661045a576001600160a01b03165f8181525f516020613de45f395f51905f5260205260408120805460ff191660011790553391905f516020613da45f395f51905f528180a4600190565b505f90565b6001600160a01b0381165f9081525f516020613dc45f395f51905f52602052604090205460ff1661045a576001600160a01b03165f8181525f516020613dc45f395f51905f5260205260408120805460ff191660011790553391907fd8aa0f3194971a2a116679f7c2090f6939c8d4e01a2a8d7e41d55e5351469e63905f516020613da45f395f51905f529080a460019056fe6080806040526004361015610012575f80fd5b5f3560e01c908162923f9e1461245e5750806301ffc9a7146123d757806306fdde031461233557806307bd02651461230e578063081812fc146122f0578063095ea7b314612206578063141f878a1461203f578063162094c414611eb557806318d8e2a514611dad57806319f477d914611d365780631d3653e314611c1b57806323b872dd14611c04578063248a9ca314611bd1578063293af81a14611ad55780632f2ff15d14611a97578063364b610114611a4f57806336568abe14611a0b5780633f4ba83a146119a557806342842e0e1461197657806342966c68146117e15780634fb2e45d146117c057806355f804b3146115fc5780635a7f04d5146114d45780635c975abb146114b25780636352211e146114825780636c0360eb1461146757806370a0823114611416578063715018a6146113bb5780638456cb59146113625780638da5cb5b1461133a5780638e25e2e61461123d57806391d14854146111f457806395d89b411461112a5780639913627f146110dd578063a217fddf146110c3578063a22cb4651461103b578063acb7ebfa14610f66578063b88d4fde14610ed3578063badd5c4d14610de3578063bed62f3514610cf0578063bf725a3c146108b7578063c2bf0fa11461086f578063c87b56dd14610838578063d547741f146107f5578063debfda30146107a7578063e01beb9d14610632578063e985e9c5146105db578063f2fde38b1461058d5763f4fb815914610236575f80fd5b346105895760e03660031901126105895761024f6124ad565b335f9081525f51602061383c5f395f51905f5260205260409020546084359160a4359160c435906102829060ff16612a05565b61028a613511565b61029e6001600160a01b0383161515612cf2565b6102ab6044351515612d3e565b60643515158061057b575b6102bf90612d8a565b6102ca841515612dd6565b6102d5428411612e2e565b6102e0838211612e7a565b600954926102ed84612ed0565b600955604051946102fd866124d9565b84865260243560208701526044356040870152606435606087015260808601524260a086015260c085015260e084015260018060a01b0381166101008401525f6101208401525f6101408401525f61016084015260209260405161036185826124f5565b5f80825261018083810192909252848152600c86526040908190208351815560208401516001820155908301516002820155606083015160038201556080830151600482015560a080840151600583015560c0840151600683015560e0840151600783015561010084015160088301805461012087015161014088015161016089015190151560a81b60ff60a81b1691151590951b60ff60a01b166001600160a01b039094166001600160b81b031990921691909117929092179190911791151560b01b60ff60b01b169190911790556009019101518051906001600160401b0382116105675761045c8261045685546126fa565b856129a6565b8590601f83116001146105045761048a92915f91836104f9575b50508160011b915f199060031b1c19161790565b90555b815f52600d835260405f20600160ff198254161790556104ad828261352c565b60408051604435815260643585820152602435926001600160a01b03169184917f19cc59039f8eb7ba436b5b291277e03e5209d6d8e48c1bdba4716897fc614b999190a4604051908152f35b015190505f80610476565b90601f19831691845f52875f20925f5b89828210610551575050908460019594939210610539575b505050811b01905561048d565b01515f1960f88460031b161c191690555f808061052c565b6001859682939686015181550195019301610514565b634e487b7160e01b5f52604160045260245ffd5b5061271060643511156102b6565b5f80fd5b34610589576020366003190112610589576105a66124ad565b6105ae61336c565b6001600160a01b038116156105c8576105c690613393565b005b631e4fbdf760e01b5f525f60045260245ffd5b34610589576040366003190112610589576105f46124ad565b6105fc6124c3565b9060018060a01b03165f52600560205260405f209060018060a01b03165f52602052602060ff60405f2054166040519015158152f35b34610589576106403661265e565b335f9081525f51602061383c5f395f51905f52602052604090205491929161066a9060ff16612a05565b815f52600d60205261068260ff60405f20541661294d565b815f52600c602052600960405f2001926001600160401b038211610567576106b4826106ae86546126fa565b866129a6565b5f93601f83116001146107255761070383807f0aa07a7d01a8e97dec64df7f721c779f94884dfd3f5a0c61bfc2dd469032661d96975f9161071a575b508160011b915f199060031b1c19161790565b90555b610715604051928392836129de565b0390a2005b9050840135886106f0565b601f19831694815f5260205f20905f5b87811061078f5750847f0aa07a7d01a8e97dec64df7f721c779f94884dfd3f5a0c61bfc2dd469032661d969710610776575b5050600183811b019055610706565b8301355f19600386901b60f8161c191690558580610767565b90916020600181928588013581550193019101610735565b34610589576020366003190112610589576107c06124ad565b6001600160a01b03165f9081525f51602061383c5f395f51905f52602090815260409182902054915160ff9092161515825290f35b34610589576040366003190112610589576105c66004356108146124c3565b9061083361082e825f526007602052600160405f20015490565b6130f9565b6132e8565b346105895760203660031901126105895761086b610857600435612ede565b604051918291602083526020830190612489565b0390f35b3461058957602036600319011261058957600435805f52600d60205261089b60ff60405f20541661294d565b5f52600c6020526020600660405f200154421115604051908152f35b3461058957610100366003190112610589576108d16124ad565b335f9081525f51602061383c5f395f51905f5260205260409020546108f89060ff16612a05565b610900613511565b6109146001600160a01b0382161515612cf2565b602435151580610ce3575b15610ca6576109316064351515612d3e565b608435151580610c98575b61094590612d8a565b61095260a4351515612dd6565b61095f4260c43511612e2e565b61096e60c43560e43511612e7a565b610979602435612516565b61098660405191826124f5565b6024358152610996602435612516565b601f19013660208301376020915f5b60243581106109f257828460405191818392830181845282518091526020604085019301915f5b8281106109db57505050500390f35b8351855286955093810193928101926001016109cc565b6009546109fe81612ed0565b60095580610a0c8386612925565b52604051610a19816124d9565b818152604435868201526064356040820152608435606082015260a43560808201524260a082015260c43560c082015260e43560e082015260018060a01b0384166101008201525f6101208201525f6101408201525f610160820152604051610a8287826124f5565b5f80825261018083810192909252838152600c885260409081902083518155888401516001820155908301516002820155606083015160038201556080830151600482015560a080840151600583015560c0840151600683015560e0840151600783015561010084015160088301805461012087015161014088015161016089015190151560a81b60ff60a81b1691151590951b60ff60a01b166001600160a01b039094166001600160b81b031990921691909117929092179190911791151560b01b60ff60b01b169190911790559101518051906001600160401b03821161056757610b7f82610b7660098601546126fa565b600986016129a6565b8790601f8311600114610c285782600196959493600993610bb4935f92610c1d5750508160011b915f199060031b1c19161790565b9101555b805f52600d865260405f208360ff19825416179055610bd7818561352c565b604051606435815260843587820152604435917f19cc59039f8eb7ba436b5b291277e03e5209d6d8e48c1bdba4716897fc614b996040868060a01b03881693a4016109a5565b015190508b80610476565b90600984015f52885f20915f5b8a601f1986168210610c825750509260099260019796959492889383601f19811610610c6a575b505050811b01910155610bb8565b01515f1960f88460031b161c191690558a8080610c5c565b6001849582939585015181550194019201610c35565b50612710608435111561093c565b60405162461bcd60e51b8152602060048201526015602482015274496e76616c696420636f756e742028312d3130302960581b6044820152606490fd5b506064602435111561091f565b3461058957602036600319011261058957335f9081525f51602061383c5f395f51905f52602052604090205460043590610d2c9060ff16612a05565b805f52600d602052610d4460ff60405f20541661294d565b805f52600c60205260ff600860405f20015460a01c1615610da557805f52600c602052600860405f200160ff60b01b1981541690557f90e929fbd463dd0bab90901d998cd0d0908551c0e028b559f240ef01b23058be60206040515f8152a2005b60405162461bcd60e51b8152602060048201526016602482015275135d5cdd081899481c995919595b595908199a5c9cdd60521b6044820152606490fd5b346105895760207f9440a95c3c13d1dc9ebcfdcf7b9963a680dd7ca9d62246a91a9be07e6de1f86f610e14366126cb565b9290610e1e61336c565b8315610e84575f51602061385c5f395f51905f525f5260076020527f6903d7e42e9982a5c1392687e480cd87de20d7af7ae6e45e5afebea960bf9ab954610e64906130f9565b610e6d81613133565b505b60405193151584526001600160a01b031692a2005b5f51602061385c5f395f51905f525f5260076020527f6903d7e42e9982a5c1392687e480cd87de20d7af7ae6e45e5afebea960bf9ab954610ec4906130f9565b610ecd81613257565b50610e6f565b3461058957608036600319011261058957610eec6124ad565b610ef46124c3565b90604435606435926001600160401b038411610589573660238501121561058957836004013592610f2484612887565b93610f3260405195866124f5565b8085523660248288010111610589576020815f9260246105c699018389013786010152610f60838383612a51565b336133db565b34610589576020366003190112610589576004355f52600c60205260405f20805461086b60018301549260ff600282015491600381015460048201546005830154600684015491600785015493610fc46009600888015497016127e9565b976040519b8c9b8c5260208c015260408b015260608a0152608089015260a088015260c087015260e086015260018060a01b038116610100860152818160a01c161515610120860152818160a81c16151561014086015260b01c1615156101608401526101a06101808401526101a0830190612489565b3461058957611049366126cb565b6001600160a01b039091169081156110b057335f52600560205260405f20825f5260205260405f209015159060ff1981541660ff83161790556040519081527f17307eab39ab6107e8899845ad3d59bd9653f200f220920489ca2b5937696c3160203392a3005b50630b61174360e31b5f5260045260245ffd5b34610589575f3660031901126105895760206040515f8152f35b3461058957602036600319011261058957600435805f52600d60205261110960ff60405f20541661294d565b5f52600c602052602060ff600860405f20015460b01c166040519015158152f35b34610589575f366003190112610589576040515f60015461114a816126fa565b80845290600181169081156111d05750600114611172575b61086b83610857818503826124f5565b60015f9081527fb10e2d527612073b26eecdfd717e6a320cf44b4afac2b0732d9fcbe2b7fa0cf6939250905b8082106111b657509091508101602001610857611162565b91926001816020925483858801015201910190929161119e565b60ff191660208086019190915291151560051b840190910191506108579050611162565b346105895760403660031901126105895761120d6124c3565b6004355f52600760205260405f209060018060a01b03165f52602052602060ff60405f2054166040519015158152f35b34610589576020366003190112610589576004356112596128c6565b50805f52600d60205261127260ff60405f20541661294d565b5f52600c60205261086b60405f20611320600960405192611292846124d9565b8054845260018101546020850152600281015460408501526003810154606085015260048101546080850152600581015460a0850152600681015460c0850152600781015460e085015260ff600882015460018060a01b038116610100870152818160a01c161515610120870152818160a81c16151561014087015260b01c161515610160850152016127e9565b61018082015260405191829160208352602083019061258a565b34610589575f366003190112610589576006546040516001600160a01b039091168152602090f35b34610589575f3660031901126105895761137a61336c565b611382613511565b600160ff1960085416176008557f62e78cea01bee320cd4e420270b5ea74000d11b0c9f74754ebdbfc544b05a2586020604051338152a1005b34610589575f366003190112610589576113d361336c565b600680546001600160a01b031981169091555f906001600160a01b03167f8be0079c531659141344cd1fd0a4f28419497f9722a3daafe3b4186f6b6457e08280a3005b34610589576020366003190112610589576001600160a01b036114376124ad565b168015611454575f526003602052602060405f2054604051908152f35b6322718ad960e21b5f525f60045260245ffd5b34610589575f3660031901126105895761086b610857612732565b346105895760203660031901126105895760206114a0600435612f8c565b6040516001600160a01b039091168152f35b34610589575f36600319011261058957602060ff600854166040519015158152f35b3461058957602036600319011261058957600435805f52600d60205261150060ff60405f20541661294d565b5f52600c60205260405f20604051611517816124d9565b815481526001820154602082015260028201546040820152600382015460608201526004820154608082015260058201549060a08101918252600683015460c0820152600783015460e08201526101806115b3600960088601549560018060a01b03871661010086015260ff610120860197818160a01c1615158952818160a81c16151561014088015260b01c161515610160860152016127e9565b91015251906301e1338082018092116115e85760209142101590816115de575b506040519015158152f35b90505115826115d3565b634e487b7160e01b5f52601160045260245ffd5b34610589576020366003190112610589576004356001600160401b0381116105895761162c903690600401612631565b61163461336c565b6001600160401b0381116105675761164d600a546126fa565b601f8111611767575b505f91601f82116001146116c7576116a482807f6741b2fc379fad678116fe3d4d4b9a1a184ab53ba36b86ad0fa66340b1ab41ad955f916116bc57508160011b915f199060031b1c19161790565b600a555b6116b7604051928392836129de565b0390a1005b9050830135866106f0565b601f198216600a5f527fc65a7bb8d6351c1cf70c95a316cc6a92839c986682d98bc35f958f4883f9d2a8905f5b81811061174f575093837f6741b2fc379fad678116fe3d4d4b9a1a184ab53ba36b86ad0fa66340b1ab41ad9510611736575b5050600182811b01600a556116a8565b8201355f19600385901b60f8161c191690558380611726565b838601358355602095860195600190930192016116f4565b600a5f526117b0907fc65a7bb8d6351c1cf70c95a316cc6a92839c986682d98bc35f958f4883f9d2a8601f840160051c810191602085106117b6575b601f0160051c0190612990565b82611656565b90915081906117a3565b34610589576020366003190112610589576117d96124ad565b6105a661336c565b3461058957602036600319011261058957600435805f52600d60205261180d60ff60405f20541661294d565b61181681612f8c565b6001600160a01b03163314801561195c575b8015611928575b156118ea5761183d81612f8c565b815f52600d60205260405f2060ff198154169055815f52600c60205261189b600960405f205f81555f60018201555f60028201555f60038201555f60048201555f60058201555f60068201555f60078201555f600882015501612ca4565b815f52600b6020526118af60405f20612ca4565b6118b93383612fc0565b506001600160a01b0316907f8f0a80450bfbfadc6d05658c9dc494e43beb79be53b44adbb146c6d5040f87705f80a3005b60405162461bcd60e51b8152602060048201526016602482015275139bdd081bdddb995c881b9bdc88185c1c1c9bdd995960521b6044820152606490fd5b506001600160a01b0361193a82612f8c565b165f90815260056020908152604080832033845290915290205460ff1661182f565b50336001600160a01b0361196f836128a2565b1614611828565b34610589576105c661198736612691565b90604051926119976020856124f5565b5f8452610f60838383612a51565b34610589575f366003190112610589576119bd61336c565b60085460ff8116156119fc5760ff19166008557f5db9ee0a495bf2e6ff9c91a7834c1ba4fdd244a5e8aa4e537bd38aeae4b073aa6020604051338152a1005b638dfc202b60e01b5f5260045ffd5b3461058957604036600319011261058957611a246124c3565b336001600160a01b03821603611a40576105c6906004356132e8565b63334bd91960e11b5f5260045ffd5b3461058957602036600319011261058957600435805f52600d602052611a7b60ff60405f20541661294d565b5f52600c6020526020600760405f200154421015604051908152f35b34610589576040366003190112610589576105c6600435611ab66124c3565b90611ad061082e825f526007602052600160405f20015490565b6131cb565b34610589576040366003190112610589576004356001600160401b03811161058957611b0590369060040161252d565b611b0d6124c3565b90805191611b33611b1d84612516565b93611b2b60405195866124f5565b808552612516565b602084019290601f19013684376001600160a01b03909116905f5b8151811015611b8957600190836001600160a01b03611b76611b708487612925565b51612f8c565b1614611b828288612925565b5201611b4e565b50505090604051918291602083019060208452518091526040830191905f5b818110611bb6575050500390f35b82511515845285945060209384019390920191600101611ba8565b34610589576020366003190112610589576020611bfc6004355f526007602052600160405f20015490565b604051908152f35b34610589576105c6611c1536612691565b91612a51565b3461058957602036600319011261058957600435805f52600d602052611c4760ff60405f20541661294d565b5f52600c60205260405f20604051611c5e816124d9565b8154815260018201546020820152600282015460408201526003820154606082015260048201546080820152600582015460a08201908152600683015460c0830152600783015460e083015260088301549160018060a01b038316610100820152610180611cfc600961012084019660ff8760a01c161515885260ff610140860197818160a81c161515895260b01c161515610160860152016127e9565b910152519162ed4e0083018093116115e8576020924210159182611d2c575b50816115de57506040519015158152f35b5115915083611d1b565b3461058957602036600319011261058957335f9081525f51602061383c5f395f51905f52602052604090205460043590611d729060ff16612a05565b805f52600d602052611d8a60ff60405f20541661294d565b5f908152600c60205260409020600801805460ff60a01b1916600160a01b179055005b3461058957602036600319011261058957335f9081525f51602061383c5f395f51905f52602052604090205460043590611de99060ff16612a05565b805f52600d602052611e0160ff60405f20541661294d565b805f52600c60205260ff600860405f20015460a81c16611e77575f818152600c60205260409020600801805461ffff60a81b191661010160a81b1790556001600160a01b03611e4f82612f8c565b16907f5dd59f4285b36241394b73f8f7ae03d0290b030a86803cf2562ecf33eeb617bd5f80a3005b60405162461bcd60e51b815260206004820152601660248201527514995dd85c9908185b1c9958591e4818db185a5b595960521b6044820152606490fd5b3461058957611ec33661265e565b6006549192916001600160a01b03163314801561201b575b15611fd757815f52600d602052611ef860ff60405f20541661294d565b815f52600b60205260405f20926001600160401b03821161056757611f21826106ae86546126fa565b5f93601f8311600114611f6f5761070383807f931f495b9a8e5d8e61946ea5d61e021f636cfe213a801f97589c18c152e408bd96975f9161071a57508160011b915f199060031b1c19161790565b601f19831694815f5260205f20905f5b878110611fbf5750847f931f495b9a8e5d8e61946ea5d61e021f636cfe213a801f97589c18c152e408bd969710610776575050600183811b019055610706565b90916020600181928588013581550193019101611f7f565b606460405162461bcd60e51b815260206004820152602060248201527f43616c6c6572206973206e6f74206f776e6572206e6f72206578656375746f726044820152fd5b50335f9081525f51602061383c5f395f51905f52602052604090205460ff16611edb565b34610589576020366003190112610589576004356001600160401b0381116105895761206f90369060040161252d565b80519061207b82612516565b9161208960405193846124f5565b808352612098601f1991612516565b015f5b8181106121ef5750505f5b815181101561218857806120bc60019284612925565b515f52600c60205260405f206121666009604051926120da846124d9565b80548452858101546020850152600281015460408501526003810154606085015260048101546080850152600581015460a0850152600681015460c0850152600781015460e085015260ff6008820154878060a01b038116610100870152818160a01c161515610120870152818160a81c16151561014087015260b01c161515610160850152016127e9565b6101808201526121768286612925565b526121818185612925565b50016120a6565b826040518091602082016020835281518091526040830190602060408260051b8601019301915f905b8282106121c057505050500390f35b919360019193955060206121df8192603f198a8203018652885161258a565b96019201920185949391926121b1565b6020906121fa6128c6565b8282870101520161209b565b346105895760403660031901126105895761221f6124ad565b60243561222b81612f8c565b331515806122dd575b806122b0575b61229d5781906001600160a01b0384811691167f8c5be1e5ebec7d5bd14f71427d1e84f3dd0314c0f7b2291e5b200ac8c7c3b9255f80a45f90815260046020526040902080546001600160a01b0319166001600160a01b03909216919091179055005b63a9fbf51f60e01b5f523360045260245ffd5b506001600160a01b0381165f90815260056020908152604080832033845290915290205460ff161561223a565b506001600160a01b038116331415612234565b346105895760203660031901126105895760206114a06004356128a2565b34610589575f3660031901126105895760206040515f51602061385c5f395f51905f528152f35b34610589575f366003190112610589576040515f5f54612354816126fa565b80845290600181169081156111d0575060011461237b5761086b83610857818503826124f5565b5f8080527f290decd9548b62a8d60345a988386fc84ba6bc95484008f6362f93160ef3e563939250905b8082106123bd57509091508101602001610857611162565b9192600181602092548385880101520191019092916123a5565b346105895760203660031901126105895760043563ffffffff60e01b811680910361058957602090637965db0b60e01b811490811561241b57506040519015158152f35b6380ac58cd60e01b81149150811561244d575b811561243c575b50826115d3565b6301ffc9a760e01b14905082612435565b635b5e139f60e01b8114915061242e565b34610589576020366003190112610589576020906004355f52600d825260ff60405f20541615158152f35b805180835260209291819084018484015e5f828201840152601f01601f1916010190565b600435906001600160a01b038216820361058957565b602435906001600160a01b038216820361058957565b6101a081019081106001600160401b0382111761056757604052565b90601f801991011681019081106001600160401b0382111761056757604052565b6001600160401b0381116105675760051b60200190565b9080601f8301121561058957813561254481612516565b9261255260405194856124f5565b81845260208085019260051b82010192831161058957602001905b82821061257a5750505090565b813581526020918201910161256d565b906101a061018061262e93805184526020810151602085015260408101516040850152606081015160608501526080810151608085015260a081015160a085015260c081015160c085015260e081015160e085015260018060a01b0361010082015116610100850152610120810151151561012085015261014081015115156101408501526101608101511515610160850152015191816101808201520190612489565b90565b9181601f84011215610589578235916001600160401b038311610589576020838186019501011161058957565b9060406003198301126105895760043591602435906001600160401b0382116105895761268d91600401612631565b9091565b6060906003190112610589576004356001600160a01b038116810361058957906024356001600160a01b0381168103610589579060443590565b6040906003190112610589576004356001600160a01b0381168103610589579060243580151581036105895790565b90600182811c92168015612728575b602083101461271457565b634e487b7160e01b5f52602260045260245ffd5b91607f1691612709565b604051905f82600a5491612745836126fa565b80835292600181169081156127ca575060011461276b575b612769925003836124f5565b565b50600a5f90815290917fc65a7bb8d6351c1cf70c95a316cc6a92839c986682d98bc35f958f4883f9d2a85b8183106127ae5750509060206127699282010161275d565b6020919350806001915483858901015201910190918492612796565b6020925061276994915060ff191682840152151560051b82010161275d565b9060405191825f8254926127fc846126fa565b80845293600181169081156128655750600114612821575b50612769925003836124f5565b90505f9291925260205f20905f915b818310612849575050906020612769928201015f612814565b6020919350806001915483858901015201910190918492612830565b90506020925061276994915060ff191682840152151560051b8201015f612814565b6001600160401b03811161056757601f01601f191660200190565b6128ab81612f8c565b505f908152600460205260409020546001600160a01b031690565b604051906128d3826124d9565b6060610180835f81525f60208201525f60408201525f838201525f60808201525f60a08201525f60c08201525f60e08201525f6101008201525f6101208201525f6101408201525f6101608201520152565b80518210156129395760209160051b010190565b634e487b7160e01b5f52603260045260245ffd5b1561295457565b60405162461bcd60e51b8152602060048201526014602482015273151bdad95b88191bd95cc81b9bdd08195e1a5cdd60621b6044820152606490fd5b81811061299b575050565b5f8155600101612990565b9190601f81116129b557505050565b612769925f5260205f20906020601f840160051c830193106117b657601f0160051c0190612990565b90918060409360208452816020850152848401375f828201840152601f01601f1916010190565b15612a0c57565b60405162461bcd60e51b815260206004820152601960248201527f43616c6c6572206973206e6f7420616e206578656375746f72000000000000006044820152606490fd5b6001600160a01b0390911691908215612c915760ff60085416612c4c57813315159384612bee575b5f828152600260205260409020546001600160a01b03169480612b59575b5084612b26575b805f52600360205260405f2060018154019055815f52600260205260405f20816bffffffffffffffffffffffff60a01b825416179055847fddf252ad1be2c89b69c2b068fc378daa952ba7f163c4a11628f55a4df523b3ef5f80a46001600160a01b0316808303612b0e57505050565b6364283d7b60e01b5f5260045260245260445260645ffd5b5f82815260046020526040902080546001600160a01b0319169055845f52600360205260405f205f198154019055612a9e565b90915080612b9d575b15612b6f5782905f612a97565b8284612b8757637e27328960e01b5f5260045260245ffd5b63177e802f60e01b5f523360045260245260445ffd5b503384148015612bcc575b80612b6257505f838152600460205260409020546001600160a01b03163314612b62565b505f84815260056020908152604080832033845290915290205460ff16612ba8565b905f52600c60205260ff600860405f20015460b01c16612c0f578290612a79565b60405162461bcd60e51b8152602060048201526015602482015274151bdad95b881d1c985b9cd9995c881b1bd8dad959605a1b6044820152606490fd5b60405162461bcd60e51b815260206004820152601b60248201527f546f6b656e207472616e73666572207768696c652070617573656400000000006044820152606490fd5b633250574960e11b5f525f60045260245ffd5b612cae81546126fa565b9081612cb8575050565b81601f5f9311600114612cc9575055565b81835260208320612ce591601f0160051c810190600101612990565b8082528160208120915555565b15612cf957565b60405162461bcd60e51b815260206004820152601960248201527f496e76616c696420726563697069656e742061646472657373000000000000006044820152606490fd5b15612d4557565b60405162461bcd60e51b815260206004820152601c60248201527f5072696365206d7573742062652067726561746572207468616e2030000000006044820152606490fd5b15612d9157565b60405162461bcd60e51b815260206004820152601960248201527f496e76616c6964207265776172642070657263656e74616765000000000000006044820152606490fd5b15612ddd57565b60405162461bcd60e51b815260206004820152602360248201527f546f74616c20746f6b656e73206d75737420626520677265617465722074686160448201526206e20360ec1b6064820152608490fd5b15612e3557565b60405162461bcd60e51b815260206004820152601c60248201527f436c6f73652064617465206d75737420626520696e20667574757265000000006044820152606490fd5b15612e8157565b60405162461bcd60e51b815260206004820152602160248201527f456e642064617465206d75737420626520616674657220636c6f7365206461746044820152606560f81b6064820152608490fd5b5f1981146115e85760010190565b805f52600d602052612ef660ff60405f20541661294d565b805f52600b602052612f0a60405f206127e9565b612f12612732565b908051612f8657508051612f36575050604051612f306020826124f5565b5f815290565b600561262e91602080612f498196613776565b6040519684889551918291018487015e8401908282015f8152815193849201905e010164173539b7b760d91b815203601a198101845201826124f5565b91505090565b5f818152600260205260409020546001600160a01b0316908115612fae575090565b637e27328960e01b5f5260045260245ffd5b60ff60085416612c4c575f818152600260205260409020546001600160a01b0390811692168015158061306c575b505081613039575b5f81815260026020526040812080546001600160a01b0319169055827fddf252ad1be2c89b69c2b068fc378daa952ba7f163c4a11628f55a4df523b3ef8280a490565b5f81815260046020526040902080546001600160a01b0319169055815f52600360205260405f205f198154019055612ff6565b806130aa575b1561307d5780612fee565b826130955750637e27328960e01b5f5260045260245ffd5b63177e802f60e01b5f5260045260245260445ffd5b5080831480156130d9575b8061307257505f828152600460205260409020546001600160a01b03168114613072565b50825f52600560205260405f20815f5260205260ff60405f2054166130b5565b5f81815260076020908152604080832033845290915290205460ff161561311d5750565b63e2517d3f60e01b5f523360045260245260445ffd5b6001600160a01b0381165f9081525f51602061383c5f395f51905f52602052604090205460ff166131c6576001600160a01b03165f8181525f51602061383c5f395f51905f5260205260408120805460ff191660011790553391905f51602061385c5f395f51905f52907f2f8788117e7eff1d82e926ec794901d17c78024a50270940304540a733656f0d9080a4600190565b505f90565b5f8181526007602090815260408083206001600160a01b038616845290915290205460ff16613251575f8181526007602090815260408083206001600160a01b0395909516808452949091528120805460ff19166001179055339291907f2f8788117e7eff1d82e926ec794901d17c78024a50270940304540a733656f0d9080a4600190565b50505f90565b6001600160a01b0381165f9081525f51602061383c5f395f51905f52602052604090205460ff16156131c6576001600160a01b03165f8181525f51602061383c5f395f51905f5260205260408120805460ff191690553391905f51602061385c5f395f51905f52907ff6391f5c32d9c69d2a47ea670b442974b53935d1edc7fd64eb21e047a839171b9080a4600190565b5f8181526007602090815260408083206001600160a01b038616845290915290205460ff1615613251575f8181526007602090815260408083206001600160a01b0395909516808452949091528120805460ff19169055339291907ff6391f5c32d9c69d2a47ea670b442974b53935d1edc7fd64eb21e047a839171b9080a4600190565b6006546001600160a01b0316330361338057565b63118cdaa760e01b5f523360045260245ffd5b600680546001600160a01b039283166001600160a01b0319821681179092559091167f8be0079c531659141344cd1fd0a4f28419497f9722a3daafe3b4186f6b6457e05f80a3565b823b6133e9575b5050505050565b604051630a85bd0160e11b81526001600160a01b039182166004820152918116602483015260448201939093526080606482015291169160209082908190613435906084830190612489565b03815f865af15f91816134cc575b5061349857503d15613491573d61345981612887565b9061346760405192836124f5565b81523d5f602083013e5b8051908161348c5782633250574960e11b5f5260045260245ffd5b602001fd5b6060613471565b6001600160e01b03191663757a42ff60e11b016134ba57505f808080806133e2565b633250574960e11b5f5260045260245ffd5b9091506020813d602011613509575b816134e8602093836124f5565b8101031261058957516001600160e01b03198116810361058957905f613443565b3d91506134db565b60ff6008541661351d57565b63d93c066560e01b5f5260045ffd5b906020906040519061353e83836124f5565b5f82526001600160a01b038416938415612c915760ff60085416613731575f8281526002855260409020546001600160a01b03168015159081613700575b865f526003865260405f2060018154019055835f526002865260405f20876bffffffffffffffffffffffff60a01b8254161790558387827fddf252ad1be2c89b69c2b068fc378daa952ba7f163c4a11628f55a4df523b3ef5f80a4506136ed573b6135e8575b50505050565b9161362591819495936040519384928392630a85bd0160e11b84523360048501525f60248501526044840152608060648401526084830190612489565b03815f885af15f91816136ad575b506136885750503d15613680573d9061364b82612887565b9161365960405193846124f5565b82523d5f8284013e5b8151918261367d5783633250574960e11b5f5260045260245ffd5b01fd5b606090613662565b909291506001600160e01b03191663757a42ff60e11b016134ba57505f8080806135e2565b9091508381813d83116136e6575b6136c581836124f5565b8101031261058957516001600160e01b03198116810361058957905f613633565b503d6136bb565b6339e3563760e11b5f525f60045260245ffd5b5f8481526004602052604080822080546001600160a01b031916905582825260038852902080545f1901905561357c565b60405162461bcd60e51b815260048101859052601b60248201527f546f6b656e207472616e73666572207768696c652070617573656400000000006044820152606490fd5b801561381b575f81805b613807575061378e81612887565b9061379c60405192836124f5565b808252601f196137ab82612887565b013660208401375b80928015613800575f1982019182116115e8578193600a820660300192836030116115e8578451111561293957600a9260f81b6001600160f81b0319165f1a908401601f015304916137b3565b5050905090565b90613813600a91612ed0565b910480613780565b5060405161382a6040826124f5565b60018152600360fc1b60208201529056fe6903d7e42e9982a5c1392687e480cd87de20d7af7ae6e45e5afebea960bf9ab8d8aa0f3194971a2a116679f7c2090f6939c8d4e01a2a8d7e41d55e5351469e63a2646970667358221220aa2dbba987412a527d73724041dba0a9c0deb17916c17d34eefe99049257668d64736f6c634300081c00332f8788117e7eff1d82e926ec794901d17c78024a50270940304540a733656f0d6903d7e42e9982a5c1392687e480cd87de20d7af7ae6e45e5afebea960bf9ab86d5257204ebe7d88fd91ae87941cb2dd9d8062b64ae5a2bd2d28ec40b9fbf6df",
  "linkReferences": {},
  "deployedLinkReferences": {},
  "immutableReferences": {},
  "inputSourceName": "project/contracts/DZNFT.sol",
  "buildInfoId": "solc-0_8_28-ce397b9839c3c8cf4623027a64ddc48f05c7fb64"
}