{
  "_format": "hh3-artifact-1",
  "contractName": "FundRaisingClaims",
  "sourceName": "contracts/FundRaisingClaims.sol",
  "abi": [
    {
      "inputs": [
        {
          "internalType": "address",
          "name": "_coreContract",
          "type": "address"
        },
        {
          "internalType": "address",
          "name": "_dzNFT",
          "type": "address"
        },
        {
          "internalType": "address",
          "name": "_usdtToken",
          "type": "address"
        }
      ],
      "stateMutability": "nonpayable",
      "type": "constructor"
    },
    {
      "inputs": [
        {
          "internalType": "address",
          "name": "owner",
          "type": "address"
        }
      ],
      "name": "OwnableInvalidOwner",
      "type": "error"
    },
    {
      "inputs": [
        {
          "internalType": "address",
          "name": "account",
          "type": "address"
        }
      ],
      "name": "OwnableUnauthorizedAccount",
      "type": "error"
    },
    {
      "inputs": [],
      "name": "ReentrancyGuardReentrantCall",
      "type": "error"
    },
    {
      "anonymous": false,
      "inputs": [
        {
          "indexed": true,
          "internalType": "address",
          "name": "previousOwner",
          "type": "address"
        },
        {
          "indexed": true,
          "internalType": "address",
          "name": "newOwner",
          "type": "address"
        }
      ],
      "name": "OwnershipTransferred",
      "type": "event"
    },
    {
      "anonymous": false,
      "inputs": [
        {
          "indexed": true,
          "internalType": "address",
          "name": "investor",
          "type": "address"
        },
        {
          "indexed": true,
          "internalType": "uint256",
          "name": "roundId",
          "type": "uint256"
        },
        {
          "indexed": false,
          "internalType": "uint256",
          "name": "rewardAmount",
          "type": "uint256"
        },
        {
          "indexed": false,
          "internalType": "uint256",
          "name": "claimPhase",
          "type": "uint256"
        }
      ],
      "name": "RewardClaimed",
      "type": "event"
    },
    {
      "inputs": [],
      "name": "FIRST_CLAIM_DAYS",
      "outputs": [
        {
          "internalType": "uint256",
          "name": "",
          "type": "uint256"
        }
      ],
      "stateMutability": "view",
      "type": "function"
    },
    {
      "inputs": [],
      "name": "FULL_CLAIM_DAYS",
      "outputs": [
        {
          "internalType": "uint256",
          "name": "",
          "type": "uint256"
        }
      ],
      "stateMutability": "view",
      "type": "function"
    },
    {
      "inputs": [],
      "name": "MAX_BATCH_CLAIM",
      "outputs": [
        {
          "internalType": "uint256",
          "name": "",
          "type": "uint256"
        }
      ],
      "stateMutability": "view",
      "type": "function"
    },
    {
      "inputs": [
        {
          "internalType": "uint256",
          "name": "roundId",
          "type": "uint256"
        }
      ],
      "name": "claimRewardRound",
      "outputs": [],
      "stateMutability": "nonpayable",
      "type": "function"
    },
    {
      "inputs": [],
      "name": "coreContract",
      "outputs": [
        {
          "internalType": "contract FundRaisingCore",
          "name": "",
          "type": "address"
        }
      ],
      "stateMutability": "view",
      "type": "function"
    },
    {
      "inputs": [],
      "name": "dzNFT",
      "outputs": [
        {
          "internalType": "contract DZNFT",
          "name": "",
          "type": "address"
        }
      ],
      "stateMutability": "view",
      "type": "function"
    },
    {
      "inputs": [
        {
          "internalType": "uint256",
          "name": "roundId",
          "type": "uint256"
        }
      ],
      "name": "getClaimableReward",
      "outputs": [
        {
          "internalType": "uint256",
          "name": "claimableAmount",
          "type": "uint256"
        },
        {
          "internalType": "uint256",
          "name": "claimPhase",
          "type": "uint256"
        }
      ],
      "stateMutability": "view",
      "type": "function"
    },
    {
      "inputs": [],
      "name": "owner",
      "outputs": [
        {
          "internalType": "address",
          "name": "",
          "type": "address"
        }
      ],
      "stateMutability": "view",
      "type": "function"
    },
    {
      "inputs": [],
      "name": "renounceOwnership",
      "outputs": [],
      "stateMutability": "nonpayable",
      "type": "function"
    },
    {
      "inputs": [
        {
          "internalType": "address",
          "name": "newOwner",
          "type": "address"
        }
      ],
      "name": "transferOwnership",
      "outputs": [],
      "stateMutability": "nonpayable",
      "type": "function"
    },
    {
      "inputs": [],
      "name": "usdtToken",
      "outputs": [
        {
          "internalType": "contract IERC20",
          "name": "",
          "type": "address"
        }
      ],
      "stateMutability": "view",
      "type": "function"
    }
  ],
  "bytecode": "0x60e03461021957601f61120538819003918201601f19168301916001600160401b0383118484101761021d578084926060946040528339810103126102195761004781610231565b90610060604061005960208401610231565b9201610231565b903315610206575f8054336001600160a01b0319821681178355604051959290916001600160a01b0316907f8be0079c531659141344cd1fd0a4f28419497f9722a3daafe3b4186f6b6457e09080a3600180556001600160a01b03169283156101c457506001600160a01b031690811561017f576001600160a01b031691821561013a5760805260a05260c052604051610fbf908161024682396080518181816101240152610344015260a051818181610168015281816102bf01528181610a9d0152610cc6015260c0518181816101c901526106b00152f35b60405162461bcd60e51b815260206004820152601460248201527f496e76616c6964205553445420616464726573730000000000000000000000006044820152606490fd5b60405162461bcd60e51b815260206004820152601560248201527f496e76616c696420445a4e4654206164647265737300000000000000000000006044820152606490fd5b62461bcd60e51b815260206004820152601d60248201527f496e76616c696420636f726520636f6e747261637420616464726573730000006044820152606490fd5b631e4fbdf760e01b5f525f60045260245ffd5b5f80fd5b634e487b7160e01b5f52604160045260245ffd5b51906001600160a01b03821682036102195756fe6080806040526004361015610012575f80fd5b5f3560e01c9081631144e79e1461097e5750806335b72d3014610960578063676045511461028d578063715018a6146102495780638c25be3d1461021f5780638da5cb5b146101f8578063a98ad46c146101b4578063ba8713c214610197578063bf32eb0114610153578063e80db5db1461010f5763f2fde38b14610095575f80fd5b3461010b57602036600319011261010b576004356001600160a01b0381169081900361010b576100c3610f43565b80156100f8575f80546001600160a01b03198116831782556001600160a01b0316905f516020610f6a5f395f51905f529080a3005b631e4fbdf760e01b5f525f60045260245ffd5b5f80fd5b3461010b575f36600319011261010b576040517f00000000000000000000000000000000000000000000000000000000000000006001600160a01b03168152602090f35b3461010b575f36600319011261010b576040517f00000000000000000000000000000000000000000000000000000000000000006001600160a01b03168152602090f35b3461010b575f36600319011261010b57602060405162ed4e008152f35b3461010b575f36600319011261010b576040517f00000000000000000000000000000000000000000000000000000000000000006001600160a01b03168152602090f35b3461010b575f36600319011261010b575f546040516001600160a01b039091168152602090f35b3461010b57602036600319011261010b57604061023d600435610a79565b82519182526020820152f35b3461010b575f36600319011261010b57610261610f43565b5f80546001600160a01b0319811682556001600160a01b03165f516020610f6a5f395f51905f528280a3005b3461010b57602036600319011261010b57600435600260015414610951576002600155604051631683a8f560e21b81527f00000000000000000000000000000000000000000000000000000000000000006001600160a01b0316905f81806102f9863360048401610a51565b0381855afa908115610552575f9161092f575b508051156108f25760328151116108ad5761032681610cc1565b939080156108735760405163b175b32f60e01b8152600481018390527f00000000000000000000000000000000000000000000000000000000000000006001600160a01b031695906020816024818a5afa80156105525783915f9161083e575b50106107f9578351156107b457909391945f955b845187101561064d576103ad8786610b0b565b519560018801808911610639575b865181101561042e57876103cf8289610b0b565b51146103dd576001016103bb565b60405162461bcd60e51b815260206004820152602360248201527f4475706c696361746520746f6b656e20494420696e2070726f6365737320617260448201526272617960e81b6064820152608490fd5b50929196959093956040516331a9108f60e11b81528260048201526020816024818b5afa908115610552575f91610600575b50336001600160a01b039091160361057857604051634712f17360e11b8152600481018390525f816024818b5afa908115610552575f916105de575b506101208101516105d45760c0810151804211156105c9576104be9042610ca1565b62ed4e0081106105c9576301e133801161056d5750863b1561010b576040516319f477d960e01b8152600481018390525f81602481838c5af180156105525761055d575b50863b1561010b576040519163bed62f3560e01b835260048301525f82602481838b5af191821561055257600192610542575b505b01959091949261039a565b5f61054c91610997565b88610535565b6040513d5f823e3d90fd5b5f61056791610997565b88610502565b610140015115610581575b60019150610537565b863b1561010b57604051916318d8e2a560e01b835260048301525f82602481838b5af1918215610552576001926105b9575b50610578565b5f6105c391610997565b886105b3565b505060019150610537565b5060019150610537565b6105fa91503d805f833e6105f28183610997565b810190610b54565b8961049c565b90506020813d8211610631575b8161061a60209383610997565b8101031261010b5761062b90610b40565b89610460565b3d915061060d565b634e487b7160e01b5f52601160045260245ffd5b918591803b1561010b5760405163d5b52b9560e01b81528460048201528360248201525f8160448183865af18015610552576107a4575b506040516323b872dd60e01b81526004810191909152336024820152604481018390526020816064815f7f00000000000000000000000000000000000000000000000000000000000000006001600160a01b03165af1908115610552575f9161076a575b50156107255760405191825260208201527f812be816db82c66cd18ca8457005cd84689642d8ac4d38599cc6af444a2dc72a60403392a360018055005b60405162461bcd60e51b815260206004820152601e60248201527f55534454207472616e736665722066726f6d20636f7265206661696c656400006044820152606490fd5b90506020813d60201161079c575b8161078560209383610997565b8101031261010b5761079690610a6c565b846106e8565b3d9150610778565b5f6107ae91610997565b84610684565b60405162461bcd60e51b815260206004820152601f60248201527f546f6b656e204944732061727261792063616e6e6f7420626520656d707479006044820152606490fd5b60405162461bcd60e51b815260206004820152601e60248201527f496e73756666696369656e7420726f756e642072657761726420706f6f6c00006044820152606490fd5b9150506020813d60201161086b575b8161085a60209383610997565b8101031261010b5782905188610386565b3d915061084d565b60405162461bcd60e51b81526020600482015260126024820152714e6f20616d6f756e7420746f20636c61696d60701b6044820152606490fd5b60405162461bcd60e51b815260206004820152601e60248201527f546f6f206d616e79204e46547320746f20636c61696d206174206f6e636500006044820152606490fd5b60405162461bcd60e51b8152602060048201526015602482015274139bc81391951cc81a5b881d1a1a5cc81c9bdd5b99605a1b6044820152606490fd5b61094b91503d805f833e6109438183610997565b8101906109ce565b8361030c565b633ee5aeb560e01b5f5260045ffd5b3461010b575f36600319011261010b5760206040516301e133808152f35b3461010b575f36600319011261010b5780603260209252f35b601f909101601f19168101906001600160401b038211908210176109ba57604052565b634e487b7160e01b5f52604160045260245ffd5b60208183031261010b578051906001600160401b03821161010b57019080601f8301121561010b578151916001600160401b0383116109ba578260051b9060405193610a1d6020840186610997565b845260208085019282010192831161010b57602001905b828210610a415750505090565b8151815260209182019101610a34565b6001600160a01b039091168152602081019190915260400190565b5190811515820361010b57565b5f610a999160405180938192631683a8f560e21b83523360048401610a51565b03817f00000000000000000000000000000000000000000000000000000000000000006001600160a01b03165afa908115610552575f91610af1575b50805115610aea57610ae690610cc1565b9091565b505f905f90565b610b0591503d805f833e6109438183610997565b5f610ad5565b8051821015610b1f5760209160051b010190565b634e487b7160e01b5f52603260045260245ffd5b9190820180921161063957565b51906001600160a01b038216820361010b57565b60208183031261010b578051906001600160401b03821161010b5701906101a08282031261010b57604051916101a083016001600160401b038111848210176109ba57604052805183526020810151602084015260408101516040840152606081015160608401526080810151608084015260a081015160a084015260c081015160c084015260e081015160e0840152610bf16101008201610b40565b610100840152610c046101208201610a6c565b610120840152610c176101408201610a6c565b610140840152610c2a6101608201610a6c565b610160840152610180810151906001600160401b03821161010b570181601f8201121561010b578051906001600160401b0382116109ba5760405192610c7a601f8401601f191660200185610997565b8284526020838301011161010b57815f9260208093018386015e8301015261018082015290565b9190820391821161063957565b8181029291811591840414171561063957565b5f91907f00000000000000000000000000000000000000000000000000000000000000006001600160a01b031683805b8351821015610f3c57610d048285610b0b565b519460018301808411610639575b8551811015610d835786610d268288610b0b565b5114610d3457600101610d12565b60405162461bcd60e51b815260206004820152602160248201527f4475706c696361746520746f6b656e20494420696e20636c61696d20617272616044820152607960f81b6064820152608490fd5b50959091946040516331a9108f60e11b8152816004820152602081602481885afa908115610552575f91610f03575b50336001600160a01b0390911603610edd5760405190634712f17360e11b825260048201525f81602481875afa908115610552575f91610ee9575b50610120810151610edd5760c081015180421115610ed057610e0f9042610ca1565b9062ed4e008210610ed057610e2d6040820151608083015190610cae565b936301e133806064610e43606085015188610cae565b049310610e8f5750610140015115610e7c57610e6c92610e669160011c90610b33565b90610b33565b935b60016002945b019093610cf1565b610e6690610e8993610b33565b93610e6e565b9692979350610140015115610ea8575b50600190610e74565b95610eb7919660011c90610b33565b9460018510610ec7575b5f610e9f565b60019450610ec1565b5050949093600190610e74565b50949093600190610e74565b610efd91503d805f833e6105f28183610997565b5f610ded565b90506020813d8211610f34575b81610f1d60209383610997565b8101031261010b57610f2e90610b40565b5f610db2565b3d9150610f10565b9392505050565b5f546001600160a01b03163303610f5657565b63118cdaa760e01b5f523360045260245ffdfe8be0079c531659141344cd1fd0a4f28419497f9722a3daafe3b4186f6b6457e0a2646970667358221220d02964f96252ade787cacbfa0215514d84fbd2dfa88a23db030a91bac7fd6cb664736f6c634300081c0033",
  "linkReferences": {},
  "deployedLinkReferences": {},
  "immutableReferences": {
    "9578": [
      {
        "length": 32,
        "start": 292
      },
      {
        "length": 32,
        "start": 836
      }
    ],
    "9581": [
      {
        "length": 32,
        "start": 360
      },
      {
        "length": 32,
        "start": 703
      },
      {
        "length": 32,
        "start": 2717
      },
      {
        "length": 32,
        "start": 3270
      }
    ],
    "9584": [
      {
        "length": 32,
        "start": 457
      },
      {
        "length": 32,
        "start": 1712
      }
    ]
  },
  "inputSourceName": "project/contracts/FundRaisingClaims.sol",
  "buildInfoId": "solc-0_8_28-9a649431ad6b2c8a6d73d84c6fe96805cbda0bf2"
}