{
  "_format": "hh3-artifact-1",
  "contractName": "DZNFT",
  "sourceName": "contracts/DZNFT.sol",
  "abi": [
    {
      "inputs": [],
      "stateMutability": "nonpayable",
      "type": "constructor"
    },
    {
      "inputs": [],
      "name": "AccessControlBadConfirmation",
      "type": "error"
    },
    {
      "inputs": [
        {
          "internalType": "address",
          "name": "account",
          "type": "address"
        },
        {
          "internalType": "bytes32",
          "name": "neededRole",
          "type": "bytes32"
        }
      ],
      "name": "AccessControlUnauthorizedAccount",
      "type": "error"
    },
    {
      "inputs": [],
      "name": "ERC721EnumerableForbiddenBatchMint",
      "type": "error"
    },
    {
      "inputs": [
        {
          "internalType": "address",
          "name": "sender",
          "type": "address"
        },
        {
          "internalType": "uint256",
          "name": "tokenId",
          "type": "uint256"
        },
        {
          "internalType": "address",
          "name": "owner",
          "type": "address"
        }
      ],
      "name": "ERC721IncorrectOwner",
      "type": "error"
    },
    {
      "inputs": [
        {
          "internalType": "address",
          "name": "operator",
          "type": "address"
        },
        {
          "internalType": "uint256",
          "name": "tokenId",
          "type": "uint256"
        }
      ],
      "name": "ERC721InsufficientApproval",
      "type": "error"
    },
    {
      "inputs": [
        {
          "internalType": "address",
          "name": "approver",
          "type": "address"
        }
      ],
      "name": "ERC721InvalidApprover",
      "type": "error"
    },
    {
      "inputs": [
        {
          "internalType": "address",
          "name": "operator",
          "type": "address"
        }
      ],
      "name": "ERC721InvalidOperator",
      "type": "error"
    },
    {
      "inputs": [
        {
          "internalType": "address",
          "name": "owner",
          "type": "address"
        }
      ],
      "name": "ERC721InvalidOwner",
      "type": "error"
    },
    {
      "inputs": [
        {
          "internalType": "address",
          "name": "receiver",
          "type": "address"
        }
      ],
      "name": "ERC721InvalidReceiver",
      "type": "error"
    },
    {
      "inputs": [
        {
          "internalType": "address",
          "name": "sender",
          "type": "address"
        }
      ],
      "name": "ERC721InvalidSender",
      "type": "error"
    },
    {
      "inputs": [
        {
          "internalType": "uint256",
          "name": "tokenId",
          "type": "uint256"
        }
      ],
      "name": "ERC721NonexistentToken",
      "type": "error"
    },
    {
      "inputs": [
        {
          "internalType": "address",
          "name": "owner",
          "type": "address"
        },
        {
          "internalType": "uint256",
          "name": "index",
          "type": "uint256"
        }
      ],
      "name": "ERC721OutOfBoundsIndex",
      "type": "error"
    },
    {
      "inputs": [],
      "name": "EnforcedPause",
      "type": "error"
    },
    {
      "inputs": [],
      "name": "ExpectedPause",
      "type": "error"
    },
    {
      "inputs": [
        {
          "internalType": "address",
          "name": "owner",
          "type": "address"
        }
      ],
      "name": "OwnableInvalidOwner",
      "type": "error"
    },
    {
      "inputs": [
        {
          "internalType": "address",
          "name": "account",
          "type": "address"
        }
      ],
      "name": "OwnableUnauthorizedAccount",
      "type": "error"
    },
    {
      "anonymous": false,
      "inputs": [
        {
          "indexed": true,
          "internalType": "address",
          "name": "owner",
          "type": "address"
        },
        {
          "indexed": true,
          "internalType": "address",
          "name": "approved",
          "type": "address"
        },
        {
          "indexed": true,
          "internalType": "uint256",
          "name": "tokenId",
          "type": "uint256"
        }
      ],
      "name": "Approval",
      "type": "event"
    },
    {
      "anonymous": false,
      "inputs": [
        {
          "indexed": true,
          "internalType": "address",
          "name": "owner",
          "type": "address"
        },
        {
          "indexed": true,
          "internalType": "address",
          "name": "operator",
          "type": "address"
        },
        {
          "indexed": false,
          "internalType": "bool",
          "name": "approved",
          "type": "bool"
        }
      ],
      "name": "ApprovalForAll",
      "type": "event"
    },
    {
      "anonymous": false,
      "inputs": [
        {
          "indexed": false,
          "internalType": "string",
          "name": "newBaseURI",
          "type": "string"
        }
      ],
      "name": "BaseURIUpdated",
      "type": "event"
    },
    {
      "anonymous": false,
      "inputs": [
        {
          "indexed": true,
          "internalType": "address",
          "name": "account",
          "type": "address"
        },
        {
          "indexed": false,
          "internalType": "bool",
          "name": "granted",
          "type": "bool"
        }
      ],
      "name": "ExecutorRoleUpdated",
      "type": "event"
    },
    {
      "anonymous": false,
      "inputs": [
        {
          "indexed": true,
          "internalType": "uint256",
          "name": "tokenId",
          "type": "uint256"
        },
        {
          "indexed": false,
          "internalType": "string",
          "name": "metadata",
          "type": "string"
        }
      ],
      "name": "MetadataStamped",
      "type": "event"
    },
    {
      "anonymous": false,
      "inputs": [
        {
          "indexed": true,
          "internalType": "uint256",
          "name": "tokenId",
          "type": "uint256"
        },
        {
          "indexed": true,
          "internalType": "address",
          "name": "owner",
          "type": "address"
        }
      ],
      "name": "NFTBurned",
      "type": "event"
    },
    {
      "anonymous": false,
      "inputs": [
        {
          "indexed": true,
          "internalType": "uint256",
          "name": "tokenId",
          "type": "uint256"
        },
        {
          "indexed": true,
          "internalType": "address",
          "name": "buyer",
          "type": "address"
        },
        {
          "indexed": true,
          "internalType": "uint256",
          "name": "roundId",
          "type": "uint256"
        },
        {
          "indexed": false,
          "internalType": "uint256",
          "name": "tokenPrice",
          "type": "uint256"
        },
        {
          "indexed": false,
          "internalType": "uint256",
          "name": "rewardPercentage",
          "type": "uint256"
        }
      ],
      "name": "NFTMinted",
      "type": "event"
    },
    {
      "anonymous": false,
      "inputs": [
        {
          "indexed": true,
          "internalType": "address",
          "name": "previousOwner",
          "type": "address"
        },
        {
          "indexed": true,
          "internalType": "address",
          "name": "newOwner",
          "type": "address"
        }
      ],
      "name": "OwnershipTransferred",
      "type": "event"
    },
    {
      "anonymous": false,
      "inputs": [
        {
          "indexed": false,
          "internalType": "address",
          "name": "account",
          "type": "address"
        }
      ],
      "name": "Paused",
      "type": "event"
    },
    {
      "anonymous": false,
      "inputs": [
        {
          "indexed": true,
          "internalType": "uint256",
          "name": "tokenId",
          "type": "uint256"
        },
        {
          "indexed": true,
          "internalType": "address",
          "name": "claimer",
          "type": "address"
        }
      ],
      "name": "RewardClaimed",
      "type": "event"
    },
    {
      "anonymous": false,
      "inputs": [
        {
          "indexed": true,
          "internalType": "bytes32",
          "name": "role",
          "type": "bytes32"
        },
        {
          "indexed": true,
          "internalType": "bytes32",
          "name": "previousAdminRole",
          "type": "bytes32"
        },
        {
          "indexed": true,
          "internalType": "bytes32",
          "name": "newAdminRole",
          "type": "bytes32"
        }
      ],
      "name": "RoleAdminChanged",
      "type": "event"
    },
    {
      "anonymous": false,
      "inputs": [
        {
          "indexed": true,
          "internalType": "bytes32",
          "name": "role",
          "type": "bytes32"
        },
        {
          "indexed": true,
          "internalType": "address",
          "name": "account",
          "type": "address"
        },
        {
          "indexed": true,
          "internalType": "address",
          "name": "sender",
          "type": "address"
        }
      ],
      "name": "RoleGranted",
      "type": "event"
    },
    {
      "anonymous": false,
      "inputs": [
        {
          "indexed": true,
          "internalType": "bytes32",
          "name": "role",
          "type": "bytes32"
        },
        {
          "indexed": true,
          "internalType": "address",
          "name": "account",
          "type": "address"
        },
        {
          "indexed": true,
          "internalType": "address",
          "name": "sender",
          "type": "address"
        }
      ],
      "name": "RoleRevoked",
      "type": "event"
    },
    {
      "anonymous": false,
      "inputs": [
        {
          "indexed": true,
          "internalType": "uint256",
          "name": "tokenId",
          "type": "uint256"
        },
        {
          "indexed": false,
          "internalType": "string",
          "name": "newTokenURI",
          "type": "string"
        }
      ],
      "name": "TokenURIUpdated",
      "type": "event"
    },
    {
      "anonymous": false,
      "inputs": [
        {
          "indexed": true,
          "internalType": "address",
          "name": "from",
          "type": "address"
        },
        {
          "indexed": true,
          "internalType": "address",
          "name": "to",
          "type": "address"
        },
        {
          "indexed": true,
          "internalType": "uint256",
          "name": "tokenId",
          "type": "uint256"
        }
      ],
      "name": "Transfer",
      "type": "event"
    },
    {
      "anonymous": false,
      "inputs": [
        {
          "indexed": true,
          "internalType": "uint256",
          "name": "tokenId",
          "type": "uint256"
        },
        {
          "indexed": false,
          "internalType": "bool",
          "name": "locked",
          "type": "bool"
        }
      ],
      "name": "TransferLockUpdated",
      "type": "event"
    },
    {
      "anonymous": false,
      "inputs": [
        {
          "indexed": false,
          "internalType": "address",
          "name": "account",
          "type": "address"
        }
      ],
      "name": "Unpaused",
      "type": "event"
    },
    {
      "inputs": [],
      "name": "DEFAULT_ADMIN_ROLE",
      "outputs": [
        {
          "internalType": "bytes32",
          "name": "",
          "type": "bytes32"
        }
      ],
      "stateMutability": "view",
      "type": "function"
    },
    {
      "inputs": [],
      "name": "EXECUTOR_ROLE",
      "outputs": [
        {
          "internalType": "bytes32",
          "name": "",
          "type": "bytes32"
        }
      ],
      "stateMutability": "view",
      "type": "function"
    },
    {
      "inputs": [
        {
          "internalType": "address",
          "name": "to",
          "type": "address"
        },
        {
          "internalType": "uint256",
          "name": "tokenId",
          "type": "uint256"
        }
      ],
      "name": "approve",
      "outputs": [],
      "stateMutability": "nonpayable",
      "type": "function"
    },
    {
      "inputs": [
        {
          "internalType": "address",
          "name": "owner",
          "type": "address"
        }
      ],
      "name": "balanceOf",
      "outputs": [
        {
          "internalType": "uint256",
          "name": "",
          "type": "uint256"
        }
      ],
      "stateMutability": "view",
      "type": "function"
    },
    {
      "inputs": [],
      "name": "baseURI",
      "outputs": [
        {
          "internalType": "string",
          "name": "",
          "type": "string"
        }
      ],
      "stateMutability": "view",
      "type": "function"
    },
    {
      "inputs": [
        {
          "internalType": "uint256[]",
          "name": "tokenIds",
          "type": "uint256[]"
        },
        {
          "internalType": "address",
          "name": "user",
          "type": "address"
        }
      ],
      "name": "batchCheckOwnership",
      "outputs": [
        {
          "internalType": "bool[]",
          "name": "ownedTokens",
          "type": "bool[]"
        }
      ],
      "stateMutability": "view",
      "type": "function"
    },
    {
      "inputs": [
        {
          "internalType": "uint256[]",
          "name": "tokenIds",
          "type": "uint256[]"
        }
      ],
      "name": "batchGetTokensDetail",
      "outputs": [
        {
          "components": [
            {
              "internalType": "uint256",
              "name": "tokenId",
              "type": "uint256"
            },
            {
              "internalType": "uint256",
              "name": "roundId",
              "type": "uint256"
            },
            {
              "internalType": "uint256",
              "name": "tokenPrice",
              "type": "uint256"
            },
            {
              "internalType": "uint256",
              "name": "rewardPercentage",
              "type": "uint256"
            },
            {
              "internalType": "uint256",
              "name": "totalTokenOpenInvestment",
              "type": "uint256"
            },
            {
              "internalType": "uint256",
              "name": "purchaseTimestamp",
              "type": "uint256"
            },
            {
              "internalType": "uint256",
              "name": "closeDateInvestment",
              "type": "uint256"
            },
            {
              "internalType": "uint256",
              "name": "endDateInvestment",
              "type": "uint256"
            },
            {
              "internalType": "address",
              "name": "originalBuyer",
              "type": "address"
            },
            {
              "internalType": "bool",
              "name": "redeemed",
              "type": "bool"
            },
            {
              "internalType": "bool",
              "name": "rewardClaimed",
              "type": "bool"
            },
            {
              "internalType": "bool",
              "name": "transferLocked",
              "type": "bool"
            },
            {
              "internalType": "string",
              "name": "metadata",
              "type": "string"
            }
          ],
          "internalType": "struct DZNFT.InvestmentData[]",
          "name": "investments",
          "type": "tuple[]"
        }
      ],
      "stateMutability": "view",
      "type": "function"
    },
    {
      "inputs": [
        {
          "internalType": "address",
          "name": "to",
          "type": "address"
        },
        {
          "internalType": "uint256",
          "name": "count",
          "type": "uint256"
        },
        {
          "internalType": "uint256",
          "name": "roundId",
          "type": "uint256"
        },
        {
          "internalType": "uint256",
          "name": "tokenPrice",
          "type": "uint256"
        },
        {
          "internalType": "uint256",
          "name": "rewardPercentage",
          "type": "uint256"
        },
        {
          "internalType": "uint256",
          "name": "totalTokenOpenInvestment",
          "type": "uint256"
        },
        {
          "internalType": "uint256",
          "name": "closeDateInvestment",
          "type": "uint256"
        },
        {
          "internalType": "uint256",
          "name": "endDateInvestment",
          "type": "uint256"
        }
      ],
      "name": "batchMintNFT",
      "outputs": [
        {
          "internalType": "uint256[]",
          "name": "tokenIds",
          "type": "uint256[]"
        }
      ],
      "stateMutability": "nonpayable",
      "type": "function"
    },
    {
      "inputs": [
        {
          "internalType": "uint256",
          "name": "tokenId",
          "type": "uint256"
        }
      ],
      "name": "burn",
      "outputs": [],
      "stateMutability": "nonpayable",
      "type": "function"
    },
    {
      "inputs": [
        {
          "internalType": "uint256",
          "name": "tokenId",
          "type": "uint256"
        }
      ],
      "name": "canClaimEarlyReward",
      "outputs": [
        {
          "internalType": "bool",
          "name": "",
          "type": "bool"
        }
      ],
      "stateMutability": "view",
      "type": "function"
    },
    {
      "inputs": [
        {
          "internalType": "uint256",
          "name": "tokenId",
          "type": "uint256"
        }
      ],
      "name": "canFullyRedeem",
      "outputs": [
        {
          "internalType": "bool",
          "name": "",
          "type": "bool"
        }
      ],
      "stateMutability": "view",
      "type": "function"
    },
    {
      "inputs": [
        {
          "internalType": "address",
          "name": "owner",
          "type": "address"
        }
      ],
      "name": "getAllTokensOwnedBy",
      "outputs": [
        {
          "internalType": "uint256[]",
          "name": "ownedTokens",
          "type": "uint256[]"
        }
      ],
      "stateMutability": "view",
      "type": "function"
    },
    {
      "inputs": [
        {
          "internalType": "uint256",
          "name": "tokenId",
          "type": "uint256"
        }
      ],
      "name": "getApproved",
      "outputs": [
        {
          "internalType": "address",
          "name": "",
          "type": "address"
        }
      ],
      "stateMutability": "view",
      "type": "function"
    },
    {
      "inputs": [
        {
          "internalType": "uint256",
          "name": "tokenId",
          "type": "uint256"
        }
      ],
      "name": "getInvestmentData",
      "outputs": [
        {
          "components": [
            {
              "internalType": "uint256",
              "name": "tokenId",
              "type": "uint256"
            },
            {
              "internalType": "uint256",
              "name": "roundId",
              "type": "uint256"
            },
            {
              "internalType": "uint256",
              "name": "tokenPrice",
              "type": "uint256"
            },
            {
              "internalType": "uint256",
              "name": "rewardPercentage",
              "type": "uint256"
            },
            {
              "internalType": "uint256",
              "name": "totalTokenOpenInvestment",
              "type": "uint256"
            },
            {
              "internalType": "uint256",
              "name": "purchaseTimestamp",
              "type": "uint256"
            },
            {
              "internalType": "uint256",
              "name": "closeDateInvestment",
              "type": "uint256"
            },
            {
              "internalType": "uint256",
              "name": "endDateInvestment",
              "type": "uint256"
            },
            {
              "internalType": "address",
              "name": "originalBuyer",
              "type": "address"
            },
            {
              "internalType": "bool",
              "name": "redeemed",
              "type": "bool"
            },
            {
              "internalType": "bool",
              "name": "rewardClaimed",
              "type": "bool"
            },
            {
              "internalType": "bool",
              "name": "transferLocked",
              "type": "bool"
            },
            {
              "internalType": "string",
              "name": "metadata",
              "type": "string"
            }
          ],
          "internalType": "struct DZNFT.InvestmentData",
          "name": "",
          "type": "tuple"
        }
      ],
      "stateMutability": "view",
      "type": "function"
    },
    {
      "inputs": [
        {
          "internalType": "bytes32",
          "name": "role",
          "type": "bytes32"
        }
      ],
      "name": "getRoleAdmin",
      "outputs": [
        {
          "internalType": "bytes32",
          "name": "",
          "type": "bytes32"
        }
      ],
      "stateMutability": "view",
      "type": "function"
    },
    {
      "inputs": [
        {
          "internalType": "uint256",
          "name": "tokenId",
          "type": "uint256"
        }
      ],
      "name": "getTokenDetail",
      "outputs": [
        {
          "components": [
            {
              "internalType": "uint256",
              "name": "tokenId",
              "type": "uint256"
            },
            {
              "internalType": "uint256",
              "name": "roundId",
              "type": "uint256"
            },
            {
              "internalType": "uint256",
              "name": "tokenPrice",
              "type": "uint256"
            },
            {
              "internalType": "uint256",
              "name": "rewardPercentage",
              "type": "uint256"
            },
            {
              "internalType": "uint256",
              "name": "totalTokenOpenInvestment",
              "type": "uint256"
            },
            {
              "internalType": "uint256",
              "name": "purchaseTimestamp",
              "type": "uint256"
            },
            {
              "internalType": "uint256",
              "name": "closeDateInvestment",
              "type": "uint256"
            },
            {
              "internalType": "uint256",
              "name": "endDateInvestment",
              "type": "uint256"
            },
            {
              "internalType": "address",
              "name": "originalBuyer",
              "type": "address"
            },
            {
              "internalType": "bool",
              "name": "redeemed",
              "type": "bool"
            },
            {
              "internalType": "bool",
              "name": "rewardClaimed",
              "type": "bool"
            },
            {
              "internalType": "bool",
              "name": "transferLocked",
              "type": "bool"
            },
            {
              "internalType": "string",
              "name": "metadata",
              "type": "string"
            }
          ],
          "internalType": "struct DZNFT.InvestmentData",
          "name": "",
          "type": "tuple"
        }
      ],
      "stateMutability": "view",
      "type": "function"
    },
    {
      "inputs": [
        {
          "internalType": "address",
          "name": "user",
          "type": "address"
        },
        {
          "internalType": "uint256",
          "name": "roundId",
          "type": "uint256"
        }
      ],
      "name": "getUserNFTsByRound",
      "outputs": [
        {
          "internalType": "uint256[]",
          "name": "tokenIds",
          "type": "uint256[]"
        }
      ],
      "stateMutability": "view",
      "type": "function"
    },
    {
      "inputs": [
        {
          "internalType": "address",
          "name": "walletAddress",
          "type": "address"
        }
      ],
      "name": "getWalletTokensDetail",
      "outputs": [
        {
          "internalType": "uint256[]",
          "name": "tokenIds",
          "type": "uint256[]"
        },
        {
          "components": [
            {
              "internalType": "uint256",
              "name": "tokenId",
              "type": "uint256"
            },
            {
              "internalType": "uint256",
              "name": "roundId",
              "type": "uint256"
            },
            {
              "internalType": "uint256",
              "name": "tokenPrice",
              "type": "uint256"
            },
            {
              "internalType": "uint256",
              "name": "rewardPercentage",
              "type": "uint256"
            },
            {
              "internalType": "uint256",
              "name": "totalTokenOpenInvestment",
              "type": "uint256"
            },
            {
              "internalType": "uint256",
              "name": "purchaseTimestamp",
              "type": "uint256"
            },
            {
              "internalType": "uint256",
              "name": "closeDateInvestment",
              "type": "uint256"
            },
            {
              "internalType": "uint256",
              "name": "endDateInvestment",
              "type": "uint256"
            },
            {
              "internalType": "address",
              "name": "originalBuyer",
              "type": "address"
            },
            {
              "internalType": "bool",
              "name": "redeemed",
              "type": "bool"
            },
            {
              "internalType": "bool",
              "name": "rewardClaimed",
              "type": "bool"
            },
            {
              "internalType": "bool",
              "name": "transferLocked",
              "type": "bool"
            },
            {
              "internalType": "string",
              "name": "metadata",
              "type": "string"
            }
          ],
          "internalType": "struct DZNFT.InvestmentData[]",
          "name": "nftsDetail",
          "type": "tuple[]"
        }
      ],
      "stateMutability": "view",
      "type": "function"
    },
    {
      "inputs": [
        {
          "internalType": "bytes32",
          "name": "role",
          "type": "bytes32"
        },
        {
          "internalType": "address",
          "name": "account",
          "type": "address"
        }
      ],
      "name": "grantRole",
      "outputs": [],
      "stateMutability": "nonpayable",
      "type": "function"
    },
    {
      "inputs": [
        {
          "internalType": "bytes32",
          "name": "role",
          "type": "bytes32"
        },
        {
          "internalType": "address",
          "name": "account",
          "type": "address"
        }
      ],
      "name": "hasRole",
      "outputs": [
        {
          "internalType": "bool",
          "name": "",
          "type": "bool"
        }
      ],
      "stateMutability": "view",
      "type": "function"
    },
    {
      "inputs": [
        {
          "internalType": "uint256",
          "name": "",
          "type": "uint256"
        }
      ],
      "name": "investmentData",
      "outputs": [
        {
          "internalType": "uint256",
          "name": "tokenId",
          "type": "uint256"
        },
        {
          "internalType": "uint256",
          "name": "roundId",
          "type": "uint256"
        },
        {
          "internalType": "uint256",
          "name": "tokenPrice",
          "type": "uint256"
        },
        {
          "internalType": "uint256",
          "name": "rewardPercentage",
          "type": "uint256"
        },
        {
          "internalType": "uint256",
          "name": "totalTokenOpenInvestment",
          "type": "uint256"
        },
        {
          "internalType": "uint256",
          "name": "purchaseTimestamp",
          "type": "uint256"
        },
        {
          "internalType": "uint256",
          "name": "closeDateInvestment",
          "type": "uint256"
        },
        {
          "internalType": "uint256",
          "name": "endDateInvestment",
          "type": "uint256"
        },
        {
          "internalType": "address",
          "name": "originalBuyer",
          "type": "address"
        },
        {
          "internalType": "bool",
          "name": "redeemed",
          "type": "bool"
        },
        {
          "internalType": "bool",
          "name": "rewardClaimed",
          "type": "bool"
        },
        {
          "internalType": "bool",
          "name": "transferLocked",
          "type": "bool"
        },
        {
          "internalType": "string",
          "name": "metadata",
          "type": "string"
        }
      ],
      "stateMutability": "view",
      "type": "function"
    },
    {
      "inputs": [
        {
          "internalType": "address",
          "name": "owner",
          "type": "address"
        },
        {
          "internalType": "address",
          "name": "operator",
          "type": "address"
        }
      ],
      "name": "isApprovedForAll",
      "outputs": [
        {
          "internalType": "bool",
          "name": "",
          "type": "bool"
        }
      ],
      "stateMutability": "view",
      "type": "function"
    },
    {
      "inputs": [
        {
          "internalType": "address",
          "name": "account",
          "type": "address"
        }
      ],
      "name": "isExecutor",
      "outputs": [
        {
          "internalType": "bool",
          "name": "",
          "type": "bool"
        }
      ],
      "stateMutability": "view",
      "type": "function"
    },
    {
      "inputs": [
        {
          "internalType": "uint256",
          "name": "tokenId",
          "type": "uint256"
        }
      ],
      "name": "isInvestmentMatured",
      "outputs": [
        {
          "internalType": "bool",
          "name": "",
          "type": "bool"
        }
      ],
      "stateMutability": "view",
      "type": "function"
    },
    {
      "inputs": [
        {
          "internalType": "uint256",
          "name": "tokenId",
          "type": "uint256"
        }
      ],
      "name": "isInvestmentOpen",
      "outputs": [
        {
          "internalType": "bool",
          "name": "",
          "type": "bool"
        }
      ],
      "stateMutability": "view",
      "type": "function"
    },
    {
      "inputs": [
        {
          "internalType": "uint256",
          "name": "tokenId",
          "type": "uint256"
        }
      ],
      "name": "isTransferLocked",
      "outputs": [
        {
          "internalType": "bool",
          "name": "",
          "type": "bool"
        }
      ],
      "stateMutability": "view",
      "type": "function"
    },
    {
      "inputs": [
        {
          "internalType": "uint256",
          "name": "tokenId",
          "type": "uint256"
        }
      ],
      "name": "lockTransfer",
      "outputs": [],
      "stateMutability": "nonpayable",
      "type": "function"
    },
    {
      "inputs": [
        {
          "internalType": "uint256",
          "name": "tokenId",
          "type": "uint256"
        }
      ],
      "name": "markAsRedeemed",
      "outputs": [],
      "stateMutability": "nonpayable",
      "type": "function"
    },
    {
      "inputs": [
        {
          "internalType": "uint256",
          "name": "tokenId",
          "type": "uint256"
        }
      ],
      "name": "markRewardClaimed",
      "outputs": [],
      "stateMutability": "nonpayable",
      "type": "function"
    },
    {
      "inputs": [
        {
          "internalType": "address",
          "name": "to",
          "type": "address"
        },
        {
          "internalType": "uint256",
          "name": "roundId",
          "type": "uint256"
        },
        {
          "internalType": "uint256",
          "name": "tokenPrice",
          "type": "uint256"
        },
        {
          "internalType": "uint256",
          "name": "rewardPercentage",
          "type": "uint256"
        },
        {
          "internalType": "uint256",
          "name": "totalTokenOpenInvestment",
          "type": "uint256"
        },
        {
          "internalType": "uint256",
          "name": "closeDateInvestment",
          "type": "uint256"
        },
        {
          "internalType": "uint256",
          "name": "endDateInvestment",
          "type": "uint256"
        }
      ],
      "name": "mintNFT",
      "outputs": [
        {
          "internalType": "uint256",
          "name": "",
          "type": "uint256"
        }
      ],
      "stateMutability": "nonpayable",
      "type": "function"
    },
    {
      "inputs": [],
      "name": "name",
      "outputs": [
        {
          "internalType": "string",
          "name": "",
          "type": "string"
        }
      ],
      "stateMutability": "view",
      "type": "function"
    },
    {
      "inputs": [],
      "name": "owner",
      "outputs": [
        {
          "internalType": "address",
          "name": "",
          "type": "address"
        }
      ],
      "stateMutability": "view",
      "type": "function"
    },
    {
      "inputs": [
        {
          "internalType": "uint256",
          "name": "tokenId",
          "type": "uint256"
        }
      ],
      "name": "ownerOf",
      "outputs": [
        {
          "internalType": "address",
          "name": "",
          "type": "address"
        }
      ],
      "stateMutability": "view",
      "type": "function"
    },
    {
      "inputs": [],
      "name": "pause",
      "outputs": [],
      "stateMutability": "nonpayable",
      "type": "function"
    },
    {
      "inputs": [],
      "name": "paused",
      "outputs": [
        {
          "internalType": "bool",
          "name": "",
          "type": "bool"
        }
      ],
      "stateMutability": "view",
      "type": "function"
    },
    {
      "inputs": [],
      "name": "renounceOwnership",
      "outputs": [],
      "stateMutability": "nonpayable",
      "type": "function"
    },
    {
      "inputs": [
        {
          "internalType": "bytes32",
          "name": "role",
          "type": "bytes32"
        },
        {
          "internalType": "address",
          "name": "callerConfirmation",
          "type": "address"
        }
      ],
      "name": "renounceRole",
      "outputs": [],
      "stateMutability": "nonpayable",
      "type": "function"
    },
    {
      "inputs": [
        {
          "internalType": "bytes32",
          "name": "role",
          "type": "bytes32"
        },
        {
          "internalType": "address",
          "name": "account",
          "type": "address"
        }
      ],
      "name": "revokeRole",
      "outputs": [],
      "stateMutability": "nonpayable",
      "type": "function"
    },
    {
      "inputs": [
        {
          "internalType": "address",
          "name": "from",
          "type": "address"
        },
        {
          "internalType": "address",
          "name": "to",
          "type": "address"
        },
        {
          "internalType": "uint256",
          "name": "tokenId",
          "type": "uint256"
        }
      ],
      "name": "safeTransferFrom",
      "outputs": [],
      "stateMutability": "nonpayable",
      "type": "function"
    },
    {
      "inputs": [
        {
          "internalType": "address",
          "name": "from",
          "type": "address"
        },
        {
          "internalType": "address",
          "name": "to",
          "type": "address"
        },
        {
          "internalType": "uint256",
          "name": "tokenId",
          "type": "uint256"
        },
        {
          "internalType": "bytes",
          "name": "data",
          "type": "bytes"
        }
      ],
      "name": "safeTransferFrom",
      "outputs": [],
      "stateMutability": "nonpayable",
      "type": "function"
    },
    {
      "inputs": [
        {
          "internalType": "address",
          "name": "operator",
          "type": "address"
        },
        {
          "internalType": "bool",
          "name": "approved",
          "type": "bool"
        }
      ],
      "name": "setApprovalForAll",
      "outputs": [],
      "stateMutability": "nonpayable",
      "type": "function"
    },
    {
      "inputs": [
        {
          "internalType": "string",
          "name": "newBaseURI",
          "type": "string"
        }
      ],
      "name": "setBaseURI",
      "outputs": [],
      "stateMutability": "nonpayable",
      "type": "function"
    },
    {
      "inputs": [
        {
          "internalType": "uint256",
          "name": "tokenId",
          "type": "uint256"
        },
        {
          "internalType": "string",
          "name": "newTokenURI",
          "type": "string"
        }
      ],
      "name": "setTokenURI",
      "outputs": [],
      "stateMutability": "nonpayable",
      "type": "function"
    },
    {
      "inputs": [
        {
          "internalType": "uint256",
          "name": "tokenId",
          "type": "uint256"
        },
        {
          "internalType": "string",
          "name": "metadata",
          "type": "string"
        }
      ],
      "name": "stampMetadata",
      "outputs": [],
      "stateMutability": "nonpayable",
      "type": "function"
    },
    {
      "inputs": [
        {
          "internalType": "bytes4",
          "name": "interfaceId",
          "type": "bytes4"
        }
      ],
      "name": "supportsInterface",
      "outputs": [
        {
          "internalType": "bool",
          "name": "",
          "type": "bool"
        }
      ],
      "stateMutability": "view",
      "type": "function"
    },
    {
      "inputs": [],
      "name": "symbol",
      "outputs": [
        {
          "internalType": "string",
          "name": "",
          "type": "string"
        }
      ],
      "stateMutability": "view",
      "type": "function"
    },
    {
      "inputs": [
        {
          "internalType": "uint256",
          "name": "index",
          "type": "uint256"
        }
      ],
      "name": "tokenByIndex",
      "outputs": [
        {
          "internalType": "uint256",
          "name": "",
          "type": "uint256"
        }
      ],
      "stateMutability": "view",
      "type": "function"
    },
    {
      "inputs": [
        {
          "internalType": "uint256",
          "name": "",
          "type": "uint256"
        }
      ],
      "name": "tokenExists",
      "outputs": [
        {
          "internalType": "bool",
          "name": "",
          "type": "bool"
        }
      ],
      "stateMutability": "view",
      "type": "function"
    },
    {
      "inputs": [
        {
          "internalType": "address",
          "name": "owner",
          "type": "address"
        },
        {
          "internalType": "uint256",
          "name": "index",
          "type": "uint256"
        }
      ],
      "name": "tokenOfOwnerByIndex",
      "outputs": [
        {
          "internalType": "uint256",
          "name": "",
          "type": "uint256"
        }
      ],
      "stateMutability": "view",
      "type": "function"
    },
    {
      "inputs": [
        {
          "internalType": "uint256",
          "name": "tokenId",
          "type": "uint256"
        }
      ],
      "name": "tokenURI",
      "outputs": [
        {
          "internalType": "string",
          "name": "",
          "type": "string"
        }
      ],
      "stateMutability": "view",
      "type": "function"
    },
    {
      "inputs": [],
      "name": "totalSupply",
      "outputs": [
        {
          "internalType": "uint256",
          "name": "",
          "type": "uint256"
        }
      ],
      "stateMutability": "view",
      "type": "function"
    },
    {
      "inputs": [
        {
          "internalType": "address",
          "name": "from",
          "type": "address"
        },
        {
          "internalType": "address",
          "name": "to",
          "type": "address"
        },
        {
          "internalType": "uint256",
          "name": "tokenId",
          "type": "uint256"
        }
      ],
      "name": "transferFrom",
      "outputs": [],
      "stateMutability": "nonpayable",
      "type": "function"
    },
    {
      "inputs": [
        {
          "internalType": "address",
          "name": "newOwner",
          "type": "address"
        }
      ],
      "name": "transferOwner",
      "outputs": [],
      "stateMutability": "nonpayable",
      "type": "function"
    },
    {
      "inputs": [
        {
          "internalType": "address",
          "name": "newOwner",
          "type": "address"
        }
      ],
      "name": "transferOwnership",
      "outputs": [],
      "stateMutability": "nonpayable",
      "type": "function"
    },
    {
      "inputs": [
        {
          "internalType": "uint256",
          "name": "tokenId",
          "type": "uint256"
        }
      ],
      "name": "unlockTransfer",
      "outputs": [],
      "stateMutability": "nonpayable",
      "type": "function"
    },
    {
      "inputs": [],
      "name": "unpause",
      "outputs": [],
      "stateMutability": "nonpayable",
      "type": "function"
    },
    {
      "inputs": [
        {
          "internalType": "address",
          "name": "account",
          "type": "address"
        },
        {
          "internalType": "bool",
          "name": "grant",
          "type": "bool"
        }
      ],
      "name": "updateExecutorRole",
      "outputs": [],
      "stateMutability": "nonpayable",
      "type": "function"
    }
  ],
  "bytecode": "0x60806040523461039757604080519081016001600160401b038111828210176102cc5760409081526011825270111688125b9d995cdd1b595b9d08139195607a1b602083015280519081016001600160401b038111828210176102cc576040526005815264111693919560da1b602082015281516001600160401b0381116102cc5761008b5f5461039b565b601f811161034a575b50602092601f82116001146102eb57928192935f926102e0575b50508160011b915f199060031b1c1916175f555b80516001600160401b0381116102cc576100dd60015461039b565b601f8111610273575b50602091601f8211600114610213579181925f92610208575b50508160011b915f199060031b1c1916176001555b33156101f557600a8054336001600160a01b0319821681179092556001600160a01b03167f8be0079c531659141344cd1fd0a4f28419497f9722a3daafe3b4186f6b6457e05f80a3610165336103e9565b5061016f3361045f565b5061017b600e5461039b565b601f81116101b7575b7f68747470733a2f2f6170692e647a6e66742e636f6d2f6d657461646174612f3e600e556040516140fa90816104f38239f35b600e5f526101ef90601f0160051c7fbb7b4a454dc3493923482f07822329ed19e8244eff582cc204f8554c3620c3fd908101906103d3565b5f610184565b631e4fbdf760e01b5f525f60045260245ffd5b015190505f806100ff565b601f1982169260015f52805f20915f5b85811061025b57508360019510610243575b505050811b01600155610114565b01515f1960f88460031b161c191690555f8080610235565b91926020600181928685015181550194019201610223565b60015f526102bc907fb10e2d527612073b26eecdfd717e6a320cf44b4afac2b0732d9fcbe2b7fa0cf6601f840160051c810191602085106102c2575b601f0160051c01906103d3565b5f6100e6565b90915081906102af565b634e487b7160e01b5f52604160045260245ffd5b015190505f806100ae565b601f198216935f8052805f20915f5b868110610332575083600195961061031a575b505050811b015f556100c2565b01515f1960f88460031b161c191690555f808061030d565b919260206001819286850151815501940192016102fa565b5f8052610391907f290decd9548b62a8d60345a988386fc84ba6bc95484008f6362f93160ef3e563601f840160051c810191602085106102c257601f0160051c01906103d3565b5f610094565b5f80fd5b90600182811c921680156103c9575b60208310146103b557565b634e487b7160e01b5f52602260045260245ffd5b91607f16916103aa565b8181106103de575050565b5f81556001016103d3565b6001600160a01b0381165f9081525f51602061460d5f395f51905f52602052604090205460ff1661045a576001600160a01b03165f8181525f51602061460d5f395f51905f5260205260408120805460ff191660011790553391905f5160206145ed5f395f51905f528180a4600190565b505f90565b6001600160a01b0381165f9081525f51602061462d5f395f51905f52602052604090205460ff1661045a576001600160a01b03165f8181525f51602061462d5f395f51905f5260205260408120805460ff191660011790553391907fd8aa0f3194971a2a116679f7c2090f6939c8d4e01a2a8d7e41d55e5351469e63905f5160206145ed5f395f51905f529080a460019056fe610120806040526004361015610013575f80fd5b5f3560e01c908162923f9e146124d75750806301ffc9a71461243657806306fdde031461239457806307bd02651461236d578063081812fc1461234f578063095ea7b31461226557806309815517146121bc578063162094c41461206457806318160ddd1461204757806318d8e2a514611f3f57806319f477d914611ec85780631d3653e314611dad57806323b872dd14611d96578063248a9ca314611d78578063293af81a14611c7c5780632f2ff15d14611c4b5780632f745c5914611c24578063364b610114611bdc57806336568abe14611b985780633f4ba83a14611b3257806342842e0e14611b0357806342966c681461196e5780634f6ccce7146119205780634fb2e45d146118ff57806355f804b3146117925780635a0ea3d41461165d5780635a7f04d5146115355780635c8f45b1146113ad5780635c975abb1461138b5780636352211e1461135b5780636c0360eb1461134057806370a0823114611315578063715018a6146112cd5780638456cb59146112745780638da5cb5b1461124c5780638debb546146111c75780638e25e2e61461092a57806391d148541461117e57806395d89b41146110b45780639913627f14611067578063a217fddf1461104d578063a22cb46514610fc5578063acb7ebfa14610ef0578063b88d4fde14610e5c578063badd5c4d14610dd6578063bed62f3514610cf6578063bf725a3c1461092f578063c0bcc07a1461092a578063c2bf0fa1146108e2578063c87b56dd146108ab578063d547741f14610875578063d9852f8d146107e7578063debfda3014610799578063e01beb9d14610656578063e985e9c5146105ff578063f2fde38b146105b15763f4fb81591461028f575f80fd5b346105ad5760e03660031901126105ad576102a8612526565b335f9081525f516020613fe55f395f51905f5260205260409020546084359160a4359160c435906102db9060ff16612c56565b6102e3613b37565b6102f76001600160a01b0383161515613198565b61030460443515156131e0565b60643515158061059f575b6103189061322b565b610323841515613273565b61032e4284116132cb565b610339838211613316565b600d549261034684613159565b600d556040519461035686612552565b84865260243560208701526044356040870152606435606087015260808601524260a086015260c085015260e084015260018060a01b0381166101008401525f6101208401525f6101408401525f6101608401526020926040516103ba858261256e565b5f8152610180820152825f5260108452610180600960405f20835181556020840151600182015560408401516002820155606084015160038201556080840151600482015560a0840151600582015560c0840151600682015560e084015160078201556104786008820160018060a01b0360018060a01b03610100880151161660018060a01b0319825416178155610459610120870151151582612cd8565b61046a610140870151151582612c9e565b610160860151151590612cbb565b0191015180519060018060401b03821161058b576104a08261049a85546128fd565b85612be5565b8590601f8311600114610528576104c192915f918361051d575b5050612c1d565b90555b815f526011835260405f20600160ff198254161790556104e48282613b52565b60408051604435815260643585820152602435926001600160a01b03169184915f516020613fc55f395f51905f529190a4604051908152f35b015190505f806104ba565b90601f19831691845f52875f20925f5b8982821061057557505090846001959493921061055d575b505050811b0190556104c4565b01515f1960f88460031b161c191690555f8080610550565b6001859682939686015181550195019301610538565b634e487b7160e01b5f52604160045260245ffd5b50612710606435111561030f565b5f80fd5b346105ad5760203660031901126105ad576105ca612526565b6105d26138cd565b6001600160a01b038116156105ec576105ea906139cc565b005b631e4fbdf760e01b5f525f60045260245ffd5b346105ad5760403660031901126105ad57610618612526565b61062061253c565b9060018060a01b03165f52600560205260405f209060018060a01b03165f52602052602060ff60405f2054166040519015158152f35b346105ad5761066436612731565b335f9081525f516020613fe55f395f51905f52602052604090205491929161068e9060ff16612c56565b815f5260116020526106a660ff60405f205416612b8c565b5f828152601060205260409020600901926001600160401b03821161058b576106d9826106d386546128fd565b86612be5565b5f93601f831160011461072a5761070883805f5160206140055f395f51905f5296975f9161071f575b50612c1d565b90555b61071a60405192839283612c2f565b0390a2005b905084013588610702565b601f19831694815f5260205f20905f5b8781106107815750845f5160206140055f395f51905f52969710610768575b5050600183811b01905561070b565b8301355f19600386901b60f8161c191690558580610759565b9091602060018192858801358155019301910161073a565b346105ad5760203660031901126105ad576107b2612526565b6001600160a01b03165f9081525f516020613fe55f395f51905f52602090815260409182902054915160ff9092161515825290f35b346105ad5760203660031901126105ad57335f9081525f516020613fe55f395f51905f526020526040902054600435906108239060ff16612c56565b805f52601160205261083b60ff60405f205416612b8c565b805f526010602052600860405f2001600160b01b60ff60b01b198254161790555f516020613fa55f395f51905f52602060405160018152a2005b346105ad5760403660031901126105ad576105ea60043561089461253c565b906108a66108a182613061565b6136a6565b61385c565b346105ad5760203660031901126105ad576108de6108ca60043561336c565b604051918291602083526020830190612502565b0390f35b346105ad5760203660031901126105ad57600435805f52601160205261090e60ff60405f205416612b8c565b5f5260106020526020600660405f200154421115604051908152f35b6127d1565b346105ad576101003660031901126105ad57610949612526565b602435608052335f9081525f516020613fe55f395f51905f5260205260409020546109769060ff16612c56565b61097e613b37565b6109926001600160a01b0382161515613198565b608051151580610ce9575b15610cad576109af60643515156131e0565b6109bc608435151561322b565b6109c960a4351515613273565b6109d64260c435116132cb565b6109e560c43560e43511613316565b6109f0608051613127565b60e052602060c0525f905b6080518210610a1d5760405160c0518152806108de60c051820160e05161279e565b600d5491610a2a83613159565b600d55828160e05190610a3c91612b64565b5282604051610a4a81612552565b81815260c05181016101005260443561010051526040810190606435825260608101916084358352608082019260a435845260a0830142815260c0840160c435815260e085019160e4358352610100860196600160a01b600190038b1688526101208701945f86526101408801965f88526101608901985f8a526040519b8c60c051610ad59161256e565b5f808e5261018083019d8e5290815260c051601090526040902060a081905290518155610100515160018201559051600282015590516003820155905160048201559051600582015590516006820155905160078201559351600890940180546001600160a01b0319166001600160a01b039590951694909417845551610b5e90151584612cd8565b511515610b6b9083612c9e565b511515610b7791612cbb565b51805193906001600160401b03851161058b57610ba885610b9d600960a05101546128fd565b600960a05101612be5565b60c05190601f8611600114610c38579480610bce92600196975f92610c2d575050612c1d565b600960a05101555b805f52601160c0515260405f208360ff19825416179055610bf78185613b52565b604051606435815260843560c051820152604435915f516020613fc55f395f51905f526040868060a01b03881693a401906109fb565b0151905087806104ba565b90600960a051015f5260c0515f20915f5b601f1988168110610c94575091869160019697938794601f19811610610c7c575b505050811b01600960a0510155610bd6565b01515f1960f88460031b161c19169055868080610c6a565b81830151845560c0516001909401939283019201610c49565b60405162461bcd60e51b8152602060048201526014602482015273496e76616c696420636f756e742028312d38302960601b6044820152606490fd5b506032608051111561099d565b346105ad5760203660031901126105ad57335f9081525f516020613fe55f395f51905f52602052604090205460043590610d329060ff16612c56565b805f526011602052610d4a60ff60405f205416612b8c565b805f52601060205260ff600860405f20015460a01c1615610d9857805f526010602052600860405f200160ff60b01b1981541690555f516020613fa55f395f51905f5260206040515f8152a2005b60405162461bcd60e51b8152602060048201526016602482015275135d5cdd081899481c995919595b595908199a5c9cdd60521b6044820152606490fd5b346105ad5760207f9440a95c3c13d1dc9ebcfdcf7b9963a680dd7ca9d62246a91a9be07e6de1f86f610e07366128ce565b9290610e116138cd565b8315610e4257610e226108a1613027565b610e2b816136e0565b505b60405193151584526001600160a01b031692a2005b610e4d6108a1613027565b610e56816137de565b50610e2d565b346105ad5760803660031901126105ad57610e75612526565b610e7d61253c565b6064359190604435906001600160401b0384116105ad57366023850112156105ad57836004013592610eae84612a77565b93610ebc604051958661256e565b80855236602482880101116105ad576020815f9260246105ea99018389013786010152610eea838383612cf5565b33613a01565b346105ad5760203660031901126105ad576004355f52601060205260405f2080546108de60018301549260ff600282015491600381015460048201546005830154600684015491600785015493610f4e6009600888015497016129d9565b976040519b8c9b8c5260208c015260408b015260608a0152608089015260a088015260c087015260e086015260018060a01b038116610100860152818160a01c161515610120860152818160a81c16151561014086015260b01c1615156101608401526101a06101808401526101a0830190612502565b346105ad57610fd3366128ce565b6001600160a01b0390911690811561103a57335f52600560205260405f20825f5260205260405f209015159060ff1981541660ff83161790556040519081527f17307eab39ab6107e8899845ad3d59bd9653f200f220920489ca2b5937696c3160203392a3005b50630b61174360e31b5f5260045260245ffd5b346105ad575f3660031901126105ad5760206040515f8152f35b346105ad5760203660031901126105ad57600435805f52601160205261109360ff60405f205416612b8c565b5f526010602052602060ff600860405f20015460b01c166040519015158152f35b346105ad575f3660031901126105ad576040515f6001546110d4816128fd565b808452906001811690811561115a57506001146110fc575b6108de836108ca8185038261256e565b60015f9081527fb10e2d527612073b26eecdfd717e6a320cf44b4afac2b0732d9fcbe2b7fa0cf6939250905b808210611140575090915081016020016108ca6110ec565b919260018160209254838588010152019101909291611128565b60ff191660208086019190915291151560051b840190910191506108ca90506110ec565b346105ad5760403660031901126105ad5761119761253c565b6004355f52600b60205260405f209060018060a01b03165f52602052602060ff60405f2054166040519015158152f35b346105ad5760203660031901126105ad576111e0612526565b6001600160a01b0381161561120f576111fb6108de916138f4565b60405191829160208352602083019061279e565b60405162461bcd60e51b8152602060048201526015602482015274496e76616c6964206f776e6572206164647265737360581b6044820152606490fd5b346105ad575f3660031901126105ad57600a546040516001600160a01b039091168152602090f35b346105ad575f3660031901126105ad5761128c6138cd565b611294613b37565b600160ff19600c541617600c557f62e78cea01bee320cd4e420270b5ea74000d11b0c9f74754ebdbfc544b05a2586020604051338152a1005b346105ad575f3660031901126105ad576112e56138cd565b600a80546001600160a01b031981169091555f906001600160a01b03165f5160206140255f395f51905f528280a3005b346105ad5760203660031901126105ad576020611338611333612526565b613167565b604051908152f35b346105ad575f3660031901126105ad576108de6108ca612935565b346105ad5760203660031901126105ad57602061137960043561341a565b6040516001600160a01b039091168152f35b346105ad575f3660031901126105ad57602060ff600c54166040519015158152f35b346105ad5760203660031901126105ad576113c6612526565b6001600160a01b038116156114f7576113de906138f4565b6113e88151612b15565b905f5b81518110156114cd578061140160019284612b64565b515f52601060205260405f206114ab60096040519261141f84612552565b80548452858101546020850152600281015460408501526003810154606085015260048101546080850152600581015460a0850152600681015460c0850152600781015460e085015260ff6008820154878060a01b038116610100870152818160a01c161515610120870152818160a81c16151561014087015260b01c161515610160850152016129d9565b6101808201526114bb8286612b64565b526114c68185612b64565b50016113eb565b506108de6114e99260405193849360408552604085019061279e565b9083820360208501526126ac565b60405162461bcd60e51b8152602060048201526016602482015275496e76616c69642077616c6c6574206164647265737360501b6044820152606490fd5b346105ad5760203660031901126105ad57600435805f52601160205261156160ff60405f205416612b8c565b5f52601060205260405f2060405161157881612552565b8154815260018201546020820152600282015460408201526003820154606082015260048201546080820152600582015460a082015260068201549060c08101918252600783015460e0820152610180611614600960088601549560018060a01b03871661010086015260ff610120860197818160a01c1615158952818160a81c16151561014088015260b01c161515610160860152016129d9565b91015251906301e13380820180921161164957602091421015908161163f575b506040519015158152f35b9050511582611634565b634e487b7160e01b5f52601160045260245ffd5b346105ad5760403660031901126105ad57611676612526565b602435906001600160a01b038116156117565761169281613167565b61169b81613127565b925f925f5b8381106116f15785856116b281613127565b915f5b8281106116d257604051602080825281906108de9082018761279e565b806116df60019284612b64565b516116ea8287612b64565b52016116b5565b6116fb8183613073565b805f52601160205260ff60405f2054168061173e575b61171f575b506001016116a0565b8561173791611731600194988a612b64565b52613159565b9490611716565b50805f52601060205283600160405f20015414611711565b60405162461bcd60e51b8152602060048201526014602482015273496e76616c69642075736572206164647265737360601b6044820152606490fd5b346105ad5760203660031901126105ad576004356001600160401b0381116105ad576117c2903690600401612704565b6117ca6138cd565b6001600160401b03811161058b576117e3600e546128fd565b601f81116118b9575b505f91601f821160011461183d5761181a82805f5160206140a55f395f51905f52955f916118325750612c1d565b600e555b61182d60405192839283612c2f565b0390a1005b905083013586610702565b600e5f9081525f516020613f855f395f51905f5290601f198416905b8181106118a1575093835f5160206140a55f395f51905f529510611888575b5050600182811b01600e5561181e565b8201355f19600385901b60f8161c191690558380611878565b83860135835560209586019560019093019201611859565b600e5f526118ef905f516020613f855f395f51905f52601f840160051c810191602085106118f5575b601f0160051c0190612bcf565b826117ec565b90915081906118e2565b346105ad5760203660031901126105ad57611918612526565b6105ca6138cd565b346105ad5760203660031901126105ad576004356008548110156119585761194960209161310f565b90549060031b1c604051908152f35b63295f44f760e21b5f525f60045260245260445ffd5b346105ad5760203660031901126105ad57600435805f52601160205261199a60ff60405f205416612b8c565b6119a38161341a565b6001600160a01b031633148015611ae9575b8015611ab5575b15611a77576119ca8161341a565b815f52601160205260405f2060ff198154169055815f526010602052611a28600960405f205f81555f60018201555f60028201555f60038201555f60048201555f60058201555f60068201555f60078201555f6008820155016130c1565b815f52600f602052611a3c60405f206130c1565b611a46338361344e565b506001600160a01b0316907f8f0a80450bfbfadc6d05658c9dc494e43beb79be53b44adbb146c6d5040f87705f80a3005b60405162461bcd60e51b8152602060048201526016602482015275139bdd081bdddb995c881b9bdc88185c1c1c9bdd995960521b6044820152606490fd5b506001600160a01b03611ac78261341a565b165f90815260056020908152604080832033845290915290205460ff166119bc565b50336001600160a01b03611afc83612a92565b16146119b5565b346105ad576105ea611b1436612764565b9060405192611b2460208561256e565b5f8452610eea838383612cf5565b346105ad575f3660031901126105ad57611b4a6138cd565b600c5460ff811615611b895760ff1916600c557f5db9ee0a495bf2e6ff9c91a7834c1ba4fdd244a5e8aa4e537bd38aeae4b073aa6020604051338152a1005b638dfc202b60e01b5f5260045ffd5b346105ad5760403660031901126105ad57611bb161253c565b336001600160a01b03821603611bcd576105ea9060043561385c565b63334bd91960e11b5f5260045ffd5b346105ad5760203660031901126105ad57600435805f526011602052611c0860ff60405f205416612b8c565b5f5260106020526020600760405f200154421015604051908152f35b346105ad5760403660031901126105ad576020611338611c42612526565b60243590613073565b346105ad5760403660031901126105ad576105ea600435611c6a61253c565b90611c776108a182613061565b613765565b346105ad5760403660031901126105ad576004356001600160401b0381116105ad57611cac9036906004016125a8565b611cb461253c565b90805191611cda611cc484612591565b93611cd2604051958661256e565b808552612591565b602084019290601f19013684376001600160a01b03909116905f5b8151811015611d3057600190836001600160a01b03611d1d611d178487612b64565b5161341a565b1614611d298288612b64565b5201611cf5565b50505090604051918291602083019060208452518091526040830191905f5b818110611d5d575050500390f35b82511515845285945060209384019390920191600101611d4f565b346105ad5760203660031901126105ad576020611338600435613061565b346105ad576105ea611da736612764565b91612cf5565b346105ad5760203660031901126105ad57600435805f526011602052611dd960ff60405f205416612b8c565b5f52601060205260405f20604051611df081612552565b8154815260018201546020820152600282015460408201526003820154606082015260048201546080820152600582015460a0820152600682015460c08201908152600783015460e083015260088301549160018060a01b038316610100820152610180611e8e600961012084019660ff8760a01c161515885260ff610140860197818160a81c161515895260b01c161515610160860152016129d9565b910152519162ed4e008301809311611649576020924210159182611ebe575b508161163f57506040519015158152f35b5115915083611ead565b346105ad5760203660031901126105ad57335f9081525f516020613fe55f395f51905f52602052604090205460043590611f049060ff16612c56565b805f526011602052611f1c60ff60405f205416612b8c565b5f908152601060205260409020600801805460ff60a01b1916600160a01b179055005b346105ad5760203660031901126105ad57335f9081525f516020613fe55f395f51905f52602052604090205460043590611f7b9060ff16612c56565b805f526011602052611f9360ff60405f205416612b8c565b805f52601060205260ff600860405f20015460a81c16612009575f818152601060205260409020600801805461ffff60a81b191661010160a81b1790556001600160a01b03611fe18261341a565b16907f5dd59f4285b36241394b73f8f7ae03d0290b030a86803cf2562ecf33eeb617bd5f80a3005b60405162461bcd60e51b815260206004820152601660248201527514995dd85c9908185b1c9958591e4818db185a5b595960521b6044820152606490fd5b346105ad575f3660031901126105ad576020600854604051908152f35b346105ad5761207236612731565b600a549192916001600160a01b031633148015612198575b1561215457815f5260116020526120a760ff60405f205416612b8c565b5f828152600f60205260409020926001600160401b03821161058b576120d1826106d386546128fd565b5f93601f83116001146120ff5761070883805f516020613f655f395f51905f5296975f9161071f5750612c1d565b601f19831694815f5260205f20905f5b87811061213c5750845f516020613f655f395f51905f52969710610768575050600183811b01905561070b565b9091602060018192858801358155019301910161210f565b606460405162461bcd60e51b815260206004820152602060248201527f43616c6c6572206973206e6f74206f776e6572206e6f72206578656375746f726044820152fd5b50335f9081525f516020613fe55f395f51905f52602052604090205460ff1661208a565b346105ad5760203660031901126105ad576004356001600160401b0381116105ad576121ec9036906004016125a8565b6121f68151612b15565b905f5b815181101561224f578061220f60019284612b64565b515f52601060205260405f2061222d60096040519261141f84612552565b61018082015261223d8286612b64565b526122488185612b64565b50016121f9565b604051602080825281906108de908201866126ac565b346105ad5760403660031901126105ad5761227e612526565b60243561228a8161341a565b3315158061233c575b8061230f575b6122fc5781906001600160a01b0384811691167f8c5be1e5ebec7d5bd14f71427d1e84f3dd0314c0f7b2291e5b200ac8c7c3b9255f80a45f90815260046020526040902080546001600160a01b0319166001600160a01b03909216919091179055005b63a9fbf51f60e01b5f523360045260245ffd5b506001600160a01b0381165f90815260056020908152604080832033845290915290205460ff1615612299565b506001600160a01b038116331415612293565b346105ad5760203660031901126105ad576020611379600435612a92565b346105ad575f3660031901126105ad5760206040515f5160206140855f395f51905f528152f35b346105ad575f3660031901126105ad576040515f5f546123b3816128fd565b808452906001811690811561115a57506001146123da576108de836108ca8185038261256e565b5f8080527f290decd9548b62a8d60345a988386fc84ba6bc95484008f6362f93160ef3e563939250905b80821061241c575090915081016020016108ca6110ec565b919260018160209254838588010152019101909291612404565b346105ad5760203660031901126105ad5760043563ffffffff60e01b81168091036105ad57602090637965db0b60e01b811490811561247a57506040519015158152f35b63780e9d6360e01b811491508115612494575b5082611634565b6380ac58cd60e01b8114915081156124c6575b81156124b5575b508261248d565b6301ffc9a760e01b149050826124ae565b635b5e139f60e01b811491506124a7565b346105ad5760203660031901126105ad576020906004355f526011825260ff60405f20541615158152f35b805180835260209291819084018484015e5f828201840152601f01601f1916010190565b600435906001600160a01b03821682036105ad57565b602435906001600160a01b03821682036105ad57565b6101a081019081106001600160401b0382111761058b57604052565b601f909101601f19168101906001600160401b0382119082101761058b57604052565b6001600160401b03811161058b5760051b60200190565b9080601f830112156105ad5781356125bf81612591565b926125cd604051948561256e565b81845260208085019260051b8201019283116105ad57602001905b8282106125f55750505090565b81358152602091820191016125e8565b906101a06101806126a993805184526020810151602085015260408101516040850152606081015160608501526080810151608085015260a081015160a085015260c081015160c085015260e081015160e085015260018060a01b0361010082015116610100850152610120810151151561012085015261014081015115156101408501526101608101511515610160850152015191816101808201520190612502565b90565b9080602083519182815201916020808360051b8301019401925f915b8383106126d757505050505090565b90919293946020806126f5600193601f198682030187528951612605565b970193019301919392906126c8565b9181601f840112156105ad578235916001600160401b0383116105ad57602083818601950101116105ad57565b9060406003198301126105ad5760043591602435906001600160401b0382116105ad5761276091600401612704565b9091565b60609060031901126105ad576004356001600160a01b03811681036105ad57906024356001600160a01b03811681036105ad579060443590565b90602080835192838152019201905f5b8181106127bb5750505090565b82518452602093840193909201916001016127ae565b346105ad5760203660031901126105ad576004356127ed612ab6565b50805f52601160205261280660ff60405f205416612b8c565b5f5260106020526108de60405f206128b460096040519261282684612552565b8054845260018101546020850152600281015460408501526003810154606085015260048101546080850152600581015460a0850152600681015460c0850152600781015460e085015260ff600882015460018060a01b038116610100870152818160a01c161515610120870152818160a81c16151561014087015260b01c161515610160850152016129d9565b610180820152604051918291602083526020830190612605565b60409060031901126105ad576004356001600160a01b03811681036105ad579060243580151581036105ad5790565b90600182811c9216801561292b575b602083101461291757565b634e487b7160e01b5f52602260045260245ffd5b91607f169161290c565b604051905f82600e5491612948836128fd565b80835292600181169081156129ba575060011461296e575b61296c9250038361256e565b565b50600e5f90815290915f516020613f855f395f51905f525b81831061299e57505090602061296c92820101612960565b6020919350806001915483858901015201910190918492612986565b6020925061296c94915060ff191682840152151560051b820101612960565b9060405191825f8254926129ec846128fd565b8084529360018116908115612a555750600114612a11575b5061296c9250038361256e565b90505f9291925260205f20905f915b818310612a3957505090602061296c928201015f612a04565b6020919350806001915483858901015201910190918492612a20565b90506020925061296c94915060ff191682840152151560051b8201015f612a04565b6001600160401b03811161058b57601f01601f191660200190565b612a9b8161341a565b505f908152600460205260409020546001600160a01b031690565b60405190612ac382612552565b6060610180835f81525f60208201525f60408201525f838201525f60808201525f60a08201525f60c08201525f60e08201525f6101008201525f6101208201525f6101408201525f6101608201520152565b90612b1f82612591565b612b2c604051918261256e565b8281528092612b3d601f1991612591565b01905f5b828110612b4d57505050565b602090612b58612ab6565b82828501015201612b41565b8051821015612b785760209160051b010190565b634e487b7160e01b5f52603260045260245ffd5b15612b9357565b60405162461bcd60e51b8152602060048201526014602482015273151bdad95b88191bd95cc81b9bdd08195e1a5cdd60621b6044820152606490fd5b818110612bda575050565b5f8155600101612bcf565b9190601f8111612bf457505050565b61296c925f5260205f20906020601f840160051c830193106118f557601f0160051c0190612bcf565b8160011b915f199060031b1c19161790565b90918060409360208452816020850152848401375f828201840152601f01601f1916010190565b15612c5d57565b60405162461bcd60e51b815260206004820152601960248201527821b0b63632b91034b9903737ba1030b71032bc32b1baba37b960391b6044820152606490fd5b805460ff60a81b191691151560a81b60ff60a81b16919091179055565b805460ff60b01b191691151560b01b60ff60b01b16919091179055565b805460ff60a01b191691151560a01b60ff60a01b16919091179055565b9091906001600160a01b03831680156130145760ff600c5416612fd1573315159384612f79575b5f848152600260205260409020546001600160a01b03169480612ee9575b5084158015612ec8575b825f52600360205260405f2060018154019055845f52600260205260405f208360018060a01b03198254161790558483875f5160206140455f395f51905f525f80a415612e4b57600854845f5260096020528060405f2055600160401b81101561058b5784612dbc826001612dd4940160085561310f565b90919082549060031b91821b915f19901b1916179055565b818503612e0b575b50506001600160a01b0316808303612df357505050565b6364283d7b60e01b5f5260045260245260445260645ffd5b612e1490613167565b5f19810191908211611649575f52600660205260405f20815f526020528260405f2055825f52600760205260405f20555f80612ddc565b848214612dd457612e5b85613167565b845f52600760205260405f205490865f52600660205260405f2091818103612e9d575b50855f5260076020525f60408120555f526020525f6040812055612dd4565b815f528260205260405f2054815f52836020528060405f20555f52600760205260405f20555f612e7e565b612ed185613f27565b855f52600360205260405f205f198154019055612d44565b80612f28575b15612efa575f612d3a565b8385612f1257637e27328960e01b5f5260045260245ffd5b63177e802f60e01b5f523360045260245260445ffd5b503385148015612f57575b80612eef57505f848152600460205260409020546001600160a01b03163314612eef565b505f85815260056020908152604080832033845290915290205460ff16612f33565b835f52601060205260ff600860405f20015460b01c1615612d1c5760405162461bcd60e51b8152602060048201526015602482015274151bdad95b881d1c985b9cd9995c881b1bd8dad959605a1b6044820152606490fd5b60405162461bcd60e51b815260206004820152601b60248201527a151bdad95b881d1c985b9cd9995c881dda1a5b19481c185d5cd959602a1b6044820152606490fd5b633250574960e11b5f525f60045260245ffd5b5f5160206140855f395f51905f525f52600b6020527f722c076037ad8ffdcc6741eab5f84938edc5ad0e2aada3e8603ecd986134c0fc5490565b5f52600b602052600160405f20015490565b61307c81613167565b8210156130a45760018060a01b03165f52600660205260405f20905f5260205260405f205490565b63295f44f760e21b5f5260018060a01b031660045260245260445ffd5b6130cb81546128fd565b90816130d5575050565b81601f5f93116001146130e6575055565b8183526020832061310291601f0160051c810190600101612bcf565b8082528160208120915555565b600854811015612b785760085f5260205f2001905f90565b9061313182612591565b61313e604051918261256e565b828152809261314f601f1991612591565b0190602036910137565b5f1981146116495760010190565b6001600160a01b03168015613185575f52600360205260405f205490565b6322718ad960e21b5f525f60045260245ffd5b1561319f57565b60405162461bcd60e51b8152602060048201526019602482015278496e76616c696420726563697069656e74206164647265737360381b6044820152606490fd5b156131e757565b60405162461bcd60e51b815260206004820152601c60248201527b05072696365206d7573742062652067726561746572207468616e20360241b6044820152606490fd5b1561323257565b60405162461bcd60e51b8152602060048201526019602482015278496e76616c6964207265776172642070657263656e7461676560381b6044820152606490fd5b1561327a57565b60405162461bcd60e51b815260206004820152602360248201527f546f74616c20746f6b656e73206d75737420626520677265617465722074686160448201526206e20360ec1b6064820152608490fd5b156132d257565b60405162461bcd60e51b815260206004820152601c60248201527b436c6f73652064617465206d75737420626520696e2066757475726560201b6044820152606490fd5b1561331d57565b60405162461bcd60e51b815260206004820152602160248201527f456e642064617465206d75737420626520616674657220636c6f7365206461746044820152606560f81b6064820152608490fd5b805f52601160205261338460ff60405f205416612b8c565b805f52600f60205261339860405f206129d9565b6133a0612935565b908051613414575080516133c45750506040516133be60208261256e565b5f815290565b60056126a9916020806133d78196613e62565b6040519684889551918291018487015e8401908282015f8152815193849201905e010164173539b7b760d91b815203601a1981018452018261256e565b91505090565b5f818152600260205260409020546001600160a01b031690811561343c575090565b637e27328960e01b5f5260045260245ffd5b60ff600c5416612fd1575f818152600260205260409020546001600160a01b03908116921680151580613619575b50508115801590816135f8575b5f83815260026020526040812080546001600160a01b03191690558390855f5160206140455f395f51905f528280a41561357d5750600854815f5260096020528060405f2055600160401b81101561058b5781612dbc8260016134ef940160085561310f565b6008545f19810190811161164957815f52600960205261351360405f20549161310f565b90549060031b1c61352781612dbc8461310f565b5f52600960205260405f20555f5260096020525f60408120556008548015613569575f19016135558161310f565b8154905f199060031b1b1916905560085590565b634e487b7160e01b5f52603160045260245ffd5b156134ef5761358b82613167565b815f52600760205260405f205490835f52600660205260405f20918181036135cd575b50825f5260076020525f60408120555f526020525f60408120556134ef565b815f528260205260405f2054815f52836020528060405f20555f52600760205260405f20555f6135ae565b61360183613f27565b835f52600360205260405f205f198154019055613489565b80613657575b1561362a578061347c565b826136425750637e27328960e01b5f5260045260245ffd5b63177e802f60e01b5f5260045260245260445ffd5b508083148015613686575b8061361f57505f828152600460205260409020546001600160a01b0316811461361f565b50825f52600560205260405f20815f5260205260ff60405f205416613662565b5f818152600b6020908152604080832033845290915290205460ff16156136ca5750565b63e2517d3f60e01b5f523360045260245260445ffd5b6001600160a01b0381165f9081525f516020613fe55f395f51905f52602052604090205460ff16613760576001600160a01b03165f8181525f516020613fe55f395f51905f5260205260408120805460ff191660011790553391905f5160206140855f395f51905f52905f516020613f455f395f51905f529080a4600190565b505f90565b5f818152600b602090815260408083206001600160a01b038616845290915290205460ff166137d8575f818152600b602090815260408083206001600160a01b0395909516808452949091528120805460ff19166001179055339291905f516020613f455f395f51905f529080a4600190565b50505f90565b6001600160a01b0381165f9081525f516020613fe55f395f51905f52602052604090205460ff1615613760576001600160a01b03165f8181525f516020613fe55f395f51905f5260205260408120805460ff191690553391905f5160206140855f395f51905f52905f5160206140655f395f51905f529080a4600190565b5f818152600b602090815260408083206001600160a01b038616845290915290205460ff16156137d8575f818152600b602090815260408083206001600160a01b0395909516808452949091528120805460ff19169055339291905f5160206140655f395f51905f529080a4600190565b600a546001600160a01b031633036138e157565b63118cdaa760e01b5f523360045260245ffd5b600d545f805b828110613978575061390b90613127565b915f905f5b83811061391e575050505090565b805f52601160205260ff60405f2054168061395b575b613941575b600101613910565b91613953818461173160019489612b64565b929050613939565b506139658161341a565b6001600160a01b03838116911614613934565b805f52601160205260ff60405f205416806139af575b61399b575b6001016138fa565b906139a7600191613159565b919050613993565b506139b98161341a565b6001600160a01b0385811691161461398e565b600a80546001600160a01b039283166001600160a01b0319821681179092559091165f5160206140255f395f51905f525f80a3565b823b613a0f575b5050505050565b604051630a85bd0160e11b81526001600160a01b039182166004820152918116602483015260448201939093526080606482015291169160209082908190613a5b906084830190612502565b03815f865af15f9181613af2575b50613abe57503d15613ab7573d613a7f81612a77565b90613a8d604051928361256e565b81523d5f602083013e5b80519081613ab25782633250574960e11b5f5260045260245ffd5b602001fd5b6060613a97565b6001600160e01b03191663757a42ff60e11b01613ae057505f80808080613a08565b633250574960e11b5f5260045260245ffd5b9091506020813d602011613b2f575b81613b0e6020938361256e565b810103126105ad57516001600160e01b0319811681036105ad57905f613a69565b3d9150613b01565b60ff600c5416613b4357565b63d93c066560e01b5f5260045ffd5b9060209060405190613b64838361256e565b5f82526001600160a01b0384169384156130145760ff600c5416613e1f575f8281526002855260409020546001600160a01b031680158015919082613dff575b5f8881526003885260408082208054600101905586825260028952812080546001600160a01b0319168a1790558590899084905f5160206140455f395f51905f529080a415613d8957600854845f52600987528060405f2055600160401b81101561058b5784612dbc826001613c1d940160085561310f565b868103613d4e575b50613d3b573b613c36575b50505050565b91613c7391819495936040519384928392630a85bd0160e11b84523360048501525f60248501526044840152608060648401526084830190612502565b03815f885af15f9181613cfb575b50613cd65750503d15613cce573d90613c9982612a77565b91613ca7604051938461256e565b82523d5f8284013e5b81519182613ccb5783633250574960e11b5f5260045260245ffd5b01fd5b606090613cb0565b909291506001600160e01b03191663757a42ff60e11b01613ae057505f808080613c30565b9091508381813d8311613d34575b613d13818361256e565b810103126105ad57516001600160e01b0319811681036105ad57905f613c81565b503d613d09565b6339e3563760e11b5f525f60045260245ffd5b613d5783613167565b5f19810190811161164957875f526006875260405f20815f5287528460405f2055845f526007875260405f2055613c25565b808714613c1d57613d9981613167565b845f526007875260405f205490825f526006885260405f2091818103613dd7575b50855f52600788525f60408120555f5286525f6040812055613c1d565b815f5282895260405f2054815f52838a528060405f20555f526007895260405f20555f613dba565b613e0885613f27565b815f526003875260405f205f198154019055613ba4565b60405162461bcd60e51b815260048101859052601b60248201527a151bdad95b881d1c985b9cd9995c881dda1a5b19481c185d5cd959602a1b6044820152606490fd5b8015613f07575f81805b613ef35750613e7a81612a77565b90613e88604051928361256e565b808252601f19613e9782612a77565b013660208401375b80928015613eec575f198201918211611649578193600a820660300192836030116116495784511115612b7857600a9260f81b6001600160f81b0319165f1a908401601f01530491613e9f565b5050905090565b90613eff600a91613159565b910480613e6c565b50604051613f1660408261256e565b60018152600360fc1b602082015290565b5f90815260046020526040902080546001600160a01b031916905556fe2f8788117e7eff1d82e926ec794901d17c78024a50270940304540a733656f0d931f495b9a8e5d8e61946ea5d61e021f636cfe213a801f97589c18c152e408bdbb7b4a454dc3493923482f07822329ed19e8244eff582cc204f8554c3620c3fd90e929fbd463dd0bab90901d998cd0d0908551c0e028b559f240ef01b23058be19cc59039f8eb7ba436b5b291277e03e5209d6d8e48c1bdba4716897fc614b99722c076037ad8ffdcc6741eab5f84938edc5ad0e2aada3e8603ecd986134c0fb0aa07a7d01a8e97dec64df7f721c779f94884dfd3f5a0c61bfc2dd469032661d8be0079c531659141344cd1fd0a4f28419497f9722a3daafe3b4186f6b6457e0ddf252ad1be2c89b69c2b068fc378daa952ba7f163c4a11628f55a4df523b3eff6391f5c32d9c69d2a47ea670b442974b53935d1edc7fd64eb21e047a839171bd8aa0f3194971a2a116679f7c2090f6939c8d4e01a2a8d7e41d55e5351469e636741b2fc379fad678116fe3d4d4b9a1a184ab53ba36b86ad0fa66340b1ab41ada26469706673582212201ca10aea04b8e8a9d0092638bffb4080ed8a3c40013d308ac775c646c3385c5a64736f6c634300081c00332f8788117e7eff1d82e926ec794901d17c78024a50270940304540a733656f0ddf7de25b7f1fd6d0b5205f0e18f1f35bd7b8d84cce336588d184533ce43a6f76722c076037ad8ffdcc6741eab5f84938edc5ad0e2aada3e8603ecd986134c0fb",
  "linkReferences": {},
  "deployedLinkReferences": {},
  "immutableReferences": {},
  "inputSourceName": "project/contracts/DZNFT.sol",
  "buildInfoId": "solc-0_8_28-0c6f0f5e3c4f674ddb59090dbdc9a7309d214f11"
}