{
  "_format": "hh3-artifact-1",
  "contractName": "FundRaisingAnalytics",
  "sourceName": "contracts/FundRaisingAnalytics.sol",
  "abi": [
    {
      "inputs": [
        {
          "internalType": "address",
          "name": "_coreContract",
          "type": "address"
        }
      ],
      "stateMutability": "nonpayable",
      "type": "constructor"
    },
    {
      "inputs": [],
      "name": "coreContract",
      "outputs": [
        {
          "internalType": "contract FundRaisingCore",
          "name": "",
          "type": "address"
        }
      ],
      "stateMutability": "view",
      "type": "function"
    },
    {
      "inputs": [
        {
          "internalType": "uint256",
          "name": "roundId",
          "type": "uint256"
        }
      ],
      "name": "getInvestmentRound",
      "outputs": [
        {
          "components": [
            {
              "internalType": "uint256",
              "name": "roundId",
              "type": "uint256"
            },
            {
              "internalType": "string",
              "name": "roundName",
              "type": "string"
            },
            {
              "internalType": "uint256",
              "name": "tokenPrice",
              "type": "uint256"
            },
            {
              "internalType": "uint256",
              "name": "rewardPercentage",
              "type": "uint256"
            },
            {
              "internalType": "uint256",
              "name": "totalTokenOpenInvestment",
              "type": "uint256"
            },
            {
              "internalType": "uint256",
              "name": "tokensSold",
              "type": "uint256"
            },
            {
              "internalType": "uint256",
              "name": "closeDateInvestment",
              "type": "uint256"
            },
            {
              "internalType": "uint256",
              "name": "endDateInvestment",
              "type": "uint256"
            },
            {
              "internalType": "bool",
              "name": "isActive",
              "type": "bool"
            },
            {
              "internalType": "bool",
              "name": "exists",
              "type": "bool"
            },
            {
              "internalType": "uint256",
              "name": "createdAt",
              "type": "uint256"
            },
            {
              "internalType": "uint8",
              "name": "status",
              "type": "uint8"
            }
          ],
          "internalType": "struct FundRaisingAnalytics.InvestmentRound",
          "name": "round",
          "type": "tuple"
        },
        {
          "internalType": "bool",
          "name": "enableClaimReward",
          "type": "bool"
        }
      ],
      "stateMutability": "view",
      "type": "function"
    },
    {
      "inputs": [
        {
          "internalType": "address",
          "name": "investor",
          "type": "address"
        }
      ],
      "name": "getInvestorDetail",
      "outputs": [
        {
          "internalType": "uint256[]",
          "name": "roundIds",
          "type": "uint256[]"
        },
        {
          "components": [
            {
              "internalType": "uint256",
              "name": "roundId",
              "type": "uint256"
            },
            {
              "internalType": "string",
              "name": "roundName",
              "type": "string"
            },
            {
              "internalType": "uint256",
              "name": "tokenPrice",
              "type": "uint256"
            },
            {
              "internalType": "uint256",
              "name": "rewardPercentage",
              "type": "uint256"
            },
            {
              "internalType": "uint256",
              "name": "totalTokenOpenInvestment",
              "type": "uint256"
            },
            {
              "internalType": "uint256",
              "name": "tokensSold",
              "type": "uint256"
            },
            {
              "internalType": "uint256",
              "name": "closeDateInvestment",
              "type": "uint256"
            },
            {
              "internalType": "uint256",
              "name": "endDateInvestment",
              "type": "uint256"
            },
            {
              "internalType": "bool",
              "name": "isActive",
              "type": "bool"
            },
            {
              "internalType": "bool",
              "name": "exists",
              "type": "bool"
            },
            {
              "internalType": "uint256",
              "name": "createdAt",
              "type": "uint256"
            },
            {
              "internalType": "uint8",
              "name": "status",
              "type": "uint8"
            }
          ],
          "internalType": "struct FundRaisingAnalytics.InvestmentRound[]",
          "name": "rounds",
          "type": "tuple[]"
        },
        {
          "internalType": "uint256[][]",
          "name": "nfts",
          "type": "uint256[][]"
        }
      ],
      "stateMutability": "view",
      "type": "function"
    },
    {
      "inputs": [
        {
          "internalType": "address",
          "name": "investor",
          "type": "address"
        }
      ],
      "name": "getInvestorRounds",
      "outputs": [
        {
          "internalType": "uint256[]",
          "name": "",
          "type": "uint256[]"
        }
      ],
      "stateMutability": "view",
      "type": "function"
    },
    {
      "inputs": [
        {
          "internalType": "uint256",
          "name": "roundId",
          "type": "uint256"
        }
      ],
      "name": "getRoundTokenIds",
      "outputs": [
        {
          "internalType": "uint256[]",
          "name": "",
          "type": "uint256[]"
        }
      ],
      "stateMutability": "view",
      "type": "function"
    },
    {
      "inputs": [],
      "name": "getRoundsCount",
      "outputs": [
        {
          "internalType": "uint256",
          "name": "totalRounds",
          "type": "uint256"
        },
        {
          "internalType": "uint256",
          "name": "activeRounds",
          "type": "uint256"
        }
      ],
      "stateMutability": "view",
      "type": "function"
    },
    {
      "inputs": [
        {
          "internalType": "address",
          "name": "user",
          "type": "address"
        }
      ],
      "name": "getUserInvestments",
      "outputs": [
        {
          "internalType": "uint256[]",
          "name": "",
          "type": "uint256[]"
        }
      ],
      "stateMutability": "view",
      "type": "function"
    },
    {
      "inputs": [
        {
          "internalType": "uint256",
          "name": "roundId",
          "type": "uint256"
        },
        {
          "internalType": "address",
          "name": "user",
          "type": "address"
        }
      ],
      "name": "getUserNFTsInRound",
      "outputs": [
        {
          "internalType": "uint256[]",
          "name": "",
          "type": "uint256[]"
        }
      ],
      "stateMutability": "view",
      "type": "function"
    },
    {
      "inputs": [
        {
          "internalType": "uint256",
          "name": "roundId",
          "type": "uint256"
        }
      ],
      "name": "isClaimRewardEnabled",
      "outputs": [
        {
          "internalType": "bool",
          "name": "",
          "type": "bool"
        }
      ],
      "stateMutability": "view",
      "type": "function"
    }
  ],
  "bytecode": "0x60a0346100ee57601f610ef238819003918201601f19168301916001600160401b038311848410176100f2578084926020946040528339810103126100ee57516001600160a01b038116908190036100ee5780156100a957608052604051610deb9081610107823960805181818160ac01528181610159015281816101ca0152818161026e015281816103bb01528181610522015281816105a1015281816109940152610a0d0152f35b60405162461bcd60e51b815260206004820152601d60248201527f496e76616c696420636f726520636f6e747261637420616464726573730000006044820152606490fd5b5f80fd5b634e487b7160e01b5f52604160045260245ffdfe6080806040526004361015610012575f80fd5b5f3560e01c908163161f6622146109e35750806318f38da21461094a5780631f8cfb031461056957806330901347146104e0578063a09686c41461039c578063b82e4fc314610238578063c52c5c8814610188578063e80db5db146101445763ef2dcbee1461007f575f80fd5b3461014057602036600319011261014057604051631a7ef4f360e21b815260048035908201525f816024817f00000000000000000000000000000000000000000000000000000000000000006001600160a01b03165afa8015610135576020915f905f92610105575b50421190816100fd575b506040519015158152f35b90505f6100f2565b905061012391503d805f833e61011b8183610b7d565b810190610d2c565b5050509750509450505050505f6100e8565b6040513d5f823e3d90fd5b5f80fd5b34610140575f366003190112610140576040517f00000000000000000000000000000000000000000000000000000000000000006001600160a01b03168152602090f35b34610140576020366003190112610140576101a1610a8b565b6040516318a58b9160e31b81526001600160a01b039182166004820152905f90829060249082907f0000000000000000000000000000000000000000000000000000000000000000165afa801561013557610212915f91610216575b50604051918291602083526020830190610a58565b0390f35b61023291503d805f833e61022a8183610b7d565b810190610bb7565b826101fd565b3461014057602036600319011261014057610251610c49565b50604051631a7ef4f360e21b815260048035908201525f816024817f00000000000000000000000000000000000000000000000000000000000000006001600160a01b03165afa8015610135575f915f915f935f915f935f935f5f955f975f935f955f97610363575b50600587101561034f5761033b9b6102d99b60ff996040519d8e610b4d565b8d5260208d015260408c015260608b015260808a015260a089015260c08801528460e088015285151561010088015215156101208701526101408601521661016084015242119081610347575b50604051928392604084526040840190610aa1565b90151560208301520390f35b905083610326565b634e487b7160e01b5f52602160045260245ffd5b9a505050505050505050505061038391503d805f833e61011b8183610b7d565b989a92989397929693959094919391929091908c6102ba565b34610140575f366003190112610140576040516330814b1b60e01b81527f00000000000000000000000000000000000000000000000000000000000000006001600160a01b031690602081600481855afa908115610135575f916104ae575b505f915f5b828110610417576040838582519182526020820152f35b604051631a7ef4f360e21b8152600481018290525f81602481865afa908115610135575f905f92610486575b508161047e575b50610458575b600101610400565b925f19811461046a5760010192610450565b634e487b7160e01b5f52601160045260245ffd5b90508561044a565b905061049c91503d805f833e61011b8183610b7d565b50509850965050505050505086610443565b90506020813d6020116104d8575b816104c960209383610b7d565b810103126101405751826103fb565b3d91506104bc565b34610140576020366003190112610140576104f9610a8b565b604051633090134760e01b81526001600160a01b039182166004820152905f90829060249082907f0000000000000000000000000000000000000000000000000000000000000000165afa801561013557610212915f916102165750604051918291602083526020830190610a58565b3461014057602036600319011261014057610582610a8b565b604051633090134760e01b81526001600160a01b0382811660048301527f000000000000000000000000000000000000000000000000000000000000000016915f82602481865afa918215610135575f9261092e575b508151906105e582610ba0565b916105f36040519384610b7d565b808352610602601f1991610ba0565b015f5b81811061091757505082519361061a85610ba0565b946106286040519687610b7d565b808652610637601f1991610ba0565b015f5b8181106109065750505f5b845181101561080f576106588186610ca2565b51906040519163b82e4fc360e01b835260048301525f82602481305afa8015610135575f90610706575b6106ba92506106918287610ca2565b525f8461069e8389610ca2565b51604051630c79c6d160e11b8152948592839260048401610c30565b0381865afa8015610135576001925f916106ec575b506106da8289610ca2565b526106e58188610ca2565b5001610645565b61070091503d805f833e61022a8183610b7d565b886106cf565b503d805f843e6107168184610b7d565b82016040838203126101405782516001600160401b0381116101405783019061018082820312610140576040519161074d83610b4d565b8051835260208101516001600160401b0381116101405761016092610773918301610cca565b602084015260408101516040840152606081015160608401526080810151608084015260a081015160a084015260c081015160c084015260e081015160e08401526107c16101008201610d1f565b6101008401526107d46101208201610d1f565b61012084015261014081015161014084015201519260ff84168403610140576020610809916106ba9561016085015201610d1f565b50610682565b5050509161082860405192606084526060840190610a58565b8281036020840152835180825260208201916020808360051b8301019601925f915b8383106108d9578787878183036040830152805180845260208401906020808260051b8701019301915f905b8282106108835785850386f35b90919293601f19878203018252845190602080835192838152019201905f905b8082106108c157505050602080600192960192019201909291610876565b909192602080600192865181520194019201906108a3565b90919293966020806108f7600193601f198682030187528b51610aa1565b9901930193019193929061084a565b806060602080938a0101520161063a565b602090610922610c49565b82828701015201610605565b6109439192503d805f833e61022a8183610b7d565b90836105d8565b34610140576040366003190112610140576024356001600160a01b0381168103610140575f6109909160405180938192630c79c6d160e11b835260043560048401610c30565b03817f00000000000000000000000000000000000000000000000000000000000000006001600160a01b03165afa801561013557610212915f916102165750604051918291602083526020830190610a58565b3461014057602036600319011261014057630b0fb31160e11b815260048035908201525f816024817f00000000000000000000000000000000000000000000000000000000000000006001600160a01b03165afa801561013557610212915f9161021657506040519182916020835260208301905b90602080835192838152019201905f5b818110610a755750505090565b8251845260209384019390920191600101610a68565b600435906001600160a01b038216820361014057565b90602060ff6101606101a094805185528381015161018085870152805194859182610180890152018787015e5f86858701015260408101516040860152606081015160608601526080810151608086015260a081015160a086015260c081015160c086015260e081015160e086015261010081015115156101008601526101208101511515610120860152610140810151610140860152015116610160830152601f8019910116010190565b61018081019081106001600160401b03821117610b6957604052565b634e487b7160e01b5f52604160045260245ffd5b601f909101601f19168101906001600160401b03821190821017610b6957604052565b6001600160401b038111610b695760051b60200190565b602081830312610140578051906001600160401b03821161014057019080601f83011215610140578151610bea81610ba0565b92610bf86040519485610b7d565b81845260208085019260051b82010192831161014057602001905b828210610c205750505090565b8151815260209182019101610c13565b9081526001600160a01b03909116602082015260400190565b60405190610c5682610b4d565b5f61016083828152606060208201528260408201528260608201528260808201528260a08201528260c08201528260e08201528261010082015282610120820152826101408201520152565b8051821015610cb65760209160051b010190565b634e487b7160e01b5f52603260045260245ffd5b81601f82011215610140578051906001600160401b038211610b695760405192610cfe601f8401601f191660200185610b7d565b8284526020838301011161014057815f9260208093018386015e8301015290565b5190811515820361014057565b91909161018081840312610140578051602082015190936001600160401b03821161014057610d5c918301610cca565b9160408201519160608101519160808201519160a08101519160c08201519160e081015191610d8e6101008301610d1f565b91610d9c6101208201610d1f565b916101606101408301519201516005811015610140579056fea2646970667358221220b9ecbc454195a680634e613033a0abb7d5fab5d181d1122ebcd305eac3054c2264736f6c634300081c0033",
  "linkReferences": {},
  "deployedLinkReferences": {},
  "immutableReferences": {
    "9980": [
      {
        "length": 32,
        "start": 172
      },
      {
        "length": 32,
        "start": 345
      },
      {
        "length": 32,
        "start": 458
      },
      {
        "length": 32,
        "start": 622
      },
      {
        "length": 32,
        "start": 955
      },
      {
        "length": 32,
        "start": 1314
      },
      {
        "length": 32,
        "start": 1441
      },
      {
        "length": 32,
        "start": 2452
      },
      {
        "length": 32,
        "start": 2573
      }
    ]
  },
  "inputSourceName": "project/contracts/FundRaisingAnalytics.sol",
  "buildInfoId": "solc-0_8_28-96ca6ce984d4601b692cc4cfe561538586eb7571"
}