{
  "_format": "hh3-artifact-1",
  "contractName": "FundRaisingContractNFT",
  "sourceName": "contracts/FundRaisingContractNFT.sol",
  "abi": [
    {
      "inputs": [
        {
          "internalType": "address",
          "name": "_dzNFT",
          "type": "address"
        },
        {
          "internalType": "address",
          "name": "_usdtToken",
          "type": "address"
        }
      ],
      "stateMutability": "nonpayable",
      "type": "constructor"
    },
    {
      "inputs": [],
      "name": "EnforcedPause",
      "type": "error"
    },
    {
      "inputs": [],
      "name": "ExpectedPause",
      "type": "error"
    },
    {
      "inputs": [
        {
          "internalType": "address",
          "name": "owner",
          "type": "address"
        }
      ],
      "name": "OwnableInvalidOwner",
      "type": "error"
    },
    {
      "inputs": [
        {
          "internalType": "address",
          "name": "account",
          "type": "address"
        }
      ],
      "name": "OwnableUnauthorizedAccount",
      "type": "error"
    },
    {
      "inputs": [],
      "name": "ReentrancyGuardReentrantCall",
      "type": "error"
    },
    {
      "anonymous": false,
      "inputs": [
        {
          "indexed": true,
          "internalType": "uint256",
          "name": "tokenId",
          "type": "uint256"
        },
        {
          "indexed": true,
          "internalType": "address",
          "name": "investor",
          "type": "address"
        },
        {
          "indexed": false,
          "internalType": "uint256",
          "name": "rewardAmount",
          "type": "uint256"
        }
      ],
      "name": "EarlyRewardClaimed",
      "type": "event"
    },
    {
      "anonymous": false,
      "inputs": [
        {
          "indexed": true,
          "internalType": "uint256",
          "name": "roundId",
          "type": "uint256"
        },
        {
          "indexed": true,
          "internalType": "uint256",
          "name": "tokenId",
          "type": "uint256"
        },
        {
          "indexed": true,
          "internalType": "address",
          "name": "investor",
          "type": "address"
        },
        {
          "indexed": false,
          "internalType": "uint256",
          "name": "amountUSDT",
          "type": "uint256"
        },
        {
          "indexed": false,
          "internalType": "uint256",
          "name": "tokensReceived",
          "type": "uint256"
        }
      ],
      "name": "InvestmentMade",
      "type": "event"
    },
    {
      "anonymous": false,
      "inputs": [
        {
          "indexed": true,
          "internalType": "address",
          "name": "previousOwner",
          "type": "address"
        },
        {
          "indexed": true,
          "internalType": "address",
          "name": "newOwner",
          "type": "address"
        }
      ],
      "name": "OwnershipTransferred",
      "type": "event"
    },
    {
      "anonymous": false,
      "inputs": [
        {
          "indexed": false,
          "internalType": "address",
          "name": "account",
          "type": "address"
        }
      ],
      "name": "Paused",
      "type": "event"
    },
    {
      "anonymous": false,
      "inputs": [
        {
          "indexed": true,
          "internalType": "uint256",
          "name": "tokenId",
          "type": "uint256"
        },
        {
          "indexed": true,
          "internalType": "address",
          "name": "investor",
          "type": "address"
        },
        {
          "indexed": false,
          "internalType": "uint256",
          "name": "payout",
          "type": "uint256"
        }
      ],
      "name": "RedemptionMade",
      "type": "event"
    },
    {
      "anonymous": false,
      "inputs": [
        {
          "indexed": true,
          "internalType": "uint256",
          "name": "roundId",
          "type": "uint256"
        },
        {
          "indexed": false,
          "internalType": "string",
          "name": "roundName",
          "type": "string"
        },
        {
          "indexed": false,
          "internalType": "uint256",
          "name": "tokenPrice",
          "type": "uint256"
        },
        {
          "indexed": false,
          "internalType": "uint256",
          "name": "rewardPercentage",
          "type": "uint256"
        },
        {
          "indexed": false,
          "internalType": "uint256",
          "name": "totalTokenOpenInvestment",
          "type": "uint256"
        },
        {
          "indexed": false,
          "internalType": "uint256",
          "name": "closeDateInvestment",
          "type": "uint256"
        },
        {
          "indexed": false,
          "internalType": "uint256",
          "name": "endDateInvestment",
          "type": "uint256"
        }
      ],
      "name": "RoundCreated",
      "type": "event"
    },
    {
      "anonymous": false,
      "inputs": [
        {
          "indexed": true,
          "internalType": "uint256",
          "name": "roundId",
          "type": "uint256"
        },
        {
          "indexed": false,
          "internalType": "uint256",
          "name": "amount",
          "type": "uint256"
        }
      ],
      "name": "RoundEmergencyWithdraw",
      "type": "event"
    },
    {
      "anonymous": false,
      "inputs": [
        {
          "indexed": true,
          "internalType": "uint256",
          "name": "roundId",
          "type": "uint256"
        },
        {
          "indexed": false,
          "internalType": "uint256",
          "name": "amount",
          "type": "uint256"
        }
      ],
      "name": "RoundFunded",
      "type": "event"
    },
    {
      "anonymous": false,
      "inputs": [
        {
          "indexed": true,
          "internalType": "uint256",
          "name": "roundId",
          "type": "uint256"
        },
        {
          "indexed": false,
          "internalType": "bool",
          "name": "isActive",
          "type": "bool"
        }
      ],
      "name": "RoundStatusChanged",
      "type": "event"
    },
    {
      "anonymous": false,
      "inputs": [
        {
          "indexed": true,
          "internalType": "address",
          "name": "oldToken",
          "type": "address"
        },
        {
          "indexed": true,
          "internalType": "address",
          "name": "newToken",
          "type": "address"
        }
      ],
      "name": "USDTTokenUpdated",
      "type": "event"
    },
    {
      "anonymous": false,
      "inputs": [
        {
          "indexed": false,
          "internalType": "address",
          "name": "account",
          "type": "address"
        }
      ],
      "name": "Unpaused",
      "type": "event"
    },
    {
      "inputs": [],
      "name": "MAX_BATCH_CLAIM",
      "outputs": [
        {
          "internalType": "uint256",
          "name": "",
          "type": "uint256"
        }
      ],
      "stateMutability": "view",
      "type": "function"
    },
    {
      "inputs": [],
      "name": "MAX_TOKENS_PER_INVESTMENT",
      "outputs": [
        {
          "internalType": "uint256",
          "name": "",
          "type": "uint256"
        }
      ],
      "stateMutability": "view",
      "type": "function"
    },
    {
      "inputs": [],
      "name": "USDT_DECIMALS",
      "outputs": [
        {
          "internalType": "uint256",
          "name": "",
          "type": "uint256"
        }
      ],
      "stateMutability": "view",
      "type": "function"
    },
    {
      "inputs": [
        {
          "internalType": "uint256",
          "name": "roundId",
          "type": "uint256"
        },
        {
          "internalType": "uint256",
          "name": "amount",
          "type": "uint256"
        }
      ],
      "name": "addReward",
      "outputs": [],
      "stateMutability": "nonpayable",
      "type": "function"
    },
    {
      "inputs": [
        {
          "internalType": "uint256",
          "name": "tokenId",
          "type": "uint256"
        }
      ],
      "name": "canTokenClaimEarlyReward",
      "outputs": [
        {
          "internalType": "bool",
          "name": "",
          "type": "bool"
        }
      ],
      "stateMutability": "view",
      "type": "function"
    },
    {
      "inputs": [
        {
          "internalType": "uint256",
          "name": "tokenId",
          "type": "uint256"
        }
      ],
      "name": "canTokenFullyRedeem",
      "outputs": [
        {
          "internalType": "bool",
          "name": "",
          "type": "bool"
        }
      ],
      "stateMutability": "view",
      "type": "function"
    },
    {
      "inputs": [
        {
          "internalType": "uint256",
          "name": "roundId",
          "type": "uint256"
        }
      ],
      "name": "claimRewardRound",
      "outputs": [],
      "stateMutability": "nonpayable",
      "type": "function"
    },
    {
      "inputs": [
        {
          "internalType": "uint256",
          "name": "tokenId",
          "type": "uint256"
        }
      ],
      "name": "claimRewards",
      "outputs": [],
      "stateMutability": "nonpayable",
      "type": "function"
    },
    {
      "inputs": [
        {
          "internalType": "string",
          "name": "roundName",
          "type": "string"
        },
        {
          "internalType": "uint256",
          "name": "tokenPrice",
          "type": "uint256"
        },
        {
          "internalType": "uint256",
          "name": "rewardPercentage",
          "type": "uint256"
        },
        {
          "internalType": "uint256",
          "name": "totalTokenOpenInvestment",
          "type": "uint256"
        },
        {
          "internalType": "uint256",
          "name": "closeDateInvestment",
          "type": "uint256"
        },
        {
          "internalType": "uint256",
          "name": "endDateInvestment",
          "type": "uint256"
        }
      ],
      "name": "createInvestmentRound",
      "outputs": [
        {
          "internalType": "uint256",
          "name": "",
          "type": "uint256"
        }
      ],
      "stateMutability": "nonpayable",
      "type": "function"
    },
    {
      "inputs": [],
      "name": "currentRoundId",
      "outputs": [
        {
          "internalType": "uint256",
          "name": "",
          "type": "uint256"
        }
      ],
      "stateMutability": "view",
      "type": "function"
    },
    {
      "inputs": [],
      "name": "dzNFT",
      "outputs": [
        {
          "internalType": "contract DZNFT",
          "name": "",
          "type": "address"
        }
      ],
      "stateMutability": "view",
      "type": "function"
    },
    {
      "inputs": [
        {
          "internalType": "uint256",
          "name": "amount",
          "type": "uint256"
        }
      ],
      "name": "emergencyWithdraw",
      "outputs": [],
      "stateMutability": "nonpayable",
      "type": "function"
    },
    {
      "inputs": [
        {
          "internalType": "uint256",
          "name": "roundId",
          "type": "uint256"
        },
        {
          "internalType": "uint256",
          "name": "amount",
          "type": "uint256"
        }
      ],
      "name": "emergencyWithdrawFromRound",
      "outputs": [],
      "stateMutability": "nonpayable",
      "type": "function"
    },
    {
      "inputs": [
        {
          "internalType": "uint256",
          "name": "amount",
          "type": "uint256"
        }
      ],
      "name": "fundContract",
      "outputs": [],
      "stateMutability": "nonpayable",
      "type": "function"
    },
    {
      "inputs": [],
      "name": "getAllRoundUSDTBalances",
      "outputs": [
        {
          "internalType": "uint256[]",
          "name": "roundIds",
          "type": "uint256[]"
        },
        {
          "internalType": "uint256[]",
          "name": "balances",
          "type": "uint256[]"
        }
      ],
      "stateMutability": "view",
      "type": "function"
    },
    {
      "inputs": [
        {
          "internalType": "uint256",
          "name": "offset",
          "type": "uint256"
        },
        {
          "internalType": "uint256",
          "name": "limit",
          "type": "uint256"
        },
        {
          "internalType": "enum FundRaisingContractNFT.SortField",
          "name": "sortField",
          "type": "uint8"
        },
        {
          "internalType": "enum FundRaisingContractNFT.SortDirection",
          "name": "sortDirection",
          "type": "uint8"
        }
      ],
      "name": "getAllRoundsDetailedPaginated",
      "outputs": [
        {
          "components": [
            {
              "internalType": "uint256",
              "name": "roundId",
              "type": "uint256"
            },
            {
              "internalType": "string",
              "name": "roundName",
              "type": "string"
            },
            {
              "internalType": "uint256",
              "name": "tokenPrice",
              "type": "uint256"
            },
            {
              "internalType": "uint256",
              "name": "rewardPercentage",
              "type": "uint256"
            },
            {
              "internalType": "uint256",
              "name": "totalTokenOpenInvestment",
              "type": "uint256"
            },
            {
              "internalType": "uint256",
              "name": "tokensSold",
              "type": "uint256"
            },
            {
              "internalType": "uint256",
              "name": "closeDateInvestment",
              "type": "uint256"
            },
            {
              "internalType": "uint256",
              "name": "endDateInvestment",
              "type": "uint256"
            },
            {
              "internalType": "bool",
              "name": "isActive",
              "type": "bool"
            },
            {
              "internalType": "bool",
              "name": "exists",
              "type": "bool"
            },
            {
              "internalType": "uint256",
              "name": "createdAt",
              "type": "uint256"
            }
          ],
          "internalType": "struct FundRaisingContractNFT.InvestmentRound[]",
          "name": "rounds",
          "type": "tuple[]"
        },
        {
          "internalType": "uint256[]",
          "name": "investorCounts",
          "type": "uint256[]"
        },
        {
          "internalType": "uint256",
          "name": "totalPages",
          "type": "uint256"
        },
        {
          "internalType": "uint256",
          "name": "currentPage",
          "type": "uint256"
        },
        {
          "internalType": "bool",
          "name": "hasMore",
          "type": "bool"
        }
      ],
      "stateMutability": "view",
      "type": "function"
    },
    {
      "inputs": [
        {
          "internalType": "uint256",
          "name": "offset",
          "type": "uint256"
        },
        {
          "internalType": "uint256",
          "name": "limit",
          "type": "uint256"
        }
      ],
      "name": "getAllRoundsDetailedPaginatedDefault",
      "outputs": [
        {
          "components": [
            {
              "internalType": "uint256",
              "name": "roundId",
              "type": "uint256"
            },
            {
              "internalType": "string",
              "name": "roundName",
              "type": "string"
            },
            {
              "internalType": "uint256",
              "name": "tokenPrice",
              "type": "uint256"
            },
            {
              "internalType": "uint256",
              "name": "rewardPercentage",
              "type": "uint256"
            },
            {
              "internalType": "uint256",
              "name": "totalTokenOpenInvestment",
              "type": "uint256"
            },
            {
              "internalType": "uint256",
              "name": "tokensSold",
              "type": "uint256"
            },
            {
              "internalType": "uint256",
              "name": "closeDateInvestment",
              "type": "uint256"
            },
            {
              "internalType": "uint256",
              "name": "endDateInvestment",
              "type": "uint256"
            },
            {
              "internalType": "bool",
              "name": "isActive",
              "type": "bool"
            },
            {
              "internalType": "bool",
              "name": "exists",
              "type": "bool"
            },
            {
              "internalType": "uint256",
              "name": "createdAt",
              "type": "uint256"
            }
          ],
          "internalType": "struct FundRaisingContractNFT.InvestmentRound[]",
          "name": "rounds",
          "type": "tuple[]"
        },
        {
          "internalType": "uint256[]",
          "name": "investorCounts",
          "type": "uint256[]"
        },
        {
          "internalType": "uint256",
          "name": "totalPages",
          "type": "uint256"
        },
        {
          "internalType": "uint256",
          "name": "currentPage",
          "type": "uint256"
        },
        {
          "internalType": "bool",
          "name": "hasMore",
          "type": "bool"
        }
      ],
      "stateMutability": "view",
      "type": "function"
    },
    {
      "inputs": [],
      "name": "getAllRoundsSummary",
      "outputs": [
        {
          "internalType": "uint256[]",
          "name": "roundIds",
          "type": "uint256[]"
        },
        {
          "internalType": "string[]",
          "name": "roundNames",
          "type": "string[]"
        },
        {
          "internalType": "bool[]",
          "name": "roundStatuses",
          "type": "bool[]"
        },
        {
          "internalType": "uint256[]",
          "name": "totalRaised",
          "type": "uint256[]"
        },
        {
          "internalType": "bool[]",
          "name": "isInvestmentOpenArray",
          "type": "bool[]"
        }
      ],
      "stateMutability": "view",
      "type": "function"
    },
    {
      "inputs": [
        {
          "internalType": "uint256",
          "name": "offset",
          "type": "uint256"
        },
        {
          "internalType": "uint256",
          "name": "limit",
          "type": "uint256"
        },
        {
          "internalType": "enum FundRaisingContractNFT.SortField",
          "name": "sortField",
          "type": "uint8"
        },
        {
          "internalType": "enum FundRaisingContractNFT.SortDirection",
          "name": "sortDirection",
          "type": "uint8"
        }
      ],
      "name": "getAllRoundsSummaryPaginated",
      "outputs": [
        {
          "internalType": "uint256[]",
          "name": "roundIds",
          "type": "uint256[]"
        },
        {
          "internalType": "string[]",
          "name": "roundNames",
          "type": "string[]"
        },
        {
          "internalType": "bool[]",
          "name": "roundStatuses",
          "type": "bool[]"
        },
        {
          "internalType": "uint256[]",
          "name": "totalRaised",
          "type": "uint256[]"
        },
        {
          "internalType": "bool[]",
          "name": "isInvestmentOpenArray",
          "type": "bool[]"
        },
        {
          "internalType": "uint256[]",
          "name": "availableTokensArray",
          "type": "uint256[]"
        },
        {
          "internalType": "uint256[]",
          "name": "daysUntilCloseArray",
          "type": "uint256[]"
        },
        {
          "internalType": "uint256",
          "name": "totalPages",
          "type": "uint256"
        },
        {
          "internalType": "uint256",
          "name": "currentPage",
          "type": "uint256"
        },
        {
          "internalType": "bool",
          "name": "hasMore",
          "type": "bool"
        }
      ],
      "stateMutability": "view",
      "type": "function"
    },
    {
      "inputs": [
        {
          "internalType": "uint256",
          "name": "offset",
          "type": "uint256"
        },
        {
          "internalType": "uint256",
          "name": "limit",
          "type": "uint256"
        }
      ],
      "name": "getAllRoundsSummaryPaginatedDefault",
      "outputs": [
        {
          "internalType": "uint256[]",
          "name": "roundIds",
          "type": "uint256[]"
        },
        {
          "internalType": "string[]",
          "name": "roundNames",
          "type": "string[]"
        },
        {
          "internalType": "bool[]",
          "name": "roundStatuses",
          "type": "bool[]"
        },
        {
          "internalType": "uint256[]",
          "name": "totalRaised",
          "type": "uint256[]"
        },
        {
          "internalType": "bool[]",
          "name": "isInvestmentOpenArray",
          "type": "bool[]"
        },
        {
          "internalType": "uint256[]",
          "name": "availableTokensArray",
          "type": "uint256[]"
        },
        {
          "internalType": "uint256[]",
          "name": "daysUntilCloseArray",
          "type": "uint256[]"
        },
        {
          "internalType": "uint256",
          "name": "totalPages",
          "type": "uint256"
        },
        {
          "internalType": "uint256",
          "name": "currentPage",
          "type": "uint256"
        },
        {
          "internalType": "bool",
          "name": "hasMore",
          "type": "bool"
        }
      ],
      "stateMutability": "view",
      "type": "function"
    },
    {
      "inputs": [
        {
          "internalType": "uint256",
          "name": "roundId",
          "type": "uint256"
        }
      ],
      "name": "getAvailableTokens",
      "outputs": [
        {
          "internalType": "uint256",
          "name": "",
          "type": "uint256"
        }
      ],
      "stateMutability": "view",
      "type": "function"
    },
    {
      "inputs": [
        {
          "internalType": "uint256",
          "name": "roundId",
          "type": "uint256"
        }
      ],
      "name": "getCalculationRewardAmount",
      "outputs": [
        {
          "internalType": "uint256",
          "name": "totalPrincipalAmount",
          "type": "uint256"
        },
        {
          "internalType": "uint256",
          "name": "totalRewardAmount",
          "type": "uint256"
        },
        {
          "internalType": "uint256",
          "name": "totalNFTs",
          "type": "uint256"
        },
        {
          "internalType": "uint256",
          "name": "redeemedNFTs",
          "type": "uint256"
        },
        {
          "internalType": "uint256",
          "name": "rewardClaimedNFTs",
          "type": "uint256"
        }
      ],
      "stateMutability": "view",
      "type": "function"
    },
    {
      "inputs": [],
      "name": "getContractStats",
      "outputs": [
        {
          "internalType": "uint256",
          "name": "totalRounds",
          "type": "uint256"
        },
        {
          "internalType": "uint256",
          "name": "totalUSDTRaisedAmount",
          "type": "uint256"
        },
        {
          "internalType": "uint256",
          "name": "contractUSDTBalance",
          "type": "uint256"
        },
        {
          "internalType": "uint256",
          "name": "activeRounds",
          "type": "uint256"
        }
      ],
      "stateMutability": "view",
      "type": "function"
    },
    {
      "inputs": [],
      "name": "getContractUSDTBalance",
      "outputs": [
        {
          "internalType": "uint256",
          "name": "",
          "type": "uint256"
        }
      ],
      "stateMutability": "view",
      "type": "function"
    },
    {
      "inputs": [
        {
          "internalType": "uint256",
          "name": "roundId",
          "type": "uint256"
        }
      ],
      "name": "getInvestmentRound",
      "outputs": [
        {
          "components": [
            {
              "internalType": "uint256",
              "name": "roundId",
              "type": "uint256"
            },
            {
              "internalType": "string",
              "name": "roundName",
              "type": "string"
            },
            {
              "internalType": "uint256",
              "name": "tokenPrice",
              "type": "uint256"
            },
            {
              "internalType": "uint256",
              "name": "rewardPercentage",
              "type": "uint256"
            },
            {
              "internalType": "uint256",
              "name": "totalTokenOpenInvestment",
              "type": "uint256"
            },
            {
              "internalType": "uint256",
              "name": "tokensSold",
              "type": "uint256"
            },
            {
              "internalType": "uint256",
              "name": "closeDateInvestment",
              "type": "uint256"
            },
            {
              "internalType": "uint256",
              "name": "endDateInvestment",
              "type": "uint256"
            },
            {
              "internalType": "bool",
              "name": "isActive",
              "type": "bool"
            },
            {
              "internalType": "bool",
              "name": "exists",
              "type": "bool"
            },
            {
              "internalType": "uint256",
              "name": "createdAt",
              "type": "uint256"
            }
          ],
          "internalType": "struct FundRaisingContractNFT.InvestmentRound",
          "name": "",
          "type": "tuple"
        }
      ],
      "stateMutability": "view",
      "type": "function"
    },
    {
      "inputs": [
        {
          "internalType": "uint256",
          "name": "roundId",
          "type": "uint256"
        }
      ],
      "name": "getRoundInformation",
      "outputs": [
        {
          "components": [
            {
              "internalType": "uint256",
              "name": "roundId",
              "type": "uint256"
            },
            {
              "internalType": "string",
              "name": "roundName",
              "type": "string"
            },
            {
              "internalType": "uint256",
              "name": "tokenPrice",
              "type": "uint256"
            },
            {
              "internalType": "uint256",
              "name": "rewardPercentage",
              "type": "uint256"
            },
            {
              "internalType": "uint256",
              "name": "totalTokenOpenInvestment",
              "type": "uint256"
            },
            {
              "internalType": "uint256",
              "name": "tokensSold",
              "type": "uint256"
            },
            {
              "internalType": "uint256",
              "name": "closeDateInvestment",
              "type": "uint256"
            },
            {
              "internalType": "uint256",
              "name": "endDateInvestment",
              "type": "uint256"
            },
            {
              "internalType": "bool",
              "name": "isActive",
              "type": "bool"
            },
            {
              "internalType": "bool",
              "name": "exists",
              "type": "bool"
            },
            {
              "internalType": "uint256",
              "name": "createdAt",
              "type": "uint256"
            }
          ],
          "internalType": "struct FundRaisingContractNFT.InvestmentRound",
          "name": "roundInfo",
          "type": "tuple"
        },
        {
          "internalType": "uint256",
          "name": "totalUSDTRaisedInRound",
          "type": "uint256"
        },
        {
          "internalType": "uint256",
          "name": "totalInvestors",
          "type": "uint256"
        },
        {
          "internalType": "uint256",
          "name": "availableTokens",
          "type": "uint256"
        },
        {
          "internalType": "bool",
          "name": "isInvestmentOpen",
          "type": "bool"
        },
        {
          "internalType": "bool",
          "name": "isRedemptionOpen",
          "type": "bool"
        },
        {
          "internalType": "uint256",
          "name": "daysUntilClose",
          "type": "uint256"
        },
        {
          "internalType": "uint256",
          "name": "daysUntilRedemption",
          "type": "uint256"
        }
      ],
      "stateMutability": "view",
      "type": "function"
    },
    {
      "inputs": [
        {
          "internalType": "uint256",
          "name": "roundId",
          "type": "uint256"
        }
      ],
      "name": "getRoundInvestors",
      "outputs": [
        {
          "internalType": "address[]",
          "name": "investors",
          "type": "address[]"
        },
        {
          "internalType": "uint256[]",
          "name": "nftCounts",
          "type": "uint256[]"
        }
      ],
      "stateMutability": "view",
      "type": "function"
    },
    {
      "inputs": [
        {
          "internalType": "uint256",
          "name": "roundId",
          "type": "uint256"
        }
      ],
      "name": "getRoundMetrics",
      "outputs": [
        {
          "internalType": "uint256",
          "name": "soldPercentage",
          "type": "uint256"
        },
        {
          "internalType": "uint256",
          "name": "averageInvestmentSize",
          "type": "uint256"
        },
        {
          "internalType": "uint256",
          "name": "totalRewardsPaid",
          "type": "uint256"
        },
        {
          "internalType": "uint256",
          "name": "totalPrincipalRedeemed",
          "type": "uint256"
        },
        {
          "internalType": "uint256",
          "name": "earlyRewardsClaimed",
          "type": "uint256"
        },
        {
          "internalType": "uint256",
          "name": "fullRedemptions",
          "type": "uint256"
        }
      ],
      "stateMutability": "view",
      "type": "function"
    },
    {
      "inputs": [
        {
          "internalType": "uint256",
          "name": "roundId",
          "type": "uint256"
        }
      ],
      "name": "getRoundTokenIds",
      "outputs": [
        {
          "internalType": "uint256[]",
          "name": "",
          "type": "uint256[]"
        }
      ],
      "stateMutability": "view",
      "type": "function"
    },
    {
      "inputs": [
        {
          "internalType": "uint256",
          "name": "roundId",
          "type": "uint256"
        }
      ],
      "name": "getRoundUSDTBalance",
      "outputs": [
        {
          "internalType": "uint256",
          "name": "",
          "type": "uint256"
        }
      ],
      "stateMutability": "view",
      "type": "function"
    },
    {
      "inputs": [],
      "name": "getRoundsCount",
      "outputs": [
        {
          "internalType": "uint256",
          "name": "totalRounds",
          "type": "uint256"
        },
        {
          "internalType": "uint256",
          "name": "activeRounds",
          "type": "uint256"
        }
      ],
      "stateMutability": "view",
      "type": "function"
    },
    {
      "inputs": [],
      "name": "getUSDTTokenAddress",
      "outputs": [
        {
          "internalType": "address",
          "name": "",
          "type": "address"
        }
      ],
      "stateMutability": "view",
      "type": "function"
    },
    {
      "inputs": [
        {
          "internalType": "address",
          "name": "user",
          "type": "address"
        }
      ],
      "name": "getUserInvestments",
      "outputs": [
        {
          "internalType": "uint256[]",
          "name": "",
          "type": "uint256[]"
        }
      ],
      "stateMutability": "view",
      "type": "function"
    },
    {
      "inputs": [
        {
          "internalType": "uint256",
          "name": "roundId",
          "type": "uint256"
        },
        {
          "internalType": "address",
          "name": "user",
          "type": "address"
        }
      ],
      "name": "getUserNFTCountInRound",
      "outputs": [
        {
          "internalType": "uint256",
          "name": "",
          "type": "uint256"
        }
      ],
      "stateMutability": "view",
      "type": "function"
    },
    {
      "inputs": [
        {
          "internalType": "uint256",
          "name": "roundId",
          "type": "uint256"
        },
        {
          "internalType": "address",
          "name": "user",
          "type": "address"
        }
      ],
      "name": "getUserNFTsInRound",
      "outputs": [
        {
          "internalType": "uint256[]",
          "name": "",
          "type": "uint256[]"
        }
      ],
      "stateMutability": "view",
      "type": "function"
    },
    {
      "inputs": [
        {
          "internalType": "uint256",
          "name": "roundId",
          "type": "uint256"
        },
        {
          "internalType": "address",
          "name": "user",
          "type": "address"
        }
      ],
      "name": "getUserRoundSummary",
      "outputs": [
        {
          "internalType": "uint256",
          "name": "nftCount",
          "type": "uint256"
        },
        {
          "internalType": "uint256",
          "name": "totalUSDTInvested",
          "type": "uint256"
        },
        {
          "internalType": "uint256",
          "name": "totalTokens",
          "type": "uint256"
        },
        {
          "internalType": "uint256",
          "name": "expectedReward",
          "type": "uint256"
        },
        {
          "internalType": "uint256",
          "name": "totalExpectedPayout",
          "type": "uint256"
        },
        {
          "internalType": "bool",
          "name": "hasMaturedInvestments",
          "type": "bool"
        },
        {
          "internalType": "bool",
          "name": "hasRedeemedInvestments",
          "type": "bool"
        }
      ],
      "stateMutability": "view",
      "type": "function"
    },
    {
      "inputs": [
        {
          "internalType": "uint256",
          "name": "roundId",
          "type": "uint256"
        },
        {
          "internalType": "address",
          "name": "user",
          "type": "address"
        }
      ],
      "name": "getUserTotalInvestmentInRound",
      "outputs": [
        {
          "internalType": "uint256",
          "name": "totalUSDT",
          "type": "uint256"
        },
        {
          "internalType": "uint256",
          "name": "totalTokens",
          "type": "uint256"
        }
      ],
      "stateMutability": "view",
      "type": "function"
    },
    {
      "inputs": [
        {
          "internalType": "uint256",
          "name": "roundId",
          "type": "uint256"
        },
        {
          "internalType": "address",
          "name": "user",
          "type": "address"
        }
      ],
      "name": "hasUserInvestedInRound",
      "outputs": [
        {
          "internalType": "bool",
          "name": "",
          "type": "bool"
        }
      ],
      "stateMutability": "view",
      "type": "function"
    },
    {
      "inputs": [
        {
          "internalType": "uint256",
          "name": "roundId",
          "type": "uint256"
        },
        {
          "internalType": "uint256",
          "name": "tokenAmount",
          "type": "uint256"
        }
      ],
      "name": "investInRound",
      "outputs": [
        {
          "internalType": "uint256",
          "name": "",
          "type": "uint256"
        }
      ],
      "stateMutability": "nonpayable",
      "type": "function"
    },
    {
      "inputs": [
        {
          "internalType": "uint256",
          "name": "",
          "type": "uint256"
        }
      ],
      "name": "investmentRounds",
      "outputs": [
        {
          "internalType": "uint256",
          "name": "roundId",
          "type": "uint256"
        },
        {
          "internalType": "string",
          "name": "roundName",
          "type": "string"
        },
        {
          "internalType": "uint256",
          "name": "tokenPrice",
          "type": "uint256"
        },
        {
          "internalType": "uint256",
          "name": "rewardPercentage",
          "type": "uint256"
        },
        {
          "internalType": "uint256",
          "name": "totalTokenOpenInvestment",
          "type": "uint256"
        },
        {
          "internalType": "uint256",
          "name": "tokensSold",
          "type": "uint256"
        },
        {
          "internalType": "uint256",
          "name": "closeDateInvestment",
          "type": "uint256"
        },
        {
          "internalType": "uint256",
          "name": "endDateInvestment",
          "type": "uint256"
        },
        {
          "internalType": "bool",
          "name": "isActive",
          "type": "bool"
        },
        {
          "internalType": "bool",
          "name": "exists",
          "type": "bool"
        },
        {
          "internalType": "uint256",
          "name": "createdAt",
          "type": "uint256"
        }
      ],
      "stateMutability": "view",
      "type": "function"
    },
    {
      "inputs": [
        {
          "internalType": "uint256",
          "name": "roundId",
          "type": "uint256"
        }
      ],
      "name": "isRoundOpen",
      "outputs": [
        {
          "internalType": "bool",
          "name": "",
          "type": "bool"
        }
      ],
      "stateMutability": "view",
      "type": "function"
    },
    {
      "inputs": [],
      "name": "owner",
      "outputs": [
        {
          "internalType": "address",
          "name": "",
          "type": "address"
        }
      ],
      "stateMutability": "view",
      "type": "function"
    },
    {
      "inputs": [],
      "name": "pause",
      "outputs": [],
      "stateMutability": "nonpayable",
      "type": "function"
    },
    {
      "inputs": [],
      "name": "paused",
      "outputs": [
        {
          "internalType": "bool",
          "name": "",
          "type": "bool"
        }
      ],
      "stateMutability": "view",
      "type": "function"
    },
    {
      "inputs": [],
      "name": "renounceOwnership",
      "outputs": [],
      "stateMutability": "nonpayable",
      "type": "function"
    },
    {
      "inputs": [
        {
          "internalType": "uint256",
          "name": "",
          "type": "uint256"
        },
        {
          "internalType": "uint256",
          "name": "",
          "type": "uint256"
        }
      ],
      "name": "roundTokenIds",
      "outputs": [
        {
          "internalType": "uint256",
          "name": "",
          "type": "uint256"
        }
      ],
      "stateMutability": "view",
      "type": "function"
    },
    {
      "inputs": [
        {
          "internalType": "uint256",
          "name": "",
          "type": "uint256"
        }
      ],
      "name": "roundUSDTLedger",
      "outputs": [
        {
          "internalType": "uint256",
          "name": "",
          "type": "uint256"
        }
      ],
      "stateMutability": "view",
      "type": "function"
    },
    {
      "inputs": [
        {
          "internalType": "uint256",
          "name": "roundId",
          "type": "uint256"
        },
        {
          "internalType": "bool",
          "name": "active",
          "type": "bool"
        }
      ],
      "name": "setRoundActive",
      "outputs": [],
      "stateMutability": "nonpayable",
      "type": "function"
    },
    {
      "inputs": [
        {
          "internalType": "address",
          "name": "newUSDTToken",
          "type": "address"
        }
      ],
      "name": "setUSDTToken",
      "outputs": [],
      "stateMutability": "nonpayable",
      "type": "function"
    },
    {
      "inputs": [],
      "name": "totalRoundsCreated",
      "outputs": [
        {
          "internalType": "uint256",
          "name": "",
          "type": "uint256"
        }
      ],
      "stateMutability": "view",
      "type": "function"
    },
    {
      "inputs": [],
      "name": "totalUSDTRaised",
      "outputs": [
        {
          "internalType": "uint256",
          "name": "",
          "type": "uint256"
        }
      ],
      "stateMutability": "view",
      "type": "function"
    },
    {
      "inputs": [
        {
          "internalType": "address",
          "name": "newOwner",
          "type": "address"
        }
      ],
      "name": "transferOwnership",
      "outputs": [],
      "stateMutability": "nonpayable",
      "type": "function"
    },
    {
      "inputs": [],
      "name": "unpause",
      "outputs": [],
      "stateMutability": "nonpayable",
      "type": "function"
    },
    {
      "inputs": [],
      "name": "usdtToken",
      "outputs": [
        {
          "internalType": "contract IERC20",
          "name": "",
          "type": "address"
        }
      ],
      "stateMutability": "view",
      "type": "function"
    },
    {
      "inputs": [
        {
          "internalType": "address",
          "name": "",
          "type": "address"
        },
        {
          "internalType": "uint256",
          "name": "",
          "type": "uint256"
        }
      ],
      "name": "userInvestments",
      "outputs": [
        {
          "internalType": "uint256",
          "name": "",
          "type": "uint256"
        }
      ],
      "stateMutability": "view",
      "type": "function"
    },
    {
      "inputs": [
        {
          "internalType": "uint256",
          "name": "",
          "type": "uint256"
        },
        {
          "internalType": "address",
          "name": "",
          "type": "address"
        },
        {
          "internalType": "uint256",
          "name": "",
          "type": "uint256"
        }
      ],
      "name": "userNFTsInRound",
      "outputs": [
        {
          "internalType": "uint256",
          "name": "",
          "type": "uint256"
        }
      ],
      "stateMutability": "view",
      "type": "function"
    },
    {
      "inputs": [
        {
          "internalType": "uint256",
          "name": "roundId",
          "type": "uint256"
        }
      ],
      "name": "withdrawFund",
      "outputs": [],
      "stateMutability": "nonpayable",
      "type": "function"
    }
  ],
  "bytecode": "0x60a0346101ec57601f615c9438819003918201601f19168301916001600160401b038311848410176101f05780849260409485528339810103126101ec57610052602061004b83610204565b9201610204565b9033156101d9575f8054336001600160a01b0319821681178355604051939290916001600160a01b0316907f8be0079c531659141344cd1fd0a4f28419497f9722a3daafe3b4186f6b6457e09080a3600180556001600160a01b031690811561019757506001600160a01b038216156101525760805260028054610100600160a81b03191660089290921b610100600160a81b0316919091179055604051615a7b90816102198239608051818181610bb501528181610dbf015281816111b30152818161134f0152818161186d015281816120ce015281816130b401528181613e2601528181613ee401528181614437015281816147bf01526152210152f35b60405162461bcd60e51b815260206004820152601460248201527f496e76616c6964205553445420616464726573730000000000000000000000006044820152606490fd5b62461bcd60e51b815260206004820152601560248201527f496e76616c696420445a4e4654206164647265737300000000000000000000006044820152606490fd5b631e4fbdf760e01b5f525f60045260245ffd5b5f80fd5b634e487b7160e01b5f52604160045260245ffd5b51906001600160a01b03821682036101ec5756fe60806040526004361015610011575f80fd5b5f5f3560e01c8063048f80ba1461473157806304d57525146144b557806306d9383814614409578063079ac6a4146143ad57806308c89b6d146143905780630962ef7914613ea85780630c64428f14613df65780630c8344e714613be55780630cee172514613b4b5780631144e79e14613b2f578063140fa8b214613a375780631470e87d146114d5578063161f6622146139b557806318f38da21461391857806330814b1b146138fa5780633519a2f81461389c5780633b727571146138375780633f4ba83a146137cf5780633ff0c9c4146135ae57806342b38fd1146134f957806346468763146132ac5780634cadabdc146130315780635312ea8e14612ed25780635848b10914612bb75780635c975abb14612b9457806360985a4b1461297e57806366e226bd14612860578063676045511461202757806369fbd3cc14611f6b5780636d796db514611d5f578063715018a614611d0557806375c93bb914611b9657806379b2c17a14611af95780638456cb5914611a9e5780638b0f9552146117165780638da5cb5b146116ef5780639187cb031461161a5780639244adcd146115d25780639cbe5efd146115b4578063a09686c41461152c578063a8f252b014611502578063a98ad46c146114d5578063b201c0c3146114a3578063b4ad7d3a1461145d578063b6dc2c29146112c5578063b82e4fc3146111e2578063bf32eb011461119d578063c52c5c8814611113578063c6f83418146110f7578063c8f760401461106b578063cfbb52d314611008578063df8493b014610a20578063dfe6b5d61461090a578063e96d87b414610395578063ef1b92a414610331578063ef2cfd1a146103155763f2fde38b1461028d575f80fd5b34610312576020366003190112610312576102a661494e565b6102ae615a1f565b6001600160a01b031680156102fe5781546001600160a01b03198116821783556001600160a01b03167f8be0079c531659141344cd1fd0a4f28419497f9722a3daafe3b4186f6b6457e08380a380f35b631e4fbdf760e01b82526004829052602482fd5b80fd5b5034610312578060031936011261031257602060405160128152f35b50346103125760603660031901126103125761034b614938565b906044359160043582526006602052604082209060018060a01b03165f5260205260405f209081548310156103125760206103868484614d5f565b90549060031b1c604051908152f35b50346103125760c0366003190112610312576004356001600160401b038111610906573660238201121561090657818160040135916103d383614d88565b926103e16040519485614c9e565b808452366024828401011161090257806024602093018386013783010152610407615a1f565b8051156108bd57602435156108785760443515158061086a575b1561081957606435156107c8574260843511156107835760843560a43511156107345760085490610451826151c6565b60085581600955610463602435614f70565b60405161046f81614c6e565b83815260208101918383526040820152604435606082015260643560808201528460a082015260843560c082015260a43560e082015260016101008201526001610120820152426101408201528385526003602052604085209181518355518051906001600160401b038211610720576104ec6001850154614c36565b601f81116106d8575b5060209686959493929188916001601f85111461063f5793836106049694600994610140947f068fdde760e5730532959669855b5a6f20cb96e8685d2d1330a83d3a6fad0bbb9a9892610634575b50508160011b915f199060031b1c19161760018501555b60408101516002850155606081015160038501556080810151600485015560a0810151600585015560c0810151600685015560e08101516007850155600884016105b76101008301511515829060ff801983541691151516179055565b610120820151815461ff00191690151560081b61ff00161790550151910155600a546105e2906151c6565b600a556105f0602435614f70565b60405192839260c0845260c0840190614994565b908783015260443560408301526064356060830152608435608083015260a43560a08301520390a2604051908152f35b015190505f80610543565b9190600186018352818320925b601f19851681106106be575093600184600994610140947f068fdde760e5730532959669855b5a6f20cb96e8685d2d1330a83d3a6fad0bbb9a986106049a98601f198116106106a6575b505050811b01600185015561055a565b01515f1960f88460031b161c191690555f8080610696565b818301518455899850600190930192918a01918a0161064c565b60018501885260208820601f840160051c81019160208510610716575b601f0160051c01905b81811061070b57506104f5565b8881556001016106fe565b90915081906106f5565b634e487b7160e01b87526041600452602487fd5b60405162461bcd60e51b815260206004820152602160248201527f456e642064617465206d75737420626520616674657220636c6f7365206461746044820152606560f81b6064820152608490fd5b60405162461bcd60e51b815260206004820152601c60248201527f436c6f73652064617465206d75737420626520696e20667574757265000000006044820152606490fd5b60405162461bcd60e51b815260206004820152602360248201527f546f74616c20746f6b656e73206d75737420626520677265617465722074686160448201526206e20360ec1b6064820152608490fd5b60405162461bcd60e51b815260206004820152602360248201527f496e76616c6964207265776172642070657263656e746167652028302d31303060448201526230302960e81b6064820152608490fd5b506127106044351115610421565b60405162461bcd60e51b815260206004820152601c60248201527f5072696365206d7573742062652067726561746572207468616e2030000000006044820152606490fd5b60405162461bcd60e51b815260206004820152601a60248201527f526f756e64206e616d652063616e6e6f7420626520656d7074790000000000006044820152606490fd5b8280fd5b5080fd5b50346103125780600319360112610312576008549080805b8381106109ca5760248383600a5491600b54602060018060a01b0360025460081c16604051968780926370a0823160e01b82523060048301525afa9182156109be5791610985575b60809450604051938452602084015260408301526060820152f35b90506020843d6020116109b6575b816109a060209383614c9e565b810103126109b257608093519061096a565b5f80fd5b3d9150610993565b604051903d90823e3d90fd5b808352600360205260ff600860408520015460081c1680610a07575b6109f3575b600101610922565b906109ff6001916151c6565b9190506109eb565b50808352600360205260ff6008604085200154166109e6565b503461031257610a2f36614af7565b9091610a396159e4565b610a41615a04565b8281526003602052610a5f60ff600860408420015460081c16614da3565b828152600360205260ff60086040832001541615610fcd578281526003602052610a926006604083200154421115615586565b8281526003602052610aac60066040832001544210615586565b8115610f7c5760648211610f1a578281526003602052604081209260028401610ad6815485614f94565b938415610edc576005860191610aed828454614fc5565b600488015410610e85576002546040516323b872dd60e01b81523360048201523060248201526044810188905290602090829060081c6001600160a01b03168189816064810103925af18015610e7a578690610e3f575b610b4e9150615449565b54956003810154906007600682015491015490600184115f14610d5657604051632fdc968f60e21b81523360048201526024810185905260448101879052606481018a90526084810193909352600160a484015260c483015260e4820152848161010481837f00000000000000000000000000000000000000000000000000000000000000006001600160a01b03165af1908115610d4b578591610d03575b50955b8385526004602052604085209033865260056020526040862085875260066020526040872060018060a01b0333165f5260205260405f2090875b858110610c7f576020610c728c8c610c6b60408e8e8e610c4b8f8254614fc5565b9055610c5985600b54614fc5565b600b5581526007875220918254614fc5565b9055614de6565b5160018055604051908152f35b80610cbe610cb7828e610c9e610c9760019783614df3565b518b6155d2565b610cb2610cab8383614df3565b51886155d2565b614df3565b51856155d2565b610cc8818d614df3565b51604051908682528360208301528a7f30a6facb9fa9a18999d5ff7f2ce5641caca8d5f45c8ff24bced9833614b8e88060403394a401610c2a565b90503d8086833e610d148183614c9e565b810190602081830312610d47578051906001600160401b038211610d4357610d3d9291016150c6565b5f610bed565b8680fd5b8580fd5b6040513d87823e3d90fd5b979190604091825191610d698484614c9e565b60018352601f198401366020850137829a84519263f4fb815960e01b845233600485015289602485015286604485015260648401526001608484015260a483015260c482015260208160e4818b60018060a01b037f0000000000000000000000000000000000000000000000000000000000000000165af1928315610e3657508792610e00575b50610dfa90614de6565b52610bf0565b9091506020813d602011610e2e575b81610e1c60209383614c9e565b810103126109b2575190610dfa610df0565b3d9150610e0f565b513d89823e3d90fd5b506020813d602011610e72575b81610e5960209383614c9e565b81010312610d4757610e6d610b4e91614e1b565b610b44565b3d9150610e4c565b6040513d88823e3d90fd5b60405162461bcd60e51b815260206004820152602960248201527f4e6f7420656e6f75676820746f6b656e7320617661696c61626c6520696e20746044820152681a1a5cc81c9bdd5b9960ba1b6064820152608490fd5b60405162461bcd60e51b8152602060048201526016602482015275151bdad95b88185b5bdd5b9d081d1bdbc81cdb585b1b60521b6044820152606490fd5b60405162461bcd60e51b815260206004820152603460248201527f546f6b656e20616d6f756e742065786365656473206d6178696d756d20616c6c60448201527337bbb2b2103832b9103a3930b739b0b1ba34b7b760611b6064820152608490fd5b60405162461bcd60e51b815260206004820152602360248201527f546f6b656e20616d6f756e74206d75737420626520677265617465722074686160448201526206e20360ec1b6064820152608490fd5b60405162461bcd60e51b8152602060048201526013602482015272526f756e64206973206e6f742061637469766560681b6044820152606490fd5b503461031257604036600319011261031257604060043591611028614938565b92808252600360205261104660ff6008858520015460081c16614da3565b81526006602052209060018060a01b03165f52602052602060405f2054604051908152f35b50346103125780600319360112610312576002546040516370a0823160e01b815230600482015291906020908390602490829060081c6001600160a01b03165afa9081156109be57906110c4575b602090604051908152f35b506020813d6020116110ef575b816110de60209383614c9e565b810103126109b257602090516110b9565b3d91506110d1565b5034610312578060031936011261031257602060405160648152f35b5034610312576020366003190112610312576001600160a01b0361113561494e565b168152600560205260408120604051918260208354918281520192825260208220915b818110611187576111838561116f81870382614c9e565b604051918291602083526020830190614a3d565b0390f35b8254845260209093019260019283019201611158565b50346103125780600319360112610312576040517f00000000000000000000000000000000000000000000000000000000000000006001600160a01b03168152602090f35b503461031257602036600319011261031257604061118391600435611205615042565b50808252600360205261122360ff6008858520015460081c16614da3565b815260036020522060096040519161123a83614c6e565b8054835261124a60018201614cbf565b6020840152600281015460408401526003810154606084015260048101546080840152600581015460a0840152600681015460c0840152600781015460e084015260ff6008820154818116151561010086015260081c16151561012084015201546101408201526040519182916020835260208301906149b8565b5034610312576040366003190112610312576004356112e2614938565b90808352600360205261130160ff600860408620015460081c16614da3565b82526006602052604082209060018060a01b03165f5260205260405f206040518082602082945493848152019085526020852092855b81811061144457505061134c92500382614c9e565b817f00000000000000000000000000000000000000000000000000000000000000006001600160a01b031681805b84518410156114345761138d8486614df3565b519160405192634712f17360e11b845260048401528683602481875afa9283156114295787936113f8575b506001916113e86113f092670de0b6b3a76400006113e160808801976040895191015190614f94565b0490614fc5565b935190614fc5565b93019261137a565b6113f0919350916113e861141f6001943d808c833e6114178183614c9e565b810190614e6e565b94925050916113b8565b6040513d89823e3d90fd5b6040925082519182526020820152f35b8454835260019485019486945060209093019201611337565b50346103125760203660031901126103125760406020916004358082526003845261149360ff6008858520015460081c16614da3565b8152600783522054604051908152f35b5034610312576114b236614af7565b919081526004602052604081209081548310156103125760206103868484614d5f565b503461031257806003193601126103125760025460405160089190911c6001600160a01b03168152602090f35b50346103125760203660031901126103125760406020916004358152600783522054604051908152f35b5034610312578060031936011261031257600a548182600854935b84811061155e576040848482519182526020820152f35b808252600360205260ff600860408420015460081c168061159b575b611587575b600101611547565b916115936001916151c6565b92905061157f565b50808252600360205260ff60086040842001541661157a565b50346103125780600319360112610312576020600954604051908152f35b5034610312576040366003190112610312576115ec61494e565b6001600160a01b03168152600560205260408120805460243592908310156103125760206103868484614d5f565b5034610312576020366003190112610312576116e760406020926004358082526003855261165360ff6008858520015460081c16614da3565b8152600384522060405161166681614c6e565b8154815261167660018301614cbf565b84820152600282015460408201526003820154606082015260048201549081608082015261014060096005850154948560a0850152600681015460c0850152600781015460e085015260ff6008820154818116151561010087015260081c161515610120850152015491015261501e565b604051908152f35b5034610312578060031936011261031257546040516001600160a01b039091168152602090f35b503461031257602036600319011261031257600435808252600360205261174960ff600860408520015460081c16614da3565b8190829083908492859086908388526003602052604088209360405161176e81614c6e565b8554815261177e60018701614cbf565b6020820152600286015491604082019283526003870154966060830197885260048101549260808101938452610140600960058401549360a08401948552600681015460c0850152600781015460e085015260ff6008820154818116151561010087015260081c1615156101208501520154910152818c52600460205260408c20928c6040518095869160208254918281520191845260208420935b818110611a8557505061182f92500385614c9e565b8051611a45575b506040519163132b6af760e21b835260048301528b82602481305afa918215611a3a578c92611a14575b5081516119f1575b5092987f00000000000000000000000000000000000000000000000000000000000000006001600160a01b031693508a5b82518110156119c7576118ac8184614df3565b5160405190634712f17360e11b825260048201528c81602481895afa9081156119bc578d916119a2575b506101408101908151611965575b6101208101516118f9575b5050600101611899565b969961192461191d6080611912949e946001969e6151c6565b9a0151885190614f94565b8093614fc5565b9b511561194e57606461193c611945938c5190614f94565b04831c90614fc5565b985b905f6118ef565b60646113e161195f938c5190614f94565b98611947565b9961199c90606461199261198a60808f9d61197f906151c6565b9d01518a5190614f94565b8d5190614f94565b0460011c90614fc5565b996118e4565b6119b691503d808f833e6114178183614c9e565b5f6118d6565b6040513d8f823e3d90fd5b5060c09085878b8b8e604051958652602086015260408501526060840152608083015260a0820152f35b611a0c929450611a049051845190614f94565b905190614fa7565b915f80611868565b611a329192508c3d8091833e611a2a8183614c9e565b810190615123565b50905f611860565b6040513d8e823e3d90fd5b90809b5051906127108202918083046127101490151715611a715751611a6a91614fa7565b995f611836565b634e487b7160e01b8d52601160045260248dfd5b845483526001948501948994506020909301920161181a565b5034610312578060031936011261031257611ab7615a1f565b611abf615a04565b600160ff1960025416176002557f62e78cea01bee320cd4e420270b5ea74000d11b0c9f74754ebdbfc544b05a2586020604051338152a180f35b50346103125760403660031901126103125760043560243580151590818103611b92577fdd8c33b779db77b877161fe300dfc92dc5b0d87c7e4199701eb25330a83e16f991611b88602092611b4c615a1f565b85875260038452611b6960ff600860408a20015460081c16614da3565b85875260038452600860408820019060ff801983541691151516179055565b604051908152a280f35b8380fd5b50346103125780611ba636614af7565b611bb1929192615a1f565b8282526003602052611bcf60ff600860408520015460081c16614da3565b611bda8115156154f1565b600254602090611c299060081c6001600160a01b0316611bf984614f70565b6040516323b872dd60e01b8152336004820152306024820152604481019190915294859283919082906064820190565b03925af1918215611cfa578492611c92575b50611b88602091611c6c7f840f34d9e1ef4bad95d455fc5722e970ebdcfec5778eca96c54edd60e69b463f94615449565b611c7581614f70565b85875260078452611c8b60408820918254614fc5565b9055614f70565b91506020823d602011611cf2575b81611cad60209383614c9e565b81010312611b9257611b88602091611c6c611ce87f840f34d9e1ef4bad95d455fc5722e970ebdcfec5778eca96c54edd60e69b463f95614e1b565b9450509150611c3b565b3d9150611ca0565b6040513d86823e3d90fd5b5034610312578060031936011261031257611d1e615a1f565b80546001600160a01b03198116825581906001600160a01b03167f8be0079c531659141344cd1fd0a4f28419497f9722a3daafe3b4186f6b6457e08280a380f35b5034610312578060031936011261031257600a5490611d7d82615094565b90611d878361553d565b611d9084615094565b90611d9a85615094565b94611da481615094565b93805b828110611e0e57611dd68761118388611e008c611df28b611de48c604051998a9960a08b5260a08b0190614a3d565b9089820360208b0152614b0d565b908782036040890152614b65565b908582036060870152614a3d565b908382036080850152614b65565b6001810190818111611f57578183526003602052604083208860405193611e3485614c6e565b82548552838c611e4660018601614cbf565b6020880190815260028601549060408901918252600387015460608a015260048701549460808a0195865260058801549660a08b019788528560068a01549b60c081019c8d5260078b015460e082015260088b01549a61010082019b60ff811615158d5260081c60ff16151561012083015260090154906101400152611ecb91614df3565b5251611ed7848d614df3565b52611ee2838c614df3565b5085511515611ef1848e614df3565b5284519051611eff91614f94565b91611f0991614df3565b52519051611f169161501e565b905115159060019382611f4b575b5081611f41575b50611f368289614df3565b901515905201611da7565b905015155f611f2b565b5142111591505f611f24565b634e487b7160e01b83526011600452602483fd5b50346103125760203660031901126103125760409060043581526003602052208054611f9960018301614cbf565b9160028101549060ff600382015491600481015460058201546006830154906007840154926009600886015495015496611fe76040519b8c9b8c5261016060208d01526101608c0190614994565b9860408b015260608a0152608089015260a088015260c087015260e0860152818116151561010086015260081c1615156101208401526101408301520390f35b5034610312576020366003190112610312576004356120446159e4565b61204c615a04565b808252600360205261206a60ff600860408520015460081c16614da3565b80825260066020526040822060018060a01b0333165f5260205260405f20906040518083602082955493848152019086526020862092865b8181106128475750506120b792500383614c9e565b81511561280a5760328251116127955790829081907f00000000000000000000000000000000000000000000000000000000000000006001600160a01b031690825b81518410156122d55761210c8483614df3565b51604051906331a9108f60e11b82526004820152602081602481875afa908115612283578891612298575b50336001600160a01b039091160361228e576121538483614df3565b519060405191634712f17360e11b835260048301528782602481875afa918215612283578892612267575b5061012082015161225c5761219760a08301514261501e565b62ed4e008110612250576121b46080840151604085015190614f94565b926301e1338060646121ca606084015187614f94565b04921061221957610140015160019361220293909290911561220c576121fc926121f691861c90614fc5565b90614fc5565b956151c6565b935b0192936120f9565b6121f6906121fc93614fc5565b6101409192979350015115612235575b506122026001916151c6565b6122486001929661220292841c90614fc5565b959150612229565b50949360019150612204565b949360019150612204565b61227c9192503d808a833e6114178183614c9e565b905f61217e565b6040513d8a823e3d90fd5b9392600190612204565b90506020813d82116122cd575b816122b260209383614c9e565b810103126122c9576122c390614e07565b5f612137565b8780fd5b3d91506122a5565b828787928715612750576122ea811515615365565b6002546040516370a0823160e01b8152306004820152906020908290602490829060081c6001600160a01b03165afa8015612745578290849061270f575b612334925010156153a6565b838252600760205261234c81604084205410156153fd565b815b8551811015612649576123618187614df3565b51604051906331a9108f60e11b82526004820152602081602481885afa908115611cfa578491612610575b50336001600160a01b0390911603612608576123a88187614df3565b5160405190634712f17360e11b825260048201528381602481885afa908115611cfa5784916125ee575b50610120810151612545576123eb60a08201514261501e565b62ed4e0081106125e4576124086080830151604084015190614f94565b916301e13380606461241e606084015186614f94565b04921061253757610140015115612529579061243d9160011c90614fc5565b6124478288614df3565b51853b1561251057604051906319f477d960e01b825260048201528481602481838a5af18015610d4b57908591612514575b50506124858288614df3565b51853b15612510576040519063bed62f3560e01b825260048201528481602481838a5af18015610d4b579085916124fb575b5050906001916124c78289614df3565b516040519182527fec830d68f9642b924e6a2bbc2ebeb8f06c0ab5417a38f641b088b2412cbaba9560203393a35b0161234e565b8161250591614c9e565b611b925783886124b7565b8480fd5b8161251e91614c9e565b611b92578388612479565b61253291614fc5565b61243d565b61014091925001511561254e575b506001906124f5565b6125588288614df3565b51853b1561251057604051906318d8e2a560e01b825260048201528481602481838a5af18015610d4b579085916125cf575b50509060019161259a8289614df3565b5160405191841c82527f05609d8b66d3b17249aefcaaa68fa2000914aeeb46371ad3fcae3db02304bde960203393a390612545565b816125d991614c9e565b611b9257838861258a565b50506001906124f5565b61260291503d8086833e6114178183614c9e565b876123d2565b6001906124f5565b90506020813d8211612641575b8161262a60209383614c9e565b81010312611b925761263b90614e07565b8761238c565b3d915061261d565b5060206126a78392868452600783526040842061266782825461501e565b905560025460405163a9059cbb60e01b815233600482015260248101929092529093849260089290921c6001600160a01b03169183919082906044820190565b03925af180156127045782906126c9575b6126c29150615449565b6001805580f35b506020813d6020116126fc575b816126e360209383614c9e565b81010312610906576126f76126c291614e1b565b6126b8565b3d91506126d6565b6040513d84823e3d90fd5b50506020813d60201161273d575b8161272a60209383614c9e565b810103126109b257816123349151612328565b3d915061271d565b6040513d85823e3d90fd5b60405162461bcd60e51b815260206004820152601960248201527f4e6f20656c696769626c65204e46547320746f20636c61696d000000000000006044820152606490fd5b60405162461bcd60e51b815260206004820152604160248201527f546f6f206d616e79204e46547320746f20636c61696d206174206f6e63652c2060448201527f706c656173652073706c697420696e746f20736d616c6c6572206261746368656064820152607360f81b608482015260a490fd5b60405162461bcd60e51b8152602060048201526015602482015274139bc81391951cc81a5b881d1a1a5cc81c9bdd5b99605a1b6044820152606490fd5b84548352600194850194879450602090930192016120a2565b50346103125760203660031901126103125761287a61494e565b612882615a1f565b6001600160a01b03811690811561293957600254600881901c6001600160a01b0316918383146128f457610100600160a81b031990911660089190911b610100600160a81b0316176002557f92852dbadca7e6fa4e0d5dd87891e6dd13f50a304561a86ea9d5a710b972e4498380a380f35b60405162461bcd60e51b815260206004820152601760248201527f53616d65205553445420746f6b656e20616464726573730000000000000000006044820152606490fd5b60405162461bcd60e51b815260206004820152601a60248201527f496e76616c6964205553445420746f6b656e20616464726573730000000000006044820152606490fd5b5034610312576129c48161299136614af7565b6040516304d5752560e01b8152600481019290925260248201525f60448201819052606482015291829081906084820190565b0381305afa8015612704578290839284859186936129f0575b5090611183929160405195869586614a70565b9450505050503d8083833e612a058183614c9e565b810160a0828203126109025781516001600160401b038111611b925782019281601f85011215610312578351612a3a8161502b565b94612a486040519687614c9e565b81865260208087019260051b82010190848211611b925760208101925b828410612aba57505050506020830151906001600160401b038211610312575061118391612a949184016150c6565b91604081015193612aac608060608401519301614e1b565b9093949190918594936129dd565b83516001600160401b038111610d47578201610160818803601f190112610d475760405190612ae882614c6e565b6020810151825260408101516001600160401b0381116122c9579161016082612b1a8b60208098969781980101614e28565b85840152606081015160408401526080810151606084015260a0810151608084015260c081015160a084015260e081015160c084015261010081015160e0840152612b686101208201614e1b565b610100840152612b7b6101408201614e1b565b6101208401520151610140820152815201930192612a65565b5034610312578060031936011261031257602060ff600254166040519015158152f35b503461031257612bc636614964565b92939190600a549382151580612ec7575b15612e8257612be7858710614fd2565b612bf18386614fc5565b5f198101908111612e6e5783612c0691614fa7565b90612c118488614fa7565b9260018401809411612e5a5790612c279161560b565b92612c32878761501e565b81811115612e525750945b612c478688614fc5565b1092612c5286615094565b94612c5c8761553d565b96612c6681615094565b612c6f82615094565b90612c7983615094565b92612c8381615094565b94612c8d82615094565b96815b838110612cae575050505061118398999a506040519a8b9a8b614b9a565b808f8f8f612dac90612d8b85612cd1612ccb60019960c098614fc5565b8a614df3565b5194858b52600360205260408b209360405196612ced88614c6e565b85548852612d7984612d008d8901614cbf565b9360208b01948552600960028a01549960408d019a8b528c606060038301549101528c608060048301549101528c60a060058301549101528c8e60068301549101528c60e060078301549101528c61012060ff6008840154818116151561010085015260081c16151591015201546101408c0152614df3565b5251612d858383614df3565b52614df3565b506101008301511515612d9e868c614df3565b5260a0830151905190614f94565b612db6848b614df3565b52828b612dd7612dcf608085015160a08601519061501e565b928392614df3565b5261010082015115159081612e44575b81612e3a575b50612df8848c614df3565b90151590520151428111612e1a575083612e12828c614df3565b525b01612c90565b612e296201518091429061501e565b04612e34828c614df3565b52612e14565b905015155f612ded565b828401514211159150612de7565b905094612c3d565b634e487b7160e01b86526011600452602486fd5b634e487b7160e01b85526011600452602485fd5b60405162461bcd60e51b815260206004820152601f60248201527f4c696d6974206d757374206265206265747765656e203120616e6420313030006044820152606490fd5b506064831115612bd7565b503461031257602036600319011261031257600435612eef615a1f565b6002546040516370a0823160e01b815230600482015260089190911c6001600160a01b031690602081602481855afa8015611cfa5783918591612ffc575b5010612fc057825460405163a9059cbb60e01b81526001600160a01b03909116600482015260248101929092526020908290818581604481015b03925af18015612704578290612f85575b612f829150615449565b80f35b506020813d602011612fb8575b81612f9f60209383614c9e565b8101031261090657612fb3612f8291614e1b565b612f78565b3d9150612f92565b60405162461bcd60e51b8152602060048201526014602482015273496e73756666696369656e742062616c616e636560601b6044820152606490fd5b9150506020813d602011613029575b8161301860209383614c9e565b810103126109b2578290515f612f2d565b3d915061300b565b503461031257602036600319011261031257600435808252600360205261306460ff600860408520015460081c16614da3565b815260046020526040812060405190816020825491828152019184526020842090845b818110613296575050508161309d910382614c9e565b6130a78151615094565b916130b28251615094565b7f00000000000000000000000000000000000000000000000000000000000000006001600160a01b0316939091908190815b85518110156131e0576130f78187614df3565b5160405190634712f17360e11b8252600482015284816024818b5afa908115610d4b5785916131c6575b50610100015184906001600160a01b031681805b868110613199575b501561316d5750908161316561315e6131586001958a614df3565b516151c6565b9188614df3565b525b016130e4565b613193915093600192946131818286614df3565b528261318d8289614df3565b526151c6565b92613167565b826001600160a01b036131ac8389614df3565b5116146131bb57600101613135565b92505060015f61313d565b6131da91503d8087833e6114178183614c9e565b5f613121565b50906131eb81615094565b936131f582615094565b92845b838110613258575050505060405191604083016040845284518091526020606085019501915b81811061323957848061118388878382036020850152614a3d565b82516001600160a01b031686526020958601959092019160010161321e565b6001906001600160a01b0361326d8285614df3565b5116613279828a614df3565b526132848185614df3565b5161328f8288614df3565b52016131f8565b8254845260209093019260019283019201613087565b5034610312576132bb36614af7565b6132c3615a1f565b81835260036020526132e160ff600860408620015460081c16614da3565b6132ec8115156154f1565b8183526007602052806040842054106134b4576002546040516370a0823160e01b8152306004820152906020908290602490829060081c6001600160a01b03165afa8015611cfa578291859161347f575b501061343a5781835260076020526040832061335a82825461501e565b9055600254835460405163a9059cbb60e01b81526001600160a01b0391821660048201526024810184905291602091839160081c168187816044810103925af1908115611cfa5784916133d6575b507fc97223d9627a5c8977b5ce63bcc729264c8ab2575ef525d2d42e39af20550dc491611b88602092615449565b90506020813d602011613432575b816133f160209383614c9e565b81010312611b92577fc97223d9627a5c8977b5ce63bcc729264c8ab2575ef525d2d42e39af20550dc491611b88613429602093614e1b565b925050916133a8565b3d91506133e4565b60405162461bcd60e51b815260206004820152601d60248201527f496e73756666696369656e7420636f6e74726163742062616c616e63650000006044820152606490fd5b9150506020813d6020116134ac575b8161349b60209383614c9e565b810103126109b2578190515f61333d565b3d915061348e565b60405162461bcd60e51b815260206004820152601a60248201527f496e73756666696369656e7420726f756e642062616c616e63650000000000006044820152606490fd5b5034610312578060031936011261031257600a549061352061351a83615094565b92615094565b908081600854925b8381106135595761354b8661118387604051938493604085526040850190614a3d565b908382036020850152614a3d565b808252600360205260ff600860408420015460081c1661357c575b600101613528565b916135a6818461358e6001948a614df3565b528484526007602052604084205461318d8289614df3565b929050613574565b5034610312576135f4816135c136614af7565b604051635848b10960e01b8152600481019290925260248201525f60448201819052606482015291829081906084820190565b0381305afa801561270457829083928485868790889289948a968b98613627575b506040519a508a99611183998b614b9a565b99505050505050505050503d8083833e6136418183614c9e565b810191610140828403126103125781516001600160401b038111610906578361366b9184016150c6565b9060208301516001600160401b0381116109065783019184601f84011215610906578251926136998461502b565b936136a76040519586614c9e565b80855260208086019160051b830101918783116125105760208101915b8383106137a2575050505060408401516001600160401b03811161090257856136ee91860161548c565b9360608101516001600160401b038111611b92578661370e9183016150c6565b9260808201516001600160401b038111610906578761372e91840161548c565b9060a08301516001600160401b038111610906578861374e9185016150c6565b9060c0840151906001600160401b03821161031257506111839697986137759185016150c6565b9060e08401519261378f6101206101008701519601614e1b565b95989996909192939495968a9998613615565b82516001600160401b038111610d43576020916137c48b848094870101614e28565b8152019201916136c4565b50346103125780600319360112610312576137e8615a1f565b60025460ff8116156138285760ff19166002557f5db9ee0a495bf2e6ff9c91a7834c1ba4fdd244a5e8aa4e537bd38aeae4b073aa6020604051338152a180f35b638dfc202b60e01b8252600482fd5b503461031257604036600319011261031257604060043591613857614938565b92808252600360205261387560ff6008858520015460081c16614da3565b81526006602052209060018060a01b03165f52602052602060405f20541515604051908152f35b5034610312576020366003190112610312576138b6615a1f565b6002546040516323b872dd60e01b81523360048083019190915230602483015235604482015290602090829060081c6001600160a01b031681858160648101612f67565b50346103125780600319360112610312576020600a54604051908152f35b503461031257604036600319011261031257600435613935614938565b90808352600360205261395460ff600860408620015460081c16614da3565b82526006602052604082209060018060a01b03165f5260205260405f20604051918260208354918281520192825260208220915b81811061399f576111838561116f81870382614c9e565b8254845260209093019260019283019201613988565b50346103125760203660031901126103125760043580825260036020526139e860ff600860408520015460081c16614da3565b8152600460205260408120604051918260208354918281520192825260208220915b818110613a21576111838561116f81870382614c9e565b8254845260209093019260019283019201613a0a565b503461031257602036600319011261031257604060209160043580825260038452613a6d60ff6008858520015460081c16614da3565b81526003835220604051613a8081614c6e565b81548152613a9060018301614cbf565b8382015260028201546040820152600382015460608201526004820154908160808201526005830154908160a08201526006840154908160c0820152600785015460e0820152610140600960088701549660ff8089161515988961010087015260081c161515610120850152015491015283613b24575b5082613b1a575b50506040519015158152f35b1090505f80613b0e565b42111592505f613b07565b5034610312578060031936011261031257602060405160328152f35b503461031257602036600319011261031257612f676020600435613b6d615a1f565b80845260038252613b8a60ff600860408720015460081c16614da3565b80845260078083526040808620549286529083528085208590556002548554915163a9059cbb60e01b81526001600160a01b03928316600482015260248101939093529193849260081c909116908290869082906044820190565b503461031257602036600319011261031257600435613c02615042565b508082526003602052613c2160ff600860408520015460081c16614da3565b80825260036020526040822060405191613c3a83614c6e565b81548352613c4a60018301614cbf565b60208401526002820154918260408501526003810154606085015260048101549160808501928352600582015490613cca60a087019583875260068501549360c08901948552600786015460e08a0152600960088701549660ff6101008c019881811615158a5260081c1615156101208c015201546101408a0152614f94565b946040519163132b6af760e21b835260048301528782602481305afa801561228357613d03928991613ddb575b5051945190519061501e565b9151151580613dd0575b80613dc7575b8151926301e133808401809411613db357613d5b97844210159351804210155f14613d9d575080945b8415613d855750945b6040519889986101008a526101008a01906149b8565b966020890152604088015260608701521515608086015260a085015260c084015260e08301520390f35b620151809150613d9690429061501e565b0494613d45565b613dac6201518091429061501e565b0494613d3c565b634e487b7160e01b88526011600452602488fd5b50811515613d13565b508051421115613d0d565b613def91503d808b833e611a2a8183614c9e565b505f613cf7565b503461031257602036600319011261031257604051631d3653e360e01b81526004803590820152906020826024817f00000000000000000000000000000000000000000000000000000000000000006001600160a01b03165afa9081156109be578091613e6b575b6020826040519015158152f35b90506020823d602011613ea0575b81613e8660209383614c9e565b810103126103125750613e9a602091614e1b565b5f613e5e565b3d9150613e79565b50346109b25760203660031901126109b25760043590613ec66159e4565b613ece615a04565b6040516331a9108f60e11b8152600481018390527f00000000000000000000000000000000000000000000000000000000000000006001600160a01b03169290602081602481875afa9081156141c4575f91614356575b50336001600160a01b039091160361431157604051634712f17360e11b815260048101829052905f82602481875afa9182156141c4575f926142f5575b506101208201516142b057613f7b60a08301514261501e565b9362ed4e00851061426b57613f996080840151604085015190614f94565b946301e133806064613faf606087015189614f94565b0491101595865f146142165761014085015160249290156142075790613fd89160011c90614fc5565b935b613fe5851515615365565b6002546040516370a0823160e01b815230600482015292602091849190829060081c6001600160a01b03165afa80156141c45785925f916141cf575b506020926140309110156153a6565b019485515f52600760205261404b8460405f205410156153fd565b1561413c579081849593923b15612510576040516319f477d960e01b815260048101839052858160248183865af1908115610e7a578691614127575b5050803b156125105784809160246040518094819363bed62f3560e01b83528760048401525af1908115610d4b578591614109575b5050906020926126a792604051908382527fec830d68f9642b924e6a2bbc2ebeb8f06c0ab5417a38f641b088b2412cbaba95863393a35b518452600783526040842061266782825461501e565b8161411691949394614c9e565b6141225790835f6140bc565b505050fd5b8161413191614c9e565b61251057845f614087565b803b156109b2575f80916024604051809481936318d8e2a560e01b83528760048401525af180156141c4576141a7575b5060209183946126a792604051908382527f05609d8b66d3b17249aefcaaa68fa2000914aeeb46371ad3fcae3db02304bde9863393a36140f3565b6126a7919350916141ba5f602094614c9e565b5f9391509161416c565b6040513d5f823e3d90fd5b9250506020823d6020116141ff575b816141eb60209383614c9e565b810103126109b25790518491906020614021565b3d91506141de565b61421091614fc5565b93613fda565b5061014084015161422d5760249060011c93613fda565b60405162461bcd60e51b815260206004820152601660248201527514995dd85c9908185b1c9958591e4818db185a5b595960521b6044820152606490fd5b60405162461bcd60e51b815260206004820152601b60248201527f4d7573742077616974206174206c656173742036206d6f6e74687300000000006044820152606490fd5b60405162461bcd60e51b815260206004820152601b60248201527f496e766573746d656e7420616c72656164792072656465656d656400000000006044820152606490fd5b61430a9192503d805f833e6114178183614c9e565b905f613f62565b60405162461bcd60e51b815260206004820152601960248201527f4e6f7420746865206f776e6572206f662074686973204e4654000000000000006044820152606490fd5b90506020813d602011614388575b8161437160209383614c9e565b810103126109b25761438290614e07565b5f613f25565b3d9150614364565b346109b2575f3660031901126109b2576020600b54604051908152f35b346109b25760203660031901126109b25760a06143e9600435805f5260036020526143e460ff600860405f20015460081c16614da3565b6151d4565b926040929192519485526020850152604084015260608301526080820152f35b346109b25760203660031901126109b257604051635a7f04d560e01b815260048035908201526020816024817f00000000000000000000000000000000000000000000000000000000000000006001600160a01b03165afa80156141c4575f9061447b575b6020906040519015158152f35b506020813d6020116144ad575b8161449560209383614c9e565b810103126109b2576144a8602091614e1b565b61446e565b3d9150614488565b346109b2576144c336614964565b600a549183151580614726575b156146e1576144e0838610614fd2565b6144ea8484614fc5565b5f1981019081116146cd57846144ff91614fa7565b9061450a8587614fa7565b92600184018094116146cd5761451f9161560b565b9361452a868561501e565b818111156146c55750925b61453f8487614fc5565b109261454a8161502b565b946145586040519687614c9e565b818652601f196145678361502b565b015f5b8181106146ae57505061457c82615094565b965f5b83811061459857604051806111838989898e8e86614a70565b6145ab6145a58284614fc5565b84614df3565b5190815f52600360205260405f206009604051916145c883614c6e565b805483526145d860018201614cbf565b6020840152600281015460408401526003810154606084015260048101546080840152600581015460a0840152600681015460c0840152600781015460e084015260ff6008820154818116151561010086015260081c1615156101208401520154610140820152614649828b614df3565b52614654818a614df3565b506040519163132b6af760e21b835260048301525f82602481305afa80156141c4576001925f91614693575b505161468c828c614df3565b520161457f565b6146a791503d805f833e611a2a8183614c9e565b508b614680565b6020906146b9615042565b82828b0101520161456a565b905092614535565b634e487b7160e01b5f52601160045260245ffd5b60405162461bcd60e51b815260206004820152601e60248201527f4c696d6974206d757374206265206265747765656e203120616e6420353000006044820152606490fd5b5060328411156144d0565b346109b25760403660031901126109b25760043561474d614938565b90805f52600360205261476c60ff600860405f20015460081c16614da3565b5f52600660205260405f209060018060a01b03165f5260205260405f20604051808260208294549384815201905f5260205f20925f5b81811061491f5750506147b792500382614c9e565b80515f9182917f00000000000000000000000000000000000000000000000000000000000000006001600160a01b03169183918291829182805b83518110156148eb576148048185614df3565b519460405195634712f17360e11b875260048701525f866024818c5afa9586156141c4575f966148cf575b5060808601978851604088015161484591614f94565b670de0b6b3a7640000900497889160608901516148629084614f94565b606490049d8e9a61487291614fc5565b9a5161487d91614fc5565b9c61488791614fc5565b9761489191614fc5565b61489a91614fc5565b9460e08101514210156148c6575b61012001516148bd575b6001019895986147f1565b600191506148b2565b600199506148a8565b6148e49196503d805f833e6114178183614c9e565b948b61482f565b5060e09250878486888c6040519687526020870152604086015260608501526080840152151560a0830152151560c0820152f35b84548352600194850194869450602090930192016147a2565b602435906001600160a01b03821682036109b257565b600435906001600160a01b03821682036109b257565b60809060031901126109b257600435906024359060443560078110156109b2579060643560028110156109b25790565b805180835260209291819084018484015e5f828201840152601f01601f1916010190565b9081518152610140806149dc60208501516101606020860152610160850190614994565b9360408101516040850152606081015160608501526080810151608085015260a081015160a085015260c081015160c085015260e081015160e085015261010081015115156101008501526101208101511515610120850152015191015290565b90602080835192838152019201905f5b818110614a5a5750505090565b8251845260209384019390920191600101614a4d565b93919594929560a0850160a08652825180915260c0860190602060c08260051b8901019401915f905b828210614acc575050505081614aba91866080969594036020880152614a3d565b95604085015260608401521515910152565b90919294602080614ae960019360bf198d820301865289516149b8565b970192019201909291614a99565b60409060031901126109b2576004359060243590565b9080602083519182815201916020808360051b8301019401925f915b838310614b3857505050505090565b9091929394602080614b56600193601f198682030187528951614994565b97019301930191939290614b29565b90602080835192838152019201905f5b818110614b825750505090565b82511515845260209384019390920191600101614b75565b98959194614bf9610120999c9b9895614beb8c614c1597614bdd614c239b614bcf614c07996101408652610140860190614a3d565b908482036020860152614b0d565b916040818403910152614b65565b8c810360608e015290614a3d565b908a820360808c0152614b65565b9088820360a08a0152614a3d565b9086820360c0880152614a3d565b9560e08501526101008401521515910152565b90600182811c92168015614c64575b6020831014614c5057565b634e487b7160e01b5f52602260045260245ffd5b91607f1691614c45565b61016081019081106001600160401b03821117614c8a57604052565b634e487b7160e01b5f52604160045260245ffd5b90601f801991011681019081106001600160401b03821117614c8a57604052565b9060405191825f825492614cd284614c36565b8084529360018116908115614d3d5750600114614cf9575b50614cf792500383614c9e565b565b90505f9291925260205f20905f915b818310614d21575050906020614cf7928201015f614cea565b6020919350806001915483858901015201910190918492614d08565b905060209250614cf794915060ff191682840152151560051b8201015f614cea565b8054821015614d74575f5260205f2001905f90565b634e487b7160e01b5f52603260045260245ffd5b6001600160401b038111614c8a57601f01601f191660200190565b15614daa57565b60405162461bcd60e51b8152602060048201526014602482015273149bdd5b9908191bd95cc81b9bdd08195e1a5cdd60621b6044820152606490fd5b805115614d745760200190565b8051821015614d745760209160051b010190565b51906001600160a01b03821682036109b257565b519081151582036109b257565b81601f820112156109b257805190614e3f82614d88565b92614e4d6040519485614c9e565b828452602083830101116109b257815f9260208093018386015e8301015290565b6020818303126109b2578051906001600160401b0382116109b257016101a0818303126109b257604051916101a083018381106001600160401b03821117614c8a57604052815183526020820151602084015260408201516040840152606082015160608401526080820151608084015260a082015160a084015260c082015160c084015260e082015160e0840152614f0a6101008301614e07565b610100840152614f1d6101208301614e1b565b610120840152614f306101408301614e1b565b610140840152614f436101608301614e1b565b6101608401526101808201516001600160401b0381116109b257614f679201614e28565b61018082015290565b90670de0b6b3a7640000820291808304670de0b6b3a764000014901517156146cd57565b818102929181159184041417156146cd57565b8115614fb1570490565b634e487b7160e01b5f52601260045260245ffd5b919082018092116146cd57565b15614fd957565b60405162461bcd60e51b815260206004820152601b60248201527f4f6666736574206578636565647320746f74616c20726f756e647300000000006044820152606490fd5b919082039182116146cd57565b6001600160401b038111614c8a5760051b60200190565b6040519061504f82614c6e565b5f61014083828152606060208201528260408201528260608201528260808201528260a08201528260c08201528260e082015282610100820152826101208201520152565b9061509e8261502b565b6150ab6040519182614c9e565b82815280926150bc601f199161502b565b0190602036910137565b9080601f830112156109b25781516150dd8161502b565b926150eb6040519485614c9e565b81845260208085019260051b8201019283116109b257602001905b8282106151135750505090565b8151815260209182019101615106565b9190916040818403126109b25780516001600160401b0381116109b257810183601f820112156109b2578051906151598261502b565b916151676040519384614c9e565b80835260208084019160051b830101918683116109b257602001905b8282106151ae575050509260208201516001600160401b0381116109b2576151ab92016150c6565b90565b602080916151bb84614e07565b815201910190615183565b5f1981146146cd5760010190565b5f52600460205260405f20604051808260208294549384815201905f5260205f20925f5b81811061534c57505061520d92500382614c9e565b805190811561533e575f92839182919082907f00000000000000000000000000000000000000000000000000000000000000006001600160a01b0316825b87811061525c575050509493929190565b61526981849a959a614df3565b519860405199634712f17360e11b8b5260048b01525f8a602481865afa998a156141c4575f9a61531e575b506152d7906152d18b60646152ca6060670de0b6b3a76400006152c06080860151604087015190614f94565b0493015183614f94565b0492614fc5565b95614fc5565b98610120810151615309575b61014001516152f5575b60010161524b565b946153016001916151c6565b9590506152ed565b96615316610140916151c6565b9790506152e3565b6152d7919a50615337903d805f833e6114178183614c9e565b9990615294565b50505f905f905f905f905f90565b84548352600194850194869450602090930192016151f8565b1561536c57565b60405162461bcd60e51b81526020600482015260126024820152714e6f20616d6f756e7420746f20636c61696d60701b6044820152606490fd5b156153ad57565b60405162461bcd60e51b815260206004820152602260248201527f496e73756666696369656e7420636f6e747261637420555344542062616c616e604482015261636560f01b6064820152608490fd5b1561540457565b60405162461bcd60e51b815260206004820152601f60248201527f496e73756666696369656e7420726f756e6420555344542062616c616e6365006044820152606490fd5b1561545057565b60405162461bcd60e51b81526020600482015260146024820152731554d115081d1c985b9cd9995c8819985a5b195960621b6044820152606490fd5b9080601f830112156109b25781516154a38161502b565b926154b16040519485614c9e565b81845260208085019260051b8201019283116109b257602001905b8282106154d95750505090565b602080916154e684614e1b565b8152019101906154cc565b156154f857565b60405162461bcd60e51b815260206004820152601d60248201527f416d6f756e74206d7573742062652067726561746572207468616e20300000006044820152606490fd5b906155478261502b565b6155546040519182614c9e565b8281528092615565601f199161502b565b01905f5b82811061557557505050565b806060602080938501015201615569565b1561558d57565b60405162461bcd60e51b815260206004820152601c60248201527f496e766573746d656e7420706572696f642068617320636c6f736564000000006044820152606490fd5b805468010000000000000000811015614c8a576155f491600182018155614d5f565b819291549060031b91821b915f19901b1916179055565b90916008549161561a83615094565b915f935f5b8181106159a757505061563184615094565b925f5b8581106159885750505f905b5f1985018581116146cd5782101561597f575f5b61565e838761501e565b5f1981019081116146cd578110156159745761567a8186614df3565b519060018101918282116146cd576156928388614df3565b51905f52600360205260405f209086604051916156ae83614c6e565b835483526156be60018501614cbf565b906020840191825260028501549060408501918252600386015491606086019283526004870154608087015260058701549660a08701978852600960068201549160c08901928352600781015460e08a015260ff600882015481811615156101008c015260081c1615156101208a015201549261014088019384525f52600360205260405f20604051988995869461575586614c6e565b8354865261576560018501614cbf565b99602087019a8b526002850154926040880193845260038601549060608901918252600487015460808a0152610140600960058901549860a08c01998a5260c060068201549c019b8c528d60e060078301549101528d61012060ff6008840154818116151561010085015260081c16151591015201549b019a8b525f92600781101561585a578061586e57505050505050505050505050505051905110915b600289101561585a5760019289615854575b615822575b5001615654565b61584d61582f8389614df3565b519161583b818a614df3565b51615846858b614df3565b5288614df3565b525f61581b565b15615816565b634e487b7160e01b5f52602160045260245ffd5b91939597999b9d5091939597999b9d50600181145f146158ac5750505050505050505050505051602081519101209051602081519101201091615804565b91939597999b5091939597999b50600281145f146158d857505050505050505050505190511091615804565b90929496989a506003919395979950145f146158ff57505050505050505190511091615804565b91939597509193955060048c145f1461593757505050615926906159309351905190614f94565b9251905190614f94565b1091615804565b919350915060058a03615951575050505190511091615804565b91959350915060068814615967575b5050615804565b5190511092505f80615960565b509060010190615640565b94505050905090565b8061599560019284614df3565b516159a08288614df3565b5201615634565b805f52600360205260ff600860405f20015460081c166159ca575b60010161561f565b946159dc818761318d60019489614df3565b9590506159c2565b6002600154146159f5576002600155565b633ee5aeb560e01b5f5260045ffd5b60ff60025416615a1057565b63d93c066560e01b5f5260045ffd5b5f546001600160a01b03163303615a3257565b63118cdaa760e01b5f523360045260245ffdfea2646970667358221220bc594f3146e3cc8cb0c448707a48dec3fa01f5a17b7fd4e07a1c1dc4fe16d21164736f6c634300081c0033",
  "linkReferences": {},
  "deployedLinkReferences": {},
  "immutableReferences": {
    "16572": [
      {
        "length": 32,
        "start": 2997
      },
      {
        "length": 32,
        "start": 3519
      },
      {
        "length": 32,
        "start": 4531
      },
      {
        "length": 32,
        "start": 4943
      },
      {
        "length": 32,
        "start": 6253
      },
      {
        "length": 32,
        "start": 8398
      },
      {
        "length": 32,
        "start": 12468
      },
      {
        "length": 32,
        "start": 15910
      },
      {
        "length": 32,
        "start": 16100
      },
      {
        "length": 32,
        "start": 17463
      },
      {
        "length": 32,
        "start": 18367
      },
      {
        "length": 32,
        "start": 21025
      }
    ]
  },
  "inputSourceName": "project/contracts/FundRaisingContractNFT.sol",
  "buildInfoId": "solc-0_8_28-799eed5c1e6197a4e04a5bf8b51d3ba3ad29f426"
}