{
  "_format": "hh3-artifact-1",
  "contractName": "MockUSDT",
  "sourceName": "contracts/MockUSDT.sol",
  "abi": [
    {
      "inputs": [
        {
          "internalType": "string",
          "name": "name",
          "type": "string"
        },
        {
          "internalType": "string",
          "name": "symbol",
          "type": "string"
        },
        {
          "internalType": "uint8",
          "name": "decimals_",
          "type": "uint8"
        },
        {
          "internalType": "uint256",
          "name": "initialSupply",
          "type": "uint256"
        }
      ],
      "stateMutability": "nonpayable",
      "type": "constructor"
    },
    {
      "inputs": [
        {
          "internalType": "address",
          "name": "spender",
          "type": "address"
        },
        {
          "internalType": "uint256",
          "name": "allowance",
          "type": "uint256"
        },
        {
          "internalType": "uint256",
          "name": "needed",
          "type": "uint256"
        }
      ],
      "name": "ERC20InsufficientAllowance",
      "type": "error"
    },
    {
      "inputs": [
        {
          "internalType": "address",
          "name": "sender",
          "type": "address"
        },
        {
          "internalType": "uint256",
          "name": "balance",
          "type": "uint256"
        },
        {
          "internalType": "uint256",
          "name": "needed",
          "type": "uint256"
        }
      ],
      "name": "ERC20InsufficientBalance",
      "type": "error"
    },
    {
      "inputs": [
        {
          "internalType": "address",
          "name": "approver",
          "type": "address"
        }
      ],
      "name": "ERC20InvalidApprover",
      "type": "error"
    },
    {
      "inputs": [
        {
          "internalType": "address",
          "name": "receiver",
          "type": "address"
        }
      ],
      "name": "ERC20InvalidReceiver",
      "type": "error"
    },
    {
      "inputs": [
        {
          "internalType": "address",
          "name": "sender",
          "type": "address"
        }
      ],
      "name": "ERC20InvalidSender",
      "type": "error"
    },
    {
      "inputs": [
        {
          "internalType": "address",
          "name": "spender",
          "type": "address"
        }
      ],
      "name": "ERC20InvalidSpender",
      "type": "error"
    },
    {
      "anonymous": false,
      "inputs": [
        {
          "indexed": true,
          "internalType": "address",
          "name": "owner",
          "type": "address"
        },
        {
          "indexed": true,
          "internalType": "address",
          "name": "spender",
          "type": "address"
        },
        {
          "indexed": false,
          "internalType": "uint256",
          "name": "value",
          "type": "uint256"
        }
      ],
      "name": "Approval",
      "type": "event"
    },
    {
      "anonymous": false,
      "inputs": [
        {
          "indexed": true,
          "internalType": "address",
          "name": "from",
          "type": "address"
        },
        {
          "indexed": true,
          "internalType": "address",
          "name": "to",
          "type": "address"
        },
        {
          "indexed": false,
          "internalType": "uint256",
          "name": "value",
          "type": "uint256"
        }
      ],
      "name": "Transfer",
      "type": "event"
    },
    {
      "inputs": [
        {
          "internalType": "address",
          "name": "owner",
          "type": "address"
        },
        {
          "internalType": "address",
          "name": "spender",
          "type": "address"
        }
      ],
      "name": "allowance",
      "outputs": [
        {
          "internalType": "uint256",
          "name": "",
          "type": "uint256"
        }
      ],
      "stateMutability": "view",
      "type": "function"
    },
    {
      "inputs": [
        {
          "internalType": "address",
          "name": "spender",
          "type": "address"
        },
        {
          "internalType": "uint256",
          "name": "value",
          "type": "uint256"
        }
      ],
      "name": "approve",
      "outputs": [
        {
          "internalType": "bool",
          "name": "",
          "type": "bool"
        }
      ],
      "stateMutability": "nonpayable",
      "type": "function"
    },
    {
      "inputs": [
        {
          "internalType": "address",
          "name": "account",
          "type": "address"
        }
      ],
      "name": "balanceOf",
      "outputs": [
        {
          "internalType": "uint256",
          "name": "",
          "type": "uint256"
        }
      ],
      "stateMutability": "view",
      "type": "function"
    },
    {
      "inputs": [
        {
          "internalType": "uint256",
          "name": "amount",
          "type": "uint256"
        }
      ],
      "name": "burn",
      "outputs": [],
      "stateMutability": "nonpayable",
      "type": "function"
    },
    {
      "inputs": [],
      "name": "decimals",
      "outputs": [
        {
          "internalType": "uint8",
          "name": "",
          "type": "uint8"
        }
      ],
      "stateMutability": "view",
      "type": "function"
    },
    {
      "inputs": [],
      "name": "faucet",
      "outputs": [],
      "stateMutability": "nonpayable",
      "type": "function"
    },
    {
      "inputs": [
        {
          "internalType": "address",
          "name": "to",
          "type": "address"
        },
        {
          "internalType": "uint256",
          "name": "amount",
          "type": "uint256"
        }
      ],
      "name": "mint",
      "outputs": [],
      "stateMutability": "nonpayable",
      "type": "function"
    },
    {
      "inputs": [],
      "name": "name",
      "outputs": [
        {
          "internalType": "string",
          "name": "",
          "type": "string"
        }
      ],
      "stateMutability": "view",
      "type": "function"
    },
    {
      "inputs": [],
      "name": "symbol",
      "outputs": [
        {
          "internalType": "string",
          "name": "",
          "type": "string"
        }
      ],
      "stateMutability": "view",
      "type": "function"
    },
    {
      "inputs": [],
      "name": "totalSupply",
      "outputs": [
        {
          "internalType": "uint256",
          "name": "",
          "type": "uint256"
        }
      ],
      "stateMutability": "view",
      "type": "function"
    },
    {
      "inputs": [
        {
          "internalType": "address",
          "name": "to",
          "type": "address"
        },
        {
          "internalType": "uint256",
          "name": "value",
          "type": "uint256"
        }
      ],
      "name": "transfer",
      "outputs": [
        {
          "internalType": "bool",
          "name": "",
          "type": "bool"
        }
      ],
      "stateMutability": "nonpayable",
      "type": "function"
    },
    {
      "inputs": [
        {
          "internalType": "address",
          "name": "from",
          "type": "address"
        },
        {
          "internalType": "address",
          "name": "to",
          "type": "address"
        },
        {
          "internalType": "uint256",
          "name": "value",
          "type": "uint256"
        }
      ],
      "name": "transferFrom",
      "outputs": [
        {
          "internalType": "bool",
          "name": "",
          "type": "bool"
        }
      ],
      "stateMutability": "nonpayable",
      "type": "function"
    }
  ],
  "bytecode": "0x6080604052346103d057610c4880380380610019816103d5565b9283398101906080818303126103d05780516001600160401b0381116103d057826100459183016103fa565b602082015190926001600160401b0382116103d0576100659183016103fa565b9060408101519060ff82168092036103d0576060015183519091906001600160401b0381116102d957600354600181811c911680156103c6575b60208210146102b957601f8111610361575b50602094601f82116001146102fa579481929394956000926102ef575b50508160011b916000199060031b1c1916176003555b82516001600160401b0381116102d957600454600181811c911680156102cf575b60208210146102b957601f8111610254575b506020601f82116001146101ed57819293946000926101e2575b50508160011b916000199060031b1c1916176004555b60ff19600554161760055533156101cc576002548181018091116101b657600255600033815280602052604081208281540190556040519182527fddf252ad1be2c89b69c2b068fc378daa952ba7f163c4a11628f55a4df523b3ef60203393a36040516107e290816104668239f35b634e487b7160e01b600052601160045260246000fd5b63ec442f0560e01b600052600060045260246000fd5b015190503880610131565b601f198216906004600052806000209160005b81811061023c57509583600195969710610223575b505050811b01600455610147565b015160001960f88460031b161c19169055388080610215565b9192602060018192868b015181550194019201610200565b60046000527f8a35acfbc15ff81a39ae7d344fd709f28e8600b4aa8c65c6b64bfe7fe36bd19b601f830160051c810191602084106102af575b601f0160051c01905b8181106102a35750610117565b60008155600101610296565b909150819061028d565b634e487b7160e01b600052602260045260246000fd5b90607f1690610105565b634e487b7160e01b600052604160045260246000fd5b0151905038806100ce565b601f198216956003600052806000209160005b88811061034957508360019596979810610330575b505050811b016003556100e4565b015160001960f88460031b161c19169055388080610322565b9192602060018192868501518155019401920161030d565b60036000527fc2575a0e9e593c00f959f8c92f12db2869c3395a3b0502d05e2516446f71f85b601f830160051c810191602084106103bc575b601f0160051c01905b8181106103b057506100b1565b600081556001016103a3565b909150819061039a565b90607f169061009f565b600080fd5b6040519190601f01601f191682016001600160401b038111838210176102d957604052565b81601f820112156103d0578051906001600160401b0382116102d957610429601f8301601f19166020016103d5565b92828452602083830101116103d05760005b82811061045057505060206000918301015290565b8060208092840101518282870101520161043b56fe608080604052600436101561001357600080fd5b60003560e01c90816306fdde031461055657508063095ea7b3146104d057806318160ddd146104b257806323b872dd146103c5578063313ce567146103a457806340c10f191461037f57806342966c68146102d957806370a082311461029f57806395d89b411461017e578063a9059cbb1461014d578063dd62ed3e146100fc5763de5f72fd146100a357600080fd5b346100f75760003660031901126100f75760ff60055416604d81116100e157600a0a8061271002906127108204036100e1576100df903361074d565b005b634e487b7160e01b600052601160045260246000fd5b600080fd5b346100f75760403660031901126100f757610115610672565b61011d610688565b6001600160a01b039182166000908152600160209081526040808320949093168252928352819020549051908152f35b346100f75760403660031901126100f757610173610169610672565b602435903361069e565b602060405160018152f35b346100f75760003660031901126100f75760405160006004548060011c90600181168015610295575b60208310811461028157828552908115610265575060011461020e575b50819003601f01601f191681019067ffffffffffffffff8211818310176101f8576101f482918260405282610629565b0390f35b634e487b7160e01b600052604160045260246000fd5b905060046000527f8a35acfbc15ff81a39ae7d344fd709f28e8600b4aa8c65c6b64bfe7fe36bd19b6000905b82821061024f575060209150820101826101c4565b600181602092548385880101520191019061023a565b90506020925060ff191682840152151560051b820101826101c4565b634e487b7160e01b84526022600452602484fd5b91607f16916101a7565b346100f75760203660031901126100f7576001600160a01b036102c0610672565b1660005260006020526020604060002054604051908152f35b346100f75760203660031901126100f757600435331561036957600033815280602052604081205491808310610350578082933384528360205203604083205580600254036002556040519081527fddf252ad1be2c89b69c2b068fc378daa952ba7f163c4a11628f55a4df523b3ef60203392a380f35b60649263391434e360e21b835233600452602452604452fd5b634b637e8f60e11b600052600060045260246000fd5b346100f75760403660031901126100f7576100df61039b610672565b6024359061074d565b346100f75760003660031901126100f757602060ff60055416604051908152f35b346100f75760603660031901126100f7576103de610672565b6103e6610688565b6001600160a01b0382166000818152600160209081526040808320338452909152902054909260443592916000198110610426575b50610173935061069e565b83811061049557841561047f57331561046957610173946000526001602052604060002060018060a01b033316600052602052836040600020910390558461041b565b634a1406b160e11b600052600060045260246000fd5b63e602df0560e01b600052600060045260246000fd5b8390637dc7a0d960e11b6000523360045260245260445260646000fd5b346100f75760003660031901126100f7576020600254604051908152f35b346100f75760403660031901126100f7576104e9610672565b60243590331561047f576001600160a01b031690811561046957336000526001602052604060002082600052602052806040600020556040519081527f8c5be1e5ebec7d5bd14f71427d1e84f3dd0314c0f7b2291e5b200ac8c7c3b92560203392a3602060405160018152f35b346100f75760003660031901126100f75760006003548060011c9060018116801561061f575b6020831081146102815782855290811561026557506001146105c85750819003601f01601f191681019067ffffffffffffffff8211818310176101f8576101f482918260405282610629565b905060036000527fc2575a0e9e593c00f959f8c92f12db2869c3395a3b0502d05e2516446f71f85b6000905b828210610609575060209150820101826101c4565b60018160209254838588010152019101906105f4565b91607f169161057c565b91909160208152825180602083015260005b81811061065c575060409293506000838284010152601f8019910116010190565b806020809287010151604082860101520161063b565b600435906001600160a01b03821682036100f757565b602435906001600160a01b03821682036100f757565b6001600160a01b0316908115610369576001600160a01b031691821561073757600082815280602052604081205482811061071d5791604082827fddf252ad1be2c89b69c2b068fc378daa952ba7f163c4a11628f55a4df523b3ef958760209652828652038282205586815280845220818154019055604051908152a3565b916064928463391434e360e21b8452600452602452604452fd5b63ec442f0560e01b600052600060045260246000fd5b6001600160a01b0316908115610737576002548181018091116100e1576002557fddf252ad1be2c89b69c2b068fc378daa952ba7f163c4a11628f55a4df523b3ef602060009284845283825260408420818154019055604051908152a356fea264697066735822122053980c512c4bedf6af74ba61570247a98ee558ef6a60ba2510858ab36207e2d064736f6c634300081c0033",
  "linkReferences": {},
  "deployedLinkReferences": {},
  "immutableReferences": {},
  "inputSourceName": "project/contracts/MockUSDT.sol",
  "buildInfoId": "solc-0_8_28-9852582604af8d08cd87b803676409d9e509ac02"
}