{
  "_format": "hh3-artifact-1",
  "contractName": "FundRaisingCore",
  "sourceName": "contracts/FundRaisingCore.sol",
  "abi": [
    {
      "inputs": [
        {
          "internalType": "address",
          "name": "_dzNFT",
          "type": "address"
        },
        {
          "internalType": "address",
          "name": "_usdtToken",
          "type": "address"
        }
      ],
      "stateMutability": "nonpayable",
      "type": "constructor"
    },
    {
      "inputs": [],
      "name": "EnforcedPause",
      "type": "error"
    },
    {
      "inputs": [],
      "name": "ExpectedPause",
      "type": "error"
    },
    {
      "inputs": [
        {
          "internalType": "address",
          "name": "owner",
          "type": "address"
        }
      ],
      "name": "OwnableInvalidOwner",
      "type": "error"
    },
    {
      "inputs": [
        {
          "internalType": "address",
          "name": "account",
          "type": "address"
        }
      ],
      "name": "OwnableUnauthorizedAccount",
      "type": "error"
    },
    {
      "inputs": [],
      "name": "ReentrancyGuardReentrantCall",
      "type": "error"
    },
    {
      "anonymous": false,
      "inputs": [
        {
          "indexed": true,
          "internalType": "address",
          "name": "oldContract",
          "type": "address"
        },
        {
          "indexed": true,
          "internalType": "address",
          "name": "newContract",
          "type": "address"
        }
      ],
      "name": "AuthorizedClaimsContractUpdated",
      "type": "event"
    },
    {
      "anonymous": false,
      "inputs": [
        {
          "indexed": false,
          "internalType": "uint256",
          "name": "roundId",
          "type": "uint256"
        },
        {
          "indexed": false,
          "internalType": "uint256",
          "name": "amount",
          "type": "uint256"
        },
        {
          "indexed": false,
          "internalType": "address",
          "name": "recipient",
          "type": "address"
        }
      ],
      "name": "EmergencyRoundWithdrawal",
      "type": "event"
    },
    {
      "anonymous": false,
      "inputs": [
        {
          "indexed": true,
          "internalType": "address",
          "name": "investor",
          "type": "address"
        },
        {
          "indexed": true,
          "internalType": "uint256",
          "name": "roundId",
          "type": "uint256"
        },
        {
          "indexed": false,
          "internalType": "uint256",
          "name": "tokenCount",
          "type": "uint256"
        },
        {
          "indexed": false,
          "internalType": "uint256",
          "name": "usdtAmount",
          "type": "uint256"
        }
      ],
      "name": "Investment",
      "type": "event"
    },
    {
      "anonymous": false,
      "inputs": [
        {
          "indexed": true,
          "internalType": "uint256",
          "name": "roundId",
          "type": "uint256"
        },
        {
          "indexed": false,
          "internalType": "string",
          "name": "roundName",
          "type": "string"
        },
        {
          "indexed": false,
          "internalType": "uint256",
          "name": "tokenPrice",
          "type": "uint256"
        }
      ],
      "name": "InvestmentRoundCreated",
      "type": "event"
    },
    {
      "anonymous": false,
      "inputs": [
        {
          "indexed": true,
          "internalType": "address",
          "name": "previousOwner",
          "type": "address"
        },
        {
          "indexed": true,
          "internalType": "address",
          "name": "newOwner",
          "type": "address"
        }
      ],
      "name": "OwnershipTransferred",
      "type": "event"
    },
    {
      "anonymous": false,
      "inputs": [
        {
          "indexed": false,
          "internalType": "address",
          "name": "account",
          "type": "address"
        }
      ],
      "name": "Paused",
      "type": "event"
    },
    {
      "anonymous": false,
      "inputs": [
        {
          "indexed": true,
          "internalType": "uint256",
          "name": "roundId",
          "type": "uint256"
        },
        {
          "indexed": false,
          "internalType": "uint256",
          "name": "amount",
          "type": "uint256"
        },
        {
          "indexed": false,
          "internalType": "uint256",
          "name": "totalRewardPool",
          "type": "uint256"
        }
      ],
      "name": "RewardAdded",
      "type": "event"
    },
    {
      "anonymous": false,
      "inputs": [
        {
          "indexed": true,
          "internalType": "uint256",
          "name": "roundId",
          "type": "uint256"
        },
        {
          "indexed": false,
          "internalType": "bool",
          "name": "isActive",
          "type": "bool"
        }
      ],
      "name": "RoundStatusChanged",
      "type": "event"
    },
    {
      "anonymous": false,
      "inputs": [
        {
          "indexed": true,
          "internalType": "address",
          "name": "oldToken",
          "type": "address"
        },
        {
          "indexed": true,
          "internalType": "address",
          "name": "newToken",
          "type": "address"
        }
      ],
      "name": "USDTTokenUpdated",
      "type": "event"
    },
    {
      "anonymous": false,
      "inputs": [
        {
          "indexed": false,
          "internalType": "address",
          "name": "account",
          "type": "address"
        }
      ],
      "name": "Unpaused",
      "type": "event"
    },
    {
      "inputs": [],
      "name": "MAX_TOKENS_PER_INVESTMENT",
      "outputs": [
        {
          "internalType": "uint256",
          "name": "",
          "type": "uint256"
        }
      ],
      "stateMutability": "view",
      "type": "function"
    },
    {
      "inputs": [],
      "name": "USDT_DECIMALS",
      "outputs": [
        {
          "internalType": "uint256",
          "name": "",
          "type": "uint256"
        }
      ],
      "stateMutability": "view",
      "type": "function"
    },
    {
      "inputs": [],
      "name": "_nextRoundId",
      "outputs": [
        {
          "internalType": "uint256",
          "name": "",
          "type": "uint256"
        }
      ],
      "stateMutability": "view",
      "type": "function"
    },
    {
      "inputs": [
        {
          "internalType": "uint256",
          "name": "roundId",
          "type": "uint256"
        },
        {
          "internalType": "uint256",
          "name": "amount",
          "type": "uint256"
        }
      ],
      "name": "addRewardToRound",
      "outputs": [],
      "stateMutability": "nonpayable",
      "type": "function"
    },
    {
      "inputs": [],
      "name": "authorizedClaimsContract",
      "outputs": [
        {
          "internalType": "address",
          "name": "",
          "type": "address"
        }
      ],
      "stateMutability": "view",
      "type": "function"
    },
    {
      "inputs": [
        {
          "internalType": "uint256[]",
          "name": "tokenIds",
          "type": "uint256[]"
        }
      ],
      "name": "batchGetTokensDetail",
      "outputs": [
        {
          "components": [
            {
              "internalType": "uint256",
              "name": "tokenId",
              "type": "uint256"
            },
            {
              "internalType": "uint256",
              "name": "roundId",
              "type": "uint256"
            },
            {
              "internalType": "uint256",
              "name": "tokenPrice",
              "type": "uint256"
            },
            {
              "internalType": "uint256",
              "name": "rewardPercentage",
              "type": "uint256"
            },
            {
              "internalType": "uint256",
              "name": "purchaseTimestamp",
              "type": "uint256"
            },
            {
              "internalType": "uint256",
              "name": "closeDateInvestment",
              "type": "uint256"
            },
            {
              "internalType": "uint256",
              "name": "endDateInvestment",
              "type": "uint256"
            },
            {
              "internalType": "address",
              "name": "originalBuyer",
              "type": "address"
            },
            {
              "internalType": "bool",
              "name": "redeemed",
              "type": "bool"
            },
            {
              "internalType": "bool",
              "name": "rewardClaimed",
              "type": "bool"
            },
            {
              "internalType": "bool",
              "name": "transferLocked",
              "type": "bool"
            },
            {
              "internalType": "string",
              "name": "metadata",
              "type": "string"
            }
          ],
          "internalType": "struct DZNFT.InvestmentData[]",
          "name": "",
          "type": "tuple[]"
        }
      ],
      "stateMutability": "view",
      "type": "function"
    },
    {
      "inputs": [
        {
          "internalType": "string",
          "name": "roundName",
          "type": "string"
        },
        {
          "internalType": "uint256",
          "name": "tokenPrice",
          "type": "uint256"
        },
        {
          "internalType": "uint256",
          "name": "rewardPercentage",
          "type": "uint256"
        },
        {
          "internalType": "uint256",
          "name": "totalTokenOpenInvestment",
          "type": "uint256"
        },
        {
          "internalType": "uint256",
          "name": "closeDateInvestment",
          "type": "uint256"
        },
        {
          "internalType": "uint256",
          "name": "endDateInvestment",
          "type": "uint256"
        }
      ],
      "name": "createInvestmentRound",
      "outputs": [],
      "stateMutability": "nonpayable",
      "type": "function"
    },
    {
      "inputs": [],
      "name": "dzNFT",
      "outputs": [
        {
          "internalType": "contract DZNFT",
          "name": "",
          "type": "address"
        }
      ],
      "stateMutability": "view",
      "type": "function"
    },
    {
      "inputs": [
        {
          "internalType": "address",
          "name": "recipient",
          "type": "address"
        },
        {
          "internalType": "uint256",
          "name": "amount",
          "type": "uint256"
        }
      ],
      "name": "emergencyTransferUSDT",
      "outputs": [
        {
          "internalType": "bool",
          "name": "",
          "type": "bool"
        }
      ],
      "stateMutability": "nonpayable",
      "type": "function"
    },
    {
      "inputs": [
        {
          "internalType": "uint256",
          "name": "roundId",
          "type": "uint256"
        }
      ],
      "name": "emergencyWithdrawAllFromRound",
      "outputs": [],
      "stateMutability": "nonpayable",
      "type": "function"
    },
    {
      "inputs": [
        {
          "internalType": "address",
          "name": "investor",
          "type": "address"
        }
      ],
      "name": "getAllTokensOwnedBy",
      "outputs": [
        {
          "internalType": "uint256[]",
          "name": "",
          "type": "uint256[]"
        }
      ],
      "stateMutability": "view",
      "type": "function"
    },
    {
      "inputs": [],
      "name": "getContractUSDTBalance",
      "outputs": [
        {
          "internalType": "uint256",
          "name": "",
          "type": "uint256"
        }
      ],
      "stateMutability": "view",
      "type": "function"
    },
    {
      "inputs": [
        {
          "internalType": "uint256",
          "name": "tokenId",
          "type": "uint256"
        }
      ],
      "name": "getExistsToken",
      "outputs": [
        {
          "internalType": "bool",
          "name": "",
          "type": "bool"
        }
      ],
      "stateMutability": "view",
      "type": "function"
    },
    {
      "inputs": [
        {
          "internalType": "uint256",
          "name": "tokenId",
          "type": "uint256"
        }
      ],
      "name": "getInvestmentData",
      "outputs": [
        {
          "components": [
            {
              "internalType": "uint256",
              "name": "tokenId",
              "type": "uint256"
            },
            {
              "internalType": "uint256",
              "name": "roundId",
              "type": "uint256"
            },
            {
              "internalType": "uint256",
              "name": "tokenPrice",
              "type": "uint256"
            },
            {
              "internalType": "uint256",
              "name": "rewardPercentage",
              "type": "uint256"
            },
            {
              "internalType": "uint256",
              "name": "purchaseTimestamp",
              "type": "uint256"
            },
            {
              "internalType": "uint256",
              "name": "closeDateInvestment",
              "type": "uint256"
            },
            {
              "internalType": "uint256",
              "name": "endDateInvestment",
              "type": "uint256"
            },
            {
              "internalType": "address",
              "name": "originalBuyer",
              "type": "address"
            },
            {
              "internalType": "bool",
              "name": "redeemed",
              "type": "bool"
            },
            {
              "internalType": "bool",
              "name": "rewardClaimed",
              "type": "bool"
            },
            {
              "internalType": "bool",
              "name": "transferLocked",
              "type": "bool"
            },
            {
              "internalType": "string",
              "name": "metadata",
              "type": "string"
            }
          ],
          "internalType": "struct DZNFT.InvestmentData",
          "name": "",
          "type": "tuple"
        }
      ],
      "stateMutability": "view",
      "type": "function"
    },
    {
      "inputs": [
        {
          "internalType": "uint256",
          "name": "roundId",
          "type": "uint256"
        }
      ],
      "name": "getRoundTokenCount",
      "outputs": [
        {
          "internalType": "uint256",
          "name": "",
          "type": "uint256"
        }
      ],
      "stateMutability": "view",
      "type": "function"
    },
    {
      "inputs": [
        {
          "internalType": "uint256",
          "name": "roundId",
          "type": "uint256"
        }
      ],
      "name": "getRoundTokenIds",
      "outputs": [
        {
          "internalType": "uint256[]",
          "name": "",
          "type": "uint256[]"
        }
      ],
      "stateMutability": "view",
      "type": "function"
    },
    {
      "inputs": [
        {
          "internalType": "uint256[]",
          "name": "roundIds",
          "type": "uint256[]"
        }
      ],
      "name": "getRoundsDetail",
      "outputs": [
        {
          "components": [
            {
              "internalType": "uint256",
              "name": "roundId",
              "type": "uint256"
            },
            {
              "internalType": "string",
              "name": "roundName",
              "type": "string"
            },
            {
              "internalType": "uint256",
              "name": "tokenPrice",
              "type": "uint256"
            },
            {
              "internalType": "uint256",
              "name": "rewardPercentage",
              "type": "uint256"
            },
            {
              "internalType": "uint256",
              "name": "totalTokenOpenInvestment",
              "type": "uint256"
            },
            {
              "internalType": "uint256",
              "name": "tokensSold",
              "type": "uint256"
            },
            {
              "internalType": "uint256",
              "name": "closeDateInvestment",
              "type": "uint256"
            },
            {
              "internalType": "uint256",
              "name": "endDateInvestment",
              "type": "uint256"
            },
            {
              "internalType": "bool",
              "name": "isActive",
              "type": "bool"
            },
            {
              "internalType": "bool",
              "name": "exists",
              "type": "bool"
            },
            {
              "internalType": "uint256",
              "name": "createdAt",
              "type": "uint256"
            },
            {
              "internalType": "enum FundRaisingCore.Status",
              "name": "status",
              "type": "uint8"
            }
          ],
          "internalType": "struct FundRaisingCore.InvestmentRound[]",
          "name": "",
          "type": "tuple[]"
        }
      ],
      "stateMutability": "view",
      "type": "function"
    },
    {
      "inputs": [
        {
          "internalType": "uint256",
          "name": "tokenId",
          "type": "uint256"
        }
      ],
      "name": "getTokenDetail",
      "outputs": [
        {
          "components": [
            {
              "internalType": "uint256",
              "name": "tokenId",
              "type": "uint256"
            },
            {
              "internalType": "uint256",
              "name": "roundId",
              "type": "uint256"
            },
            {
              "internalType": "uint256",
              "name": "tokenPrice",
              "type": "uint256"
            },
            {
              "internalType": "uint256",
              "name": "rewardPercentage",
              "type": "uint256"
            },
            {
              "internalType": "uint256",
              "name": "purchaseTimestamp",
              "type": "uint256"
            },
            {
              "internalType": "uint256",
              "name": "closeDateInvestment",
              "type": "uint256"
            },
            {
              "internalType": "uint256",
              "name": "endDateInvestment",
              "type": "uint256"
            },
            {
              "internalType": "address",
              "name": "originalBuyer",
              "type": "address"
            },
            {
              "internalType": "bool",
              "name": "redeemed",
              "type": "bool"
            },
            {
              "internalType": "bool",
              "name": "rewardClaimed",
              "type": "bool"
            },
            {
              "internalType": "bool",
              "name": "transferLocked",
              "type": "bool"
            },
            {
              "internalType": "string",
              "name": "metadata",
              "type": "string"
            }
          ],
          "internalType": "struct DZNFT.InvestmentData",
          "name": "",
          "type": "tuple"
        }
      ],
      "stateMutability": "view",
      "type": "function"
    },
    {
      "inputs": [],
      "name": "getUSDTTokenAddress",
      "outputs": [
        {
          "internalType": "address",
          "name": "",
          "type": "address"
        }
      ],
      "stateMutability": "view",
      "type": "function"
    },
    {
      "inputs": [
        {
          "internalType": "address",
          "name": "investor",
          "type": "address"
        }
      ],
      "name": "getWalletTokensDetail",
      "outputs": [
        {
          "internalType": "uint256[]",
          "name": "tokenIds",
          "type": "uint256[]"
        },
        {
          "components": [
            {
              "internalType": "uint256",
              "name": "tokenId",
              "type": "uint256"
            },
            {
              "internalType": "uint256",
              "name": "roundId",
              "type": "uint256"
            },
            {
              "internalType": "uint256",
              "name": "tokenPrice",
              "type": "uint256"
            },
            {
              "internalType": "uint256",
              "name": "rewardPercentage",
              "type": "uint256"
            },
            {
              "internalType": "uint256",
              "name": "purchaseTimestamp",
              "type": "uint256"
            },
            {
              "internalType": "uint256",
              "name": "closeDateInvestment",
              "type": "uint256"
            },
            {
              "internalType": "uint256",
              "name": "endDateInvestment",
              "type": "uint256"
            },
            {
              "internalType": "address",
              "name": "originalBuyer",
              "type": "address"
            },
            {
              "internalType": "bool",
              "name": "redeemed",
              "type": "bool"
            },
            {
              "internalType": "bool",
              "name": "rewardClaimed",
              "type": "bool"
            },
            {
              "internalType": "bool",
              "name": "transferLocked",
              "type": "bool"
            },
            {
              "internalType": "string",
              "name": "metadata",
              "type": "string"
            }
          ],
          "internalType": "struct DZNFT.InvestmentData[]",
          "name": "nftsDetail",
          "type": "tuple[]"
        }
      ],
      "stateMutability": "view",
      "type": "function"
    },
    {
      "inputs": [
        {
          "internalType": "uint256",
          "name": "roundId",
          "type": "uint256"
        },
        {
          "internalType": "uint256",
          "name": "tokenAmount",
          "type": "uint256"
        }
      ],
      "name": "investInRound",
      "outputs": [],
      "stateMutability": "nonpayable",
      "type": "function"
    },
    {
      "inputs": [
        {
          "internalType": "uint256",
          "name": "",
          "type": "uint256"
        }
      ],
      "name": "investmentRounds",
      "outputs": [
        {
          "internalType": "uint256",
          "name": "roundId",
          "type": "uint256"
        },
        {
          "internalType": "string",
          "name": "roundName",
          "type": "string"
        },
        {
          "internalType": "uint256",
          "name": "tokenPrice",
          "type": "uint256"
        },
        {
          "internalType": "uint256",
          "name": "rewardPercentage",
          "type": "uint256"
        },
        {
          "internalType": "uint256",
          "name": "totalTokenOpenInvestment",
          "type": "uint256"
        },
        {
          "internalType": "uint256",
          "name": "tokensSold",
          "type": "uint256"
        },
        {
          "internalType": "uint256",
          "name": "closeDateInvestment",
          "type": "uint256"
        },
        {
          "internalType": "uint256",
          "name": "endDateInvestment",
          "type": "uint256"
        },
        {
          "internalType": "bool",
          "name": "isActive",
          "type": "bool"
        },
        {
          "internalType": "bool",
          "name": "exists",
          "type": "bool"
        },
        {
          "internalType": "uint256",
          "name": "createdAt",
          "type": "uint256"
        },
        {
          "internalType": "enum FundRaisingCore.Status",
          "name": "status",
          "type": "uint8"
        }
      ],
      "stateMutability": "view",
      "type": "function"
    },
    {
      "inputs": [],
      "name": "owner",
      "outputs": [
        {
          "internalType": "address",
          "name": "",
          "type": "address"
        }
      ],
      "stateMutability": "view",
      "type": "function"
    },
    {
      "inputs": [],
      "name": "paused",
      "outputs": [
        {
          "internalType": "bool",
          "name": "",
          "type": "bool"
        }
      ],
      "stateMutability": "view",
      "type": "function"
    },
    {
      "inputs": [],
      "name": "renounceOwnership",
      "outputs": [],
      "stateMutability": "nonpayable",
      "type": "function"
    },
    {
      "inputs": [
        {
          "internalType": "uint256",
          "name": "",
          "type": "uint256"
        }
      ],
      "name": "roundInvestedAmount",
      "outputs": [
        {
          "internalType": "uint256",
          "name": "",
          "type": "uint256"
        }
      ],
      "stateMutability": "view",
      "type": "function"
    },
    {
      "inputs": [
        {
          "internalType": "uint256",
          "name": "",
          "type": "uint256"
        }
      ],
      "name": "roundLedger",
      "outputs": [
        {
          "internalType": "uint256",
          "name": "",
          "type": "uint256"
        }
      ],
      "stateMutability": "view",
      "type": "function"
    },
    {
      "inputs": [
        {
          "internalType": "uint256",
          "name": "",
          "type": "uint256"
        }
      ],
      "name": "roundRewardPool",
      "outputs": [
        {
          "internalType": "uint256",
          "name": "",
          "type": "uint256"
        }
      ],
      "stateMutability": "view",
      "type": "function"
    },
    {
      "inputs": [
        {
          "internalType": "uint256",
          "name": "",
          "type": "uint256"
        },
        {
          "internalType": "uint256",
          "name": "",
          "type": "uint256"
        }
      ],
      "name": "roundTokenIds",
      "outputs": [
        {
          "internalType": "uint256",
          "name": "",
          "type": "uint256"
        }
      ],
      "stateMutability": "view",
      "type": "function"
    },
    {
      "inputs": [
        {
          "internalType": "address",
          "name": "_claimsContract",
          "type": "address"
        }
      ],
      "name": "setAuthorizedClaimsContract",
      "outputs": [],
      "stateMutability": "nonpayable",
      "type": "function"
    },
    {
      "inputs": [
        {
          "internalType": "uint256",
          "name": "roundId",
          "type": "uint256"
        },
        {
          "internalType": "bool",
          "name": "active",
          "type": "bool"
        }
      ],
      "name": "setRoundActive",
      "outputs": [],
      "stateMutability": "nonpayable",
      "type": "function"
    },
    {
      "inputs": [
        {
          "internalType": "address",
          "name": "newUSDTToken",
          "type": "address"
        }
      ],
      "name": "setUSDTToken",
      "outputs": [],
      "stateMutability": "nonpayable",
      "type": "function"
    },
    {
      "inputs": [],
      "name": "totalRoundsCreated",
      "outputs": [
        {
          "internalType": "uint256",
          "name": "",
          "type": "uint256"
        }
      ],
      "stateMutability": "view",
      "type": "function"
    },
    {
      "inputs": [],
      "name": "totalUSDTRaised",
      "outputs": [
        {
          "internalType": "uint256",
          "name": "",
          "type": "uint256"
        }
      ],
      "stateMutability": "view",
      "type": "function"
    },
    {
      "inputs": [
        {
          "internalType": "address",
          "name": "newOwner",
          "type": "address"
        }
      ],
      "name": "transferOwnership",
      "outputs": [],
      "stateMutability": "nonpayable",
      "type": "function"
    },
    {
      "inputs": [
        {
          "internalType": "uint256",
          "name": "roundId",
          "type": "uint256"
        },
        {
          "internalType": "uint256",
          "name": "amount",
          "type": "uint256"
        }
      ],
      "name": "transferRewardToClaims",
      "outputs": [],
      "stateMutability": "nonpayable",
      "type": "function"
    },
    {
      "inputs": [
        {
          "internalType": "uint256",
          "name": "roundId",
          "type": "uint256"
        },
        {
          "internalType": "uint256",
          "name": "amount",
          "type": "uint256"
        },
        {
          "internalType": "bool",
          "name": "increase",
          "type": "bool"
        }
      ],
      "name": "updateRoundLedger",
      "outputs": [],
      "stateMutability": "nonpayable",
      "type": "function"
    },
    {
      "inputs": [
        {
          "internalType": "uint256",
          "name": "roundId",
          "type": "uint256"
        },
        {
          "internalType": "enum FundRaisingCore.Status",
          "name": "status",
          "type": "uint8"
        }
      ],
      "name": "updateStatus",
      "outputs": [],
      "stateMutability": "nonpayable",
      "type": "function"
    },
    {
      "inputs": [
        {
          "internalType": "address",
          "name": "user",
          "type": "address"
        },
        {
          "internalType": "uint256",
          "name": "roundId",
          "type": "uint256"
        },
        {
          "internalType": "uint256",
          "name": "amount",
          "type": "uint256"
        }
      ],
      "name": "updateUserClaimedRewards",
      "outputs": [],
      "stateMutability": "nonpayable",
      "type": "function"
    },
    {
      "inputs": [],
      "name": "usdtToken",
      "outputs": [
        {
          "internalType": "contract IERC20",
          "name": "",
          "type": "address"
        }
      ],
      "stateMutability": "view",
      "type": "function"
    },
    {
      "inputs": [
        {
          "internalType": "address",
          "name": "",
          "type": "address"
        },
        {
          "internalType": "uint256",
          "name": "",
          "type": "uint256"
        }
      ],
      "name": "userClaimedRewards",
      "outputs": [
        {
          "internalType": "uint256",
          "name": "",
          "type": "uint256"
        }
      ],
      "stateMutability": "view",
      "type": "function"
    },
    {
      "inputs": [
        {
          "internalType": "uint256",
          "name": "roundId",
          "type": "uint256"
        }
      ],
      "name": "withdrawFund",
      "outputs": [],
      "stateMutability": "nonpayable",
      "type": "function"
    }
  ],
  "bytecode": "0x60a0346101db57601f61316338819003918201601f19168301916001600160401b038311848410176101e05780849260409485528339810103126101db57610052602061004b836101f6565b92016101f6565b9033156101c55760008054336001600160a01b0319821681178355604051939290916001600160a01b0316907f8be0079c531659141344cd1fd0a4f28419497f9722a3daafe3b4186f6b6457e09080a3600180556001600160a01b031690811561018357506001600160a01b0382161561013e5760805260028054610100600160a81b03191660089290921b610100600160a81b0316919091179055604051612f58908161020b8239608051818181610bb601528181610d700152818161155101528181611679015281816118900152818161198e01528181611a3d015281816120cb015261265a0152f35b60405162461bcd60e51b815260206004820152601460248201527f496e76616c6964205553445420616464726573730000000000000000000000006044820152606490fd5b62461bcd60e51b815260206004820152601560248201527f496e76616c696420445a4e4654206164647265737300000000000000000000006044820152606490fd5b631e4fbdf760e01b600052600060045260246000fd5b600080fd5b634e487b7160e01b600052604160045260246000fd5b51906001600160a01b03821682036101db5756fe608080604052600436101561001357600080fd5b60003560e01c90816308c89b6d146126ec5750806309815517146126215780630cee1725146125155780631470e87d14611836578063161f6622146124985780631c25dc581461230757806321bdff091461224557806330814b1b14612227578063354281a0146121fb5780633a1b3d31146121985780635c8f45b1146120885780635c975abb14612065578063632d45eb1461203957806366e226bd14611f6d57806369fbd3cc14611ea05780636a37a9bf14611de7578063715018a614611d8e578063760ca4f414611b8e57806379b2c17a14611af357806384e97c8c14611aca5780638da5cb5b14611aa15780638debb546146119fa5780638e25e2e61461195757806393b58d811461190f57806398ee9f1514611863578063a98ad46c14611836578063b0eff31614611818578063b175b32f146117ec578063b201c0c3146117ac578063bb3505f4146116a8578063bf32eb0114611663578063c0bcc07a1461151a578063c6f83418146114fe578063c8f7604014611472578063d5b52b95146112d7578063d6f90a78146112ab578063df0201b014611023578063df8493b014610a27578063e96d87b4146104ef578063ef2cfd1a146104d3578063f2fde38b1461044a5763f5fe8a58146101ed57600080fd5b3461036357602036600319011261036357600435610209612ed7565b8060005260066020526040600020549081156103f6576002546040516370a0823160e01b815230600482015260089190911c6001600160a01b031690602081602481855afa80156103705784916000916103c1575b501061037c576000805460405163a9059cbb60e01b81526001600160a01b0390911660048201526024810185905291602091839160449183915af190811561037057600091610305575b7f04f1d8f866097f810d061db2341a96804fc3ca3f7d5b3150080815cdd8853e48606084866102d686612c70565b8160005260066020526000604081205560018060a01b03600054169060405192835260208301526040820152a1005b9190506020823d602011610368575b8161032160209383612723565b81010312610363577f04f1d8f866097f810d061db2341a96804fc3ca3f7d5b3150080815cdd8853e48926102d6610359606094612a93565b92935050926102a8565b600080fd5b3d9150610314565b6040513d6000823e3d90fd5b60405162461bcd60e51b815260206004820152601d60248201527f496e73756666696369656e7420636f6e74726163742062616c616e63650000006044820152606490fd5b9150506020813d6020116103ee575b816103dd60209383612723565b81010312610363578390513861025e565b3d91506103d0565b60405162461bcd60e51b815260206004820152602660248201527f4e6f2062616c616e636520746f2077697468647261772066726f6d2074686973604482015265081c9bdd5b9960d21b6064820152608490fd5b3461036357602036600319011261036357610463612949565b61046b612ed7565b6001600160a01b031680156104bd57600080546001600160a01b03198116831782556001600160a01b0316907f8be0079c531659141344cd1fd0a4f28419497f9722a3daafe3b4186f6b6457e09080a3005b631e4fbdf760e01b600052600060045260246000fd5b3461036357600036600319011261036357602060405160128152f35b346103635760c0366003190112610363576004356001600160401b038111610363573660238201121561036357806004013561052a81612a78565b916105386040519384612723565b8183523660248383010111610363578160009260246020930183860137830101526064359060a4359060243590604435608435610573612ed7565b8251156109e25783156109925785156109325781151580610926575b156108d55742811115610890578085111561084157600a549586926105b384612ec8565b600a556040519687936105c585612707565b85855260208501928784526040860194898652606087019182526080870190815260a08701916000835260c0880193845260e0880194855261010088019660018852610120890196600188526101606101408b019a428c52019a60008c526000526004602052600160406000209e8f905181550190518051906001600160401b03821161082b578190610658845461295f565b601f81116107d8575b50602090601f831160011461077357600092610768575b50508160011b916000199060031b1c19161790555b5160028d01555160038c01555160048b01555160058a01555160068901555160078801556106ce6008880192511515839060ff801983541691151516179055565b51815461ff00191690151560081b61ff0016179055516009850155519160058310156107525761072561074793600a7f9bd719c4581ad3c2ad551d9f5ec0458ef29b8c209c84ca2e49fe88d321063d8f9601612cb3565b610730600b54612ec8565b600b556040519283926040845260408401906127fc565b9060208301520390a2005b634e487b7160e01b600052602160045260246000fd5b015190503880610678565b60008581528281209350601f198516905b8181106107c057509084600195949392106107a7575b505050811b01905561068d565b015160001960f88460031b161c1916905538808061079a565b92936020600181928786015181550195019301610784565b909150836000526020600020601f840160051c81019160208510610821575b90601f859493920160051c01905b8181106108125750610661565b60008155849350600101610805565b90915081906107f7565b634e487b7160e01b600052604160045260246000fd5b60405162461bcd60e51b815260206004820152602160248201527f456e642064617465206d75737420626520616674657220636c6f7365206461746044820152606560f81b6064820152608490fd5b60405162461bcd60e51b815260206004820152601c60248201527f436c6f73652064617465206d75737420626520696e20667574757265000000006044820152606490fd5b60405162461bcd60e51b815260206004820152602360248201527f496e76616c6964207265776172642070657263656e746167652028302d31303060448201526230302960e81b6064820152608490fd5b5061271082111561058f565b60405162461bcd60e51b815260206004820152603260248201527f546f74616c20746f6b656e206f70656e20696e766573746d656e74206d75737460448201527102062652067726561746572207468616e20360741b6064820152608490fd5b60405162461bcd60e51b815260206004820152602260248201527f546f6b656e207072696365206d7573742062652067726561746572207468616e604482015261020360f41b6064820152608490fd5b60405162461bcd60e51b815260206004820152601a60248201527f526f756e64206e616d652063616e6e6f7420626520656d7074790000000000006044820152606490fd5b3461036357610a3536612a4a565b610a3d612f00565b60025460ff811661101257826000526004602052610a6860ff60086040600020015460081c16612c2d565b82600052600460205260ff6008604060002001541615610fd7578260005260046020526006604060002001544211610f9257811590811580610f87575b15610f4b5783600052600460205260406000206006810180544211610f0657600282018054948515610ef05785600019048711610eab5785870295878704141715610e95576005830193610afa878654612d17565b600485015410610e3e576040516323b872dd60e01b8152336004820152306024820152604481018790529060209082908160008160648101039260081c6001600160a01b03165af1801561037057600090610e03575b610b5a9150612c70565b6001861115610cfe5754916007600382015492549101549160405193631ba9a77d60e01b85523360048601528760248601528860448601526064850152608484015260a483015260c482015260008160e4818360018060a01b037f0000000000000000000000000000000000000000000000000000000000000000165af190811561037057600091610cdb575b505b84600052600560205260406000209060005b858110610c8e57505050610c10838254612d17565b90558260005260066020526040600020610c2b828254612d17565b90558260005260086020526040600020610c46828254612d17565b9055610c5481600c54612d17565b600c5560405191825260208201527f3bdff14eed6ddd6ca85e178ed7df644a6a676c0796374ce875e380bc74a28e7860403392a360018055005b610c988183612eb4565b51908354916801000000000000000083101561082b57610cbf836001809501875586612a60565b819291549060031b91821b91600019901b191617905501610bfb565b610cf891503d806000833e610cf08183612723565b810190612da5565b85610be7565b9190604091825190610d108483612723565b600182526020820192601f19850136853782955491600760038201549254910154918651936304d6969f60e51b85523360048601528c602486015260448501526064840152608483015260a482015260208160c481600060018060a01b037f0000000000000000000000000000000000000000000000000000000000000000165af1938415610df95750600093610dc5575b505115610daf5752610be9565b634e487b7160e01b600052603260045260246000fd5b9092506020813d602011610df1575b81610de160209383612723565b8101031261036357519188610da2565b3d9150610dd4565b513d6000823e3d90fd5b506020813d602011610e36575b81610e1d60209383612723565b8101031261036357610e31610b5a91612a93565b610b50565b3d9150610e10565b60405162461bcd60e51b815260206004820152602960248201527f4e6f7420656e6f75676820746f6b656e7320617661696c61626c6520696e20746044820152681a1a5cc81c9bdd5b9960ba1b6064820152608490fd5b634e487b7160e01b600052601160045260246000fd5b60405162461bcd60e51b815260206004820152601960248201527f43616c63756c6174696f6e206f766572666c6f77207269736b000000000000006044820152606490fd5b634e487b7160e01b600052601260045260246000fd5b60405162461bcd60e51b815260206004820152601b60248201527f496e766573746d656e7420706572696f642068617320656e64656400000000006044820152606490fd5b60405162461bcd60e51b8152602060048201526014602482015273125b9d985b1a59081d1bdad95b88185b5bdd5b9d60621b6044820152606490fd5b506032831115610aa5565b60405162461bcd60e51b815260206004820152601c60248201527f496e766573746d656e7420706572696f642068617320636c6f736564000000006044820152606490fd5b60405162461bcd60e51b8152602060048201526013602482015272526f756e64206973206e6f742061637469766560681b6044820152606490fd5b63d93c066560e01b60005260046000fd5b34610363576110313661275b565b80519061103d82612744565b9161104b6040519384612723565b80835261105a601f1991612744565b0160005b81811061123c57505060005b81518110156111485761107d8183612eb4565b51600052600460205260406000209060ff600a6040519361109d85612707565b805485526110ad60018201612999565b6020860152600281015460408601526003810154606086015260048101546080860152600581015460a0860152600681015460c0860152600781015460e0860152826008820154818116151561010088015260081c1615156101208601526009810154610140860152015416916005831015610752576001926101608201526111368286612eb4565b526111418185612eb4565b500161106a565b826040518091602082016020835281518091526040830190602060408260051b8601019301916000905b82821061118157505050500390f35b919360019193955060208091603f1989820301855261122c88519182518152610160806111bd86860151610180888601526101808501906127fc565b9460408101516040850152606081015160608501526080810151608085015260a081015160a085015260c081015160c085015260e081015160e0850152610100810151151561010085015261012081015115156101208501526101408101516101408501520151910190612a3d565b9601920192018594939192611172565b60209060405161124b81612707565b60008152606083820152600060408201526000606082015260006080820152600060a0820152600060c0820152600060e082015260006101008201526000610120820152600061014082015260006101608201528282870101520161105e565b346103635760203660031901126103635760043560005260086020526020604060002054604051908152f35b34610363576112e536612a4a565b906112fb60018060a01b03600354163314612e52565b811561143c5780600052600460205261132160ff60086040600020015460081c16612c2d565b600052600660205280604060002054106113f75760025460405163095ea7b360e01b81523360048201526024810192909252602090829060081c6001600160a01b0316816000816044810103925af1908115610370576000916113bd575b501561138757005b60405162461bcd60e51b815260206004820152600e60248201526d105c1c1c9bdd994819985a5b195960921b6044820152606490fd5b90506020813d6020116113ef575b816113d860209383612723565b81010312610363576113e990612a93565b8161137f565b3d91506113cb565b60405162461bcd60e51b815260206004820152601860248201527f496e73756666696369656e742072657761726420706f6f6c00000000000000006044820152606490fd5b60405162461bcd60e51b815260206004820152600e60248201526d125b9d985b1a5908185b5bdd5b9d60921b6044820152606490fd5b34610363576000366003190112610363576002546040516370a0823160e01b8152306004820152906020908290602490829060081c6001600160a01b03165afa8015610370576000906114cb575b602090604051908152f35b506020813d6020116114f6575b816114e560209383612723565b8101031261036357602090516114c0565b3d91506114d8565b3461036357600036600319011261036357602060405160328152f35b3461036357602036600319011261036357611533612dca565b5060405163605e603d60e11b815260048035908201526000816024817f00000000000000000000000000000000000000000000000000000000000000006001600160a01b03165afa80156103705761163e91600091611642575b5080519060208101519060408101516060820151608083015160a084015160c08501519060018060a01b0360e087015116926101008701511515946101208801511515966101606101408a01511515990151996040519b6115ed8d612707565b8c5260208c015260408b015260608a0152608089015260a088015260c087015260e0860152610100850152610120840152610140830152610160820152604051918291602083526020830190612821565b0390f35b61165d913d8091833e6116558183612723565b810190612e2d565b8261158d565b34610363576000366003190112610363576040517f00000000000000000000000000000000000000000000000000000000000000006001600160a01b03168152602090f35b34610363576060366003190112610363576024356004356044358015158103610363576116e060018060a01b03600354163314612e52565b81600052600460205261170060ff60086040600020015460081c16612c2d565b61170b831515612ccb565b1561172c5760005260066020526117286040600020918254612d17565b9055005b806000526006602052816040600020541061175d57600052600660205260406000208054918203918211610e955755005b60405162461bcd60e51b815260206004820152602160248201527f496e73756666696369656e7420726f756e64206c65646765722062616c616e636044820152606560f81b6064820152608490fd5b34610363576117ba36612a4a565b90600052600560205260406000208054821015610363576020916117dd91612a60565b90549060031b1c604051908152f35b346103635760203660031901126103635760043560005260076020526020604060002054604051908152f35b34610363576000366003190112610363576020600a54604051908152f35b346103635760003660031901126103635760025460405160089190911c6001600160a01b03168152602090f35b346103635760203660031901126103635760405162491fcf60e11b815260048035908201526020816024817f00000000000000000000000000000000000000000000000000000000000000006001600160a01b03165afa8015610370576000906118d5575b6020906040519015158152f35b506020813d602011611907575b816118ef60209383612723565b8101031261036357611902602091612a93565b6118c8565b3d91506118e2565b34610363576040366003190112610363576001600160a01b03611930612949565b16600052600960205260406000206024356000526020526020604060002054604051908152f35b3461036357602036600319011261036357611970612dca565b50604051634712f17360e11b815260048035908201526000816024817f00000000000000000000000000000000000000000000000000000000000000006001600160a01b03165afa80156103705761163e916000916119df575b50604051918291602083526020830190612821565b6119f491503d806000833e6116558183612723565b826119ca565b3461036357602036600319011261036357611a13612949565b6040516346f5daa360e11b81526001600160a01b03918216600482015290600090829060249082907f0000000000000000000000000000000000000000000000000000000000000000165afa80156103705761163e91600091611a86575b50604051918291602083526020830190612915565b611a9b91503d806000833e610cf08183612723565b82611a71565b34610363576000366003190112610363576000546040516001600160a01b039091168152602090f35b34610363576000366003190112610363576003546040516001600160a01b039091168152602090f35b346103635760403660031901126103635760043560243580151590818103610363577fdd8c33b779db77b877161fe300dfc92dc5b0d87c7e4199701eb25330a83e16f991611b85602092611b45612ed7565b8560005260048452611b6460ff60086040600020015460081c16612c2d565b856000526004845260086040600020019060ff801983541691151516179055565b604051908152a2005b3461036357611b9c36612a4a565b611ba4612ed7565b816000526004602052611bc460ff60086040600020015460081c16612c2d565b8015611d3d57600254600090602090611c1c9060081c6001600160a01b0316611bec85612d81565b6040516323b872dd60e01b8152336004820152306024820152604481019190915293849283919082906064820190565b03925af190811561037057600091611cd9575b507f9795f222c951ae3e749f872dbe287f78d21fa52353e9175cb20ed3aa2b29b82b91611c5d604092612c70565b611c6681612d81565b846000526007602052611c7e83600020918254612d17565b9055611c8981612d81565b846000526006602052611ca183600020918254612d17565b9055836000526004602052600a8260002001600460ff19825416179055836000526007602052816000205482519182526020820152a2005b90506020813d602011611d35575b81611cf460209383612723565b81010312610363577f9795f222c951ae3e749f872dbe287f78d21fa52353e9175cb20ed3aa2b29b82b91611c5d611d2c604093612a93565b92505091611c2f565b3d9150611ce7565b60405162461bcd60e51b8152602060048201526024808201527f52657761726420616d6f756e74206d75737420626520677265617465722074686044820152630616e20360e41b6064820152608490fd5b3461036357600036600319011261036357611da7612ed7565b600080546001600160a01b0319811682556001600160a01b03167f8be0079c531659141344cd1fd0a4f28419497f9722a3daafe3b4186f6b6457e08280a3005b3461036357602036600319011261036357611e00612949565b611e08612ed7565b6001600160a01b03168015611e5b57600380546001600160a01b0319811683179091556001600160a01b03167ffe66ddef0f2a9c1d6f97182ba039017c769bd48d0d1ec0a3cc405c078f3c17f4600080a3005b60405162461bcd60e51b815260206004820152601f60248201527f496e76616c696420636c61696d7320636f6e74726163742061646472657373006044820152606490fd5b34610363576020366003190112610363576004356000526004602052610180604060002080549061163e611ed660018301612999565b60028301549260ff600382015460048301546005840154600685015490600786015492600887015494611f2687600a60098b01549a015416996040519e8f9e8f90815281602082015201906127fc565b9a60408d015260608c015260808b015260a08a015260c089015260e0880152818116151561010088015260081c161515610120860152610140850152610160840190612a3d565b3461036357602036600319011261036357611f86612949565b611f8e612ed7565b6001600160a01b038116908115611ff45760028054610100600160a81b03198116600893841b610100600160a81b031617909155901c6001600160a01b03167f92852dbadca7e6fa4e0d5dd87891e6dd13f50a304561a86ea9d5a710b972e449600080a3005b60405162461bcd60e51b815260206004820152601a60248201527f496e76616c6964205553445420746f6b656e20616464726573730000000000006044820152606490fd5b346103635760203660031901126103635760043560005260066020526020604060002054604051908152f35b3461036357600036600319011261036357602060ff600254166040519015158152f35b34610363576020366003190112610363576120a1612949565b604051635c8f45b160e01b81526001600160a01b03918216600482015290600090829060249082907f0000000000000000000000000000000000000000000000000000000000000000165afa8015610370576000918291612127575b6121198361163e84604051938493604085526040850190612915565b9083820360208501526128bc565b90503d8083833e6121388183612723565b8101916040828403126121915781516001600160401b0381116121945783612161918401612d24565b916020810151916001600160401b03831161219157506121199361163e926121899201612baf565b9192506120fd565b80fd5b5080fd5b34610363576040366003190112610363576004356024356005811015610363576121f9916121c4612ed7565b8060005260046020526121e460ff60086040600020015460081c16612c2d565b6000526004602052600a604060002001612cb3565b005b346103635760203660031901126103635760043560005260056020526020604060002054604051908152f35b34610363576000366003190112610363576020600b54604051908152f35b346103635760603660031901126103635761225e612949565b6024356044359161226d612ed7565b6001600160a01b031680156122cb5781600052600460205261229c60ff60086040600020015460081c16612c2d565b6122a7831515612ccb565b60005260096020526040600020906000526020526117286040600020918254612d17565b60405162461bcd60e51b8152602060048201526014602482015273496e76616c69642075736572206164647265737360601b6044820152606490fd5b3461036357604036600319011261036357612320612949565b6024359061232c612ed7565b6001600160a01b0381161561245357612346821515612ccb565b6002546040516370a0823160e01b815230600482015260089190911c6001600160a01b03169290602081602481875afa801561037057829160009161241e575b50106123d95760405163a9059cbb60e01b81526001600160a01b03929092166004830152602482015290602090829060449082906000905af18015610370576000906118d5576020906040519015158152f35b60405162461bcd60e51b815260206004820152601960248201527f496e73756666696369656e7420555344542062616c616e6365000000000000006044820152606490fd5b9150506020813d60201161244b575b8161243a60209383612723565b810103126103635781905185612386565b3d915061242d565b60405162461bcd60e51b815260206004820152601960248201527f496e76616c696420726563697069656e742061646472657373000000000000006044820152606490fd5b34610363576020366003190112610363576004356000526005602052604060002060405190816020825491828152019160005260206000209060005b8181106124ff5761163e856124eb81870382612723565b604051918291602083526020830190612915565b82548452602090930192600192830192016124d4565b3461036357602036600319011261036357600435612531612ed7565b612539612f00565b80600052600460205261255960ff60086040600020015460081c16612c2d565b60008181526006602090815260408083208054908490556002548454925163a9059cbb60e01b81526001600160a01b03938416600482015260248101929092529093849260449284929160089190911c165af18015610370576000906125e6575b6125c49150612c70565b6000908152600460205260409020600a01805460ff1916600317905560018055005b506020813d602011612619575b8161260060209383612723565b81010312610363576126146125c491612a93565b6125ba565b3d91506125f3565b346103635761265660006126343661275b565b60405180938192630981551760e01b8352602060048401526024830190612915565b03817f00000000000000000000000000000000000000000000000000000000000000006001600160a01b03165afa8015610370576000906126aa575b61163e906040519182916020835260208301906128bc565b3d8082843e6126b98184612723565b820191602081840312612194578051916001600160401b0383116121915750916126e79161163e9301612baf565b612692565b3461036357600036600319011261036357602090600c548152f35b61018081019081106001600160401b0382111761082b57604052565b90601f801991011681019081106001600160401b0382111761082b57604052565b6001600160401b03811161082b5760051b60200190565b602060031982011261036357600435906001600160401b038211610363578060238301121561036357816004013561279281612744565b926127a06040519485612723565b8184526024602085019260051b82010192831161036357602401905b8282106127c95750505090565b81358152602091820191016127bc565b60005b8381106127ec5750506000910152565b81810151838201526020016127dc565b90602091612815815180928185528580860191016127d9565b601f01601f1916010190565b906101806101606128b993805184526020810151602085015260408101516040850152606081015160608501526080810151608085015260a081015160a085015260c081015160c085015260018060a01b0360e08201511660e08501526101008101511515610100850152610120810151151561012085015261014081015115156101408501520151918161016082015201906127fc565b90565b9080602083519182815201916020808360051b8301019401926000915b8383106128e857505050505090565b9091929394602080612906600193601f198682030187528951612821565b970193019301919392906128d9565b906020808351928381520192019060005b8181106129335750505090565b8251845260209384019390920191600101612926565b600435906001600160a01b038216820361036357565b90600182811c9216801561298f575b602083101461297957565b634e487b7160e01b600052602260045260246000fd5b91607f169161296e565b90604051918260008254926129ad8461295f565b8084529360018116908115612a1b57506001146129d4575b506129d292500383612723565b565b90506000929192526020600020906000915b8183106129ff5750509060206129d292820101386129c5565b60209193508060019154838589010152019101909184926129e6565b9050602092506129d294915060ff191682840152151560051b820101386129c5565b9060058210156107525752565b6040906003190112610363576004359060243590565b8054821015610daf5760005260206000200190600090565b6001600160401b03811161082b57601f01601f191660200190565b5190811515820361036357565b91906101808382031261036357604051612ab981612707565b8093805182526020810151602083015260408101516040830152606081015160608301526080810151608083015260a081015160a083015260c081015160c083015260e081015160018060a01b03811681036103635760e0830152612b216101008201612a93565b610100830152612b346101208201612a93565b610120830152612b476101408201612a93565b610140830152610160810151906001600160401b03821161036357019082601f8301121561036357815191612b7b83612a78565b93612b896040519586612723565b838552602084830101116103635761016092612bab91602080870191016127d9565b0152565b9080601f83011215610363578151612bc681612744565b92612bd46040519485612723565b81845260208085019260051b820101918383116103635760208201905b838210612c0057505050505090565b81516001600160401b03811161036357602091612c2287848094880101612aa0565b815201910190612bf1565b15612c3457565b60405162461bcd60e51b8152602060048201526014602482015273149bdd5b9908191bd95cc81b9bdd08195e1a5cdd60621b6044820152606490fd5b15612c7757565b60405162461bcd60e51b81526020600482015260146024820152731554d115081d1c985b9cd9995c8819985a5b195960621b6044820152606490fd5b9060058110156107525760ff80198354169116179055565b15612cd257565b60405162461bcd60e51b815260206004820152601d60248201527f416d6f756e74206d7573742062652067726561746572207468616e20300000006044820152606490fd5b91908201809211610e9557565b9080601f83011215610363578151612d3b81612744565b92612d496040519485612723565b81845260208085019260051b82010192831161036357602001905b828210612d715750505090565b8151815260209182019101612d64565b90670de0b6b3a7640000820291808304670de0b6b3a76400001490151715610e9557565b906020828203126103635781516001600160401b038111610363576128b99201612d24565b60405190612dd782612707565b60606101608360008152600060208201526000604082015260008382015260006080820152600060a0820152600060c0820152600060e08201526000610100820152600061012082015260006101408201520152565b906020828203126103635781516001600160401b038111610363576128b99201612aa0565b15612e5957565b60405162461bcd60e51b815260206004820152602d60248201527f4f6e6c7920617574686f72697a656420636c61696d7320636f6e74726163742060448201526c63616e2063616c6c207468697360981b6064820152608490fd5b8051821015610daf5760209160051b010190565b6000198114610e955760010190565b6000546001600160a01b03163303612eeb57565b63118cdaa760e01b6000523360045260246000fd5b600260015414612f11576002600155565b633ee5aeb560e01b60005260046000fdfea2646970667358221220dd71ba4aacbc58bb5ba028941f477819a46e3ed40606b2b840d7f589ef9000f464736f6c634300081c0033",
  "linkReferences": {},
  "deployedLinkReferences": {},
  "immutableReferences": {
    "9377": [
      {
        "length": 32,
        "start": 2998
      },
      {
        "length": 32,
        "start": 3440
      },
      {
        "length": 32,
        "start": 5457
      },
      {
        "length": 32,
        "start": 5753
      },
      {
        "length": 32,
        "start": 6288
      },
      {
        "length": 32,
        "start": 6542
      },
      {
        "length": 32,
        "start": 6717
      },
      {
        "length": 32,
        "start": 8395
      },
      {
        "length": 32,
        "start": 9818
      }
    ]
  },
  "inputSourceName": "project/contracts/FundRaisingCore.sol",
  "buildInfoId": "solc-0_8_28-f6e63a064b5aa7beb48c958e3c297d897c2df1d9"
}