{
  "_format": "hh3-artifact-1",
  "contractName": "FundRaisingCore",
  "sourceName": "contracts/FundRaisingCore.sol",
  "abi": [
    {
      "inputs": [
        {
          "internalType": "address",
          "name": "_dzNFT",
          "type": "address"
        },
        {
          "internalType": "address",
          "name": "_usdtToken",
          "type": "address"
        }
      ],
      "stateMutability": "nonpayable",
      "type": "constructor"
    },
    {
      "inputs": [],
      "name": "EnforcedPause",
      "type": "error"
    },
    {
      "inputs": [],
      "name": "ExpectedPause",
      "type": "error"
    },
    {
      "inputs": [
        {
          "internalType": "address",
          "name": "owner",
          "type": "address"
        }
      ],
      "name": "OwnableInvalidOwner",
      "type": "error"
    },
    {
      "inputs": [
        {
          "internalType": "address",
          "name": "account",
          "type": "address"
        }
      ],
      "name": "OwnableUnauthorizedAccount",
      "type": "error"
    },
    {
      "inputs": [],
      "name": "ReentrancyGuardReentrantCall",
      "type": "error"
    },
    {
      "anonymous": false,
      "inputs": [
        {
          "indexed": true,
          "internalType": "address",
          "name": "oldContract",
          "type": "address"
        },
        {
          "indexed": true,
          "internalType": "address",
          "name": "newContract",
          "type": "address"
        }
      ],
      "name": "AuthorizedClaimsContractUpdated",
      "type": "event"
    },
    {
      "anonymous": false,
      "inputs": [
        {
          "indexed": true,
          "internalType": "address",
          "name": "investor",
          "type": "address"
        },
        {
          "indexed": true,
          "internalType": "uint256",
          "name": "roundId",
          "type": "uint256"
        },
        {
          "indexed": false,
          "internalType": "uint256",
          "name": "tokenCount",
          "type": "uint256"
        },
        {
          "indexed": false,
          "internalType": "uint256",
          "name": "usdtAmount",
          "type": "uint256"
        }
      ],
      "name": "Investment",
      "type": "event"
    },
    {
      "anonymous": false,
      "inputs": [
        {
          "indexed": true,
          "internalType": "uint256",
          "name": "roundId",
          "type": "uint256"
        },
        {
          "indexed": false,
          "internalType": "string",
          "name": "roundName",
          "type": "string"
        },
        {
          "indexed": false,
          "internalType": "uint256",
          "name": "tokenPrice",
          "type": "uint256"
        }
      ],
      "name": "InvestmentRoundCreated",
      "type": "event"
    },
    {
      "anonymous": false,
      "inputs": [
        {
          "indexed": true,
          "internalType": "address",
          "name": "previousOwner",
          "type": "address"
        },
        {
          "indexed": true,
          "internalType": "address",
          "name": "newOwner",
          "type": "address"
        }
      ],
      "name": "OwnershipTransferred",
      "type": "event"
    },
    {
      "anonymous": false,
      "inputs": [
        {
          "indexed": false,
          "internalType": "address",
          "name": "account",
          "type": "address"
        }
      ],
      "name": "Paused",
      "type": "event"
    },
    {
      "anonymous": false,
      "inputs": [
        {
          "indexed": true,
          "internalType": "uint256",
          "name": "roundId",
          "type": "uint256"
        },
        {
          "indexed": false,
          "internalType": "uint256",
          "name": "amount",
          "type": "uint256"
        },
        {
          "indexed": false,
          "internalType": "uint256",
          "name": "totalRewardPool",
          "type": "uint256"
        }
      ],
      "name": "RewardAdded",
      "type": "event"
    },
    {
      "anonymous": false,
      "inputs": [
        {
          "indexed": true,
          "internalType": "uint256",
          "name": "roundId",
          "type": "uint256"
        },
        {
          "indexed": false,
          "internalType": "bool",
          "name": "isActive",
          "type": "bool"
        }
      ],
      "name": "RoundStatusChanged",
      "type": "event"
    },
    {
      "anonymous": false,
      "inputs": [
        {
          "indexed": true,
          "internalType": "address",
          "name": "oldToken",
          "type": "address"
        },
        {
          "indexed": true,
          "internalType": "address",
          "name": "newToken",
          "type": "address"
        }
      ],
      "name": "USDTTokenUpdated",
      "type": "event"
    },
    {
      "anonymous": false,
      "inputs": [
        {
          "indexed": false,
          "internalType": "address",
          "name": "account",
          "type": "address"
        }
      ],
      "name": "Unpaused",
      "type": "event"
    },
    {
      "inputs": [],
      "name": "MAX_TOKENS_PER_INVESTMENT",
      "outputs": [
        {
          "internalType": "uint256",
          "name": "",
          "type": "uint256"
        }
      ],
      "stateMutability": "view",
      "type": "function"
    },
    {
      "inputs": [],
      "name": "USDT_DECIMALS",
      "outputs": [
        {
          "internalType": "uint256",
          "name": "",
          "type": "uint256"
        }
      ],
      "stateMutability": "view",
      "type": "function"
    },
    {
      "inputs": [],
      "name": "_nextRoundId",
      "outputs": [
        {
          "internalType": "uint256",
          "name": "",
          "type": "uint256"
        }
      ],
      "stateMutability": "view",
      "type": "function"
    },
    {
      "inputs": [
        {
          "internalType": "uint256",
          "name": "roundId",
          "type": "uint256"
        },
        {
          "internalType": "uint256",
          "name": "amount",
          "type": "uint256"
        }
      ],
      "name": "addRewardToRound",
      "outputs": [],
      "stateMutability": "nonpayable",
      "type": "function"
    },
    {
      "inputs": [],
      "name": "authorizedClaimsContract",
      "outputs": [
        {
          "internalType": "address",
          "name": "",
          "type": "address"
        }
      ],
      "stateMutability": "view",
      "type": "function"
    },
    {
      "inputs": [
        {
          "internalType": "string",
          "name": "roundName",
          "type": "string"
        },
        {
          "internalType": "uint256",
          "name": "tokenPrice",
          "type": "uint256"
        },
        {
          "internalType": "uint256",
          "name": "rewardPercentage",
          "type": "uint256"
        },
        {
          "internalType": "uint256",
          "name": "totalTokenOpenInvestment",
          "type": "uint256"
        },
        {
          "internalType": "uint256",
          "name": "closeDateInvestment",
          "type": "uint256"
        },
        {
          "internalType": "uint256",
          "name": "endDateInvestment",
          "type": "uint256"
        }
      ],
      "name": "createInvestmentRound",
      "outputs": [],
      "stateMutability": "nonpayable",
      "type": "function"
    },
    {
      "inputs": [],
      "name": "dzNFT",
      "outputs": [
        {
          "internalType": "contract DZNFT",
          "name": "",
          "type": "address"
        }
      ],
      "stateMutability": "view",
      "type": "function"
    },
    {
      "inputs": [
        {
          "internalType": "address",
          "name": "recipient",
          "type": "address"
        },
        {
          "internalType": "uint256",
          "name": "amount",
          "type": "uint256"
        }
      ],
      "name": "emergencyTransferUSDT",
      "outputs": [
        {
          "internalType": "bool",
          "name": "",
          "type": "bool"
        }
      ],
      "stateMutability": "nonpayable",
      "type": "function"
    },
    {
      "inputs": [],
      "name": "getContractUSDTBalance",
      "outputs": [
        {
          "internalType": "uint256",
          "name": "",
          "type": "uint256"
        }
      ],
      "stateMutability": "view",
      "type": "function"
    },
    {
      "inputs": [
        {
          "internalType": "address",
          "name": "investor",
          "type": "address"
        }
      ],
      "name": "getInvestorRounds",
      "outputs": [
        {
          "internalType": "uint256[]",
          "name": "",
          "type": "uint256[]"
        }
      ],
      "stateMutability": "view",
      "type": "function"
    },
    {
      "inputs": [
        {
          "internalType": "uint256",
          "name": "roundId",
          "type": "uint256"
        }
      ],
      "name": "getRoundTokenCount",
      "outputs": [
        {
          "internalType": "uint256",
          "name": "",
          "type": "uint256"
        }
      ],
      "stateMutability": "view",
      "type": "function"
    },
    {
      "inputs": [
        {
          "internalType": "uint256",
          "name": "roundId",
          "type": "uint256"
        }
      ],
      "name": "getRoundTokenIds",
      "outputs": [
        {
          "internalType": "uint256[]",
          "name": "",
          "type": "uint256[]"
        }
      ],
      "stateMutability": "view",
      "type": "function"
    },
    {
      "inputs": [],
      "name": "getUSDTTokenAddress",
      "outputs": [
        {
          "internalType": "address",
          "name": "",
          "type": "address"
        }
      ],
      "stateMutability": "view",
      "type": "function"
    },
    {
      "inputs": [
        {
          "internalType": "address",
          "name": "user",
          "type": "address"
        }
      ],
      "name": "getUserInvestments",
      "outputs": [
        {
          "internalType": "uint256[]",
          "name": "",
          "type": "uint256[]"
        }
      ],
      "stateMutability": "view",
      "type": "function"
    },
    {
      "inputs": [
        {
          "internalType": "uint256",
          "name": "roundId",
          "type": "uint256"
        },
        {
          "internalType": "address",
          "name": "user",
          "type": "address"
        }
      ],
      "name": "getUserNFTsInRound",
      "outputs": [
        {
          "internalType": "uint256[]",
          "name": "",
          "type": "uint256[]"
        }
      ],
      "stateMutability": "view",
      "type": "function"
    },
    {
      "inputs": [
        {
          "internalType": "uint256",
          "name": "roundId",
          "type": "uint256"
        },
        {
          "internalType": "uint256",
          "name": "tokenAmount",
          "type": "uint256"
        }
      ],
      "name": "investInRound",
      "outputs": [],
      "stateMutability": "nonpayable",
      "type": "function"
    },
    {
      "inputs": [
        {
          "internalType": "uint256",
          "name": "",
          "type": "uint256"
        }
      ],
      "name": "investmentRounds",
      "outputs": [
        {
          "internalType": "uint256",
          "name": "roundId",
          "type": "uint256"
        },
        {
          "internalType": "string",
          "name": "roundName",
          "type": "string"
        },
        {
          "internalType": "uint256",
          "name": "tokenPrice",
          "type": "uint256"
        },
        {
          "internalType": "uint256",
          "name": "rewardPercentage",
          "type": "uint256"
        },
        {
          "internalType": "uint256",
          "name": "totalTokenOpenInvestment",
          "type": "uint256"
        },
        {
          "internalType": "uint256",
          "name": "tokensSold",
          "type": "uint256"
        },
        {
          "internalType": "uint256",
          "name": "closeDateInvestment",
          "type": "uint256"
        },
        {
          "internalType": "uint256",
          "name": "endDateInvestment",
          "type": "uint256"
        },
        {
          "internalType": "bool",
          "name": "isActive",
          "type": "bool"
        },
        {
          "internalType": "bool",
          "name": "exists",
          "type": "bool"
        },
        {
          "internalType": "uint256",
          "name": "createdAt",
          "type": "uint256"
        },
        {
          "internalType": "enum FundRaisingCore.Status",
          "name": "status",
          "type": "uint8"
        }
      ],
      "stateMutability": "view",
      "type": "function"
    },
    {
      "inputs": [],
      "name": "owner",
      "outputs": [
        {
          "internalType": "address",
          "name": "",
          "type": "address"
        }
      ],
      "stateMutability": "view",
      "type": "function"
    },
    {
      "inputs": [],
      "name": "paused",
      "outputs": [
        {
          "internalType": "bool",
          "name": "",
          "type": "bool"
        }
      ],
      "stateMutability": "view",
      "type": "function"
    },
    {
      "inputs": [],
      "name": "renounceOwnership",
      "outputs": [],
      "stateMutability": "nonpayable",
      "type": "function"
    },
    {
      "inputs": [
        {
          "internalType": "uint256",
          "name": "",
          "type": "uint256"
        }
      ],
      "name": "roundLedger",
      "outputs": [
        {
          "internalType": "uint256",
          "name": "",
          "type": "uint256"
        }
      ],
      "stateMutability": "view",
      "type": "function"
    },
    {
      "inputs": [
        {
          "internalType": "uint256",
          "name": "",
          "type": "uint256"
        }
      ],
      "name": "roundRewardPool",
      "outputs": [
        {
          "internalType": "uint256",
          "name": "",
          "type": "uint256"
        }
      ],
      "stateMutability": "view",
      "type": "function"
    },
    {
      "inputs": [
        {
          "internalType": "uint256",
          "name": "",
          "type": "uint256"
        },
        {
          "internalType": "uint256",
          "name": "",
          "type": "uint256"
        }
      ],
      "name": "roundTokenIds",
      "outputs": [
        {
          "internalType": "uint256",
          "name": "",
          "type": "uint256"
        }
      ],
      "stateMutability": "view",
      "type": "function"
    },
    {
      "inputs": [
        {
          "internalType": "address",
          "name": "_claimsContract",
          "type": "address"
        }
      ],
      "name": "setAuthorizedClaimsContract",
      "outputs": [],
      "stateMutability": "nonpayable",
      "type": "function"
    },
    {
      "inputs": [
        {
          "internalType": "uint256",
          "name": "roundId",
          "type": "uint256"
        },
        {
          "internalType": "bool",
          "name": "active",
          "type": "bool"
        }
      ],
      "name": "setRoundActive",
      "outputs": [],
      "stateMutability": "nonpayable",
      "type": "function"
    },
    {
      "inputs": [
        {
          "internalType": "address",
          "name": "newUSDTToken",
          "type": "address"
        }
      ],
      "name": "setUSDTToken",
      "outputs": [],
      "stateMutability": "nonpayable",
      "type": "function"
    },
    {
      "inputs": [],
      "name": "totalRoundsCreated",
      "outputs": [
        {
          "internalType": "uint256",
          "name": "",
          "type": "uint256"
        }
      ],
      "stateMutability": "view",
      "type": "function"
    },
    {
      "inputs": [],
      "name": "totalUSDTRaised",
      "outputs": [
        {
          "internalType": "uint256",
          "name": "",
          "type": "uint256"
        }
      ],
      "stateMutability": "view",
      "type": "function"
    },
    {
      "inputs": [
        {
          "internalType": "address",
          "name": "newOwner",
          "type": "address"
        }
      ],
      "name": "transferOwnership",
      "outputs": [],
      "stateMutability": "nonpayable",
      "type": "function"
    },
    {
      "inputs": [
        {
          "internalType": "uint256",
          "name": "roundId",
          "type": "uint256"
        },
        {
          "internalType": "uint256",
          "name": "amount",
          "type": "uint256"
        }
      ],
      "name": "transferRewardToClaims",
      "outputs": [],
      "stateMutability": "nonpayable",
      "type": "function"
    },
    {
      "inputs": [
        {
          "internalType": "uint256",
          "name": "roundId",
          "type": "uint256"
        },
        {
          "internalType": "uint256",
          "name": "amount",
          "type": "uint256"
        },
        {
          "internalType": "bool",
          "name": "increase",
          "type": "bool"
        }
      ],
      "name": "updateRoundLedger",
      "outputs": [],
      "stateMutability": "nonpayable",
      "type": "function"
    },
    {
      "inputs": [
        {
          "internalType": "address",
          "name": "user",
          "type": "address"
        },
        {
          "internalType": "uint256",
          "name": "roundId",
          "type": "uint256"
        },
        {
          "internalType": "uint256",
          "name": "amount",
          "type": "uint256"
        }
      ],
      "name": "updateUserClaimedRewards",
      "outputs": [],
      "stateMutability": "nonpayable",
      "type": "function"
    },
    {
      "inputs": [],
      "name": "usdtToken",
      "outputs": [
        {
          "internalType": "contract IERC20",
          "name": "",
          "type": "address"
        }
      ],
      "stateMutability": "view",
      "type": "function"
    },
    {
      "inputs": [
        {
          "internalType": "address",
          "name": "",
          "type": "address"
        },
        {
          "internalType": "uint256",
          "name": "",
          "type": "uint256"
        }
      ],
      "name": "userClaimedRewards",
      "outputs": [
        {
          "internalType": "uint256",
          "name": "",
          "type": "uint256"
        }
      ],
      "stateMutability": "view",
      "type": "function"
    },
    {
      "inputs": [
        {
          "internalType": "uint256",
          "name": "",
          "type": "uint256"
        },
        {
          "internalType": "address",
          "name": "",
          "type": "address"
        },
        {
          "internalType": "uint256",
          "name": "",
          "type": "uint256"
        }
      ],
      "name": "userNFTsInRound",
      "outputs": [
        {
          "internalType": "uint256",
          "name": "",
          "type": "uint256"
        }
      ],
      "stateMutability": "view",
      "type": "function"
    },
    {
      "inputs": [
        {
          "internalType": "uint256",
          "name": "roundId",
          "type": "uint256"
        }
      ],
      "name": "withdrawFund",
      "outputs": [],
      "stateMutability": "nonpayable",
      "type": "function"
    }
  ],
  "bytecode": "0x60a0346101bb57601f6122dc38819003918201601f19168301916001600160401b038311848410176101bf5780849260409485528339810103126101bb57610052602061004b836101d3565b92016101d3565b9033156101a8575f8054336001600160a01b0319821681178355604051939290916001600160a01b0316907f8be0079c531659141344cd1fd0a4f28419497f9722a3daafe3b4186f6b6457e09080a3600180556001600160a01b031690811561016657506001600160a01b038216156101215760805260028054610100600160a81b03191660089290921b610100600160a81b03169190911790556040516120f490816101e8823960805181818161095b01528181610b1d01528181610f7d01528181610ff0015261184b0152f35b60405162461bcd60e51b815260206004820152601460248201527f496e76616c6964205553445420616464726573730000000000000000000000006044820152606490fd5b62461bcd60e51b815260206004820152601560248201527f496e76616c696420445a4e4654206164647265737300000000000000000000006044820152606490fd5b631e4fbdf760e01b5f525f60045260245ffd5b5f80fd5b634e487b7160e01b5f52604160045260245ffd5b51906001600160a01b03821682036101bb5756fe6080806040526004361015610012575f80fd5b5f3560e01c90816308c89b6d14611cd6575080630cee172514611bec5780631470e87d1461118d578063161f662214611b8857806318f38da214611afe5780631c25dc581461196357806321bdff09146118a757806330814b1b1461188a5780633090134714611809578063354281a0146117df5780635c975abb146117bd578063632d45eb1461179357806366e226bd146116cb57806369fbd3cc146115635780636a37a9bf146114ab578063715018a614611467578063760ca4f4146112e357806379b2c17a1461124c57806384e97c8c146112245780638da5cb5b146111fd57806393b58d81146111b9578063a98ad46c1461118d578063b0eff31614611170578063b175b32f14611146578063b201c0c314611117578063bb3505f41461101f578063bf32eb0114610fdb578063c52c5c8814610f3b578063c6f8341814610f20578063c8f7604014610e96578063d5b52b9514610d07578063df8493b0146107f2578063e96d87b41461029a578063ef1b92a414610239578063ef2cfd1a1461021e5763f2fde38b146101a8575f80fd5b3461021a57602036600319011261021a576101c1611d3f565b6101c9612058565b6001600160a01b03168015610207575f80546001600160a01b03198116831782556001600160a01b0316905f51602061209f5f395f51905f529080a3005b631e4fbdf760e01b5f525f60045260245ffd5b5f80fd5b3461021a575f36600319011261021a57602060405160128152f35b3461021a57606036600319011261021a57610252611d29565b604435906004355f52600660205260405f209060018060a01b03165f5260205260405f20805482101561021a5760209161028b91611dea565b90549060031b1c604051908152f35b3461021a5760c036600319011261021a576004356001600160401b03811161021a573660238201121561021a5760048101356001600160401b0381116105fc57604051916102f2601f8301601f191660200184611d8d565b818352366024838301011161021a57815f92602460209301838601378301015260243560443590606435926084359260a43561032c612058565b8251156107b057831561076057851561070057811515806106f4575b156106a3574285111561065f578481111561061057600a549561036a8761204a565b600a55604051926101808401926001600160401b038411858510176105fc575f97899460405284865260208601928784526040870194898652606088019182526080880190815260a08801918b835260c0890193845260e08901948552610100890196600188526101208a0196600188526101408b0199428b526101608c019e8f525f52600460205260405f209a518b5560018b01905180519060018060401b0382116105fc5761041b8354611d55565b601f81116105b7575b50602090601f831160011461054657600a9d9c9b9a9998979695949392915f918361053b575b50508160011b915f199060031b1c19161790555b5160028a015551600389015551600488015551600587015551600686015551600785015561049f6008850192511515839060ff801983541691151516179055565b51151561ff0082549160081b169061ff001916179055516009820155019251916005831015610527577f9bd719c4581ad3c2ad551d9f5ec0458ef29b8c209c84ca2e49fe88d321063d8f9361051c9360ff80198354169116179055610505600b5461204a565b600b55604051928392604084526040840190611db0565b9060208301520390a2005b634e487b7160e01b5f52602160045260245ffd5b015190505f8061044a565b90601f19831691845f52815f20925f5b81811061059f575091600a9f9e9d9c9b9a9998979695949291836001959310610587575b505050811b01905561045e565b01515f1960f88460031b161c191690555f808061057a565b92936020600181928786015181550195019301610556565b835f5260205f20601f840160051c810191602085106105f2575b601f0160051c01905b8181106105e75750610424565b5f81556001016105da565b90915081906105d1565b634e487b7160e01b5f52604160045260245ffd5b60405162461bcd60e51b815260206004820152602160248201527f456e642064617465206d75737420626520616674657220636c6f7365206461746044820152606560f81b6064820152608490fd5b60405162461bcd60e51b815260206004820152601c60248201527b436c6f73652064617465206d75737420626520696e2066757475726560201b6044820152606490fd5b60405162461bcd60e51b815260206004820152602360248201527f496e76616c6964207265776172642070657263656e746167652028302d31303060448201526230302960e81b6064820152608490fd5b50612710821115610348565b60405162461bcd60e51b815260206004820152603260248201527f546f74616c20746f6b656e206f70656e20696e766573746d656e74206d75737460448201527102062652067726561746572207468616e20360741b6064820152608490fd5b60405162461bcd60e51b815260206004820152602260248201527f546f6b656e207072696365206d7573742062652067726561746572207468616e604482015261020360f41b6064820152608490fd5b60405162461bcd60e51b815260206004820152601a602482015279526f756e64206e616d652063616e6e6f7420626520656d70747960301b6044820152606490fd5b3461021a5761080036611dd4565b61080861207e565b60025460ff8116610cf857825f52600460205261083160ff600860405f20015460081c16611dff565b825f52600460205260ff600860405f2001541615610cbd57825f526004602052600660405f2001544211610c7957811590811580610c6e575b15610c3257835f52600460205260405f206002810180549384860294868604141715610c1e5760058201926108a0868554611f04565b600484015410610bc757602060405180926323b872dd60e01b8252815f816108cd8b303360048501611fb9565b039260081c6001600160a01b03165af18015610a98576108f4915f91610b98575b50611e75565b6001851115610aa3575490600381015490600760068201549101549160405193632fdc968f60e21b855233600486015287602486015288604486015260648501526084840152600160a484015260c483015260e48201525f81610104818360018060a01b037f0000000000000000000000000000000000000000000000000000000000000000165af1908115610a98575f91610a76575b505b845f52600560205260405f20905f5b858110610a12575050506109b1838254611f04565b9055825f52600760205260405f206109ca828254611f04565b90556109d881600c54611f04565b600c5560405191825260208201527f3bdff14eed6ddd6ca85e178ed7df644a6a676c0796374ce875e380bc74a28e7860403392a360018055005b8151811015610a6257600581901b82016020015183549190600160401b8310156105fc57610a47836001809501875586611dea565b819291549060031b91821b915f19901b19161790550161099c565b634e487b7160e01b5f52603260045260245ffd5b610a9291503d805f833e610a8a8183611d8d565b810190611f11565b8561098b565b6040513d5f823e3d90fd5b906040908151610ab38382611d8d565b600181526020810191601f19840136843781945490600381015490600760068201549101549186519363f4fb815960e01b85523360048601528c6024860152604485015260648401526001608484015260a483015260c482015260208160e4815f60018060a01b037f0000000000000000000000000000000000000000000000000000000000000000165af1938415610b8f57505f93610b5b575b505115610a62575261098d565b9092506020813d602011610b87575b81610b7760209383611d8d565b8101031261021a57519188610b4e565b3d9150610b6a565b513d5f823e3d90fd5b610bba915060203d602011610bc0575b610bb28183611d8d565b810190611e42565b886108ee565b503d610ba8565b60405162461bcd60e51b815260206004820152602960248201527f4e6f7420656e6f75676820746f6b656e7320617661696c61626c6520696e20746044820152681a1a5cc81c9bdd5b9960ba1b6064820152608490fd5b634e487b7160e01b5f52601160045260245ffd5b60405162461bcd60e51b8152602060048201526014602482015273125b9d985b1a59081d1bdad95b88185b5bdd5b9d60621b6044820152606490fd5b50603283111561086a565b60405162461bcd60e51b815260206004820152601c60248201527b125b9d995cdd1b595b9d081c195c9a5bd9081a185cc818db1bdcd95960221b6044820152606490fd5b60405162461bcd60e51b8152602060048201526013602482015272526f756e64206973206e6f742061637469766560681b6044820152606490fd5b63d93c066560e01b5f5260045ffd5b3461021a57610d1536611dd4565b610d2a60018060a01b03600354163314611fdb565b8015610e6057815f526004602052610d4e60ff600860405f20015460081c16611dff565b815f5260086020528060405f205410610e2057610db16020915f9384526008835260408420610d7e82825461203d565b905560025460405163095ea7b360e01b815294859360089290921c6001600160a01b031692849283913360048401611e5a565b03925af1908115610a98575f91610e01575b5015610dcb57005b60405162461bcd60e51b815260206004820152600e60248201526d105c1c1c9bdd994819985a5b195960921b6044820152606490fd5b610e1a915060203d602011610bc057610bb28183611d8d565b81610dc3565b60405162461bcd60e51b8152602060048201526018602482015277125b9cdd59999a58da595b9d081c995dd85c99081c1bdbdb60421b6044820152606490fd5b60405162461bcd60e51b815260206004820152600e60248201526d125b9d985b1a5908185b5bdd5b9d60921b6044820152606490fd5b3461021a575f36600319011261021a576002546040516370a0823160e01b8152306004820152906020908290602490829060081c6001600160a01b03165afa8015610a98575f90610eed575b602090604051908152f35b506020813d602011610f18575b81610f0760209383611d8d565b8101031261021a5760209051610ee2565b3d9150610efa565b3461021a575f36600319011261021a57602060405160328152f35b3461021a57602036600319011261021a57610f54611d3f565b604051635447be0b60e01b81526001600160a01b039182166004820152905f90829060249082907f0000000000000000000000000000000000000000000000000000000000000000165afa8015610a9857610fbd915f91610fc1575b5060405191829182611cf0565b0390f35b610fd591503d805f833e610a8a8183611d8d565b82610fb0565b3461021a575f36600319011261021a576040517f00000000000000000000000000000000000000000000000000000000000000006001600160a01b03168152602090f35b3461021a57606036600319011261021a57602435600435604435801515810361021a5761105760018060a01b03600354163314611fdb565b815f52600460205261107560ff600860405f20015460081c16611dff565b611080831515611eb8565b1561109f575f52600760205261109b60405f20918254611f04565b9055005b805f5260076020528160405f2054106110c8575f52600760205261109b60405f2091825461203d565b60405162461bcd60e51b815260206004820152602160248201527f496e73756666696369656e7420726f756e64206c65646765722062616c616e636044820152606560f81b6064820152608490fd5b3461021a5761112536611dd4565b905f52600560205260405f20805482101561021a5760209161028b91611dea565b3461021a57602036600319011261021a576004355f526008602052602060405f2054604051908152f35b3461021a575f36600319011261021a576020600a54604051908152f35b3461021a575f36600319011261021a5760025460405160089190911c6001600160a01b03168152602090f35b3461021a57604036600319011261021a576001600160a01b036111da611d3f565b165f52600960205260405f206024355f52602052602060405f2054604051908152f35b3461021a575f36600319011261021a575f546040516001600160a01b039091168152602090f35b3461021a575f36600319011261021a576003546040516001600160a01b039091168152602090f35b3461021a57604036600319011261021a576004356024358015159081810361021a577fdd8c33b779db77b877161fe300dfc92dc5b0d87c7e4199701eb25330a83e16f9916112da60209261129e612058565b855f52600484526112bb60ff600860405f20015460081c16611dff565b855f5260048452600860405f20019060ff801983541691151516179055565b604051908152a2005b3461021a576112f136611dd4565b6112f9612058565b815f52600460205261131760ff600860405f20015460081c16611dff565b8015611416576002545f919060209061135d9060081c6001600160a01b031661133f84611f95565b6040519586809481936323b872dd60e01b8352303360048501611fb9565b03925af1908115610a985761139c6040927f9795f222c951ae3e749f872dbe287f78d21fa52353e9175cb20ed3aa2b29b82b945f916113f75750611e75565b6113a581611f95565b845f5260086020526113bb835f20918254611f04565b90556113c681611f95565b845f5260076020526113dc835f20918254611f04565b9055835f526008602052815f205482519182526020820152a2005b611410915060203d602011610bc057610bb28183611d8d565b866108ee565b60405162461bcd60e51b8152602060048201526024808201527f52657761726420616d6f756e74206d75737420626520677265617465722074686044820152630616e20360e41b6064820152608490fd5b3461021a575f36600319011261021a5761147f612058565b5f80546001600160a01b0319811682556001600160a01b03165f51602061209f5f395f51905f528280a3005b3461021a57602036600319011261021a576114c4611d3f565b6114cc612058565b6001600160a01b0316801561151e57600380546001600160a01b0319811683179091556001600160a01b03167ffe66ddef0f2a9c1d6f97182ba039017c769bd48d0d1ec0a3cc405c078f3c17f45f80a3005b60405162461bcd60e51b815260206004820152601f60248201527f496e76616c696420636c61696d7320636f6e74726163742061646472657373006044820152606490fd5b3461021a57602036600319011261021a576004355f52600460205260405f20805490600181019060405191825f82549261159c84611d55565b80845293600181169081156116a95750600114611665575b506115c192500383611d8d565b60028101549060ff60038201546004830154600584015460068501549060078601549260088701549461161487600a60098b01549a0154169a61018060206040519e8f90815201526101808d0190611db0565b9860408c015260608b015260808a015260a089015260c088015260e0870152818116151561010087015260081c16151561012085015261014084015260058210156105275782916101608301520390f35b90505f9291925260205f20905f915b81831061168d5750509060206115c192820101866115b4565b6020919350806001915483858901015201910190918492611674565b9050602092506115c194915060ff191682840152151560051b820101866115b4565b3461021a57602036600319011261021a576116e4611d3f565b6116ec612058565b6001600160a01b0381169081156117515760028054610100600160a81b03198116600893841b610100600160a81b031617909155901c6001600160a01b03167f92852dbadca7e6fa4e0d5dd87891e6dd13f50a304561a86ea9d5a710b972e4495f80a3005b60405162461bcd60e51b815260206004820152601a602482015279496e76616c6964205553445420746f6b656e206164647265737360301b6044820152606490fd5b3461021a57602036600319011261021a576004355f526007602052602060405f2054604051908152f35b3461021a575f36600319011261021a57602060ff600254166040519015158152f35b3461021a57602036600319011261021a576004355f526005602052602060405f2054604051908152f35b3461021a57602036600319011261021a57611822611d3f565b604051633090134760e01b81526001600160a01b039182166004820152905f90829060249082907f0000000000000000000000000000000000000000000000000000000000000000165afa8015610a9857610fbd915f91610fc1575060405191829182611cf0565b3461021a575f36600319011261021a576020600b54604051908152f35b3461021a57606036600319011261021a576118c0611d3f565b602435604435916118cf612058565b6001600160a01b0316801561192757815f5260046020526118fc60ff600860405f20015460081c16611dff565b611907831515611eb8565b5f52600960205260405f20905f5260205261109b60405f20918254611f04565b60405162461bcd60e51b8152602060048201526014602482015273496e76616c69642075736572206164647265737360601b6044820152606490fd5b3461021a57604036600319011261021a5761197c611d3f565b60243590611988612058565b6001600160a01b03811615611abd576119a2821515611eb8565b6002546040516370a0823160e01b815230600482015260089190911c6001600160a01b03169290602081602481875afa8015610a985782915f91611a88575b5010611a4757611a0b926020925f60405180968195829463a9059cbb60e01b845260048401611e5a565b03925af18015610a98576020915f91611a2a575b506040519015158152f35b611a419150823d8411610bc057610bb28183611d8d565b82611a1f565b60405162461bcd60e51b8152602060048201526019602482015278496e73756666696369656e7420555344542062616c616e636560381b6044820152606490fd5b9150506020813d602011611ab5575b81611aa460209383611d8d565b8101031261021a57819051856119e1565b3d9150611a97565b60405162461bcd60e51b8152602060048201526019602482015278496e76616c696420726563697069656e74206164647265737360381b6044820152606490fd5b3461021a57604036600319011261021a57611b17611d29565b6004355f52600660205260405f209060018060a01b03165f5260205260405f206040519081602082549182815201915f5260205f20905f5b818110611b7257610fbd85611b6681870382611d8d565b60405191829182611cf0565b8254845260209093019260019283019201611b4f565b3461021a57602036600319011261021a576004355f52600560205260405f206040519081602082549182815201915f5260205f20905f5b818110611bd657610fbd85611b6681870382611d8d565b8254845260209093019260019283019201611bbf565b3461021a57602036600319011261021a57600435611c08612058565b611c1061207e565b805f526004602052611c2e60ff600860405f20015460081c16611dff565b5f8181526007602090815260408083208054908490556002548454925163a9059cbb60e01b81529485936001600160a01b0360089390931c83169385938492611c7c92911660048401611e5a565b03925af18015610a9857611c96915f91611cb75750611e75565b5f908152600460205260409020600a01805460ff1916600317905560018055005b611cd0915060203d602011610bc057610bb28183611d8d565b836108ee565b3461021a575f36600319011261021a57602090600c548152f35b60206040818301928281528451809452019201905f5b818110611d135750505090565b8251845260209384019390920191600101611d06565b602435906001600160a01b038216820361021a57565b600435906001600160a01b038216820361021a57565b90600182811c92168015611d83575b6020831014611d6f57565b634e487b7160e01b5f52602260045260245ffd5b91607f1691611d64565b601f909101601f19168101906001600160401b038211908210176105fc57604052565b805180835260209291819084018484015e5f828201840152601f01601f1916010190565b604090600319011261021a576004359060243590565b8054821015610a62575f5260205f2001905f90565b15611e0657565b60405162461bcd60e51b8152602060048201526014602482015273149bdd5b9908191bd95cc81b9bdd08195e1a5cdd60621b6044820152606490fd5b9081602091031261021a5751801515810361021a5790565b6001600160a01b039091168152602081019190915260400190565b15611e7c57565b60405162461bcd60e51b81526020600482015260146024820152731554d115081d1c985b9cd9995c8819985a5b195960621b6044820152606490fd5b15611ebf57565b60405162461bcd60e51b815260206004820152601d60248201527f416d6f756e74206d7573742062652067726561746572207468616e20300000006044820152606490fd5b91908201809211610c1e57565b60208183031261021a578051906001600160401b03821161021a57019080601f8301121561021a578151916001600160401b0383116105fc578260051b906020820193611f616040519586611d8d565b845260208085019282010192831161021a57602001905b828210611f855750505090565b8151815260209182019101611f78565b90670de0b6b3a7640000820291808304670de0b6b3a76400001490151715610c1e57565b6001600160a01b03918216815291166020820152604081019190915260600190565b15611fe257565b60405162461bcd60e51b815260206004820152602d60248201527f4f6e6c7920617574686f72697a656420636c61696d7320636f6e74726163742060448201526c63616e2063616c6c207468697360981b6064820152608490fd5b91908203918211610c1e57565b5f198114610c1e5760010190565b5f546001600160a01b0316330361206b57565b63118cdaa760e01b5f523360045260245ffd5b60026001541461208f576002600155565b633ee5aeb560e01b5f5260045ffdfe8be0079c531659141344cd1fd0a4f28419497f9722a3daafe3b4186f6b6457e0a2646970667358221220776c1ee66650734c92f3aec13d874b6284c5fa9450f2b610c965661ca6c4246064736f6c634300081c0033",
  "linkReferences": {},
  "deployedLinkReferences": {},
  "immutableReferences": {
    "9990": [
      {
        "length": 32,
        "start": 2395
      },
      {
        "length": 32,
        "start": 2845
      },
      {
        "length": 32,
        "start": 3965
      },
      {
        "length": 32,
        "start": 4080
      },
      {
        "length": 32,
        "start": 6219
      }
    ]
  },
  "inputSourceName": "project/contracts/FundRaisingCore.sol",
  "buildInfoId": "solc-0_8_28-af1711a51e0fbcb62e714b89c793800f131622f5"
}