{
  "_format": "hh3-artifact-1",
  "contractName": "FundRaisingAnalytics",
  "sourceName": "contracts/FundRaisingAnalytics.sol",
  "abi": [
    {
      "inputs": [
        {
          "internalType": "address",
          "name": "_coreContract",
          "type": "address"
        }
      ],
      "stateMutability": "nonpayable",
      "type": "constructor"
    },
    {
      "inputs": [
        {
          "internalType": "uint256",
          "name": "size",
          "type": "uint256"
        },
        {
          "internalType": "uint256",
          "name": "maxSize",
          "type": "uint256"
        }
      ],
      "name": "ArrayTooLarge",
      "type": "error"
    },
    {
      "inputs": [],
      "name": "CalculationOverflow",
      "type": "error"
    },
    {
      "inputs": [],
      "name": "EmergencyPaused",
      "type": "error"
    },
    {
      "inputs": [],
      "name": "InvalidAddress",
      "type": "error"
    },
    {
      "inputs": [
        {
          "internalType": "address",
          "name": "owner",
          "type": "address"
        }
      ],
      "name": "OwnableInvalidOwner",
      "type": "error"
    },
    {
      "inputs": [
        {
          "internalType": "address",
          "name": "account",
          "type": "address"
        }
      ],
      "name": "OwnableUnauthorizedAccount",
      "type": "error"
    },
    {
      "inputs": [],
      "name": "RateLimitError",
      "type": "error"
    },
    {
      "inputs": [],
      "name": "ReentrancyGuardReentrantCall",
      "type": "error"
    },
    {
      "inputs": [
        {
          "internalType": "uint256",
          "name": "tokenId",
          "type": "uint256"
        }
      ],
      "name": "TokenNotExists",
      "type": "error"
    },
    {
      "inputs": [],
      "name": "UnauthorizedContract",
      "type": "error"
    },
    {
      "anonymous": false,
      "inputs": [
        {
          "indexed": true,
          "internalType": "address",
          "name": "admin",
          "type": "address"
        }
      ],
      "name": "EmergencyPauseActivated",
      "type": "event"
    },
    {
      "anonymous": false,
      "inputs": [
        {
          "indexed": true,
          "internalType": "address",
          "name": "user",
          "type": "address"
        },
        {
          "indexed": false,
          "internalType": "string",
          "name": "functionName",
          "type": "string"
        },
        {
          "indexed": false,
          "internalType": "uint256",
          "name": "arraySize",
          "type": "uint256"
        }
      ],
      "name": "LargeQueryDetected",
      "type": "event"
    },
    {
      "anonymous": false,
      "inputs": [
        {
          "indexed": true,
          "internalType": "address",
          "name": "previousOwner",
          "type": "address"
        },
        {
          "indexed": true,
          "internalType": "address",
          "name": "newOwner",
          "type": "address"
        }
      ],
      "name": "OwnershipTransferred",
      "type": "event"
    },
    {
      "anonymous": false,
      "inputs": [
        {
          "indexed": true,
          "internalType": "address",
          "name": "user",
          "type": "address"
        },
        {
          "indexed": false,
          "internalType": "uint256",
          "name": "attempts",
          "type": "uint256"
        }
      ],
      "name": "RateLimitExceeded",
      "type": "event"
    },
    {
      "anonymous": false,
      "inputs": [
        {
          "indexed": true,
          "internalType": "address",
          "name": "user",
          "type": "address"
        },
        {
          "indexed": false,
          "internalType": "string",
          "name": "reason",
          "type": "string"
        }
      ],
      "name": "SuspiciousActivity",
      "type": "event"
    },
    {
      "inputs": [],
      "name": "MAX_CALLS_PER_WINDOW",
      "outputs": [
        {
          "internalType": "uint256",
          "name": "",
          "type": "uint256"
        }
      ],
      "stateMutability": "view",
      "type": "function"
    },
    {
      "inputs": [],
      "name": "MAX_ROUNDS_PER_QUERY",
      "outputs": [
        {
          "internalType": "uint256",
          "name": "",
          "type": "uint256"
        }
      ],
      "stateMutability": "view",
      "type": "function"
    },
    {
      "inputs": [],
      "name": "MAX_ROUND_ID",
      "outputs": [
        {
          "internalType": "uint256",
          "name": "",
          "type": "uint256"
        }
      ],
      "stateMutability": "view",
      "type": "function"
    },
    {
      "inputs": [],
      "name": "MAX_TOKENS_PER_QUERY",
      "outputs": [
        {
          "internalType": "uint256",
          "name": "",
          "type": "uint256"
        }
      ],
      "stateMutability": "view",
      "type": "function"
    },
    {
      "inputs": [],
      "name": "RATE_LIMIT_WINDOW",
      "outputs": [
        {
          "internalType": "uint256",
          "name": "",
          "type": "uint256"
        }
      ],
      "stateMutability": "view",
      "type": "function"
    },
    {
      "inputs": [
        {
          "internalType": "address",
          "name": "contractAddr",
          "type": "address"
        }
      ],
      "name": "addWhitelistedContract",
      "outputs": [],
      "stateMutability": "nonpayable",
      "type": "function"
    },
    {
      "inputs": [],
      "name": "coreContract",
      "outputs": [
        {
          "internalType": "contract FundRaisingCore",
          "name": "",
          "type": "address"
        }
      ],
      "stateMutability": "view",
      "type": "function"
    },
    {
      "inputs": [],
      "name": "emergencyPause",
      "outputs": [],
      "stateMutability": "nonpayable",
      "type": "function"
    },
    {
      "inputs": [],
      "name": "emergencyPaused",
      "outputs": [
        {
          "internalType": "bool",
          "name": "",
          "type": "bool"
        }
      ],
      "stateMutability": "view",
      "type": "function"
    },
    {
      "inputs": [],
      "name": "emergencyUnpause",
      "outputs": [],
      "stateMutability": "nonpayable",
      "type": "function"
    },
    {
      "inputs": [
        {
          "internalType": "address",
          "name": "investor",
          "type": "address"
        }
      ],
      "name": "getAllTokensOwnedBy",
      "outputs": [
        {
          "internalType": "uint256[]",
          "name": "",
          "type": "uint256[]"
        }
      ],
      "stateMutability": "view",
      "type": "function"
    },
    {
      "inputs": [
        {
          "internalType": "address",
          "name": "walletAddress",
          "type": "address"
        }
      ],
      "name": "getDividendEarning",
      "outputs": [
        {
          "internalType": "uint256",
          "name": "dividendEarned",
          "type": "uint256"
        },
        {
          "internalType": "uint256",
          "name": "dividendPending",
          "type": "uint256"
        }
      ],
      "stateMutability": "view",
      "type": "function"
    },
    {
      "inputs": [],
      "name": "getGasUsageStats",
      "outputs": [
        {
          "internalType": "uint256[]",
          "name": "",
          "type": "uint256[]"
        }
      ],
      "stateMutability": "view",
      "type": "function"
    },
    {
      "inputs": [
        {
          "internalType": "uint256",
          "name": "roundId",
          "type": "uint256"
        }
      ],
      "name": "getInvestmentRound",
      "outputs": [
        {
          "components": [
            {
              "internalType": "uint256",
              "name": "roundId",
              "type": "uint256"
            },
            {
              "internalType": "string",
              "name": "roundName",
              "type": "string"
            },
            {
              "internalType": "uint256",
              "name": "tokenPrice",
              "type": "uint256"
            },
            {
              "internalType": "uint256",
              "name": "rewardPercentage",
              "type": "uint256"
            },
            {
              "internalType": "uint256",
              "name": "totalTokenOpenInvestment",
              "type": "uint256"
            },
            {
              "internalType": "uint256",
              "name": "tokensSold",
              "type": "uint256"
            },
            {
              "internalType": "uint256",
              "name": "closeDateInvestment",
              "type": "uint256"
            },
            {
              "internalType": "uint256",
              "name": "endDateInvestment",
              "type": "uint256"
            },
            {
              "internalType": "bool",
              "name": "isActive",
              "type": "bool"
            },
            {
              "internalType": "bool",
              "name": "exists",
              "type": "bool"
            },
            {
              "internalType": "uint256",
              "name": "createdAt",
              "type": "uint256"
            },
            {
              "internalType": "uint8",
              "name": "status",
              "type": "uint8"
            }
          ],
          "internalType": "struct FundRaisingAnalytics.InvestmentRound",
          "name": "round",
          "type": "tuple"
        },
        {
          "internalType": "bool",
          "name": "enableClaimReward",
          "type": "bool"
        }
      ],
      "stateMutability": "view",
      "type": "function"
    },
    {
      "inputs": [
        {
          "internalType": "address",
          "name": "investor",
          "type": "address"
        }
      ],
      "name": "getInvestorRounds",
      "outputs": [
        {
          "internalType": "uint256[]",
          "name": "roundIds",
          "type": "uint256[]"
        }
      ],
      "stateMutability": "view",
      "type": "function"
    },
    {
      "inputs": [
        {
          "internalType": "address",
          "name": "investor",
          "type": "address"
        }
      ],
      "name": "getInvestorRoundsDetail",
      "outputs": [
        {
          "components": [
            {
              "internalType": "uint256",
              "name": "roundId",
              "type": "uint256"
            },
            {
              "internalType": "string",
              "name": "roundName",
              "type": "string"
            },
            {
              "internalType": "uint256",
              "name": "tokenPrice",
              "type": "uint256"
            },
            {
              "internalType": "uint256",
              "name": "rewardPercentage",
              "type": "uint256"
            },
            {
              "internalType": "uint256",
              "name": "totalTokenOpenInvestment",
              "type": "uint256"
            },
            {
              "internalType": "uint256",
              "name": "tokensSold",
              "type": "uint256"
            },
            {
              "internalType": "uint256",
              "name": "closeDateInvestment",
              "type": "uint256"
            },
            {
              "internalType": "uint256",
              "name": "endDateInvestment",
              "type": "uint256"
            },
            {
              "internalType": "bool",
              "name": "isActive",
              "type": "bool"
            },
            {
              "internalType": "bool",
              "name": "exists",
              "type": "bool"
            },
            {
              "internalType": "uint256",
              "name": "createdAt",
              "type": "uint256"
            },
            {
              "internalType": "enum FundRaisingCore.Status",
              "name": "status",
              "type": "uint8"
            }
          ],
          "internalType": "struct FundRaisingCore.InvestmentRound[]",
          "name": "",
          "type": "tuple[]"
        }
      ],
      "stateMutability": "view",
      "type": "function"
    },
    {
      "inputs": [
        {
          "internalType": "address",
          "name": "investor",
          "type": "address"
        }
      ],
      "name": "getInvestorSummary",
      "outputs": [
        {
          "internalType": "uint256",
          "name": "totalTokensOwned",
          "type": "uint256"
        },
        {
          "internalType": "uint256[]",
          "name": "nftTokenIds",
          "type": "uint256[]"
        },
        {
          "internalType": "uint256",
          "name": "totalInvestment",
          "type": "uint256"
        },
        {
          "internalType": "uint256",
          "name": "dividendsEarned",
          "type": "uint256"
        }
      ],
      "stateMutability": "view",
      "type": "function"
    },
    {
      "inputs": [
        {
          "internalType": "address",
          "name": "user",
          "type": "address"
        }
      ],
      "name": "getRateLimitInfo",
      "outputs": [
        {
          "internalType": "uint256",
          "name": "lastCall",
          "type": "uint256"
        },
        {
          "internalType": "uint256",
          "name": "callsInWindow",
          "type": "uint256"
        }
      ],
      "stateMutability": "view",
      "type": "function"
    },
    {
      "inputs": [
        {
          "internalType": "uint256",
          "name": "roundId",
          "type": "uint256"
        }
      ],
      "name": "getRoundTokenIds",
      "outputs": [
        {
          "internalType": "uint256[]",
          "name": "",
          "type": "uint256[]"
        }
      ],
      "stateMutability": "view",
      "type": "function"
    },
    {
      "inputs": [],
      "name": "getRoundsCount",
      "outputs": [
        {
          "internalType": "uint256",
          "name": "totalRounds",
          "type": "uint256"
        },
        {
          "internalType": "uint256",
          "name": "activeRounds",
          "type": "uint256"
        }
      ],
      "stateMutability": "view",
      "type": "function"
    },
    {
      "inputs": [
        {
          "internalType": "uint256",
          "name": "offset",
          "type": "uint256"
        },
        {
          "internalType": "uint256",
          "name": "limit",
          "type": "uint256"
        }
      ],
      "name": "getRoundsCountPaginated",
      "outputs": [
        {
          "internalType": "uint256",
          "name": "totalRounds",
          "type": "uint256"
        },
        {
          "internalType": "uint256",
          "name": "activeRounds",
          "type": "uint256"
        },
        {
          "internalType": "bool",
          "name": "hasMore",
          "type": "bool"
        }
      ],
      "stateMutability": "view",
      "type": "function"
    },
    {
      "inputs": [
        {
          "internalType": "uint256[]",
          "name": "roundIds",
          "type": "uint256[]"
        }
      ],
      "name": "getRoundsDetail",
      "outputs": [
        {
          "components": [
            {
              "internalType": "uint256",
              "name": "roundId",
              "type": "uint256"
            },
            {
              "internalType": "string",
              "name": "roundName",
              "type": "string"
            },
            {
              "internalType": "uint256",
              "name": "tokenPrice",
              "type": "uint256"
            },
            {
              "internalType": "uint256",
              "name": "rewardPercentage",
              "type": "uint256"
            },
            {
              "internalType": "uint256",
              "name": "totalTokenOpenInvestment",
              "type": "uint256"
            },
            {
              "internalType": "uint256",
              "name": "tokensSold",
              "type": "uint256"
            },
            {
              "internalType": "uint256",
              "name": "closeDateInvestment",
              "type": "uint256"
            },
            {
              "internalType": "uint256",
              "name": "endDateInvestment",
              "type": "uint256"
            },
            {
              "internalType": "bool",
              "name": "isActive",
              "type": "bool"
            },
            {
              "internalType": "bool",
              "name": "exists",
              "type": "bool"
            },
            {
              "internalType": "uint256",
              "name": "createdAt",
              "type": "uint256"
            },
            {
              "internalType": "enum FundRaisingCore.Status",
              "name": "status",
              "type": "uint8"
            }
          ],
          "internalType": "struct FundRaisingCore.InvestmentRound[]",
          "name": "",
          "type": "tuple[]"
        }
      ],
      "stateMutability": "view",
      "type": "function"
    },
    {
      "inputs": [
        {
          "internalType": "address",
          "name": "investor",
          "type": "address"
        }
      ],
      "name": "getWalletTokensDetail",
      "outputs": [
        {
          "internalType": "uint256[]",
          "name": "tokenIds",
          "type": "uint256[]"
        },
        {
          "components": [
            {
              "internalType": "uint256",
              "name": "tokenId",
              "type": "uint256"
            },
            {
              "internalType": "uint256",
              "name": "roundId",
              "type": "uint256"
            },
            {
              "internalType": "uint256",
              "name": "tokenPrice",
              "type": "uint256"
            },
            {
              "internalType": "uint256",
              "name": "rewardPercentage",
              "type": "uint256"
            },
            {
              "internalType": "uint256",
              "name": "totalTokenOpenInvestment",
              "type": "uint256"
            },
            {
              "internalType": "uint256",
              "name": "purchaseTimestamp",
              "type": "uint256"
            },
            {
              "internalType": "uint256",
              "name": "closeDateInvestment",
              "type": "uint256"
            },
            {
              "internalType": "uint256",
              "name": "endDateInvestment",
              "type": "uint256"
            },
            {
              "internalType": "address",
              "name": "originalBuyer",
              "type": "address"
            },
            {
              "internalType": "bool",
              "name": "redeemed",
              "type": "bool"
            },
            {
              "internalType": "bool",
              "name": "rewardClaimed",
              "type": "bool"
            },
            {
              "internalType": "bool",
              "name": "transferLocked",
              "type": "bool"
            },
            {
              "internalType": "string",
              "name": "metadata",
              "type": "string"
            }
          ],
          "internalType": "struct DZNFT.InvestmentData[]",
          "name": "nftsDetail",
          "type": "tuple[]"
        }
      ],
      "stateMutability": "view",
      "type": "function"
    },
    {
      "inputs": [
        {
          "internalType": "uint256",
          "name": "roundId",
          "type": "uint256"
        }
      ],
      "name": "isClaimRewardEnabled",
      "outputs": [
        {
          "internalType": "bool",
          "name": "",
          "type": "bool"
        }
      ],
      "stateMutability": "view",
      "type": "function"
    },
    {
      "inputs": [],
      "name": "owner",
      "outputs": [
        {
          "internalType": "address",
          "name": "",
          "type": "address"
        }
      ],
      "stateMutability": "view",
      "type": "function"
    },
    {
      "inputs": [
        {
          "internalType": "address",
          "name": "contractAddr",
          "type": "address"
        }
      ],
      "name": "removeWhitelistedContract",
      "outputs": [],
      "stateMutability": "nonpayable",
      "type": "function"
    },
    {
      "inputs": [],
      "name": "renounceOwnership",
      "outputs": [],
      "stateMutability": "nonpayable",
      "type": "function"
    },
    {
      "inputs": [
        {
          "internalType": "address",
          "name": "newOwner",
          "type": "address"
        }
      ],
      "name": "transferOwnership",
      "outputs": [],
      "stateMutability": "nonpayable",
      "type": "function"
    },
    {
      "inputs": [
        {
          "internalType": "address",
          "name": "",
          "type": "address"
        }
      ],
      "name": "whitelistedContracts",
      "outputs": [
        {
          "internalType": "bool",
          "name": "",
          "type": "bool"
        }
      ],
      "stateMutability": "view",
      "type": "function"
    }
  ],
  "bytecode": "0x60a03461014157601f611f1038819003918201601f19168301916001600160401b038311848410176101455780849260209460405283398101031261014157516001600160a01b038116908190036101415760015f55331561012e5760018054336001600160a01b0319821681179092556040519291906001600160a01b03167f8be0079c531659141344cd1fd0a4f28419497f9722a3daafe3b4186f6b6457e05f80a360ff1960055416600555801561011f57608052611db6908161015a8239608051818181610200015281816102a90152818161036e0152818161047501528181610742015281816108a101528181610a1001528181610dcf01528181610fa1015281816115230152818161168301528181611a140152611bb40152f35b63e6c4247b60e01b5f5260045ffd5b631e4fbdf760e01b5f525f60045260245ffd5b5f80fd5b634e487b7160e01b5f52604160045260245ffdfe60806040526004361015610011575f80fd5b5f3560e01c8063026af01b146110c357806304692d4d146110705780630ff24ee21461102b5780631033fcd8146110265780631333217914610ff0578063161f662214610f7457806327c830a914610f525780632c5d23a514610d8c5780633090134714610d4857806337cfdebd14610d2c578063391feebb14610ceb57806346704adb14610c9d5780634a4e3bd514610c7957806351858e2714610c2d5780635c8f45b1146109ce5780637130dfc9146109b3578063715018a61461096b578063785b5e98146107f757806385b71e4e146107dc5780638da5cb5b146107b45780638debb54614610700578063a09686c4146106c0578063aea664a514610655578063b3ad5c9c14610608578063b82e4fc3146103ec578063df0201b0146102d8578063e80db5db14610294578063ef2dcbee146101d35763f2fde38b14610158575f80fd5b346101cf5760203660031901126101cf576004356001600160a01b038116908190036101cf576101866119dd565b80156101bc57600180546001600160a01b0319811683179091556001600160a01b03165f516020611d615f395f51905f525f80a3005b631e4fbdf760e01b5f525f60045260245ffd5b5f80fd5b346101cf5760203660031901126101cf57604051631a7ef4f360e21b815260048035908201525f816024817f00000000000000000000000000000000000000000000000000000000000000006001600160a01b03165afa8015610289576020915f905f92610259575b5042119081610251575b506040519015158152f35b905082610246565b905061027791503d805f833e61026f8183611253565b810190611471565b5050509750509450505050508361023c565b6040513d5f823e3d90fd5b346101cf575f3660031901126101cf576040517f00000000000000000000000000000000000000000000000000000000000000006001600160a01b03168152602090f35b346101cf5760203660031901126101cf576004356001600160401b0381116101cf57366023820112156101cf5780600401359061031482611276565b916103226040519384611253565b8083526024602084019160051b830101913683116101cf57602401905b8282106103dc57604051630df0201b60e41b8152602060048201525f818061036a60248201896111f0565b03817f00000000000000000000000000000000000000000000000000000000000000006001600160a01b03165afa8015610289576103b6915f916103ba575b5060405191829182611103565b0390f35b6103d691503d805f833e6103ce8183611253565b8101906112ef565b826103a9565b813581526020918201910161033f565b346101cf5760203660031901126101cf575f61016060405161040d81611223565b828152606060208201528260408201528260608201528260808201528260a08201528260c08201528260e08201528261010082015282610120820152826101408201520152604051631a7ef4f360e21b815260043560048201525f8160248160018060a01b037f0000000000000000000000000000000000000000000000000000000000000000165afa908115610289575f915f925f915f935f5f935f5f905f965f945f965f986105d1575b5060058810156105bd576040519a8b956104d287611223565b8652602086019c8d52604086019a8b52606086019081526080860191825260a0860192835260c0860193845260e086019480865260ff6101606101008901988d15158a5261012081019a15158b5261014081019b8c52019a168a524211998a6105b5575b506040519c8d809d604082525190604001525160608d0161018090526101c08d01610560916110df565b9a5160808d01525160a08c01525160c08b01525160e08a01525161010089015251610120880152511515610140870152511515610160860152516101808501525160ff166101a0840152151560208301520390f35b99508d610536565b634e487b7160e01b5f52602160045260245ffd5b9a50505050505050505050506105f191503d805f833e61026f8183611253565b999a9799929792969095919492939291908c6104b9565b346101cf5760203660031901126101cf576004356001600160a01b038116908190036101cf57806040915f526002602052815f2054905f526003602052815f205482519182526020820152f35b346101cf575f3660031901126101cf5761066d6119dd565b60405161067b60a082611253565b60048152602081019060803683375a8151156106ac57826103b69350526040519182916020835260208301906111f0565b634e487b7160e01b5f52603260045260245ffd5b346101cf575f3660031901126101cf5760ff600554166106f15760406106e4611508565b5082519182526020820152f35b634cb3183d60e01b5f5260045ffd5b346101cf5760203660031901126101cf576004356001600160a01b038116908190036101cf576040516346f5daa360e11b815260048101919091525f816024817f00000000000000000000000000000000000000000000000000000000000000006001600160a01b03165afa8015610289576103b6915f91610792575b506040519182916020835260208301906111f0565b6107ae91503d805f833e6107a68183611253565b810190611844565b8261077d565b346101cf575f3660031901126101cf576001546040516001600160a01b039091168152602090f35b346101cf575f3660031901126101cf57602060405160148152f35b346101cf5760203660031901126101cf576004356001600160a01b038116908190036101cf57604090716765744469766964656e644561726e696e6760701b602083516108448582611253565b60128152015260ff600554166106f157333b151580610955575b61094657335f526002602052603c825f205404603c42041480610930575b6109215780156109125781516346f5daa360e11b815260048101919091525f816024817f00000000000000000000000000000000000000000000000000000000000000006001600160a01b03165afa8015610908576108e2915f916108ee575b50611a04565b82519182526020820152f35b61090291503d805f833e6107a68183611253565b836108dc565b82513d5f823e3d90fd5b63e6c4247b60e01b5f5260045ffd5b6351b2f6e360e11b5f5260045ffd5b50335f5260036020526014825f2054101561087c565b6372312d7960e01b5f5260045ffd5b50335f52600460205260ff825f2054161561085e565b346101cf575f3660031901126101cf576109836119dd565b600180546001600160a01b031981169091555f906001600160a01b03165f516020611d615f395f51905f528280a3005b346101cf575f3660031901126101cf576020604051603c8152f35b346101cf5760203660031901126101cf576004356001600160a01b038116908190036101cf57604051635c8f45b160e01b815260048101919091525f816024817f00000000000000000000000000000000000000000000000000000000000000006001600160a01b03165afa8015610289575f915f91610b5a575b5090610a63916040519283926040845260408401906111f0565b8281036020840152815180825260208201916020808360051b8301019401925f915b838310610a925786860387f35b919395509193602080610b48600193601f198682030187526101a06101808b5180518452858101518685015260408101516040850152606081015160608501526080810151608085015260a081015160a085015260c081015160c085015260e081015160e0850152878060a01b03610100820151166101008501526101208101511515610120850152610140810151151561014085015261016081015115156101608501520151918161018082015201906110df565b97019301930190928695949293610a85565b9150503d805f833e610b6c8183611253565b8101906040818303126101cf5780516001600160401b0381116101cf5782610b959183016117e7565b602082015190916001600160401b0382116101cf57019180601f840112156101cf578251610bc281611276565b93610bd06040519586611253565b81855260208086019260051b820101918383116101cf5760208201905b838210610c005750505050509082610a49565b81516001600160401b0381116101cf57602091610c22878480948801016118b2565b815201910190610bed565b346101cf575f3660031901126101cf57610c456119dd565b600160ff196005541617600555337fd22f4bfe91f61d907b056bd69bbd188a22d589ccc82a2acefd1b909e648f579d5f80a2005b346101cf575f3660031901126101cf57610c916119dd565b6005805460ff19169055005b346101cf5760203660031901126101cf576004356001600160a01b038116908190036101cf57610ccb6119dd565b8015610912575f908152600460205260409020805460ff19166001179055005b346101cf5760203660031901126101cf576004356001600160a01b038116908190036101cf575f526004602052602060ff60405f2054166040519015158152f35b346101cf575f3660031901126101cf5760206040516127108152f35b346101cf5760203660031901126101cf576004356001600160a01b03811681036101cf57610d786103b691611b8d565b6040519182916020835260208301906111f0565b346101cf5760203660031901126101cf576004356001600160a01b038116908190036101cf578015610f12576040516346f5daa360e11b815260048101919091527f00000000000000000000000000000000000000000000000000000000000000006001600160a01b03165f82602481845afa918215610289575f92610ef6575b50815190610e1a8261186c565b925f90815b8151831015610ebe57610e32838361189e565b519060405191634712f17360e11b835260048301525f82602481885afa90811561028957610e8e610e94926001945f91610e9c575b50610e72878761189e565b51610e7d888c61189e565b5260806040820151910151906119ca565b90611450565b920191610e1f565b610eb891503d805f833e610eb08183611253565b8101906119a5565b8a610e67565b9250610eca9150611a04565b50610ee760405194859485526080602086015260808501906111f0565b91604084015260608301520390f35b610f0b9192503d805f833e6107a68183611253565b9082610e0d565b60405162461bcd60e51b8152602060048201526018602482015277496e76616c696420696e766573746f72206164647265737360401b6044820152606490fd5b346101cf575f3660031901126101cf57602060ff600554166040519015158152f35b346101cf5760203660031901126101cf57604051630b0fb31160e11b815260048035908201525f816024817f00000000000000000000000000000000000000000000000000000000000000006001600160a01b03165afa8015610289576103b6915f9161079257506040519182916020835260208301906111f0565b346101cf5760403660031901126101cf576060611011602435600435611658565b90604051928352602083015215156040820152f35b6110c3565b346101cf5760203660031901126101cf576004356001600160a01b038116908190036101cf576110596119dd565b5f908152600460205260409020805460ff19169055005b346101cf5760203660031901126101cf576004356001600160a01b03811681036101cf575f6110a161036a92611b8d565b60405180938192630df0201b60e41b83526020600484015260248301906111f0565b346101cf575f3660031901126101cf5760206040516103e88152f35b805180835260209291819084018484015e5f828201840152601f01601f1916010190565b6020810160208252825180915260408201602060408360051b8501019401925f905b83821061113457505050505090565b9091929394603f1982820301845285519081518152610160611167602084015161018060208501526101808401906110df565b9260408101516040840152606081015160608401526080810151608084015260a081015160a084015260c081015160c084015260e081015160e08401526101008101511515610100840152610120810151151561012084015261014081015161014084015201519060058210156105bd5761016001529460209081019493019160010190611125565b90602080835192838152019201905f5b81811061120d5750505090565b8251845260209384019390920191600101611200565b61018081019081106001600160401b0382111761123f57604052565b634e487b7160e01b5f52604160045260245ffd5b601f909101601f19168101906001600160401b0382119082101761123f57604052565b6001600160401b03811161123f5760051b60200190565b81601f820112156101cf578051906001600160401b03821161123f57604051926112c1601f8401601f191660200185611253565b828452602083830101116101cf57815f9260208093018386015e8301015290565b519081151582036101cf57565b6020818303126101cf578051906001600160401b0382116101cf57019080601f830112156101cf5781519161132383611276565b926113316040519485611253565b80845260208085019160051b830101918383116101cf5760208101915b83831061135d57505050505090565b82516001600160401b0381116101cf57820190610180828703601f1901126101cf576040519161138c83611223565b602081015183526040810151906001600160401b0382116101cf576113b98860206101809484010161128d565b6020850152606081015160408501526080810151606085015260a0810151608085015260c081015160a085015260e081015160c085015261010081015160e085015261140861012082016112e2565b61010085015261141b61014082016112e2565b61012085015261016081015161014085015201519060058210156101cf5782602093926101608594015281520192019161134e565b9190820180921161145d57565b634e487b7160e01b5f52601160045260245ffd5b919091610180818403126101cf578051602082015190936001600160401b0382116101cf576114a191830161128d565b9160408201519160608101519160808201519160a08101519160c08201519160e0810151916114d361010083016112e2565b916114e161012082016112e2565b9161016061014083015192015160058110156101cf5790565b5f19811461145d5760010190565b5f9060ff600554166106f1576040516330814b1b60e01b81527f00000000000000000000000000000000000000000000000000000000000000006001600160a01b03169190602081600481865afa908115610289575f91611626575b5080801561161b57506103e8818111156116135750805f935b5f5b82811061158e57505050929190565b604051631a7ef4f360e21b8152600481018290525f81602481865afa908115610289575f905f926115eb575b50816115e3575b506115cf575b60010161157f565b956115db6001916114fa565b9690506115c7565b90505f6115c1565b905061160191503d805f833e61026f8183611253565b5050985096505050505050505f6115ba565b60019361157d565b93505f925082919050565b90506020813d602011611650575b8161164160209383611253565b810103126101cf57515f611564565b3d9150611634565b90915f9260ff600554166106f157801580156117dc575b6117c4576040516330814b1b60e01b8152907f00000000000000000000000000000000000000000000000000000000000000006001600160a01b031690602083600481855afa928315610289575f93611790575b50828086101561178357506116d89085611450565b8281111561177a575081905f945b8281106116f557505050929190565b604051631a7ef4f360e21b8152600481018290525f81602481865afa908115610289575f905f92611752575b508161174a575b50611736575b6001016116e6565b956117426001916114fa565b96905061172e565b90505f611728565b905061176891503d805f833e61026f8183611253565b5050985096505050505050505f611721565b906001946116e6565b95505f9450849392505050565b9092506020813d6020116117bc575b816117ac60209383611253565b810103126101cf5751915f6116c3565b3d915061179f565b6342b154e560e01b5f526004526103e860245260445ffd5b506103e8811161166f565b9080601f830112156101cf5781516117fe81611276565b9261180c6040519485611253565b81845260208085019260051b8201019283116101cf57602001905b8282106118345750505090565b8151815260209182019101611827565b906020828203126101cf5781516001600160401b0381116101cf5761186992016117e7565b90565b9061187682611276565b6118836040519182611253565b8281528092611894601f1991611276565b0190602036910137565b80518210156106ac5760209160051b010190565b91906101a0838203126101cf57604051906101a082016001600160401b0381118382101761123f576040528193805183526020810151602084015260408101516040840152606081015160608401526080810151608084015260a081015160a084015260c081015160c084015260e081015160e084015261010081015160018060a01b03811681036101cf5761010084015261195161012082016112e2565b61012084015261196461014082016112e2565b61014084015261197761016082016112e2565b610160840152610180810151916001600160401b0383116101cf57610180926119a0920161128d565b910152565b906020828203126101cf5781516001600160401b0381116101cf5761186992016118b2565b8181029291811591840414171561145d57565b6001546001600160a01b031633036119f157565b63118cdaa760e01b5f523360045260245ffd5b5f5f82516103e881116117c457507f00000000000000000000000000000000000000000000000000000000000000006001600160a01b031693925f5b8151811015611b8557611a53818361189e565b5160405190634712f17360e11b825260048201525f816024818a5afa908115610289575f91611b6b575b506040810180519081151580611b5e575b611a9e575b505050600101611a40565b606083979497019182518015611b4a575f190410611af657606491611ac691519051906119ca565b049061012081015115155f14611b0557509081198111611af657600191611aec91611450565b935b905f80611a93565b639c154db960e01b5f5260045ffd5b610140015115611b2d5760011c9081198111611af657600191611b2791611450565b93611aee565b90939281198111611af657600191611b4491611450565b92611aee565b634e487b7160e01b5f52601260045260245ffd5b5060608301511515611a8e565b611b7f91503d805f833e610eb08183611253565b5f611a7d565b505092509190565b6001600160a01b0316908115610912576040516346f5daa360e11b815260048101929092527f00000000000000000000000000000000000000000000000000000000000000006001600160a01b0316915f81602481865afa908115610289575f91611d46575b50805115611d2b5780516103e881116117c45750604051906204e220611c198184611253565b6127108352601f1901366020840137611c32815161186c565b5f915f5b8151811015611cec57611c49818361189e565b5160405190634712f17360e11b825260048201525f816024818b5afa8015610289576020915f91611cd2575b500151612710811015611cc957611c8c818761189e565b5115611c9e575b506001905b01611c36565b600191948183611cb1611cc2948a61189e565b52611cbc828761189e565b526114fa565b9390611c93565b50600190611c98565b611ce691503d805f833e610eb08183611253565b5f611c75565b505093509050611cfb8161186c565b905f5b818110611d0c575090925050565b80611d196001928761189e565b51611d24828661189e565b5201611cfe565b509050604051611d3c602082611253565b5f81525f36813790565b611d5a91503d805f833e6107a68183611253565b5f611bf356fe8be0079c531659141344cd1fd0a4f28419497f9722a3daafe3b4186f6b6457e0a2646970667358221220733cec37715804a599fe90b8fdd233708bc46ccd499046b3807e0ba0f40505cf64736f6c634300081c0033",
  "linkReferences": {},
  "deployedLinkReferences": {},
  "immutableReferences": {
    "9366": [
      {
        "length": 32,
        "start": 512
      },
      {
        "length": 32,
        "start": 681
      },
      {
        "length": 32,
        "start": 878
      },
      {
        "length": 32,
        "start": 1141
      },
      {
        "length": 32,
        "start": 1858
      },
      {
        "length": 32,
        "start": 2209
      },
      {
        "length": 32,
        "start": 2576
      },
      {
        "length": 32,
        "start": 3535
      },
      {
        "length": 32,
        "start": 4001
      },
      {
        "length": 32,
        "start": 5411
      },
      {
        "length": 32,
        "start": 5763
      },
      {
        "length": 32,
        "start": 6676
      },
      {
        "length": 32,
        "start": 7092
      }
    ]
  },
  "inputSourceName": "project/contracts/FundRaisingAnalytics.sol",
  "buildInfoId": "solc-0_8_28-683373e98d826345948ed4805242883e3eb4da7b"
}