{
  "_format": "hh3-artifact-1",
  "contractName": "DZNFT",
  "sourceName": "contracts/DZNFT.sol",
  "abi": [
    {
      "inputs": [],
      "stateMutability": "nonpayable",
      "type": "constructor"
    },
    {
      "inputs": [],
      "name": "AccessControlBadConfirmation",
      "type": "error"
    },
    {
      "inputs": [
        {
          "internalType": "address",
          "name": "account",
          "type": "address"
        },
        {
          "internalType": "bytes32",
          "name": "neededRole",
          "type": "bytes32"
        }
      ],
      "name": "AccessControlUnauthorizedAccount",
      "type": "error"
    },
    {
      "inputs": [],
      "name": "ERC721EnumerableForbiddenBatchMint",
      "type": "error"
    },
    {
      "inputs": [
        {
          "internalType": "address",
          "name": "sender",
          "type": "address"
        },
        {
          "internalType": "uint256",
          "name": "tokenId",
          "type": "uint256"
        },
        {
          "internalType": "address",
          "name": "owner",
          "type": "address"
        }
      ],
      "name": "ERC721IncorrectOwner",
      "type": "error"
    },
    {
      "inputs": [
        {
          "internalType": "address",
          "name": "operator",
          "type": "address"
        },
        {
          "internalType": "uint256",
          "name": "tokenId",
          "type": "uint256"
        }
      ],
      "name": "ERC721InsufficientApproval",
      "type": "error"
    },
    {
      "inputs": [
        {
          "internalType": "address",
          "name": "approver",
          "type": "address"
        }
      ],
      "name": "ERC721InvalidApprover",
      "type": "error"
    },
    {
      "inputs": [
        {
          "internalType": "address",
          "name": "operator",
          "type": "address"
        }
      ],
      "name": "ERC721InvalidOperator",
      "type": "error"
    },
    {
      "inputs": [
        {
          "internalType": "address",
          "name": "owner",
          "type": "address"
        }
      ],
      "name": "ERC721InvalidOwner",
      "type": "error"
    },
    {
      "inputs": [
        {
          "internalType": "address",
          "name": "receiver",
          "type": "address"
        }
      ],
      "name": "ERC721InvalidReceiver",
      "type": "error"
    },
    {
      "inputs": [
        {
          "internalType": "address",
          "name": "sender",
          "type": "address"
        }
      ],
      "name": "ERC721InvalidSender",
      "type": "error"
    },
    {
      "inputs": [
        {
          "internalType": "uint256",
          "name": "tokenId",
          "type": "uint256"
        }
      ],
      "name": "ERC721NonexistentToken",
      "type": "error"
    },
    {
      "inputs": [
        {
          "internalType": "address",
          "name": "owner",
          "type": "address"
        },
        {
          "internalType": "uint256",
          "name": "index",
          "type": "uint256"
        }
      ],
      "name": "ERC721OutOfBoundsIndex",
      "type": "error"
    },
    {
      "inputs": [],
      "name": "EnforcedPause",
      "type": "error"
    },
    {
      "inputs": [],
      "name": "ExpectedPause",
      "type": "error"
    },
    {
      "inputs": [
        {
          "internalType": "address",
          "name": "owner",
          "type": "address"
        }
      ],
      "name": "OwnableInvalidOwner",
      "type": "error"
    },
    {
      "inputs": [
        {
          "internalType": "address",
          "name": "account",
          "type": "address"
        }
      ],
      "name": "OwnableUnauthorizedAccount",
      "type": "error"
    },
    {
      "anonymous": false,
      "inputs": [
        {
          "indexed": true,
          "internalType": "address",
          "name": "owner",
          "type": "address"
        },
        {
          "indexed": true,
          "internalType": "address",
          "name": "approved",
          "type": "address"
        },
        {
          "indexed": true,
          "internalType": "uint256",
          "name": "tokenId",
          "type": "uint256"
        }
      ],
      "name": "Approval",
      "type": "event"
    },
    {
      "anonymous": false,
      "inputs": [
        {
          "indexed": true,
          "internalType": "address",
          "name": "owner",
          "type": "address"
        },
        {
          "indexed": true,
          "internalType": "address",
          "name": "operator",
          "type": "address"
        },
        {
          "indexed": false,
          "internalType": "bool",
          "name": "approved",
          "type": "bool"
        }
      ],
      "name": "ApprovalForAll",
      "type": "event"
    },
    {
      "anonymous": false,
      "inputs": [
        {
          "indexed": false,
          "internalType": "string",
          "name": "newBaseURI",
          "type": "string"
        }
      ],
      "name": "BaseURIUpdated",
      "type": "event"
    },
    {
      "anonymous": false,
      "inputs": [
        {
          "indexed": true,
          "internalType": "address",
          "name": "account",
          "type": "address"
        },
        {
          "indexed": false,
          "internalType": "bool",
          "name": "granted",
          "type": "bool"
        }
      ],
      "name": "ExecutorRoleUpdated",
      "type": "event"
    },
    {
      "anonymous": false,
      "inputs": [
        {
          "indexed": true,
          "internalType": "uint256",
          "name": "tokenId",
          "type": "uint256"
        },
        {
          "indexed": false,
          "internalType": "string",
          "name": "metadata",
          "type": "string"
        }
      ],
      "name": "MetadataStamped",
      "type": "event"
    },
    {
      "anonymous": false,
      "inputs": [
        {
          "indexed": true,
          "internalType": "uint256",
          "name": "tokenId",
          "type": "uint256"
        },
        {
          "indexed": true,
          "internalType": "address",
          "name": "owner",
          "type": "address"
        }
      ],
      "name": "NFTBurned",
      "type": "event"
    },
    {
      "anonymous": false,
      "inputs": [
        {
          "indexed": true,
          "internalType": "uint256",
          "name": "tokenId",
          "type": "uint256"
        },
        {
          "indexed": true,
          "internalType": "address",
          "name": "buyer",
          "type": "address"
        },
        {
          "indexed": true,
          "internalType": "uint256",
          "name": "roundId",
          "type": "uint256"
        },
        {
          "indexed": false,
          "internalType": "uint256",
          "name": "tokenPrice",
          "type": "uint256"
        },
        {
          "indexed": false,
          "internalType": "uint256",
          "name": "rewardPercentage",
          "type": "uint256"
        }
      ],
      "name": "NFTMinted",
      "type": "event"
    },
    {
      "anonymous": false,
      "inputs": [
        {
          "indexed": true,
          "internalType": "address",
          "name": "previousOwner",
          "type": "address"
        },
        {
          "indexed": true,
          "internalType": "address",
          "name": "newOwner",
          "type": "address"
        }
      ],
      "name": "OwnershipTransferred",
      "type": "event"
    },
    {
      "anonymous": false,
      "inputs": [
        {
          "indexed": false,
          "internalType": "address",
          "name": "account",
          "type": "address"
        }
      ],
      "name": "Paused",
      "type": "event"
    },
    {
      "anonymous": false,
      "inputs": [
        {
          "indexed": true,
          "internalType": "uint256",
          "name": "tokenId",
          "type": "uint256"
        },
        {
          "indexed": true,
          "internalType": "address",
          "name": "claimer",
          "type": "address"
        }
      ],
      "name": "RewardClaimed",
      "type": "event"
    },
    {
      "anonymous": false,
      "inputs": [
        {
          "indexed": true,
          "internalType": "bytes32",
          "name": "role",
          "type": "bytes32"
        },
        {
          "indexed": true,
          "internalType": "bytes32",
          "name": "previousAdminRole",
          "type": "bytes32"
        },
        {
          "indexed": true,
          "internalType": "bytes32",
          "name": "newAdminRole",
          "type": "bytes32"
        }
      ],
      "name": "RoleAdminChanged",
      "type": "event"
    },
    {
      "anonymous": false,
      "inputs": [
        {
          "indexed": true,
          "internalType": "bytes32",
          "name": "role",
          "type": "bytes32"
        },
        {
          "indexed": true,
          "internalType": "address",
          "name": "account",
          "type": "address"
        },
        {
          "indexed": true,
          "internalType": "address",
          "name": "sender",
          "type": "address"
        }
      ],
      "name": "RoleGranted",
      "type": "event"
    },
    {
      "anonymous": false,
      "inputs": [
        {
          "indexed": true,
          "internalType": "bytes32",
          "name": "role",
          "type": "bytes32"
        },
        {
          "indexed": true,
          "internalType": "address",
          "name": "account",
          "type": "address"
        },
        {
          "indexed": true,
          "internalType": "address",
          "name": "sender",
          "type": "address"
        }
      ],
      "name": "RoleRevoked",
      "type": "event"
    },
    {
      "anonymous": false,
      "inputs": [
        {
          "indexed": true,
          "internalType": "uint256",
          "name": "tokenId",
          "type": "uint256"
        },
        {
          "indexed": false,
          "internalType": "string",
          "name": "newTokenURI",
          "type": "string"
        }
      ],
      "name": "TokenURIUpdated",
      "type": "event"
    },
    {
      "anonymous": false,
      "inputs": [
        {
          "indexed": true,
          "internalType": "address",
          "name": "from",
          "type": "address"
        },
        {
          "indexed": true,
          "internalType": "address",
          "name": "to",
          "type": "address"
        },
        {
          "indexed": true,
          "internalType": "uint256",
          "name": "tokenId",
          "type": "uint256"
        }
      ],
      "name": "Transfer",
      "type": "event"
    },
    {
      "anonymous": false,
      "inputs": [
        {
          "indexed": true,
          "internalType": "uint256",
          "name": "tokenId",
          "type": "uint256"
        },
        {
          "indexed": false,
          "internalType": "bool",
          "name": "locked",
          "type": "bool"
        }
      ],
      "name": "TransferLockUpdated",
      "type": "event"
    },
    {
      "anonymous": false,
      "inputs": [
        {
          "indexed": false,
          "internalType": "address",
          "name": "account",
          "type": "address"
        }
      ],
      "name": "Unpaused",
      "type": "event"
    },
    {
      "inputs": [],
      "name": "DEFAULT_ADMIN_ROLE",
      "outputs": [
        {
          "internalType": "bytes32",
          "name": "",
          "type": "bytes32"
        }
      ],
      "stateMutability": "view",
      "type": "function"
    },
    {
      "inputs": [],
      "name": "EXECUTOR_ROLE",
      "outputs": [
        {
          "internalType": "bytes32",
          "name": "",
          "type": "bytes32"
        }
      ],
      "stateMutability": "view",
      "type": "function"
    },
    {
      "inputs": [
        {
          "internalType": "address",
          "name": "to",
          "type": "address"
        },
        {
          "internalType": "uint256",
          "name": "tokenId",
          "type": "uint256"
        }
      ],
      "name": "approve",
      "outputs": [],
      "stateMutability": "nonpayable",
      "type": "function"
    },
    {
      "inputs": [
        {
          "internalType": "address",
          "name": "owner",
          "type": "address"
        }
      ],
      "name": "balanceOf",
      "outputs": [
        {
          "internalType": "uint256",
          "name": "",
          "type": "uint256"
        }
      ],
      "stateMutability": "view",
      "type": "function"
    },
    {
      "inputs": [],
      "name": "baseURI",
      "outputs": [
        {
          "internalType": "string",
          "name": "",
          "type": "string"
        }
      ],
      "stateMutability": "view",
      "type": "function"
    },
    {
      "inputs": [
        {
          "internalType": "uint256[]",
          "name": "tokenIds",
          "type": "uint256[]"
        },
        {
          "internalType": "address",
          "name": "user",
          "type": "address"
        }
      ],
      "name": "batchCheckOwnership",
      "outputs": [
        {
          "internalType": "bool[]",
          "name": "ownedTokens",
          "type": "bool[]"
        }
      ],
      "stateMutability": "view",
      "type": "function"
    },
    {
      "inputs": [
        {
          "internalType": "uint256[]",
          "name": "tokenIds",
          "type": "uint256[]"
        }
      ],
      "name": "batchGetInvestmentData",
      "outputs": [
        {
          "components": [
            {
              "internalType": "uint256",
              "name": "tokenId",
              "type": "uint256"
            },
            {
              "internalType": "uint256",
              "name": "roundId",
              "type": "uint256"
            },
            {
              "internalType": "uint256",
              "name": "tokenPrice",
              "type": "uint256"
            },
            {
              "internalType": "uint256",
              "name": "rewardPercentage",
              "type": "uint256"
            },
            {
              "internalType": "uint256",
              "name": "totalTokenOpenInvestment",
              "type": "uint256"
            },
            {
              "internalType": "uint256",
              "name": "purchaseTimestamp",
              "type": "uint256"
            },
            {
              "internalType": "uint256",
              "name": "closeDateInvestment",
              "type": "uint256"
            },
            {
              "internalType": "uint256",
              "name": "endDateInvestment",
              "type": "uint256"
            },
            {
              "internalType": "address",
              "name": "originalBuyer",
              "type": "address"
            },
            {
              "internalType": "bool",
              "name": "redeemed",
              "type": "bool"
            },
            {
              "internalType": "bool",
              "name": "rewardClaimed",
              "type": "bool"
            },
            {
              "internalType": "bool",
              "name": "transferLocked",
              "type": "bool"
            },
            {
              "internalType": "string",
              "name": "metadata",
              "type": "string"
            }
          ],
          "internalType": "struct DZNFT.InvestmentData[]",
          "name": "investments",
          "type": "tuple[]"
        }
      ],
      "stateMutability": "view",
      "type": "function"
    },
    {
      "inputs": [
        {
          "internalType": "address",
          "name": "to",
          "type": "address"
        },
        {
          "internalType": "uint256",
          "name": "count",
          "type": "uint256"
        },
        {
          "internalType": "uint256",
          "name": "roundId",
          "type": "uint256"
        },
        {
          "internalType": "uint256",
          "name": "tokenPrice",
          "type": "uint256"
        },
        {
          "internalType": "uint256",
          "name": "rewardPercentage",
          "type": "uint256"
        },
        {
          "internalType": "uint256",
          "name": "totalTokenOpenInvestment",
          "type": "uint256"
        },
        {
          "internalType": "uint256",
          "name": "closeDateInvestment",
          "type": "uint256"
        },
        {
          "internalType": "uint256",
          "name": "endDateInvestment",
          "type": "uint256"
        }
      ],
      "name": "batchMintNFT",
      "outputs": [
        {
          "internalType": "uint256[]",
          "name": "tokenIds",
          "type": "uint256[]"
        }
      ],
      "stateMutability": "nonpayable",
      "type": "function"
    },
    {
      "inputs": [
        {
          "internalType": "uint256",
          "name": "tokenId",
          "type": "uint256"
        }
      ],
      "name": "burn",
      "outputs": [],
      "stateMutability": "nonpayable",
      "type": "function"
    },
    {
      "inputs": [
        {
          "internalType": "uint256",
          "name": "tokenId",
          "type": "uint256"
        }
      ],
      "name": "canClaimEarlyReward",
      "outputs": [
        {
          "internalType": "bool",
          "name": "",
          "type": "bool"
        }
      ],
      "stateMutability": "view",
      "type": "function"
    },
    {
      "inputs": [
        {
          "internalType": "uint256",
          "name": "tokenId",
          "type": "uint256"
        }
      ],
      "name": "canFullyRedeem",
      "outputs": [
        {
          "internalType": "bool",
          "name": "",
          "type": "bool"
        }
      ],
      "stateMutability": "view",
      "type": "function"
    },
    {
      "inputs": [
        {
          "internalType": "uint256",
          "name": "tokenId",
          "type": "uint256"
        }
      ],
      "name": "getApproved",
      "outputs": [
        {
          "internalType": "address",
          "name": "",
          "type": "address"
        }
      ],
      "stateMutability": "view",
      "type": "function"
    },
    {
      "inputs": [
        {
          "internalType": "address",
          "name": "walletAddress",
          "type": "address"
        }
      ],
      "name": "getDividendEarning",
      "outputs": [
        {
          "internalType": "uint256",
          "name": "dividendEarned",
          "type": "uint256"
        },
        {
          "internalType": "uint256",
          "name": "dividendPending",
          "type": "uint256"
        }
      ],
      "stateMutability": "view",
      "type": "function"
    },
    {
      "inputs": [
        {
          "internalType": "uint256",
          "name": "tokenId",
          "type": "uint256"
        }
      ],
      "name": "getInvestmentData",
      "outputs": [
        {
          "components": [
            {
              "internalType": "uint256",
              "name": "tokenId",
              "type": "uint256"
            },
            {
              "internalType": "uint256",
              "name": "roundId",
              "type": "uint256"
            },
            {
              "internalType": "uint256",
              "name": "tokenPrice",
              "type": "uint256"
            },
            {
              "internalType": "uint256",
              "name": "rewardPercentage",
              "type": "uint256"
            },
            {
              "internalType": "uint256",
              "name": "totalTokenOpenInvestment",
              "type": "uint256"
            },
            {
              "internalType": "uint256",
              "name": "purchaseTimestamp",
              "type": "uint256"
            },
            {
              "internalType": "uint256",
              "name": "closeDateInvestment",
              "type": "uint256"
            },
            {
              "internalType": "uint256",
              "name": "endDateInvestment",
              "type": "uint256"
            },
            {
              "internalType": "address",
              "name": "originalBuyer",
              "type": "address"
            },
            {
              "internalType": "bool",
              "name": "redeemed",
              "type": "bool"
            },
            {
              "internalType": "bool",
              "name": "rewardClaimed",
              "type": "bool"
            },
            {
              "internalType": "bool",
              "name": "transferLocked",
              "type": "bool"
            },
            {
              "internalType": "string",
              "name": "metadata",
              "type": "string"
            }
          ],
          "internalType": "struct DZNFT.InvestmentData",
          "name": "",
          "type": "tuple"
        }
      ],
      "stateMutability": "view",
      "type": "function"
    },
    {
      "inputs": [
        {
          "internalType": "address",
          "name": "walletAddress",
          "type": "address"
        }
      ],
      "name": "getInvestorRounds",
      "outputs": [
        {
          "internalType": "uint256[]",
          "name": "roundIds",
          "type": "uint256[]"
        }
      ],
      "stateMutability": "view",
      "type": "function"
    },
    {
      "inputs": [
        {
          "internalType": "bytes32",
          "name": "role",
          "type": "bytes32"
        }
      ],
      "name": "getRoleAdmin",
      "outputs": [
        {
          "internalType": "bytes32",
          "name": "",
          "type": "bytes32"
        }
      ],
      "stateMutability": "view",
      "type": "function"
    },
    {
      "inputs": [
        {
          "internalType": "address",
          "name": "user",
          "type": "address"
        },
        {
          "internalType": "uint256",
          "name": "roundId",
          "type": "uint256"
        }
      ],
      "name": "getUserNFTsByRound",
      "outputs": [
        {
          "internalType": "uint256[]",
          "name": "tokenIds",
          "type": "uint256[]"
        }
      ],
      "stateMutability": "view",
      "type": "function"
    },
    {
      "inputs": [
        {
          "internalType": "address",
          "name": "walletAddress",
          "type": "address"
        }
      ],
      "name": "getWalletNFTSummary",
      "outputs": [
        {
          "internalType": "uint256",
          "name": "totalNFTs",
          "type": "uint256"
        },
        {
          "internalType": "uint256",
          "name": "activeInvestments",
          "type": "uint256"
        },
        {
          "internalType": "uint256",
          "name": "redeemedInvestments",
          "type": "uint256"
        },
        {
          "internalType": "uint256",
          "name": "claimedRewards",
          "type": "uint256"
        },
        {
          "internalType": "uint256",
          "name": "totalInvestedValue",
          "type": "uint256"
        },
        {
          "internalType": "uint256",
          "name": "totalExpectedRewards",
          "type": "uint256"
        },
        {
          "internalType": "uint256",
          "name": "claimableAmount",
          "type": "uint256"
        }
      ],
      "stateMutability": "view",
      "type": "function"
    },
    {
      "inputs": [
        {
          "internalType": "address",
          "name": "walletAddress",
          "type": "address"
        },
        {
          "internalType": "uint256",
          "name": "offset",
          "type": "uint256"
        },
        {
          "internalType": "uint256",
          "name": "limit",
          "type": "uint256"
        }
      ],
      "name": "getWalletNFTsPaginated",
      "outputs": [
        {
          "internalType": "uint256[]",
          "name": "tokenIds",
          "type": "uint256[]"
        },
        {
          "components": [
            {
              "internalType": "uint256",
              "name": "tokenId",
              "type": "uint256"
            },
            {
              "internalType": "uint256",
              "name": "roundId",
              "type": "uint256"
            },
            {
              "internalType": "uint256",
              "name": "tokenPrice",
              "type": "uint256"
            },
            {
              "internalType": "uint256",
              "name": "rewardPercentage",
              "type": "uint256"
            },
            {
              "internalType": "uint256",
              "name": "totalTokenOpenInvestment",
              "type": "uint256"
            },
            {
              "internalType": "uint256",
              "name": "purchaseTimestamp",
              "type": "uint256"
            },
            {
              "internalType": "uint256",
              "name": "closeDateInvestment",
              "type": "uint256"
            },
            {
              "internalType": "uint256",
              "name": "endDateInvestment",
              "type": "uint256"
            },
            {
              "internalType": "address",
              "name": "originalBuyer",
              "type": "address"
            },
            {
              "internalType": "bool",
              "name": "redeemed",
              "type": "bool"
            },
            {
              "internalType": "bool",
              "name": "rewardClaimed",
              "type": "bool"
            },
            {
              "internalType": "bool",
              "name": "transferLocked",
              "type": "bool"
            },
            {
              "internalType": "string",
              "name": "metadata",
              "type": "string"
            }
          ],
          "internalType": "struct DZNFT.InvestmentData[]",
          "name": "investmentDetails",
          "type": "tuple[]"
        },
        {
          "internalType": "uint256",
          "name": "totalTokens",
          "type": "uint256"
        },
        {
          "internalType": "uint256",
          "name": "totalPages",
          "type": "uint256"
        },
        {
          "internalType": "uint256",
          "name": "currentPage",
          "type": "uint256"
        },
        {
          "internalType": "bool",
          "name": "hasMore",
          "type": "bool"
        }
      ],
      "stateMutability": "view",
      "type": "function"
    },
    {
      "inputs": [
        {
          "internalType": "address",
          "name": "walletAddress",
          "type": "address"
        }
      ],
      "name": "getWalletTokenIds",
      "outputs": [
        {
          "internalType": "uint256[]",
          "name": "tokenIds",
          "type": "uint256[]"
        }
      ],
      "stateMutability": "view",
      "type": "function"
    },
    {
      "inputs": [
        {
          "internalType": "address",
          "name": "walletAddress",
          "type": "address"
        }
      ],
      "name": "getWalletTokensDetail",
      "outputs": [
        {
          "internalType": "uint256[]",
          "name": "tokenIds",
          "type": "uint256[]"
        },
        {
          "components": [
            {
              "internalType": "uint256",
              "name": "tokenId",
              "type": "uint256"
            },
            {
              "internalType": "uint256",
              "name": "roundId",
              "type": "uint256"
            },
            {
              "internalType": "uint256",
              "name": "tokenPrice",
              "type": "uint256"
            },
            {
              "internalType": "uint256",
              "name": "rewardPercentage",
              "type": "uint256"
            },
            {
              "internalType": "uint256",
              "name": "totalTokenOpenInvestment",
              "type": "uint256"
            },
            {
              "internalType": "uint256",
              "name": "purchaseTimestamp",
              "type": "uint256"
            },
            {
              "internalType": "uint256",
              "name": "closeDateInvestment",
              "type": "uint256"
            },
            {
              "internalType": "uint256",
              "name": "endDateInvestment",
              "type": "uint256"
            },
            {
              "internalType": "address",
              "name": "originalBuyer",
              "type": "address"
            },
            {
              "internalType": "bool",
              "name": "redeemed",
              "type": "bool"
            },
            {
              "internalType": "bool",
              "name": "rewardClaimed",
              "type": "bool"
            },
            {
              "internalType": "bool",
              "name": "transferLocked",
              "type": "bool"
            },
            {
              "internalType": "string",
              "name": "metadata",
              "type": "string"
            }
          ],
          "internalType": "struct DZNFT.InvestmentData[]",
          "name": "nftsDetail",
          "type": "tuple[]"
        }
      ],
      "stateMutability": "view",
      "type": "function"
    },
    {
      "inputs": [
        {
          "internalType": "bytes32",
          "name": "role",
          "type": "bytes32"
        },
        {
          "internalType": "address",
          "name": "account",
          "type": "address"
        }
      ],
      "name": "grantRole",
      "outputs": [],
      "stateMutability": "nonpayable",
      "type": "function"
    },
    {
      "inputs": [
        {
          "internalType": "bytes32",
          "name": "role",
          "type": "bytes32"
        },
        {
          "internalType": "address",
          "name": "account",
          "type": "address"
        }
      ],
      "name": "hasRole",
      "outputs": [
        {
          "internalType": "bool",
          "name": "",
          "type": "bool"
        }
      ],
      "stateMutability": "view",
      "type": "function"
    },
    {
      "inputs": [
        {
          "internalType": "uint256",
          "name": "",
          "type": "uint256"
        }
      ],
      "name": "investmentData",
      "outputs": [
        {
          "internalType": "uint256",
          "name": "tokenId",
          "type": "uint256"
        },
        {
          "internalType": "uint256",
          "name": "roundId",
          "type": "uint256"
        },
        {
          "internalType": "uint256",
          "name": "tokenPrice",
          "type": "uint256"
        },
        {
          "internalType": "uint256",
          "name": "rewardPercentage",
          "type": "uint256"
        },
        {
          "internalType": "uint256",
          "name": "totalTokenOpenInvestment",
          "type": "uint256"
        },
        {
          "internalType": "uint256",
          "name": "purchaseTimestamp",
          "type": "uint256"
        },
        {
          "internalType": "uint256",
          "name": "closeDateInvestment",
          "type": "uint256"
        },
        {
          "internalType": "uint256",
          "name": "endDateInvestment",
          "type": "uint256"
        },
        {
          "internalType": "address",
          "name": "originalBuyer",
          "type": "address"
        },
        {
          "internalType": "bool",
          "name": "redeemed",
          "type": "bool"
        },
        {
          "internalType": "bool",
          "name": "rewardClaimed",
          "type": "bool"
        },
        {
          "internalType": "bool",
          "name": "transferLocked",
          "type": "bool"
        },
        {
          "internalType": "string",
          "name": "metadata",
          "type": "string"
        }
      ],
      "stateMutability": "view",
      "type": "function"
    },
    {
      "inputs": [
        {
          "internalType": "address",
          "name": "owner",
          "type": "address"
        },
        {
          "internalType": "address",
          "name": "operator",
          "type": "address"
        }
      ],
      "name": "isApprovedForAll",
      "outputs": [
        {
          "internalType": "bool",
          "name": "",
          "type": "bool"
        }
      ],
      "stateMutability": "view",
      "type": "function"
    },
    {
      "inputs": [
        {
          "internalType": "address",
          "name": "account",
          "type": "address"
        }
      ],
      "name": "isExecutor",
      "outputs": [
        {
          "internalType": "bool",
          "name": "",
          "type": "bool"
        }
      ],
      "stateMutability": "view",
      "type": "function"
    },
    {
      "inputs": [
        {
          "internalType": "uint256",
          "name": "tokenId",
          "type": "uint256"
        }
      ],
      "name": "isInvestmentMatured",
      "outputs": [
        {
          "internalType": "bool",
          "name": "",
          "type": "bool"
        }
      ],
      "stateMutability": "view",
      "type": "function"
    },
    {
      "inputs": [
        {
          "internalType": "uint256",
          "name": "tokenId",
          "type": "uint256"
        }
      ],
      "name": "isInvestmentOpen",
      "outputs": [
        {
          "internalType": "bool",
          "name": "",
          "type": "bool"
        }
      ],
      "stateMutability": "view",
      "type": "function"
    },
    {
      "inputs": [
        {
          "internalType": "uint256",
          "name": "tokenId",
          "type": "uint256"
        }
      ],
      "name": "isTransferLocked",
      "outputs": [
        {
          "internalType": "bool",
          "name": "",
          "type": "bool"
        }
      ],
      "stateMutability": "view",
      "type": "function"
    },
    {
      "inputs": [
        {
          "internalType": "uint256",
          "name": "tokenId",
          "type": "uint256"
        }
      ],
      "name": "lockTransfer",
      "outputs": [],
      "stateMutability": "nonpayable",
      "type": "function"
    },
    {
      "inputs": [
        {
          "internalType": "uint256",
          "name": "tokenId",
          "type": "uint256"
        }
      ],
      "name": "markAsRedeemed",
      "outputs": [],
      "stateMutability": "nonpayable",
      "type": "function"
    },
    {
      "inputs": [
        {
          "internalType": "uint256",
          "name": "tokenId",
          "type": "uint256"
        }
      ],
      "name": "markRewardClaimed",
      "outputs": [],
      "stateMutability": "nonpayable",
      "type": "function"
    },
    {
      "inputs": [
        {
          "internalType": "address",
          "name": "to",
          "type": "address"
        },
        {
          "internalType": "uint256",
          "name": "roundId",
          "type": "uint256"
        },
        {
          "internalType": "uint256",
          "name": "tokenPrice",
          "type": "uint256"
        },
        {
          "internalType": "uint256",
          "name": "rewardPercentage",
          "type": "uint256"
        },
        {
          "internalType": "uint256",
          "name": "totalTokenOpenInvestment",
          "type": "uint256"
        },
        {
          "internalType": "uint256",
          "name": "closeDateInvestment",
          "type": "uint256"
        },
        {
          "internalType": "uint256",
          "name": "endDateInvestment",
          "type": "uint256"
        }
      ],
      "name": "mintNFT",
      "outputs": [
        {
          "internalType": "uint256",
          "name": "",
          "type": "uint256"
        }
      ],
      "stateMutability": "nonpayable",
      "type": "function"
    },
    {
      "inputs": [],
      "name": "name",
      "outputs": [
        {
          "internalType": "string",
          "name": "",
          "type": "string"
        }
      ],
      "stateMutability": "view",
      "type": "function"
    },
    {
      "inputs": [],
      "name": "owner",
      "outputs": [
        {
          "internalType": "address",
          "name": "",
          "type": "address"
        }
      ],
      "stateMutability": "view",
      "type": "function"
    },
    {
      "inputs": [
        {
          "internalType": "uint256",
          "name": "tokenId",
          "type": "uint256"
        }
      ],
      "name": "ownerOf",
      "outputs": [
        {
          "internalType": "address",
          "name": "",
          "type": "address"
        }
      ],
      "stateMutability": "view",
      "type": "function"
    },
    {
      "inputs": [],
      "name": "pause",
      "outputs": [],
      "stateMutability": "nonpayable",
      "type": "function"
    },
    {
      "inputs": [],
      "name": "paused",
      "outputs": [
        {
          "internalType": "bool",
          "name": "",
          "type": "bool"
        }
      ],
      "stateMutability": "view",
      "type": "function"
    },
    {
      "inputs": [],
      "name": "renounceOwnership",
      "outputs": [],
      "stateMutability": "nonpayable",
      "type": "function"
    },
    {
      "inputs": [
        {
          "internalType": "bytes32",
          "name": "role",
          "type": "bytes32"
        },
        {
          "internalType": "address",
          "name": "callerConfirmation",
          "type": "address"
        }
      ],
      "name": "renounceRole",
      "outputs": [],
      "stateMutability": "nonpayable",
      "type": "function"
    },
    {
      "inputs": [
        {
          "internalType": "bytes32",
          "name": "role",
          "type": "bytes32"
        },
        {
          "internalType": "address",
          "name": "account",
          "type": "address"
        }
      ],
      "name": "revokeRole",
      "outputs": [],
      "stateMutability": "nonpayable",
      "type": "function"
    },
    {
      "inputs": [
        {
          "internalType": "address",
          "name": "from",
          "type": "address"
        },
        {
          "internalType": "address",
          "name": "to",
          "type": "address"
        },
        {
          "internalType": "uint256",
          "name": "tokenId",
          "type": "uint256"
        }
      ],
      "name": "safeTransferFrom",
      "outputs": [],
      "stateMutability": "nonpayable",
      "type": "function"
    },
    {
      "inputs": [
        {
          "internalType": "address",
          "name": "from",
          "type": "address"
        },
        {
          "internalType": "address",
          "name": "to",
          "type": "address"
        },
        {
          "internalType": "uint256",
          "name": "tokenId",
          "type": "uint256"
        },
        {
          "internalType": "bytes",
          "name": "data",
          "type": "bytes"
        }
      ],
      "name": "safeTransferFrom",
      "outputs": [],
      "stateMutability": "nonpayable",
      "type": "function"
    },
    {
      "inputs": [
        {
          "internalType": "address",
          "name": "operator",
          "type": "address"
        },
        {
          "internalType": "bool",
          "name": "approved",
          "type": "bool"
        }
      ],
      "name": "setApprovalForAll",
      "outputs": [],
      "stateMutability": "nonpayable",
      "type": "function"
    },
    {
      "inputs": [
        {
          "internalType": "string",
          "name": "newBaseURI",
          "type": "string"
        }
      ],
      "name": "setBaseURI",
      "outputs": [],
      "stateMutability": "nonpayable",
      "type": "function"
    },
    {
      "inputs": [
        {
          "internalType": "uint256",
          "name": "tokenId",
          "type": "uint256"
        },
        {
          "internalType": "string",
          "name": "newTokenURI",
          "type": "string"
        }
      ],
      "name": "setTokenURI",
      "outputs": [],
      "stateMutability": "nonpayable",
      "type": "function"
    },
    {
      "inputs": [
        {
          "internalType": "uint256",
          "name": "tokenId",
          "type": "uint256"
        },
        {
          "internalType": "string",
          "name": "metadata",
          "type": "string"
        }
      ],
      "name": "stampMetadata",
      "outputs": [],
      "stateMutability": "nonpayable",
      "type": "function"
    },
    {
      "inputs": [
        {
          "internalType": "bytes4",
          "name": "interfaceId",
          "type": "bytes4"
        }
      ],
      "name": "supportsInterface",
      "outputs": [
        {
          "internalType": "bool",
          "name": "",
          "type": "bool"
        }
      ],
      "stateMutability": "view",
      "type": "function"
    },
    {
      "inputs": [],
      "name": "symbol",
      "outputs": [
        {
          "internalType": "string",
          "name": "",
          "type": "string"
        }
      ],
      "stateMutability": "view",
      "type": "function"
    },
    {
      "inputs": [
        {
          "internalType": "uint256",
          "name": "index",
          "type": "uint256"
        }
      ],
      "name": "tokenByIndex",
      "outputs": [
        {
          "internalType": "uint256",
          "name": "",
          "type": "uint256"
        }
      ],
      "stateMutability": "view",
      "type": "function"
    },
    {
      "inputs": [
        {
          "internalType": "uint256",
          "name": "",
          "type": "uint256"
        }
      ],
      "name": "tokenExists",
      "outputs": [
        {
          "internalType": "bool",
          "name": "",
          "type": "bool"
        }
      ],
      "stateMutability": "view",
      "type": "function"
    },
    {
      "inputs": [
        {
          "internalType": "address",
          "name": "owner",
          "type": "address"
        },
        {
          "internalType": "uint256",
          "name": "index",
          "type": "uint256"
        }
      ],
      "name": "tokenOfOwnerByIndex",
      "outputs": [
        {
          "internalType": "uint256",
          "name": "",
          "type": "uint256"
        }
      ],
      "stateMutability": "view",
      "type": "function"
    },
    {
      "inputs": [
        {
          "internalType": "uint256",
          "name": "tokenId",
          "type": "uint256"
        }
      ],
      "name": "tokenURI",
      "outputs": [
        {
          "internalType": "string",
          "name": "",
          "type": "string"
        }
      ],
      "stateMutability": "view",
      "type": "function"
    },
    {
      "inputs": [],
      "name": "totalSupply",
      "outputs": [
        {
          "internalType": "uint256",
          "name": "",
          "type": "uint256"
        }
      ],
      "stateMutability": "view",
      "type": "function"
    },
    {
      "inputs": [
        {
          "internalType": "address",
          "name": "from",
          "type": "address"
        },
        {
          "internalType": "address",
          "name": "to",
          "type": "address"
        },
        {
          "internalType": "uint256",
          "name": "tokenId",
          "type": "uint256"
        }
      ],
      "name": "transferFrom",
      "outputs": [],
      "stateMutability": "nonpayable",
      "type": "function"
    },
    {
      "inputs": [
        {
          "internalType": "address",
          "name": "newOwner",
          "type": "address"
        }
      ],
      "name": "transferOwner",
      "outputs": [],
      "stateMutability": "nonpayable",
      "type": "function"
    },
    {
      "inputs": [
        {
          "internalType": "address",
          "name": "newOwner",
          "type": "address"
        }
      ],
      "name": "transferOwnership",
      "outputs": [],
      "stateMutability": "nonpayable",
      "type": "function"
    },
    {
      "inputs": [
        {
          "internalType": "uint256",
          "name": "tokenId",
          "type": "uint256"
        }
      ],
      "name": "unlockTransfer",
      "outputs": [],
      "stateMutability": "nonpayable",
      "type": "function"
    },
    {
      "inputs": [],
      "name": "unpause",
      "outputs": [],
      "stateMutability": "nonpayable",
      "type": "function"
    },
    {
      "inputs": [
        {
          "internalType": "address",
          "name": "account",
          "type": "address"
        },
        {
          "internalType": "bool",
          "name": "grant",
          "type": "bool"
        }
      ],
      "name": "updateExecutorRole",
      "outputs": [],
      "stateMutability": "nonpayable",
      "type": "function"
    }
  ],
  "bytecode": "0x60806040523461039757604080519081016001600160401b038111828210176102cc5760409081526011825270111688125b9d995cdd1b595b9d08139195607a1b602083015280519081016001600160401b038111828210176102cc576040526005815264111693919560da1b602082015281516001600160401b0381116102cc5761008b5f5461039b565b601f811161034a575b50602092601f82116001146102eb57928192935f926102e0575b50508160011b915f199060031b1c1916175f555b80516001600160401b0381116102cc576100dd60015461039b565b601f8111610273575b50602091601f8211600114610213579181925f92610208575b50508160011b915f199060031b1c1916176001555b33156101f557600a8054336001600160a01b0319821681179092556001600160a01b03167f8be0079c531659141344cd1fd0a4f28419497f9722a3daafe3b4186f6b6457e05f80a3610165336103e9565b5061016f3361045f565b5061017b600e5461039b565b601f81116101b7575b7f68747470733a2f2f6170692e647a6e66742e636f6d2f6d657461646174612f3e600e55604051614a8090816104f38239f35b600e5f526101ef90601f0160051c7fbb7b4a454dc3493923482f07822329ed19e8244eff582cc204f8554c3620c3fd908101906103d3565b5f610184565b631e4fbdf760e01b5f525f60045260245ffd5b015190505f806100ff565b601f1982169260015f52805f20915f5b85811061025b57508360019510610243575b505050811b01600155610114565b01515f1960f88460031b161c191690555f8080610235565b91926020600181928685015181550194019201610223565b60015f526102bc907fb10e2d527612073b26eecdfd717e6a320cf44b4afac2b0732d9fcbe2b7fa0cf6601f840160051c810191602085106102c2575b601f0160051c01906103d3565b5f6100e6565b90915081906102af565b634e487b7160e01b5f52604160045260245ffd5b015190505f806100ae565b601f198216935f8052805f20915f5b868110610332575083600195961061031a575b505050811b015f556100c2565b01515f1960f88460031b161c191690555f808061030d565b919260206001819286850151815501940192016102fa565b5f8052610391907f290decd9548b62a8d60345a988386fc84ba6bc95484008f6362f93160ef3e563601f840160051c810191602085106102c257601f0160051c01906103d3565b5f610094565b5f80fd5b90600182811c921680156103c9575b60208310146103b557565b634e487b7160e01b5f52602260045260245ffd5b91607f16916103aa565b8181106103de575050565b5f81556001016103d3565b6001600160a01b0381165f9081525f516020614f935f395f51905f52602052604090205460ff1661045a576001600160a01b03165f8181525f516020614f935f395f51905f5260205260408120805460ff191660011790553391905f516020614f735f395f51905f528180a4600190565b505f90565b6001600160a01b0381165f9081525f516020614fb35f395f51905f52602052604090205460ff1661045a576001600160a01b03165f8181525f516020614fb35f395f51905f5260205260408120805460ff191660011790553391907fd8aa0f3194971a2a116679f7c2090f6939c8d4e01a2a8d7e41d55e5351469e63905f516020614f735f395f51905f529080a460019056fe610120806040526004361015610013575f80fd5b5f3560e01c908162923f9e1461282c5750806301ffc9a71461278b57806306fdde03146126e957806307bd0265146126c2578063081812fc146126a4578063095ea7b3146125ba578063141f878a14612511578063162094c4146123b957806318160ddd1461239c57806318d8e2a51461229457806319f477d91461221d5780631d3653e31461210257806323b872dd146120eb578063248a9ca3146120cd578063293af81a14611fd15780632f2ff15d14611fa05780632f745c5914611f795780633090134714611f55578063364b610114611f0d57806336568abe14611ec95780633f4ba83a14611e6357806342842e0e14611e3457806342966c6814611c9f578063471769ef14611c2d5780634f6ccce714611bdf5780634fb2e45d14611bbe5780635447be0b14611b8b57806355f804b314611a1e5780635a0ea3d4146118e95780635a7f04d5146117c15780635c8f45b11461168c5780635c975abb1461166a5780636352211e1461163a5780636c0360eb1461161f57806370a08231146115f4578063715018a6146115ac578063785b5e98146113b15780638456cb59146113585780638da5cb5b146113305780638e25e2e61461123357806391d14854146111ea57806395d89b41146111205780639913627f146110d3578063a217fddf146110b9578063a22cb46514611031578063acb7ebfa14610f5c578063b88d4fde14610ec8578063badd5c4d14610e42578063bed62f3514610d62578063bf725a3c1461099b578063c2bf0fa114610953578063c87b56dd1461091c578063ccdbc50e146108cc578063d547741f14610896578063d9852f8d14610808578063debfda30146107ba578063e01beb9d14610677578063e985e9c514610620578063f2fde38b146105d25763f4fb8159146102b0575f80fd5b346105ce5760e03660031901126105ce576102c961287b565b335f9081525f51602061496b5f395f51905f5260205260409020546084359160a4359160c435906102fc9060ff16612eae565b6103046144c4565b6103186001600160a01b03831615156138db565b6103256044351515613923565b6064351515806105c0575b6103399061396e565b6103448415156139b6565b61034f428411613a0e565b61035a838211613a59565b600d54926103678461339d565b600d5560405194610377866128a7565b84865260243560208701526044356040870152606435606087015260808601524260a086015260c085015260e084015260018060a01b0381166101008401525f6101208401525f6101408401525f6101608401526020926040516103db85826128c3565b5f8152610180820152825f5260108452610180600960405f20835181556020840151600182015560408401516002820155606084015160038201556080840151600482015560a0840151600582015560c0840151600682015560e084015160078201556104996008820160018060a01b0360018060a01b03610100880151161660018060a01b031982541617815561047a610120870151151582612f30565b61048b610140870151151582612ef6565b610160860151151590612f13565b0191015180519060018060401b0382116105ac576104c1826104bb8554612b55565b85612e3d565b8590601f8311600114610549576104e292915f918361053e575b5050612e75565b90555b815f526011835260405f20600160ff1982541617905561050582826144df565b60408051604435815260643585820152602435926001600160a01b03169184915f51602061494b5f395f51905f529190a4604051908152f35b015190505f806104db565b90601f19831691845f52875f20925f5b8982821061059657505090846001959493921061057e575b505050811b0190556104e5565b01515f1960f88460031b161c191690555f8080610571565b6001859682939686015181550195019301610559565b634e487b7160e01b5f52604160045260245ffd5b506127106064351115610330565b5f80fd5b346105ce5760203660031901126105ce576105eb61287b565b6105f3614332565b6001600160a01b0381161561060d5761060b90614359565b005b631e4fbdf760e01b5f525f60045260245ffd5b346105ce5760403660031901126105ce5761063961287b565b610641612891565b9060018060a01b03165f52600560205260405f209060018060a01b03165f52602052602060ff60405f2054166040519015158152f35b346105ce5761068536612a86565b335f9081525f51602061496b5f395f51905f5260205260409020549192916106af9060ff16612eae565b815f5260116020526106c760ff60405f205416612de4565b5f828152601060205260409020600901926001600160401b0382116105ac576106fa826106f48654612b55565b86612e3d565b5f93601f831160011461074b5761072983805f51602061498b5f395f51905f5296975f91610740575b50612e75565b90555b61073b60405192839283612e87565b0390a2005b905084013588610723565b601f19831694815f5260205f20905f5b8781106107a25750845f51602061498b5f395f51905f52969710610789575b5050600183811b01905561072c565b8301355f19600386901b60f8161c19169055858061077a565b9091602060018192858801358155019301910161075b565b346105ce5760203660031901126105ce576107d361287b565b6001600160a01b03165f9081525f51602061496b5f395f51905f52602090815260409182902054915160ff9092161515825290f35b346105ce5760203660031901126105ce57335f9081525f51602061496b5f395f51905f526020526040902054600435906108449060ff16612eae565b805f52601160205261085c60ff60405f205416612de4565b805f526010602052600860405f2001600160b01b60ff60b01b198254161790555f51602061492b5f395f51905f52602060405160018152a2005b346105ce5760403660031901126105ce5761060b6004356108b5612891565b906108c76108c2826132c6565b614033565b6142c1565b346105ce5760203660031901126105ce5760e06108ef6108ea61287b565b613b5d565b94604094919493929351968752602087015260408601526060850152608084015260a083015260c0820152f35b346105ce5760203660031901126105ce5761094f61093b600435613aaf565b604051918291602083526020830190612857565b0390f35b346105ce5760203660031901126105ce57600435805f52601160205261097f60ff60405f205416612de4565b5f5260106020526020600660405f200154421115604051908152f35b346105ce576101003660031901126105ce576109b561287b565b602435608052335f9081525f51602061496b5f395f51905f5260205260409020546109e29060ff16612eae565b6109ea6144c4565b6109fe6001600160a01b03821615156138db565b608051151580610d55575b15610d1957610a1b6064351515613923565b610a28608435151561396e565b610a3560a43515156139b6565b610a424260c43511613a0e565b610a5160c43560e43511613a59565b610a5c60805161336b565b60e052602060c0525f905b6080518210610a895760405160c05181528061094f60c051820160e051612af3565b600d5491610a968361339d565b600d55828160e05190610aa891612dbc565b5282604051610ab6816128a7565b81815260c05181016101005260443561010051526040810190606435825260608101916084358352608082019260a435845260a0830142815260c0840160c435815260e085019160e4358352610100860196600160a01b600190038b1688526101208701945f86526101408801965f88526101608901985f8a526040519b8c60c051610b41916128c3565b5f808e5261018083019d8e5290815260c051601090526040902060a081905290518155610100515160018201559051600282015590516003820155905160048201559051600582015590516006820155905160078201559351600890940180546001600160a01b0319166001600160a01b039590951694909417845551610bca90151584612f30565b511515610bd79083612ef6565b511515610be391612f13565b51805193906001600160401b0385116105ac57610c1485610c09600960a0510154612b55565b600960a05101612e3d565b60c05190601f8611600114610ca4579480610c3a92600196975f92610c99575050612e75565b600960a05101555b805f52601160c0515260405f208360ff19825416179055610c6381856144df565b604051606435815260843560c051820152604435915f51602061494b5f395f51905f526040868060a01b03881693a40190610a67565b0151905087806104db565b90600960a051015f5260c0515f20915f5b601f1988168110610d00575091869160019697938794601f19811610610ce8575b505050811b01600960a0510155610c42565b01515f1960f88460031b161c19169055868080610cd6565b81830151845560c0516001909401939283019201610cb5565b60405162461bcd60e51b8152602060048201526014602482015273496e76616c696420636f756e742028312d38302960601b6044820152606490fd5b5060326080511115610a09565b346105ce5760203660031901126105ce57335f9081525f51602061496b5f395f51905f52602052604090205460043590610d9e9060ff16612eae565b805f526011602052610db660ff60405f205416612de4565b805f52601060205260ff600860405f20015460a01c1615610e0457805f526010602052600860405f200160ff60b01b1981541690555f51602061492b5f395f51905f5260206040515f8152a2005b60405162461bcd60e51b8152602060048201526016602482015275135d5cdd081899481c995919595b595908199a5c9cdd60521b6044820152606490fd5b346105ce5760207f9440a95c3c13d1dc9ebcfdcf7b9963a680dd7ca9d62246a91a9be07e6de1f86f610e7336612b26565b9290610e7d614332565b8315610eae57610e8e6108c261328c565b610e978161406d565b505b60405193151584526001600160a01b031692a2005b610eb96108c261328c565b610ec281614243565b50610e99565b346105ce5760803660031901126105ce57610ee161287b565b610ee9612891565b6064359190604435906001600160401b0384116105ce57366023850112156105ce57836004013592610f1a84612ccf565b93610f2860405195866128c3565b80855236602482880101116105ce576020815f92602461060b99018389013786010152610f56838383612f5a565b3361438e565b346105ce5760203660031901126105ce576004355f52601060205260405f20805461094f60018301549260ff600282015491600381015460048201546005830154600684015491600785015493610fba600960088801549701612c31565b976040519b8c9b8c5260208c015260408b015260608a0152608089015260a088015260c087015260e086015260018060a01b038116610100860152818160a01c161515610120860152818160a81c16151561014086015260b01c1615156101608401526101a06101808401526101a0830190612857565b346105ce5761103f36612b26565b6001600160a01b039091169081156110a657335f52600560205260405f20825f5260205260405f209015159060ff1981541660ff83161790556040519081527f17307eab39ab6107e8899845ad3d59bd9653f200f220920489ca2b5937696c3160203392a3005b50630b61174360e31b5f5260045260245ffd5b346105ce575f3660031901126105ce5760206040515f8152f35b346105ce5760203660031901126105ce57600435805f5260116020526110ff60ff60405f205416612de4565b5f526010602052602060ff600860405f20015460b01c166040519015158152f35b346105ce575f3660031901126105ce576040515f60015461114081612b55565b80845290600181169081156111c65750600114611168575b61094f8361093b818503826128c3565b60015f9081527fb10e2d527612073b26eecdfd717e6a320cf44b4afac2b0732d9fcbe2b7fa0cf6939250905b8082106111ac5750909150810160200161093b611158565b919260018160209254838588010152019101909291611194565b60ff191660208086019190915291151560051b8401909101915061093b9050611158565b346105ce5760403660031901126105ce57611203612891565b6004355f52600b60205260405f209060018060a01b03165f52602052602060ff60405f2054166040519015158152f35b346105ce5760203660031901126105ce5760043561124f612d0e565b50805f52601160205261126860ff60405f205416612de4565b5f52601060205261094f60405f20611316600960405192611288846128a7565b8054845260018101546020850152600281015460408501526003810154606085015260048101546080850152600581015460a0850152600681015460c0850152600781015460e085015260ff600882015460018060a01b038116610100870152818160a01c161515610120870152818160a81c16151561014087015260b01c16151561016085015201612c31565b61018082015260405191829160208352602083019061295a565b346105ce575f3660031901126105ce57600a546040516001600160a01b039091168152602090f35b346105ce575f3660031901126105ce57611370614332565b6113786144c4565b600160ff19600c541617600c557f62e78cea01bee320cd4e420270b5ea74000d11b0c9f74754ebdbfc544b05a2586020604051338152a1005b346105ce5760203660031901126105ce576113e66113cd61287b565b6113e16001600160a01b0382161515613326565b61416b565b5f5f82511561156f575f915b8351831015611560576114058385612dbc565b515f52601160205261141d60ff60405f205416612de4565b6114278385612dbc565b515f52601060205260405f2060405190611440826128a7565b8054825260018101546020830152600281015490604083019182526003810154926060810193845260048201546080820152600582015460a0820152600682015460c0820152600782015460e082015260088201549060018060a01b0382166101008201526101806114e2600961012084019560ff8660a01c161515875260ff610140860196818160a81c161515885260b01c16151561016086015201612c31565b9101525190519015159015611518575091606461150861150f9360019551905190613518565b0490612f4d565b925b01916113f2565b156115425791606461153361153c9360019551905190613518565b04831c90612f4d565b92611511565b92606461150861155a93600195979651905190613518565b91611511565b60409182519182526020820152f35b60405162461bcd60e51b8152602060048201526015602482015274139bc81d1bdad95b8812511cc81c1c9bdd9a591959605a1b6044820152606490fd5b346105ce575f3660031901126105ce576115c4614332565b600a80546001600160a01b031981169091555f906001600160a01b03165f5160206149ab5f395f51905f528280a3005b346105ce5760203660031901126105ce57602061161761161261287b565b6138aa565b604051908152f35b346105ce575f3660031901126105ce5761094f61093b612b8d565b346105ce5760203660031901126105ce576020611658600435613da7565b6040516001600160a01b039091168152f35b346105ce575f3660031901126105ce57602060ff600c54166040519015158152f35b346105ce5760203660031901126105ce576116a86113cd61287b565b6116b28151612d6d565b905f5b815181101561179757806116cb60019284612dbc565b515f52601060205260405f206117756009604051926116e9846128a7565b80548452858101546020850152600281015460408501526003810154606085015260048101546080850152600581015460a0850152600681015460c0850152600781015460e085015260ff6008820154878060a01b038116610100870152818160a01c161515610120870152818160a81c16151561014087015260b01c16151561016085015201612c31565b6101808201526117858286612dbc565b526117908185612dbc565b50016116b5565b5061094f6117b392604051938493604085526040850190612af3565b908382036020850152612a01565b346105ce5760203660031901126105ce57600435805f5260116020526117ed60ff60405f205416612de4565b5f52601060205260405f20604051611804816128a7565b815481526001820154602082015260028201546040820152600382015460608201526004820154608082015260058201549060a08101918252600683015460c0820152600783015460e08201526101806118a0600960088601549560018060a01b03871661010086015260ff610120860197818160a01c1615158952818160a81c16151561014088015260b01c16151561016086015201612c31565b91015251906301e1338082018092116118d55760209142101590816118cb575b506040519015158152f35b90505115826118c0565b634e487b7160e01b5f52601160045260245ffd5b346105ce5760403660031901126105ce5761190261287b565b602435906001600160a01b038116156119e25761191e816138aa565b6119278161336b565b925f925f5b83811061197d57858561193e8161336b565b915f5b82811061195e576040516020808252819061094f90820187612af3565b8061196b60019284612dbc565b516119768287612dbc565b5201611941565b61198781836132d8565b805f52601160205260ff60405f205416806119ca575b6119ab575b5060010161192c565b856119c3916119bd600194988a612dbc565b5261339d565b94906119a2565b50805f52601060205283600160405f2001541461199d565b60405162461bcd60e51b8152602060048201526014602482015273496e76616c69642075736572206164647265737360601b6044820152606490fd5b346105ce5760203660031901126105ce576004356001600160401b0381116105ce57611a4e903690600401612a59565b611a56614332565b6001600160401b0381116105ac57611a6f600e54612b55565b601f8111611b45575b505f91601f8211600114611ac957611aa682805f516020614a2b5f395f51905f52955f91611abe5750612e75565b600e555b611ab960405192839283612e87565b0390a1005b905083013586610723565b600e5f9081525f51602061490b5f395f51905f5290601f198416905b818110611b2d575093835f516020614a2b5f395f51905f529510611b14575b5050600182811b01600e55611aaa565b8201355f19600385901b60f8161c191690558380611b04565b83860135835560209586019560019093019201611ae5565b600e5f52611b7b905f51602061490b5f395f51905f52601f840160051c81019160208510611b81575b601f0160051c0190612e27565b82611a78565b9091508190611b6e565b346105ce5760203660031901126105ce5761094f611baa6113cd61287b565b604051918291602083526020830190612af3565b346105ce5760203660031901126105ce57611bd761287b565b6105eb614332565b346105ce5760203660031901126105ce57600435600854811015611c1757611c08602091613892565b90549060031b1c604051908152f35b63295f44f760e21b5f525f60045260245260445ffd5b346105ce5760603660031901126105ce57611c76611c84611c5c611c4f61287b565b60443590602435906135a4565b93604096919395965197889760c0895260c0890190612af3565b908782036020890152612a01565b93604086015260608501526080840152151560a08301520390f35b346105ce5760203660031901126105ce57600435805f526011602052611ccb60ff60405f205416612de4565b611cd481613da7565b6001600160a01b031633148015611e1a575b8015611de6575b15611da857611cfb81613da7565b815f52601160205260405f2060ff198154169055815f526010602052611d59600960405f205f81555f60018201555f60028201555f60038201555f60048201555f60058201555f60068201555f60078201555f60088201550161352b565b815f52600f602052611d6d60405f2061352b565b611d773383613ddb565b506001600160a01b0316907f8f0a80450bfbfadc6d05658c9dc494e43beb79be53b44adbb146c6d5040f87705f80a3005b60405162461bcd60e51b8152602060048201526016602482015275139bdd081bdddb995c881b9bdc88185c1c1c9bdd995960521b6044820152606490fd5b506001600160a01b03611df882613da7565b165f90815260056020908152604080832033845290915290205460ff16611ced565b50336001600160a01b03611e2d83612cea565b1614611ce6565b346105ce5761060b611e4536612ab9565b9060405192611e556020856128c3565b5f8452610f56838383612f5a565b346105ce575f3660031901126105ce57611e7b614332565b600c5460ff811615611eba5760ff1916600c557f5db9ee0a495bf2e6ff9c91a7834c1ba4fdd244a5e8aa4e537bd38aeae4b073aa6020604051338152a1005b638dfc202b60e01b5f5260045ffd5b346105ce5760403660031901126105ce57611ee2612891565b336001600160a01b03821603611efe5761060b906004356142c1565b63334bd91960e11b5f5260045ffd5b346105ce5760203660031901126105ce57600435805f526011602052611f3960ff60405f205416612de4565b5f5260106020526020600760405f200154421015604051908152f35b346105ce5760203660031901126105ce5761094f611baa611f7461287b565b6133ab565b346105ce5760403660031901126105ce576020611617611f9761287b565b602435906132d8565b346105ce5760403660031901126105ce5761060b600435611fbf612891565b90611fcc6108c2826132c6565b6140f2565b346105ce5760403660031901126105ce576004356001600160401b0381116105ce576120019036906004016128fd565b612009612891565b9080519161202f612019846128e6565b9361202760405195866128c3565b8085526128e6565b602084019290601f19013684376001600160a01b03909116905f5b815181101561208557600190836001600160a01b0361207261206c8487612dbc565b51613da7565b161461207e8288612dbc565b520161204a565b50505090604051918291602083019060208452518091526040830191905f5b8181106120b2575050500390f35b825115158452859450602093840193909201916001016120a4565b346105ce5760203660031901126105ce5760206116176004356132c6565b346105ce5761060b6120fc36612ab9565b91612f5a565b346105ce5760203660031901126105ce57600435805f52601160205261212e60ff60405f205416612de4565b5f52601060205260405f20604051612145816128a7565b8154815260018201546020820152600282015460408201526003820154606082015260048201546080820152600582015460a08201908152600683015460c0830152600783015460e083015260088301549160018060a01b0383166101008201526101806121e3600961012084019660ff8760a01c161515885260ff610140860197818160a81c161515895260b01c16151561016086015201612c31565b910152519162ed4e0083018093116118d5576020924210159182612213575b50816118cb57506040519015158152f35b5115915083612202565b346105ce5760203660031901126105ce57335f9081525f51602061496b5f395f51905f526020526040902054600435906122599060ff16612eae565b805f52601160205261227160ff60405f205416612de4565b5f908152601060205260409020600801805460ff60a01b1916600160a01b179055005b346105ce5760203660031901126105ce57335f9081525f51602061496b5f395f51905f526020526040902054600435906122d09060ff16612eae565b805f5260116020526122e860ff60405f205416612de4565b805f52601060205260ff600860405f20015460a81c1661235e575f818152601060205260409020600801805461ffff60a81b191661010160a81b1790556001600160a01b0361233682613da7565b16907f5dd59f4285b36241394b73f8f7ae03d0290b030a86803cf2562ecf33eeb617bd5f80a3005b60405162461bcd60e51b815260206004820152601660248201527514995dd85c9908185b1c9958591e4818db185a5b595960521b6044820152606490fd5b346105ce575f3660031901126105ce576020600854604051908152f35b346105ce576123c736612a86565b600a549192916001600160a01b0316331480156124ed575b156124a957815f5260116020526123fc60ff60405f205416612de4565b5f828152600f60205260409020926001600160401b0382116105ac57612426826106f48654612b55565b5f93601f83116001146124545761072983805f5160206148eb5f395f51905f5296975f916107405750612e75565b601f19831694815f5260205f20905f5b8781106124915750845f5160206148eb5f395f51905f52969710610789575050600183811b01905561072c565b90916020600181928588013581550193019101612464565b606460405162461bcd60e51b815260206004820152602060248201527f43616c6c6572206973206e6f74206f776e6572206e6f72206578656375746f726044820152fd5b50335f9081525f51602061496b5f395f51905f52602052604090205460ff166123df565b346105ce5760203660031901126105ce576004356001600160401b0381116105ce576125419036906004016128fd565b61254b8151612d6d565b905f5b81518110156125a4578061256460019284612dbc565b515f52601060205260405f206125826009604051926116e9846128a7565b6101808201526125928286612dbc565b5261259d8185612dbc565b500161254e565b6040516020808252819061094f90820186612a01565b346105ce5760403660031901126105ce576125d361287b565b6024356125df81613da7565b33151580612691575b80612664575b6126515781906001600160a01b0384811691167f8c5be1e5ebec7d5bd14f71427d1e84f3dd0314c0f7b2291e5b200ac8c7c3b9255f80a45f90815260046020526040902080546001600160a01b0319166001600160a01b03909216919091179055005b63a9fbf51f60e01b5f523360045260245ffd5b506001600160a01b0381165f90815260056020908152604080832033845290915290205460ff16156125ee565b506001600160a01b0381163314156125e8565b346105ce5760203660031901126105ce576020611658600435612cea565b346105ce575f3660031901126105ce5760206040515f516020614a0b5f395f51905f528152f35b346105ce575f3660031901126105ce576040515f5f5461270881612b55565b80845290600181169081156111c6575060011461272f5761094f8361093b818503826128c3565b5f8080527f290decd9548b62a8d60345a988386fc84ba6bc95484008f6362f93160ef3e563939250905b8082106127715750909150810160200161093b611158565b919260018160209254838588010152019101909291612759565b346105ce5760203660031901126105ce5760043563ffffffff60e01b81168091036105ce57602090637965db0b60e01b81149081156127cf57506040519015158152f35b63780e9d6360e01b8114915081156127e9575b50826118c0565b6380ac58cd60e01b81149150811561281b575b811561280a575b50826127e2565b6301ffc9a760e01b14905082612803565b635b5e139f60e01b811491506127fc565b346105ce5760203660031901126105ce576020906004355f526011825260ff60405f20541615158152f35b805180835260209291819084018484015e5f828201840152601f01601f1916010190565b600435906001600160a01b03821682036105ce57565b602435906001600160a01b03821682036105ce57565b6101a081019081106001600160401b038211176105ac57604052565b601f909101601f19168101906001600160401b038211908210176105ac57604052565b6001600160401b0381116105ac5760051b60200190565b9080601f830112156105ce578135612914816128e6565b9261292260405194856128c3565b81845260208085019260051b8201019283116105ce57602001905b82821061294a5750505090565b813581526020918201910161293d565b906101a06101806129fe93805184526020810151602085015260408101516040850152606081015160608501526080810151608085015260a081015160a085015260c081015160c085015260e081015160e085015260018060a01b0361010082015116610100850152610120810151151561012085015261014081015115156101408501526101608101511515610160850152015191816101808201520190612857565b90565b9080602083519182815201916020808360051b8301019401925f915b838310612a2c57505050505090565b9091929394602080612a4a600193601f19868203018752895161295a565b97019301930191939290612a1d565b9181601f840112156105ce578235916001600160401b0383116105ce57602083818601950101116105ce57565b9060406003198301126105ce5760043591602435906001600160401b0382116105ce57612ab591600401612a59565b9091565b60609060031901126105ce576004356001600160a01b03811681036105ce57906024356001600160a01b03811681036105ce579060443590565b90602080835192838152019201905f5b818110612b105750505090565b8251845260209384019390920191600101612b03565b60409060031901126105ce576004356001600160a01b03811681036105ce579060243580151581036105ce5790565b90600182811c92168015612b83575b6020831014612b6f57565b634e487b7160e01b5f52602260045260245ffd5b91607f1691612b64565b604051905f82600e5491612ba083612b55565b8083529260018116908115612c125750600114612bc6575b612bc4925003836128c3565b565b50600e5f90815290915f51602061490b5f395f51905f525b818310612bf6575050906020612bc492820101612bb8565b6020919350806001915483858901015201910190918492612bde565b60209250612bc494915060ff191682840152151560051b820101612bb8565b9060405191825f825492612c4484612b55565b8084529360018116908115612cad5750600114612c69575b50612bc4925003836128c3565b90505f9291925260205f20905f915b818310612c91575050906020612bc4928201015f612c5c565b6020919350806001915483858901015201910190918492612c78565b905060209250612bc494915060ff191682840152151560051b8201015f612c5c565b6001600160401b0381116105ac57601f01601f191660200190565b612cf381613da7565b505f908152600460205260409020546001600160a01b031690565b60405190612d1b826128a7565b6060610180835f81525f60208201525f60408201525f838201525f60808201525f60a08201525f60c08201525f60e08201525f6101008201525f6101208201525f6101408201525f6101608201520152565b90612d77826128e6565b612d8460405191826128c3565b8281528092612d95601f19916128e6565b01905f5b828110612da557505050565b602090612db0612d0e565b82828501015201612d99565b8051821015612dd05760209160051b010190565b634e487b7160e01b5f52603260045260245ffd5b15612deb57565b60405162461bcd60e51b8152602060048201526014602482015273151bdad95b88191bd95cc81b9bdd08195e1a5cdd60621b6044820152606490fd5b818110612e32575050565b5f8155600101612e27565b9190601f8111612e4c57505050565b612bc4925f5260205f20906020601f840160051c83019310611b8157601f0160051c0190612e27565b8160011b915f199060031b1c19161790565b90918060409360208452816020850152848401375f828201840152601f01601f1916010190565b15612eb557565b60405162461bcd60e51b815260206004820152601960248201527821b0b63632b91034b9903737ba1030b71032bc32b1baba37b960391b6044820152606490fd5b805460ff60a81b191691151560a81b60ff60a81b16919091179055565b805460ff60b01b191691151560b01b60ff60b01b16919091179055565b805460ff60a01b191691151560a01b60ff60a01b16919091179055565b919082018092116118d557565b9091906001600160a01b03831680156132795760ff600c54166132365733151593846131de575b5f848152600260205260409020546001600160a01b0316948061314e575b508415801561312d575b825f52600360205260405f2060018154019055845f52600260205260405f208360018060a01b03198254161790558483875f5160206149cb5f395f51905f525f80a4156130b057600854845f5260096020528060405f2055600160401b8110156105ac57846130218260016130399401600855613892565b90919082549060031b91821b915f19901b1916179055565b818503613070575b50506001600160a01b031680830361305857505050565b6364283d7b60e01b5f5260045260245260445260645ffd5b613079906138aa565b5f198101919082116118d5575f52600660205260405f20815f526020528260405f2055825f52600760205260405f20555f80613041565b848214613039576130c0856138aa565b845f52600760205260405f205490865f52600660205260405f2091818103613102575b50855f5260076020525f60408120555f526020525f6040812055613039565b815f528260205260405f2054815f52836020528060405f20555f52600760205260405f20555f6130e3565b613136856148ad565b855f52600360205260405f205f198154019055612fa9565b8061318d575b1561315f575f612f9f565b838561317757637e27328960e01b5f5260045260245ffd5b63177e802f60e01b5f523360045260245260445ffd5b5033851480156131bc575b8061315457505f848152600460205260409020546001600160a01b03163314613154565b505f85815260056020908152604080832033845290915290205460ff16613198565b835f52601060205260ff600860405f20015460b01c1615612f815760405162461bcd60e51b8152602060048201526015602482015274151bdad95b881d1c985b9cd9995c881b1bd8dad959605a1b6044820152606490fd5b60405162461bcd60e51b815260206004820152601b60248201527a151bdad95b881d1c985b9cd9995c881dda1a5b19481c185d5cd959602a1b6044820152606490fd5b633250574960e11b5f525f60045260245ffd5b5f516020614a0b5f395f51905f525f52600b6020527f722c076037ad8ffdcc6741eab5f84938edc5ad0e2aada3e8603ecd986134c0fc5490565b5f52600b602052600160405f20015490565b6132e1816138aa565b8210156133095760018060a01b03165f52600660205260405f20905f5260205260405f205490565b63295f44f760e21b5f5260018060a01b031660045260245260445ffd5b1561332d57565b60405162461bcd60e51b8152602060048201526016602482015275496e76616c69642077616c6c6574206164647265737360501b6044820152606490fd5b90613375826128e6565b61338260405191826128c3565b8281528092613393601f19916128e6565b0190602036910137565b5f1981146118d55760010190565b6133c3906113e16001600160a01b0382161515613326565b908151156134fe576133d5825161336b565b5f5b835181101561340d57806133ed60019286612dbc565b515f5260106020528160405f2001546134068285612dbc565b52016133d7565b509091505f5f5b82518110156134775760015f5b82811061344b575b50613437575b600101613414565b9061344360019161339d565b91905061342f565b6134558386612dbc565b516134608287612dbc565b511461346e57600101613421565b50505f5f613429565b506134819061336b565b5f5f5b83518110156134f75760015f5b8281106134cb575b506134a7575b600101613484565b906134c36001916134b88487612dbc565b516119bd8287612dbc565b91905061349f565b6134d58387612dbc565b516134e08288612dbc565b51146134ee57600101613491565b50505f5f613499565b5050905090565b905060405161350e6020826128c3565b5f81525f36813790565b818102929181159184041417156118d557565b6135358154612b55565b908161353f575050565b81601f5f9311600114613550575055565b8183526020832061356c91601f0160051c810190600101612e27565b8082528160208120915555565b919082039182116118d557565b8115613590570490565b634e487b7160e01b5f52601260045260245ffd5b9092906135bb6001600160a01b0382161515613326565b82151580613887575b15613842576135d29061416b565b91825192838510801561383a575b156137f7578315801593906137f0576135f98386612f4d565b5f1981019081116118d5578361360e91613586565b915b82945f146137e9576136228488613586565b600181018091116118d557925b83948888115f146137e3576136448989613579565b818111156137db5750905b8761365a838b612f4d565b1094821561377c57505061366d8161336b565b9161367782612d6d565b985f5b83811061368d5750505050959493929190565b806136a361369d60019385612f4d565b85612dbc565b51806136af8389612dbc565b525f5260106020528b61376a8260405f209261375f6009604051956136d3876128a7565b80548752888101546020880152600281015460408801526003810154606088015260048101546080880152600581015460a0880152600681015460c0880152600781015460e088015260ff60088201548a8060a01b0381166101008a0152818160a01c1615156101208a0152818160a81c1615156101408a015260b01c16151561016088015201612c31565b610180850152612dbc565b52613775818d612dbc565b500161367a565b955095505050945060209460405161379487826128c3565b5f81525f368137604051966137a981896128c3565b5f8852601f1981015f5b8181106137c557505050959493929190565b82906137cf612d0e565b82828d010152016137b3565b90509061364f565b5f613644565b5f9261362f565b5f91613610565b60405162461bcd60e51b815260206004820152601b60248201527a4f6666736574206578636565647320746f74616c20746f6b656e7360281b6044820152606490fd5b5083156135e0565b60405162461bcd60e51b815260206004820152601f60248201527f4c696d6974206d757374206265206265747765656e203120616e6420313030006044820152606490fd5b5060648311156135c4565b600854811015612dd05760085f5260205f2001905f90565b6001600160a01b031680156138c8575f52600360205260405f205490565b6322718ad960e21b5f525f60045260245ffd5b156138e257565b60405162461bcd60e51b8152602060048201526019602482015278496e76616c696420726563697069656e74206164647265737360381b6044820152606490fd5b1561392a57565b60405162461bcd60e51b815260206004820152601c60248201527b05072696365206d7573742062652067726561746572207468616e20360241b6044820152606490fd5b1561397557565b60405162461bcd60e51b8152602060048201526019602482015278496e76616c6964207265776172642070657263656e7461676560381b6044820152606490fd5b156139bd57565b60405162461bcd60e51b815260206004820152602360248201527f546f74616c20746f6b656e73206d75737420626520677265617465722074686160448201526206e20360ec1b6064820152608490fd5b15613a1557565b60405162461bcd60e51b815260206004820152601c60248201527b436c6f73652064617465206d75737420626520696e2066757475726560201b6044820152606490fd5b15613a6057565b60405162461bcd60e51b815260206004820152602160248201527f456e642064617465206d75737420626520616674657220636c6f7365206461746044820152606560f81b6064820152608490fd5b805f526011602052613ac760ff60405f205416612de4565b805f52600f602052613adb60405f20612c31565b613ae3612b8d565b908051613b5757508051613b07575050604051613b016020826128c3565b5f815290565b60056129fe91602080613b1a81966147ef565b6040519684889551918291018487015e8401908282015f8152815193849201905e010164173539b7b760d91b815203601a198101845201826128c3565b91505090565b5f919082908190819081908190613b82906113e16001600160a01b0382161515613326565b8051968715613d8e575f9692965b8251811015613d8257613ba38184612dbc565b515f52601060205260405f2093604051613bbc816128a7565b855481526001860154602082015260028601549060408101918252600387015491606082019283526004880154906080830191825260058901549160a0840192835260068a015460c085015260078a015460e085015260088a015493600160a01b60019003851661010082015261012081019a8560a01c60ff1615158c526101408201958060a81c60ff161515875260b01c60ff161515610160830152600901613c6590612c31565b906101800152519051613c7791613518565b93849351613c859085613518565b61271090049a8b94613c9691612f4d565b9a613ca091612f4d565b8851909c9015613d7157613cb39061339d565b975b8251613d61575b5115613cd2575b50505050600101969296613b90565b613cdd905142613579565b62ed4e008110613cc357939992936301e1338011613d35575160019392919015613d2257613d1792613d1191851c90612f4d565b90612f4d565b965b905f8080613cc3565b613d1190613d2f93612f4d565b96613d19565b90919892505115613d4a575b50600190613d19565b60019197613d5a91831c90612f4d565b9690613d41565b98613d6b9061339d565b98613cbc565b979d613d7c9061339d565b9d613cb5565b50969796929491929050565b9750505050505050505f905f905f905f905f905f905f90565b5f818152600260205260409020546001600160a01b0316908115613dc9575090565b637e27328960e01b5f5260045260245ffd5b60ff600c5416613236575f818152600260205260409020546001600160a01b03908116921680151580613fa6575b5050811580159081613f85575b5f83815260026020526040812080546001600160a01b03191690558390855f5160206149cb5f395f51905f528280a415613f0a5750600854815f5260096020528060405f2055600160401b8110156105ac5781613021826001613e7c9401600855613892565b6008545f1981019081116118d557815f526009602052613ea060405f205491613892565b90549060031b1c613eb48161302184613892565b5f52600960205260405f20555f5260096020525f60408120556008548015613ef6575f1901613ee281613892565b8154905f199060031b1b1916905560085590565b634e487b7160e01b5f52603160045260245ffd5b15613e7c57613f18826138aa565b815f52600760205260405f205490835f52600660205260405f2091818103613f5a575b50825f5260076020525f60408120555f526020525f6040812055613e7c565b815f528260205260405f2054815f52836020528060405f20555f52600760205260405f20555f613f3b565b613f8e836148ad565b835f52600360205260405f205f198154019055613e16565b80613fe4575b15613fb75780613e09565b82613fcf5750637e27328960e01b5f5260045260245ffd5b63177e802f60e01b5f5260045260245260445ffd5b508083148015614013575b80613fac57505f828152600460205260409020546001600160a01b03168114613fac565b50825f52600560205260405f20815f5260205260ff60405f205416613fef565b5f818152600b6020908152604080832033845290915290205460ff16156140575750565b63e2517d3f60e01b5f523360045260245260445ffd5b6001600160a01b0381165f9081525f51602061496b5f395f51905f52602052604090205460ff166140ed576001600160a01b03165f8181525f51602061496b5f395f51905f5260205260408120805460ff191660011790553391905f516020614a0b5f395f51905f52905f5160206148cb5f395f51905f529080a4600190565b505f90565b5f818152600b602090815260408083206001600160a01b038616845290915290205460ff16614165575f818152600b602090815260408083206001600160a01b0395909516808452949091528120805460ff19166001179055339291905f5160206148cb5f395f51905f529080a4600190565b50505f90565b600d545f805b8281106141ef57506141829061336b565b915f905f5b838110614195575050505090565b805f52601160205260ff60405f205416806141d2575b6141b8575b600101614187565b916141ca81846119bd60019489612dbc565b9290506141b0565b506141dc81613da7565b6001600160a01b038381169116146141ab565b805f52601160205260ff60405f20541680614226575b614212575b600101614171565b9061421e60019161339d565b91905061420a565b5061423081613da7565b6001600160a01b03858116911614614205565b6001600160a01b0381165f9081525f51602061496b5f395f51905f52602052604090205460ff16156140ed576001600160a01b03165f8181525f51602061496b5f395f51905f5260205260408120805460ff191690553391905f516020614a0b5f395f51905f52905f5160206149eb5f395f51905f529080a4600190565b5f818152600b602090815260408083206001600160a01b038616845290915290205460ff1615614165575f818152600b602090815260408083206001600160a01b0395909516808452949091528120805460ff19169055339291905f5160206149eb5f395f51905f529080a4600190565b600a546001600160a01b0316330361434657565b63118cdaa760e01b5f523360045260245ffd5b600a80546001600160a01b039283166001600160a01b0319821681179092559091165f5160206149ab5f395f51905f525f80a3565b823b61439c575b5050505050565b604051630a85bd0160e11b81526001600160a01b0391821660048201529181166024830152604482019390935260806064820152911691602090829081906143e8906084830190612857565b03815f865af15f918161447f575b5061444b57503d15614444573d61440c81612ccf565b9061441a60405192836128c3565b81523d5f602083013e5b8051908161443f5782633250574960e11b5f5260045260245ffd5b602001fd5b6060614424565b6001600160e01b03191663757a42ff60e11b0161446d57505f80808080614395565b633250574960e11b5f5260045260245ffd5b9091506020813d6020116144bc575b8161449b602093836128c3565b810103126105ce57516001600160e01b0319811681036105ce57905f6143f6565b3d915061448e565b60ff600c54166144d057565b63d93c066560e01b5f5260045ffd5b90602090604051906144f183836128c3565b5f82526001600160a01b0384169384156132795760ff600c54166147ac575f8281526002855260409020546001600160a01b03168015801591908261478c575b5f8881526003885260408082208054600101905586825260028952812080546001600160a01b0319168a1790558590899084905f5160206149cb5f395f51905f529080a41561471657600854845f52600987528060405f2055600160401b8110156105ac57846130218260016145aa9401600855613892565b8681036146db575b506146c8573b6145c3575b50505050565b9161460091819495936040519384928392630a85bd0160e11b84523360048501525f60248501526044840152608060648401526084830190612857565b03815f885af15f9181614688575b506146635750503d1561465b573d9061462682612ccf565b9161463460405193846128c3565b82523d5f8284013e5b815191826146585783633250574960e11b5f5260045260245ffd5b01fd5b60609061463d565b909291506001600160e01b03191663757a42ff60e11b0161446d57505f8080806145bd565b9091508381813d83116146c1575b6146a081836128c3565b810103126105ce57516001600160e01b0319811681036105ce57905f61460e565b503d614696565b6339e3563760e11b5f525f60045260245ffd5b6146e4836138aa565b5f1981019081116118d557875f526006875260405f20815f5287528460405f2055845f526007875260405f20556145b2565b8087146145aa57614726816138aa565b845f526007875260405f205490825f526006885260405f2091818103614764575b50855f52600788525f60408120555f5286525f60408120556145aa565b815f5282895260405f2054815f52838a528060405f20555f526007895260405f20555f614747565b614795856148ad565b815f526003875260405f205f198154019055614531565b60405162461bcd60e51b815260048101859052601b60248201527a151bdad95b881d1c985b9cd9995c881dda1a5b19481c185d5cd959602a1b6044820152606490fd5b801561488d575f81805b614879575061480781612ccf565b9061481560405192836128c3565b808252601f1961482482612ccf565b013660208401375b809280156134f7575f1982019182116118d5578193600a820660300192836030116118d55784511115612dd057600a9260f81b6001600160f81b0319165f1a908401601f0153049161482c565b90614885600a9161339d565b9104806147f9565b5060405161489c6040826128c3565b60018152600360fc1b602082015290565b5f90815260046020526040902080546001600160a01b031916905556fe2f8788117e7eff1d82e926ec794901d17c78024a50270940304540a733656f0d931f495b9a8e5d8e61946ea5d61e021f636cfe213a801f97589c18c152e408bdbb7b4a454dc3493923482f07822329ed19e8244eff582cc204f8554c3620c3fd90e929fbd463dd0bab90901d998cd0d0908551c0e028b559f240ef01b23058be19cc59039f8eb7ba436b5b291277e03e5209d6d8e48c1bdba4716897fc614b99722c076037ad8ffdcc6741eab5f84938edc5ad0e2aada3e8603ecd986134c0fb0aa07a7d01a8e97dec64df7f721c779f94884dfd3f5a0c61bfc2dd469032661d8be0079c531659141344cd1fd0a4f28419497f9722a3daafe3b4186f6b6457e0ddf252ad1be2c89b69c2b068fc378daa952ba7f163c4a11628f55a4df523b3eff6391f5c32d9c69d2a47ea670b442974b53935d1edc7fd64eb21e047a839171bd8aa0f3194971a2a116679f7c2090f6939c8d4e01a2a8d7e41d55e5351469e636741b2fc379fad678116fe3d4d4b9a1a184ab53ba36b86ad0fa66340b1ab41ada26469706673582212205ab5a9c3e08d04d754a83eda58c50eadd8deb17b746c25e0625672f4f3b9467a64736f6c634300081c00332f8788117e7eff1d82e926ec794901d17c78024a50270940304540a733656f0ddf7de25b7f1fd6d0b5205f0e18f1f35bd7b8d84cce336588d184533ce43a6f76722c076037ad8ffdcc6741eab5f84938edc5ad0e2aada3e8603ecd986134c0fb",
  "linkReferences": {},
  "deployedLinkReferences": {},
  "immutableReferences": {},
  "inputSourceName": "project/contracts/DZNFT.sol",
  "buildInfoId": "solc-0_8_28-63b6df502df0efbe4d1d9ac499c264011a1e6faa"
}