{
  "_format": "hh3-artifact-1",
  "contractName": "DZNFT",
  "sourceName": "contracts/DZNFT.sol",
  "abi": [
    {
      "inputs": [],
      "stateMutability": "nonpayable",
      "type": "constructor"
    },
    {
      "inputs": [],
      "name": "AccessControlBadConfirmation",
      "type": "error"
    },
    {
      "inputs": [
        {
          "internalType": "address",
          "name": "account",
          "type": "address"
        },
        {
          "internalType": "bytes32",
          "name": "neededRole",
          "type": "bytes32"
        }
      ],
      "name": "AccessControlUnauthorizedAccount",
      "type": "error"
    },
    {
      "inputs": [],
      "name": "ERC721EnumerableForbiddenBatchMint",
      "type": "error"
    },
    {
      "inputs": [
        {
          "internalType": "address",
          "name": "sender",
          "type": "address"
        },
        {
          "internalType": "uint256",
          "name": "tokenId",
          "type": "uint256"
        },
        {
          "internalType": "address",
          "name": "owner",
          "type": "address"
        }
      ],
      "name": "ERC721IncorrectOwner",
      "type": "error"
    },
    {
      "inputs": [
        {
          "internalType": "address",
          "name": "operator",
          "type": "address"
        },
        {
          "internalType": "uint256",
          "name": "tokenId",
          "type": "uint256"
        }
      ],
      "name": "ERC721InsufficientApproval",
      "type": "error"
    },
    {
      "inputs": [
        {
          "internalType": "address",
          "name": "approver",
          "type": "address"
        }
      ],
      "name": "ERC721InvalidApprover",
      "type": "error"
    },
    {
      "inputs": [
        {
          "internalType": "address",
          "name": "operator",
          "type": "address"
        }
      ],
      "name": "ERC721InvalidOperator",
      "type": "error"
    },
    {
      "inputs": [
        {
          "internalType": "address",
          "name": "owner",
          "type": "address"
        }
      ],
      "name": "ERC721InvalidOwner",
      "type": "error"
    },
    {
      "inputs": [
        {
          "internalType": "address",
          "name": "receiver",
          "type": "address"
        }
      ],
      "name": "ERC721InvalidReceiver",
      "type": "error"
    },
    {
      "inputs": [
        {
          "internalType": "address",
          "name": "sender",
          "type": "address"
        }
      ],
      "name": "ERC721InvalidSender",
      "type": "error"
    },
    {
      "inputs": [
        {
          "internalType": "uint256",
          "name": "tokenId",
          "type": "uint256"
        }
      ],
      "name": "ERC721NonexistentToken",
      "type": "error"
    },
    {
      "inputs": [
        {
          "internalType": "address",
          "name": "owner",
          "type": "address"
        },
        {
          "internalType": "uint256",
          "name": "index",
          "type": "uint256"
        }
      ],
      "name": "ERC721OutOfBoundsIndex",
      "type": "error"
    },
    {
      "inputs": [],
      "name": "EnforcedPause",
      "type": "error"
    },
    {
      "inputs": [],
      "name": "ExpectedPause",
      "type": "error"
    },
    {
      "inputs": [
        {
          "internalType": "address",
          "name": "owner",
          "type": "address"
        }
      ],
      "name": "OwnableInvalidOwner",
      "type": "error"
    },
    {
      "inputs": [
        {
          "internalType": "address",
          "name": "account",
          "type": "address"
        }
      ],
      "name": "OwnableUnauthorizedAccount",
      "type": "error"
    },
    {
      "anonymous": false,
      "inputs": [
        {
          "indexed": true,
          "internalType": "address",
          "name": "owner",
          "type": "address"
        },
        {
          "indexed": true,
          "internalType": "address",
          "name": "approved",
          "type": "address"
        },
        {
          "indexed": true,
          "internalType": "uint256",
          "name": "tokenId",
          "type": "uint256"
        }
      ],
      "name": "Approval",
      "type": "event"
    },
    {
      "anonymous": false,
      "inputs": [
        {
          "indexed": true,
          "internalType": "address",
          "name": "owner",
          "type": "address"
        },
        {
          "indexed": true,
          "internalType": "address",
          "name": "operator",
          "type": "address"
        },
        {
          "indexed": false,
          "internalType": "bool",
          "name": "approved",
          "type": "bool"
        }
      ],
      "name": "ApprovalForAll",
      "type": "event"
    },
    {
      "anonymous": false,
      "inputs": [
        {
          "indexed": false,
          "internalType": "string",
          "name": "newBaseURI",
          "type": "string"
        }
      ],
      "name": "BaseURIUpdated",
      "type": "event"
    },
    {
      "anonymous": false,
      "inputs": [
        {
          "indexed": true,
          "internalType": "address",
          "name": "account",
          "type": "address"
        },
        {
          "indexed": false,
          "internalType": "bool",
          "name": "granted",
          "type": "bool"
        }
      ],
      "name": "ExecutorRoleUpdated",
      "type": "event"
    },
    {
      "anonymous": false,
      "inputs": [
        {
          "indexed": true,
          "internalType": "uint256",
          "name": "tokenId",
          "type": "uint256"
        },
        {
          "indexed": false,
          "internalType": "string",
          "name": "metadata",
          "type": "string"
        }
      ],
      "name": "MetadataStamped",
      "type": "event"
    },
    {
      "anonymous": false,
      "inputs": [
        {
          "indexed": true,
          "internalType": "uint256",
          "name": "tokenId",
          "type": "uint256"
        },
        {
          "indexed": true,
          "internalType": "address",
          "name": "owner",
          "type": "address"
        }
      ],
      "name": "NFTBurned",
      "type": "event"
    },
    {
      "anonymous": false,
      "inputs": [
        {
          "indexed": true,
          "internalType": "uint256",
          "name": "tokenId",
          "type": "uint256"
        },
        {
          "indexed": true,
          "internalType": "address",
          "name": "buyer",
          "type": "address"
        },
        {
          "indexed": true,
          "internalType": "uint256",
          "name": "roundId",
          "type": "uint256"
        },
        {
          "indexed": false,
          "internalType": "uint256",
          "name": "tokenPrice",
          "type": "uint256"
        },
        {
          "indexed": false,
          "internalType": "uint256",
          "name": "rewardPercentage",
          "type": "uint256"
        }
      ],
      "name": "NFTMinted",
      "type": "event"
    },
    {
      "anonymous": false,
      "inputs": [
        {
          "indexed": true,
          "internalType": "address",
          "name": "previousOwner",
          "type": "address"
        },
        {
          "indexed": true,
          "internalType": "address",
          "name": "newOwner",
          "type": "address"
        }
      ],
      "name": "OwnershipTransferred",
      "type": "event"
    },
    {
      "anonymous": false,
      "inputs": [
        {
          "indexed": false,
          "internalType": "address",
          "name": "account",
          "type": "address"
        }
      ],
      "name": "Paused",
      "type": "event"
    },
    {
      "anonymous": false,
      "inputs": [
        {
          "indexed": true,
          "internalType": "uint256",
          "name": "tokenId",
          "type": "uint256"
        },
        {
          "indexed": true,
          "internalType": "address",
          "name": "claimer",
          "type": "address"
        }
      ],
      "name": "RewardClaimed",
      "type": "event"
    },
    {
      "anonymous": false,
      "inputs": [
        {
          "indexed": true,
          "internalType": "bytes32",
          "name": "role",
          "type": "bytes32"
        },
        {
          "indexed": true,
          "internalType": "bytes32",
          "name": "previousAdminRole",
          "type": "bytes32"
        },
        {
          "indexed": true,
          "internalType": "bytes32",
          "name": "newAdminRole",
          "type": "bytes32"
        }
      ],
      "name": "RoleAdminChanged",
      "type": "event"
    },
    {
      "anonymous": false,
      "inputs": [
        {
          "indexed": true,
          "internalType": "bytes32",
          "name": "role",
          "type": "bytes32"
        },
        {
          "indexed": true,
          "internalType": "address",
          "name": "account",
          "type": "address"
        },
        {
          "indexed": true,
          "internalType": "address",
          "name": "sender",
          "type": "address"
        }
      ],
      "name": "RoleGranted",
      "type": "event"
    },
    {
      "anonymous": false,
      "inputs": [
        {
          "indexed": true,
          "internalType": "bytes32",
          "name": "role",
          "type": "bytes32"
        },
        {
          "indexed": true,
          "internalType": "address",
          "name": "account",
          "type": "address"
        },
        {
          "indexed": true,
          "internalType": "address",
          "name": "sender",
          "type": "address"
        }
      ],
      "name": "RoleRevoked",
      "type": "event"
    },
    {
      "anonymous": false,
      "inputs": [
        {
          "indexed": true,
          "internalType": "uint256",
          "name": "tokenId",
          "type": "uint256"
        },
        {
          "indexed": false,
          "internalType": "string",
          "name": "newTokenURI",
          "type": "string"
        }
      ],
      "name": "TokenURIUpdated",
      "type": "event"
    },
    {
      "anonymous": false,
      "inputs": [
        {
          "indexed": true,
          "internalType": "address",
          "name": "from",
          "type": "address"
        },
        {
          "indexed": true,
          "internalType": "address",
          "name": "to",
          "type": "address"
        },
        {
          "indexed": true,
          "internalType": "uint256",
          "name": "tokenId",
          "type": "uint256"
        }
      ],
      "name": "Transfer",
      "type": "event"
    },
    {
      "anonymous": false,
      "inputs": [
        {
          "indexed": true,
          "internalType": "uint256",
          "name": "tokenId",
          "type": "uint256"
        },
        {
          "indexed": false,
          "internalType": "bool",
          "name": "locked",
          "type": "bool"
        }
      ],
      "name": "TransferLockUpdated",
      "type": "event"
    },
    {
      "anonymous": false,
      "inputs": [
        {
          "indexed": false,
          "internalType": "address",
          "name": "account",
          "type": "address"
        }
      ],
      "name": "Unpaused",
      "type": "event"
    },
    {
      "inputs": [],
      "name": "DEFAULT_ADMIN_ROLE",
      "outputs": [
        {
          "internalType": "bytes32",
          "name": "",
          "type": "bytes32"
        }
      ],
      "stateMutability": "view",
      "type": "function"
    },
    {
      "inputs": [],
      "name": "EXECUTOR_ROLE",
      "outputs": [
        {
          "internalType": "bytes32",
          "name": "",
          "type": "bytes32"
        }
      ],
      "stateMutability": "view",
      "type": "function"
    },
    {
      "inputs": [
        {
          "internalType": "address",
          "name": "to",
          "type": "address"
        },
        {
          "internalType": "uint256",
          "name": "tokenId",
          "type": "uint256"
        }
      ],
      "name": "approve",
      "outputs": [],
      "stateMutability": "nonpayable",
      "type": "function"
    },
    {
      "inputs": [
        {
          "internalType": "address",
          "name": "owner",
          "type": "address"
        }
      ],
      "name": "balanceOf",
      "outputs": [
        {
          "internalType": "uint256",
          "name": "",
          "type": "uint256"
        }
      ],
      "stateMutability": "view",
      "type": "function"
    },
    {
      "inputs": [],
      "name": "baseURI",
      "outputs": [
        {
          "internalType": "string",
          "name": "",
          "type": "string"
        }
      ],
      "stateMutability": "view",
      "type": "function"
    },
    {
      "inputs": [
        {
          "internalType": "uint256[]",
          "name": "tokenIds",
          "type": "uint256[]"
        },
        {
          "internalType": "address",
          "name": "user",
          "type": "address"
        }
      ],
      "name": "batchCheckOwnership",
      "outputs": [
        {
          "internalType": "bool[]",
          "name": "ownedTokens",
          "type": "bool[]"
        }
      ],
      "stateMutability": "view",
      "type": "function"
    },
    {
      "inputs": [
        {
          "internalType": "uint256[]",
          "name": "tokenIds",
          "type": "uint256[]"
        }
      ],
      "name": "batchGetInvestmentData",
      "outputs": [
        {
          "components": [
            {
              "internalType": "uint256",
              "name": "tokenId",
              "type": "uint256"
            },
            {
              "internalType": "uint256",
              "name": "roundId",
              "type": "uint256"
            },
            {
              "internalType": "uint256",
              "name": "tokenPrice",
              "type": "uint256"
            },
            {
              "internalType": "uint256",
              "name": "rewardPercentage",
              "type": "uint256"
            },
            {
              "internalType": "uint256",
              "name": "totalTokenOpenInvestment",
              "type": "uint256"
            },
            {
              "internalType": "uint256",
              "name": "purchaseTimestamp",
              "type": "uint256"
            },
            {
              "internalType": "uint256",
              "name": "closeDateInvestment",
              "type": "uint256"
            },
            {
              "internalType": "uint256",
              "name": "endDateInvestment",
              "type": "uint256"
            },
            {
              "internalType": "address",
              "name": "originalBuyer",
              "type": "address"
            },
            {
              "internalType": "bool",
              "name": "redeemed",
              "type": "bool"
            },
            {
              "internalType": "bool",
              "name": "rewardClaimed",
              "type": "bool"
            },
            {
              "internalType": "bool",
              "name": "transferLocked",
              "type": "bool"
            },
            {
              "internalType": "string",
              "name": "metadata",
              "type": "string"
            }
          ],
          "internalType": "struct DZNFT.InvestmentData[]",
          "name": "investments",
          "type": "tuple[]"
        }
      ],
      "stateMutability": "view",
      "type": "function"
    },
    {
      "inputs": [
        {
          "internalType": "address",
          "name": "to",
          "type": "address"
        },
        {
          "internalType": "uint256",
          "name": "count",
          "type": "uint256"
        },
        {
          "internalType": "uint256",
          "name": "roundId",
          "type": "uint256"
        },
        {
          "internalType": "uint256",
          "name": "tokenPrice",
          "type": "uint256"
        },
        {
          "internalType": "uint256",
          "name": "rewardPercentage",
          "type": "uint256"
        },
        {
          "internalType": "uint256",
          "name": "totalTokenOpenInvestment",
          "type": "uint256"
        },
        {
          "internalType": "uint256",
          "name": "closeDateInvestment",
          "type": "uint256"
        },
        {
          "internalType": "uint256",
          "name": "endDateInvestment",
          "type": "uint256"
        }
      ],
      "name": "batchMintNFT",
      "outputs": [
        {
          "internalType": "uint256[]",
          "name": "tokenIds",
          "type": "uint256[]"
        }
      ],
      "stateMutability": "nonpayable",
      "type": "function"
    },
    {
      "inputs": [
        {
          "internalType": "uint256",
          "name": "tokenId",
          "type": "uint256"
        }
      ],
      "name": "burn",
      "outputs": [],
      "stateMutability": "nonpayable",
      "type": "function"
    },
    {
      "inputs": [
        {
          "internalType": "uint256",
          "name": "tokenId",
          "type": "uint256"
        }
      ],
      "name": "canClaimEarlyReward",
      "outputs": [
        {
          "internalType": "bool",
          "name": "",
          "type": "bool"
        }
      ],
      "stateMutability": "view",
      "type": "function"
    },
    {
      "inputs": [
        {
          "internalType": "uint256",
          "name": "tokenId",
          "type": "uint256"
        }
      ],
      "name": "canFullyRedeem",
      "outputs": [
        {
          "internalType": "bool",
          "name": "",
          "type": "bool"
        }
      ],
      "stateMutability": "view",
      "type": "function"
    },
    {
      "inputs": [
        {
          "internalType": "uint256",
          "name": "tokenId",
          "type": "uint256"
        }
      ],
      "name": "getApproved",
      "outputs": [
        {
          "internalType": "address",
          "name": "",
          "type": "address"
        }
      ],
      "stateMutability": "view",
      "type": "function"
    },
    {
      "inputs": [
        {
          "internalType": "uint256",
          "name": "tokenId",
          "type": "uint256"
        }
      ],
      "name": "getInvestmentData",
      "outputs": [
        {
          "components": [
            {
              "internalType": "uint256",
              "name": "tokenId",
              "type": "uint256"
            },
            {
              "internalType": "uint256",
              "name": "roundId",
              "type": "uint256"
            },
            {
              "internalType": "uint256",
              "name": "tokenPrice",
              "type": "uint256"
            },
            {
              "internalType": "uint256",
              "name": "rewardPercentage",
              "type": "uint256"
            },
            {
              "internalType": "uint256",
              "name": "totalTokenOpenInvestment",
              "type": "uint256"
            },
            {
              "internalType": "uint256",
              "name": "purchaseTimestamp",
              "type": "uint256"
            },
            {
              "internalType": "uint256",
              "name": "closeDateInvestment",
              "type": "uint256"
            },
            {
              "internalType": "uint256",
              "name": "endDateInvestment",
              "type": "uint256"
            },
            {
              "internalType": "address",
              "name": "originalBuyer",
              "type": "address"
            },
            {
              "internalType": "bool",
              "name": "redeemed",
              "type": "bool"
            },
            {
              "internalType": "bool",
              "name": "rewardClaimed",
              "type": "bool"
            },
            {
              "internalType": "bool",
              "name": "transferLocked",
              "type": "bool"
            },
            {
              "internalType": "string",
              "name": "metadata",
              "type": "string"
            }
          ],
          "internalType": "struct DZNFT.InvestmentData",
          "name": "",
          "type": "tuple"
        }
      ],
      "stateMutability": "view",
      "type": "function"
    },
    {
      "inputs": [
        {
          "internalType": "bytes32",
          "name": "role",
          "type": "bytes32"
        }
      ],
      "name": "getRoleAdmin",
      "outputs": [
        {
          "internalType": "bytes32",
          "name": "",
          "type": "bytes32"
        }
      ],
      "stateMutability": "view",
      "type": "function"
    },
    {
      "inputs": [
        {
          "internalType": "address",
          "name": "user",
          "type": "address"
        },
        {
          "internalType": "uint256",
          "name": "roundId",
          "type": "uint256"
        }
      ],
      "name": "getUserNFTsByRound",
      "outputs": [
        {
          "internalType": "uint256[]",
          "name": "tokenIds",
          "type": "uint256[]"
        }
      ],
      "stateMutability": "view",
      "type": "function"
    },
    {
      "inputs": [
        {
          "internalType": "address",
          "name": "walletAddress",
          "type": "address"
        }
      ],
      "name": "getWalletNFTSummary",
      "outputs": [
        {
          "internalType": "uint256",
          "name": "totalNFTs",
          "type": "uint256"
        },
        {
          "internalType": "uint256",
          "name": "activeInvestments",
          "type": "uint256"
        },
        {
          "internalType": "uint256",
          "name": "redeemedInvestments",
          "type": "uint256"
        },
        {
          "internalType": "uint256",
          "name": "claimedRewards",
          "type": "uint256"
        },
        {
          "internalType": "uint256",
          "name": "totalInvestedValue",
          "type": "uint256"
        },
        {
          "internalType": "uint256",
          "name": "totalExpectedRewards",
          "type": "uint256"
        },
        {
          "internalType": "uint256",
          "name": "claimableAmount",
          "type": "uint256"
        }
      ],
      "stateMutability": "view",
      "type": "function"
    },
    {
      "inputs": [
        {
          "internalType": "address",
          "name": "walletAddress",
          "type": "address"
        },
        {
          "internalType": "uint256",
          "name": "offset",
          "type": "uint256"
        },
        {
          "internalType": "uint256",
          "name": "limit",
          "type": "uint256"
        }
      ],
      "name": "getWalletNFTsPaginated",
      "outputs": [
        {
          "internalType": "uint256[]",
          "name": "tokenIds",
          "type": "uint256[]"
        },
        {
          "components": [
            {
              "internalType": "uint256",
              "name": "tokenId",
              "type": "uint256"
            },
            {
              "internalType": "uint256",
              "name": "roundId",
              "type": "uint256"
            },
            {
              "internalType": "uint256",
              "name": "tokenPrice",
              "type": "uint256"
            },
            {
              "internalType": "uint256",
              "name": "rewardPercentage",
              "type": "uint256"
            },
            {
              "internalType": "uint256",
              "name": "totalTokenOpenInvestment",
              "type": "uint256"
            },
            {
              "internalType": "uint256",
              "name": "purchaseTimestamp",
              "type": "uint256"
            },
            {
              "internalType": "uint256",
              "name": "closeDateInvestment",
              "type": "uint256"
            },
            {
              "internalType": "uint256",
              "name": "endDateInvestment",
              "type": "uint256"
            },
            {
              "internalType": "address",
              "name": "originalBuyer",
              "type": "address"
            },
            {
              "internalType": "bool",
              "name": "redeemed",
              "type": "bool"
            },
            {
              "internalType": "bool",
              "name": "rewardClaimed",
              "type": "bool"
            },
            {
              "internalType": "bool",
              "name": "transferLocked",
              "type": "bool"
            },
            {
              "internalType": "string",
              "name": "metadata",
              "type": "string"
            }
          ],
          "internalType": "struct DZNFT.InvestmentData[]",
          "name": "investmentDetails",
          "type": "tuple[]"
        },
        {
          "internalType": "uint256",
          "name": "totalTokens",
          "type": "uint256"
        },
        {
          "internalType": "uint256",
          "name": "totalPages",
          "type": "uint256"
        },
        {
          "internalType": "uint256",
          "name": "currentPage",
          "type": "uint256"
        },
        {
          "internalType": "bool",
          "name": "hasMore",
          "type": "bool"
        }
      ],
      "stateMutability": "view",
      "type": "function"
    },
    {
      "inputs": [
        {
          "internalType": "address",
          "name": "walletAddress",
          "type": "address"
        }
      ],
      "name": "getWalletTokenIds",
      "outputs": [
        {
          "internalType": "uint256[]",
          "name": "tokenIds",
          "type": "uint256[]"
        }
      ],
      "stateMutability": "view",
      "type": "function"
    },
    {
      "inputs": [
        {
          "internalType": "bytes32",
          "name": "role",
          "type": "bytes32"
        },
        {
          "internalType": "address",
          "name": "account",
          "type": "address"
        }
      ],
      "name": "grantRole",
      "outputs": [],
      "stateMutability": "nonpayable",
      "type": "function"
    },
    {
      "inputs": [
        {
          "internalType": "bytes32",
          "name": "role",
          "type": "bytes32"
        },
        {
          "internalType": "address",
          "name": "account",
          "type": "address"
        }
      ],
      "name": "hasRole",
      "outputs": [
        {
          "internalType": "bool",
          "name": "",
          "type": "bool"
        }
      ],
      "stateMutability": "view",
      "type": "function"
    },
    {
      "inputs": [
        {
          "internalType": "uint256",
          "name": "",
          "type": "uint256"
        }
      ],
      "name": "investmentData",
      "outputs": [
        {
          "internalType": "uint256",
          "name": "tokenId",
          "type": "uint256"
        },
        {
          "internalType": "uint256",
          "name": "roundId",
          "type": "uint256"
        },
        {
          "internalType": "uint256",
          "name": "tokenPrice",
          "type": "uint256"
        },
        {
          "internalType": "uint256",
          "name": "rewardPercentage",
          "type": "uint256"
        },
        {
          "internalType": "uint256",
          "name": "totalTokenOpenInvestment",
          "type": "uint256"
        },
        {
          "internalType": "uint256",
          "name": "purchaseTimestamp",
          "type": "uint256"
        },
        {
          "internalType": "uint256",
          "name": "closeDateInvestment",
          "type": "uint256"
        },
        {
          "internalType": "uint256",
          "name": "endDateInvestment",
          "type": "uint256"
        },
        {
          "internalType": "address",
          "name": "originalBuyer",
          "type": "address"
        },
        {
          "internalType": "bool",
          "name": "redeemed",
          "type": "bool"
        },
        {
          "internalType": "bool",
          "name": "rewardClaimed",
          "type": "bool"
        },
        {
          "internalType": "bool",
          "name": "transferLocked",
          "type": "bool"
        },
        {
          "internalType": "string",
          "name": "metadata",
          "type": "string"
        }
      ],
      "stateMutability": "view",
      "type": "function"
    },
    {
      "inputs": [
        {
          "internalType": "address",
          "name": "owner",
          "type": "address"
        },
        {
          "internalType": "address",
          "name": "operator",
          "type": "address"
        }
      ],
      "name": "isApprovedForAll",
      "outputs": [
        {
          "internalType": "bool",
          "name": "",
          "type": "bool"
        }
      ],
      "stateMutability": "view",
      "type": "function"
    },
    {
      "inputs": [
        {
          "internalType": "address",
          "name": "account",
          "type": "address"
        }
      ],
      "name": "isExecutor",
      "outputs": [
        {
          "internalType": "bool",
          "name": "",
          "type": "bool"
        }
      ],
      "stateMutability": "view",
      "type": "function"
    },
    {
      "inputs": [
        {
          "internalType": "uint256",
          "name": "tokenId",
          "type": "uint256"
        }
      ],
      "name": "isInvestmentMatured",
      "outputs": [
        {
          "internalType": "bool",
          "name": "",
          "type": "bool"
        }
      ],
      "stateMutability": "view",
      "type": "function"
    },
    {
      "inputs": [
        {
          "internalType": "uint256",
          "name": "tokenId",
          "type": "uint256"
        }
      ],
      "name": "isInvestmentOpen",
      "outputs": [
        {
          "internalType": "bool",
          "name": "",
          "type": "bool"
        }
      ],
      "stateMutability": "view",
      "type": "function"
    },
    {
      "inputs": [
        {
          "internalType": "uint256",
          "name": "tokenId",
          "type": "uint256"
        }
      ],
      "name": "isTransferLocked",
      "outputs": [
        {
          "internalType": "bool",
          "name": "",
          "type": "bool"
        }
      ],
      "stateMutability": "view",
      "type": "function"
    },
    {
      "inputs": [
        {
          "internalType": "uint256",
          "name": "tokenId",
          "type": "uint256"
        }
      ],
      "name": "lockTransfer",
      "outputs": [],
      "stateMutability": "nonpayable",
      "type": "function"
    },
    {
      "inputs": [
        {
          "internalType": "uint256",
          "name": "tokenId",
          "type": "uint256"
        }
      ],
      "name": "markAsRedeemed",
      "outputs": [],
      "stateMutability": "nonpayable",
      "type": "function"
    },
    {
      "inputs": [
        {
          "internalType": "uint256",
          "name": "tokenId",
          "type": "uint256"
        }
      ],
      "name": "markRewardClaimed",
      "outputs": [],
      "stateMutability": "nonpayable",
      "type": "function"
    },
    {
      "inputs": [
        {
          "internalType": "address",
          "name": "to",
          "type": "address"
        },
        {
          "internalType": "uint256",
          "name": "roundId",
          "type": "uint256"
        },
        {
          "internalType": "uint256",
          "name": "tokenPrice",
          "type": "uint256"
        },
        {
          "internalType": "uint256",
          "name": "rewardPercentage",
          "type": "uint256"
        },
        {
          "internalType": "uint256",
          "name": "totalTokenOpenInvestment",
          "type": "uint256"
        },
        {
          "internalType": "uint256",
          "name": "closeDateInvestment",
          "type": "uint256"
        },
        {
          "internalType": "uint256",
          "name": "endDateInvestment",
          "type": "uint256"
        }
      ],
      "name": "mintNFT",
      "outputs": [
        {
          "internalType": "uint256",
          "name": "",
          "type": "uint256"
        }
      ],
      "stateMutability": "nonpayable",
      "type": "function"
    },
    {
      "inputs": [],
      "name": "name",
      "outputs": [
        {
          "internalType": "string",
          "name": "",
          "type": "string"
        }
      ],
      "stateMutability": "view",
      "type": "function"
    },
    {
      "inputs": [],
      "name": "owner",
      "outputs": [
        {
          "internalType": "address",
          "name": "",
          "type": "address"
        }
      ],
      "stateMutability": "view",
      "type": "function"
    },
    {
      "inputs": [
        {
          "internalType": "uint256",
          "name": "tokenId",
          "type": "uint256"
        }
      ],
      "name": "ownerOf",
      "outputs": [
        {
          "internalType": "address",
          "name": "",
          "type": "address"
        }
      ],
      "stateMutability": "view",
      "type": "function"
    },
    {
      "inputs": [],
      "name": "pause",
      "outputs": [],
      "stateMutability": "nonpayable",
      "type": "function"
    },
    {
      "inputs": [],
      "name": "paused",
      "outputs": [
        {
          "internalType": "bool",
          "name": "",
          "type": "bool"
        }
      ],
      "stateMutability": "view",
      "type": "function"
    },
    {
      "inputs": [],
      "name": "renounceOwnership",
      "outputs": [],
      "stateMutability": "nonpayable",
      "type": "function"
    },
    {
      "inputs": [
        {
          "internalType": "bytes32",
          "name": "role",
          "type": "bytes32"
        },
        {
          "internalType": "address",
          "name": "callerConfirmation",
          "type": "address"
        }
      ],
      "name": "renounceRole",
      "outputs": [],
      "stateMutability": "nonpayable",
      "type": "function"
    },
    {
      "inputs": [
        {
          "internalType": "bytes32",
          "name": "role",
          "type": "bytes32"
        },
        {
          "internalType": "address",
          "name": "account",
          "type": "address"
        }
      ],
      "name": "revokeRole",
      "outputs": [],
      "stateMutability": "nonpayable",
      "type": "function"
    },
    {
      "inputs": [
        {
          "internalType": "address",
          "name": "from",
          "type": "address"
        },
        {
          "internalType": "address",
          "name": "to",
          "type": "address"
        },
        {
          "internalType": "uint256",
          "name": "tokenId",
          "type": "uint256"
        }
      ],
      "name": "safeTransferFrom",
      "outputs": [],
      "stateMutability": "nonpayable",
      "type": "function"
    },
    {
      "inputs": [
        {
          "internalType": "address",
          "name": "from",
          "type": "address"
        },
        {
          "internalType": "address",
          "name": "to",
          "type": "address"
        },
        {
          "internalType": "uint256",
          "name": "tokenId",
          "type": "uint256"
        },
        {
          "internalType": "bytes",
          "name": "data",
          "type": "bytes"
        }
      ],
      "name": "safeTransferFrom",
      "outputs": [],
      "stateMutability": "nonpayable",
      "type": "function"
    },
    {
      "inputs": [
        {
          "internalType": "address",
          "name": "operator",
          "type": "address"
        },
        {
          "internalType": "bool",
          "name": "approved",
          "type": "bool"
        }
      ],
      "name": "setApprovalForAll",
      "outputs": [],
      "stateMutability": "nonpayable",
      "type": "function"
    },
    {
      "inputs": [
        {
          "internalType": "string",
          "name": "newBaseURI",
          "type": "string"
        }
      ],
      "name": "setBaseURI",
      "outputs": [],
      "stateMutability": "nonpayable",
      "type": "function"
    },
    {
      "inputs": [
        {
          "internalType": "uint256",
          "name": "tokenId",
          "type": "uint256"
        },
        {
          "internalType": "string",
          "name": "newTokenURI",
          "type": "string"
        }
      ],
      "name": "setTokenURI",
      "outputs": [],
      "stateMutability": "nonpayable",
      "type": "function"
    },
    {
      "inputs": [
        {
          "internalType": "uint256",
          "name": "tokenId",
          "type": "uint256"
        },
        {
          "internalType": "string",
          "name": "metadata",
          "type": "string"
        }
      ],
      "name": "stampMetadata",
      "outputs": [],
      "stateMutability": "nonpayable",
      "type": "function"
    },
    {
      "inputs": [
        {
          "internalType": "bytes4",
          "name": "interfaceId",
          "type": "bytes4"
        }
      ],
      "name": "supportsInterface",
      "outputs": [
        {
          "internalType": "bool",
          "name": "",
          "type": "bool"
        }
      ],
      "stateMutability": "view",
      "type": "function"
    },
    {
      "inputs": [],
      "name": "symbol",
      "outputs": [
        {
          "internalType": "string",
          "name": "",
          "type": "string"
        }
      ],
      "stateMutability": "view",
      "type": "function"
    },
    {
      "inputs": [
        {
          "internalType": "uint256",
          "name": "index",
          "type": "uint256"
        }
      ],
      "name": "tokenByIndex",
      "outputs": [
        {
          "internalType": "uint256",
          "name": "",
          "type": "uint256"
        }
      ],
      "stateMutability": "view",
      "type": "function"
    },
    {
      "inputs": [
        {
          "internalType": "uint256",
          "name": "",
          "type": "uint256"
        }
      ],
      "name": "tokenExists",
      "outputs": [
        {
          "internalType": "bool",
          "name": "",
          "type": "bool"
        }
      ],
      "stateMutability": "view",
      "type": "function"
    },
    {
      "inputs": [
        {
          "internalType": "address",
          "name": "owner",
          "type": "address"
        },
        {
          "internalType": "uint256",
          "name": "index",
          "type": "uint256"
        }
      ],
      "name": "tokenOfOwnerByIndex",
      "outputs": [
        {
          "internalType": "uint256",
          "name": "",
          "type": "uint256"
        }
      ],
      "stateMutability": "view",
      "type": "function"
    },
    {
      "inputs": [
        {
          "internalType": "uint256",
          "name": "tokenId",
          "type": "uint256"
        }
      ],
      "name": "tokenURI",
      "outputs": [
        {
          "internalType": "string",
          "name": "",
          "type": "string"
        }
      ],
      "stateMutability": "view",
      "type": "function"
    },
    {
      "inputs": [],
      "name": "totalSupply",
      "outputs": [
        {
          "internalType": "uint256",
          "name": "",
          "type": "uint256"
        }
      ],
      "stateMutability": "view",
      "type": "function"
    },
    {
      "inputs": [
        {
          "internalType": "address",
          "name": "from",
          "type": "address"
        },
        {
          "internalType": "address",
          "name": "to",
          "type": "address"
        },
        {
          "internalType": "uint256",
          "name": "tokenId",
          "type": "uint256"
        }
      ],
      "name": "transferFrom",
      "outputs": [],
      "stateMutability": "nonpayable",
      "type": "function"
    },
    {
      "inputs": [
        {
          "internalType": "address",
          "name": "newOwner",
          "type": "address"
        }
      ],
      "name": "transferOwner",
      "outputs": [],
      "stateMutability": "nonpayable",
      "type": "function"
    },
    {
      "inputs": [
        {
          "internalType": "address",
          "name": "newOwner",
          "type": "address"
        }
      ],
      "name": "transferOwnership",
      "outputs": [],
      "stateMutability": "nonpayable",
      "type": "function"
    },
    {
      "inputs": [
        {
          "internalType": "uint256",
          "name": "tokenId",
          "type": "uint256"
        }
      ],
      "name": "unlockTransfer",
      "outputs": [],
      "stateMutability": "nonpayable",
      "type": "function"
    },
    {
      "inputs": [],
      "name": "unpause",
      "outputs": [],
      "stateMutability": "nonpayable",
      "type": "function"
    },
    {
      "inputs": [
        {
          "internalType": "address",
          "name": "account",
          "type": "address"
        },
        {
          "internalType": "bool",
          "name": "grant",
          "type": "bool"
        }
      ],
      "name": "updateExecutorRole",
      "outputs": [],
      "stateMutability": "nonpayable",
      "type": "function"
    }
  ],
  "bytecode": "0x60806040523461039757604080519081016001600160401b038111828210176102cc5760409081526011825270111688125b9d995cdd1b595b9d08139195607a1b602083015280519081016001600160401b038111828210176102cc576040526005815264111693919560da1b602082015281516001600160401b0381116102cc5761008b5f5461039b565b601f811161034a575b50602092601f82116001146102eb57928192935f926102e0575b50508160011b915f199060031b1c1916175f555b80516001600160401b0381116102cc576100dd60015461039b565b601f8111610273575b50602091601f8211600114610213579181925f92610208575b50508160011b915f199060031b1c1916176001555b33156101f557600a8054336001600160a01b0319821681179092556001600160a01b03167f8be0079c531659141344cd1fd0a4f28419497f9722a3daafe3b4186f6b6457e05f80a3610165336103e9565b5061016f3361045f565b5061017b600e5461039b565b601f81116101b7575b7f68747470733a2f2f6170692e647a6e66742e636f6d2f6d657461646174612f3e600e5560405161464a90816104f38239f35b600e5f526101ef90601f0160051c7fbb7b4a454dc3493923482f07822329ed19e8244eff582cc204f8554c3620c3fd908101906103d3565b5f610184565b631e4fbdf760e01b5f525f60045260245ffd5b015190505f806100ff565b601f1982169260015f52805f20915f5b85811061025b57508360019510610243575b505050811b01600155610114565b01515f1960f88460031b161c191690555f8080610235565b91926020600181928685015181550194019201610223565b60015f526102bc907fb10e2d527612073b26eecdfd717e6a320cf44b4afac2b0732d9fcbe2b7fa0cf6601f840160051c810191602085106102c2575b601f0160051c01906103d3565b5f6100e6565b90915081906102af565b634e487b7160e01b5f52604160045260245ffd5b015190505f806100ae565b601f198216935f8052805f20915f5b868110610332575083600195961061031a575b505050811b015f556100c2565b01515f1960f88460031b161c191690555f808061030d565b919260206001819286850151815501940192016102fa565b5f8052610391907f290decd9548b62a8d60345a988386fc84ba6bc95484008f6362f93160ef3e563601f840160051c810191602085106102c257601f0160051c01906103d3565b5f610094565b5f80fd5b90600182811c921680156103c9575b60208310146103b557565b634e487b7160e01b5f52602260045260245ffd5b91607f16916103aa565b8181106103de575050565b5f81556001016103d3565b6001600160a01b0381165f9081525f516020614b5d5f395f51905f52602052604090205460ff1661045a576001600160a01b03165f8181525f516020614b5d5f395f51905f5260205260408120805460ff191660011790553391905f516020614b3d5f395f51905f528180a4600190565b505f90565b6001600160a01b0381165f9081525f516020614b7d5f395f51905f52602052604090205460ff1661045a576001600160a01b03165f8181525f516020614b7d5f395f51905f5260205260408120805460ff191660011790553391907fd8aa0f3194971a2a116679f7c2090f6939c8d4e01a2a8d7e41d55e5351469e63905f516020614b3d5f395f51905f529080a460019056fe610120806040526004361015610013575f80fd5b5f3560e01c908162923f9e1461255c5750806301ffc9a7146124bb57806306fdde031461241957806307bd0265146123f2578063081812fc146123d4578063095ea7b3146122ea578063141f878a146121b5578063162094c41461205d57806318160ddd1461204057806318d8e2a514611f3857806319f477d914611ec15780631d3653e314611da657806323b872dd14611d8f578063248a9ca314611d71578063293af81a14611c755780632f2ff15d14611c445780632f745c5914611c1d578063364b610114611bd557806336568abe14611b915780633f4ba83a14611b2b57806342842e0e14611afc57806342966c6814611967578063471769ef146118f55780634f6ccce7146118a75780634fb2e45d146118865780635447be0b1461183a57806355f804b3146116cd5780635a0ea3d4146115985780635a7f04d5146114705780635c975abb1461144e5780636352211e1461141e5780636c0360eb1461140357806370a08231146113d8578063715018a6146113905780638456cb59146113375780638da5cb5b1461130f5780638e25e2e61461121257806391d14854146111c957806395d89b41146110ff5780639913627f146110b2578063a217fddf14611098578063a22cb46514611010578063acb7ebfa14610f3b578063b88d4fde14610ea7578063badd5c4d14610e21578063bed62f3514610d41578063bf725a3c1461097a578063c2bf0fa114610932578063c87b56dd146108fb578063ccdbc50e146108ab578063d547741f14610875578063d9852f8d146107e7578063debfda3014610799578063e01beb9d14610656578063e985e9c5146105ff578063f2fde38b146105b15763f4fb81591461028f575f80fd5b346105ad5760e03660031901126105ad576102a86125ab565b335f9081525f5160206145355f395f51905f5260205260409020546084359160a4359160c435906102db9060ff16612bde565b6102e3614087565b6102f76001600160a01b038316151561349e565b61030460443515156134e6565b60643515158061059f575b61031890613531565b610323841515613579565b61032e4284116135d1565b61033983821161361c565b600d54926103468461345f565b600d5560405194610356866125d7565b84865260243560208701526044356040870152606435606087015260808601524260a086015260c085015260e084015260018060a01b0381166101008401525f6101208401525f6101408401525f6101608401526020926040516103ba85826125f3565b5f8152610180820152825f5260108452610180600960405f20835181556020840151600182015560408401516002820155606084015160038201556080840151600482015560a0840151600582015560c0840151600682015560e084015160078201556104786008820160018060a01b0360018060a01b03610100880151161660018060a01b0319825416178155610459610120870151151582612c60565b61046a610140870151151582612c26565b610160860151151590612c43565b0191015180519060018060401b03821161058b576104a08261049a8554612885565b85612b6d565b8590601f8311600114610528576104c192915f918361051d575b5050612ba5565b90555b815f526011835260405f20600160ff198254161790556104e482826140a2565b60408051604435815260643585820152602435926001600160a01b03169184915f5160206145155f395f51905f529190a4604051908152f35b015190505f806104ba565b90601f19831691845f52875f20925f5b8982821061057557505090846001959493921061055d575b505050811b0190556104c4565b01515f1960f88460031b161c191690555f8080610550565b6001859682939686015181550195019301610538565b634e487b7160e01b5f52604160045260245ffd5b50612710606435111561030f565b5f80fd5b346105ad5760203660031901126105ad576105ca6125ab565b6105d2613e1d565b6001600160a01b038116156105ec576105ea90613f1c565b005b631e4fbdf760e01b5f525f60045260245ffd5b346105ad5760403660031901126105ad576106186125ab565b6106206125c1565b9060018060a01b03165f52600560205260405f209060018060a01b03165f52602052602060ff60405f2054166040519015158152f35b346105ad57610664366127b6565b335f9081525f5160206145355f395f51905f52602052604090205491929161068e9060ff16612bde565b815f5260116020526106a660ff60405f205416612b14565b5f828152601060205260409020600901926001600160401b03821161058b576106d9826106d38654612885565b86612b6d565b5f93601f831160011461072a5761070883805f5160206145555f395f51905f5296975f9161071f575b50612ba5565b90555b61071a60405192839283612bb7565b0390a2005b905084013588610702565b601f19831694815f5260205f20905f5b8781106107815750845f5160206145555f395f51905f52969710610768575b5050600183811b01905561070b565b8301355f19600386901b60f8161c191690558580610759565b9091602060018192858801358155019301910161073a565b346105ad5760203660031901126105ad576107b26125ab565b6001600160a01b03165f9081525f5160206145355f395f51905f52602090815260409182902054915160ff9092161515825290f35b346105ad5760203660031901126105ad57335f9081525f5160206145355f395f51905f526020526040902054600435906108239060ff16612bde565b805f52601160205261083b60ff60405f205416612b14565b805f526010602052600860405f2001600160b01b60ff60b01b198254161790555f5160206144f55f395f51905f52602060405160018152a2005b346105ad5760403660031901126105ad576105ea6004356108946125c1565b906108a66108a182612ff6565b613bf6565b613dac565b346105ad5760203660031901126105ad5760e06108ce6108c96125ab565b613720565b94604094919493929351968752602087015260408601526060850152608084015260a083015260c0820152f35b346105ad5760203660031901126105ad5761092e61091a600435613672565b604051918291602083526020830190612587565b0390f35b346105ad5760203660031901126105ad57600435805f52601160205261095e60ff60405f205416612b14565b5f5260106020526020600660405f200154421115604051908152f35b346105ad576101003660031901126105ad576109946125ab565b602435608052335f9081525f5160206145355f395f51905f5260205260409020546109c19060ff16612bde565b6109c9614087565b6109dd6001600160a01b038216151561349e565b608051151580610d34575b15610cf8576109fa60643515156134e6565b610a076084351515613531565b610a1460a4351515613579565b610a214260c435116135d1565b610a3060c43560e4351161361c565b610a3b608051613127565b60e052602060c0525f905b6080518210610a685760405160c05181528061092e60c051820160e051612823565b600d5491610a758361345f565b600d55828160e05190610a8791612aec565b5282604051610a95816125d7565b81815260c05181016101005260443561010051526040810190606435825260608101916084358352608082019260a435845260a0830142815260c0840160c435815260e085019160e4358352610100860196600160a01b600190038b1688526101208701945f86526101408801965f88526101608901985f8a526040519b8c60c051610b20916125f3565b5f808e5261018083019d8e5290815260c051601090526040902060a081905290518155610100515160018201559051600282015590516003820155905160048201559051600582015590516006820155905160078201559351600890940180546001600160a01b0319166001600160a01b039590951694909417845551610ba990151584612c60565b511515610bb69083612c26565b511515610bc291612c43565b51805193906001600160401b03851161058b57610bf385610be8600960a0510154612885565b600960a05101612b6d565b60c05190601f8611600114610c83579480610c1992600196975f92610c78575050612ba5565b600960a05101555b805f52601160c0515260405f208360ff19825416179055610c4281856140a2565b604051606435815260843560c051820152604435915f5160206145155f395f51905f526040868060a01b03881693a40190610a46565b0151905087806104ba565b90600960a051015f5260c0515f20915f5b601f1988168110610cdf575091869160019697938794601f19811610610cc7575b505050811b01600960a0510155610c21565b01515f1960f88460031b161c19169055868080610cb5565b81830151845560c0516001909401939283019201610c94565b60405162461bcd60e51b8152602060048201526014602482015273496e76616c696420636f756e742028312d38302960601b6044820152606490fd5b50603260805111156109e8565b346105ad5760203660031901126105ad57335f9081525f5160206145355f395f51905f52602052604090205460043590610d7d9060ff16612bde565b805f526011602052610d9560ff60405f205416612b14565b805f52601060205260ff600860405f20015460a01c1615610de357805f526010602052600860405f200160ff60b01b1981541690555f5160206144f55f395f51905f5260206040515f8152a2005b60405162461bcd60e51b8152602060048201526016602482015275135d5cdd081899481c995919595b595908199a5c9cdd60521b6044820152606490fd5b346105ad5760207f9440a95c3c13d1dc9ebcfdcf7b9963a680dd7ca9d62246a91a9be07e6de1f86f610e5236612856565b9290610e5c613e1d565b8315610e8d57610e6d6108a1612fbc565b610e7681613c30565b505b60405193151584526001600160a01b031692a2005b610e986108a1612fbc565b610ea181613d2e565b50610e78565b346105ad5760803660031901126105ad57610ec06125ab565b610ec86125c1565b6064359190604435906001600160401b0384116105ad57366023850112156105ad57836004013592610ef9846129ff565b93610f0760405195866125f3565b80855236602482880101116105ad576020815f9260246105ea99018389013786010152610f35838383612c8a565b33613f51565b346105ad5760203660031901126105ad576004355f52601060205260405f20805461092e60018301549260ff600282015491600381015460048201546005830154600684015491600785015493610f99600960088801549701612961565b976040519b8c9b8c5260208c015260408b015260608a0152608089015260a088015260c087015260e086015260018060a01b038116610100860152818160a01c161515610120860152818160a81c16151561014086015260b01c1615156101608401526101a06101808401526101a0830190612587565b346105ad5761101e36612856565b6001600160a01b0390911690811561108557335f52600560205260405f20825f5260205260405f209015159060ff1981541660ff83161790556040519081527f17307eab39ab6107e8899845ad3d59bd9653f200f220920489ca2b5937696c3160203392a3005b50630b61174360e31b5f5260045260245ffd5b346105ad575f3660031901126105ad5760206040515f8152f35b346105ad5760203660031901126105ad57600435805f5260116020526110de60ff60405f205416612b14565b5f526010602052602060ff600860405f20015460b01c166040519015158152f35b346105ad575f3660031901126105ad576040515f60015461111f81612885565b80845290600181169081156111a55750600114611147575b61092e8361091a818503826125f3565b60015f9081527fb10e2d527612073b26eecdfd717e6a320cf44b4afac2b0732d9fcbe2b7fa0cf6939250905b80821061118b5750909150810160200161091a611137565b919260018160209254838588010152019101909291611173565b60ff191660208086019190915291151560051b8401909101915061091a9050611137565b346105ad5760403660031901126105ad576111e26125c1565b6004355f52600b60205260405f209060018060a01b03165f52602052602060ff60405f2054166040519015158152f35b346105ad5760203660031901126105ad5760043561122e612a3e565b50805f52601160205261124760ff60405f205416612b14565b5f52601060205261092e60405f206112f5600960405192611267846125d7565b8054845260018101546020850152600281015460408501526003810154606085015260048101546080850152600581015460a0850152600681015460c0850152600781015460e085015260ff600882015460018060a01b038116610100870152818160a01c161515610120870152818160a81c16151561014087015260b01c16151561016085015201612961565b61018082015260405191829160208352602083019061268a565b346105ad575f3660031901126105ad57600a546040516001600160a01b039091168152602090f35b346105ad575f3660031901126105ad5761134f613e1d565b611357614087565b600160ff19600c541617600c557f62e78cea01bee320cd4e420270b5ea74000d11b0c9f74754ebdbfc544b05a2586020604051338152a1005b346105ad575f3660031901126105ad576113a8613e1d565b600a80546001600160a01b031981169091555f906001600160a01b03165f5160206145755f395f51905f528280a3005b346105ad5760203660031901126105ad5760206113fb6113f66125ab565b61346d565b604051908152f35b346105ad575f3660031901126105ad5761092e61091a6128bd565b346105ad5760203660031901126105ad57602061143c60043561396a565b6040516001600160a01b039091168152f35b346105ad575f3660031901126105ad57602060ff600c54166040519015158152f35b346105ad5760203660031901126105ad57600435805f52601160205261149c60ff60405f205416612b14565b5f52601060205260405f206040516114b3816125d7565b815481526001820154602082015260028201546040820152600382015460608201526004820154608082015260058201549060a08101918252600683015460c0820152600783015460e082015261018061154f600960088601549560018060a01b03871661010086015260ff610120860197818160a01c1615158952818160a81c16151561014088015260b01c16151561016086015201612961565b91015251906301e13380820180921161158457602091421015908161157a575b506040519015158152f35b905051158261156f565b634e487b7160e01b5f52601160045260245ffd5b346105ad5760403660031901126105ad576115b16125ab565b602435906001600160a01b03811615611691576115cd8161346d565b6115d681613127565b925f925f5b83811061162c5785856115ed81613127565b915f5b82811061160d576040516020808252819061092e90820187612823565b8061161a60019284612aec565b516116258287612aec565b52016115f0565b6116368183613008565b805f52601160205260ff60405f20541680611679575b61165a575b506001016115db565b856116729161166c600194988a612aec565b5261345f565b9490611651565b50805f52601060205283600160405f2001541461164c565b60405162461bcd60e51b8152602060048201526014602482015273496e76616c69642075736572206164647265737360601b6044820152606490fd5b346105ad5760203660031901126105ad576004356001600160401b0381116105ad576116fd903690600401612789565b611705613e1d565b6001600160401b03811161058b5761171e600e54612885565b601f81116117f4575b505f91601f82116001146117785761175582805f5160206145f55f395f51905f52955f9161176d5750612ba5565b600e555b61176860405192839283612bb7565b0390a1005b905083013586610702565b600e5f9081525f5160206144d55f395f51905f5290601f198416905b8181106117dc575093835f5160206145f55f395f51905f5295106117c3575b5050600182811b01600e55611759565b8201355f19600385901b60f8161c1916905583806117b3565b83860135835560209586019560019093019201611794565b600e5f5261182a905f5160206144d55f395f51905f52601f840160051c81019160208510611830575b601f0160051c0190612b57565b82611727565b909150819061181d565b346105ad5760203660031901126105ad5761092e6118726118596125ab565b61186d6001600160a01b03821615156130b7565b613e44565b604051918291602083526020830190612823565b346105ad5760203660031901126105ad5761189f6125ab565b6105ca613e1d565b346105ad5760203660031901126105ad576004356008548110156118df576118d0602091613447565b90549060031b1c604051908152f35b63295f44f760e21b5f525f60045260245260445ffd5b346105ad5760603660031901126105ad5761193e61194c6119246119176125ab565b6044359060243590613159565b93604096919395965197889760c0895260c0890190612823565b908782036020890152612731565b93604086015260608501526080840152151560a08301520390f35b346105ad5760203660031901126105ad57600435805f52601160205261199360ff60405f205416612b14565b61199c8161396a565b6001600160a01b031633148015611ae2575b8015611aae575b15611a70576119c38161396a565b815f52601160205260405f2060ff198154169055815f526010602052611a21600960405f205f81555f60018201555f60028201555f60038201555f60048201555f60058201555f60068201555f60078201555f600882015501613069565b815f52600f602052611a3560405f20613069565b611a3f338361399e565b506001600160a01b0316907f8f0a80450bfbfadc6d05658c9dc494e43beb79be53b44adbb146c6d5040f87705f80a3005b60405162461bcd60e51b8152602060048201526016602482015275139bdd081bdddb995c881b9bdc88185c1c1c9bdd995960521b6044820152606490fd5b506001600160a01b03611ac08261396a565b165f90815260056020908152604080832033845290915290205460ff166119b5565b50336001600160a01b03611af583612a1a565b16146119ae565b346105ad576105ea611b0d366127e9565b9060405192611b1d6020856125f3565b5f8452610f35838383612c8a565b346105ad575f3660031901126105ad57611b43613e1d565b600c5460ff811615611b825760ff1916600c557f5db9ee0a495bf2e6ff9c91a7834c1ba4fdd244a5e8aa4e537bd38aeae4b073aa6020604051338152a1005b638dfc202b60e01b5f5260045ffd5b346105ad5760403660031901126105ad57611baa6125c1565b336001600160a01b03821603611bc6576105ea90600435613dac565b63334bd91960e11b5f5260045ffd5b346105ad5760203660031901126105ad57600435805f526011602052611c0160ff60405f205416612b14565b5f5260106020526020600760405f200154421015604051908152f35b346105ad5760403660031901126105ad5760206113fb611c3b6125ab565b60243590613008565b346105ad5760403660031901126105ad576105ea600435611c636125c1565b90611c706108a182612ff6565b613cb5565b346105ad5760403660031901126105ad576004356001600160401b0381116105ad57611ca590369060040161262d565b611cad6125c1565b90805191611cd3611cbd84612616565b93611ccb60405195866125f3565b808552612616565b602084019290601f19013684376001600160a01b03909116905f5b8151811015611d2957600190836001600160a01b03611d16611d108487612aec565b5161396a565b1614611d228288612aec565b5201611cee565b50505090604051918291602083019060208452518091526040830191905f5b818110611d56575050500390f35b82511515845285945060209384019390920191600101611d48565b346105ad5760203660031901126105ad5760206113fb600435612ff6565b346105ad576105ea611da0366127e9565b91612c8a565b346105ad5760203660031901126105ad57600435805f526011602052611dd260ff60405f205416612b14565b5f52601060205260405f20604051611de9816125d7565b8154815260018201546020820152600282015460408201526003820154606082015260048201546080820152600582015460a08201908152600683015460c0830152600783015460e083015260088301549160018060a01b038316610100820152610180611e87600961012084019660ff8760a01c161515885260ff610140860197818160a81c161515895260b01c16151561016086015201612961565b910152519162ed4e008301809311611584576020924210159182611eb7575b508161157a57506040519015158152f35b5115915083611ea6565b346105ad5760203660031901126105ad57335f9081525f5160206145355f395f51905f52602052604090205460043590611efd9060ff16612bde565b805f526011602052611f1560ff60405f205416612b14565b5f908152601060205260409020600801805460ff60a01b1916600160a01b179055005b346105ad5760203660031901126105ad57335f9081525f5160206145355f395f51905f52602052604090205460043590611f749060ff16612bde565b805f526011602052611f8c60ff60405f205416612b14565b805f52601060205260ff600860405f20015460a81c16612002575f818152601060205260409020600801805461ffff60a81b191661010160a81b1790556001600160a01b03611fda8261396a565b16907f5dd59f4285b36241394b73f8f7ae03d0290b030a86803cf2562ecf33eeb617bd5f80a3005b60405162461bcd60e51b815260206004820152601660248201527514995dd85c9908185b1c9958591e4818db185a5b595960521b6044820152606490fd5b346105ad575f3660031901126105ad576020600854604051908152f35b346105ad5761206b366127b6565b600a549192916001600160a01b031633148015612191575b1561214d57815f5260116020526120a060ff60405f205416612b14565b5f828152600f60205260409020926001600160401b03821161058b576120ca826106d38654612885565b5f93601f83116001146120f85761070883805f5160206144b55f395f51905f5296975f9161071f5750612ba5565b601f19831694815f5260205f20905f5b8781106121355750845f5160206144b55f395f51905f52969710610768575050600183811b01905561070b565b90916020600181928588013581550193019101612108565b606460405162461bcd60e51b815260206004820152602060248201527f43616c6c6572206973206e6f74206f776e6572206e6f72206578656375746f726044820152fd5b50335f9081525f5160206145355f395f51905f52602052604090205460ff16612083565b346105ad5760203660031901126105ad576004356001600160401b0381116105ad576121e590369060040161262d565b6121ef8151612a9d565b905f5b81518110156122d4578061220860019284612aec565b515f52601060205260405f206122b2600960405192612226846125d7565b80548452858101546020850152600281015460408501526003810154606085015260048101546080850152600581015460a0850152600681015460c0850152600781015460e085015260ff6008820154878060a01b038116610100870152818160a01c161515610120870152818160a81c16151561014087015260b01c16151561016085015201612961565b6101808201526122c28286612aec565b526122cd8185612aec565b50016121f2565b6040516020808252819061092e90820186612731565b346105ad5760403660031901126105ad576123036125ab565b60243561230f8161396a565b331515806123c1575b80612394575b6123815781906001600160a01b0384811691167f8c5be1e5ebec7d5bd14f71427d1e84f3dd0314c0f7b2291e5b200ac8c7c3b9255f80a45f90815260046020526040902080546001600160a01b0319166001600160a01b03909216919091179055005b63a9fbf51f60e01b5f523360045260245ffd5b506001600160a01b0381165f90815260056020908152604080832033845290915290205460ff161561231e565b506001600160a01b038116331415612318565b346105ad5760203660031901126105ad57602061143c600435612a1a565b346105ad575f3660031901126105ad5760206040515f5160206145d55f395f51905f528152f35b346105ad575f3660031901126105ad576040515f5f5461243881612885565b80845290600181169081156111a5575060011461245f5761092e8361091a818503826125f3565b5f8080527f290decd9548b62a8d60345a988386fc84ba6bc95484008f6362f93160ef3e563939250905b8082106124a15750909150810160200161091a611137565b919260018160209254838588010152019101909291612489565b346105ad5760203660031901126105ad5760043563ffffffff60e01b81168091036105ad57602090637965db0b60e01b81149081156124ff57506040519015158152f35b63780e9d6360e01b811491508115612519575b508261156f565b6380ac58cd60e01b81149150811561254b575b811561253a575b5082612512565b6301ffc9a760e01b14905082612533565b635b5e139f60e01b8114915061252c565b346105ad5760203660031901126105ad576020906004355f526011825260ff60405f20541615158152f35b805180835260209291819084018484015e5f828201840152601f01601f1916010190565b600435906001600160a01b03821682036105ad57565b602435906001600160a01b03821682036105ad57565b6101a081019081106001600160401b0382111761058b57604052565b601f909101601f19168101906001600160401b0382119082101761058b57604052565b6001600160401b03811161058b5760051b60200190565b9080601f830112156105ad57813561264481612616565b9261265260405194856125f3565b81845260208085019260051b8201019283116105ad57602001905b82821061267a5750505090565b813581526020918201910161266d565b906101a061018061272e93805184526020810151602085015260408101516040850152606081015160608501526080810151608085015260a081015160a085015260c081015160c085015260e081015160e085015260018060a01b0361010082015116610100850152610120810151151561012085015261014081015115156101408501526101608101511515610160850152015191816101808201520190612587565b90565b9080602083519182815201916020808360051b8301019401925f915b83831061275c57505050505090565b909192939460208061277a600193601f19868203018752895161268a565b9701930193019193929061274d565b9181601f840112156105ad578235916001600160401b0383116105ad57602083818601950101116105ad57565b9060406003198301126105ad5760043591602435906001600160401b0382116105ad576127e591600401612789565b9091565b60609060031901126105ad576004356001600160a01b03811681036105ad57906024356001600160a01b03811681036105ad579060443590565b90602080835192838152019201905f5b8181106128405750505090565b8251845260209384019390920191600101612833565b60409060031901126105ad576004356001600160a01b03811681036105ad579060243580151581036105ad5790565b90600182811c921680156128b3575b602083101461289f57565b634e487b7160e01b5f52602260045260245ffd5b91607f1691612894565b604051905f82600e54916128d083612885565b808352926001811690811561294257506001146128f6575b6128f4925003836125f3565b565b50600e5f90815290915f5160206144d55f395f51905f525b8183106129265750509060206128f4928201016128e8565b602091935080600191548385890101520191019091849261290e565b602092506128f494915060ff191682840152151560051b8201016128e8565b9060405191825f82549261297484612885565b80845293600181169081156129dd5750600114612999575b506128f4925003836125f3565b90505f9291925260205f20905f915b8183106129c15750509060206128f4928201015f61298c565b60209193508060019154838589010152019101909184926129a8565b9050602092506128f494915060ff191682840152151560051b8201015f61298c565b6001600160401b03811161058b57601f01601f191660200190565b612a238161396a565b505f908152600460205260409020546001600160a01b031690565b60405190612a4b826125d7565b6060610180835f81525f60208201525f60408201525f838201525f60808201525f60a08201525f60c08201525f60e08201525f6101008201525f6101208201525f6101408201525f6101608201520152565b90612aa782612616565b612ab460405191826125f3565b8281528092612ac5601f1991612616565b01905f5b828110612ad557505050565b602090612ae0612a3e565b82828501015201612ac9565b8051821015612b005760209160051b010190565b634e487b7160e01b5f52603260045260245ffd5b15612b1b57565b60405162461bcd60e51b8152602060048201526014602482015273151bdad95b88191bd95cc81b9bdd08195e1a5cdd60621b6044820152606490fd5b818110612b62575050565b5f8155600101612b57565b9190601f8111612b7c57505050565b6128f4925f5260205f20906020601f840160051c8301931061183057601f0160051c0190612b57565b8160011b915f199060031b1c19161790565b90918060409360208452816020850152848401375f828201840152601f01601f1916010190565b15612be557565b60405162461bcd60e51b815260206004820152601960248201527821b0b63632b91034b9903737ba1030b71032bc32b1baba37b960391b6044820152606490fd5b805460ff60a81b191691151560a81b60ff60a81b16919091179055565b805460ff60b01b191691151560b01b60ff60b01b16919091179055565b805460ff60a01b191691151560a01b60ff60a01b16919091179055565b9190820180921161158457565b9091906001600160a01b0383168015612fa95760ff600c5416612f66573315159384612f0e575b5f848152600260205260409020546001600160a01b03169480612e7e575b5084158015612e5d575b825f52600360205260405f2060018154019055845f52600260205260405f208360018060a01b03198254161790558483875f5160206145955f395f51905f525f80a415612de057600854845f5260096020528060405f2055600160401b81101561058b5784612d51826001612d699401600855613447565b90919082549060031b91821b915f19901b1916179055565b818503612da0575b50506001600160a01b0316808303612d8857505050565b6364283d7b60e01b5f5260045260245260445260645ffd5b612da99061346d565b5f19810191908211611584575f52600660205260405f20815f526020528260405f2055825f52600760205260405f20555f80612d71565b848214612d6957612df08561346d565b845f52600760205260405f205490865f52600660205260405f2091818103612e32575b50855f5260076020525f60408120555f526020525f6040812055612d69565b815f528260205260405f2054815f52836020528060405f20555f52600760205260405f20555f612e13565b612e6685614477565b855f52600360205260405f205f198154019055612cd9565b80612ebd575b15612e8f575f612ccf565b8385612ea757637e27328960e01b5f5260045260245ffd5b63177e802f60e01b5f523360045260245260445ffd5b503385148015612eec575b80612e8457505f848152600460205260409020546001600160a01b03163314612e84565b505f85815260056020908152604080832033845290915290205460ff16612ec8565b835f52601060205260ff600860405f20015460b01c1615612cb15760405162461bcd60e51b8152602060048201526015602482015274151bdad95b881d1c985b9cd9995c881b1bd8dad959605a1b6044820152606490fd5b60405162461bcd60e51b815260206004820152601b60248201527a151bdad95b881d1c985b9cd9995c881dda1a5b19481c185d5cd959602a1b6044820152606490fd5b633250574960e11b5f525f60045260245ffd5b5f5160206145d55f395f51905f525f52600b6020527f722c076037ad8ffdcc6741eab5f84938edc5ad0e2aada3e8603ecd986134c0fc5490565b5f52600b602052600160405f20015490565b6130118161346d565b8210156130395760018060a01b03165f52600660205260405f20905f5260205260405f205490565b63295f44f760e21b5f5260018060a01b031660045260245260445ffd5b8181029291811591840414171561158457565b6130738154612885565b908161307d575050565b81601f5f931160011461308e575055565b818352602083206130aa91601f0160051c810190600101612b57565b8082528160208120915555565b156130be57565b60405162461bcd60e51b8152602060048201526016602482015275496e76616c69642077616c6c6574206164647265737360501b6044820152606490fd5b9190820391821161158457565b8115613113570490565b634e487b7160e01b5f52601260045260245ffd5b9061313182612616565b61313e60405191826125f3565b828152809261314f601f1991612616565b0190602036910137565b9092906131706001600160a01b03821615156130b7565b8215158061343c575b156133f75761318790613e44565b9182519283851080156133ef575b156133ac578315801593906133a5576131ae8386612c7d565b5f19810190811161158457836131c391613109565b915b82945f1461339e576131d78488613109565b6001810180911161158457925b83948888115f14613398576131f989896130fc565b818111156133905750905b8761320f838b612c7d565b1094821561333157505061322281613127565b9161322c82612a9d565b985f5b8381106132425750505050959493929190565b8061325861325260019385612c7d565b85612aec565b51806132648389612aec565b525f5260106020528b61331f8260405f2092613314600960405195613288876125d7565b80548752888101546020880152600281015460408801526003810154606088015260048101546080880152600581015460a0880152600681015460c0880152600781015460e088015260ff60088201548a8060a01b0381166101008a0152818160a01c1615156101208a0152818160a81c1615156101408a015260b01c16151561016088015201612961565b610180850152612aec565b5261332a818d612aec565b500161322f565b955095505050945060209460405161334987826125f3565b5f81525f3681376040519661335e81896125f3565b5f8852601f1981015f5b81811061337a57505050959493929190565b8290613384612a3e565b82828d01015201613368565b905090613204565b5f6131f9565b5f926131e4565b5f916131c5565b60405162461bcd60e51b815260206004820152601b60248201527a4f6666736574206578636565647320746f74616c20746f6b656e7360281b6044820152606490fd5b508315613195565b60405162461bcd60e51b815260206004820152601f60248201527f4c696d6974206d757374206265206265747765656e203120616e6420313030006044820152606490fd5b506064831115613179565b600854811015612b005760085f5260205f2001905f90565b5f1981146115845760010190565b6001600160a01b0316801561348b575f52600360205260405f205490565b6322718ad960e21b5f525f60045260245ffd5b156134a557565b60405162461bcd60e51b8152602060048201526019602482015278496e76616c696420726563697069656e74206164647265737360381b6044820152606490fd5b156134ed57565b60405162461bcd60e51b815260206004820152601c60248201527b05072696365206d7573742062652067726561746572207468616e20360241b6044820152606490fd5b1561353857565b60405162461bcd60e51b8152602060048201526019602482015278496e76616c6964207265776172642070657263656e7461676560381b6044820152606490fd5b1561358057565b60405162461bcd60e51b815260206004820152602360248201527f546f74616c20746f6b656e73206d75737420626520677265617465722074686160448201526206e20360ec1b6064820152608490fd5b156135d857565b60405162461bcd60e51b815260206004820152601c60248201527b436c6f73652064617465206d75737420626520696e2066757475726560201b6044820152606490fd5b1561362357565b60405162461bcd60e51b815260206004820152602160248201527f456e642064617465206d75737420626520616674657220636c6f7365206461746044820152606560f81b6064820152608490fd5b805f52601160205261368a60ff60405f205416612b14565b805f52600f60205261369e60405f20612961565b6136a66128bd565b90805161371a575080516136ca5750506040516136c46020826125f3565b5f815290565b600561272e916020806136dd81966143b2565b6040519684889551918291018487015e8401908282015f8152815193849201905e010164173539b7b760d91b815203601a198101845201826125f3565b91505090565b5f9190829081908190819081906137459061186d6001600160a01b03821615156130b7565b8051968715613951575f9692965b8251811015613945576137668184612aec565b515f52601060205260405f209360405161377f816125d7565b855481526001860154602082015260028601549060408101918252600387015491606082019283526004880154906080830191825260058901549160a0840192835260068a015460c085015260078a015460e085015260088a015493600160a01b60019003851661010082015261012081019a8560a01c60ff1615158c526101408201958060a81c60ff161515875260b01c60ff16151561016083015260090161382890612961565b90610180015251905161383a91613056565b938493516138489085613056565b61271090049a8b9461385991612c7d565b9a61386391612c7d565b8851909c9015613934576138769061345f565b975b8251613924575b5115613895575b50505050600101969296613753565b6138a09051426130fc565b62ed4e00811061388657939992936301e13380116138f85751600193929190156138e5576138da926138d491851c90612c7d565b90612c7d565b965b905f8080613886565b6138d4906138f293612c7d565b966138dc565b9091989250511561390d575b506001906138dc565b6001919761391d91831c90612c7d565b9690613904565b9861392e9061345f565b9861387f565b979d61393f9061345f565b9d613878565b50969796929491929050565b9750505050505050505f905f905f905f905f905f905f90565b5f818152600260205260409020546001600160a01b031690811561398c575090565b637e27328960e01b5f5260045260245ffd5b60ff600c5416612f66575f818152600260205260409020546001600160a01b03908116921680151580613b69575b5050811580159081613b48575b5f83815260026020526040812080546001600160a01b03191690558390855f5160206145955f395f51905f528280a415613acd5750600854815f5260096020528060405f2055600160401b81101561058b5781612d51826001613a3f9401600855613447565b6008545f19810190811161158457815f526009602052613a6360405f205491613447565b90549060031b1c613a7781612d5184613447565b5f52600960205260405f20555f5260096020525f60408120556008548015613ab9575f1901613aa581613447565b8154905f199060031b1b1916905560085590565b634e487b7160e01b5f52603160045260245ffd5b15613a3f57613adb8261346d565b815f52600760205260405f205490835f52600660205260405f2091818103613b1d575b50825f5260076020525f60408120555f526020525f6040812055613a3f565b815f528260205260405f2054815f52836020528060405f20555f52600760205260405f20555f613afe565b613b5183614477565b835f52600360205260405f205f1981540190556139d9565b80613ba7575b15613b7a57806139cc565b82613b925750637e27328960e01b5f5260045260245ffd5b63177e802f60e01b5f5260045260245260445ffd5b508083148015613bd6575b80613b6f57505f828152600460205260409020546001600160a01b03168114613b6f565b50825f52600560205260405f20815f5260205260ff60405f205416613bb2565b5f818152600b6020908152604080832033845290915290205460ff1615613c1a5750565b63e2517d3f60e01b5f523360045260245260445ffd5b6001600160a01b0381165f9081525f5160206145355f395f51905f52602052604090205460ff16613cb0576001600160a01b03165f8181525f5160206145355f395f51905f5260205260408120805460ff191660011790553391905f5160206145d55f395f51905f52905f5160206144955f395f51905f529080a4600190565b505f90565b5f818152600b602090815260408083206001600160a01b038616845290915290205460ff16613d28575f818152600b602090815260408083206001600160a01b0395909516808452949091528120805460ff19166001179055339291905f5160206144955f395f51905f529080a4600190565b50505f90565b6001600160a01b0381165f9081525f5160206145355f395f51905f52602052604090205460ff1615613cb0576001600160a01b03165f8181525f5160206145355f395f51905f5260205260408120805460ff191690553391905f5160206145d55f395f51905f52905f5160206145b55f395f51905f529080a4600190565b5f818152600b602090815260408083206001600160a01b038616845290915290205460ff1615613d28575f818152600b602090815260408083206001600160a01b0395909516808452949091528120805460ff19169055339291905f5160206145b55f395f51905f529080a4600190565b600a546001600160a01b03163303613e3157565b63118cdaa760e01b5f523360045260245ffd5b600d545f805b828110613ec85750613e5b90613127565b915f905f5b838110613e6e575050505090565b805f52601160205260ff60405f20541680613eab575b613e91575b600101613e60565b91613ea3818461166c60019489612aec565b929050613e89565b50613eb58161396a565b6001600160a01b03838116911614613e84565b805f52601160205260ff60405f20541680613eff575b613eeb575b600101613e4a565b90613ef760019161345f565b919050613ee3565b50613f098161396a565b6001600160a01b03858116911614613ede565b600a80546001600160a01b039283166001600160a01b0319821681179092559091165f5160206145755f395f51905f525f80a3565b823b613f5f575b5050505050565b604051630a85bd0160e11b81526001600160a01b039182166004820152918116602483015260448201939093526080606482015291169160209082908190613fab906084830190612587565b03815f865af15f9181614042575b5061400e57503d15614007573d613fcf816129ff565b90613fdd60405192836125f3565b81523d5f602083013e5b805190816140025782633250574960e11b5f5260045260245ffd5b602001fd5b6060613fe7565b6001600160e01b03191663757a42ff60e11b0161403057505f80808080613f58565b633250574960e11b5f5260045260245ffd5b9091506020813d60201161407f575b8161405e602093836125f3565b810103126105ad57516001600160e01b0319811681036105ad57905f613fb9565b3d9150614051565b60ff600c541661409357565b63d93c066560e01b5f5260045ffd5b90602090604051906140b483836125f3565b5f82526001600160a01b038416938415612fa95760ff600c541661436f575f8281526002855260409020546001600160a01b03168015801591908261434f575b5f8881526003885260408082208054600101905586825260028952812080546001600160a01b0319168a1790558590899084905f5160206145955f395f51905f529080a4156142d957600854845f52600987528060405f2055600160401b81101561058b5784612d5182600161416d9401600855613447565b86810361429e575b5061428b573b614186575b50505050565b916141c391819495936040519384928392630a85bd0160e11b84523360048501525f60248501526044840152608060648401526084830190612587565b03815f885af15f918161424b575b506142265750503d1561421e573d906141e9826129ff565b916141f760405193846125f3565b82523d5f8284013e5b8151918261421b5783633250574960e11b5f5260045260245ffd5b01fd5b606090614200565b909291506001600160e01b03191663757a42ff60e11b0161403057505f808080614180565b9091508381813d8311614284575b61426381836125f3565b810103126105ad57516001600160e01b0319811681036105ad57905f6141d1565b503d614259565b6339e3563760e11b5f525f60045260245ffd5b6142a78361346d565b5f19810190811161158457875f526006875260405f20815f5287528460405f2055845f526007875260405f2055614175565b80871461416d576142e98161346d565b845f526007875260405f205490825f526006885260405f2091818103614327575b50855f52600788525f60408120555f5286525f604081205561416d565b815f5282895260405f2054815f52838a528060405f20555f526007895260405f20555f61430a565b61435885614477565b815f526003875260405f205f1981540190556140f4565b60405162461bcd60e51b815260048101859052601b60248201527a151bdad95b881d1c985b9cd9995c881dda1a5b19481c185d5cd959602a1b6044820152606490fd5b8015614457575f81805b61444357506143ca816129ff565b906143d860405192836125f3565b808252601f196143e7826129ff565b013660208401375b8092801561443c575f198201918211611584578193600a820660300192836030116115845784511115612b0057600a9260f81b6001600160f81b0319165f1a908401601f015304916143ef565b5050905090565b9061444f600a9161345f565b9104806143bc565b506040516144666040826125f3565b60018152600360fc1b602082015290565b5f90815260046020526040902080546001600160a01b031916905556fe2f8788117e7eff1d82e926ec794901d17c78024a50270940304540a733656f0d931f495b9a8e5d8e61946ea5d61e021f636cfe213a801f97589c18c152e408bdbb7b4a454dc3493923482f07822329ed19e8244eff582cc204f8554c3620c3fd90e929fbd463dd0bab90901d998cd0d0908551c0e028b559f240ef01b23058be19cc59039f8eb7ba436b5b291277e03e5209d6d8e48c1bdba4716897fc614b99722c076037ad8ffdcc6741eab5f84938edc5ad0e2aada3e8603ecd986134c0fb0aa07a7d01a8e97dec64df7f721c779f94884dfd3f5a0c61bfc2dd469032661d8be0079c531659141344cd1fd0a4f28419497f9722a3daafe3b4186f6b6457e0ddf252ad1be2c89b69c2b068fc378daa952ba7f163c4a11628f55a4df523b3eff6391f5c32d9c69d2a47ea670b442974b53935d1edc7fd64eb21e047a839171bd8aa0f3194971a2a116679f7c2090f6939c8d4e01a2a8d7e41d55e5351469e636741b2fc379fad678116fe3d4d4b9a1a184ab53ba36b86ad0fa66340b1ab41ada2646970667358221220b3818b0318ee85c97ec4cf4adbcb0a322cddb36cbd0816a15a04f5a89f543bb164736f6c634300081c00332f8788117e7eff1d82e926ec794901d17c78024a50270940304540a733656f0ddf7de25b7f1fd6d0b5205f0e18f1f35bd7b8d84cce336588d184533ce43a6f76722c076037ad8ffdcc6741eab5f84938edc5ad0e2aada3e8603ecd986134c0fb",
  "linkReferences": {},
  "deployedLinkReferences": {},
  "immutableReferences": {},
  "inputSourceName": "project/contracts/DZNFT.sol",
  "buildInfoId": "solc-0_8_28-5883d02c21f2138d36474cc2e0c52e4d8502f264"
}