{
  "_format": "hh3-artifact-1",
  "contractName": "FundRaisingFactory",
  "sourceName": "contracts/FundRaisingFactory.sol",
  "abi": [
    {
      "inputs": [],
      "stateMutability": "nonpayable",
      "type": "constructor"
    },
    {
      "inputs": [
        {
          "internalType": "address",
          "name": "owner",
          "type": "address"
        }
      ],
      "name": "OwnableInvalidOwner",
      "type": "error"
    },
    {
      "inputs": [
        {
          "internalType": "address",
          "name": "account",
          "type": "address"
        }
      ],
      "name": "OwnableUnauthorizedAccount",
      "type": "error"
    },
    {
      "anonymous": false,
      "inputs": [
        {
          "indexed": true,
          "internalType": "address",
          "name": "coreContract",
          "type": "address"
        },
        {
          "indexed": false,
          "internalType": "bool",
          "name": "active",
          "type": "bool"
        }
      ],
      "name": "DeploymentStatusChanged",
      "type": "event"
    },
    {
      "anonymous": false,
      "inputs": [
        {
          "indexed": true,
          "internalType": "address",
          "name": "deployer",
          "type": "address"
        },
        {
          "indexed": true,
          "internalType": "address",
          "name": "coreContract",
          "type": "address"
        },
        {
          "indexed": false,
          "internalType": "address",
          "name": "analyticsContract",
          "type": "address"
        },
        {
          "indexed": false,
          "internalType": "address",
          "name": "adminContract",
          "type": "address"
        },
        {
          "indexed": false,
          "internalType": "address",
          "name": "dzNFT",
          "type": "address"
        },
        {
          "indexed": false,
          "internalType": "address",
          "name": "usdtToken",
          "type": "address"
        }
      ],
      "name": "FundRaisingDeployed",
      "type": "event"
    },
    {
      "anonymous": false,
      "inputs": [
        {
          "indexed": true,
          "internalType": "address",
          "name": "previousOwner",
          "type": "address"
        },
        {
          "indexed": true,
          "internalType": "address",
          "name": "newOwner",
          "type": "address"
        }
      ],
      "name": "OwnershipTransferred",
      "type": "event"
    },
    {
      "inputs": [
        {
          "internalType": "uint256",
          "name": "",
          "type": "uint256"
        }
      ],
      "name": "allDeployments",
      "outputs": [
        {
          "internalType": "address",
          "name": "",
          "type": "address"
        }
      ],
      "stateMutability": "view",
      "type": "function"
    },
    {
      "inputs": [
        {
          "internalType": "address",
          "name": "dzNFT",
          "type": "address"
        },
        {
          "internalType": "address",
          "name": "usdtToken",
          "type": "address"
        }
      ],
      "name": "deployFundRaising",
      "outputs": [
        {
          "internalType": "address",
          "name": "coreContract",
          "type": "address"
        },
        {
          "internalType": "address",
          "name": "analyticsContract",
          "type": "address"
        },
        {
          "internalType": "address",
          "name": "adminContract",
          "type": "address"
        }
      ],
      "stateMutability": "nonpayable",
      "type": "function"
    },
    {
      "inputs": [
        {
          "internalType": "address",
          "name": "",
          "type": "address"
        }
      ],
      "name": "deployments",
      "outputs": [
        {
          "internalType": "address",
          "name": "coreContract",
          "type": "address"
        },
        {
          "internalType": "address",
          "name": "analyticsContract",
          "type": "address"
        },
        {
          "internalType": "address",
          "name": "adminContract",
          "type": "address"
        },
        {
          "internalType": "address",
          "name": "deployer",
          "type": "address"
        },
        {
          "internalType": "uint256",
          "name": "deployedAt",
          "type": "uint256"
        },
        {
          "internalType": "bool",
          "name": "active",
          "type": "bool"
        }
      ],
      "stateMutability": "view",
      "type": "function"
    },
    {
      "inputs": [],
      "name": "getActiveDeploymentsCount",
      "outputs": [
        {
          "internalType": "uint256",
          "name": "",
          "type": "uint256"
        }
      ],
      "stateMutability": "view",
      "type": "function"
    },
    {
      "inputs": [
        {
          "internalType": "address",
          "name": "coreContract",
          "type": "address"
        }
      ],
      "name": "getDeploymentInfo",
      "outputs": [
        {
          "components": [
            {
              "internalType": "address",
              "name": "coreContract",
              "type": "address"
            },
            {
              "internalType": "address",
              "name": "analyticsContract",
              "type": "address"
            },
            {
              "internalType": "address",
              "name": "adminContract",
              "type": "address"
            },
            {
              "internalType": "address",
              "name": "deployer",
              "type": "address"
            },
            {
              "internalType": "uint256",
              "name": "deployedAt",
              "type": "uint256"
            },
            {
              "internalType": "bool",
              "name": "active",
              "type": "bool"
            }
          ],
          "internalType": "struct FundRaisingFactory.DeploymentInfo",
          "name": "",
          "type": "tuple"
        }
      ],
      "stateMutability": "view",
      "type": "function"
    },
    {
      "inputs": [],
      "name": "getDeploymentStats",
      "outputs": [
        {
          "internalType": "uint256",
          "name": "totalDeployments",
          "type": "uint256"
        },
        {
          "internalType": "uint256",
          "name": "activeDeployments",
          "type": "uint256"
        },
        {
          "internalType": "uint256",
          "name": "deploymentsFunded",
          "type": "uint256"
        },
        {
          "internalType": "address[]",
          "name": "recentDeployments",
          "type": "address[]"
        }
      ],
      "stateMutability": "view",
      "type": "function"
    },
    {
      "inputs": [
        {
          "internalType": "address",
          "name": "deployer",
          "type": "address"
        }
      ],
      "name": "getDeploymentsByDeployer",
      "outputs": [
        {
          "internalType": "address[]",
          "name": "coreContracts",
          "type": "address[]"
        }
      ],
      "stateMutability": "view",
      "type": "function"
    },
    {
      "inputs": [],
      "name": "getTotalDeployments",
      "outputs": [
        {
          "internalType": "uint256",
          "name": "",
          "type": "uint256"
        }
      ],
      "stateMutability": "view",
      "type": "function"
    },
    {
      "inputs": [],
      "name": "owner",
      "outputs": [
        {
          "internalType": "address",
          "name": "",
          "type": "address"
        }
      ],
      "stateMutability": "view",
      "type": "function"
    },
    {
      "inputs": [],
      "name": "renounceOwnership",
      "outputs": [],
      "stateMutability": "nonpayable",
      "type": "function"
    },
    {
      "inputs": [
        {
          "internalType": "address",
          "name": "coreContract",
          "type": "address"
        },
        {
          "internalType": "bool",
          "name": "active",
          "type": "bool"
        }
      ],
      "name": "setDeploymentStatus",
      "outputs": [],
      "stateMutability": "nonpayable",
      "type": "function"
    },
    {
      "inputs": [
        {
          "internalType": "address",
          "name": "newOwner",
          "type": "address"
        }
      ],
      "name": "transferOwnership",
      "outputs": [],
      "stateMutability": "nonpayable",
      "type": "function"
    }
  ],
  "bytecode": "0x608080604052346071573315605e575f8054336001600160a01b0319821681178355916001600160a01b03909116907f8be0079c531659141344cd1fd0a4f28419497f9722a3daafe3b4186f6b6457e09080a361604590816100768239f35b631e4fbdf760e01b5f525f60045260245ffd5b5f80fdfe60806040526004361015610011575f80fd5b5f5f3560e01c80630ac54d3714610a8e5780630e0b173d146109b057806316f3dd131461096e578063246c751f14610951578063316b3739146108bd5780633fc756f8146107c25780634015cabd14610626578063715018a6146105e25780638da5cb5b146105bb578063a748c23614610495578063f2fde38b146104235763ff8bde971461009e575f80fd5b34610392576040366003190112610392576100b7610b02565b6024356001600160a01b0381169190829003610392576001600160a01b03169182156103e65781156103aa57604051612db2808201906001600160401b03821183831017610396576040918391610c5083398681528560208201520301905ff08015610387576001600160a01b031691823b156103925760405163f2fde38b60e01b81523360048201525f8160248183885af1801561038757610372575b50604051611203808201906001600160401b0382118383101761035e576020918391613a02833986815203019083f08015610353576040516001600160a01b039190911691906113eb808201906001600160401b0382118383101761033f576020918391614c05833987815203019084f080156103345760018060a01b0316926102936040516101e481610b8e565b8681526020808201868152604080840189815233606086019081524260808701908152600160a088018181528e8b5296819052938920965187546001600160a01b039182166001600160a01b03199182161789559551948801805495821695871695909517909455915160028701805491851691861691909117905551600386018054919093169316929092179055516004830155516005909101805460ff191691151560ff16919091179055565b60025490600160401b82101561032057509484916102b987600160609901600255610b18565b81549060031b9085821b9160018060a01b03901b1916179055604051918483528560208401526040830152868201527f23891405c98399ffab8b9348e1256ef18989a3ae55b82a79638c5f3a826a7cde60803392a360405192835260208301526040820152f35b634e487b7160e01b81526041600452602490fd5b6040513d85823e3d90fd5b634e487b7160e01b86526041600452602486fd5b6040513d84823e3d90fd5b634e487b7160e01b85526041600452602485fd5b61037f9192505f90610ba9565b5f905f610155565b6040513d5f823e3d90fd5b5f80fd5b634e487b7160e01b5f52604160045260245ffd5b60405162461bcd60e51b8152602060048201526014602482015273496e76616c69642055534454206164647265737360601b6044820152606490fd5b60405162461bcd60e51b8152602060048201526015602482015274496e76616c696420445a4e4654206164647265737360581b6044820152606490fd5b346103925760203660031901126103925761043c610b02565b610444610c29565b6001600160a01b03168015610482575f80546001600160a01b03198116831782556001600160a01b0316905f516020615ff05f395f51905f529080a3005b631e4fbdf760e01b5f525f60045260245ffd5b34610392576020366003190112610392576104ae610b02565b6002546001600160a01b03909116905f805b82811061056a57506104d190610be3565b915f905f5b8381106104f757604051602080825281906104f390820188610b44565b0390f35b61050081610b18565b9054600391821b1c6001600160a01b039081165f90815260016020526040902090910154168214610534575b6001016104d6565b9161056260019161054485610b18565b848060a01b0391549060031b1c1661055c8289610c15565b52610b80565b92905061052c565b61057381610b18565b9054600391821b1c6001600160a01b039081165f908152600160205260409020909101541684146105a7575b6001016104c0565b906105b3600191610b80565b91905061059f565b34610392575f366003190112610392575f546040516001600160a01b039091168152602090f35b34610392575f366003190112610392576105fa610c29565b5f80546001600160a01b0319811682556001600160a01b03165f516020615ff05f395f51905f528280a3005b34610392575f366003190112610392576002545f905f5f5b8281106106f0575060058211156106e9576005905b61065c82610be3565b915f198401908482115f5b8281106106985787876104f38888604051948594855260208501526040840152608060608401526080830190610b44565b816106d5578087035f1901908482116106d5576106b6600192610b18565b838060a01b0391549060031b1c166106ce8289610c15565b5201610667565b634e487b7160e01b5f52601160045260245ffd5b8190610653565b6106f981610b18565b60018060a01b0391549060031b1c165f52600160205260ff600560405f200154166107b2575b6004602061072c83610b18565b90546040516308c89b6d60e01b81529384929091839160031b1c6001600160a01b03165afa908115610387575f91610781575b5061076d575b60010161063e565b90610779600191610b80565b919050610765565b90506020813d82116107aa575b8161079b60209383610ba9565b8101031261039257518561075f565b3d915061078e565b926107bc90610b80565b9261071f565b34610392576020366003190112610392576107db610b02565b5f60a06040516107ea81610b8e565b828152826020820152826040820152826060820152826080820152015260018060a01b03165f52600160205260c060405f2060405161082881610b8e565b81546001600160a01b0390811680835260018401548216602080850191825260028601548416604080870191825260038801548616606080890191825260048a01546080808b019182526005909b015460ff16151560a09a8b01908152845198895296518916958801959095529251871691860191909152519094169383019390935291519381019390935251151590820152f35b34610392576020366003190112610392576001600160a01b036108de610b02565b165f52600160205260c060405f2060018060a01b038154169060018060a01b036001820154169060018060a01b0360028201541660018060a01b036003830154169060ff6005600485015494015416936040519586526020860152604085015260608401526080830152151560a0820152f35b34610392575f366003190112610392576020600254604051908152f35b346103925760203660031901126103925760043560025481101561039257610997602091610b18565b905460405160039290921b1c6001600160a01b03168152f35b34610392576040366003190112610392576109c9610b02565b6024359081151590818303610392576109e0610c29565b6001600160a01b039081165f818152600160205260409020549093911615610a52577fad21e57ff80c1c67f91b0665a19edac158013d6b38beba9323b23761bb90ca9091610a49602092855f5260018452600560405f20019060ff801983541691151516179055565b604051908152a2005b60405162461bcd60e51b815260206004820152601460248201527311195c1b1bde5b595b9d081b9bdd08199bdd5b9960621b6044820152606490fd5b34610392575f366003190112610392575f5f600254905b818110610ab757602083604051908152f35b610ac081610b18565b60018060a01b0391549060031b1c165f52600160205260ff600560405f20015416610aee575b600101610aa5565b91610afa600191610b80565b929050610ae6565b600435906001600160a01b038216820361039257565b600254811015610b305760025f5260205f2001905f90565b634e487b7160e01b5f52603260045260245ffd5b90602080835192838152019201905f5b818110610b615750505090565b82516001600160a01b0316845260209384019390920191600101610b54565b5f1981146106d55760010190565b60c081019081106001600160401b0382111761039657604052565b601f909101601f19168101906001600160401b0382119082101761039657604052565b6001600160401b0381116103965760051b60200190565b90610bed82610bcc565b610bfa6040519182610ba9565b8281528092610c0b601f1991610bcc565b0190602036910137565b8051821015610b305760209160051b010190565b5f546001600160a01b03163303610c3c57565b63118cdaa760e01b5f523360045260245ffdfe60a0346101d757601f612db238819003918201601f19168301916001600160401b038311848410176101db5780849260409485528339810103126101d757610052602061004b836101ef565b92016101ef565b9033156101c4575f8054336001600160a01b0319821681178355604051939290916001600160a01b0316907f8be0079c531659141344cd1fd0a4f28419497f9722a3daafe3b4186f6b6457e09080a3600180556001600160a01b031690811561018257506001600160a01b0382161561013d5760805260028054610100600160a81b03191660089290921b610100600160a81b0316919091179055604051612bae908161020482396080518181816108fa01528181610a9f01528181610fb0015281816110fd015281816118bf015281816119f001528181611ab101528181611fca01526120b50152f35b60405162461bcd60e51b815260206004820152601460248201527f496e76616c6964205553445420616464726573730000000000000000000000006044820152606490fd5b62461bcd60e51b815260206004820152601560248201527f496e76616c696420445a4e4654206164647265737300000000000000000000006044820152606490fd5b631e4fbdf760e01b5f525f60045260245ffd5b5f80fd5b634e487b7160e01b5f52604160045260245ffd5b51906001600160a01b03821682036101d75756fe6080806040526004361015610012575f80fd5b5f3560e01c90816304692d4d146120775750806308c89b6d1461205a5780630981551714611f925780630cee172514611e8b5780631470e87d146112a9578063161f662214611e135780631c25dc5814611c5c57806321bdff0914611ba05780632c5d23a514611a6f57806330814b1b14611a5257806330901347146119ae578063354281a0146119845780635c8f45b11461187d5780635c975abb1461185b578063632d45eb1461183157806366e226bd1461176957806369fbd3cc1461169e5780636a37a9bf146115e6578063715018a6146115a2578063760ca4f4146113ff57806379b2c17a1461136857806384e97c8c146113405780638da5cb5b1461131957806393b58d81146112d5578063a98ad46c146112a9578063b0eff3161461128c578063b175b32f14611262578063b201c0c314611224578063bb3505f41461112c578063bf32eb01146110e8578063c0bcc07a14610f21578063c6f8341814610f06578063c8f7604014610e7c578063d5b52b9514610cd2578063df0201b014610ca9578063df8493b014610791578063e96d87b41461025a578063ef2cfd1a1461023f5763f2fde38b146101c9575f80fd5b3461023b57602036600319011261023b576101e261210d565b6101ea612af2565b6001600160a01b03168015610228575f80546001600160a01b03198116831782556001600160a01b0316905f516020612b595f395f51905f529080a3005b631e4fbdf760e01b5f525f60045260245ffd5b5f80fd5b3461023b575f36600319011261023b57602060405160128152f35b3461023b5760c036600319011261023b576004356001600160401b03811161023b573660238201121561023b57806004013561029581612564565b916102a36040519384612277565b818352366024838301011161023b57815f92602460209301838601378301015260243590604435916064359160843560a4356102dd612af2565b82511561074f5783156106ff57841561069f5785151580610693575b1561064257428211156105fe57818111156105af575f9460095496879261031f84612968565b6009556040519461032f8661225b565b84865260208601928784526040870194898652606088019182526080880190815260a08801918b835260c0890193845260e08901948552610100890196600188526101208a0196600188526101408b0199428b526101608c019e8f525f52600460205260405f209a518b5560018b01905180519060018060401b03821161059b576103ba8354612461565b601f8111610556575b50602090601f83116001146104e557600a9d9c9b9a9998979695949392915f91836104da575b50508160011b915f199060031b1c19161790555b5160028a015551600389015551600488015551600587015551600686015551600785015561043e6008850192511515839060ff801983541691151516179055565b51151561ff0082549160081b169061ff0019161790555160098201550192519160058310156104c6577f9bd719c4581ad3c2ad551d9f5ec0458ef29b8c209c84ca2e49fe88d321063d8f936104bb9360ff801983541691161790556104a4600a54612968565b600a55604051928392604084526040840190612123565b9060208301520390a2005b634e487b7160e01b5f52602160045260245ffd5b015190505f806103e9565b90601f19831691845f52815f20925f5b81811061053e575091600a9f9e9d9c9b9a9998979695949291836001959310610526575b505050811b0190556103fd565b01515f1960f88460031b161c191690555f8080610519565b929360206001819287860151815501950193016104f5565b835f5260205f20601f840160051c81019160208510610591575b601f0160051c01905b81811061058657506103c3565b5f8155600101610579565b9091508190610570565b634e487b7160e01b5f52604160045260245ffd5b60405162461bcd60e51b815260206004820152602160248201527f456e642064617465206d75737420626520616674657220636c6f7365206461746044820152606560f81b6064820152608490fd5b60405162461bcd60e51b815260206004820152601c60248201527b436c6f73652064617465206d75737420626520696e2066757475726560201b6044820152606490fd5b60405162461bcd60e51b815260206004820152602360248201527f496e76616c6964207265776172642070657263656e746167652028302d31303060448201526230302960e81b6064820152608490fd5b506127108611156102f9565b60405162461bcd60e51b815260206004820152603260248201527f546f74616c20746f6b656e206f70656e20696e766573746d656e74206d75737460448201527102062652067726561746572207468616e20360741b6064820152608490fd5b60405162461bcd60e51b815260206004820152602260248201527f546f6b656e207072696365206d7573742062652067726561746572207468616e604482015261020360f41b6064820152608490fd5b60405162461bcd60e51b815260206004820152601a602482015279526f756e64206e616d652063616e6e6f7420626520656d70747960301b6044820152606490fd5b3461023b5761079f36612539565b6107a7612b18565b60025460ff8116610c9a57825f5260046020526107d060ff600860405f20015460081c166127a5565b825f52600460205260ff600860405f2001541615610c5f57825f526004602052600660405f2001544211610c1b57811590811580610c10575b15610bd457835f52600460205260405f206002810180549384860294868604141715610bc057600582019261083f868554612892565b600484015410610b6957602060405180926323b872dd60e01b8252815f8161086c8b3033600485016128c3565b039260081c6001600160a01b03165af18015610a1a575f90610b2e575b6108939150612803565b6001851115610a25575490600381015490600760068201549101549160405193632fdc968f60e21b855233600486015287602486015288604486015260648501526084840152600160a484015260c483015260e48201525f81610104818360018060a01b037f0000000000000000000000000000000000000000000000000000000000000000165af1908115610a1a575f916109f8575b505b845f52600560205260405f20905f5b8581106109b157505050610950838254612892565b9055825f52600660205260405f20610969828254612892565b905561097781600b54612892565b600b5560405191825260208201527f3bdff14eed6ddd6ca85e178ed7df644a6a676c0796374ce875e380bc74a28e7860403392a360018055005b6109bb8183612954565b5183549190600160401b83101561059b576109dd83600180950187558661254f565b819291549060031b91821b915f19901b19161790550161093b565b610a1491503d805f833e610a0c8183612277565b8101906125dc565b8561092a565b6040513d5f823e3d90fd5b906040908151610a358382612277565b600181526020810191601f19840136843781945490600381015490600760068201549101549186519363f4fb815960e01b85523360048601528c6024860152604485015260648401526001608484015260a483015260c482015260208160e4815f60018060a01b037f0000000000000000000000000000000000000000000000000000000000000000165af1938415610b2557505f93610af1575b505115610add575261092c565b634e487b7160e01b5f52603260045260245ffd5b9092506020813d602011610b1d575b81610b0d60209383612277565b8101031261023b57519188610ad0565b3d9150610b00565b513d5f823e3d90fd5b506020813d602011610b61575b81610b4860209383612277565b8101031261023b57610b5c61089391612601565b610889565b3d9150610b3b565b60405162461bcd60e51b815260206004820152602960248201527f4e6f7420656e6f75676820746f6b656e7320617661696c61626c6520696e20746044820152681a1a5cc81c9bdd5b9960ba1b6064820152608490fd5b634e487b7160e01b5f52601160045260245ffd5b60405162461bcd60e51b8152602060048201526014602482015273125b9d985b1a59081d1bdad95b88185b5bdd5b9d60621b6044820152606490fd5b506032831115610809565b60405162461bcd60e51b815260206004820152601c60248201527b125b9d995cdd1b595b9d081c195c9a5bd9081a185cc818db1bdcd95960221b6044820152606490fd5b60405162461bcd60e51b8152602060048201526013602482015272526f756e64206973206e6f742061637469766560681b6044820152606490fd5b63d93c066560e01b5f5260045ffd5b3461023b57610cce610cc2610cbd366122b1565b612976565b60405191829182612154565b0390f35b3461023b57610ce036612539565b610cf560018060a01b036003541633146128e5565b8015610e4657815f526004602052610d1960ff600860405f20015460081c166127a5565b815f5260076020528060405f205410610e0657610d7c6020915f9384526007835260408420610d49828254612947565b905560025460405163095ea7b360e01b815294859360089290921c6001600160a01b0316928492839133600484016127e8565b03925af1908115610a1a575f91610dcc575b5015610d9657005b60405162461bcd60e51b815260206004820152600e60248201526d105c1c1c9bdd994819985a5b195960921b6044820152606490fd5b90506020813d602011610dfe575b81610de760209383612277565b8101031261023b57610df890612601565b81610d8e565b3d9150610dda565b60405162461bcd60e51b8152602060048201526018602482015277125b9cdd59999a58da595b9d081c995dd85c99081c1bdbdb60421b6044820152606490fd5b60405162461bcd60e51b815260206004820152600e60248201526d125b9d985b1a5908185b5bdd5b9d60921b6044820152606490fd5b3461023b575f36600319011261023b576002546040516370a0823160e01b8152306004820152906020908290602490829060081c6001600160a01b03165afa8015610a1a575f90610ed3575b602090604051908152f35b506020813d602011610efe575b81610eed60209383612277565b8101031261023b5760209051610ec8565b3d9150610ee0565b3461023b575f36600319011261023b57602060405160328152f35b3461023b57602036600319011261023b576060610180604051610f438161223f565b5f81525f60208201525f60408201525f838201525f60808201525f60a08201525f60c08201525f60e08201525f6101008201525f6101208201525f6101408201525f610160820152015260405163605e603d60e11b815260043560048201525f8160248160018060a01b037f0000000000000000000000000000000000000000000000000000000000000000165afa908115610a1a575f916110a0575b610cce61104983805190602081015160408201516060830151608084015160a085015160c08601519060e08701519260018060a01b0361010089015116946101208901511515966101408a01511515986101806101608c015115159b01519b6040519d8e61223f565b8d5260208d015260408c015260608b015260808a015260a089015260c088015260e087015261010086015261012085015261014084015261016083015261018082015260405191829160208352602083019061232f565b90503d805f833e6110b18183612277565b81019060208183031261023b578051906001600160401b03821161023b57610cce92611049926110e1920161260e565b9150610fe0565b3461023b575f36600319011261023b576040517f00000000000000000000000000000000000000000000000000000000000000006001600160a01b03168152602090f35b3461023b57606036600319011261023b57602435600435604435801515810361023b5761116460018060a01b036003541633146128e5565b815f52600460205261118260ff600860405f20015460081c166127a5565b61118d831515612846565b156111ac575f5260066020526111a860405f20918254612892565b9055005b805f5260066020528160405f2054106111d5575f5260066020526111a860405f20918254612947565b60405162461bcd60e51b815260206004820152602160248201527f496e73756666696369656e7420726f756e64206c65646765722062616c616e636044820152606560f81b6064820152608490fd5b3461023b5761123236612539565b905f52600560205260405f20805482101561023b576020916112539161254f565b90549060031b1c604051908152f35b3461023b57602036600319011261023b576004355f526007602052602060405f2054604051908152f35b3461023b575f36600319011261023b576020600954604051908152f35b3461023b575f36600319011261023b5760025460405160089190911c6001600160a01b03168152602090f35b3461023b57604036600319011261023b576001600160a01b036112f661210d565b165f52600860205260405f206024355f52602052602060405f2054604051908152f35b3461023b575f36600319011261023b575f546040516001600160a01b039091168152602090f35b3461023b575f36600319011261023b576003546040516001600160a01b039091168152602090f35b3461023b57604036600319011261023b576004356024358015159081810361023b577fdd8c33b779db77b877161fe300dfc92dc5b0d87c7e4199701eb25330a83e16f9916113f66020926113ba612af2565b855f52600484526113d760ff600860405f20015460081c166127a5565b855f5260048452600860405f20019060ff801983541691151516179055565b604051908152a2005b3461023b5761140d36612539565b611415612af2565b815f52600460205261143360ff600860405f20015460081c166127a5565b8015611551576002545f906020906114789060081c6001600160a01b031661145a8561289f565b6040519485809481936323b872dd60e01b83523033600485016128c3565b03925af1908115610a1a575f91611500575b505f516020612b395f395f51905f52916114a5604092612803565b6114ae8161289f565b845f5260076020526114c4835f20918254612892565b90556114cf8161289f565b845f5260066020526114e5835f20918254612892565b9055835f526007602052815f205482519182526020820152a2005b90506020813d602011611549575b8161151b60209383612277565b8101031261023b575f516020612b395f395f51905f52916114a5611540604093612601565b9250509161148a565b3d915061150e565b60405162461bcd60e51b8152602060048201526024808201527f52657761726420616d6f756e74206d75737420626520677265617465722074686044820152630616e20360e41b6064820152608490fd5b3461023b575f36600319011261023b576115ba612af2565b5f80546001600160a01b0319811682556001600160a01b03165f516020612b595f395f51905f528280a3005b3461023b57602036600319011261023b576115ff61210d565b611607612af2565b6001600160a01b0316801561165957600380546001600160a01b0319811683179091556001600160a01b03167ffe66ddef0f2a9c1d6f97182ba039017c769bd48d0d1ec0a3cc405c078f3c17f45f80a3005b60405162461bcd60e51b815260206004820152601f60248201527f496e76616c696420636c61696d7320636f6e74726163742061646472657373006044820152606490fd5b3461023b57602036600319011261023b576004355f52600460205261018060405f20805490610cce6116d260018301612499565b60028301549260ff60038201546004830154600584015460068501549060078601549260088701549461172287600a60098b01549a015416996040519e8f9e8f9081528160208201520190612123565b9a60408d015260608c015260808b015260a08a015260c089015260e0880152818116151561010088015260081c161515610120860152610140850152610160840190612147565b3461023b57602036600319011261023b5761178261210d565b61178a612af2565b6001600160a01b0381169081156117ef5760028054610100600160a81b03198116600893841b610100600160a81b031617909155901c6001600160a01b03167f92852dbadca7e6fa4e0d5dd87891e6dd13f50a304561a86ea9d5a710b972e4495f80a3005b60405162461bcd60e51b815260206004820152601a602482015279496e76616c6964205553445420746f6b656e206164647265737360301b6044820152606490fd5b3461023b57602036600319011261023b576004355f526006602052602060405f2054604051908152f35b3461023b575f36600319011261023b57602060ff600254166040519015158152f35b3461023b57602036600319011261023b5761189661210d565b604051635c8f45b160e01b81526001600160a01b039182166004820152905f90829060249082907f0000000000000000000000000000000000000000000000000000000000000000165afa908115610a1a575f905f9261191b575b50610cce61190d9260405193849360408552604085019061242e565b9083820360208501526123d6565b9150503d805f833e61192d8183612277565b81019060408183031261023b5780516001600160401b03811161023b578261195691830161257f565b602082015190916001600160401b03821161023b5761190d93610cce9261197d9201612727565b92506118f1565b3461023b57602036600319011261023b576004355f526005602052602060405f2054604051908152f35b3461023b57602036600319011261023b576119c761210d565b604051633090134760e01b81526001600160a01b039182166004820152905f90829060249082907f0000000000000000000000000000000000000000000000000000000000000000165afa8015610a1a57610cce915f91611a38575b5060405191829160208352602083019061242e565b611a4c91503d805f833e610a0c8183612277565b82611a23565b3461023b575f36600319011261023b576020600a54604051908152f35b3461023b57602036600319011261023b57611a8861210d565b604051632c5d23a560e01b81526001600160a01b039182166004820152905f90829060249082907f0000000000000000000000000000000000000000000000000000000000000000165afa8015610a1a575f5f915f905f5f91611b20575b90610cce9291611b08604051968796875260a0602088015260a087019061242e565b9260408601526060850152838203608085015261242e565b50505050503d805f833e611b348183612277565b81019060a08183031261023b57805160208201519092906001600160401b03811161023b5781611b6591840161257f565b9160408101519360608201519160808101519360018060401b03851161023b57610cce94611b93920161257f565b9093949185949350611ae6565b3461023b57606036600319011261023b57611bb961210d565b60243560443591611bc8612af2565b6001600160a01b03168015611c2057815f526004602052611bf560ff600860405f20015460081c166127a5565b611c00831515612846565b5f52600860205260405f20905f526020526111a860405f20918254612892565b60405162461bcd60e51b8152602060048201526014602482015273496e76616c69642075736572206164647265737360601b6044820152606490fd5b3461023b57604036600319011261023b57611c7561210d565b60243590611c81612af2565b6001600160a01b03811615611dd257611c9b821515612846565b6002546040516370a0823160e01b815230600482015260089190911c6001600160a01b03169290602081602481875afa8015610a1a5782915f91611d9d575b5010611d5c57611d04926020925f60405180968195829463a9059cbb60e01b8452600484016127e8565b03925af18015610a1a575f90611d22575b6020906040519015158152f35b506020813d602011611d54575b81611d3c60209383612277565b8101031261023b57611d4f602091612601565b611d15565b3d9150611d2f565b60405162461bcd60e51b8152602060048201526019602482015278496e73756666696369656e7420555344542062616c616e636560381b6044820152606490fd5b9150506020813d602011611dca575b81611db960209383612277565b8101031261023b5781905185611cda565b3d9150611dac565b60405162461bcd60e51b8152602060048201526019602482015278496e76616c696420726563697069656e74206164647265737360381b6044820152606490fd5b3461023b57602036600319011261023b576004355f52600560205260405f206040519081602082549182815201915f5260205f20905f5b818110611e7557610cce85611e6181870382612277565b60405191829160208352602083019061242e565b8254845260209093019260019283019201611e4a565b3461023b57602036600319011261023b57600435611ea7612af2565b611eaf612b18565b805f526004602052611ecd60ff600860405f20015460081c166127a5565b5f8181526006602090815260408083208054908490556002548454925163a9059cbb60e01b81529485936001600160a01b0360089390931c83169385938492611f1b929116600484016127e8565b03925af18015610a1a575f90611f57575b611f369150612803565b5f908152600460205260409020600a01805460ff1916600317905560018055005b506020813d602011611f8a575b81611f7160209383612277565b8101031261023b57611f85611f3691612601565b611f2c565b3d9150611f64565b3461023b57611fc65f611fa4366122b1565b60405180938192630981551760e01b835260206004840152602483019061242e565b03817f00000000000000000000000000000000000000000000000000000000000000006001600160a01b03165afa8015610a1a575f90612019575b610cce906040519182916020835260208301906123d6565b503d805f833e6120298183612277565b81019060208183031261023b578051916001600160401b03831161023b57610cce926120559201612727565b612001565b3461023b575f36600319011261023b576020600b54604051908152f35b3461023b57602036600319011261023b5761209061210d565b633090134760e01b82526001600160a01b0390811660048301525f90829060249082907f0000000000000000000000000000000000000000000000000000000000000000165afa908115610a1a57610cce91610cc2915f916120f3575b50612976565b61210791503d805f833e610a0c8183612277565b836120ed565b600435906001600160a01b038216820361023b57565b805180835260209291819084018484015e5f828201840152601f01601f1916010190565b9060058210156104c65752565b602081016020825282518091526040820191602060408360051b8301019401925f915b83831061218657505050505090565b9091929394602080600192603f1985820301865261223089519182518152610160806121c18686015161018088860152610180850190612123565b9460408101516040850152606081015160608501526080810151608085015260a081015160a085015260c081015160c085015260e081015160e0850152610100810151151561010085015261012081015115156101208501526101408101516101408501520151910190612147565b97019301930191939290612177565b6101a081019081106001600160401b0382111761059b57604052565b61018081019081106001600160401b0382111761059b57604052565b601f909101601f19168101906001600160401b0382119082101761059b57604052565b6001600160401b03811161059b5760051b60200190565b602060031982011261023b57600435906001600160401b03821161023b578060238301121561023b5781600401356122e88161229a565b926122f66040519485612277565b8184526024602085019260051b82010192831161023b57602401905b82821061231f5750505090565b8135815260209182019101612312565b906101a06101806123d393805184526020810151602085015260408101516040850152606081015160608501526080810151608085015260a081015160a085015260c081015160c085015260e081015160e085015260018060a01b0361010082015116610100850152610120810151151561012085015261014081015115156101408501526101608101511515610160850152015191816101808201520190612123565b90565b9080602083519182815201916020808360051b8301019401925f915b83831061240157505050505090565b909192939460208061241f600193601f19868203018752895161232f565b970193019301919392906123f2565b90602080835192838152019201905f5b81811061244b5750505090565b825184526020938401939092019160010161243e565b90600182811c9216801561248f575b602083101461247b57565b634e487b7160e01b5f52602260045260245ffd5b91607f1691612470565b9060405191825f8254926124ac84612461565b808452936001811690811561251757506001146124d3575b506124d192500383612277565b565b90505f9291925260205f20905f915b8183106124fb5750509060206124d1928201015f6124c4565b60209193508060019154838589010152019101909184926124e2565b9050602092506124d194915060ff191682840152151560051b8201015f6124c4565b604090600319011261023b576004359060243590565b8054821015610add575f5260205f2001905f90565b6001600160401b03811161059b57601f01601f191660200190565b9080601f8301121561023b5781516125968161229a565b926125a46040519485612277565b81845260208085019260051b82010192831161023b57602001905b8282106125cc5750505090565b81518152602091820191016125bf565b9060208282031261023b5781516001600160401b03811161023b576123d3920161257f565b5190811515820361023b57565b91906101a08382031261023b576040516126278161223f565b8093805182526020810151602083015260408101516040830152606081015160608301526080810151608083015260a081015160a083015260c081015160c083015260e081015160e083015261010081015160018060a01b038116810361023b5761010083015261269b6101208201612601565b6101208301526126ae6101408201612601565b6101408301526126c16101608201612601565b610160830152610180810151906001600160401b03821161023b57019082601f8301121561023b5781516126f481612564565b936127026040519586612277565b8185526020828501011161023b576020815f928261018096018388015e850101520152565b9080601f8301121561023b57815161273e8161229a565b9261274c6040519485612277565b81845260208085019260051b8201019183831161023b5760208201905b83821061277857505050505090565b81516001600160401b03811161023b5760209161279a8784809488010161260e565b815201910190612769565b156127ac57565b60405162461bcd60e51b8152602060048201526014602482015273149bdd5b9908191bd95cc81b9bdd08195e1a5cdd60621b6044820152606490fd5b6001600160a01b039091168152602081019190915260400190565b1561280a57565b60405162461bcd60e51b81526020600482015260146024820152731554d115081d1c985b9cd9995c8819985a5b195960621b6044820152606490fd5b1561284d57565b60405162461bcd60e51b815260206004820152601d60248201527f416d6f756e74206d7573742062652067726561746572207468616e20300000006044820152606490fd5b91908201809211610bc057565b90670de0b6b3a7640000820291808304670de0b6b3a76400001490151715610bc057565b6001600160a01b03918216815291166020820152604081019190915260600190565b156128ec57565b60405162461bcd60e51b815260206004820152602d60248201527f4f6e6c7920617574686f72697a656420636c61696d7320636f6e74726163742060448201526c63616e2063616c6c207468697360981b6064820152608490fd5b91908203918211610bc057565b8051821015610add5760209160051b010190565b5f198114610bc05760010190565b908151916129838361229a565b926129916040519485612277565b8084526129a0601f199161229a565b015f5b818110612a8e5750505f5b8151811015612a8a576129c18183612954565b515f52600460205260405f209060ff600a604051936129df8561225b565b805485526129ef60018201612499565b6020860152600281015460408601526003810154606086015260048101546080860152600581015460a0860152600681015460c0860152600781015460e0860152826008820154818116151561010088015260081c16151561012086015260098101546101408601520154169160058310156104c657600192610160820152612a788287612954565b52612a838186612954565b50016129ae565b5050565b602090604051612a9d8161225b565b5f81526060838201525f60408201525f60608201525f60808201525f60a08201525f60c08201525f60e08201525f6101008201525f6101208201525f6101408201525f610160820152828288010152016129a3565b5f546001600160a01b03163303612b0557565b63118cdaa760e01b5f523360045260245ffd5b600260015414612b29576002600155565b633ee5aeb560e01b5f5260045ffdfe9795f222c951ae3e749f872dbe287f78d21fa52353e9175cb20ed3aa2b29b82b8be0079c531659141344cd1fd0a4f28419497f9722a3daafe3b4186f6b6457e0a26469706673582212207eca3d725128044a959f20786c1aeaccbf6c46a838f7972db8d84577c29b909b64736f6c634300081c003360a0346100f557601f61120338819003918201601f19168301916001600160401b038311848410176100f9578084926020946040528339810103126100f557516001600160a01b038116908190036100f55780156100b0576080526040516110f5908161010e823960805181818160b7015281816101640152818161022901528181610330015281816104e201528181610649015281816109aa01528181610a5e01528181610b820152610c0d0152f35b60405162461bcd60e51b815260206004820152601d60248201527f496e76616c696420636f726520636f6e747261637420616464726573730000006044820152606490fd5b5f80fd5b634e487b7160e01b5f52604160045260245ffdfe6080806040526004361015610012575f80fd5b5f3560e01c90816304692d4d14610bd157508063161f662214610b555780632c5d23a514610a1c57806330901347146109685780635c8f45b114610607578063a09686c4146104c3578063b82e4fc3146102a7578063df0201b014610193578063e80db5db1461014f5763ef2dcbee1461008a575f80fd5b3461014b57602036600319011261014b57604051631a7ef4f360e21b815260048035908201525f816024817f00000000000000000000000000000000000000000000000000000000000000006001600160a01b03165afa8015610140576020915f905f92610110575b5042119081610108575b506040519015158152f35b90505f6100fd565b905061012e91503d805f833e6101268183610db4565b810190611036565b5050509750509450505050505f6100f3565b6040513d5f823e3d90fd5b5f80fd5b3461014b575f36600319011261014b576040517f00000000000000000000000000000000000000000000000000000000000000006001600160a01b03168152602090f35b3461014b57602036600319011261014b576004356001600160401b03811161014b573660238201121561014b578060040135906101cf82610dd7565b916101dd6040519384610db4565b8083526024602084019160051b8301019136831161014b57602401905b82821061029757604051630df0201b60e41b8152602060048201525f81806102256024820189610d65565b03817f00000000000000000000000000000000000000000000000000000000000000006001600160a01b03165afa801561014057610271915f91610275575b5060405191829182610c78565b0390f35b61029191503d805f833e6102898183610db4565b810190610e50565b82610264565b81358152602091820191016101fa565b3461014b57602036600319011261014b575f6101606040516102c881610d98565b828152606060208201528260408201528260608201528260808201528260a08201528260c08201528260e08201528261010082015282610120820152826101408201520152604051631a7ef4f360e21b815260043560048201525f8160248160018060a01b037f0000000000000000000000000000000000000000000000000000000000000000165afa908115610140575f915f925f915f935f5f935f5f905f965f945f965f9861048c575b506005881015610478576040519a8b9561038d87610d98565b8652602086019c8d52604086019a8b52606086019081526080860191825260a0860192835260c0860193845260e086019480865260ff6101606101008901988d15158a5261012081019a15158b5261014081019b8c52019a168a524211998a610470575b506040519c8d809d604082525190604001525160608d0161018090526101c08d0161041b91610c54565b9a5160808d01525160a08c01525160c08b01525160e08a01525161010089015251610120880152511515610140870152511515610160860152516101808501525160ff166101a0840152151560208301520390f35b99508d6103f1565b634e487b7160e01b5f52602160045260245ffd5b9a50505050505050505050506104ac91503d805f833e6101268183610db4565b999a9799929792969095919492939291908c610374565b3461014b575f36600319011261014b576040516330814b1b60e01b81527f00000000000000000000000000000000000000000000000000000000000000006001600160a01b031690602081600481855afa908115610140575f916105d5575b505f915f5b82811061053e576040838582519182526020820152f35b604051631a7ef4f360e21b8152600481018290525f81602481865afa908115610140575f905f926105ad575b50816105a5575b5061057f575b600101610527565b925f1981146105915760010192610577565b634e487b7160e01b5f52601160045260245ffd5b905085610571565b90506105c391503d805f833e6101268183610db4565b5050985096505050505050508661056a565b90506020813d6020116105ff575b816105f060209383610db4565b8101031261014b575182610522565b3d91506105e3565b3461014b57602036600319011261014b576004356001600160a01b0381169081900361014b57604051635c8f45b160e01b815260048101919091525f816024817f00000000000000000000000000000000000000000000000000000000000000006001600160a01b03165afa8015610140575f915f91610793575b509061069c91604051928392604084526040840190610d65565b8281036020840152815180825260208201916020808360051b8301019401925f915b8383106106cb5786860387f35b919395509193602080610781600193601f198682030187526101a06101808b5180518452858101518685015260408101516040850152606081015160608501526080810151608085015260a081015160a085015260c081015160c085015260e081015160e0850152878060a01b0361010082015116610100850152610120810151151561012085015261014081015115156101408501526101608101511515610160850152015191816101808201520190610c54565b970193019301909286959492936106be565b9150503d805f833e6107a58183610db4565b81019060408183031261014b5780516001600160401b03811161014b57826107ce918301610fb1565b602082015190916001600160401b03821161014b57019180601f8401121561014b578251926107fc84610dd7565b9361080a6040519586610db4565b80855260208086019160051b8301019183831161014b5760208101915b83831061083a5750505050509082610682565b82516001600160401b03811161014b578201906101a0828703601f19011261014b57604051906101a082016001600160401b03811183821017610954576040526020830151825260408301516020830152606083015160408301526080830151606083015260a0830151608083015260c083015160a083015260e083015160c083015261010083015160e083015261012083015160018060a01b038116810361014b576101008301526108f06101408401610e43565b6101208301526109036101608401610e43565b6101408301526109166101808401610e43565b6101608301526101a0830151916001600160401b03831161014b5761094388602080969581960101610dee565b610180820152815201920191610827565b634e487b7160e01b5f52604160045260245ffd5b3461014b57602036600319011261014b576004356001600160a01b0381169081900361014b57604051633090134760e01b815260048101919091525f816024817f00000000000000000000000000000000000000000000000000000000000000006001600160a01b03165afa801561014057610271915f916109fa575b50604051918291602083526020830190610d65565b610a1691503d805f833e610a0e8183610db4565b81019061100e565b826109e5565b3461014b57602036600319011261014b576004356001600160a01b0381169081900361014b57604051632c5d23a560e01b815260048101919091525f816024817f00000000000000000000000000000000000000000000000000000000000000006001600160a01b03165afa8015610140575f5f915f905f5f91610ad5575b906102719291610abd604051968796875260a0602088015260a0870190610d65565b92604086015260608501528382036080850152610d65565b50505050503d805f833e610ae98183610db4565b81019060a08183031261014b57805160208201519092906001600160401b03811161014b5781610b1a918401610fb1565b9160408101519360608201519160808101519360018060401b03851161014b5761027194610b489201610fb1565b9093949185949350610a9b565b3461014b57602036600319011261014b57604051630b0fb31160e11b815260048035908201525f816024817f00000000000000000000000000000000000000000000000000000000000000006001600160a01b03165afa801561014057610271915f916109fa5750604051918291602083526020830190610d65565b3461014b57602036600319011261014b576004356001600160a01b0381169081900361014b576304692d4d60e01b825260048201525f816024817f00000000000000000000000000000000000000000000000000000000000000006001600160a01b03165afa801561014057610271915f91610275575060405191829182610c78565b805180835260209291819084018484015e5f828201840152601f01601f1916010190565b6020810160208252825180915260408201602060408360051b8501019401925f905b838210610ca957505050505090565b9091929394603f1982820301845285519081518152610160610cdc60208401516101806020850152610180840190610c54565b9260408101516040840152606081015160608401526080810151608084015260a081015160a084015260c081015160c084015260e081015160e08401526101008101511515610100840152610120810151151561012084015261014081015161014084015201519060058210156104785761016001529460209081019493019160010190610c9a565b90602080835192838152019201905f5b818110610d825750505090565b8251845260209384019390920191600101610d75565b61018081019081106001600160401b0382111761095457604052565b601f909101601f19168101906001600160401b0382119082101761095457604052565b6001600160401b0381116109545760051b60200190565b81601f8201121561014b578051906001600160401b0382116109545760405192610e22601f8401601f191660200185610db4565b8284526020838301011161014b57815f9260208093018386015e8301015290565b5190811515820361014b57565b60208183031261014b578051906001600160401b03821161014b57019080601f8301121561014b57815191610e8483610dd7565b92610e926040519485610db4565b80845260208085019160051b8301019183831161014b5760208101915b838310610ebe57505050505090565b82516001600160401b03811161014b57820190610180828703601f19011261014b5760405191610eed83610d98565b602081015183526040810151906001600160401b03821161014b57610f1a88602061018094840101610dee565b6020850152606081015160408501526080810151606085015260a0810151608085015260c081015160a085015260e081015160c085015261010081015160e0850152610f696101208201610e43565b610100850152610f7c6101408201610e43565b610120850152610160810151610140850152015190600582101561014b57826020939261016085940152815201920191610eaf565b9080601f8301121561014b578151610fc881610dd7565b92610fd66040519485610db4565b81845260208085019260051b82010192831161014b57602001905b828210610ffe5750505090565b8151815260209182019101610ff1565b9060208282031261014b5781516001600160401b03811161014b576110339201610fb1565b90565b9190916101808184031261014b578051602082015190936001600160401b03821161014b57611066918301610dee565b9160408201519160608101519160808201519160a08101519160c08201519160e0810151916110986101008301610e43565b916110a66101208201610e43565b91610160610140830151920151600581101561014b579056fea264697066735822122080b538caf82476eb93b3771cfb385a17e41519ccab9d0a6467c9be888d03b86f64736f6c634300081c003360a03461013e57601f6113eb38819003918201601f19168301916001600160401b038311848410176101425780849260209460405283398101031261013e57516001600160a01b0381169081900361013e57331561012b575f8054336001600160a01b03198216811783556040519290916001600160a01b0316907f8be0079c531659141344cd1fd0a4f28419497f9722a3daafe3b4186f6b6457e09080a381156100e957506080526040516112949081610157823960805181818160d0015281816104310152818161048b01528181610609015281816108ab015281816109a20152610b830152f35b62461bcd60e51b815260206004820152601d60248201527f496e76616c696420636f726520636f6e747261637420616464726573730000006044820152606490fd5b631e4fbdf760e01b5f525f60045260245ffd5b5f80fd5b634e487b7160e01b5f52604160045260245ffdfe60806040526004361015610011575f80fd5b5f5f3560e01c80633a1b3d3114610e725780633b510eee14610ddf5780634646876314610b425780635312ea8e1461096b578063639e8bb71461086c578063715018a6146108255780638da5cb5b146107fe578063c116d936146105e9578063e5346bf214610460578063e80db5db1461041b578063f2fde38b146103a45763f5fe8a581461009e575f80fd5b346103a15760203660031901126103a1576004356100ba6111d8565b60405163632d45eb60e01b8152600481018290527f00000000000000000000000000000000000000000000000000000000000000006001600160a01b0316602082602481845afa918215610396578492610362575b50811561030e57604051632a62b51b60e21b8152849190602081600481855afa9081156102975760249160209185916102e1575b506040516370a0823160e01b81526004810185905292839182906001600160a01b03165afa801561029757849184916102a2575b50906101849110156110fd565b8154604051630384bb8b60e31b815290602090829081906101b39088906001600160a01b031660048401611161565b038186865af18015610297576101d0918491610268575b5061117c565b803b1561026457818091606460405180948193632ecd417d60e21b83528960048401528860248401528160448401525af1801561025957610240575b505082546040515f5160206111ff5f395f51905f52929091829161023a916001600160a01b031690836111bf565b0390a280f35b8161024a916110a7565b61025557825f61020c565b8280fd5b6040513d84823e3d90fd5b5080fd5b61028a915060203d602011610290575b61028281836110a7565b810190611149565b5f6101ca565b503d610278565b6040513d85823e3d90fd5b935050506020823d6020116102d9575b816102bf602093836110a7565b810103126102d557610184838693519091610177565b5f80fd5b3d91506102b2565b6103019150823d8411610307575b6102f981836110a7565b8101906110de565b5f610143565b503d6102ef565b60405162461bcd60e51b815260206004820152602660248201527f4e6f2062616c616e636520746f2077697468647261772066726f6d2074686973604482015265081c9bdd5b9960d21b6064820152608490fd5b9091506020813d60201161038e575b8161037e602093836110a7565b810103126102d55751905f61010f565b3d9150610371565b6040513d86823e3d90fd5b80fd5b50346103a15760203660031901126103a1576004356001600160a01b03811690819003610264576103d36111d8565b80156104075781546001600160a01b03198116821783556001600160a01b03165f51602061121f5f395f51905f528380a380f35b631e4fbdf760e01b82526004829052602482fd5b50346103a157806003193601126103a1576040517f00000000000000000000000000000000000000000000000000000000000000006001600160a01b03168152602090f35b50346103a15760203660031901126103a15760405163632d45eb60e01b8152600480359082018190527f00000000000000000000000000000000000000000000000000000000000000006001600160a01b0316929091602081602481875afa9081156102595782916105b7575b5060405163b175b32f60e01b81526004810184905292602084602481885afa938415610297578394610582575b506020906024604051809781936301aa140d60e51b835260048301525afa9182156105765791610541575b6080935060405192818452602084015260408301526060820152f35b90506020833d60201161056e575b8161055c602093836110a7565b810103126102d5576080925190610525565b3d915061054f565b604051903d90823e3d90fd5b9093506020813d6020116105af575b8161059e602093836110a7565b810103126102d557519260206104fa565b3d9150610591565b90506020813d6020116105e1575b816105d2602093836110a7565b810103126102d557515f6104cd565b3d91506105c5565b50346103a157806003193601126103a1576040516330814b1b60e01b81527f00000000000000000000000000000000000000000000000000000000000000006001600160a01b0316602082600481845afa9182156102975783926107ca575b506040516308c89b6d60e01b8152602081600481855afa908115610396578491610798575b50604051632a62b51b60e21b815290602082600481865afa91821561073957602492602091879161077b575b506040516370a0823160e01b81526004810186905293849182906001600160a01b03165afa918215610739578592610744575b50602060049360405194858092632a62b51b60e21b82525afa9283156107395760809593610718575b506040805194855260208501919091528301526001600160a01b03166060820152f35b61073291935060203d602011610307576102f981836110a7565b915f6106f5565b6040513d87823e3d90fd5b9291506020833d602011610773575b81610760602093836110a7565b810103126102d5579151909160206106cc565b3d9150610753565b6107929150823d8411610307576102f981836110a7565b5f610699565b90506020813d6020116107c2575b816107b3602093836110a7565b810103126102d557515f61066d565b3d91506107a6565b9091506020813d6020116107f6575b816107e6602093836110a7565b810103126102d55751905f610648565b3d91506107d9565b50346103a157806003193601126103a157546040516001600160a01b039091168152602090f35b50346103a157806003193601126103a15761083e6111d8565b80546001600160a01b03198116825581906001600160a01b03165f51602061121f5f395f51905f528280a380f35b50346103a1578061087c36610eeb565b93916108866111d8565b610891858214610f62565b61089c811515610fa6565b6108a96032821115610fe1565b7f00000000000000000000000000000000000000000000000000000000000000006001600160a01b031693835b8281106108e1578480f35b6108ec818484611037565b356108f8828987611037565b3580151580910361096757873b156109675760405191633cd960bd60e11b8352600483015260248201528581604481838b5af190811561095c578691610943575b50506001016108d6565b8161094d916110a7565b61095857845f610939565b8480fd5b6040513d88823e3d90fd5b8680fd5b50346103a15760203660031901126103a1576004356109886111d8565b61099381151561105b565b604051632a62b51b60e21b81527f00000000000000000000000000000000000000000000000000000000000000006001600160a01b03169190602081600481865afa908115610396576024916020918691610b25575b506040516370a0823160e01b81526004810186905292839182906001600160a01b03165afa80156103965782918591610af0575b5010610ab4578254604051630384bb8b60e31b815292602091849190829087908290610a579088906001600160a01b031660048401611161565b03925af1918215610297577f418aae9de8f7ab4df1c137475770ff373eb33fd62a060544e9f4fc90f3cdb1a492610a94918591610268575061117c565b60018060a01b0383541690610aae604051928392836111bf565b0390a180f35b60405162461bcd60e51b8152602060048201526014602482015273496e73756666696369656e742062616c616e636560601b6044820152606490fd5b9150506020813d602011610b1d575b81610b0c602093836110a7565b810103126102d5578190515f610a1d565b3d9150610aff565b610b3c9150823d8411610307576102f981836110a7565b5f6109e9565b50346102d55760403660031901126102d557600435602435610b626111d8565b610b6d81151561105b565b60405163632d45eb60e01b8152600481018390527f00000000000000000000000000000000000000000000000000000000000000006001600160a01b031690602081602481855afa8015610d0a5783915f91610daa575b5010610d6857604051632a62b51b60e21b8152602081600481855afa908115610d0a576024916020915f91610d4b575b506040516370a0823160e01b81526004810185905292839182906001600160a01b03165afa8015610d0a5783905f90610d15575b610c34925010156110fd565b5f54604051630384bb8b60e31b81529060209082908190610c639087906001600160a01b031660048401611161565b03815f865af18015610d0a57610c7f915f91610268575061117c565b803b156102d5575f8091606460405180948193632ecd417d60e21b83528860048401528760248401528160448401525af18015610d0a57610ce8575b5082546040515f5160206111ff5f395f51905f52929091829161023a916001600160a01b031690836111bf565b610cf59193505f906110a7565b5f915f5160206111ff5f395f51905f52610cbb565b6040513d5f823e3d90fd5b50506020813d602011610d43575b81610d30602093836110a7565b810103126102d55782610c349151610c28565b3d9150610d23565b610d629150823d8411610307576102f981836110a7565b5f610bf4565b60405162461bcd60e51b815260206004820152601a602482015279496e73756666696369656e7420726f756e642062616c616e636560301b6044820152606490fd5b9150506020813d602011610dd7575b81610dc6602093836110a7565b810103126102d5578290515f610bc4565b3d9150610db9565b346102d557610ded36610eeb565b919092610df86111d8565b610e03838314610f62565b610e0e821515610fa6565b610e1b6032831115610fe1565b5f5b828110610e2657005b610e31818484611037565b3590610e3e818688611037565b359160058310156102d5575f51602061123f5f395f51905f52610e6960019460405191829182610f3b565b0390a201610e1d565b346102d55760403660031901126102d55760243560058110156102d557610e976111d8565b5f51602061123f5f395f51905f5260405180610eb66004359482610f3b565b0390a2005b9181601f840112156102d5578235916001600160401b0383116102d5576020808501948460051b0101116102d557565b60406003198201126102d5576004356001600160401b0381116102d55781610f1591600401610ebb565b90929091602435906001600160401b0382116102d557610f3791600401610ebb565b9091565b919060208301926005821015610f4e5752565b634e487b7160e01b5f52602160045260245ffd5b15610f6957565b60405162461bcd60e51b8152602060048201526015602482015274082e4e4c2f240d8cadccee8d040dad2e6dac2e8c6d605b1b6044820152606490fd5b15610fad57565b60405162461bcd60e51b815260206004820152600c60248201526b456d7074792061727261797360a01b6044820152606490fd5b15610fe857565b60405162461bcd60e51b815260206004820152602160248201527f546f6f206d616e7920726f756e647320746f20757064617465206174206f6e636044820152606560f81b6064820152608490fd5b91908110156110475760051b0190565b634e487b7160e01b5f52603260045260245ffd5b1561106257565b60405162461bcd60e51b815260206004820152601d60248201527f416d6f756e74206d7573742062652067726561746572207468616e20300000006044820152606490fd5b601f909101601f19168101906001600160401b038211908210176110ca57604052565b634e487b7160e01b5f52604160045260245ffd5b908160209103126102d557516001600160a01b03811681036102d55790565b1561110457565b60405162461bcd60e51b815260206004820152601d60248201527f496e73756666696369656e7420636f6e74726163742062616c616e63650000006044820152606490fd5b908160209103126102d5575180151581036102d55790565b6001600160a01b039091168152602081019190915260400190565b1561118357565b60405162461bcd60e51b81526020600482015260146024820152731554d115081d1c985b9cd9995c8819985a5b195960621b6044820152606490fd5b9081526001600160a01b03909116602082015260400190565b5f546001600160a01b031633036111eb57565b63118cdaa760e01b5f523360045260245ffdfe04f1d8f866097f810d061db2341a96804fc3ca3f7d5b3150080815cdd8853e488be0079c531659141344cd1fd0a4f28419497f9722a3daafe3b4186f6b6457e02da7b23ca63c1eb969eee5fae4acb98186abecf5358b0354a82a5183ebca6b2aa26469706673582212209befcb1a34d67b65244e9b47431b7b0664d4fd93fea29ffb1f80d0913f39c12764736f6c634300081c00338be0079c531659141344cd1fd0a4f28419497f9722a3daafe3b4186f6b6457e0a2646970667358221220631819e34d1101b4add0f84dccc2adf8fcdb74d4ed61e51e6cbfa17a9c63932564736f6c634300081c0033",
  "linkReferences": {},
  "deployedLinkReferences": {},
  "immutableReferences": {},
  "inputSourceName": "project/contracts/FundRaisingFactory.sol",
  "buildInfoId": "solc-0_8_28-e1ce5c541a5dc8032d29290f823f7bc2c3db23e8"
}