{
  "_format": "hh3-artifact-1",
  "contractName": "DZNFT",
  "sourceName": "contracts/DZNFT.sol",
  "abi": [
    {
      "inputs": [],
      "stateMutability": "nonpayable",
      "type": "constructor"
    },
    {
      "inputs": [],
      "name": "AccessControlBadConfirmation",
      "type": "error"
    },
    {
      "inputs": [
        {
          "internalType": "address",
          "name": "account",
          "type": "address"
        },
        {
          "internalType": "bytes32",
          "name": "neededRole",
          "type": "bytes32"
        }
      ],
      "name": "AccessControlUnauthorizedAccount",
      "type": "error"
    },
    {
      "inputs": [
        {
          "internalType": "address",
          "name": "sender",
          "type": "address"
        },
        {
          "internalType": "uint256",
          "name": "tokenId",
          "type": "uint256"
        },
        {
          "internalType": "address",
          "name": "owner",
          "type": "address"
        }
      ],
      "name": "ERC721IncorrectOwner",
      "type": "error"
    },
    {
      "inputs": [
        {
          "internalType": "address",
          "name": "operator",
          "type": "address"
        },
        {
          "internalType": "uint256",
          "name": "tokenId",
          "type": "uint256"
        }
      ],
      "name": "ERC721InsufficientApproval",
      "type": "error"
    },
    {
      "inputs": [
        {
          "internalType": "address",
          "name": "approver",
          "type": "address"
        }
      ],
      "name": "ERC721InvalidApprover",
      "type": "error"
    },
    {
      "inputs": [
        {
          "internalType": "address",
          "name": "operator",
          "type": "address"
        }
      ],
      "name": "ERC721InvalidOperator",
      "type": "error"
    },
    {
      "inputs": [
        {
          "internalType": "address",
          "name": "owner",
          "type": "address"
        }
      ],
      "name": "ERC721InvalidOwner",
      "type": "error"
    },
    {
      "inputs": [
        {
          "internalType": "address",
          "name": "receiver",
          "type": "address"
        }
      ],
      "name": "ERC721InvalidReceiver",
      "type": "error"
    },
    {
      "inputs": [
        {
          "internalType": "address",
          "name": "sender",
          "type": "address"
        }
      ],
      "name": "ERC721InvalidSender",
      "type": "error"
    },
    {
      "inputs": [
        {
          "internalType": "uint256",
          "name": "tokenId",
          "type": "uint256"
        }
      ],
      "name": "ERC721NonexistentToken",
      "type": "error"
    },
    {
      "inputs": [],
      "name": "EnforcedPause",
      "type": "error"
    },
    {
      "inputs": [],
      "name": "ExpectedPause",
      "type": "error"
    },
    {
      "inputs": [
        {
          "internalType": "address",
          "name": "owner",
          "type": "address"
        }
      ],
      "name": "OwnableInvalidOwner",
      "type": "error"
    },
    {
      "inputs": [
        {
          "internalType": "address",
          "name": "account",
          "type": "address"
        }
      ],
      "name": "OwnableUnauthorizedAccount",
      "type": "error"
    },
    {
      "anonymous": false,
      "inputs": [
        {
          "indexed": true,
          "internalType": "address",
          "name": "owner",
          "type": "address"
        },
        {
          "indexed": true,
          "internalType": "address",
          "name": "approved",
          "type": "address"
        },
        {
          "indexed": true,
          "internalType": "uint256",
          "name": "tokenId",
          "type": "uint256"
        }
      ],
      "name": "Approval",
      "type": "event"
    },
    {
      "anonymous": false,
      "inputs": [
        {
          "indexed": true,
          "internalType": "address",
          "name": "owner",
          "type": "address"
        },
        {
          "indexed": true,
          "internalType": "address",
          "name": "operator",
          "type": "address"
        },
        {
          "indexed": false,
          "internalType": "bool",
          "name": "approved",
          "type": "bool"
        }
      ],
      "name": "ApprovalForAll",
      "type": "event"
    },
    {
      "anonymous": false,
      "inputs": [
        {
          "indexed": false,
          "internalType": "string",
          "name": "newBaseURI",
          "type": "string"
        }
      ],
      "name": "BaseURIUpdated",
      "type": "event"
    },
    {
      "anonymous": false,
      "inputs": [
        {
          "indexed": true,
          "internalType": "address",
          "name": "account",
          "type": "address"
        },
        {
          "indexed": false,
          "internalType": "bool",
          "name": "granted",
          "type": "bool"
        }
      ],
      "name": "ExecutorRoleUpdated",
      "type": "event"
    },
    {
      "anonymous": false,
      "inputs": [
        {
          "indexed": true,
          "internalType": "uint256",
          "name": "tokenId",
          "type": "uint256"
        },
        {
          "indexed": false,
          "internalType": "string",
          "name": "metadata",
          "type": "string"
        }
      ],
      "name": "MetadataStamped",
      "type": "event"
    },
    {
      "anonymous": false,
      "inputs": [
        {
          "indexed": true,
          "internalType": "uint256",
          "name": "tokenId",
          "type": "uint256"
        },
        {
          "indexed": true,
          "internalType": "address",
          "name": "owner",
          "type": "address"
        }
      ],
      "name": "NFTBurned",
      "type": "event"
    },
    {
      "anonymous": false,
      "inputs": [
        {
          "indexed": true,
          "internalType": "uint256",
          "name": "tokenId",
          "type": "uint256"
        },
        {
          "indexed": true,
          "internalType": "address",
          "name": "buyer",
          "type": "address"
        },
        {
          "indexed": true,
          "internalType": "uint256",
          "name": "roundId",
          "type": "uint256"
        },
        {
          "indexed": false,
          "internalType": "uint256",
          "name": "tokenPrice",
          "type": "uint256"
        },
        {
          "indexed": false,
          "internalType": "uint256",
          "name": "rewardPercentage",
          "type": "uint256"
        }
      ],
      "name": "NFTMinted",
      "type": "event"
    },
    {
      "anonymous": false,
      "inputs": [
        {
          "indexed": true,
          "internalType": "address",
          "name": "previousOwner",
          "type": "address"
        },
        {
          "indexed": true,
          "internalType": "address",
          "name": "newOwner",
          "type": "address"
        }
      ],
      "name": "OwnershipTransferred",
      "type": "event"
    },
    {
      "anonymous": false,
      "inputs": [
        {
          "indexed": false,
          "internalType": "address",
          "name": "account",
          "type": "address"
        }
      ],
      "name": "Paused",
      "type": "event"
    },
    {
      "anonymous": false,
      "inputs": [
        {
          "indexed": true,
          "internalType": "uint256",
          "name": "tokenId",
          "type": "uint256"
        },
        {
          "indexed": true,
          "internalType": "address",
          "name": "claimer",
          "type": "address"
        }
      ],
      "name": "RewardClaimed",
      "type": "event"
    },
    {
      "anonymous": false,
      "inputs": [
        {
          "indexed": true,
          "internalType": "bytes32",
          "name": "role",
          "type": "bytes32"
        },
        {
          "indexed": true,
          "internalType": "bytes32",
          "name": "previousAdminRole",
          "type": "bytes32"
        },
        {
          "indexed": true,
          "internalType": "bytes32",
          "name": "newAdminRole",
          "type": "bytes32"
        }
      ],
      "name": "RoleAdminChanged",
      "type": "event"
    },
    {
      "anonymous": false,
      "inputs": [
        {
          "indexed": true,
          "internalType": "bytes32",
          "name": "role",
          "type": "bytes32"
        },
        {
          "indexed": true,
          "internalType": "address",
          "name": "account",
          "type": "address"
        },
        {
          "indexed": true,
          "internalType": "address",
          "name": "sender",
          "type": "address"
        }
      ],
      "name": "RoleGranted",
      "type": "event"
    },
    {
      "anonymous": false,
      "inputs": [
        {
          "indexed": true,
          "internalType": "bytes32",
          "name": "role",
          "type": "bytes32"
        },
        {
          "indexed": true,
          "internalType": "address",
          "name": "account",
          "type": "address"
        },
        {
          "indexed": true,
          "internalType": "address",
          "name": "sender",
          "type": "address"
        }
      ],
      "name": "RoleRevoked",
      "type": "event"
    },
    {
      "anonymous": false,
      "inputs": [
        {
          "indexed": true,
          "internalType": "uint256",
          "name": "tokenId",
          "type": "uint256"
        },
        {
          "indexed": false,
          "internalType": "string",
          "name": "newTokenURI",
          "type": "string"
        }
      ],
      "name": "TokenURIUpdated",
      "type": "event"
    },
    {
      "anonymous": false,
      "inputs": [
        {
          "indexed": true,
          "internalType": "address",
          "name": "from",
          "type": "address"
        },
        {
          "indexed": true,
          "internalType": "address",
          "name": "to",
          "type": "address"
        },
        {
          "indexed": true,
          "internalType": "uint256",
          "name": "tokenId",
          "type": "uint256"
        }
      ],
      "name": "Transfer",
      "type": "event"
    },
    {
      "anonymous": false,
      "inputs": [
        {
          "indexed": true,
          "internalType": "uint256",
          "name": "tokenId",
          "type": "uint256"
        },
        {
          "indexed": false,
          "internalType": "bool",
          "name": "locked",
          "type": "bool"
        }
      ],
      "name": "TransferLockUpdated",
      "type": "event"
    },
    {
      "anonymous": false,
      "inputs": [
        {
          "indexed": false,
          "internalType": "address",
          "name": "account",
          "type": "address"
        }
      ],
      "name": "Unpaused",
      "type": "event"
    },
    {
      "inputs": [],
      "name": "DEFAULT_ADMIN_ROLE",
      "outputs": [
        {
          "internalType": "bytes32",
          "name": "",
          "type": "bytes32"
        }
      ],
      "stateMutability": "view",
      "type": "function"
    },
    {
      "inputs": [],
      "name": "EXECUTOR_ROLE",
      "outputs": [
        {
          "internalType": "bytes32",
          "name": "",
          "type": "bytes32"
        }
      ],
      "stateMutability": "view",
      "type": "function"
    },
    {
      "inputs": [
        {
          "internalType": "address",
          "name": "to",
          "type": "address"
        },
        {
          "internalType": "uint256",
          "name": "tokenId",
          "type": "uint256"
        }
      ],
      "name": "approve",
      "outputs": [],
      "stateMutability": "nonpayable",
      "type": "function"
    },
    {
      "inputs": [
        {
          "internalType": "address",
          "name": "owner",
          "type": "address"
        }
      ],
      "name": "balanceOf",
      "outputs": [
        {
          "internalType": "uint256",
          "name": "",
          "type": "uint256"
        }
      ],
      "stateMutability": "view",
      "type": "function"
    },
    {
      "inputs": [],
      "name": "baseURI",
      "outputs": [
        {
          "internalType": "string",
          "name": "",
          "type": "string"
        }
      ],
      "stateMutability": "view",
      "type": "function"
    },
    {
      "inputs": [
        {
          "internalType": "uint256[]",
          "name": "tokenIds",
          "type": "uint256[]"
        },
        {
          "internalType": "address",
          "name": "user",
          "type": "address"
        }
      ],
      "name": "batchCheckOwnership",
      "outputs": [
        {
          "internalType": "bool[]",
          "name": "ownedTokens",
          "type": "bool[]"
        }
      ],
      "stateMutability": "view",
      "type": "function"
    },
    {
      "inputs": [
        {
          "internalType": "uint256[]",
          "name": "tokenIds",
          "type": "uint256[]"
        }
      ],
      "name": "batchGetInvestmentData",
      "outputs": [
        {
          "components": [
            {
              "internalType": "uint256",
              "name": "tokenId",
              "type": "uint256"
            },
            {
              "internalType": "uint256",
              "name": "roundId",
              "type": "uint256"
            },
            {
              "internalType": "uint256",
              "name": "tokenPrice",
              "type": "uint256"
            },
            {
              "internalType": "uint256",
              "name": "rewardPercentage",
              "type": "uint256"
            },
            {
              "internalType": "uint256",
              "name": "totalTokenOpenInvestment",
              "type": "uint256"
            },
            {
              "internalType": "uint256",
              "name": "purchaseTimestamp",
              "type": "uint256"
            },
            {
              "internalType": "uint256",
              "name": "closeDateInvestment",
              "type": "uint256"
            },
            {
              "internalType": "uint256",
              "name": "endDateInvestment",
              "type": "uint256"
            },
            {
              "internalType": "address",
              "name": "originalBuyer",
              "type": "address"
            },
            {
              "internalType": "bool",
              "name": "redeemed",
              "type": "bool"
            },
            {
              "internalType": "bool",
              "name": "rewardClaimed",
              "type": "bool"
            },
            {
              "internalType": "bool",
              "name": "transferLocked",
              "type": "bool"
            },
            {
              "internalType": "string",
              "name": "metadata",
              "type": "string"
            }
          ],
          "internalType": "struct DZNFT.InvestmentData[]",
          "name": "investments",
          "type": "tuple[]"
        }
      ],
      "stateMutability": "view",
      "type": "function"
    },
    {
      "inputs": [
        {
          "internalType": "address",
          "name": "to",
          "type": "address"
        },
        {
          "internalType": "uint256",
          "name": "count",
          "type": "uint256"
        },
        {
          "internalType": "uint256",
          "name": "roundId",
          "type": "uint256"
        },
        {
          "internalType": "uint256",
          "name": "tokenPrice",
          "type": "uint256"
        },
        {
          "internalType": "uint256",
          "name": "rewardPercentage",
          "type": "uint256"
        },
        {
          "internalType": "uint256",
          "name": "totalTokenOpenInvestment",
          "type": "uint256"
        },
        {
          "internalType": "uint256",
          "name": "closeDateInvestment",
          "type": "uint256"
        },
        {
          "internalType": "uint256",
          "name": "endDateInvestment",
          "type": "uint256"
        }
      ],
      "name": "batchMintNFT",
      "outputs": [
        {
          "internalType": "uint256[]",
          "name": "tokenIds",
          "type": "uint256[]"
        }
      ],
      "stateMutability": "nonpayable",
      "type": "function"
    },
    {
      "inputs": [
        {
          "internalType": "uint256",
          "name": "tokenId",
          "type": "uint256"
        }
      ],
      "name": "burn",
      "outputs": [],
      "stateMutability": "nonpayable",
      "type": "function"
    },
    {
      "inputs": [
        {
          "internalType": "uint256",
          "name": "tokenId",
          "type": "uint256"
        }
      ],
      "name": "canClaimEarlyReward",
      "outputs": [
        {
          "internalType": "bool",
          "name": "",
          "type": "bool"
        }
      ],
      "stateMutability": "view",
      "type": "function"
    },
    {
      "inputs": [
        {
          "internalType": "uint256",
          "name": "tokenId",
          "type": "uint256"
        }
      ],
      "name": "canFullyRedeem",
      "outputs": [
        {
          "internalType": "bool",
          "name": "",
          "type": "bool"
        }
      ],
      "stateMutability": "view",
      "type": "function"
    },
    {
      "inputs": [
        {
          "internalType": "uint256",
          "name": "tokenId",
          "type": "uint256"
        }
      ],
      "name": "getApproved",
      "outputs": [
        {
          "internalType": "address",
          "name": "",
          "type": "address"
        }
      ],
      "stateMutability": "view",
      "type": "function"
    },
    {
      "inputs": [
        {
          "internalType": "uint256",
          "name": "tokenId",
          "type": "uint256"
        }
      ],
      "name": "getInvestmentData",
      "outputs": [
        {
          "components": [
            {
              "internalType": "uint256",
              "name": "tokenId",
              "type": "uint256"
            },
            {
              "internalType": "uint256",
              "name": "roundId",
              "type": "uint256"
            },
            {
              "internalType": "uint256",
              "name": "tokenPrice",
              "type": "uint256"
            },
            {
              "internalType": "uint256",
              "name": "rewardPercentage",
              "type": "uint256"
            },
            {
              "internalType": "uint256",
              "name": "totalTokenOpenInvestment",
              "type": "uint256"
            },
            {
              "internalType": "uint256",
              "name": "purchaseTimestamp",
              "type": "uint256"
            },
            {
              "internalType": "uint256",
              "name": "closeDateInvestment",
              "type": "uint256"
            },
            {
              "internalType": "uint256",
              "name": "endDateInvestment",
              "type": "uint256"
            },
            {
              "internalType": "address",
              "name": "originalBuyer",
              "type": "address"
            },
            {
              "internalType": "bool",
              "name": "redeemed",
              "type": "bool"
            },
            {
              "internalType": "bool",
              "name": "rewardClaimed",
              "type": "bool"
            },
            {
              "internalType": "bool",
              "name": "transferLocked",
              "type": "bool"
            },
            {
              "internalType": "string",
              "name": "metadata",
              "type": "string"
            }
          ],
          "internalType": "struct DZNFT.InvestmentData",
          "name": "",
          "type": "tuple"
        }
      ],
      "stateMutability": "view",
      "type": "function"
    },
    {
      "inputs": [
        {
          "internalType": "bytes32",
          "name": "role",
          "type": "bytes32"
        }
      ],
      "name": "getRoleAdmin",
      "outputs": [
        {
          "internalType": "bytes32",
          "name": "",
          "type": "bytes32"
        }
      ],
      "stateMutability": "view",
      "type": "function"
    },
    {
      "inputs": [
        {
          "internalType": "address",
          "name": "walletAddress",
          "type": "address"
        }
      ],
      "name": "getWalletNFTSummary",
      "outputs": [
        {
          "internalType": "uint256",
          "name": "totalNFTs",
          "type": "uint256"
        },
        {
          "internalType": "uint256",
          "name": "activeInvestments",
          "type": "uint256"
        },
        {
          "internalType": "uint256",
          "name": "redeemedInvestments",
          "type": "uint256"
        },
        {
          "internalType": "uint256",
          "name": "claimedRewards",
          "type": "uint256"
        },
        {
          "internalType": "uint256",
          "name": "totalInvestedValue",
          "type": "uint256"
        },
        {
          "internalType": "uint256",
          "name": "totalExpectedRewards",
          "type": "uint256"
        },
        {
          "internalType": "uint256",
          "name": "claimableAmount",
          "type": "uint256"
        }
      ],
      "stateMutability": "view",
      "type": "function"
    },
    {
      "inputs": [
        {
          "internalType": "address",
          "name": "walletAddress",
          "type": "address"
        },
        {
          "internalType": "uint256",
          "name": "offset",
          "type": "uint256"
        },
        {
          "internalType": "uint256",
          "name": "limit",
          "type": "uint256"
        }
      ],
      "name": "getWalletNFTsPaginated",
      "outputs": [
        {
          "internalType": "uint256[]",
          "name": "tokenIds",
          "type": "uint256[]"
        },
        {
          "components": [
            {
              "internalType": "uint256",
              "name": "tokenId",
              "type": "uint256"
            },
            {
              "internalType": "uint256",
              "name": "roundId",
              "type": "uint256"
            },
            {
              "internalType": "uint256",
              "name": "tokenPrice",
              "type": "uint256"
            },
            {
              "internalType": "uint256",
              "name": "rewardPercentage",
              "type": "uint256"
            },
            {
              "internalType": "uint256",
              "name": "totalTokenOpenInvestment",
              "type": "uint256"
            },
            {
              "internalType": "uint256",
              "name": "purchaseTimestamp",
              "type": "uint256"
            },
            {
              "internalType": "uint256",
              "name": "closeDateInvestment",
              "type": "uint256"
            },
            {
              "internalType": "uint256",
              "name": "endDateInvestment",
              "type": "uint256"
            },
            {
              "internalType": "address",
              "name": "originalBuyer",
              "type": "address"
            },
            {
              "internalType": "bool",
              "name": "redeemed",
              "type": "bool"
            },
            {
              "internalType": "bool",
              "name": "rewardClaimed",
              "type": "bool"
            },
            {
              "internalType": "bool",
              "name": "transferLocked",
              "type": "bool"
            },
            {
              "internalType": "string",
              "name": "metadata",
              "type": "string"
            }
          ],
          "internalType": "struct DZNFT.InvestmentData[]",
          "name": "investmentDetails",
          "type": "tuple[]"
        },
        {
          "internalType": "uint256",
          "name": "totalTokens",
          "type": "uint256"
        },
        {
          "internalType": "uint256",
          "name": "totalPages",
          "type": "uint256"
        },
        {
          "internalType": "uint256",
          "name": "currentPage",
          "type": "uint256"
        },
        {
          "internalType": "bool",
          "name": "hasMore",
          "type": "bool"
        }
      ],
      "stateMutability": "view",
      "type": "function"
    },
    {
      "inputs": [
        {
          "internalType": "address",
          "name": "walletAddress",
          "type": "address"
        }
      ],
      "name": "getWalletTokenIds",
      "outputs": [
        {
          "internalType": "uint256[]",
          "name": "tokenIds",
          "type": "uint256[]"
        }
      ],
      "stateMutability": "view",
      "type": "function"
    },
    {
      "inputs": [
        {
          "internalType": "bytes32",
          "name": "role",
          "type": "bytes32"
        },
        {
          "internalType": "address",
          "name": "account",
          "type": "address"
        }
      ],
      "name": "grantRole",
      "outputs": [],
      "stateMutability": "nonpayable",
      "type": "function"
    },
    {
      "inputs": [
        {
          "internalType": "bytes32",
          "name": "role",
          "type": "bytes32"
        },
        {
          "internalType": "address",
          "name": "account",
          "type": "address"
        }
      ],
      "name": "hasRole",
      "outputs": [
        {
          "internalType": "bool",
          "name": "",
          "type": "bool"
        }
      ],
      "stateMutability": "view",
      "type": "function"
    },
    {
      "inputs": [
        {
          "internalType": "uint256",
          "name": "",
          "type": "uint256"
        }
      ],
      "name": "investmentData",
      "outputs": [
        {
          "internalType": "uint256",
          "name": "tokenId",
          "type": "uint256"
        },
        {
          "internalType": "uint256",
          "name": "roundId",
          "type": "uint256"
        },
        {
          "internalType": "uint256",
          "name": "tokenPrice",
          "type": "uint256"
        },
        {
          "internalType": "uint256",
          "name": "rewardPercentage",
          "type": "uint256"
        },
        {
          "internalType": "uint256",
          "name": "totalTokenOpenInvestment",
          "type": "uint256"
        },
        {
          "internalType": "uint256",
          "name": "purchaseTimestamp",
          "type": "uint256"
        },
        {
          "internalType": "uint256",
          "name": "closeDateInvestment",
          "type": "uint256"
        },
        {
          "internalType": "uint256",
          "name": "endDateInvestment",
          "type": "uint256"
        },
        {
          "internalType": "address",
          "name": "originalBuyer",
          "type": "address"
        },
        {
          "internalType": "bool",
          "name": "redeemed",
          "type": "bool"
        },
        {
          "internalType": "bool",
          "name": "rewardClaimed",
          "type": "bool"
        },
        {
          "internalType": "bool",
          "name": "transferLocked",
          "type": "bool"
        },
        {
          "internalType": "string",
          "name": "metadata",
          "type": "string"
        }
      ],
      "stateMutability": "view",
      "type": "function"
    },
    {
      "inputs": [
        {
          "internalType": "address",
          "name": "owner",
          "type": "address"
        },
        {
          "internalType": "address",
          "name": "operator",
          "type": "address"
        }
      ],
      "name": "isApprovedForAll",
      "outputs": [
        {
          "internalType": "bool",
          "name": "",
          "type": "bool"
        }
      ],
      "stateMutability": "view",
      "type": "function"
    },
    {
      "inputs": [
        {
          "internalType": "address",
          "name": "account",
          "type": "address"
        }
      ],
      "name": "isExecutor",
      "outputs": [
        {
          "internalType": "bool",
          "name": "",
          "type": "bool"
        }
      ],
      "stateMutability": "view",
      "type": "function"
    },
    {
      "inputs": [
        {
          "internalType": "uint256",
          "name": "tokenId",
          "type": "uint256"
        }
      ],
      "name": "isInvestmentMatured",
      "outputs": [
        {
          "internalType": "bool",
          "name": "",
          "type": "bool"
        }
      ],
      "stateMutability": "view",
      "type": "function"
    },
    {
      "inputs": [
        {
          "internalType": "uint256",
          "name": "tokenId",
          "type": "uint256"
        }
      ],
      "name": "isInvestmentOpen",
      "outputs": [
        {
          "internalType": "bool",
          "name": "",
          "type": "bool"
        }
      ],
      "stateMutability": "view",
      "type": "function"
    },
    {
      "inputs": [
        {
          "internalType": "uint256",
          "name": "tokenId",
          "type": "uint256"
        }
      ],
      "name": "isTransferLocked",
      "outputs": [
        {
          "internalType": "bool",
          "name": "",
          "type": "bool"
        }
      ],
      "stateMutability": "view",
      "type": "function"
    },
    {
      "inputs": [
        {
          "internalType": "uint256",
          "name": "tokenId",
          "type": "uint256"
        }
      ],
      "name": "markAsRedeemed",
      "outputs": [],
      "stateMutability": "nonpayable",
      "type": "function"
    },
    {
      "inputs": [
        {
          "internalType": "uint256",
          "name": "tokenId",
          "type": "uint256"
        }
      ],
      "name": "markRewardClaimed",
      "outputs": [],
      "stateMutability": "nonpayable",
      "type": "function"
    },
    {
      "inputs": [
        {
          "internalType": "address",
          "name": "to",
          "type": "address"
        },
        {
          "internalType": "uint256",
          "name": "roundId",
          "type": "uint256"
        },
        {
          "internalType": "uint256",
          "name": "tokenPrice",
          "type": "uint256"
        },
        {
          "internalType": "uint256",
          "name": "rewardPercentage",
          "type": "uint256"
        },
        {
          "internalType": "uint256",
          "name": "totalTokenOpenInvestment",
          "type": "uint256"
        },
        {
          "internalType": "uint256",
          "name": "closeDateInvestment",
          "type": "uint256"
        },
        {
          "internalType": "uint256",
          "name": "endDateInvestment",
          "type": "uint256"
        }
      ],
      "name": "mintNFT",
      "outputs": [
        {
          "internalType": "uint256",
          "name": "",
          "type": "uint256"
        }
      ],
      "stateMutability": "nonpayable",
      "type": "function"
    },
    {
      "inputs": [],
      "name": "name",
      "outputs": [
        {
          "internalType": "string",
          "name": "",
          "type": "string"
        }
      ],
      "stateMutability": "view",
      "type": "function"
    },
    {
      "inputs": [],
      "name": "owner",
      "outputs": [
        {
          "internalType": "address",
          "name": "",
          "type": "address"
        }
      ],
      "stateMutability": "view",
      "type": "function"
    },
    {
      "inputs": [
        {
          "internalType": "uint256",
          "name": "tokenId",
          "type": "uint256"
        }
      ],
      "name": "ownerOf",
      "outputs": [
        {
          "internalType": "address",
          "name": "",
          "type": "address"
        }
      ],
      "stateMutability": "view",
      "type": "function"
    },
    {
      "inputs": [],
      "name": "pause",
      "outputs": [],
      "stateMutability": "nonpayable",
      "type": "function"
    },
    {
      "inputs": [],
      "name": "paused",
      "outputs": [
        {
          "internalType": "bool",
          "name": "",
          "type": "bool"
        }
      ],
      "stateMutability": "view",
      "type": "function"
    },
    {
      "inputs": [],
      "name": "renounceOwnership",
      "outputs": [],
      "stateMutability": "nonpayable",
      "type": "function"
    },
    {
      "inputs": [
        {
          "internalType": "bytes32",
          "name": "role",
          "type": "bytes32"
        },
        {
          "internalType": "address",
          "name": "callerConfirmation",
          "type": "address"
        }
      ],
      "name": "renounceRole",
      "outputs": [],
      "stateMutability": "nonpayable",
      "type": "function"
    },
    {
      "inputs": [
        {
          "internalType": "bytes32",
          "name": "role",
          "type": "bytes32"
        },
        {
          "internalType": "address",
          "name": "account",
          "type": "address"
        }
      ],
      "name": "revokeRole",
      "outputs": [],
      "stateMutability": "nonpayable",
      "type": "function"
    },
    {
      "inputs": [
        {
          "internalType": "address",
          "name": "from",
          "type": "address"
        },
        {
          "internalType": "address",
          "name": "to",
          "type": "address"
        },
        {
          "internalType": "uint256",
          "name": "tokenId",
          "type": "uint256"
        }
      ],
      "name": "safeTransferFrom",
      "outputs": [],
      "stateMutability": "nonpayable",
      "type": "function"
    },
    {
      "inputs": [
        {
          "internalType": "address",
          "name": "from",
          "type": "address"
        },
        {
          "internalType": "address",
          "name": "to",
          "type": "address"
        },
        {
          "internalType": "uint256",
          "name": "tokenId",
          "type": "uint256"
        },
        {
          "internalType": "bytes",
          "name": "data",
          "type": "bytes"
        }
      ],
      "name": "safeTransferFrom",
      "outputs": [],
      "stateMutability": "nonpayable",
      "type": "function"
    },
    {
      "inputs": [
        {
          "internalType": "address",
          "name": "operator",
          "type": "address"
        },
        {
          "internalType": "bool",
          "name": "approved",
          "type": "bool"
        }
      ],
      "name": "setApprovalForAll",
      "outputs": [],
      "stateMutability": "nonpayable",
      "type": "function"
    },
    {
      "inputs": [
        {
          "internalType": "string",
          "name": "newBaseURI",
          "type": "string"
        }
      ],
      "name": "setBaseURI",
      "outputs": [],
      "stateMutability": "nonpayable",
      "type": "function"
    },
    {
      "inputs": [
        {
          "internalType": "uint256",
          "name": "tokenId",
          "type": "uint256"
        },
        {
          "internalType": "string",
          "name": "newTokenURI",
          "type": "string"
        }
      ],
      "name": "setTokenURI",
      "outputs": [],
      "stateMutability": "nonpayable",
      "type": "function"
    },
    {
      "inputs": [
        {
          "internalType": "uint256",
          "name": "tokenId",
          "type": "uint256"
        },
        {
          "internalType": "string",
          "name": "metadata",
          "type": "string"
        }
      ],
      "name": "stampMetadata",
      "outputs": [],
      "stateMutability": "nonpayable",
      "type": "function"
    },
    {
      "inputs": [
        {
          "internalType": "bytes4",
          "name": "interfaceId",
          "type": "bytes4"
        }
      ],
      "name": "supportsInterface",
      "outputs": [
        {
          "internalType": "bool",
          "name": "",
          "type": "bool"
        }
      ],
      "stateMutability": "view",
      "type": "function"
    },
    {
      "inputs": [],
      "name": "symbol",
      "outputs": [
        {
          "internalType": "string",
          "name": "",
          "type": "string"
        }
      ],
      "stateMutability": "view",
      "type": "function"
    },
    {
      "inputs": [
        {
          "internalType": "uint256",
          "name": "",
          "type": "uint256"
        }
      ],
      "name": "tokenExists",
      "outputs": [
        {
          "internalType": "bool",
          "name": "",
          "type": "bool"
        }
      ],
      "stateMutability": "view",
      "type": "function"
    },
    {
      "inputs": [
        {
          "internalType": "uint256",
          "name": "tokenId",
          "type": "uint256"
        }
      ],
      "name": "tokenURI",
      "outputs": [
        {
          "internalType": "string",
          "name": "",
          "type": "string"
        }
      ],
      "stateMutability": "view",
      "type": "function"
    },
    {
      "inputs": [
        {
          "internalType": "address",
          "name": "from",
          "type": "address"
        },
        {
          "internalType": "address",
          "name": "to",
          "type": "address"
        },
        {
          "internalType": "uint256",
          "name": "tokenId",
          "type": "uint256"
        }
      ],
      "name": "transferFrom",
      "outputs": [],
      "stateMutability": "nonpayable",
      "type": "function"
    },
    {
      "inputs": [
        {
          "internalType": "address",
          "name": "newOwner",
          "type": "address"
        }
      ],
      "name": "transferOwner",
      "outputs": [],
      "stateMutability": "nonpayable",
      "type": "function"
    },
    {
      "inputs": [
        {
          "internalType": "address",
          "name": "newOwner",
          "type": "address"
        }
      ],
      "name": "transferOwnership",
      "outputs": [],
      "stateMutability": "nonpayable",
      "type": "function"
    },
    {
      "inputs": [
        {
          "internalType": "uint256",
          "name": "tokenId",
          "type": "uint256"
        }
      ],
      "name": "unlockTransfer",
      "outputs": [],
      "stateMutability": "nonpayable",
      "type": "function"
    },
    {
      "inputs": [],
      "name": "unpause",
      "outputs": [],
      "stateMutability": "nonpayable",
      "type": "function"
    },
    {
      "inputs": [
        {
          "internalType": "address",
          "name": "account",
          "type": "address"
        },
        {
          "internalType": "bool",
          "name": "grant",
          "type": "bool"
        }
      ],
      "name": "updateExecutorRole",
      "outputs": [],
      "stateMutability": "nonpayable",
      "type": "function"
    }
  ],
  "bytecode": "0x60806040523461039757604080519081016001600160401b038111828210176102cc5760409081526011825270111688125b9d995cdd1b595b9d08139195607a1b602083015280519081016001600160401b038111828210176102cc576040526005815264111693919560da1b602082015281516001600160401b0381116102cc5761008b5f5461039b565b601f811161034a575b50602092601f82116001146102eb57928192935f926102e0575b50508160011b915f199060031b1c1916175f555b80516001600160401b0381116102cc576100dd60015461039b565b601f8111610273575b50602091601f8211600114610213579181925f92610208575b50508160011b915f199060031b1c1916176001555b33156101f55760068054336001600160a01b0319821681179092556001600160a01b03167f8be0079c531659141344cd1fd0a4f28419497f9722a3daafe3b4186f6b6457e05f80a3610165336103e9565b5061016f3361045f565b5061017b600a5461039b565b601f81116101b7575b7f68747470733a2f2f6170692e647a6e66742e636f6d2f6d657461646174612f3e600a5560405161407890816104f38239f35b600a5f526101ef90601f0160051c7fc65a7bb8d6351c1cf70c95a316cc6a92839c986682d98bc35f958f4883f9d2a8908101906103d3565b5f610184565b631e4fbdf760e01b5f525f60045260245ffd5b015190505f806100ff565b601f1982169260015f52805f20915f5b85811061025b57508360019510610243575b505050811b01600155610114565b01515f1960f88460031b161c191690555f8080610235565b91926020600181928685015181550194019201610223565b60015f526102bc907fb10e2d527612073b26eecdfd717e6a320cf44b4afac2b0732d9fcbe2b7fa0cf6601f840160051c810191602085106102c2575b601f0160051c01906103d3565b5f6100e6565b90915081906102af565b634e487b7160e01b5f52604160045260245ffd5b015190505f806100ae565b601f198216935f8052805f20915f5b868110610332575083600195961061031a575b505050811b015f556100c2565b01515f1960f88460031b161c191690555f808061030d565b919260206001819286850151815501940192016102fa565b5f8052610391907f290decd9548b62a8d60345a988386fc84ba6bc95484008f6362f93160ef3e563601f840160051c810191602085106102c257601f0160051c01906103d3565b5f610094565b5f80fd5b90600182811c921680156103c9575b60208310146103b557565b634e487b7160e01b5f52602260045260245ffd5b91607f16916103aa565b8181106103de575050565b5f81556001016103d3565b6001600160a01b0381165f9081525f5160206145ab5f395f51905f52602052604090205460ff1661045a576001600160a01b03165f8181525f5160206145ab5f395f51905f5260205260408120805460ff191660011790553391905f51602061456b5f395f51905f528180a4600190565b505f90565b6001600160a01b0381165f9081525f51602061458b5f395f51905f52602052604090205460ff1661045a576001600160a01b03165f8181525f51602061458b5f395f51905f5260205260408120805460ff191660011790553391907fd8aa0f3194971a2a116679f7c2090f6939c8d4e01a2a8d7e41d55e5351469e63905f51602061456b5f395f51905f529080a460019056fe610120806040526004361015610013575f80fd5b5f3560e01c908162923f9e146123845750806301ffc9a7146122fd57806306fdde031461225b57806307bd026514612234578063081812fc14612216578063095ea7b31461212c578063141f878a14611ff7578063162094c414611e9f57806318d8e2a514611d9757806319f477d914611d205780631d3653e314611c0557806323b872dd14611bee578063248a9ca314611bc8578063293af81a14611acc5780632f2ff15d14611a9b578063364b610114611a5357806336568abe14611a0f5780633f4ba83a146119a957806342842e0e1461197a57806342966c68146117e5578063471769ef146117735780634fb2e45d146117525780635447be0b1461170657806355f804b3146115995780635a7f04d5146114715780635c975abb1461144f5780636352211e1461141f5780636c0360eb1461138d57806370a082311461133c578063715018a6146112f45780638456cb591461129b5780638da5cb5b146112735780638e25e2e61461117657806391d148541461112d57806395d89b41146110635780639913627f14611016578063a217fddf14610ffc578063a22cb46514610f74578063acb7ebfa14610e9f578063b88d4fde14610e0b578063badd5c4d14610d85578063bed62f3514610c92578063bf725a3c146108b5578063c2bf0fa11461086d578063c87b56dd14610836578063ccdbc50e146107e6578063d547741f146107b0578063debfda3014610762578063e01beb9d1461061f578063e985e9c5146105c8578063f2fde38b1461057a5763f4fb815914610258575f80fd5b346105765760e0366003190112610576576102716123d3565b335f9081525f516020613fa35f395f51905f5260205260409020546084359160a4359160c435906102a49060ff16612964565b6102ac613bc5565b6102c06001600160a01b0383161515613071565b6102cd60443515156130b9565b606435151580610568575b6102e190613104565b6102ec84151561314c565b6102f74284116131a4565b6103028382116131ef565b6009549261030f84613245565b6009556040519461031f866123ff565b84865260243560208701526044356040870152606435606087015260808601524260a086015260c085015260e084015260018060a01b0381166101008401525f6101208401525f6101408401525f610160840152602092604051610383858261241b565b5f8152610180820152825f52600c8452610180600960405f20835181556020840151600182015560408401516002820155606084015160038201556080840151600482015560a0840151600582015560c0840151600682015560e084015160078201556104416008820160018060a01b0360018060a01b03610100880151161660018060a01b03198254161781556104226101208701511515826129e6565b6104336101408701511515826129ac565b6101608601511515906129c9565b0191015180519060018060401b038211610554576104698261046385546126ad565b856128f3565b8590601f83116001146104f15761048a92915f91836104e6575b505061292b565b90555b815f52600d835260405f20600160ff198254161790556104ad8282613be0565b60408051604435815260643585820152602435926001600160a01b03169184915f516020613f435f395f51905f529190a4604051908152f35b015190505f80610483565b90601f19831691845f52875f20925f5b8982821061053e575050908460019594939210610526575b505050811b01905561048d565b01515f1960f88460031b161c191690555f8080610519565b6001859682939686015181550195019301610501565b634e487b7160e01b5f52604160045260245ffd5b5061271060643511156102d8565b5f80fd5b34610576576020366003190112610576576105936123d3565b61059b613955565b6001600160a01b038116156105b5576105b390613a5a565b005b631e4fbdf760e01b5f525f60045260245ffd5b34610576576040366003190112610576576105e16123d3565b6105e96123e9565b9060018060a01b03165f52600560205260405f209060018060a01b03165f52602052602060ff60405f2054166040519015158152f35b346105765761062d366125de565b335f9081525f516020613fa35f395f51905f5260205260409020549192916106579060ff16612964565b815f52600d60205261066f60ff60405f20541661289a565b5f828152600c60205260409020600901926001600160401b038211610554576106a28261069c86546126ad565b866128f3565b5f93601f83116001146106f3576106d183805f516020613f635f395f51905f5296975f916106e8575b5061292b565b90555b6106e36040519283928361293d565b0390a2005b9050840135886106cb565b601f19831694815f5260205f20905f5b87811061074a5750845f516020613f635f395f51905f52969710610731575b5050600183811b0190556106d4565b8301355f19600386901b60f8161c191690558580610722565b90916020600181928588013581550193019101610703565b346105765760203660031901126105765761077b6123d3565b6001600160a01b03165f9081525f516020613fa35f395f51905f52602090815260409182902054915160ff9092161515825290f35b34610576576040366003190112610576576105b36004356107cf6123e9565b906107e16107dc82612c6e565b61372e565b6138e4565b346105765760203660031901126105765760e06108096108046123d3565b61339c565b94604094919493929351968752602087015260408601526060850152608084015260a083015260c0820152f35b3461057657602036600319011261057657610869610855600435613253565b6040519182916020835260208301906123af565b0390f35b3461057657602036600319011261057657600435805f52600d60205261089960ff60405f20541661289a565b5f52600c6020526020600660405f200154421115604051908152f35b3461057657610100366003190112610576576108cf6123d3565b602435608052335f9081525f516020613fa35f395f51905f5260205260409020546108fc9060ff16612964565b610904613bc5565b6109186001600160a01b0382161515613071565b608051151580610c85575b15610c485761093560643515156130b9565b608435151580610c3a575b61094990613104565b61095660a435151561314c565b6109634260c435116131a4565b61097260c43560e435116131ef565b61097d608051612d51565b60e052602060c0525f905b60805182106109aa5760405160c05181528061086960c051820160e05161264b565b600954916109b783613245565b600955828160e051906109c991612872565b52826040516109d7816123ff565b81815260c05181016101005260443561010051526040810190606435825260608101916084358352608082019260a435845260a0830142815260c0840160c435815260e085019160e4358352610100860196600160a01b600190038b1688526101208701945f86526101408801965f88526101608901985f8a526040519b8c60c051610a629161241b565b5f808e5261018083019d8e5290815260c051600c90526040902060a081905290518155610100515160018201559051600282015590516003820155905160048201559051600582015590516006820155905160078201559351600890940180546001600160a01b0319166001600160a01b039590951694909417845551610aeb901515846129e6565b511515610af890836129ac565b511515610b04916129c9565b51805193906001600160401b03851161055457610b3585610b2a600960a05101546126ad565b600960a051016128f3565b60c05190601f8611600114610bc5579480610b5b92600196975f92610bba57505061292b565b600960a05101555b805f52600d60c0515260405f208360ff19825416179055610b848185613be0565b604051606435815260843560c051820152604435915f516020613f435f395f51905f526040868060a01b03881693a40190610988565b015190508780610483565b90600960a051015f5260c0515f20915f5b601f1988168110610c21575091869160019697938794601f19811610610c09575b505050811b01600960a0510155610b63565b01515f1960f88460031b161c19169055868080610bf7565b81830151845560c0516001909401939283019201610bd6565b506127106084351115610940565b60405162461bcd60e51b8152602060048201526015602482015274496e76616c696420636f756e742028312d3130302960581b6044820152606490fd5b5060646080511115610923565b3461057657602036600319011261057657335f9081525f516020613fa35f395f51905f52602052604090205460043590610cce9060ff16612964565b805f52600d602052610ce660ff60405f20541661289a565b805f52600c60205260ff600860405f20015460a01c1615610d4757805f52600c602052600860405f200160ff60b01b1981541690557f90e929fbd463dd0bab90901d998cd0d0908551c0e028b559f240ef01b23058be60206040515f8152a2005b60405162461bcd60e51b8152602060048201526016602482015275135d5cdd081899481c995919595b595908199a5c9cdd60521b6044820152606490fd5b346105765760207f9440a95c3c13d1dc9ebcfdcf7b9963a680dd7ca9d62246a91a9be07e6de1f86f610db63661267e565b9290610dc0613955565b8315610df157610dd16107dc612c34565b610dda81613768565b505b60405193151584526001600160a01b031692a2005b610dfc6107dc612c34565b610e0581613866565b50610ddc565b3461057657608036600319011261057657610e246123d3565b610e2c6123e9565b6064359190604435906001600160401b038411610576573660238501121561057657836004013592610e5d84612785565b93610e6b604051958661241b565b8085523660248288010111610576576020815f9260246105b399018389013786010152610e99838383612a10565b33613a8f565b34610576576020366003190112610576576004355f52600c60205260405f20805461086960018301549260ff600282015491600381015460048201546005830154600684015491600785015493610efd6009600888015497016126e5565b976040519b8c9b8c5260208c015260408b015260608a0152608089015260a088015260c087015260e086015260018060a01b038116610100860152818160a01c161515610120860152818160a81c16151561014086015260b01c1615156101608401526101a06101808401526101a08301906123af565b3461057657610f823661267e565b6001600160a01b03909116908115610fe957335f52600560205260405f20825f5260205260405f209015159060ff1981541660ff83161790556040519081527f17307eab39ab6107e8899845ad3d59bd9653f200f220920489ca2b5937696c3160203392a3005b50630b61174360e31b5f5260045260245ffd5b34610576575f3660031901126105765760206040515f8152f35b3461057657602036600319011261057657600435805f52600d60205261104260ff60405f20541661289a565b5f52600c602052602060ff600860405f20015460b01c166040519015158152f35b34610576575f366003190112610576576040515f600154611083816126ad565b808452906001811690811561110957506001146110ab575b610869836108558185038261241b565b60015f9081527fb10e2d527612073b26eecdfd717e6a320cf44b4afac2b0732d9fcbe2b7fa0cf6939250905b8082106110ef5750909150810160200161085561109b565b9192600181602092548385880101520191019092916110d7565b60ff191660208086019190915291151560051b84019091019150610855905061109b565b34610576576040366003190112610576576111466123e9565b6004355f52600760205260405f209060018060a01b03165f52602052602060ff60405f2054166040519015158152f35b34610576576020366003190112610576576004356111926127c4565b50805f52600d6020526111ab60ff60405f20541661289a565b5f52600c60205261086960405f206112596009604051926111cb846123ff565b8054845260018101546020850152600281015460408501526003810154606085015260048101546080850152600581015460a0850152600681015460c0850152600781015460e085015260ff600882015460018060a01b038116610100870152818160a01c161515610120870152818160a81c16151561014087015260b01c161515610160850152016126e5565b6101808201526040519182916020835260208301906124b2565b34610576575f366003190112610576576006546040516001600160a01b039091168152602090f35b34610576575f366003190112610576576112b3613955565b6112bb613bc5565b600160ff1960085416176008557f62e78cea01bee320cd4e420270b5ea74000d11b0c9f74754ebdbfc544b05a2586020604051338152a1005b34610576575f3660031901126105765761130c613955565b600680546001600160a01b031981169091555f906001600160a01b03165f516020613f835f395f51905f528280a3005b34610576576020366003190112610576576001600160a01b0361135d6123d3565b16801561137a575f526003602052602060405f2054604051908152f35b6322718ad960e21b5f525f60045260245ffd5b34610576575f366003190112610576576040515f600a546113ad816126ad565b808452906001811690811561110957506001146113d457610869836108558185038261241b565b600a5f9081525f516020613f235f395f51905f52939250905b8082106114055750909150810160200161085561109b565b9192600181602092548385880101520191019092916113ed565b3461057657602036600319011261057657602061143d6004356135e6565b6040516001600160a01b039091168152f35b34610576575f36600319011261057657602060ff600854166040519015158152f35b3461057657602036600319011261057657600435805f52600d60205261149d60ff60405f20541661289a565b5f52600c60205260405f206040516114b4816123ff565b815481526001820154602082015260028201546040820152600382015460608201526004820154608082015260058201549060a08101918252600683015460c0820152600783015460e0820152610180611550600960088601549560018060a01b03871661010086015260ff610120860197818160a01c1615158952818160a81c16151561014088015260b01c161515610160860152016126e5565b91015251906301e13380820180921161158557602091421015908161157b575b506040519015158152f35b9050511582611570565b634e487b7160e01b5f52601160045260245ffd5b34610576576020366003190112610576576004356001600160401b038111610576576115c99036906004016125b1565b6115d1613955565b6001600160401b038111610554576115ea600a546126ad565b601f81116116c0575b505f91601f82116001146116445761162182805f5160206140235f395f51905f52955f91611639575061292b565b600a555b6116346040519283928361293d565b0390a1005b9050830135866106cb565b600a5f9081525f516020613f235f395f51905f5290601f198416905b8181106116a8575093835f5160206140235f395f51905f52951061168f575b5050600182811b01600a55611625565b8201355f19600385901b60f8161c19169055838061167f565b83860135835560209586019560019093019201611660565b600a5f526116f6905f516020613f235f395f51905f52601f840160051c810191602085106116fc575b601f0160051c01906128dd565b826115f3565b90915081906116e9565b346105765760203660031901126105765761086961173e6117256123d3565b6117396001600160a01b0382161515612ce1565b61397c565b60405191829160208352602083019061264b565b346105765760203660031901126105765761176b6123d3565b610593613955565b34610576576060366003190112610576576117bc6117ca6117a26117956123d3565b6044359060243590612d83565b93604096919395965197889760c0895260c089019061264b565b908782036020890152612559565b93604086015260608501526080840152151560a08301520390f35b3461057657602036600319011261057657600435805f52600d60205261181160ff60405f20541661289a565b61181a816135e6565b6001600160a01b031633148015611960575b801561192c575b156118ee57611841816135e6565b815f52600d60205260405f2060ff198154169055815f52600c60205261189f600960405f205f81555f60018201555f60028201555f60038201555f60048201555f60058201555f60068201555f60078201555f600882015501612c93565b815f52600b6020526118b360405f20612c93565b6118bd338361361a565b506001600160a01b0316907f8f0a80450bfbfadc6d05658c9dc494e43beb79be53b44adbb146c6d5040f87705f80a3005b60405162461bcd60e51b8152602060048201526016602482015275139bdd081bdddb995c881b9bdc88185c1c1c9bdd995960521b6044820152606490fd5b506001600160a01b0361193e826135e6565b165f90815260056020908152604080832033845290915290205460ff16611833565b50336001600160a01b03611973836127a0565b161461182c565b34610576576105b361198b36612611565b906040519261199b60208561241b565b5f8452610e99838383612a10565b34610576575f366003190112610576576119c1613955565b60085460ff811615611a005760ff19166008557f5db9ee0a495bf2e6ff9c91a7834c1ba4fdd244a5e8aa4e537bd38aeae4b073aa6020604051338152a1005b638dfc202b60e01b5f5260045ffd5b3461057657604036600319011261057657611a286123e9565b336001600160a01b03821603611a44576105b3906004356138e4565b63334bd91960e11b5f5260045ffd5b3461057657602036600319011261057657600435805f52600d602052611a7f60ff60405f20541661289a565b5f52600c6020526020600760405f200154421015604051908152f35b34610576576040366003190112610576576105b3600435611aba6123e9565b90611ac76107dc82612c6e565b6137ed565b34610576576040366003190112610576576004356001600160401b03811161057657611afc903690600401612455565b611b046123e9565b90805191611b2a611b148461243e565b93611b22604051958661241b565b80855261243e565b602084019290601f19013684376001600160a01b03909116905f5b8151811015611b8057600190836001600160a01b03611b6d611b678487612872565b516135e6565b1614611b798288612872565b5201611b45565b50505090604051918291602083019060208452518091526040830191905f5b818110611bad575050500390f35b82511515845285945060209384019390920191600101611b9f565b34610576576020366003190112610576576020611be6600435612c6e565b604051908152f35b34610576576105b3611bff36612611565b91612a10565b3461057657602036600319011261057657600435805f52600d602052611c3160ff60405f20541661289a565b5f52600c60205260405f20604051611c48816123ff565b8154815260018201546020820152600282015460408201526003820154606082015260048201546080820152600582015460a08201908152600683015460c0830152600783015460e083015260088301549160018060a01b038316610100820152610180611ce6600961012084019660ff8760a01c161515885260ff610140860197818160a81c161515895260b01c161515610160860152016126e5565b910152519162ed4e008301809311611585576020924210159182611d16575b508161157b57506040519015158152f35b5115915083611d05565b3461057657602036600319011261057657335f9081525f516020613fa35f395f51905f52602052604090205460043590611d5c9060ff16612964565b805f52600d602052611d7460ff60405f20541661289a565b5f908152600c60205260409020600801805460ff60a01b1916600160a01b179055005b3461057657602036600319011261057657335f9081525f516020613fa35f395f51905f52602052604090205460043590611dd39060ff16612964565b805f52600d602052611deb60ff60405f20541661289a565b805f52600c60205260ff600860405f20015460a81c16611e61575f818152600c60205260409020600801805461ffff60a81b191661010160a81b1790556001600160a01b03611e39826135e6565b16907f5dd59f4285b36241394b73f8f7ae03d0290b030a86803cf2562ecf33eeb617bd5f80a3005b60405162461bcd60e51b815260206004820152601660248201527514995dd85c9908185b1c9958591e4818db185a5b595960521b6044820152606490fd5b3461057657611ead366125de565b6006549192916001600160a01b031633148015611fd3575b15611f8f57815f52600d602052611ee260ff60405f20541661289a565b5f828152600b60205260409020926001600160401b03821161055457611f0c8261069c86546126ad565b5f93601f8311600114611f3a576106d183805f516020613f035f395f51905f5296975f916106e8575061292b565b601f19831694815f5260205f20905f5b878110611f775750845f516020613f035f395f51905f52969710610731575050600183811b0190556106d4565b90916020600181928588013581550193019101611f4a565b606460405162461bcd60e51b815260206004820152602060248201527f43616c6c6572206973206e6f74206f776e6572206e6f72206578656375746f726044820152fd5b50335f9081525f516020613fa35f395f51905f52602052604090205460ff16611ec5565b34610576576020366003190112610576576004356001600160401b03811161057657612027903690600401612455565b6120318151612823565b905f5b8151811015612116578061204a60019284612872565b515f52600c60205260405f206120f4600960405192612068846123ff565b80548452858101546020850152600281015460408501526003810154606085015260048101546080850152600581015460a0850152600681015460c0850152600781015460e085015260ff6008820154878060a01b038116610100870152818160a01c161515610120870152818160a81c16151561014087015260b01c161515610160850152016126e5565b6101808201526121048286612872565b5261210f8185612872565b5001612034565b6040516020808252819061086990820186612559565b34610576576040366003190112610576576121456123d3565b602435612151816135e6565b33151580612203575b806121d6575b6121c35781906001600160a01b0384811691167f8c5be1e5ebec7d5bd14f71427d1e84f3dd0314c0f7b2291e5b200ac8c7c3b9255f80a45f90815260046020526040902080546001600160a01b0319166001600160a01b03909216919091179055005b63a9fbf51f60e01b5f523360045260245ffd5b506001600160a01b0381165f90815260056020908152604080832033845290915290205460ff1615612160565b506001600160a01b03811633141561215a565b3461057657602036600319011261057657602061143d6004356127a0565b34610576575f3660031901126105765760206040515f5160206140035f395f51905f528152f35b34610576575f366003190112610576576040515f5f5461227a816126ad565b808452906001811690811561110957506001146122a157610869836108558185038261241b565b5f8080527f290decd9548b62a8d60345a988386fc84ba6bc95484008f6362f93160ef3e563939250905b8082106122e35750909150810160200161085561109b565b9192600181602092548385880101520191019092916122cb565b346105765760203660031901126105765760043563ffffffff60e01b811680910361057657602090637965db0b60e01b811490811561234157506040519015158152f35b6380ac58cd60e01b811491508115612373575b8115612362575b5082611570565b6301ffc9a760e01b1490508261235b565b635b5e139f60e01b81149150612354565b34610576576020366003190112610576576020906004355f52600d825260ff60405f20541615158152f35b805180835260209291819084018484015e5f828201840152601f01601f1916010190565b600435906001600160a01b038216820361057657565b602435906001600160a01b038216820361057657565b6101a081019081106001600160401b0382111761055457604052565b601f909101601f19168101906001600160401b0382119082101761055457604052565b6001600160401b0381116105545760051b60200190565b9080601f8301121561057657813561246c8161243e565b9261247a604051948561241b565b81845260208085019260051b82010192831161057657602001905b8282106124a25750505090565b8135815260209182019101612495565b906101a061018061255693805184526020810151602085015260408101516040850152606081015160608501526080810151608085015260a081015160a085015260c081015160c085015260e081015160e085015260018060a01b03610100820151166101008501526101208101511515610120850152610140810151151561014085015261016081015115156101608501520151918161018082015201906123af565b90565b9080602083519182815201916020808360051b8301019401925f915b83831061258457505050505090565b90919293946020806125a2600193601f1986820301875289516124b2565b97019301930191939290612575565b9181601f84011215610576578235916001600160401b038311610576576020838186019501011161057657565b9060406003198301126105765760043591602435906001600160401b0382116105765761260d916004016125b1565b9091565b6060906003190112610576576004356001600160a01b038116810361057657906024356001600160a01b0381168103610576579060443590565b90602080835192838152019201905f5b8181106126685750505090565b825184526020938401939092019160010161265b565b6040906003190112610576576004356001600160a01b0381168103610576579060243580151581036105765790565b90600182811c921680156126db575b60208310146126c757565b634e487b7160e01b5f52602260045260245ffd5b91607f16916126bc565b9060405191825f8254926126f8846126ad565b8084529360018116908115612763575060011461271f575b5061271d9250038361241b565b565b90505f9291925260205f20905f915b81831061274757505090602061271d928201015f612710565b602091935080600191548385890101520191019091849261272e565b90506020925061271d94915060ff191682840152151560051b8201015f612710565b6001600160401b03811161055457601f01601f191660200190565b6127a9816135e6565b505f908152600460205260409020546001600160a01b031690565b604051906127d1826123ff565b6060610180835f81525f60208201525f60408201525f838201525f60808201525f60a08201525f60c08201525f60e08201525f6101008201525f6101208201525f6101408201525f6101608201520152565b9061282d8261243e565b61283a604051918261241b565b828152809261284b601f199161243e565b01905f5b82811061285b57505050565b6020906128666127c4565b8282850101520161284f565b80518210156128865760209160051b010190565b634e487b7160e01b5f52603260045260245ffd5b156128a157565b60405162461bcd60e51b8152602060048201526014602482015273151bdad95b88191bd95cc81b9bdd08195e1a5cdd60621b6044820152606490fd5b8181106128e8575050565b5f81556001016128dd565b9190601f811161290257505050565b61271d925f5260205f20906020601f840160051c830193106116fc57601f0160051c01906128dd565b8160011b915f199060031b1c19161790565b90918060409360208452816020850152848401375f828201840152601f01601f1916010190565b1561296b57565b60405162461bcd60e51b815260206004820152601960248201527821b0b63632b91034b9903737ba1030b71032bc32b1baba37b960391b6044820152606490fd5b805460ff60a81b191691151560a81b60ff60a81b16919091179055565b805460ff60b01b191691151560b01b60ff60b01b16919091179055565b805460ff60a01b191691151560a01b60ff60a01b16919091179055565b9190820180921161158557565b6001600160a01b0390911691908215612c215760ff60085416612bde57813315159384612b80575b5f828152600260205260409020546001600160a01b03169480612aeb575b5084612aca575b805f52600360205260405f2060018154019055815f52600260205260405f208160018060a01b0319825416179055845f516020613fc35f395f51905f525f80a46001600160a01b0316808303612ab257505050565b6364283d7b60e01b5f5260045260245260445260645ffd5b612ad382613ec5565b845f52600360205260405f205f198154019055612a5d565b90915080612b2f575b15612b015782905f612a56565b8284612b1957637e27328960e01b5f5260045260245ffd5b63177e802f60e01b5f523360045260245260445ffd5b503384148015612b5e575b80612af457505f838152600460205260409020546001600160a01b03163314612af4565b505f84815260056020908152604080832033845290915290205460ff16612b3a565b905f52600c60205260ff600860405f20015460b01c16612ba1578290612a38565b60405162461bcd60e51b8152602060048201526015602482015274151bdad95b881d1c985b9cd9995c881b1bd8dad959605a1b6044820152606490fd5b60405162461bcd60e51b815260206004820152601b60248201527a151bdad95b881d1c985b9cd9995c881dda1a5b19481c185d5cd959602a1b6044820152606490fd5b633250574960e11b5f525f60045260245ffd5b5f5160206140035f395f51905f525f5260076020527f6903d7e42e9982a5c1392687e480cd87de20d7af7ae6e45e5afebea960bf9ab95490565b5f526007602052600160405f20015490565b8181029291811591840414171561158557565b612c9d81546126ad565b9081612ca7575050565b81601f5f9311600114612cb8575055565b81835260208320612cd491601f0160051c8101906001016128dd565b8082528160208120915555565b15612ce857565b60405162461bcd60e51b8152602060048201526016602482015275496e76616c69642077616c6c6574206164647265737360501b6044820152606490fd5b9190820391821161158557565b8115612d3d570490565b634e487b7160e01b5f52601260045260245ffd5b90612d5b8261243e565b612d68604051918261241b565b8281528092612d79601f199161243e565b0190602036910137565b909290612d9a6001600160a01b0382161515612ce1565b82151580613066575b1561302157612db19061397c565b918251928385108015613019575b15612fd657831580159390612fcf57612dd88386612a03565b5f1981019081116115855783612ded91612d33565b915b82945f14612fc857612e018488612d33565b6001810180911161158557925b83948888115f14612fc257612e238989612d26565b81811115612fba5750905b87612e39838b612a03565b10948215612f5b575050612e4c81612d51565b91612e5682612823565b985f5b838110612e6c5750505050959493929190565b80612e82612e7c60019385612a03565b85612872565b5180612e8e8389612872565b525f52600c6020528b612f498260405f2092612f3e600960405195612eb2876123ff565b80548752888101546020880152600281015460408801526003810154606088015260048101546080880152600581015460a0880152600681015460c0880152600781015460e088015260ff60088201548a8060a01b0381166101008a0152818160a01c1615156101208a0152818160a81c1615156101408a015260b01c161515610160880152016126e5565b610180850152612872565b52612f54818d612872565b5001612e59565b9550955050509450602094604051612f73878261241b565b5f81525f36813760405196612f88818961241b565b5f8852601f1981015f5b818110612fa457505050959493929190565b8290612fae6127c4565b82828d01015201612f92565b905090612e2e565b5f612e23565b5f92612e0e565b5f91612def565b60405162461bcd60e51b815260206004820152601b60248201527a4f6666736574206578636565647320746f74616c20746f6b656e7360281b6044820152606490fd5b508315612dbf565b60405162461bcd60e51b815260206004820152601f60248201527f4c696d6974206d757374206265206265747765656e203120616e6420313030006044820152606490fd5b506064831115612da3565b1561307857565b60405162461bcd60e51b8152602060048201526019602482015278496e76616c696420726563697069656e74206164647265737360381b6044820152606490fd5b156130c057565b60405162461bcd60e51b815260206004820152601c60248201527b05072696365206d7573742062652067726561746572207468616e20360241b6044820152606490fd5b1561310b57565b60405162461bcd60e51b8152602060048201526019602482015278496e76616c6964207265776172642070657263656e7461676560381b6044820152606490fd5b1561315357565b60405162461bcd60e51b815260206004820152602360248201527f546f74616c20746f6b656e73206d75737420626520677265617465722074686160448201526206e20360ec1b6064820152608490fd5b156131ab57565b60405162461bcd60e51b815260206004820152601c60248201527b436c6f73652064617465206d75737420626520696e2066757475726560201b6044820152606490fd5b156131f657565b60405162461bcd60e51b815260206004820152602160248201527f456e642064617465206d75737420626520616674657220636c6f7365206461746044820152606560f81b6064820152608490fd5b5f1981146115855760010190565b805f52600d60205261326b60ff60405f20541661289a565b805f52600b60205261327f60405f206126e5565b604051600a549290915f83613293866126ad565b9182825260208201966001811690815f146133805750600114613334575b6132bd9250038461241b565b805161332d575081516132e1575050506040516132db60208261241b565b5f815290565b612556916020806132f3600594613e00565b6040519687945180918487015e8401908282015f8152815193849201905e010164173539b7b760d91b815203601a1981018452018261241b565b9250505090565b50600a5f90815290915f516020613f235f395f51905f525b8183106133645750509060206132bd928201016132b1565b6020919350806001915483858a0101520191019091859261334c565b60ff19168852506132bd92151560051b820160200190506132b1565b5f9190829081908190819081906133c1906117396001600160a01b0382161515612ce1565b80519687156135cd575f9692965b82518110156135c1576133e28184612872565b515f52600c60205260405f20936040516133fb816123ff565b855481526001860154602082015260028601549060408101918252600387015491606082019283526004880154906080830191825260058901549160a0840192835260068a015460c085015260078a015460e085015260088a015493600160a01b60019003851661010082015261012081019a8560a01c60ff1615158c526101408201958060a81c60ff161515875260b01c60ff1615156101608301526009016134a4906126e5565b9061018001525190516134b691612c80565b938493516134c49085612c80565b61271090049a8b946134d591612a03565b9a6134df91612a03565b8851909c90156135b0576134f290613245565b975b82516135a0575b5115613511575b505050506001019692966133cf565b61351c905142612d26565b62ed4e00811061350257939992936301e1338011613574575160019392919015613561576135569261355091851c90612a03565b90612a03565b965b905f8080613502565b6135509061356e93612a03565b96613558565b90919892505115613589575b50600190613558565b6001919761359991831c90612a03565b9690613580565b986135aa90613245565b986134fb565b979d6135bb90613245565b9d6134f4565b50969796929491929050565b9750505050505050505f905f905f905f905f905f905f90565b5f818152600260205260409020546001600160a01b0316908115613608575090565b637e27328960e01b5f5260045260245ffd5b60ff60085416612bde575f818152600260205260409020546001600160a01b039081169216801515806136a1575b505081613680575b5f81815260026020526040812080546001600160a01b0319169055825f516020613fc35f395f51905f528280a490565b61368981613ec5565b815f52600360205260405f205f198154019055613650565b806136df575b156136b25780613648565b826136ca5750637e27328960e01b5f5260045260245ffd5b63177e802f60e01b5f5260045260245260445ffd5b50808314801561370e575b806136a757505f828152600460205260409020546001600160a01b031681146136a7565b50825f52600560205260405f20815f5260205260ff60405f2054166136ea565b5f81815260076020908152604080832033845290915290205460ff16156137525750565b63e2517d3f60e01b5f523360045260245260445ffd5b6001600160a01b0381165f9081525f516020613fa35f395f51905f52602052604090205460ff166137e8576001600160a01b03165f8181525f516020613fa35f395f51905f5260205260408120805460ff191660011790553391905f5160206140035f395f51905f52905f516020613ee35f395f51905f529080a4600190565b505f90565b5f8181526007602090815260408083206001600160a01b038616845290915290205460ff16613860575f8181526007602090815260408083206001600160a01b0395909516808452949091528120805460ff19166001179055339291905f516020613ee35f395f51905f529080a4600190565b50505f90565b6001600160a01b0381165f9081525f516020613fa35f395f51905f52602052604090205460ff16156137e8576001600160a01b03165f8181525f516020613fa35f395f51905f5260205260408120805460ff191690553391905f5160206140035f395f51905f52905f516020613fe35f395f51905f529080a4600190565b5f8181526007602090815260408083206001600160a01b038616845290915290205460ff1615613860575f8181526007602090815260408083206001600160a01b0395909516808452949091528120805460ff19169055339291905f516020613fe35f395f51905f529080a4600190565b6006546001600160a01b0316330361396957565b63118cdaa760e01b5f523360045260245ffd5b6009545f805b828110613a06575061399390612d51565b915f905f5b8381106139a6575050505090565b805f52600d60205260ff60405f205416806139e9575b6139c9575b600101613998565b916139e181846139db60019489612872565b52613245565b9290506139c1565b506139f3816135e6565b6001600160a01b038381169116146139bc565b805f52600d60205260ff60405f20541680613a3d575b613a29575b600101613982565b90613a35600191613245565b919050613a21565b50613a47816135e6565b6001600160a01b03858116911614613a1c565b600680546001600160a01b039283166001600160a01b0319821681179092559091165f516020613f835f395f51905f525f80a3565b823b613a9d575b5050505050565b604051630a85bd0160e11b81526001600160a01b039182166004820152918116602483015260448201939093526080606482015291169160209082908190613ae99060848301906123af565b03815f865af15f9181613b80575b50613b4c57503d15613b45573d613b0d81612785565b90613b1b604051928361241b565b81523d5f602083013e5b80519081613b405782633250574960e11b5f5260045260245ffd5b602001fd5b6060613b25565b6001600160e01b03191663757a42ff60e11b01613b6e57505f80808080613a96565b633250574960e11b5f5260045260245ffd5b9091506020813d602011613bbd575b81613b9c6020938361241b565b8101031261057657516001600160e01b03198116810361057657905f613af7565b3d9150613b8f565b60ff60085416613bd157565b63d93c066560e01b5f5260045ffd5b9060209060405190613bf2838361241b565b5f82526001600160a01b038416938415612c215760ff60085416613dbd575f8281526002855260409020546001600160a01b03168015159081613d9d575b5f8781526003875260408082208054600101905585825260028852812080546001600160a01b031916891790558490889083905f516020613fc35f395f51905f529080a450613d8a573b613c85575b50505050565b91613cc291819495936040519384928392630a85bd0160e11b84523360048501525f602485015260448401526080606484015260848301906123af565b03815f885af15f9181613d4a575b50613d255750503d15613d1d573d90613ce882612785565b91613cf6604051938461241b565b82523d5f8284013e5b81519182613d1a5783633250574960e11b5f5260045260245ffd5b01fd5b606090613cff565b909291506001600160e01b03191663757a42ff60e11b01613b6e57505f808080613c7f565b9091508381813d8311613d83575b613d62818361241b565b8101031261057657516001600160e01b03198116810361057657905f613cd0565b503d613d58565b6339e3563760e11b5f525f60045260245ffd5b613da684613ec5565b805f526003865260405f205f198154019055613c30565b60405162461bcd60e51b815260048101859052601b60248201527a151bdad95b881d1c985b9cd9995c881dda1a5b19481c185d5cd959602a1b6044820152606490fd5b8015613ea5575f81805b613e915750613e1881612785565b90613e26604051928361241b565b808252601f19613e3582612785565b013660208401375b80928015613e8a575f198201918211611585578193600a82066030019283603011611585578451111561288657600a9260f81b6001600160f81b0319165f1a908401601f01530491613e3d565b5050905090565b90613e9d600a91613245565b910480613e0a565b50604051613eb460408261241b565b60018152600360fc1b602082015290565b5f90815260046020526040902080546001600160a01b031916905556fe2f8788117e7eff1d82e926ec794901d17c78024a50270940304540a733656f0d931f495b9a8e5d8e61946ea5d61e021f636cfe213a801f97589c18c152e408bdc65a7bb8d6351c1cf70c95a316cc6a92839c986682d98bc35f958f4883f9d2a819cc59039f8eb7ba436b5b291277e03e5209d6d8e48c1bdba4716897fc614b990aa07a7d01a8e97dec64df7f721c779f94884dfd3f5a0c61bfc2dd469032661d8be0079c531659141344cd1fd0a4f28419497f9722a3daafe3b4186f6b6457e06903d7e42e9982a5c1392687e480cd87de20d7af7ae6e45e5afebea960bf9ab8ddf252ad1be2c89b69c2b068fc378daa952ba7f163c4a11628f55a4df523b3eff6391f5c32d9c69d2a47ea670b442974b53935d1edc7fd64eb21e047a839171bd8aa0f3194971a2a116679f7c2090f6939c8d4e01a2a8d7e41d55e5351469e636741b2fc379fad678116fe3d4d4b9a1a184ab53ba36b86ad0fa66340b1ab41ada264697066735822122046a352ca5555424bbcb442dfb74d610ae3f75e4942ee9fe1221d1070ccc4bd5964736f6c634300081c00332f8788117e7eff1d82e926ec794901d17c78024a50270940304540a733656f0d6903d7e42e9982a5c1392687e480cd87de20d7af7ae6e45e5afebea960bf9ab86d5257204ebe7d88fd91ae87941cb2dd9d8062b64ae5a2bd2d28ec40b9fbf6df",
  "linkReferences": {},
  "deployedLinkReferences": {},
  "immutableReferences": {},
  "inputSourceName": "project/contracts/DZNFT.sol",
  "buildInfoId": "solc-0_8_28-66eacb69ddddc1a31c28d1ef49c3ef264604ed36"
}