{
  "_format": "hh3-artifact-1",
  "contractName": "FundRaisingContractNFT",
  "sourceName": "contracts/FundRaisingContractNFT.sol",
  "abi": [
    {
      "inputs": [
        {
          "internalType": "address",
          "name": "_dzNFT",
          "type": "address"
        },
        {
          "internalType": "address",
          "name": "_usdtToken",
          "type": "address"
        }
      ],
      "stateMutability": "nonpayable",
      "type": "constructor"
    },
    {
      "inputs": [],
      "name": "EnforcedPause",
      "type": "error"
    },
    {
      "inputs": [],
      "name": "ExpectedPause",
      "type": "error"
    },
    {
      "inputs": [
        {
          "internalType": "address",
          "name": "owner",
          "type": "address"
        }
      ],
      "name": "OwnableInvalidOwner",
      "type": "error"
    },
    {
      "inputs": [
        {
          "internalType": "address",
          "name": "account",
          "type": "address"
        }
      ],
      "name": "OwnableUnauthorizedAccount",
      "type": "error"
    },
    {
      "inputs": [],
      "name": "ReentrancyGuardReentrantCall",
      "type": "error"
    },
    {
      "anonymous": false,
      "inputs": [
        {
          "indexed": true,
          "internalType": "uint256",
          "name": "tokenId",
          "type": "uint256"
        },
        {
          "indexed": true,
          "internalType": "address",
          "name": "investor",
          "type": "address"
        },
        {
          "indexed": false,
          "internalType": "uint256",
          "name": "rewardAmount",
          "type": "uint256"
        }
      ],
      "name": "EarlyRewardClaimed",
      "type": "event"
    },
    {
      "anonymous": false,
      "inputs": [
        {
          "indexed": true,
          "internalType": "uint256",
          "name": "roundId",
          "type": "uint256"
        },
        {
          "indexed": true,
          "internalType": "uint256",
          "name": "tokenId",
          "type": "uint256"
        },
        {
          "indexed": true,
          "internalType": "address",
          "name": "investor",
          "type": "address"
        },
        {
          "indexed": false,
          "internalType": "uint256",
          "name": "amountUSDT",
          "type": "uint256"
        },
        {
          "indexed": false,
          "internalType": "uint256",
          "name": "tokensReceived",
          "type": "uint256"
        }
      ],
      "name": "InvestmentMade",
      "type": "event"
    },
    {
      "anonymous": false,
      "inputs": [
        {
          "indexed": true,
          "internalType": "address",
          "name": "previousOwner",
          "type": "address"
        },
        {
          "indexed": true,
          "internalType": "address",
          "name": "newOwner",
          "type": "address"
        }
      ],
      "name": "OwnershipTransferred",
      "type": "event"
    },
    {
      "anonymous": false,
      "inputs": [
        {
          "indexed": false,
          "internalType": "address",
          "name": "account",
          "type": "address"
        }
      ],
      "name": "Paused",
      "type": "event"
    },
    {
      "anonymous": false,
      "inputs": [
        {
          "indexed": true,
          "internalType": "uint256",
          "name": "tokenId",
          "type": "uint256"
        },
        {
          "indexed": true,
          "internalType": "address",
          "name": "investor",
          "type": "address"
        },
        {
          "indexed": false,
          "internalType": "uint256",
          "name": "payout",
          "type": "uint256"
        }
      ],
      "name": "RedemptionMade",
      "type": "event"
    },
    {
      "anonymous": false,
      "inputs": [
        {
          "indexed": true,
          "internalType": "uint256",
          "name": "roundId",
          "type": "uint256"
        },
        {
          "indexed": false,
          "internalType": "string",
          "name": "roundName",
          "type": "string"
        },
        {
          "indexed": false,
          "internalType": "uint256",
          "name": "tokenPrice",
          "type": "uint256"
        },
        {
          "indexed": false,
          "internalType": "uint256",
          "name": "rewardPercentage",
          "type": "uint256"
        },
        {
          "indexed": false,
          "internalType": "uint256",
          "name": "totalTokenOpenInvestment",
          "type": "uint256"
        },
        {
          "indexed": false,
          "internalType": "uint256",
          "name": "closeDateInvestment",
          "type": "uint256"
        },
        {
          "indexed": false,
          "internalType": "uint256",
          "name": "endDateInvestment",
          "type": "uint256"
        }
      ],
      "name": "RoundCreated",
      "type": "event"
    },
    {
      "anonymous": false,
      "inputs": [
        {
          "indexed": true,
          "internalType": "uint256",
          "name": "roundId",
          "type": "uint256"
        },
        {
          "indexed": false,
          "internalType": "uint256",
          "name": "amount",
          "type": "uint256"
        }
      ],
      "name": "RoundEmergencyWithdraw",
      "type": "event"
    },
    {
      "anonymous": false,
      "inputs": [
        {
          "indexed": true,
          "internalType": "uint256",
          "name": "roundId",
          "type": "uint256"
        },
        {
          "indexed": false,
          "internalType": "uint256",
          "name": "amount",
          "type": "uint256"
        }
      ],
      "name": "RoundFunded",
      "type": "event"
    },
    {
      "anonymous": false,
      "inputs": [
        {
          "indexed": true,
          "internalType": "uint256",
          "name": "roundId",
          "type": "uint256"
        },
        {
          "indexed": false,
          "internalType": "bool",
          "name": "isActive",
          "type": "bool"
        }
      ],
      "name": "RoundStatusChanged",
      "type": "event"
    },
    {
      "anonymous": false,
      "inputs": [
        {
          "indexed": true,
          "internalType": "uint256",
          "name": "roundId",
          "type": "uint256"
        },
        {
          "indexed": false,
          "internalType": "enum FundRaisingContractNFT.Status",
          "name": "oldStatus",
          "type": "uint8"
        },
        {
          "indexed": false,
          "internalType": "enum FundRaisingContractNFT.Status",
          "name": "newStatus",
          "type": "uint8"
        }
      ],
      "name": "RoundStatusUpdated",
      "type": "event"
    },
    {
      "anonymous": false,
      "inputs": [
        {
          "indexed": true,
          "internalType": "address",
          "name": "oldToken",
          "type": "address"
        },
        {
          "indexed": true,
          "internalType": "address",
          "name": "newToken",
          "type": "address"
        }
      ],
      "name": "USDTTokenUpdated",
      "type": "event"
    },
    {
      "anonymous": false,
      "inputs": [
        {
          "indexed": false,
          "internalType": "address",
          "name": "account",
          "type": "address"
        }
      ],
      "name": "Unpaused",
      "type": "event"
    },
    {
      "inputs": [],
      "name": "MAX_BATCH_CLAIM",
      "outputs": [
        {
          "internalType": "uint256",
          "name": "",
          "type": "uint256"
        }
      ],
      "stateMutability": "view",
      "type": "function"
    },
    {
      "inputs": [],
      "name": "MAX_TOKENS_PER_INVESTMENT",
      "outputs": [
        {
          "internalType": "uint256",
          "name": "",
          "type": "uint256"
        }
      ],
      "stateMutability": "view",
      "type": "function"
    },
    {
      "inputs": [],
      "name": "USDT_DECIMALS",
      "outputs": [
        {
          "internalType": "uint256",
          "name": "",
          "type": "uint256"
        }
      ],
      "stateMutability": "view",
      "type": "function"
    },
    {
      "inputs": [
        {
          "internalType": "uint256",
          "name": "roundId",
          "type": "uint256"
        },
        {
          "internalType": "uint256",
          "name": "amount",
          "type": "uint256"
        }
      ],
      "name": "addReward",
      "outputs": [],
      "stateMutability": "nonpayable",
      "type": "function"
    },
    {
      "inputs": [
        {
          "internalType": "uint256",
          "name": "tokenId",
          "type": "uint256"
        }
      ],
      "name": "canTokenClaimEarlyReward",
      "outputs": [
        {
          "internalType": "bool",
          "name": "",
          "type": "bool"
        }
      ],
      "stateMutability": "view",
      "type": "function"
    },
    {
      "inputs": [
        {
          "internalType": "uint256",
          "name": "tokenId",
          "type": "uint256"
        }
      ],
      "name": "canTokenFullyRedeem",
      "outputs": [
        {
          "internalType": "bool",
          "name": "",
          "type": "bool"
        }
      ],
      "stateMutability": "view",
      "type": "function"
    },
    {
      "inputs": [
        {
          "internalType": "uint256",
          "name": "roundId",
          "type": "uint256"
        }
      ],
      "name": "claimRewardRound",
      "outputs": [],
      "stateMutability": "nonpayable",
      "type": "function"
    },
    {
      "inputs": [
        {
          "internalType": "uint256",
          "name": "tokenId",
          "type": "uint256"
        }
      ],
      "name": "claimRewards",
      "outputs": [],
      "stateMutability": "nonpayable",
      "type": "function"
    },
    {
      "inputs": [
        {
          "internalType": "string",
          "name": "roundName",
          "type": "string"
        },
        {
          "internalType": "uint256",
          "name": "tokenPrice",
          "type": "uint256"
        },
        {
          "internalType": "uint256",
          "name": "rewardPercentage",
          "type": "uint256"
        },
        {
          "internalType": "uint256",
          "name": "totalTokenOpenInvestment",
          "type": "uint256"
        },
        {
          "internalType": "uint256",
          "name": "closeDateInvestment",
          "type": "uint256"
        },
        {
          "internalType": "uint256",
          "name": "endDateInvestment",
          "type": "uint256"
        }
      ],
      "name": "createInvestmentRound",
      "outputs": [
        {
          "internalType": "uint256",
          "name": "",
          "type": "uint256"
        }
      ],
      "stateMutability": "nonpayable",
      "type": "function"
    },
    {
      "inputs": [],
      "name": "currentRoundId",
      "outputs": [
        {
          "internalType": "uint256",
          "name": "",
          "type": "uint256"
        }
      ],
      "stateMutability": "view",
      "type": "function"
    },
    {
      "inputs": [],
      "name": "dzNFT",
      "outputs": [
        {
          "internalType": "contract DZNFT",
          "name": "",
          "type": "address"
        }
      ],
      "stateMutability": "view",
      "type": "function"
    },
    {
      "inputs": [
        {
          "internalType": "uint256",
          "name": "amount",
          "type": "uint256"
        }
      ],
      "name": "emergencyWithdraw",
      "outputs": [],
      "stateMutability": "nonpayable",
      "type": "function"
    },
    {
      "inputs": [
        {
          "internalType": "uint256",
          "name": "roundId",
          "type": "uint256"
        },
        {
          "internalType": "uint256",
          "name": "amount",
          "type": "uint256"
        }
      ],
      "name": "emergencyWithdrawFromRound",
      "outputs": [],
      "stateMutability": "nonpayable",
      "type": "function"
    },
    {
      "inputs": [
        {
          "internalType": "uint256",
          "name": "amount",
          "type": "uint256"
        }
      ],
      "name": "fundContract",
      "outputs": [],
      "stateMutability": "nonpayable",
      "type": "function"
    },
    {
      "inputs": [],
      "name": "getAllRoundUSDTBalances",
      "outputs": [
        {
          "internalType": "uint256[]",
          "name": "roundIds",
          "type": "uint256[]"
        },
        {
          "internalType": "uint256[]",
          "name": "balances",
          "type": "uint256[]"
        }
      ],
      "stateMutability": "view",
      "type": "function"
    },
    {
      "inputs": [
        {
          "internalType": "uint256",
          "name": "offset",
          "type": "uint256"
        },
        {
          "internalType": "uint256",
          "name": "limit",
          "type": "uint256"
        },
        {
          "internalType": "enum FundRaisingContractNFT.SortField",
          "name": "sortField",
          "type": "uint8"
        },
        {
          "internalType": "enum FundRaisingContractNFT.SortDirection",
          "name": "sortDirection",
          "type": "uint8"
        }
      ],
      "name": "getAllRoundsDetailedPaginated",
      "outputs": [
        {
          "components": [
            {
              "internalType": "uint256",
              "name": "roundId",
              "type": "uint256"
            },
            {
              "internalType": "string",
              "name": "roundName",
              "type": "string"
            },
            {
              "internalType": "uint256",
              "name": "tokenPrice",
              "type": "uint256"
            },
            {
              "internalType": "uint256",
              "name": "rewardPercentage",
              "type": "uint256"
            },
            {
              "internalType": "uint256",
              "name": "totalTokenOpenInvestment",
              "type": "uint256"
            },
            {
              "internalType": "uint256",
              "name": "tokensSold",
              "type": "uint256"
            },
            {
              "internalType": "uint256",
              "name": "closeDateInvestment",
              "type": "uint256"
            },
            {
              "internalType": "uint256",
              "name": "endDateInvestment",
              "type": "uint256"
            },
            {
              "internalType": "bool",
              "name": "isActive",
              "type": "bool"
            },
            {
              "internalType": "bool",
              "name": "exists",
              "type": "bool"
            },
            {
              "internalType": "uint256",
              "name": "createdAt",
              "type": "uint256"
            },
            {
              "internalType": "enum FundRaisingContractNFT.Status",
              "name": "status",
              "type": "uint8"
            }
          ],
          "internalType": "struct FundRaisingContractNFT.InvestmentRound[]",
          "name": "rounds",
          "type": "tuple[]"
        },
        {
          "internalType": "uint256[]",
          "name": "investorCounts",
          "type": "uint256[]"
        },
        {
          "internalType": "uint256",
          "name": "totalPages",
          "type": "uint256"
        },
        {
          "internalType": "uint256",
          "name": "currentPage",
          "type": "uint256"
        },
        {
          "internalType": "bool",
          "name": "hasMore",
          "type": "bool"
        }
      ],
      "stateMutability": "view",
      "type": "function"
    },
    {
      "inputs": [
        {
          "internalType": "uint256",
          "name": "offset",
          "type": "uint256"
        },
        {
          "internalType": "uint256",
          "name": "limit",
          "type": "uint256"
        }
      ],
      "name": "getAllRoundsDetailedPaginatedDefault",
      "outputs": [
        {
          "components": [
            {
              "internalType": "uint256",
              "name": "roundId",
              "type": "uint256"
            },
            {
              "internalType": "string",
              "name": "roundName",
              "type": "string"
            },
            {
              "internalType": "uint256",
              "name": "tokenPrice",
              "type": "uint256"
            },
            {
              "internalType": "uint256",
              "name": "rewardPercentage",
              "type": "uint256"
            },
            {
              "internalType": "uint256",
              "name": "totalTokenOpenInvestment",
              "type": "uint256"
            },
            {
              "internalType": "uint256",
              "name": "tokensSold",
              "type": "uint256"
            },
            {
              "internalType": "uint256",
              "name": "closeDateInvestment",
              "type": "uint256"
            },
            {
              "internalType": "uint256",
              "name": "endDateInvestment",
              "type": "uint256"
            },
            {
              "internalType": "bool",
              "name": "isActive",
              "type": "bool"
            },
            {
              "internalType": "bool",
              "name": "exists",
              "type": "bool"
            },
            {
              "internalType": "uint256",
              "name": "createdAt",
              "type": "uint256"
            },
            {
              "internalType": "enum FundRaisingContractNFT.Status",
              "name": "status",
              "type": "uint8"
            }
          ],
          "internalType": "struct FundRaisingContractNFT.InvestmentRound[]",
          "name": "rounds",
          "type": "tuple[]"
        },
        {
          "internalType": "uint256[]",
          "name": "investorCounts",
          "type": "uint256[]"
        },
        {
          "internalType": "uint256",
          "name": "totalPages",
          "type": "uint256"
        },
        {
          "internalType": "uint256",
          "name": "currentPage",
          "type": "uint256"
        },
        {
          "internalType": "bool",
          "name": "hasMore",
          "type": "bool"
        }
      ],
      "stateMutability": "view",
      "type": "function"
    },
    {
      "inputs": [],
      "name": "getAllRoundsSummary",
      "outputs": [
        {
          "internalType": "uint256[]",
          "name": "roundIds",
          "type": "uint256[]"
        },
        {
          "internalType": "string[]",
          "name": "roundNames",
          "type": "string[]"
        },
        {
          "internalType": "bool[]",
          "name": "roundStatuses",
          "type": "bool[]"
        },
        {
          "internalType": "uint256[]",
          "name": "totalRaised",
          "type": "uint256[]"
        },
        {
          "internalType": "bool[]",
          "name": "isInvestmentOpenArray",
          "type": "bool[]"
        }
      ],
      "stateMutability": "view",
      "type": "function"
    },
    {
      "inputs": [
        {
          "internalType": "uint256",
          "name": "offset",
          "type": "uint256"
        },
        {
          "internalType": "uint256",
          "name": "limit",
          "type": "uint256"
        },
        {
          "internalType": "enum FundRaisingContractNFT.SortField",
          "name": "sortField",
          "type": "uint8"
        },
        {
          "internalType": "enum FundRaisingContractNFT.SortDirection",
          "name": "sortDirection",
          "type": "uint8"
        }
      ],
      "name": "getAllRoundsSummaryPaginated",
      "outputs": [
        {
          "internalType": "uint256[]",
          "name": "roundIds",
          "type": "uint256[]"
        },
        {
          "internalType": "string[]",
          "name": "roundNames",
          "type": "string[]"
        },
        {
          "internalType": "bool[]",
          "name": "roundStatuses",
          "type": "bool[]"
        },
        {
          "internalType": "uint256[]",
          "name": "totalRaised",
          "type": "uint256[]"
        },
        {
          "internalType": "bool[]",
          "name": "isInvestmentOpenArray",
          "type": "bool[]"
        },
        {
          "internalType": "uint256[]",
          "name": "availableTokensArray",
          "type": "uint256[]"
        },
        {
          "internalType": "uint256[]",
          "name": "daysUntilCloseArray",
          "type": "uint256[]"
        },
        {
          "internalType": "uint256",
          "name": "totalPages",
          "type": "uint256"
        },
        {
          "internalType": "uint256",
          "name": "currentPage",
          "type": "uint256"
        },
        {
          "internalType": "bool",
          "name": "hasMore",
          "type": "bool"
        }
      ],
      "stateMutability": "view",
      "type": "function"
    },
    {
      "inputs": [
        {
          "internalType": "uint256",
          "name": "offset",
          "type": "uint256"
        },
        {
          "internalType": "uint256",
          "name": "limit",
          "type": "uint256"
        }
      ],
      "name": "getAllRoundsSummaryPaginatedDefault",
      "outputs": [
        {
          "internalType": "uint256[]",
          "name": "roundIds",
          "type": "uint256[]"
        },
        {
          "internalType": "string[]",
          "name": "roundNames",
          "type": "string[]"
        },
        {
          "internalType": "bool[]",
          "name": "roundStatuses",
          "type": "bool[]"
        },
        {
          "internalType": "uint256[]",
          "name": "totalRaised",
          "type": "uint256[]"
        },
        {
          "internalType": "bool[]",
          "name": "isInvestmentOpenArray",
          "type": "bool[]"
        },
        {
          "internalType": "uint256[]",
          "name": "availableTokensArray",
          "type": "uint256[]"
        },
        {
          "internalType": "uint256[]",
          "name": "daysUntilCloseArray",
          "type": "uint256[]"
        },
        {
          "internalType": "uint256",
          "name": "totalPages",
          "type": "uint256"
        },
        {
          "internalType": "uint256",
          "name": "currentPage",
          "type": "uint256"
        },
        {
          "internalType": "bool",
          "name": "hasMore",
          "type": "bool"
        }
      ],
      "stateMutability": "view",
      "type": "function"
    },
    {
      "inputs": [
        {
          "internalType": "uint256",
          "name": "roundId",
          "type": "uint256"
        }
      ],
      "name": "getAvailableTokens",
      "outputs": [
        {
          "internalType": "uint256",
          "name": "",
          "type": "uint256"
        }
      ],
      "stateMutability": "view",
      "type": "function"
    },
    {
      "inputs": [
        {
          "internalType": "uint256",
          "name": "roundId",
          "type": "uint256"
        }
      ],
      "name": "getCalculationDividendAmount",
      "outputs": [
        {
          "internalType": "uint256",
          "name": "totalPrincipalAmount",
          "type": "uint256"
        },
        {
          "internalType": "uint256",
          "name": "totalRewardAmount",
          "type": "uint256"
        },
        {
          "internalType": "uint256",
          "name": "totalNFTs",
          "type": "uint256"
        },
        {
          "internalType": "uint256",
          "name": "redeemedNFTs",
          "type": "uint256"
        },
        {
          "internalType": "uint256",
          "name": "rewardClaimedNFTs",
          "type": "uint256"
        }
      ],
      "stateMutability": "view",
      "type": "function"
    },
    {
      "inputs": [],
      "name": "getContractStats",
      "outputs": [
        {
          "internalType": "uint256",
          "name": "totalRounds",
          "type": "uint256"
        },
        {
          "internalType": "uint256",
          "name": "totalUSDTRaisedAmount",
          "type": "uint256"
        },
        {
          "internalType": "uint256",
          "name": "contractUSDTBalance",
          "type": "uint256"
        },
        {
          "internalType": "uint256",
          "name": "activeRounds",
          "type": "uint256"
        }
      ],
      "stateMutability": "view",
      "type": "function"
    },
    {
      "inputs": [],
      "name": "getContractUSDTBalance",
      "outputs": [
        {
          "internalType": "uint256",
          "name": "",
          "type": "uint256"
        }
      ],
      "stateMutability": "view",
      "type": "function"
    },
    {
      "inputs": [
        {
          "internalType": "uint256",
          "name": "roundId",
          "type": "uint256"
        }
      ],
      "name": "getInvestmentRound",
      "outputs": [
        {
          "components": [
            {
              "internalType": "uint256",
              "name": "roundId",
              "type": "uint256"
            },
            {
              "internalType": "string",
              "name": "roundName",
              "type": "string"
            },
            {
              "internalType": "uint256",
              "name": "tokenPrice",
              "type": "uint256"
            },
            {
              "internalType": "uint256",
              "name": "rewardPercentage",
              "type": "uint256"
            },
            {
              "internalType": "uint256",
              "name": "totalTokenOpenInvestment",
              "type": "uint256"
            },
            {
              "internalType": "uint256",
              "name": "tokensSold",
              "type": "uint256"
            },
            {
              "internalType": "uint256",
              "name": "closeDateInvestment",
              "type": "uint256"
            },
            {
              "internalType": "uint256",
              "name": "endDateInvestment",
              "type": "uint256"
            },
            {
              "internalType": "bool",
              "name": "isActive",
              "type": "bool"
            },
            {
              "internalType": "bool",
              "name": "exists",
              "type": "bool"
            },
            {
              "internalType": "uint256",
              "name": "createdAt",
              "type": "uint256"
            },
            {
              "internalType": "enum FundRaisingContractNFT.Status",
              "name": "status",
              "type": "uint8"
            }
          ],
          "internalType": "struct FundRaisingContractNFT.InvestmentRound",
          "name": "",
          "type": "tuple"
        }
      ],
      "stateMutability": "view",
      "type": "function"
    },
    {
      "inputs": [
        {
          "internalType": "uint256",
          "name": "roundId",
          "type": "uint256"
        }
      ],
      "name": "getRoundInformation",
      "outputs": [
        {
          "components": [
            {
              "internalType": "uint256",
              "name": "roundId",
              "type": "uint256"
            },
            {
              "internalType": "string",
              "name": "roundName",
              "type": "string"
            },
            {
              "internalType": "uint256",
              "name": "tokenPrice",
              "type": "uint256"
            },
            {
              "internalType": "uint256",
              "name": "rewardPercentage",
              "type": "uint256"
            },
            {
              "internalType": "uint256",
              "name": "totalTokenOpenInvestment",
              "type": "uint256"
            },
            {
              "internalType": "uint256",
              "name": "tokensSold",
              "type": "uint256"
            },
            {
              "internalType": "uint256",
              "name": "closeDateInvestment",
              "type": "uint256"
            },
            {
              "internalType": "uint256",
              "name": "endDateInvestment",
              "type": "uint256"
            },
            {
              "internalType": "bool",
              "name": "isActive",
              "type": "bool"
            },
            {
              "internalType": "bool",
              "name": "exists",
              "type": "bool"
            },
            {
              "internalType": "uint256",
              "name": "createdAt",
              "type": "uint256"
            },
            {
              "internalType": "enum FundRaisingContractNFT.Status",
              "name": "status",
              "type": "uint8"
            }
          ],
          "internalType": "struct FundRaisingContractNFT.InvestmentRound",
          "name": "roundInfo",
          "type": "tuple"
        },
        {
          "internalType": "uint256",
          "name": "totalUSDTRaisedInRound",
          "type": "uint256"
        },
        {
          "internalType": "uint256",
          "name": "totalInvestors",
          "type": "uint256"
        },
        {
          "internalType": "uint256",
          "name": "availableTokens",
          "type": "uint256"
        },
        {
          "internalType": "bool",
          "name": "isInvestmentOpen",
          "type": "bool"
        },
        {
          "internalType": "bool",
          "name": "isRedemptionOpen",
          "type": "bool"
        },
        {
          "internalType": "uint256",
          "name": "daysUntilClose",
          "type": "uint256"
        },
        {
          "internalType": "uint256",
          "name": "daysUntilRedemption",
          "type": "uint256"
        }
      ],
      "stateMutability": "view",
      "type": "function"
    },
    {
      "inputs": [
        {
          "internalType": "uint256",
          "name": "roundId",
          "type": "uint256"
        }
      ],
      "name": "getRoundInvestors",
      "outputs": [
        {
          "internalType": "address[]",
          "name": "investors",
          "type": "address[]"
        },
        {
          "internalType": "uint256[]",
          "name": "nftCounts",
          "type": "uint256[]"
        }
      ],
      "stateMutability": "view",
      "type": "function"
    },
    {
      "inputs": [
        {
          "internalType": "uint256",
          "name": "roundId",
          "type": "uint256"
        }
      ],
      "name": "getRoundMetrics",
      "outputs": [
        {
          "internalType": "uint256",
          "name": "soldPercentage",
          "type": "uint256"
        },
        {
          "internalType": "uint256",
          "name": "averageInvestmentSize",
          "type": "uint256"
        },
        {
          "internalType": "uint256",
          "name": "totalRewardsPaid",
          "type": "uint256"
        },
        {
          "internalType": "uint256",
          "name": "totalPrincipalRedeemed",
          "type": "uint256"
        },
        {
          "internalType": "uint256",
          "name": "earlyRewardsClaimed",
          "type": "uint256"
        },
        {
          "internalType": "uint256",
          "name": "fullRedemptions",
          "type": "uint256"
        }
      ],
      "stateMutability": "view",
      "type": "function"
    },
    {
      "inputs": [
        {
          "internalType": "uint256",
          "name": "roundId",
          "type": "uint256"
        }
      ],
      "name": "getRoundStatus",
      "outputs": [
        {
          "internalType": "enum FundRaisingContractNFT.Status",
          "name": "status",
          "type": "uint8"
        }
      ],
      "stateMutability": "view",
      "type": "function"
    },
    {
      "inputs": [
        {
          "internalType": "uint256",
          "name": "roundId",
          "type": "uint256"
        }
      ],
      "name": "getRoundTokenIds",
      "outputs": [
        {
          "internalType": "uint256[]",
          "name": "",
          "type": "uint256[]"
        }
      ],
      "stateMutability": "view",
      "type": "function"
    },
    {
      "inputs": [
        {
          "internalType": "uint256",
          "name": "roundId",
          "type": "uint256"
        }
      ],
      "name": "getRoundUSDTBalance",
      "outputs": [
        {
          "internalType": "uint256",
          "name": "",
          "type": "uint256"
        }
      ],
      "stateMutability": "view",
      "type": "function"
    },
    {
      "inputs": [],
      "name": "getRoundsCount",
      "outputs": [
        {
          "internalType": "uint256",
          "name": "totalRounds",
          "type": "uint256"
        },
        {
          "internalType": "uint256",
          "name": "activeRounds",
          "type": "uint256"
        }
      ],
      "stateMutability": "view",
      "type": "function"
    },
    {
      "inputs": [],
      "name": "getUSDTTokenAddress",
      "outputs": [
        {
          "internalType": "address",
          "name": "",
          "type": "address"
        }
      ],
      "stateMutability": "view",
      "type": "function"
    },
    {
      "inputs": [
        {
          "internalType": "address",
          "name": "user",
          "type": "address"
        }
      ],
      "name": "getUserInvestments",
      "outputs": [
        {
          "internalType": "uint256[]",
          "name": "",
          "type": "uint256[]"
        }
      ],
      "stateMutability": "view",
      "type": "function"
    },
    {
      "inputs": [
        {
          "internalType": "uint256",
          "name": "roundId",
          "type": "uint256"
        },
        {
          "internalType": "address",
          "name": "user",
          "type": "address"
        }
      ],
      "name": "getUserNFTCountInRound",
      "outputs": [
        {
          "internalType": "uint256",
          "name": "",
          "type": "uint256"
        }
      ],
      "stateMutability": "view",
      "type": "function"
    },
    {
      "inputs": [
        {
          "internalType": "uint256",
          "name": "roundId",
          "type": "uint256"
        },
        {
          "internalType": "address",
          "name": "user",
          "type": "address"
        }
      ],
      "name": "getUserNFTsInRound",
      "outputs": [
        {
          "internalType": "uint256[]",
          "name": "",
          "type": "uint256[]"
        }
      ],
      "stateMutability": "view",
      "type": "function"
    },
    {
      "inputs": [
        {
          "internalType": "uint256",
          "name": "roundId",
          "type": "uint256"
        },
        {
          "internalType": "address",
          "name": "user",
          "type": "address"
        }
      ],
      "name": "getUserRoundSummary",
      "outputs": [
        {
          "internalType": "uint256",
          "name": "nftCount",
          "type": "uint256"
        },
        {
          "internalType": "uint256",
          "name": "totalUSDTInvested",
          "type": "uint256"
        },
        {
          "internalType": "uint256",
          "name": "totalTokens",
          "type": "uint256"
        },
        {
          "internalType": "uint256",
          "name": "expectedReward",
          "type": "uint256"
        },
        {
          "internalType": "uint256",
          "name": "totalExpectedPayout",
          "type": "uint256"
        },
        {
          "internalType": "bool",
          "name": "hasMaturedInvestments",
          "type": "bool"
        },
        {
          "internalType": "bool",
          "name": "hasRedeemedInvestments",
          "type": "bool"
        }
      ],
      "stateMutability": "view",
      "type": "function"
    },
    {
      "inputs": [
        {
          "internalType": "uint256",
          "name": "roundId",
          "type": "uint256"
        },
        {
          "internalType": "address",
          "name": "user",
          "type": "address"
        }
      ],
      "name": "getUserTotalInvestmentInRound",
      "outputs": [
        {
          "internalType": "uint256",
          "name": "totalUSDT",
          "type": "uint256"
        },
        {
          "internalType": "uint256",
          "name": "totalTokens",
          "type": "uint256"
        }
      ],
      "stateMutability": "view",
      "type": "function"
    },
    {
      "inputs": [
        {
          "internalType": "uint256",
          "name": "roundId",
          "type": "uint256"
        },
        {
          "internalType": "address",
          "name": "user",
          "type": "address"
        }
      ],
      "name": "hasUserInvestedInRound",
      "outputs": [
        {
          "internalType": "bool",
          "name": "",
          "type": "bool"
        }
      ],
      "stateMutability": "view",
      "type": "function"
    },
    {
      "inputs": [
        {
          "internalType": "uint256",
          "name": "roundId",
          "type": "uint256"
        },
        {
          "internalType": "uint256",
          "name": "tokenAmount",
          "type": "uint256"
        }
      ],
      "name": "investInRound",
      "outputs": [
        {
          "internalType": "uint256",
          "name": "",
          "type": "uint256"
        }
      ],
      "stateMutability": "nonpayable",
      "type": "function"
    },
    {
      "inputs": [
        {
          "internalType": "uint256",
          "name": "",
          "type": "uint256"
        }
      ],
      "name": "investmentRounds",
      "outputs": [
        {
          "internalType": "uint256",
          "name": "roundId",
          "type": "uint256"
        },
        {
          "internalType": "string",
          "name": "roundName",
          "type": "string"
        },
        {
          "internalType": "uint256",
          "name": "tokenPrice",
          "type": "uint256"
        },
        {
          "internalType": "uint256",
          "name": "rewardPercentage",
          "type": "uint256"
        },
        {
          "internalType": "uint256",
          "name": "totalTokenOpenInvestment",
          "type": "uint256"
        },
        {
          "internalType": "uint256",
          "name": "tokensSold",
          "type": "uint256"
        },
        {
          "internalType": "uint256",
          "name": "closeDateInvestment",
          "type": "uint256"
        },
        {
          "internalType": "uint256",
          "name": "endDateInvestment",
          "type": "uint256"
        },
        {
          "internalType": "bool",
          "name": "isActive",
          "type": "bool"
        },
        {
          "internalType": "bool",
          "name": "exists",
          "type": "bool"
        },
        {
          "internalType": "uint256",
          "name": "createdAt",
          "type": "uint256"
        },
        {
          "internalType": "enum FundRaisingContractNFT.Status",
          "name": "status",
          "type": "uint8"
        }
      ],
      "stateMutability": "view",
      "type": "function"
    },
    {
      "inputs": [
        {
          "internalType": "uint256",
          "name": "roundId",
          "type": "uint256"
        }
      ],
      "name": "isRoundOpen",
      "outputs": [
        {
          "internalType": "bool",
          "name": "",
          "type": "bool"
        }
      ],
      "stateMutability": "view",
      "type": "function"
    },
    {
      "inputs": [],
      "name": "owner",
      "outputs": [
        {
          "internalType": "address",
          "name": "",
          "type": "address"
        }
      ],
      "stateMutability": "view",
      "type": "function"
    },
    {
      "inputs": [],
      "name": "pause",
      "outputs": [],
      "stateMutability": "nonpayable",
      "type": "function"
    },
    {
      "inputs": [],
      "name": "paused",
      "outputs": [
        {
          "internalType": "bool",
          "name": "",
          "type": "bool"
        }
      ],
      "stateMutability": "view",
      "type": "function"
    },
    {
      "inputs": [],
      "name": "renounceOwnership",
      "outputs": [],
      "stateMutability": "nonpayable",
      "type": "function"
    },
    {
      "inputs": [
        {
          "internalType": "uint256",
          "name": "",
          "type": "uint256"
        },
        {
          "internalType": "uint256",
          "name": "",
          "type": "uint256"
        }
      ],
      "name": "roundTokenIds",
      "outputs": [
        {
          "internalType": "uint256",
          "name": "",
          "type": "uint256"
        }
      ],
      "stateMutability": "view",
      "type": "function"
    },
    {
      "inputs": [
        {
          "internalType": "uint256",
          "name": "",
          "type": "uint256"
        }
      ],
      "name": "roundUSDTLedger",
      "outputs": [
        {
          "internalType": "uint256",
          "name": "",
          "type": "uint256"
        }
      ],
      "stateMutability": "view",
      "type": "function"
    },
    {
      "inputs": [
        {
          "internalType": "uint256",
          "name": "roundId",
          "type": "uint256"
        },
        {
          "internalType": "bool",
          "name": "active",
          "type": "bool"
        }
      ],
      "name": "setRoundActive",
      "outputs": [],
      "stateMutability": "nonpayable",
      "type": "function"
    },
    {
      "inputs": [
        {
          "internalType": "address",
          "name": "newUSDTToken",
          "type": "address"
        }
      ],
      "name": "setUSDTToken",
      "outputs": [],
      "stateMutability": "nonpayable",
      "type": "function"
    },
    {
      "inputs": [],
      "name": "totalRoundsCreated",
      "outputs": [
        {
          "internalType": "uint256",
          "name": "",
          "type": "uint256"
        }
      ],
      "stateMutability": "view",
      "type": "function"
    },
    {
      "inputs": [],
      "name": "totalUSDTRaised",
      "outputs": [
        {
          "internalType": "uint256",
          "name": "",
          "type": "uint256"
        }
      ],
      "stateMutability": "view",
      "type": "function"
    },
    {
      "inputs": [
        {
          "internalType": "address",
          "name": "newOwner",
          "type": "address"
        }
      ],
      "name": "transferOwnership",
      "outputs": [],
      "stateMutability": "nonpayable",
      "type": "function"
    },
    {
      "inputs": [],
      "name": "unpause",
      "outputs": [],
      "stateMutability": "nonpayable",
      "type": "function"
    },
    {
      "inputs": [
        {
          "internalType": "uint256",
          "name": "roundId",
          "type": "uint256"
        },
        {
          "internalType": "enum FundRaisingContractNFT.Status",
          "name": "status",
          "type": "uint8"
        }
      ],
      "name": "updateStatus",
      "outputs": [],
      "stateMutability": "nonpayable",
      "type": "function"
    },
    {
      "inputs": [],
      "name": "usdtToken",
      "outputs": [
        {
          "internalType": "contract IERC20",
          "name": "",
          "type": "address"
        }
      ],
      "stateMutability": "view",
      "type": "function"
    },
    {
      "inputs": [
        {
          "internalType": "address",
          "name": "",
          "type": "address"
        },
        {
          "internalType": "uint256",
          "name": "",
          "type": "uint256"
        }
      ],
      "name": "userInvestments",
      "outputs": [
        {
          "internalType": "uint256",
          "name": "",
          "type": "uint256"
        }
      ],
      "stateMutability": "view",
      "type": "function"
    },
    {
      "inputs": [
        {
          "internalType": "uint256",
          "name": "",
          "type": "uint256"
        },
        {
          "internalType": "address",
          "name": "",
          "type": "address"
        },
        {
          "internalType": "uint256",
          "name": "",
          "type": "uint256"
        }
      ],
      "name": "userNFTsInRound",
      "outputs": [
        {
          "internalType": "uint256",
          "name": "",
          "type": "uint256"
        }
      ],
      "stateMutability": "view",
      "type": "function"
    },
    {
      "inputs": [
        {
          "internalType": "uint256",
          "name": "roundId",
          "type": "uint256"
        }
      ],
      "name": "withdrawFund",
      "outputs": [],
      "stateMutability": "nonpayable",
      "type": "function"
    }
  ],
  "bytecode": "0x60a0346101ec57601f615ee338819003918201601f19168301916001600160401b038311848410176101f05780849260409485528339810103126101ec57610052602061004b83610204565b9201610204565b9033156101d9575f8054336001600160a01b0319821681178355604051939290916001600160a01b0316907f8be0079c531659141344cd1fd0a4f28419497f9722a3daafe3b4186f6b6457e09080a3600180556001600160a01b031690811561019757506001600160a01b038216156101525760805260028054610100600160a81b03191660089290921b610100600160a81b0316919091179055604051615cca90816102198239608051818181610bb601528181610dc0015281816111b401528181611364015281816118b0015281816121af015281816131bb015281816140cd0152818161418b015281816146820152818161499801526156790152f35b60405162461bcd60e51b815260206004820152601460248201527f496e76616c6964205553445420616464726573730000000000000000000000006044820152606490fd5b62461bcd60e51b815260206004820152601560248201527f496e76616c696420445a4e4654206164647265737300000000000000000000006044820152606490fd5b631e4fbdf760e01b5f525f60045260245ffd5b5f80fd5b634e487b7160e01b5f52604160045260245ffd5b51906001600160a01b03821682036101ec5756fe60806040526004361015610011575f80fd5b5f5f3560e01c8063048f80ba1461490a57806304d575251461470057806306d938381461465457806308c89b6d146146375780630962ef791461414f5780630c64428f1461409d5780630c8344e714613e725780630cee172514613d755780631086bfdc14613d235780631144e79e14613d07578063140fa8b214613bef5780631470e87d146114ea578063161f662214613b6d57806318f38da214613ad057806330814b1b14613ab25780633519a2f814613a545780633a1b3d31146139a35780633b7275711461393e5780633f4ba83a146138d65780633ff0c9c4146136b557806342b38fd11461360057806346468763146133b35780634cadabdc146131385780635312ea8e14612fd95780635848b10914612cb15780635c975abb14612c8e57806360985a4b14612a6357806366e226bd14612945578063676045511461210857806369fbd3cc1461203c5780636d796db514611e19578063715018a614611dbf57806375c93bb914611c3757806379b2c17a14611b9a5780638456cb5914611b3f57806387b8df5b14611ae15780638b0f9552146117455780638da5cb5b1461171e5780639187cb031461162f5780639244adcd146115e75780639cbe5efd146115c9578063a09686c414611541578063a8f252b014611517578063a98ad46c146114ea578063b201c0c3146114b8578063b4ad7d3a14611472578063b6dc2c29146112da578063b82e4fc3146111e3578063bf32eb011461119e578063c52c5c8814611114578063c6f83418146110f8578063c8f760401461106c578063cfbb52d314611009578063df8493b014610a21578063dfe6b5d61461090b578063e96d87b4146103ab578063ef1b92a414610347578063ef2cfd1a1461032b5763f2fde38b146102a3575f80fd5b34610328576020366003190112610328576102bc614b27565b6102c4615c6e565b6001600160a01b031680156103145781546001600160a01b03198116821783556001600160a01b03167f8be0079c531659141344cd1fd0a4f28419497f9722a3daafe3b4186f6b6457e08380a380f35b631e4fbdf760e01b82526004829052602482fd5b80fd5b5034610328578060031936011261032857602060405160128152f35b503461032857606036600319011261032857610361614b11565b906044359160043582526006602052604082209060018060a01b03165f5260205260405f2090815483101561032857602061039c8484614f6e565b90549060031b1c604051908152f35b50346103285760c036600319011261032857600435906001600160401b03821161032857366023830112156103285781600401356103e881614f97565b926103f66040519485614ead565b818452366024838301011161090757818392602460209301838701378401015260443560a43560843560643560243561042d615c6e565b8651156108c257801561087d5784151580610871575b156108205781156107cf574283111561078a578284111561073b576008549561046b87615589565b6008558660095561047b8261517f565b60405161048781614e7d565b88815260208101918a835260408201528760608201528460808201528260a08201528560c08201528660e08201526001610100820152600161012082015242610140820152826101608201528883526003602052604083209181518355518051906001600160401b038211610727576105036001850154614e45565b601f81116106e3575b50602090601f83116001146106775761016093929186918361066c575b50508160011b915f199060031b1c19161760018401555b60408101516002840155606081015160038401556080810151600484015560a0810151600584015560c0810151600684015560e081015160078401556008830161059d6101008301511515829060ff801983541691151516179055565b610120820151815461ff00191690151560081b61ff0016179055610140810151600984015501519160058310156106585750936020989361061f89989461060c7f068fdde760e5730532959669855b5a6f20cb96e8685d2d1330a83d3a6fad0bbb9995600a6106349a0161550c565b610617600a54615589565b600a5561517f565b9360405196879660c0885260c0880190614b6d565b948b87015260408601526060850152608084015260a08301520390a2604051908152f35b634e487b7160e01b81526021600452602490fd5b015190505f80610529565b6001850186528186209190601f198416875b8181106106cb5750916001939185610160979694106106b3575b505050811b016001840155610540565b01515f1960f88460031b161c191690555f80806106a3565b92936020600181928786015181550195019301610689565b60018501865260208620601f840160051c810160208510610720575b601f830160051c8201811061071557505061050c565b8781556001016106ff565b50806106ff565b634e487b7160e01b85526041600452602485fd5b60405162461bcd60e51b815260206004820152602160248201527f456e642064617465206d75737420626520616674657220636c6f7365206461746044820152606560f81b6064820152608490fd5b60405162461bcd60e51b815260206004820152601c60248201527f436c6f73652064617465206d75737420626520696e20667574757265000000006044820152606490fd5b60405162461bcd60e51b815260206004820152602360248201527f546f74616c20746f6b656e73206d75737420626520677265617465722074686160448201526206e20360ec1b6064820152608490fd5b60405162461bcd60e51b815260206004820152602360248201527f496e76616c6964207265776172642070657263656e746167652028302d31303060448201526230302960e81b6064820152608490fd5b50612710851115610443565b60405162461bcd60e51b815260206004820152601c60248201527f5072696365206d7573742062652067726561746572207468616e2030000000006044820152606490fd5b60405162461bcd60e51b815260206004820152601a60248201527f526f756e64206e616d652063616e6e6f7420626520656d7074790000000000006044820152606490fd5b8280fd5b50346103285780600319360112610328576008549080805b8381106109cb5760248383600a5491600b54602060018060a01b0360025460081c16604051968780926370a0823160e01b82523060048301525afa9182156109bf5791610986575b60809450604051938452602084015260408301526060820152f35b90506020843d6020116109b7575b816109a160209383614ead565b810103126109b357608093519061096b565b5f80fd5b3d9150610994565b604051903d90823e3d90fd5b808352600360205260ff600860408520015460081c1680610a08575b6109f4575b600101610923565b90610a00600191615589565b9190506109ec565b50808352600360205260ff6008604085200154166109e7565b503461032857610a3036614d06565b9091610a3a615c33565b610a42615c53565b8281526003602052610a6060ff600860408420015460081c16614fb2565b828152600360205260ff60086040832001541615610fce578281526003602052610a9360066040832001544211156157bd565b8281526003602052610aad600660408320015442106157bd565b8115610f7d5760648211610f1b578281526003602052604081209260028401610ad78154856151a3565b938415610edd576005860191610aee8284546151d4565b600488015410610e86576002546040516323b872dd60e01b81523360048201523060248201526044810188905290602090829060081c6001600160a01b03168189816064810103925af18015610e7b578690610e40575b610b4f91506154c9565b54956003810154906007600682015491015490600184115f14610d5757604051632fdc968f60e21b81523360048201526024810185905260448101879052606481018a90526084810193909352600160a484015260c483015260e4820152848161010481837f00000000000000000000000000000000000000000000000000000000000000006001600160a01b03165af1908115610d4c578591610d04575b50955b8385526004602052604085209033865260056020526040862085875260066020526040872060018060a01b0333165f5260205260405f2090875b858110610c80576020610c738c8c610c6c60408e8e8e610c4c8f82546151d4565b9055610c5a85600b546151d4565b600b55815260078752209182546151d4565b9055614ff5565b5160018055604051908152f35b80610cbf610cb8828e610c9f610c9860019783615002565b518b615809565b610cb3610cac8383615002565b5188615809565b615002565b5185615809565b610cc9818d615002565b51604051908682528360208301528a7f30a6facb9fa9a18999d5ff7f2ce5641caca8d5f45c8ff24bced9833614b8e88060403394a401610c2b565b90503d8086833e610d158183614ead565b810190602081830312610d48578051906001600160401b038211610d4457610d3e9291016152e8565b5f610bee565b8680fd5b8580fd5b6040513d87823e3d90fd5b979190604091825191610d6a8484614ead565b60018352601f198401366020850137829a84519263f4fb815960e01b845233600485015289602485015286604485015260648401526001608484015260a483015260c482015260208160e4818b60018060a01b037f0000000000000000000000000000000000000000000000000000000000000000165af1928315610e3757508792610e01575b50610dfb90614ff5565b52610bf1565b9091506020813d602011610e2f575b81610e1d60209383614ead565b810103126109b3575190610dfb610df1565b3d9150610e10565b513d89823e3d90fd5b506020813d602011610e73575b81610e5a60209383614ead565b81010312610d4857610e6e610b4f9161502a565b610b45565b3d9150610e4d565b6040513d88823e3d90fd5b60405162461bcd60e51b815260206004820152602960248201527f4e6f7420656e6f75676820746f6b656e7320617661696c61626c6520696e20746044820152681a1a5cc81c9bdd5b9960ba1b6064820152608490fd5b60405162461bcd60e51b8152602060048201526016602482015275151bdad95b88185b5bdd5b9d081d1bdbc81cdb585b1b60521b6044820152606490fd5b60405162461bcd60e51b815260206004820152603460248201527f546f6b656e20616d6f756e742065786365656473206d6178696d756d20616c6c60448201527337bbb2b2103832b9103a3930b739b0b1ba34b7b760611b6064820152608490fd5b60405162461bcd60e51b815260206004820152602360248201527f546f6b656e20616d6f756e74206d75737420626520677265617465722074686160448201526206e20360ec1b6064820152608490fd5b60405162461bcd60e51b8152602060048201526013602482015272526f756e64206973206e6f742061637469766560681b6044820152606490fd5b503461032857604036600319011261032857604060043591611029614b11565b92808252600360205261104760ff6008858520015460081c16614fb2565b81526006602052209060018060a01b03165f52602052602060405f2054604051908152f35b50346103285780600319360112610328576002546040516370a0823160e01b815230600482015291906020908390602490829060081c6001600160a01b03165afa9081156109bf57906110c5575b602090604051908152f35b506020813d6020116110f0575b816110df60209383614ead565b810103126109b357602090516110ba565b3d91506110d2565b5034610328578060031936011261032857602060405160648152f35b5034610328576020366003190112610328576001600160a01b03611136614b27565b168152600560205260408120604051918260208354918281520192825260208220915b818110611188576111848561117081870382614ead565b604051918291602083526020830190614c4c565b0390f35b8254845260209093019260019283019201611159565b50346103285780600319360112610328576040517f00000000000000000000000000000000000000000000000000000000000000006001600160a01b03168152602090f35b503461032857602036600319011261032857604061118491600435611206615251565b50808252600360205261122460ff6008858520015460081c16614fb2565b81526003602052206112c660ff600a6040519361124085614e7d565b8054855261125060018201614ece565b6020860152600281015460408601526003810154606086015260048101546080860152600581015460a0860152600681015460c0860152600781015460e0860152826008820154818116151561010088015260081c161515610120860152600981015461014086015201541661016083016152dc565b604051918291602083526020830190614bb2565b5034610328576040366003190112610328576004356112f7614b11565b90808352600360205261131660ff600860408620015460081c16614fb2565b82526006602052604082209060018060a01b03165f5260205260405f206040518082602082945493848152019085526020852092855b81811061145957505061136192500382614ead565b817f00000000000000000000000000000000000000000000000000000000000000006001600160a01b031681805b8451841015611449576113a28486615002565b519160405192634712f17360e11b845260048401528683602481875afa92831561143e57879361140d575b506001916113fd61140592670de0b6b3a76400006113f6608088019760408951910151906151a3565b04906151d4565b9351906151d4565b93019261138f565b611405919350916113fd6114346001943d808c833e61142c8183614ead565b81019061507d565b94925050916113cd565b6040513d89823e3d90fd5b6040925082519182526020820152f35b845483526001948501948694506020909301920161134c565b5034610328576020366003190112610328576040602091600435808252600384526114a860ff6008858520015460081c16614fb2565b8152600783522054604051908152f35b5034610328576114c736614d06565b9190815260046020526040812090815483101561032857602061039c8484614f6e565b503461032857806003193601126103285760025460405160089190911c6001600160a01b03168152602090f35b50346103285760203660031901126103285760406020916004358152600783522054604051908152f35b5034610328578060031936011261032857600a548182600854935b848110611573576040848482519182526020820152f35b808252600360205260ff600860408420015460081c16806115b0575b61159c575b60010161155c565b916115a8600191615589565b929050611594565b50808252600360205260ff60086040842001541661158f565b50346103285780600319360112610328576020600954604051908152f35b503461032857604036600319011261032857611601614b27565b6001600160a01b031681526005602052604081208054602435929083101561032857602061039c8484614f6e565b50346103285760203660031901126103285761171660406020926004358082526003855261166860ff6008858520015460081c16614fb2565b8152600384522060405161167b81614e7d565b8154815261168b60018301614ece565b84820152600282015460408201526003820154606082015261170d6004830154916080810192835261016060ff600a60058701549660a08501978852600681015460c0860152600781015460e0860152826008820154818116151561010088015260081c161515610120860152600981015461014086015201541691016152dc565b5190519061522d565b604051908152f35b5034610328578060031936011261032857546040516001600160a01b039091168152602090f35b503461032857602036600319011261032857600435808252600360205261177860ff600860408520015460081c16614fb2565b8190829083908492859086908388526003602052604088209360405161179d81614e7d565b855481526117ad60018701614ece565b602082015260028601549160408201928352600387015496606083019788526118366004820154936080810194855261016060ff600a60058601549560a08501968752600681015460c0860152600781015460e0860152826008820154818116151561010088015260081c161515610120860152600981015461014086015201541691016152dc565b818c52600460205260408c20928c6040518095869160208254918281520191845260208420935b818110611ac857505061187292500385614ead565b8051611a88575b506040519163132b6af760e21b835260048301528b82602481305afa918215611a7d578c92611a57575b508151611a34575b5092987f00000000000000000000000000000000000000000000000000000000000000006001600160a01b031693508a5b8251811015611a0a576118ef8184615002565b5160405190634712f17360e11b825260048201528c81602481895afa9081156119ff578d916119e5575b5061014081019081516119a8575b61012081015161193c575b50506001016118dc565b96996119676119606080611955949e946001969e615589565b9a01518851906151a3565b80936151d4565b9b511561199157606461197f611988938c51906151a3565b04831c906151d4565b985b905f611932565b60646113f66119a2938c51906151a3565b9861198a565b996119df9060646119d56119cd60808f9d6119c290615589565b9d01518a51906151a3565b8d51906151a3565b0460011c906151d4565b99611927565b6119f991503d808f833e61142c8183614ead565b5f611919565b6040513d8f823e3d90fd5b5060c09085878b8b8e604051958652602086015260408501526060840152608083015260a0820152f35b611a4f929450611a4790518451906151a3565b9051906151b6565b915f806118ab565b611a759192508c3d8091833e611a6d8183614ead565b810190615345565b50905f6118a3565b6040513d8e823e3d90fd5b90809b5051906127108202918083046127101490151715611ab45751611aad916151b6565b995f611879565b634e487b7160e01b8d52601160045260248dfd5b845483526001948501948994506020909301920161185d565b503461032857602036600319011261032857611b1f60a091611b1a60ff6008604060043594858152600360205220015460081c16614fb2565b61562c565b926040929192519485526020850152604084015260608301526080820152f35b5034610328578060031936011261032857611b58615c6e565b611b60615c53565b600160ff1960025416176002557f62e78cea01bee320cd4e420270b5ea74000d11b0c9f74754ebdbfc544b05a2586020604051338152a180f35b50346103285760403660031901126103285760043560243580151590818103611c33577fdd8c33b779db77b877161fe300dfc92dc5b0d87c7e4199701eb25330a83e16f991611c29602092611bed615c6e565b85875260038452611c0a60ff600860408a20015460081c16614fb2565b85875260038452600860408820019060ff801983541691151516179055565b604051908152a280f35b8380fd5b50346103285780611c4736614d06565b611c52929192615c6e565b8282526003602052611c7060ff600860408520015460081c16614fb2565b611c7b811515615597565b600254602090611cca9060081c6001600160a01b0316611c9a8461517f565b6040516323b872dd60e01b8152336004820152306024820152604481019190915294859283919082906064820190565b03925af1918215611db4578492611d4c575b50611c29602091611d0d7f840f34d9e1ef4bad95d455fc5722e970ebdcfec5778eca96c54edd60e69b463f946154c9565b611d168161517f565b85875260078452611d2c604088209182546151d4565b90558486526003835260408620600a01805460ff1916600417905561517f565b91506020823d602011611dac575b81611d6760209383614ead565b81010312611c3357611c29602091611d0d611da27f840f34d9e1ef4bad95d455fc5722e970ebdcfec5778eca96c54edd60e69b463f9561502a565b9450509150611cdc565b3d9150611d5a565b6040513d86823e3d90fd5b5034610328578060031936011261032857611dd8615c6e565b80546001600160a01b03198116825581906001600160a01b03167f8be0079c531659141344cd1fd0a4f28419497f9722a3daafe3b4186f6b6457e08280a380f35b5034610328578060031936011261032857600a5490611e37826152aa565b90611e41836155e3565b611e4a846152aa565b90611e54856152aa565b94611e5e816152aa565b93805b828110611ec857611e908761118488611eba8c611eac8b611e9e8c604051998a9960a08b5260a08b0190614c4c565b9089820360208b0152614d1c565b908782036040890152614d74565b908582036060870152614c4c565b908382036080850152614d74565b6001810190818111612028578183526003602052604083208860405193611eee85614e7d565b82548552838c611f0060018601614ece565b6020880190815260028601549060408901918252600387015460608a015260048701549460808a0195865260058801549660a08b019788528560068a01549b60c081019c8d5260078b015460e082015260088b01549a61010082019b60ff811615158d5260081c60ff1615156101208301526009810154610140830152600a015460ff16906101600190611f93916152dc565b611f9c91615002565b5251611fa8848d615002565b52611fb3838c615002565b5085511515611fc2848e615002565b5284519051611fd0916151a3565b91611fda91615002565b52519051611fe79161522d565b90511515906001938261201c575b5081612012575b506120078289615002565b901515905201611e61565b905015155f611ffc565b5142111591505f611ff5565b634e487b7160e01b83526011600452602483fd5b503461032857602036600319011261032857604061018091600435815260036020522080549061118461207160018301614ece565b60028301549260ff6003820154600483015460058401546006850154906007860154926008870154946120c187600a60098b01549a015416996040519e8f9e8f9081528160208201520190614b6d565b9a60408d015260608c015260808b015260a08a015260c089015260e0880152818116151561010088015260081c161515610120860152610140850152610160840190614b91565b503461032857602036600319011261032857600435612125615c33565b61212d615c53565b808252600360205261214b60ff600860408520015460081c16614fb2565b80825260066020526040822060018060a01b0333165f5260205260405f20906040518083602082955493848152019086526020862092865b81811061292c57505061219892500383614ead565b8151156128ef57603282511161287a5790829081907f00000000000000000000000000000000000000000000000000000000000000006001600160a01b031690825b81518410156123b6576121ed8483615002565b51604051906331a9108f60e11b82526004820152602081602481875afa908115612364578891612379575b50336001600160a01b039091160361236f576122348483615002565b519060405191634712f17360e11b835260048301528782602481875afa918215612364578892612348575b5061012082015161233d5761227860a08301514261522d565b62ed4e0081106123315761229560808401516040850151906151a3565b926301e1338060646122ab6060840151876151a3565b0492106122fa5761014001516001936122e39390929091156122ed576122dd926122d791861c906151d4565b906151d4565b95615589565b935b0192936121da565b6122d7906122dd936151d4565b6101409192979350015115612316575b506122e3600191615589565b612329600192966122e392841c906151d4565b95915061230a565b509493600191506122e5565b9493600191506122e5565b61235d9192503d808a833e61142c8183614ead565b905f61225f565b6040513d8a823e3d90fd5b93926001906122e5565b90506020813d82116123ae575b8161239360209383614ead565b810103126123aa576123a490615016565b5f612218565b8780fd5b3d9150612386565b828787928715612835576123cb8115156153e5565b6002546040516370a0823160e01b8152306004820152906020908290602490829060081c6001600160a01b03165afa801561282a57829084906127f4575b61241592501015615426565b838252600760205261242d816040842054101561547d565b815b855181101561272a576124428187615002565b51604051906331a9108f60e11b82526004820152602081602481885afa908115611db45784916126f1575b50336001600160a01b03909116036126e9576124898187615002565b5160405190634712f17360e11b825260048201528381602481885afa908115611db45784916126cf575b50610120810151612626576124cc60a08201514261522d565b62ed4e0081106126c5576124e960808301516040840151906151a3565b916301e1338060646124ff6060840151866151a3565b0492106126185761014001511561260a579061251e9160011c906151d4565b6125288288615002565b51853b156125f157604051906319f477d960e01b825260048201528481602481838a5af18015610d4c579085916125f5575b50506125668288615002565b51853b156125f1576040519063bed62f3560e01b825260048201528481602481838a5af18015610d4c579085916125dc575b5050906001916125a88289615002565b516040519182527fec830d68f9642b924e6a2bbc2ebeb8f06c0ab5417a38f641b088b2412cbaba9560203393a35b0161242f565b816125e691614ead565b611c33578388612598565b8480fd5b816125ff91614ead565b611c3357838861255a565b612613916151d4565b61251e565b61014091925001511561262f575b506001906125d6565b6126398288615002565b51853b156125f157604051906318d8e2a560e01b825260048201528481602481838a5af18015610d4c579085916126b0575b50509060019161267b8289615002565b5160405191841c82527f05609d8b66d3b17249aefcaaa68fa2000914aeeb46371ad3fcae3db02304bde960203393a390612626565b816126ba91614ead565b611c3357838861266b565b50506001906125d6565b6126e391503d8086833e61142c8183614ead565b876124b3565b6001906125d6565b90506020813d8211612722575b8161270b60209383614ead565b81010312611c335761271c90615016565b8761246d565b3d91506126fe565b5060206127888392868452600783526040842061274882825461522d565b905560025460405163a9059cbb60e01b815233600482015260248101929092529093849260089290921c6001600160a01b03169183919082906044820190565b03925af180156127e95782906127aa575b6127a391506154c9565b6001805580f35b506020813d6020116127e1575b816127c460209383614ead565b810103126127dd576127d86127a39161502a565b612799565b5080fd5b3d91506127b7565b6040513d84823e3d90fd5b50506020813d602011612822575b8161280f60209383614ead565b810103126109b357816124159151612409565b3d9150612802565b6040513d85823e3d90fd5b60405162461bcd60e51b815260206004820152601960248201527f4e6f20656c696769626c65204e46547320746f20636c61696d000000000000006044820152606490fd5b60405162461bcd60e51b815260206004820152604160248201527f546f6f206d616e79204e46547320746f20636c61696d206174206f6e63652c2060448201527f706c656173652073706c697420696e746f20736d616c6c6572206261746368656064820152607360f81b608482015260a490fd5b60405162461bcd60e51b8152602060048201526015602482015274139bc81391951cc81a5b881d1a1a5cc81c9bdd5b99605a1b6044820152606490fd5b8454835260019485019487945060209093019201612183565b50346103285760203660031901126103285761295f614b27565b612967615c6e565b6001600160a01b038116908115612a1e57600254600881901c6001600160a01b0316918383146129d957610100600160a81b031990911660089190911b610100600160a81b0316176002557f92852dbadca7e6fa4e0d5dd87891e6dd13f50a304561a86ea9d5a710b972e4498380a380f35b60405162461bcd60e51b815260206004820152601760248201527f53616d65205553445420746f6b656e20616464726573730000000000000000006044820152606490fd5b60405162461bcd60e51b815260206004820152601a60248201527f496e76616c6964205553445420746f6b656e20616464726573730000000000006044820152606490fd5b503461032857612aa981612a7636614d06565b6040516304d5752560e01b8152600481019290925260248201525f60448201819052606482015291829081906084820190565b0381305afa80156127e957829083928485918693612ad5575b5090611184929160405195869586614c7f565b9450505050503d8083833e612aea8183614ead565b810160a0828203126109075781516001600160401b038111611c335782019281601f8501121561032857835193612b208561523a565b94612b2e6040519687614ead565b80865260208087019160051b83010191848311611c335760208101915b838310612ba057505050506020830151906001600160401b038211610328575061118491612b7a9184016152e8565b91604081015193612b9260806060840151930161502a565b909394919091859493612ac2565b82516001600160401b038111610d48578201610180818803601f190112610d485760405190612bce82614e7d565b6020810151825260408101516001600160401b0381116123aa5790612bfb89602061018094840101615037565b6020840152606081015160408401526080810151606084015260a0810151608084015260c081015160a084015260e081015160c084015261010081015160e0840152612c4a610120820161502a565b610100840152612c5d610140820161502a565b61012084015261016081015161014084015201516005811015610d4457610160820152815260209283019201612b4b565b5034610328578060031936011261032857602060ff600254166040519015158152f35b503461032857612cc036614b3d565b92939190600a549382151580612fce575b15612f8957612ce18587106151e1565b612ceb83866151d4565b5f198101908111612f755783612d00916151b6565b90612d0b84886151b6565b9260018401809411612f615790612d2191615842565b92612d2c878761522d565b81811115612f595750945b612d4186886151d4565b1092612d4c866152aa565b94612d56876155e3565b96612d60816152aa565b612d69826152aa565b90612d73836152aa565b92612d7d816152aa565b94612d87826152aa565b96815b838110612da8575050505061118498999a506040519a8b9a8b614da9565b808f8f928f612eb390612e9283600197612dcd612dc78360c0996151d4565b8b615002565b51808c52600360205260408c2090612e80604051988997612ded89614e7d565b84548952610cb360ff8f612e04600a918901614ece565b9760208d0198895260028101549c604081019d8e526003820154606082015260048201546080820152600582015460a0820152600682015460c0820152600782015460e0820152836008830154818116151561010084015260081c16151561012082015261014060098301549101520154166101608d016152dc565b5251612e8c8383615002565b52615002565b506101008301511515612ea5868c615002565b5260a08301519051906151a3565b612ebd848b615002565b52828b612ede612ed6608085015160a08601519061522d565b928392615002565b5261010082015115159081612f4b575b81612f41575b50612eff848c615002565b90151590520151428111612f21575083612f19828c615002565b525b01612d8a565b612f306201518091429061522d565b04612f3b828c615002565b52612f1b565b905015155f612ef4565b828401514211159150612eee565b905094612d37565b634e487b7160e01b86526011600452602486fd5b634e487b7160e01b85526011600452602485fd5b60405162461bcd60e51b815260206004820152601f60248201527f4c696d6974206d757374206265206265747765656e203120616e6420313030006044820152606490fd5b506064831115612cd1565b503461032857602036600319011261032857600435612ff6615c6e565b6002546040516370a0823160e01b815230600482015260089190911c6001600160a01b031690602081602481855afa8015611db45783918591613103575b50106130c757825460405163a9059cbb60e01b81526001600160a01b03909116600482015260248101929092526020908290818581604481015b03925af180156127e957829061308c575b61308991506154c9565b80f35b506020813d6020116130bf575b816130a660209383614ead565b810103126127dd576130ba6130899161502a565b61307f565b3d9150613099565b60405162461bcd60e51b8152602060048201526014602482015273496e73756666696369656e742062616c616e636560601b6044820152606490fd5b9150506020813d602011613130575b8161311f60209383614ead565b810103126109b3578290515f613034565b3d9150613112565b503461032857602036600319011261032857600435808252600360205261316b60ff600860408520015460081c16614fb2565b815260046020526040812060405190816020825491828152019184526020842090845b81811061339d57505050816131a4910382614ead565b6131ae81516152aa565b916131b982516152aa565b7f00000000000000000000000000000000000000000000000000000000000000006001600160a01b0316939091908190815b85518110156132e7576131fe8187615002565b5160405190634712f17360e11b8252600482015284816024818b5afa908115610d4c5785916132cd575b50610100015184906001600160a01b031681805b8681106132a0575b50156132745750908161326c61326561325f6001958a615002565b51615589565b9188615002565b525b016131eb565b61329a915093600192946132888286615002565b52826132948289615002565b52615589565b9261326e565b826001600160a01b036132b38389615002565b5116146132c25760010161323c565b92505060015f613244565b6132e191503d8087833e61142c8183614ead565b5f613228565b50906132f2816152aa565b936132fc826152aa565b92845b83811061335f575050505060405191604083016040845284518091526020606085019501915b81811061334057848061118488878382036020850152614c4c565b82516001600160a01b0316865260209586019590920191600101613325565b6001906001600160a01b036133748285615002565b5116613380828a615002565b5261338b8185615002565b516133968288615002565b52016132ff565b825484526020909301926001928301920161318e565b5034610328576133c236614d06565b6133ca615c6e565b81835260036020526133e860ff600860408620015460081c16614fb2565b6133f3811515615597565b8183526007602052806040842054106135bb576002546040516370a0823160e01b8152306004820152906020908290602490829060081c6001600160a01b03165afa8015611db45782918591613586575b50106135415781835260076020526040832061346182825461522d565b9055600254835460405163a9059cbb60e01b81526001600160a01b0391821660048201526024810184905291602091839160081c168187816044810103925af1908115611db45784916134dd575b507fc97223d9627a5c8977b5ce63bcc729264c8ab2575ef525d2d42e39af20550dc491611c296020926154c9565b90506020813d602011613539575b816134f860209383614ead565b81010312611c33577fc97223d9627a5c8977b5ce63bcc729264c8ab2575ef525d2d42e39af20550dc491611c2961353060209361502a565b925050916134af565b3d91506134eb565b60405162461bcd60e51b815260206004820152601d60248201527f496e73756666696369656e7420636f6e74726163742062616c616e63650000006044820152606490fd5b9150506020813d6020116135b3575b816135a260209383614ead565b810103126109b3578190515f613444565b3d9150613595565b60405162461bcd60e51b815260206004820152601a60248201527f496e73756666696369656e7420726f756e642062616c616e63650000000000006044820152606490fd5b5034610328578060031936011261032857600a5490613627613621836152aa565b926152aa565b908081600854925b838110613660576136528661118487604051938493604085526040850190614c4c565b908382036020850152614c4c565b808252600360205260ff600860408420015460081c16613683575b60010161362f565b916136ad81846136956001948a615002565b52848452600760205260408420546132948289615002565b92905061367b565b5034610328576136fb816136c836614d06565b604051635848b10960e01b8152600481019290925260248201525f60448201819052606482015291829081906084820190565b0381305afa80156127e957829083928485868790889289948a968b9861372e575b506040519a508a99611184998b614da9565b99505050505050505050503d8083833e6137488183614ead565b810191610140828403126103285781516001600160401b0381116127dd57836137729184016152e8565b9060208301516001600160401b0381116127dd5783019184601f840112156127dd578251926137a08461523a565b936137ae6040519586614ead565b80855260208086019160051b830101918783116125f15760208101915b8383106138a9575050505060408401516001600160401b03811161090757856137f5918601615524565b9360608101516001600160401b038111611c3357866138159183016152e8565b9260808201516001600160401b0381116127dd5787613835918401615524565b9060a08301516001600160401b0381116127dd57886138559185016152e8565b9060c0840151906001600160401b038211610328575061118496979861387c9185016152e8565b9060e084015192613896610120610100870151960161502a565b95989996909192939495968a999861371c565b82516001600160401b038111610d44576020916138cb8b848094870101615037565b8152019201916137cb565b50346103285780600319360112610328576138ef615c6e565b60025460ff81161561392f5760ff19166002557f5db9ee0a495bf2e6ff9c91a7834c1ba4fdd244a5e8aa4e537bd38aeae4b073aa6020604051338152a180f35b638dfc202b60e01b8252600482fd5b50346103285760403660031901126103285760406004359161395e614b11565b92808252600360205261397c60ff6008858520015460081c16614fb2565b81526006602052209060018060a01b03165f52602052602060405f20541515604051908152f35b50346103285760403660031901126103285760043560243560058110156109075760407f20be72359ce8a4671d77d8b6c6bf0142bce6d46a8669633f1781144cf77894e5916139f0615c6e565b8385526003602052613a0d60ff6008848820015460081c16614fb2565b8385526003602052613a5060ff600a848820015416918587526003602052613a3a81600a868a200161550c565b613a4684518094614b91565b6020830190614b91565ba280f35b503461032857602036600319011261032857613a6e615c6e565b6002546040516323b872dd60e01b81523360048083019190915230602483015235604482015290602090829060081c6001600160a01b03168185816064810161306e565b50346103285780600319360112610328576020600a54604051908152f35b503461032857604036600319011261032857600435613aed614b11565b908083526003602052613b0c60ff600860408620015460081c16614fb2565b82526006602052604082209060018060a01b03165f5260205260405f20604051918260208354918281520192825260208220915b818110613b57576111848561117081870382614ead565b8254845260209093019260019283019201613b40565b5034610328576020366003190112610328576004358082526003602052613ba060ff600860408520015460081c16614fb2565b8152600460205260408120604051918260208354918281520192825260208220915b818110613bd9576111848561117081870382614ead565b8254845260209093019260019283019201613bc2565b503461032857602036600319011261032857604060209160043580825260038452613c2560ff6008858520015460081c16614fb2565b8152600383522060405190613c3982614e7d565b80548252613c4960018201614ece565b8383015260028101546040830152600381015460608301526004810154906080830191825260058101549060a08401918252613cd160068201549460c08101958652600783015460e082015261016060ff600a600886015495826101008601978181161515895260081c161515610120860152600981015461014086015201541691016152dc565b5115159283613cfb575b5082613cee575b50506040519015158152f35b5190511190505f80613ce2565b5142111592505f613cdb565b5034610328578060031936011261032857602060405160328152f35b50346103285760203660031901126103285760ff600a604060209360043580825260038652613d5c856008858520015460081c16614fb2565b81526003855220015416613d736040518092614b91565bf35b503461032857602036600319011261032857600435613d92615c6e565b8082526003602052613db060ff600860408520015460081c16614fb2565b808252600760208181526040808520548486529282528085208590556002548554915163a9059cbb60e01b81526001600160a01b039283166004820152602481019490945283916044918391889160081c165af1801561282a578390613e37575b613e1b91506154c9565b81526003602052600a6040822001600360ff1982541617905580f35b506020813d602011613e6a575b81613e5160209383614ead565b8101031261090757613e65613e1b9161502a565b613e11565b3d9150613e44565b503461032857602036600319011261032857600435613e8f615251565b508082526003602052613eae60ff600860408520015460081c16614fb2565b8082526003602052604082209060405191613ec883614e7d565b80548352613ed860018201614ece565b602084015260028101549060408401918252600381015460608501526004810154916080850192835260058201549360a08601948552613f7160068401549260c08801938452600785015460e0890152613f6760ff600a600888015497826101008d019981811615158b5260081c1615156101208d015260098101546101408d01520154166101608a016152dc565b86519051906151a3565b946040519163132b6af760e21b835260048301528782602481305afa801561236457613faa928991614082575b5051945190519061522d565b9151151580614077575b8061406e575b8151926301e13380840180941161405a5761400297844210159351804210155f14614044575080945b841561402c5750945b6040519889986101008a526101008a0190614bb2565b966020890152604088015260608701521515608086015260a085015260c084015260e08301520390f35b62015180915061403d90429061522d565b0494613fec565b6140536201518091429061522d565b0494613fe3565b634e487b7160e01b88526011600452602488fd5b50811515613fba565b508051421115613fb4565b61409691503d808b833e611a6d8183614ead565b505f613f9e565b503461032857602036600319011261032857604051631d3653e360e01b81526004803590820152906020826024817f00000000000000000000000000000000000000000000000000000000000000006001600160a01b03165afa9081156109bf578091614112575b6020826040519015158152f35b90506020823d602011614147575b8161412d60209383614ead565b81010312610328575061414160209161502a565b5f614105565b3d9150614120565b50346109b35760203660031901126109b3576004359061416d615c33565b614175615c53565b6040516331a9108f60e11b8152600481018390527f00000000000000000000000000000000000000000000000000000000000000006001600160a01b03169290602081602481875afa90811561446b575f916145fd575b50336001600160a01b03909116036145b857604051634712f17360e11b815260048101829052905f82602481875afa91821561446b575f9261459c575b506101208201516145575761422260a08301514261522d565b9362ed4e0085106145125761424060808401516040850151906151a3565b946301e1338060646142566060870151896151a3565b0491101595865f146144bd5761014085015160249290156144ae579061427f9160011c906151d4565b935b61428c8515156153e5565b6002546040516370a0823160e01b815230600482015292602091849190829060081c6001600160a01b03165afa801561446b5785925f91614476575b506020926142d7911015615426565b019485515f5260076020526142f28460405f2054101561547d565b156143e3579081849593923b156125f1576040516319f477d960e01b815260048101839052858160248183865af1908115610e7b5786916143ce575b5050803b156125f15784809160246040518094819363bed62f3560e01b83528760048401525af1908115610d4c5785916143b0575b50509060209261278892604051908382527fec830d68f9642b924e6a2bbc2ebeb8f06c0ab5417a38f641b088b2412cbaba95863393a35b518452600783526040842061274882825461522d565b816143bd91949394614ead565b6143c95790835f614363565b505050fd5b816143d891614ead565b6125f157845f61432e565b803b156109b3575f80916024604051809481936318d8e2a560e01b83528760048401525af1801561446b5761444e575b50602091839461278892604051908382527f05609d8b66d3b17249aefcaaa68fa2000914aeeb46371ad3fcae3db02304bde9863393a361439a565b612788919350916144615f602094614ead565b5f93915091614413565b6040513d5f823e3d90fd5b9250506020823d6020116144a6575b8161449260209383614ead565b810103126109b357905184919060206142c8565b3d9150614485565b6144b7916151d4565b93614281565b506101408401516144d45760249060011c93614281565b60405162461bcd60e51b815260206004820152601660248201527514995dd85c9908185b1c9958591e4818db185a5b595960521b6044820152606490fd5b60405162461bcd60e51b815260206004820152601b60248201527f4d7573742077616974206174206c656173742036206d6f6e74687300000000006044820152606490fd5b60405162461bcd60e51b815260206004820152601b60248201527f496e766573746d656e7420616c72656164792072656465656d656400000000006044820152606490fd5b6145b19192503d805f833e61142c8183614ead565b905f614209565b60405162461bcd60e51b815260206004820152601960248201527f4e6f7420746865206f776e6572206f662074686973204e4654000000000000006044820152606490fd5b90506020813d60201161462f575b8161461860209383614ead565b810103126109b35761462990615016565b5f6141cc565b3d915061460b565b346109b3575f3660031901126109b3576020600b54604051908152f35b346109b35760203660031901126109b357604051635a7f04d560e01b815260048035908201526020816024817f00000000000000000000000000000000000000000000000000000000000000006001600160a01b03165afa801561446b575f906146c6575b6020906040519015158152f35b506020813d6020116146f8575b816146e060209383614ead565b810103126109b3576146f360209161502a565b6146b9565b3d91506146d3565b346109b35761470e36614b3d565b600a5491831515806148ff575b156148ba5761472b8386106151e1565b61473584846151d4565b5f1981019081116148a6578461474a916151b6565b9061475585876151b6565b92600184018094116148a65761476a91615842565b93614775868561522d565b8181111561489e5750925b61478a84876151d4565b10926147958161523a565b946147a36040519687614ead565b818652601f196147b28361523a565b015f5b8181106148875750506147c7826152aa565b965f5b8381106147e357604051806111848989898e8e86614c7f565b6147f66147f082846151d4565b84615002565b5190815f52600360205260405f2061481860ff600a6040519361124085614e7d565b614822828b615002565b5261482d818a615002565b506040519163132b6af760e21b835260048301525f82602481305afa801561446b576001925f9161486c575b5051614865828c615002565b52016147ca565b61488091503d805f833e611a6d8183614ead565b508b614859565b602090614892615251565b82828b010152016147b5565b905092614780565b634e487b7160e01b5f52601160045260245ffd5b60405162461bcd60e51b815260206004820152601e60248201527f4c696d6974206d757374206265206265747765656e203120616e6420353000006044820152606490fd5b50603284111561471b565b346109b35760403660031901126109b357600435614926614b11565b90805f52600360205261494560ff600860405f20015460081c16614fb2565b5f52600660205260405f209060018060a01b03165f5260205260405f20604051808260208294549384815201905f5260205f20925f5b818110614af857505061499092500382614ead565b80515f9182917f00000000000000000000000000000000000000000000000000000000000000006001600160a01b03169183918291829182805b8351811015614ac4576149dd8185615002565b519460405195634712f17360e11b875260048701525f866024818c5afa95861561446b575f96614aa8575b50608086019788516040880151614a1e916151a3565b670de0b6b3a764000090049788916060890151614a3b90846151a3565b606490049d8e9a614a4b916151d4565b9a51614a56916151d4565b9c614a60916151d4565b97614a6a916151d4565b614a73916151d4565b9460e0810151421015614a9f575b6101200151614a96575b6001019895986149ca565b60019150614a8b565b60019950614a81565b614abd9196503d805f833e61142c8183614ead565b948b614a08565b5060e09250878486888c6040519687526020870152604086015260608501526080840152151560a0830152151560c0820152f35b845483526001948501948694506020909301920161497b565b602435906001600160a01b03821682036109b357565b600435906001600160a01b03821682036109b357565b60809060031901126109b357600435906024359060443560078110156109b3579060643560028110156109b35790565b805180835260209291819084018484015e5f828201840152601f01601f1916010190565b906005821015614b9e5752565b634e487b7160e01b5f52602160045260245ffd5b90614c49908251815261016080614bda60208601516101806020860152610180850190614b6d565b9460408101516040850152606081015160608501526080810151608085015260a081015160a085015260c081015160c085015260e081015160e0850152610100810151151561010085015261012081015115156101208501526101408101516101408501520151910190614b91565b90565b90602080835192838152019201905f5b818110614c695750505090565b8251845260209384019390920191600101614c5c565b93919594929560a0850160a08652825180915260c0860190602060c08260051b8901019401915f905b828210614cdb575050505081614cc991866080969594036020880152614c4c565b95604085015260608401521515910152565b90919294602080614cf860019360bf198d82030186528951614bb2565b970192019201909291614ca8565b60409060031901126109b3576004359060243590565b9080602083519182815201916020808360051b8301019401925f915b838310614d4757505050505090565b9091929394602080614d65600193601f198682030187528951614b6d565b97019301930191939290614d38565b90602080835192838152019201905f5b818110614d915750505090565b82511515845260209384019390920191600101614d84565b98959194614e08610120999c9b9895614dfa8c614e2497614dec614e329b614dde614e16996101408652610140860190614c4c565b908482036020860152614d1c565b916040818403910152614d74565b8c810360608e015290614c4c565b908a820360808c0152614d74565b9088820360a08a0152614c4c565b9086820360c0880152614c4c565b9560e08501526101008401521515910152565b90600182811c92168015614e73575b6020831014614e5f57565b634e487b7160e01b5f52602260045260245ffd5b91607f1691614e54565b61018081019081106001600160401b03821117614e9957604052565b634e487b7160e01b5f52604160045260245ffd5b90601f801991011681019081106001600160401b03821117614e9957604052565b9060405191825f825492614ee184614e45565b8084529360018116908115614f4c5750600114614f08575b50614f0692500383614ead565b565b90505f9291925260205f20905f915b818310614f30575050906020614f06928201015f614ef9565b6020919350806001915483858901015201910190918492614f17565b905060209250614f0694915060ff191682840152151560051b8201015f614ef9565b8054821015614f83575f5260205f2001905f90565b634e487b7160e01b5f52603260045260245ffd5b6001600160401b038111614e9957601f01601f191660200190565b15614fb957565b60405162461bcd60e51b8152602060048201526014602482015273149bdd5b9908191bd95cc81b9bdd08195e1a5cdd60621b6044820152606490fd5b805115614f835760200190565b8051821015614f835760209160051b010190565b51906001600160a01b03821682036109b357565b519081151582036109b357565b81601f820112156109b35780519061504e82614f97565b9261505c6040519485614ead565b828452602083830101116109b357815f9260208093018386015e8301015290565b6020818303126109b3578051906001600160401b0382116109b357016101a0818303126109b357604051916101a083018381106001600160401b03821117614e9957604052815183526020820151602084015260408201516040840152606082015160608401526080820151608084015260a082015160a084015260c082015160c084015260e082015160e08401526151196101008301615016565b61010084015261512c610120830161502a565b61012084015261513f610140830161502a565b610140840152615152610160830161502a565b6101608401526101808201516001600160401b0381116109b3576151769201615037565b61018082015290565b90670de0b6b3a7640000820291808304670de0b6b3a764000014901517156148a657565b818102929181159184041417156148a657565b81156151c0570490565b634e487b7160e01b5f52601260045260245ffd5b919082018092116148a657565b156151e857565b60405162461bcd60e51b815260206004820152601b60248201527f4f6666736574206578636565647320746f74616c20726f756e647300000000006044820152606490fd5b919082039182116148a657565b6001600160401b038111614e995760051b60200190565b6040519061525e82614e7d565b5f61016083828152606060208201528260408201528260608201528260808201528260a08201528260c08201528260e08201528261010082015282610120820152826101408201520152565b906152b48261523a565b6152c16040519182614ead565b82815280926152d2601f199161523a565b0190602036910137565b6005821015614b9e5752565b9080601f830112156109b35781516152ff8161523a565b9261530d6040519485614ead565b81845260208085019260051b8201019283116109b357602001905b8282106153355750505090565b8151815260209182019101615328565b9190916040818403126109b35780516001600160401b0381116109b357810183601f820112156109b35780519061537b8261523a565b916153896040519384614ead565b80835260208084019160051b830101918683116109b357602001905b8282106153cd575050509260208201516001600160401b0381116109b357614c4992016152e8565b602080916153da84615016565b8152019101906153a5565b156153ec57565b60405162461bcd60e51b81526020600482015260126024820152714e6f20616d6f756e7420746f20636c61696d60701b6044820152606490fd5b1561542d57565b60405162461bcd60e51b815260206004820152602260248201527f496e73756666696369656e7420636f6e747261637420555344542062616c616e604482015261636560f01b6064820152608490fd5b1561548457565b60405162461bcd60e51b815260206004820152601f60248201527f496e73756666696369656e7420726f756e6420555344542062616c616e6365006044820152606490fd5b156154d057565b60405162461bcd60e51b81526020600482015260146024820152731554d115081d1c985b9cd9995c8819985a5b195960621b6044820152606490fd5b906005811015614b9e5760ff80198354169116179055565b9080601f830112156109b357815161553b8161523a565b926155496040519485614ead565b81845260208085019260051b8201019283116109b357602001905b8282106155715750505090565b6020809161557e8461502a565b815201910190615564565b5f1981146148a65760010190565b1561559e57565b60405162461bcd60e51b815260206004820152601d60248201527f416d6f756e74206d7573742062652067726561746572207468616e20300000006044820152606490fd5b906155ed8261523a565b6155fa6040519182614ead565b828152809261560b601f199161523a565b01905f5b82811061561b57505050565b80606060208093850101520161560f565b5f52600460205260405f20604051808260208294549384815201905f5260205f20925f5b8181106157a457505061566592500382614ead565b8051908115615796575f92839182919082907f00000000000000000000000000000000000000000000000000000000000000006001600160a01b0316825b8781106156b4575050509493929190565b6156c181849a959a615002565b519860405199634712f17360e11b8b5260048b01525f8a602481865afa998a1561446b575f9a615776575b5061572f906157298b60646157226060670de0b6b3a764000061571860808601516040870151906151a3565b04930151836151a3565b04926151d4565b956151d4565b98610120810151615761575b610140015161574d575b6001016156a3565b94615759600191615589565b959050615745565b9661576e61014091615589565b97905061573b565b61572f919a5061578f903d805f833e61142c8183614ead565b99906156ec565b50505f905f905f905f905f90565b8454835260019485019486945060209093019201615650565b156157c457565b60405162461bcd60e51b815260206004820152601c60248201527f496e766573746d656e7420706572696f642068617320636c6f736564000000006044820152606490fd5b805468010000000000000000811015614e995761582b91600182018155614f6e565b819291549060031b91821b915f19901b1916179055565b909160085491615851836152aa565b915f935f5b818110615bf6575050615868846152aa565b925f5b858110615bd75750505f905b5f1985018581116148a657821015615bce575f5b615895838761522d565b5f1981019081116148a657811015615bc3576158b18186615002565b519060018101918282116148a6576158c98388615002565b51905f52600360205260405f20604051906158e382614e7d565b805482526158f360018201614ece565b602083019081526002820154916040840192835260038101549060608501918252600481015460808601528a60058201549660a0870197885260068301549060c08801918252600784015460e0890152600884015460ff811615156101008a015260081c60ff1615156101208901526009840154936101408901948552600a015460ff16610160890190615986916152dc565b5f52600360205260405f20936040519889936159a185614e7d565b865485526159b160018801614ece565b9860208601998a526002880154916040870192835260038901546060880190815260048a0154608089015260058a01549560a0890196875260068b01549860c08101998a5260078c015460e082015260088c015460ff8116151561010083015260081c60ff16151561012082015260098c01549b61014082019c8d52600a015460ff16906101600190615a43916152dc565b5f926007811015614b9e5780615abd57505050505050505050505050505051905110915b6002891015614b9e5760019289615ab7575b615a85575b500161588b565b615ab0615a928389615002565b5191615a9e818a615002565b51615aa9858b615002565b5288615002565b525f615a7e565b15615a79565b91939597999b9d5091939597999b9d50600181145f14615afb5750505050505050505050505051602081519101209051602081519101201091615a67565b91939597999b5091939597999b50600281145f14615b2757505050505050505050505190511091615a67565b90929496989a506003919395979950145f14615b4e57505050505050505190511091615a67565b91939597509193955060048c145f14615b8657505050615b7590615b7f93519051906151a3565b92519051906151a3565b1091615a67565b919350915060058a03615ba0575050505190511091615a67565b91959350915060068814615bb6575b5050615a67565b5190511092505f80615baf565b509060010190615877565b94505050905090565b80615be460019284615002565b51615bef8288615002565b520161586b565b805f52600360205260ff600860405f20015460081c16615c19575b600101615856565b94615c2b818761329460019489615002565b959050615c11565b600260015414615c44576002600155565b633ee5aeb560e01b5f5260045ffd5b60ff60025416615c5f57565b63d93c066560e01b5f5260045ffd5b5f546001600160a01b03163303615c8157565b63118cdaa760e01b5f523360045260245ffdfea2646970667358221220adb5d93ecc8ce499967002244413efcfe8f36d6254aa3625532ce3af012706f464736f6c634300081c0033",
  "linkReferences": {},
  "deployedLinkReferences": {},
  "immutableReferences": {
    "16572": [
      {
        "length": 32,
        "start": 2998
      },
      {
        "length": 32,
        "start": 3520
      },
      {
        "length": 32,
        "start": 4532
      },
      {
        "length": 32,
        "start": 4964
      },
      {
        "length": 32,
        "start": 6320
      },
      {
        "length": 32,
        "start": 8623
      },
      {
        "length": 32,
        "start": 12731
      },
      {
        "length": 32,
        "start": 16589
      },
      {
        "length": 32,
        "start": 16779
      },
      {
        "length": 32,
        "start": 18050
      },
      {
        "length": 32,
        "start": 18840
      },
      {
        "length": 32,
        "start": 22137
      }
    ]
  },
  "inputSourceName": "project/contracts/FundRaisingContractNFT.sol",
  "buildInfoId": "solc-0_8_28-2e57262c33c79db9d1482206dd69e1551dbc4229"
}