{
  "_format": "hh3-artifact-1",
  "contractName": "FundRaisingCore",
  "sourceName": "contracts/FundRaisingCore.sol",
  "abi": [
    {
      "inputs": [
        {
          "internalType": "address",
          "name": "_dzNFT",
          "type": "address"
        },
        {
          "internalType": "address",
          "name": "_usdtToken",
          "type": "address"
        }
      ],
      "stateMutability": "nonpayable",
      "type": "constructor"
    },
    {
      "inputs": [],
      "name": "EnforcedPause",
      "type": "error"
    },
    {
      "inputs": [],
      "name": "ExpectedPause",
      "type": "error"
    },
    {
      "inputs": [
        {
          "internalType": "address",
          "name": "owner",
          "type": "address"
        }
      ],
      "name": "OwnableInvalidOwner",
      "type": "error"
    },
    {
      "inputs": [
        {
          "internalType": "address",
          "name": "account",
          "type": "address"
        }
      ],
      "name": "OwnableUnauthorizedAccount",
      "type": "error"
    },
    {
      "inputs": [],
      "name": "ReentrancyGuardReentrantCall",
      "type": "error"
    },
    {
      "anonymous": false,
      "inputs": [
        {
          "indexed": true,
          "internalType": "address",
          "name": "oldContract",
          "type": "address"
        },
        {
          "indexed": true,
          "internalType": "address",
          "name": "newContract",
          "type": "address"
        }
      ],
      "name": "AuthorizedClaimsContractUpdated",
      "type": "event"
    },
    {
      "anonymous": false,
      "inputs": [
        {
          "indexed": true,
          "internalType": "address",
          "name": "investor",
          "type": "address"
        },
        {
          "indexed": true,
          "internalType": "uint256",
          "name": "roundId",
          "type": "uint256"
        },
        {
          "indexed": false,
          "internalType": "uint256",
          "name": "tokenCount",
          "type": "uint256"
        },
        {
          "indexed": false,
          "internalType": "uint256",
          "name": "usdtAmount",
          "type": "uint256"
        }
      ],
      "name": "Investment",
      "type": "event"
    },
    {
      "anonymous": false,
      "inputs": [
        {
          "indexed": true,
          "internalType": "uint256",
          "name": "roundId",
          "type": "uint256"
        },
        {
          "indexed": false,
          "internalType": "string",
          "name": "roundName",
          "type": "string"
        },
        {
          "indexed": false,
          "internalType": "uint256",
          "name": "tokenPrice",
          "type": "uint256"
        }
      ],
      "name": "InvestmentRoundCreated",
      "type": "event"
    },
    {
      "anonymous": false,
      "inputs": [
        {
          "indexed": true,
          "internalType": "address",
          "name": "previousOwner",
          "type": "address"
        },
        {
          "indexed": true,
          "internalType": "address",
          "name": "newOwner",
          "type": "address"
        }
      ],
      "name": "OwnershipTransferred",
      "type": "event"
    },
    {
      "anonymous": false,
      "inputs": [
        {
          "indexed": false,
          "internalType": "address",
          "name": "account",
          "type": "address"
        }
      ],
      "name": "Paused",
      "type": "event"
    },
    {
      "anonymous": false,
      "inputs": [
        {
          "indexed": true,
          "internalType": "uint256",
          "name": "roundId",
          "type": "uint256"
        },
        {
          "indexed": false,
          "internalType": "uint256",
          "name": "amount",
          "type": "uint256"
        },
        {
          "indexed": false,
          "internalType": "uint256",
          "name": "totalRewardPool",
          "type": "uint256"
        }
      ],
      "name": "RewardAdded",
      "type": "event"
    },
    {
      "anonymous": false,
      "inputs": [
        {
          "indexed": true,
          "internalType": "uint256",
          "name": "roundId",
          "type": "uint256"
        },
        {
          "indexed": false,
          "internalType": "bool",
          "name": "isActive",
          "type": "bool"
        }
      ],
      "name": "RoundStatusChanged",
      "type": "event"
    },
    {
      "anonymous": false,
      "inputs": [
        {
          "indexed": true,
          "internalType": "address",
          "name": "oldToken",
          "type": "address"
        },
        {
          "indexed": true,
          "internalType": "address",
          "name": "newToken",
          "type": "address"
        }
      ],
      "name": "USDTTokenUpdated",
      "type": "event"
    },
    {
      "anonymous": false,
      "inputs": [
        {
          "indexed": false,
          "internalType": "address",
          "name": "account",
          "type": "address"
        }
      ],
      "name": "Unpaused",
      "type": "event"
    },
    {
      "inputs": [],
      "name": "MAX_TOKENS_PER_INVESTMENT",
      "outputs": [
        {
          "internalType": "uint256",
          "name": "",
          "type": "uint256"
        }
      ],
      "stateMutability": "view",
      "type": "function"
    },
    {
      "inputs": [],
      "name": "USDT_DECIMALS",
      "outputs": [
        {
          "internalType": "uint256",
          "name": "",
          "type": "uint256"
        }
      ],
      "stateMutability": "view",
      "type": "function"
    },
    {
      "inputs": [],
      "name": "_nextRoundId",
      "outputs": [
        {
          "internalType": "uint256",
          "name": "",
          "type": "uint256"
        }
      ],
      "stateMutability": "view",
      "type": "function"
    },
    {
      "inputs": [
        {
          "internalType": "uint256",
          "name": "roundId",
          "type": "uint256"
        },
        {
          "internalType": "uint256",
          "name": "amount",
          "type": "uint256"
        }
      ],
      "name": "addRewardToRound",
      "outputs": [],
      "stateMutability": "nonpayable",
      "type": "function"
    },
    {
      "inputs": [],
      "name": "authorizedClaimsContract",
      "outputs": [
        {
          "internalType": "address",
          "name": "",
          "type": "address"
        }
      ],
      "stateMutability": "view",
      "type": "function"
    },
    {
      "inputs": [
        {
          "internalType": "uint256[]",
          "name": "tokenIds",
          "type": "uint256[]"
        }
      ],
      "name": "batchGetTokensDetail",
      "outputs": [
        {
          "components": [
            {
              "internalType": "uint256",
              "name": "tokenId",
              "type": "uint256"
            },
            {
              "internalType": "uint256",
              "name": "roundId",
              "type": "uint256"
            },
            {
              "internalType": "uint256",
              "name": "tokenPrice",
              "type": "uint256"
            },
            {
              "internalType": "uint256",
              "name": "rewardPercentage",
              "type": "uint256"
            },
            {
              "internalType": "uint256",
              "name": "totalTokenOpenInvestment",
              "type": "uint256"
            },
            {
              "internalType": "uint256",
              "name": "purchaseTimestamp",
              "type": "uint256"
            },
            {
              "internalType": "uint256",
              "name": "closeDateInvestment",
              "type": "uint256"
            },
            {
              "internalType": "uint256",
              "name": "endDateInvestment",
              "type": "uint256"
            },
            {
              "internalType": "address",
              "name": "originalBuyer",
              "type": "address"
            },
            {
              "internalType": "bool",
              "name": "redeemed",
              "type": "bool"
            },
            {
              "internalType": "bool",
              "name": "rewardClaimed",
              "type": "bool"
            },
            {
              "internalType": "bool",
              "name": "transferLocked",
              "type": "bool"
            },
            {
              "internalType": "string",
              "name": "metadata",
              "type": "string"
            }
          ],
          "internalType": "struct DZNFT.InvestmentData[]",
          "name": "",
          "type": "tuple[]"
        }
      ],
      "stateMutability": "view",
      "type": "function"
    },
    {
      "inputs": [
        {
          "internalType": "string",
          "name": "roundName",
          "type": "string"
        },
        {
          "internalType": "uint256",
          "name": "tokenPrice",
          "type": "uint256"
        },
        {
          "internalType": "uint256",
          "name": "rewardPercentage",
          "type": "uint256"
        },
        {
          "internalType": "uint256",
          "name": "totalTokenOpenInvestment",
          "type": "uint256"
        },
        {
          "internalType": "uint256",
          "name": "closeDateInvestment",
          "type": "uint256"
        },
        {
          "internalType": "uint256",
          "name": "endDateInvestment",
          "type": "uint256"
        }
      ],
      "name": "createInvestmentRound",
      "outputs": [],
      "stateMutability": "nonpayable",
      "type": "function"
    },
    {
      "inputs": [],
      "name": "dzNFT",
      "outputs": [
        {
          "internalType": "contract DZNFT",
          "name": "",
          "type": "address"
        }
      ],
      "stateMutability": "view",
      "type": "function"
    },
    {
      "inputs": [
        {
          "internalType": "address",
          "name": "recipient",
          "type": "address"
        },
        {
          "internalType": "uint256",
          "name": "amount",
          "type": "uint256"
        }
      ],
      "name": "emergencyTransferUSDT",
      "outputs": [
        {
          "internalType": "bool",
          "name": "",
          "type": "bool"
        }
      ],
      "stateMutability": "nonpayable",
      "type": "function"
    },
    {
      "inputs": [
        {
          "internalType": "address",
          "name": "investor",
          "type": "address"
        }
      ],
      "name": "getAllTokensOwnedBy",
      "outputs": [
        {
          "internalType": "uint256[]",
          "name": "",
          "type": "uint256[]"
        }
      ],
      "stateMutability": "view",
      "type": "function"
    },
    {
      "inputs": [],
      "name": "getContractUSDTBalance",
      "outputs": [
        {
          "internalType": "uint256",
          "name": "",
          "type": "uint256"
        }
      ],
      "stateMutability": "view",
      "type": "function"
    },
    {
      "inputs": [
        {
          "internalType": "uint256",
          "name": "tokenId",
          "type": "uint256"
        }
      ],
      "name": "getExistsToken",
      "outputs": [
        {
          "internalType": "bool",
          "name": "",
          "type": "bool"
        }
      ],
      "stateMutability": "view",
      "type": "function"
    },
    {
      "inputs": [
        {
          "internalType": "uint256",
          "name": "tokenId",
          "type": "uint256"
        }
      ],
      "name": "getInvestmentData",
      "outputs": [
        {
          "components": [
            {
              "internalType": "uint256",
              "name": "tokenId",
              "type": "uint256"
            },
            {
              "internalType": "uint256",
              "name": "roundId",
              "type": "uint256"
            },
            {
              "internalType": "uint256",
              "name": "tokenPrice",
              "type": "uint256"
            },
            {
              "internalType": "uint256",
              "name": "rewardPercentage",
              "type": "uint256"
            },
            {
              "internalType": "uint256",
              "name": "totalTokenOpenInvestment",
              "type": "uint256"
            },
            {
              "internalType": "uint256",
              "name": "purchaseTimestamp",
              "type": "uint256"
            },
            {
              "internalType": "uint256",
              "name": "closeDateInvestment",
              "type": "uint256"
            },
            {
              "internalType": "uint256",
              "name": "endDateInvestment",
              "type": "uint256"
            },
            {
              "internalType": "address",
              "name": "originalBuyer",
              "type": "address"
            },
            {
              "internalType": "bool",
              "name": "redeemed",
              "type": "bool"
            },
            {
              "internalType": "bool",
              "name": "rewardClaimed",
              "type": "bool"
            },
            {
              "internalType": "bool",
              "name": "transferLocked",
              "type": "bool"
            },
            {
              "internalType": "string",
              "name": "metadata",
              "type": "string"
            }
          ],
          "internalType": "struct DZNFT.InvestmentData",
          "name": "",
          "type": "tuple"
        }
      ],
      "stateMutability": "view",
      "type": "function"
    },
    {
      "inputs": [
        {
          "internalType": "uint256",
          "name": "roundId",
          "type": "uint256"
        }
      ],
      "name": "getRoundTokenCount",
      "outputs": [
        {
          "internalType": "uint256",
          "name": "",
          "type": "uint256"
        }
      ],
      "stateMutability": "view",
      "type": "function"
    },
    {
      "inputs": [
        {
          "internalType": "uint256",
          "name": "roundId",
          "type": "uint256"
        }
      ],
      "name": "getRoundTokenIds",
      "outputs": [
        {
          "internalType": "uint256[]",
          "name": "",
          "type": "uint256[]"
        }
      ],
      "stateMutability": "view",
      "type": "function"
    },
    {
      "inputs": [
        {
          "internalType": "uint256[]",
          "name": "roundIds",
          "type": "uint256[]"
        }
      ],
      "name": "getRoundsDetail",
      "outputs": [
        {
          "components": [
            {
              "internalType": "uint256",
              "name": "roundId",
              "type": "uint256"
            },
            {
              "internalType": "string",
              "name": "roundName",
              "type": "string"
            },
            {
              "internalType": "uint256",
              "name": "tokenPrice",
              "type": "uint256"
            },
            {
              "internalType": "uint256",
              "name": "rewardPercentage",
              "type": "uint256"
            },
            {
              "internalType": "uint256",
              "name": "totalTokenOpenInvestment",
              "type": "uint256"
            },
            {
              "internalType": "uint256",
              "name": "tokensSold",
              "type": "uint256"
            },
            {
              "internalType": "uint256",
              "name": "closeDateInvestment",
              "type": "uint256"
            },
            {
              "internalType": "uint256",
              "name": "endDateInvestment",
              "type": "uint256"
            },
            {
              "internalType": "bool",
              "name": "isActive",
              "type": "bool"
            },
            {
              "internalType": "bool",
              "name": "exists",
              "type": "bool"
            },
            {
              "internalType": "uint256",
              "name": "createdAt",
              "type": "uint256"
            },
            {
              "internalType": "enum FundRaisingCore.Status",
              "name": "status",
              "type": "uint8"
            }
          ],
          "internalType": "struct FundRaisingCore.InvestmentRound[]",
          "name": "",
          "type": "tuple[]"
        }
      ],
      "stateMutability": "view",
      "type": "function"
    },
    {
      "inputs": [
        {
          "internalType": "uint256",
          "name": "tokenId",
          "type": "uint256"
        }
      ],
      "name": "getTokenDetail",
      "outputs": [
        {
          "components": [
            {
              "internalType": "uint256",
              "name": "tokenId",
              "type": "uint256"
            },
            {
              "internalType": "uint256",
              "name": "roundId",
              "type": "uint256"
            },
            {
              "internalType": "uint256",
              "name": "tokenPrice",
              "type": "uint256"
            },
            {
              "internalType": "uint256",
              "name": "rewardPercentage",
              "type": "uint256"
            },
            {
              "internalType": "uint256",
              "name": "totalTokenOpenInvestment",
              "type": "uint256"
            },
            {
              "internalType": "uint256",
              "name": "purchaseTimestamp",
              "type": "uint256"
            },
            {
              "internalType": "uint256",
              "name": "closeDateInvestment",
              "type": "uint256"
            },
            {
              "internalType": "uint256",
              "name": "endDateInvestment",
              "type": "uint256"
            },
            {
              "internalType": "address",
              "name": "originalBuyer",
              "type": "address"
            },
            {
              "internalType": "bool",
              "name": "redeemed",
              "type": "bool"
            },
            {
              "internalType": "bool",
              "name": "rewardClaimed",
              "type": "bool"
            },
            {
              "internalType": "bool",
              "name": "transferLocked",
              "type": "bool"
            },
            {
              "internalType": "string",
              "name": "metadata",
              "type": "string"
            }
          ],
          "internalType": "struct DZNFT.InvestmentData",
          "name": "",
          "type": "tuple"
        }
      ],
      "stateMutability": "view",
      "type": "function"
    },
    {
      "inputs": [],
      "name": "getUSDTTokenAddress",
      "outputs": [
        {
          "internalType": "address",
          "name": "",
          "type": "address"
        }
      ],
      "stateMutability": "view",
      "type": "function"
    },
    {
      "inputs": [
        {
          "internalType": "uint256",
          "name": "roundId",
          "type": "uint256"
        },
        {
          "internalType": "uint256",
          "name": "tokenAmount",
          "type": "uint256"
        }
      ],
      "name": "investInRound",
      "outputs": [],
      "stateMutability": "nonpayable",
      "type": "function"
    },
    {
      "inputs": [
        {
          "internalType": "uint256",
          "name": "",
          "type": "uint256"
        }
      ],
      "name": "investmentRounds",
      "outputs": [
        {
          "internalType": "uint256",
          "name": "roundId",
          "type": "uint256"
        },
        {
          "internalType": "string",
          "name": "roundName",
          "type": "string"
        },
        {
          "internalType": "uint256",
          "name": "tokenPrice",
          "type": "uint256"
        },
        {
          "internalType": "uint256",
          "name": "rewardPercentage",
          "type": "uint256"
        },
        {
          "internalType": "uint256",
          "name": "totalTokenOpenInvestment",
          "type": "uint256"
        },
        {
          "internalType": "uint256",
          "name": "tokensSold",
          "type": "uint256"
        },
        {
          "internalType": "uint256",
          "name": "closeDateInvestment",
          "type": "uint256"
        },
        {
          "internalType": "uint256",
          "name": "endDateInvestment",
          "type": "uint256"
        },
        {
          "internalType": "bool",
          "name": "isActive",
          "type": "bool"
        },
        {
          "internalType": "bool",
          "name": "exists",
          "type": "bool"
        },
        {
          "internalType": "uint256",
          "name": "createdAt",
          "type": "uint256"
        },
        {
          "internalType": "enum FundRaisingCore.Status",
          "name": "status",
          "type": "uint8"
        }
      ],
      "stateMutability": "view",
      "type": "function"
    },
    {
      "inputs": [],
      "name": "owner",
      "outputs": [
        {
          "internalType": "address",
          "name": "",
          "type": "address"
        }
      ],
      "stateMutability": "view",
      "type": "function"
    },
    {
      "inputs": [],
      "name": "paused",
      "outputs": [
        {
          "internalType": "bool",
          "name": "",
          "type": "bool"
        }
      ],
      "stateMutability": "view",
      "type": "function"
    },
    {
      "inputs": [],
      "name": "renounceOwnership",
      "outputs": [],
      "stateMutability": "nonpayable",
      "type": "function"
    },
    {
      "inputs": [
        {
          "internalType": "uint256",
          "name": "",
          "type": "uint256"
        }
      ],
      "name": "roundLedger",
      "outputs": [
        {
          "internalType": "uint256",
          "name": "",
          "type": "uint256"
        }
      ],
      "stateMutability": "view",
      "type": "function"
    },
    {
      "inputs": [
        {
          "internalType": "uint256",
          "name": "",
          "type": "uint256"
        }
      ],
      "name": "roundRewardPool",
      "outputs": [
        {
          "internalType": "uint256",
          "name": "",
          "type": "uint256"
        }
      ],
      "stateMutability": "view",
      "type": "function"
    },
    {
      "inputs": [
        {
          "internalType": "uint256",
          "name": "",
          "type": "uint256"
        },
        {
          "internalType": "uint256",
          "name": "",
          "type": "uint256"
        }
      ],
      "name": "roundTokenIds",
      "outputs": [
        {
          "internalType": "uint256",
          "name": "",
          "type": "uint256"
        }
      ],
      "stateMutability": "view",
      "type": "function"
    },
    {
      "inputs": [
        {
          "internalType": "address",
          "name": "_claimsContract",
          "type": "address"
        }
      ],
      "name": "setAuthorizedClaimsContract",
      "outputs": [],
      "stateMutability": "nonpayable",
      "type": "function"
    },
    {
      "inputs": [
        {
          "internalType": "uint256",
          "name": "roundId",
          "type": "uint256"
        },
        {
          "internalType": "bool",
          "name": "active",
          "type": "bool"
        }
      ],
      "name": "setRoundActive",
      "outputs": [],
      "stateMutability": "nonpayable",
      "type": "function"
    },
    {
      "inputs": [
        {
          "internalType": "address",
          "name": "newUSDTToken",
          "type": "address"
        }
      ],
      "name": "setUSDTToken",
      "outputs": [],
      "stateMutability": "nonpayable",
      "type": "function"
    },
    {
      "inputs": [],
      "name": "totalRoundsCreated",
      "outputs": [
        {
          "internalType": "uint256",
          "name": "",
          "type": "uint256"
        }
      ],
      "stateMutability": "view",
      "type": "function"
    },
    {
      "inputs": [],
      "name": "totalUSDTRaised",
      "outputs": [
        {
          "internalType": "uint256",
          "name": "",
          "type": "uint256"
        }
      ],
      "stateMutability": "view",
      "type": "function"
    },
    {
      "inputs": [
        {
          "internalType": "address",
          "name": "newOwner",
          "type": "address"
        }
      ],
      "name": "transferOwnership",
      "outputs": [],
      "stateMutability": "nonpayable",
      "type": "function"
    },
    {
      "inputs": [
        {
          "internalType": "uint256",
          "name": "roundId",
          "type": "uint256"
        },
        {
          "internalType": "uint256",
          "name": "amount",
          "type": "uint256"
        }
      ],
      "name": "transferRewardToClaims",
      "outputs": [],
      "stateMutability": "nonpayable",
      "type": "function"
    },
    {
      "inputs": [
        {
          "internalType": "uint256",
          "name": "roundId",
          "type": "uint256"
        },
        {
          "internalType": "uint256",
          "name": "amount",
          "type": "uint256"
        },
        {
          "internalType": "bool",
          "name": "increase",
          "type": "bool"
        }
      ],
      "name": "updateRoundLedger",
      "outputs": [],
      "stateMutability": "nonpayable",
      "type": "function"
    },
    {
      "inputs": [
        {
          "internalType": "address",
          "name": "user",
          "type": "address"
        },
        {
          "internalType": "uint256",
          "name": "roundId",
          "type": "uint256"
        },
        {
          "internalType": "uint256",
          "name": "amount",
          "type": "uint256"
        }
      ],
      "name": "updateUserClaimedRewards",
      "outputs": [],
      "stateMutability": "nonpayable",
      "type": "function"
    },
    {
      "inputs": [],
      "name": "usdtToken",
      "outputs": [
        {
          "internalType": "contract IERC20",
          "name": "",
          "type": "address"
        }
      ],
      "stateMutability": "view",
      "type": "function"
    },
    {
      "inputs": [
        {
          "internalType": "address",
          "name": "",
          "type": "address"
        },
        {
          "internalType": "uint256",
          "name": "",
          "type": "uint256"
        }
      ],
      "name": "userClaimedRewards",
      "outputs": [
        {
          "internalType": "uint256",
          "name": "",
          "type": "uint256"
        }
      ],
      "stateMutability": "view",
      "type": "function"
    },
    {
      "inputs": [
        {
          "internalType": "uint256",
          "name": "roundId",
          "type": "uint256"
        }
      ],
      "name": "withdrawFund",
      "outputs": [],
      "stateMutability": "nonpayable",
      "type": "function"
    }
  ],
  "bytecode": "0x60a0346101d057601f612c0e38819003918201601f19168301916001600160401b038311848410176101d45780849260409485528339810103126101d057610052602061004b836101e8565b92016101e8565b9033156101bd575f8054336001600160a01b0319821681178355604051939290916001600160a01b0316907f8be0079c531659141344cd1fd0a4f28419497f9722a3daafe3b4186f6b6457e09080a3600180556001600160a01b031690811561017b57506001600160a01b038216156101365760805260028054610100600160a81b03191660089290921b610100600160a81b0316919091179055604051612a1190816101fd82396080518181816108ff01528181610aa401528181611200015281816113350152818161153a01528181611632015281816116de01526120c20152f35b60405162461bcd60e51b815260206004820152601460248201527f496e76616c6964205553445420616464726573730000000000000000000000006044820152606490fd5b62461bcd60e51b815260206004820152601560248201527f496e76616c696420445a4e4654206164647265737300000000000000000000006044820152606490fd5b631e4fbdf760e01b5f525f60045260245ffd5b5f80fd5b634e487b7160e01b5f52604160045260245ffd5b51906001600160a01b03821682036101d05756fe6080806040526004361015610012575f80fd5b5f3560e01c90816308c89b6d146122125750806309815517146120925780630cee172514611f8b5780631470e87d146114e1578063161f662214611f1b5780631c25dc5814611d9f57806321bdff0914611ce357806330814b1b14611cc6578063354281a014611c9c5780635c975abb14611c7a578063632d45eb14611c5057806366e226bd14611b8857806369fbd3cc14611abd5780636a37a9bf14611a05578063715018a6146119c1578063760ca4f41461181e57806379b2c17a1461178757806384e97c8c1461175f5780638da5cb5b146117385780638debb5461461169c5780638e25e2e6146115fc57806393b58d81146115b857806398ee9f151461150d578063a98ad46c146114e1578063b0eff316146114c4578063b175b32f1461149a578063b201c0c31461145c578063bb3505f414611364578063bf32eb0114611320578063c0bcc07a146111ca578063c6f83418146111af578063c8f7604014611125578063d5b52b9514610f7b578063df0201b014610d03578063df8493b014610786578063e96d87b41461024f578063ef2cfd1a146102345763f2fde38b146101be575f80fd5b34610230576020366003190112610230576101d7612420565b6101df612955565b6001600160a01b0316801561021d575f80546001600160a01b03198116831782556001600160a01b0316905f5160206129bc5f395f51905f529080a3005b631e4fbdf760e01b5f525f60045260245ffd5b5f80fd5b34610230575f36600319011261023057602060405160128152f35b346102305760c0366003190112610230576004356001600160401b038111610230573660238201121561023057806004013561028a81612546565b916102986040519384612264565b818352366024838301011161023057815f92602460209301838601378301015260243590604435916064359160843560a4356102d2612955565b8251156107445783156106f45784156106945785151580610688575b1561063757428211156105f357818111156105a4575f9460095496879261031484612947565b6009556040519461032486612248565b84865260208601928784526040870194898652606088019182526080880190815260a08801918b835260c0890193845260e08901948552610100890196600188526101208a0196600188526101408b0199428b526101608c019e8f525f52600460205260405f209a518b5560018b01905180519060018060401b038211610590576103af8354612436565b601f811161054b575b50602090601f83116001146104da57600a9d9c9b9a9998979695949392915f91836104cf575b50508160011b915f199060031b1c19161790555b5160028a01555160038901555160048801555160058701555160068601555160078501556104336008850192511515839060ff801983541691151516179055565b51151561ff0082549160081b169061ff0019161790555160098201550192519160058310156104bb577f9bd719c4581ad3c2ad551d9f5ec0458ef29b8c209c84ca2e49fe88d321063d8f936104b09360ff80198354169116179055610499600a54612947565b600a5560405192839260408452604084019061231c565b9060208301520390a2005b634e487b7160e01b5f52602160045260245ffd5b015190505f806103de565b90601f19831691845f52815f20925f5b818110610533575091600a9f9e9d9c9b9a999897969594929183600195931061051b575b505050811b0190556103f2565b01515f1960f88460031b161c191690555f808061050e565b929360206001819287860151815501950193016104ea565b835f5260205f20601f840160051c81019160208510610586575b601f0160051c01905b81811061057b57506103b8565b5f815560010161056e565b9091508190610565565b634e487b7160e01b5f52604160045260245ffd5b60405162461bcd60e51b815260206004820152602160248201527f456e642064617465206d75737420626520616674657220636c6f7365206461746044820152606560f81b6064820152608490fd5b60405162461bcd60e51b815260206004820152601c60248201527b436c6f73652064617465206d75737420626520696e2066757475726560201b6044820152606490fd5b60405162461bcd60e51b815260206004820152602360248201527f496e76616c6964207265776172642070657263656e746167652028302d31303060448201526230302960e81b6064820152608490fd5b506127108611156102ee565b60405162461bcd60e51b815260206004820152603260248201527f546f74616c20746f6b656e206f70656e20696e766573746d656e74206d75737460448201527102062652067726561746572207468616e20360741b6064820152608490fd5b60405162461bcd60e51b815260206004820152602260248201527f546f6b656e207072696365206d7573742062652067726561746572207468616e604482015261020360f41b6064820152608490fd5b60405162461bcd60e51b815260206004820152601a602482015279526f756e64206e616d652063616e6e6f7420626520656d70747960301b6044820152606490fd5b34610230576107943661251b565b61079c61297b565b60025460ff8116610cf457825f5260046020526107c560ff600860405f20015460081c16612687565b825f52600460205260ff600860405f2001541615610cb957825f526004602052600660405f2001544211610c7557811590811580610c6a575b15610c2e57835f52600460205260405f20600281018054938415610c1a57845f19048611610bd95784860294868604141715610bc5576005820192610844868554612774565b600484015410610b6e57602060405180926323b872dd60e01b8252815f816108718b3033600485016127a5565b039260081c6001600160a01b03165af18015610a1f575f90610b33575b61089891506126e5565b6001851115610a2a575490600381015490600760068201549101549160405193632fdc968f60e21b855233600486015287602486015288604486015260648501526084840152600160a484015260c483015260e48201525f81610104818360018060a01b037f0000000000000000000000000000000000000000000000000000000000000000165af1908115610a1f575f916109fd575b505b845f52600560205260405f20905f5b8581106109b657505050610955838254612774565b9055825f52600660205260405f2061096e828254612774565b905561097c81600b54612774565b600b5560405191825260208201527f3bdff14eed6ddd6ca85e178ed7df644a6a676c0796374ce875e380bc74a28e7860403392a360018055005b6109c08183612933565b5183549190600160401b831015610590576109e2836001809501875586612531565b819291549060031b91821b915f19901b191617905501610940565b610a1991503d805f833e610a118183612264565b8101906127c7565b8561092f565b6040513d5f823e3d90fd5b906040908151610a3a8382612264565b600181526020810191601f19840136843781945490600381015490600760068201549101549186519363f4fb815960e01b85523360048601528c6024860152604485015260648401526001608484015260a483015260c482015260208160e4815f60018060a01b037f0000000000000000000000000000000000000000000000000000000000000000165af1938415610b2a57505f93610af6575b505115610ae25752610931565b634e487b7160e01b5f52603260045260245ffd5b9092506020813d602011610b22575b81610b1260209383612264565b8101031261023057519188610ad5565b3d9150610b05565b513d5f823e3d90fd5b506020813d602011610b66575b81610b4d60209383612264565b8101031261023057610b6161089891612561565b61088e565b3d9150610b40565b60405162461bcd60e51b815260206004820152602960248201527f4e6f7420656e6f75676820746f6b656e7320617661696c61626c6520696e20746044820152681a1a5cc81c9bdd5b9960ba1b6064820152608490fd5b634e487b7160e01b5f52601160045260245ffd5b60405162461bcd60e51b815260206004820152601960248201527843616c63756c6174696f6e206f766572666c6f77207269736b60381b6044820152606490fd5b634e487b7160e01b5f52601260045260245ffd5b60405162461bcd60e51b8152602060048201526014602482015273125b9d985b1a59081d1bdad95b88185b5bdd5b9d60621b6044820152606490fd5b5060328311156107fe565b60405162461bcd60e51b815260206004820152601c60248201527b125b9d995cdd1b595b9d081c195c9a5bd9081a185cc818db1bdcd95960221b6044820152606490fd5b60405162461bcd60e51b8152602060048201526013602482015272526f756e64206973206e6f742061637469766560681b6044820152606490fd5b63d93c066560e01b5f5260045ffd5b3461023057610d113661229e565b805190610d1d82612287565b91610d2b6040519384612264565b808352610d3a601f1991612287565b015f5b818110610f175750505f5b8151811015610e2457610d5b8183612933565b515f52600460205260405f209060ff600a60405193610d7985612248565b80548552610d896001820161246e565b6020860152600281015460408601526003810154606086015260048101546080860152600581015460a0860152600681015460c0860152600781015460e0860152826008820154818116151561010088015260081c16151561012086015260098101546101408601520154169160058310156104bb57600192610160820152610e128286612933565b52610e1d8185612933565b5001610d48565b826040518091602082016020835281518091526040830190602060408260051b8601019301915f905b828210610e5c57505050500390f35b919360019193955060208091603f19898203018552610f078851918251815261016080610e98868601516101808886015261018085019061231c565b9460408101516040850152606081015160608501526080810151608085015260a081015160a085015260c081015160c085015260e081015160e085015261010081015115156101008501526101208101511515610120850152610140810151610140850152015191019061250e565b9601920192018594939192610e4d565b602090604051610f2681612248565b5f81526060838201525f60408201525f60608201525f60808201525f60a08201525f60c08201525f60e08201525f6101008201525f6101208201525f6101408201525f61016082015282828701015201610d3d565b3461023057610f893661251b565b610f9e60018060a01b036003541633146128c4565b80156110ef57815f526004602052610fc260ff600860405f20015460081c16612687565b815f5260076020528060405f2054106110af576110256020915f9384526007835260408420610ff2828254612926565b905560025460405163095ea7b360e01b815294859360089290921c6001600160a01b0316928492839133600484016126ca565b03925af1908115610a1f575f91611075575b501561103f57005b60405162461bcd60e51b815260206004820152600e60248201526d105c1c1c9bdd994819985a5b195960921b6044820152606490fd5b90506020813d6020116110a7575b8161109060209383612264565b81010312610230576110a190612561565b81611037565b3d9150611083565b60405162461bcd60e51b8152602060048201526018602482015277125b9cdd59999a58da595b9d081c995dd85c99081c1bdbdb60421b6044820152606490fd5b60405162461bcd60e51b815260206004820152600e60248201526d125b9d985b1a5908185b5bdd5b9d60921b6044820152606490fd5b34610230575f366003190112610230576002546040516370a0823160e01b8152306004820152906020908290602490829060081c6001600160a01b03165afa8015610a1f575f9061117c575b602090604051908152f35b506020813d6020116111a7575b8161119660209383612264565b810103126102305760209051611171565b3d9150611189565b34610230575f36600319011261023057602060405160328152f35b34610230576020366003190112610230576111e3612840565b5060405163605e603d60e11b815260048035908201525f816024817f00000000000000000000000000000000000000000000000000000000000000006001600160a01b03165afa908115610a1f576112fa916112a3915f916112fe575b50805190602081015160408201516060830151608084015160a085015160c08601519060e08701519260018060a01b0361010089015116946101208901511515966101408a01511515986101806101608c015115159b01519b6040519d8e61222c565b8d5260208d015260408c015260608b015260808a015260a089015260c088015260e0870152610100860152610120850152610140840152610160830152610180820152604051918291602083526020830190612340565b0390f35b61131a91503d805f833e6113128183612264565b81019061289f565b83611240565b34610230575f366003190112610230576040517f00000000000000000000000000000000000000000000000000000000000000006001600160a01b03168152602090f35b346102305760603660031901126102305760243560043560443580151581036102305761139c60018060a01b036003541633146128c4565b815f5260046020526113ba60ff600860405f20015460081c16612687565b6113c5831515612728565b156113e4575f5260066020526113e060405f20918254612774565b9055005b805f5260066020528160405f20541061140d575f5260066020526113e060405f20918254612926565b60405162461bcd60e51b815260206004820152602160248201527f496e73756666696369656e7420726f756e64206c65646765722062616c616e636044820152606560f81b6064820152608490fd5b346102305761146a3661251b565b905f52600560205260405f2080548210156102305760209161148b91612531565b90549060031b1c604051908152f35b34610230576020366003190112610230576004355f526007602052602060405f2054604051908152f35b34610230575f366003190112610230576020600954604051908152f35b34610230575f3660031901126102305760025460405160089190911c6001600160a01b03168152602090f35b346102305760203660031901126102305760405162491fcf60e11b815260048035908201526020816024817f00000000000000000000000000000000000000000000000000000000000000006001600160a01b03165afa8015610a1f575f9061157e575b6020906040519015158152f35b506020813d6020116115b0575b8161159860209383612264565b81010312610230576115ab602091612561565b611571565b3d915061158b565b34610230576040366003190112610230576001600160a01b036115d9612420565b165f52600860205260405f206024355f52602052602060405f2054604051908152f35b3461023057602036600319011261023057611615612840565b50604051634712f17360e11b815260048035908201525f816024817f00000000000000000000000000000000000000000000000000000000000000006001600160a01b03165afa8015610a1f576112fa915f91611682575b50604051918291602083526020830190612340565b61169691503d805f833e6113128183612264565b8261166d565b34610230576020366003190112610230576116b5612420565b6040516346f5daa360e11b81526001600160a01b039182166004820152905f90829060249082907f0000000000000000000000000000000000000000000000000000000000000000165afa8015610a1f576112fa915f9161171e575b50604051918291826123e7565b61173291503d805f833e610a118183612264565b82611711565b34610230575f366003190112610230575f546040516001600160a01b039091168152602090f35b34610230575f366003190112610230576003546040516001600160a01b039091168152602090f35b346102305760403660031901126102305760043560243580151590818103610230577fdd8c33b779db77b877161fe300dfc92dc5b0d87c7e4199701eb25330a83e16f9916118156020926117d9612955565b855f52600484526117f660ff600860405f20015460081c16612687565b855f5260048452600860405f20019060ff801983541691151516179055565b604051908152a2005b346102305761182c3661251b565b611834612955565b815f52600460205261185260ff600860405f20015460081c16612687565b8015611970576002545f906020906118979060081c6001600160a01b031661187985612781565b6040519485809481936323b872dd60e01b83523033600485016127a5565b03925af1908115610a1f575f9161191f575b505f51602061299c5f395f51905f52916118c46040926126e5565b6118cd81612781565b845f5260076020526118e3835f20918254612774565b90556118ee81612781565b845f526006602052611904835f20918254612774565b9055835f526007602052815f205482519182526020820152a2005b90506020813d602011611968575b8161193a60209383612264565b81010312610230575f51602061299c5f395f51905f52916118c461195f604093612561565b925050916118a9565b3d915061192d565b60405162461bcd60e51b8152602060048201526024808201527f52657761726420616d6f756e74206d75737420626520677265617465722074686044820152630616e20360e41b6064820152608490fd5b34610230575f366003190112610230576119d9612955565b5f80546001600160a01b0319811682556001600160a01b03165f5160206129bc5f395f51905f528280a3005b3461023057602036600319011261023057611a1e612420565b611a26612955565b6001600160a01b03168015611a7857600380546001600160a01b0319811683179091556001600160a01b03167ffe66ddef0f2a9c1d6f97182ba039017c769bd48d0d1ec0a3cc405c078f3c17f45f80a3005b60405162461bcd60e51b815260206004820152601f60248201527f496e76616c696420636c61696d7320636f6e74726163742061646472657373006044820152606490fd5b34610230576020366003190112610230576004355f52600460205261018060405f208054906112fa611af16001830161246e565b60028301549260ff600382015460048301546005840154600685015490600786015492600887015494611b4187600a60098b01549a015416996040519e8f9e8f908152816020820152019061231c565b9a60408d015260608c015260808b015260a08a015260c089015260e0880152818116151561010088015260081c16151561012086015261014085015261016084019061250e565b3461023057602036600319011261023057611ba1612420565b611ba9612955565b6001600160a01b038116908115611c0e5760028054610100600160a81b03198116600893841b610100600160a81b031617909155901c6001600160a01b03167f92852dbadca7e6fa4e0d5dd87891e6dd13f50a304561a86ea9d5a710b972e4495f80a3005b60405162461bcd60e51b815260206004820152601a602482015279496e76616c6964205553445420746f6b656e206164647265737360301b6044820152606490fd5b34610230576020366003190112610230576004355f526006602052602060405f2054604051908152f35b34610230575f36600319011261023057602060ff600254166040519015158152f35b34610230576020366003190112610230576004355f526005602052602060405f2054604051908152f35b34610230575f366003190112610230576020600a54604051908152f35b3461023057606036600319011261023057611cfc612420565b60243560443591611d0b612955565b6001600160a01b03168015611d6357815f526004602052611d3860ff600860405f20015460081c16612687565b611d43831515612728565b5f52600860205260405f20905f526020526113e060405f20918254612774565b60405162461bcd60e51b8152602060048201526014602482015273496e76616c69642075736572206164647265737360601b6044820152606490fd5b3461023057604036600319011261023057611db8612420565b60243590611dc4612955565b6001600160a01b03811615611eda57611dde821515612728565b6002546040516370a0823160e01b815230600482015260089190911c6001600160a01b03169290602081602481875afa8015610a1f5782915f91611ea5575b5010611e6457611e47926020925f60405180968195829463a9059cbb60e01b8452600484016126ca565b03925af18015610a1f575f9061157e576020906040519015158152f35b60405162461bcd60e51b8152602060048201526019602482015278496e73756666696369656e7420555344542062616c616e636560381b6044820152606490fd5b9150506020813d602011611ed2575b81611ec160209383612264565b810103126102305781905185611e1d565b3d9150611eb4565b60405162461bcd60e51b8152602060048201526019602482015278496e76616c696420726563697069656e74206164647265737360381b6044820152606490fd5b34610230576020366003190112610230576004355f52600560205260405f206040519081602082549182815201915f5260205f20905f5b818110611f75576112fa85611f6981870382612264565b604051918291826123e7565b8254845260209093019260019283019201611f52565b3461023057602036600319011261023057600435611fa7612955565b611faf61297b565b805f526004602052611fcd60ff600860405f20015460081c16612687565b5f8181526006602090815260408083208054908490556002548454925163a9059cbb60e01b81529485936001600160a01b0360089390931c8316938593849261201b929116600484016126ca565b03925af18015610a1f575f90612057575b61203691506126e5565b5f908152600460205260409020600a01805460ff1916600317905560018055005b506020813d60201161208a575b8161207160209383612264565b810103126102305761208561203691612561565b61202c565b3d9150612064565b34610230576120be5f6120a43661229e565b60405180938192630981551760e01b8352600483016123e7565b03817f00000000000000000000000000000000000000000000000000000000000000006001600160a01b03165afa908115610a1f575f91612161575b506040518091602082016020835281518091526040830190602060408260051b8601019301915f905b82821061213257505050500390f35b919360019193955060206121518192603f198a82030186528851612340565b9601920192018594939192612123565b90503d805f833e6121728183612264565b810190602081830312610230578051906001600160401b03821161023057019080601f830112156102305781516121a881612287565b926121b66040519485612264565b81845260208085019260051b820101918383116102305760208201905b8382106121e5575050505050816120fa565b81516001600160401b038111610230576020916122078784809488010161256e565b8152019101906121d3565b34610230575f36600319011261023057602090600b548152f35b6101a081019081106001600160401b0382111761059057604052565b61018081019081106001600160401b0382111761059057604052565b601f909101601f19168101906001600160401b0382119082101761059057604052565b6001600160401b0381116105905760051b60200190565b602060031982011261023057600435906001600160401b03821161023057806023830112156102305781600401356122d581612287565b926122e36040519485612264565b8184526024602085019260051b82010192831161023057602401905b82821061230c5750505090565b81358152602091820191016122ff565b805180835260209291819084018484015e5f828201840152601f01601f1916010190565b906101a06101806123e493805184526020810151602085015260408101516040850152606081015160608501526080810151608085015260a081015160a085015260c081015160c085015260e081015160e085015260018060a01b036101008201511661010085015261012081015115156101208501526101408101511515610140850152610160810151151561016085015201519181610180820152019061231c565b90565b60206040818301928281528451809452019201905f5b81811061240a5750505090565b82518452602093840193909201916001016123fd565b600435906001600160a01b038216820361023057565b90600182811c92168015612464575b602083101461245057565b634e487b7160e01b5f52602260045260245ffd5b91607f1691612445565b9060405191825f82549261248184612436565b80845293600181169081156124ec57506001146124a8575b506124a692500383612264565b565b90505f9291925260205f20905f915b8183106124d05750509060206124a6928201015f612499565b60209193508060019154838589010152019101909184926124b7565b9050602092506124a694915060ff191682840152151560051b8201015f612499565b9060058210156104bb5752565b6040906003190112610230576004359060243590565b8054821015610ae2575f5260205f2001905f90565b6001600160401b03811161059057601f01601f191660200190565b5190811515820361023057565b91906101a083820312610230576040516125878161222c565b8093805182526020810151602083015260408101516040830152606081015160608301526080810151608083015260a081015160a083015260c081015160c083015260e081015160e083015261010081015160018060a01b0381168103610230576101008301526125fb6101208201612561565b61012083015261260e6101408201612561565b6101408301526126216101608201612561565b610160830152610180810151906001600160401b03821161023057019082601f8301121561023057815161265481612546565b936126626040519586612264565b81855260208285010111610230576020815f928261018096018388015e850101520152565b1561268e57565b60405162461bcd60e51b8152602060048201526014602482015273149bdd5b9908191bd95cc81b9bdd08195e1a5cdd60621b6044820152606490fd5b6001600160a01b039091168152602081019190915260400190565b156126ec57565b60405162461bcd60e51b81526020600482015260146024820152731554d115081d1c985b9cd9995c8819985a5b195960621b6044820152606490fd5b1561272f57565b60405162461bcd60e51b815260206004820152601d60248201527f416d6f756e74206d7573742062652067726561746572207468616e20300000006044820152606490fd5b91908201809211610bc557565b90670de0b6b3a7640000820291808304670de0b6b3a76400001490151715610bc557565b6001600160a01b03918216815291166020820152604081019190915260600190565b602081830312610230578051906001600160401b03821161023057019080601f830112156102305781516127fa81612287565b926128086040519485612264565b81845260208085019260051b82010192831161023057602001905b8282106128305750505090565b8151815260209182019101612823565b6040519061284d8261222c565b6060610180835f81525f60208201525f60408201525f838201525f60808201525f60a08201525f60c08201525f60e08201525f6101008201525f6101208201525f6101408201525f6101608201520152565b906020828203126102305781516001600160401b038111610230576123e4920161256e565b156128cb57565b60405162461bcd60e51b815260206004820152602d60248201527f4f6e6c7920617574686f72697a656420636c61696d7320636f6e74726163742060448201526c63616e2063616c6c207468697360981b6064820152608490fd5b91908203918211610bc557565b8051821015610ae25760209160051b010190565b5f198114610bc55760010190565b5f546001600160a01b0316330361296857565b63118cdaa760e01b5f523360045260245ffd5b60026001541461298c576002600155565b633ee5aeb560e01b5f5260045ffdfe9795f222c951ae3e749f872dbe287f78d21fa52353e9175cb20ed3aa2b29b82b8be0079c531659141344cd1fd0a4f28419497f9722a3daafe3b4186f6b6457e0a26469706673582212200e586918fce1f5c781f8d87b42b4e28cda90f3c5c81551f2f3064ecf2985a6ee64736f6c634300081c0033",
  "linkReferences": {},
  "deployedLinkReferences": {},
  "immutableReferences": {
    "9303": [
      {
        "length": 32,
        "start": 2303
      },
      {
        "length": 32,
        "start": 2724
      },
      {
        "length": 32,
        "start": 4608
      },
      {
        "length": 32,
        "start": 4917
      },
      {
        "length": 32,
        "start": 5434
      },
      {
        "length": 32,
        "start": 5682
      },
      {
        "length": 32,
        "start": 5854
      },
      {
        "length": 32,
        "start": 8386
      }
    ]
  },
  "inputSourceName": "project/contracts/FundRaisingCore.sol",
  "buildInfoId": "solc-0_8_28-df73825341dfc43cbf8fd56a847fbffa2ee8e9f8"
}