{
  "_format": "hh3-artifact-1",
  "contractName": "FundRaisingCore",
  "sourceName": "contracts/FundRaisingCore.sol",
  "abi": [
    {
      "inputs": [
        {
          "internalType": "address",
          "name": "_dzNFT",
          "type": "address"
        },
        {
          "internalType": "address",
          "name": "_usdtToken",
          "type": "address"
        }
      ],
      "stateMutability": "nonpayable",
      "type": "constructor"
    },
    {
      "inputs": [],
      "name": "EnforcedPause",
      "type": "error"
    },
    {
      "inputs": [],
      "name": "ExpectedPause",
      "type": "error"
    },
    {
      "inputs": [
        {
          "internalType": "address",
          "name": "owner",
          "type": "address"
        }
      ],
      "name": "OwnableInvalidOwner",
      "type": "error"
    },
    {
      "inputs": [
        {
          "internalType": "address",
          "name": "account",
          "type": "address"
        }
      ],
      "name": "OwnableUnauthorizedAccount",
      "type": "error"
    },
    {
      "inputs": [],
      "name": "ReentrancyGuardReentrantCall",
      "type": "error"
    },
    {
      "anonymous": false,
      "inputs": [
        {
          "indexed": true,
          "internalType": "address",
          "name": "oldContract",
          "type": "address"
        },
        {
          "indexed": true,
          "internalType": "address",
          "name": "newContract",
          "type": "address"
        }
      ],
      "name": "AuthorizedClaimsContractUpdated",
      "type": "event"
    },
    {
      "anonymous": false,
      "inputs": [
        {
          "indexed": true,
          "internalType": "address",
          "name": "investor",
          "type": "address"
        },
        {
          "indexed": true,
          "internalType": "uint256",
          "name": "roundId",
          "type": "uint256"
        },
        {
          "indexed": false,
          "internalType": "uint256",
          "name": "tokenCount",
          "type": "uint256"
        },
        {
          "indexed": false,
          "internalType": "uint256",
          "name": "usdtAmount",
          "type": "uint256"
        }
      ],
      "name": "Investment",
      "type": "event"
    },
    {
      "anonymous": false,
      "inputs": [
        {
          "indexed": true,
          "internalType": "uint256",
          "name": "roundId",
          "type": "uint256"
        },
        {
          "indexed": false,
          "internalType": "string",
          "name": "roundName",
          "type": "string"
        },
        {
          "indexed": false,
          "internalType": "uint256",
          "name": "tokenPrice",
          "type": "uint256"
        }
      ],
      "name": "InvestmentRoundCreated",
      "type": "event"
    },
    {
      "anonymous": false,
      "inputs": [
        {
          "indexed": true,
          "internalType": "address",
          "name": "previousOwner",
          "type": "address"
        },
        {
          "indexed": true,
          "internalType": "address",
          "name": "newOwner",
          "type": "address"
        }
      ],
      "name": "OwnershipTransferred",
      "type": "event"
    },
    {
      "anonymous": false,
      "inputs": [
        {
          "indexed": false,
          "internalType": "address",
          "name": "account",
          "type": "address"
        }
      ],
      "name": "Paused",
      "type": "event"
    },
    {
      "anonymous": false,
      "inputs": [
        {
          "indexed": true,
          "internalType": "uint256",
          "name": "roundId",
          "type": "uint256"
        },
        {
          "indexed": false,
          "internalType": "uint256",
          "name": "amount",
          "type": "uint256"
        },
        {
          "indexed": false,
          "internalType": "uint256",
          "name": "totalRewardPool",
          "type": "uint256"
        }
      ],
      "name": "RewardAdded",
      "type": "event"
    },
    {
      "anonymous": false,
      "inputs": [
        {
          "indexed": true,
          "internalType": "uint256",
          "name": "roundId",
          "type": "uint256"
        },
        {
          "indexed": false,
          "internalType": "bool",
          "name": "isActive",
          "type": "bool"
        }
      ],
      "name": "RoundStatusChanged",
      "type": "event"
    },
    {
      "anonymous": false,
      "inputs": [
        {
          "indexed": true,
          "internalType": "address",
          "name": "oldToken",
          "type": "address"
        },
        {
          "indexed": true,
          "internalType": "address",
          "name": "newToken",
          "type": "address"
        }
      ],
      "name": "USDTTokenUpdated",
      "type": "event"
    },
    {
      "anonymous": false,
      "inputs": [
        {
          "indexed": false,
          "internalType": "address",
          "name": "account",
          "type": "address"
        }
      ],
      "name": "Unpaused",
      "type": "event"
    },
    {
      "inputs": [],
      "name": "MAX_TOKENS_PER_INVESTMENT",
      "outputs": [
        {
          "internalType": "uint256",
          "name": "",
          "type": "uint256"
        }
      ],
      "stateMutability": "view",
      "type": "function"
    },
    {
      "inputs": [],
      "name": "USDT_DECIMALS",
      "outputs": [
        {
          "internalType": "uint256",
          "name": "",
          "type": "uint256"
        }
      ],
      "stateMutability": "view",
      "type": "function"
    },
    {
      "inputs": [],
      "name": "_nextRoundId",
      "outputs": [
        {
          "internalType": "uint256",
          "name": "",
          "type": "uint256"
        }
      ],
      "stateMutability": "view",
      "type": "function"
    },
    {
      "inputs": [
        {
          "internalType": "uint256",
          "name": "roundId",
          "type": "uint256"
        },
        {
          "internalType": "uint256",
          "name": "amount",
          "type": "uint256"
        }
      ],
      "name": "addRewardToRound",
      "outputs": [],
      "stateMutability": "nonpayable",
      "type": "function"
    },
    {
      "inputs": [],
      "name": "authorizedClaimsContract",
      "outputs": [
        {
          "internalType": "address",
          "name": "",
          "type": "address"
        }
      ],
      "stateMutability": "view",
      "type": "function"
    },
    {
      "inputs": [
        {
          "internalType": "string",
          "name": "roundName",
          "type": "string"
        },
        {
          "internalType": "uint256",
          "name": "tokenPrice",
          "type": "uint256"
        },
        {
          "internalType": "uint256",
          "name": "rewardPercentage",
          "type": "uint256"
        },
        {
          "internalType": "uint256",
          "name": "totalTokenOpenInvestment",
          "type": "uint256"
        },
        {
          "internalType": "uint256",
          "name": "closeDateInvestment",
          "type": "uint256"
        },
        {
          "internalType": "uint256",
          "name": "endDateInvestment",
          "type": "uint256"
        }
      ],
      "name": "createInvestmentRound",
      "outputs": [],
      "stateMutability": "nonpayable",
      "type": "function"
    },
    {
      "inputs": [],
      "name": "dzNFT",
      "outputs": [
        {
          "internalType": "contract DZNFT",
          "name": "",
          "type": "address"
        }
      ],
      "stateMutability": "view",
      "type": "function"
    },
    {
      "inputs": [
        {
          "internalType": "address",
          "name": "recipient",
          "type": "address"
        },
        {
          "internalType": "uint256",
          "name": "amount",
          "type": "uint256"
        }
      ],
      "name": "emergencyTransferUSDT",
      "outputs": [
        {
          "internalType": "bool",
          "name": "",
          "type": "bool"
        }
      ],
      "stateMutability": "nonpayable",
      "type": "function"
    },
    {
      "inputs": [],
      "name": "getContractUSDTBalance",
      "outputs": [
        {
          "internalType": "uint256",
          "name": "",
          "type": "uint256"
        }
      ],
      "stateMutability": "view",
      "type": "function"
    },
    {
      "inputs": [
        {
          "internalType": "address",
          "name": "investor",
          "type": "address"
        }
      ],
      "name": "getInvestorRounds",
      "outputs": [
        {
          "internalType": "uint256[]",
          "name": "",
          "type": "uint256[]"
        }
      ],
      "stateMutability": "view",
      "type": "function"
    },
    {
      "inputs": [
        {
          "internalType": "uint256",
          "name": "roundId",
          "type": "uint256"
        }
      ],
      "name": "getRoundTokenCount",
      "outputs": [
        {
          "internalType": "uint256",
          "name": "",
          "type": "uint256"
        }
      ],
      "stateMutability": "view",
      "type": "function"
    },
    {
      "inputs": [
        {
          "internalType": "uint256",
          "name": "roundId",
          "type": "uint256"
        }
      ],
      "name": "getRoundTokenIds",
      "outputs": [
        {
          "internalType": "uint256[]",
          "name": "",
          "type": "uint256[]"
        }
      ],
      "stateMutability": "view",
      "type": "function"
    },
    {
      "inputs": [],
      "name": "getUSDTTokenAddress",
      "outputs": [
        {
          "internalType": "address",
          "name": "",
          "type": "address"
        }
      ],
      "stateMutability": "view",
      "type": "function"
    },
    {
      "inputs": [
        {
          "internalType": "address",
          "name": "user",
          "type": "address"
        }
      ],
      "name": "getUserInvestments",
      "outputs": [
        {
          "internalType": "uint256[]",
          "name": "",
          "type": "uint256[]"
        }
      ],
      "stateMutability": "view",
      "type": "function"
    },
    {
      "inputs": [
        {
          "internalType": "uint256",
          "name": "roundId",
          "type": "uint256"
        },
        {
          "internalType": "address",
          "name": "user",
          "type": "address"
        }
      ],
      "name": "getUserNFTsInRound",
      "outputs": [
        {
          "internalType": "uint256[]",
          "name": "",
          "type": "uint256[]"
        }
      ],
      "stateMutability": "view",
      "type": "function"
    },
    {
      "inputs": [
        {
          "internalType": "uint256",
          "name": "roundId",
          "type": "uint256"
        },
        {
          "internalType": "uint256",
          "name": "tokenAmount",
          "type": "uint256"
        }
      ],
      "name": "investInRound",
      "outputs": [],
      "stateMutability": "nonpayable",
      "type": "function"
    },
    {
      "inputs": [
        {
          "internalType": "uint256",
          "name": "",
          "type": "uint256"
        }
      ],
      "name": "investmentRounds",
      "outputs": [
        {
          "internalType": "uint256",
          "name": "roundId",
          "type": "uint256"
        },
        {
          "internalType": "string",
          "name": "roundName",
          "type": "string"
        },
        {
          "internalType": "uint256",
          "name": "tokenPrice",
          "type": "uint256"
        },
        {
          "internalType": "uint256",
          "name": "rewardPercentage",
          "type": "uint256"
        },
        {
          "internalType": "uint256",
          "name": "totalTokenOpenInvestment",
          "type": "uint256"
        },
        {
          "internalType": "uint256",
          "name": "tokensSold",
          "type": "uint256"
        },
        {
          "internalType": "uint256",
          "name": "closeDateInvestment",
          "type": "uint256"
        },
        {
          "internalType": "uint256",
          "name": "endDateInvestment",
          "type": "uint256"
        },
        {
          "internalType": "bool",
          "name": "isActive",
          "type": "bool"
        },
        {
          "internalType": "bool",
          "name": "exists",
          "type": "bool"
        },
        {
          "internalType": "uint256",
          "name": "createdAt",
          "type": "uint256"
        },
        {
          "internalType": "enum FundRaisingCore.Status",
          "name": "status",
          "type": "uint8"
        }
      ],
      "stateMutability": "view",
      "type": "function"
    },
    {
      "inputs": [
        {
          "internalType": "address",
          "name": "",
          "type": "address"
        },
        {
          "internalType": "uint256",
          "name": "",
          "type": "uint256"
        }
      ],
      "name": "investorRounds",
      "outputs": [
        {
          "internalType": "uint256",
          "name": "",
          "type": "uint256"
        }
      ],
      "stateMutability": "view",
      "type": "function"
    },
    {
      "inputs": [],
      "name": "owner",
      "outputs": [
        {
          "internalType": "address",
          "name": "",
          "type": "address"
        }
      ],
      "stateMutability": "view",
      "type": "function"
    },
    {
      "inputs": [],
      "name": "paused",
      "outputs": [
        {
          "internalType": "bool",
          "name": "",
          "type": "bool"
        }
      ],
      "stateMutability": "view",
      "type": "function"
    },
    {
      "inputs": [],
      "name": "renounceOwnership",
      "outputs": [],
      "stateMutability": "nonpayable",
      "type": "function"
    },
    {
      "inputs": [
        {
          "internalType": "uint256",
          "name": "",
          "type": "uint256"
        }
      ],
      "name": "roundLedger",
      "outputs": [
        {
          "internalType": "uint256",
          "name": "",
          "type": "uint256"
        }
      ],
      "stateMutability": "view",
      "type": "function"
    },
    {
      "inputs": [
        {
          "internalType": "uint256",
          "name": "",
          "type": "uint256"
        }
      ],
      "name": "roundRewardPool",
      "outputs": [
        {
          "internalType": "uint256",
          "name": "",
          "type": "uint256"
        }
      ],
      "stateMutability": "view",
      "type": "function"
    },
    {
      "inputs": [
        {
          "internalType": "uint256",
          "name": "",
          "type": "uint256"
        },
        {
          "internalType": "uint256",
          "name": "",
          "type": "uint256"
        }
      ],
      "name": "roundTokenIds",
      "outputs": [
        {
          "internalType": "uint256",
          "name": "",
          "type": "uint256"
        }
      ],
      "stateMutability": "view",
      "type": "function"
    },
    {
      "inputs": [
        {
          "internalType": "address",
          "name": "_claimsContract",
          "type": "address"
        }
      ],
      "name": "setAuthorizedClaimsContract",
      "outputs": [],
      "stateMutability": "nonpayable",
      "type": "function"
    },
    {
      "inputs": [
        {
          "internalType": "uint256",
          "name": "roundId",
          "type": "uint256"
        },
        {
          "internalType": "bool",
          "name": "active",
          "type": "bool"
        }
      ],
      "name": "setRoundActive",
      "outputs": [],
      "stateMutability": "nonpayable",
      "type": "function"
    },
    {
      "inputs": [
        {
          "internalType": "address",
          "name": "newUSDTToken",
          "type": "address"
        }
      ],
      "name": "setUSDTToken",
      "outputs": [],
      "stateMutability": "nonpayable",
      "type": "function"
    },
    {
      "inputs": [],
      "name": "totalRoundsCreated",
      "outputs": [
        {
          "internalType": "uint256",
          "name": "",
          "type": "uint256"
        }
      ],
      "stateMutability": "view",
      "type": "function"
    },
    {
      "inputs": [],
      "name": "totalUSDTRaised",
      "outputs": [
        {
          "internalType": "uint256",
          "name": "",
          "type": "uint256"
        }
      ],
      "stateMutability": "view",
      "type": "function"
    },
    {
      "inputs": [
        {
          "internalType": "address",
          "name": "newOwner",
          "type": "address"
        }
      ],
      "name": "transferOwnership",
      "outputs": [],
      "stateMutability": "nonpayable",
      "type": "function"
    },
    {
      "inputs": [
        {
          "internalType": "uint256",
          "name": "roundId",
          "type": "uint256"
        },
        {
          "internalType": "uint256",
          "name": "amount",
          "type": "uint256"
        }
      ],
      "name": "transferRewardToClaims",
      "outputs": [],
      "stateMutability": "nonpayable",
      "type": "function"
    },
    {
      "inputs": [
        {
          "internalType": "uint256",
          "name": "roundId",
          "type": "uint256"
        },
        {
          "internalType": "uint256",
          "name": "amount",
          "type": "uint256"
        },
        {
          "internalType": "bool",
          "name": "increase",
          "type": "bool"
        }
      ],
      "name": "updateRoundLedger",
      "outputs": [],
      "stateMutability": "nonpayable",
      "type": "function"
    },
    {
      "inputs": [
        {
          "internalType": "address",
          "name": "user",
          "type": "address"
        },
        {
          "internalType": "uint256",
          "name": "roundId",
          "type": "uint256"
        },
        {
          "internalType": "uint256",
          "name": "amount",
          "type": "uint256"
        }
      ],
      "name": "updateUserClaimedRewards",
      "outputs": [],
      "stateMutability": "nonpayable",
      "type": "function"
    },
    {
      "inputs": [],
      "name": "usdtToken",
      "outputs": [
        {
          "internalType": "contract IERC20",
          "name": "",
          "type": "address"
        }
      ],
      "stateMutability": "view",
      "type": "function"
    },
    {
      "inputs": [
        {
          "internalType": "address",
          "name": "",
          "type": "address"
        },
        {
          "internalType": "uint256",
          "name": "",
          "type": "uint256"
        }
      ],
      "name": "userClaimedRewards",
      "outputs": [
        {
          "internalType": "uint256",
          "name": "",
          "type": "uint256"
        }
      ],
      "stateMutability": "view",
      "type": "function"
    },
    {
      "inputs": [
        {
          "internalType": "address",
          "name": "",
          "type": "address"
        },
        {
          "internalType": "uint256",
          "name": "",
          "type": "uint256"
        }
      ],
      "name": "userInvestments",
      "outputs": [
        {
          "internalType": "uint256",
          "name": "",
          "type": "uint256"
        }
      ],
      "stateMutability": "view",
      "type": "function"
    },
    {
      "inputs": [
        {
          "internalType": "uint256",
          "name": "",
          "type": "uint256"
        },
        {
          "internalType": "address",
          "name": "",
          "type": "address"
        },
        {
          "internalType": "uint256",
          "name": "",
          "type": "uint256"
        }
      ],
      "name": "userNFTsInRound",
      "outputs": [
        {
          "internalType": "uint256",
          "name": "",
          "type": "uint256"
        }
      ],
      "stateMutability": "view",
      "type": "function"
    },
    {
      "inputs": [
        {
          "internalType": "uint256",
          "name": "roundId",
          "type": "uint256"
        }
      ],
      "name": "withdrawFund",
      "outputs": [],
      "stateMutability": "nonpayable",
      "type": "function"
    }
  ],
  "bytecode": "0x60a0346101ad57601f6123a738819003918201601f19168301916001600160401b038311848410176101b15780849260409485528339810103126101ad57610052602061004b836101c5565b92016101c5565b90331561019a575f8054336001600160a01b0319821681178355604051939290916001600160a01b0316907f8be0079c531659141344cd1fd0a4f28419497f9722a3daafe3b4186f6b6457e09080a3600180556001600160a01b031690811561015857506001600160a01b038216156101135760805260028054610100600160a81b03191660089290921b610100600160a81b03169190911790556040516121cd90816101da823960805181818161097101528181610bdd01526110fe0152f35b60405162461bcd60e51b815260206004820152601460248201527f496e76616c6964205553445420616464726573730000000000000000000000006044820152606490fd5b62461bcd60e51b815260206004820152601560248201527f496e76616c696420445a4e4654206164647265737300000000000000000000006044820152606490fd5b631e4fbdf760e01b5f525f60045260245ffd5b5f80fd5b634e487b7160e01b5f52604160045260245ffd5b51906001600160a01b03821682036101ad5756fe6080806040526004361015610012575f80fd5b5f3560e01c90816308c89b6d14611e4d575080630cee172514611d645780631470e87d1461128e578063161f662214611d0057806318f38da214611c825780631c25dc5814611ae757806321bdff0914611a2b57806330814b1b14611a0e578063309013471461199c578063354281a0146119725780635c975abb14611950578063632d45eb1461192657806366e226bd1461185e57806369fbd3cc146116f65780636a37a9bf1461163e578063715018a6146115fa578063760ca4f41461147657806379b2c17a146113df5780637c3157541461139657806384e97c8c1461136e5780638da5cb5b146113475780639244adcd146112fe57806393b58d81146112ba578063a98ad46c1461128e578063b0eff31614611271578063b175b32f14611247578063b201c0c314611218578063bb3505f41461112d578063bf32eb01146110e9578063c52c5c8814611067578063c6f834181461104c578063c8f7604014610fc2578063d5b52b9514610ddb578063df8493b014610808578063e96d87b4146102b0578063ef1b92a41461024f578063ef2cfd1a146102345763f2fde38b146101be575f80fd5b34610230576020366003190112610230576101d7611eb6565b6101df612131565b6001600160a01b0316801561021d575f80546001600160a01b03198116831782556001600160a01b0316905f5160206121785f395f51905f529080a3005b631e4fbdf760e01b5f525f60045260245ffd5b5f80fd5b34610230575f36600319011261023057602060405160128152f35b3461023057606036600319011261023057610268611ea0565b604435906004355f52600760205260405f209060018060a01b03165f5260205260405f208054821015610230576020916102a191611f61565b90549060031b1c604051908152f35b346102305760c0366003190112610230576004356001600160401b03811161023057366023820112156102305760048101356001600160401b0381116106125760405191610308601f8301601f191660200184611f04565b818352366024838301011161023057815f92602460209301838601378301015260243560443590606435926084359260a435610342612131565b8251156107c6578315610776578515610716578115158061070a575b156106b95742851115610675578481111561062657600c549561038087612123565b600c55604051926101808401926001600160401b03841185851017610612575f97899460405284865260208601928784526040870194898652606088019182526080880190815260a08801918b835260c0890193845260e08901948552610100890196600188526101208a0196600188526101408b0199428b526101608c019e8f525f52600460205260405f209a518b5560018b01905180519060018060401b038211610612576104318354611ecc565b601f81116105cd575b50602090601f831160011461055c57600a9d9c9b9a9998979695949392915f9183610551575b50508160011b915f199060031b1c19161790555b5160028a01555160038901555160048801555160058701555160068601555160078501556104b56008850192511515839060ff801983541691151516179055565b51151561ff0082549160081b169061ff00191617905551600982015501925191600583101561053d577f9bd719c4581ad3c2ad551d9f5ec0458ef29b8c209c84ca2e49fe88d321063d8f936105329360ff8019835416911617905561051b600d54612123565b600d55604051928392604084526040840190611f27565b9060208301520390a2005b634e487b7160e01b5f52602160045260245ffd5b015190505f80610460565b90601f19831691845f52815f20925f5b8181106105b5575091600a9f9e9d9c9b9a999897969594929183600195931061059d575b505050811b019055610474565b01515f1960f88460031b161c191690555f8080610590565b9293602060018192878601518155019501930161056c565b835f5260205f20601f840160051c81019160208510610608575b601f0160051c01905b8181106105fd575061043a565b5f81556001016105f0565b90915081906105e7565b634e487b7160e01b5f52604160045260245ffd5b60405162461bcd60e51b815260206004820152602160248201527f456e642064617465206d75737420626520616674657220636c6f7365206461746044820152606560f81b6064820152608490fd5b60405162461bcd60e51b815260206004820152601c60248201527b436c6f73652064617465206d75737420626520696e2066757475726560201b6044820152606490fd5b60405162461bcd60e51b815260206004820152602360248201527f496e76616c6964207265776172642070657263656e746167652028302d31303060448201526230302960e81b6064820152608490fd5b5061271082111561035e565b60405162461bcd60e51b815260206004820152603260248201527f546f74616c20746f6b656e206f70656e20696e766573746d656e74206d75737460448201527102062652067726561746572207468616e20360741b6064820152608490fd5b60405162461bcd60e51b815260206004820152602260248201527f546f6b656e207072696365206d7573742062652067726561746572207468616e604482015261020360f41b6064820152608490fd5b60405162461bcd60e51b815260206004820152601a602482015279526f756e64206e616d652063616e6e6f7420626520656d70747960301b6044820152606490fd5b346102305761081636611f4b565b61081e612157565b60025460ff8116610dcc57825f52600460205261084760ff600860405f20015460081c16611f76565b825f52600460205260ff600860405f2001541615610d9157825f526004602052600660405f2001544211610d4d57811590811580610d42575b15610d0657835f52600460205260405f206002810180549384860294868604141715610cf25760058201926108b686855461207b565b600484015410610c9b57602060405180926323b872dd60e01b8252815f816108e38b3033600485016120ac565b039260081c6001600160a01b03165af18015610b585761090a915f91610c6c575b50611fec565b6001851115610b63575490600381015490600760068201549101549160405193632fdc968f60e21b855233600486015287602486015288604486015260648501526084840152600160a484015260c483015260e48201525f81610104818360018060a01b037f0000000000000000000000000000000000000000000000000000000000000000165af1908115610b58575f91610abd575b505b845f52600560205260405f20335f52600660205260405f2091865f52600760205260405f2060018060a01b0333165f5260205260405f2090815415935f5b888110610a78575050505050610a5e575b6109fd83825461207b565b9055825f52600860205260405f20610a1682825461207b565b9055610a2481600e5461207b565b600e5560405191825260208201527f3bdff14eed6ddd6ca85e178ed7df644a6a676c0796374ce875e380bc74a28e7860403392a360018055005b335f526009602052610a738460405f206120ef565b6109f2565b80610a8f610a88600193866120db565b51876120ef565b610aa3610a9c82866120db565b51846120ef565b610ab7610ab082866120db565b51866120ef565b016109e1565b90503d805f833e610ace8183611f04565b810190602081830312610230578051906001600160401b03821161023057019080601f83011215610230578151916001600160401b038311610612578260051b906020820193610b216040519586611f04565b845260208085019282010192831161023057602001905b828210610b4857505050856109a1565b8151815260209182019101610b38565b6040513d5f823e3d90fd5b906040908151610b738382611f04565b600181526020810191601f19840136843781945490600381015490600760068201549101549186519363f4fb815960e01b85523360048601528c6024860152604485015260648401526001608484015260a483015260c482015260208160e4815f60018060a01b037f0000000000000000000000000000000000000000000000000000000000000000165af1938415610c6357505f93610c2f575b505115610c1b57526109a3565b634e487b7160e01b5f52603260045260245ffd5b9092506020813d602011610c5b575b81610c4b60209383611f04565b8101031261023057519188610c0e565b3d9150610c3e565b513d5f823e3d90fd5b610c8e915060203d602011610c94575b610c868183611f04565b810190611fb9565b88610904565b503d610c7c565b60405162461bcd60e51b815260206004820152602960248201527f4e6f7420656e6f75676820746f6b656e7320617661696c61626c6520696e20746044820152681a1a5cc81c9bdd5b9960ba1b6064820152608490fd5b634e487b7160e01b5f52601160045260245ffd5b60405162461bcd60e51b8152602060048201526014602482015273125b9d985b1a59081d1bdad95b88185b5bdd5b9d60621b6044820152606490fd5b506032831115610880565b60405162461bcd60e51b815260206004820152601c60248201527b125b9d995cdd1b595b9d081c195c9a5bd9081a185cc818db1bdcd95960221b6044820152606490fd5b60405162461bcd60e51b8152602060048201526013602482015272526f756e64206973206e6f742061637469766560681b6044820152606490fd5b63d93c066560e01b5f5260045ffd5b3461023057610de936611f4b565b6003546001600160a01b03163303610f67578015610f3157815f526004602052610e1f60ff600860405f20015460081c16611f76565b815f52600a6020528060405f205410610ef157610e826020915f938452600a835260408420610e4f8282546120ce565b905560025460405163095ea7b360e01b815294859360089290921c6001600160a01b031692849283913360048401611fd1565b03925af1908115610b58575f91610ed2575b5015610e9c57005b60405162461bcd60e51b815260206004820152600e60248201526d105c1c1c9bdd994819985a5b195960921b6044820152606490fd5b610eeb915060203d602011610c9457610c868183611f04565b81610e94565b60405162461bcd60e51b8152602060048201526018602482015277125b9cdd59999a58da595b9d081c995dd85c99081c1bdbdb60421b6044820152606490fd5b60405162461bcd60e51b815260206004820152600e60248201526d125b9d985b1a5908185b5bdd5b9d60921b6044820152606490fd5b60405162461bcd60e51b815260206004820152602d60248201527f4f6e6c7920617574686f72697a656420636c61696d7320636f6e74726163742060448201526c63616e2063616c6c207468697360981b6064820152608490fd5b34610230575f366003190112610230576002546040516370a0823160e01b8152306004820152906020908290602490829060081c6001600160a01b03165afa8015610b58575f90611019575b602090604051908152f35b506020813d602011611044575b8161103360209383611f04565b81010312610230576020905161100e565b3d9150611026565b34610230575f36600319011261023057602060405160328152f35b34610230576020366003190112610230576001600160a01b03611088611eb6565b165f52600660205260405f206040519081602082549182815201915f5260205f20905f5b8181106110d3576110cf856110c381870382611f04565b60405191829182611e67565b0390f35b82548452602090930192600192830192016110ac565b34610230575f366003190112610230576040517f00000000000000000000000000000000000000000000000000000000000000006001600160a01b03168152602090f35b3461023057606036600319011261023057602435600435604435801515810361023057611158612131565b815f52600460205261117660ff600860405f20015460081c16611f76565b61118183151561202f565b156111a0575f52600860205261119c60405f2091825461207b565b9055005b805f5260086020528160405f2054106111c9575f52600860205261119c60405f209182546120ce565b60405162461bcd60e51b815260206004820152602160248201527f496e73756666696369656e7420726f756e64206c65646765722062616c616e636044820152606560f81b6064820152608490fd5b346102305761122636611f4b565b905f52600560205260405f208054821015610230576020916102a191611f61565b34610230576020366003190112610230576004355f52600a602052602060405f2054604051908152f35b34610230575f366003190112610230576020600c54604051908152f35b34610230575f3660031901126102305760025460405160089190911c6001600160a01b03168152602090f35b34610230576040366003190112610230576001600160a01b036112db611eb6565b165f52600b60205260405f206024355f52602052602060405f2054604051908152f35b3461023057604036600319011261023057611317611eb6565b6001600160a01b03165f90815260066020526040902080546024359190821015610230576020916102a191611f61565b34610230575f366003190112610230575f546040516001600160a01b039091168152602090f35b34610230575f366003190112610230576003546040516001600160a01b039091168152602090f35b34610230576040366003190112610230576113af611eb6565b6001600160a01b03165f90815260096020526040902080546024359190821015610230576020916102a191611f61565b346102305760403660031901126102305760043560243580151590818103610230577fdd8c33b779db77b877161fe300dfc92dc5b0d87c7e4199701eb25330a83e16f99161146d602092611431612131565b855f526004845261144e60ff600860405f20015460081c16611f76565b855f5260048452600860405f20019060ff801983541691151516179055565b604051908152a2005b346102305761148436611f4b565b61148c612131565b815f5260046020526114aa60ff600860405f20015460081c16611f76565b80156115a9576002545f91906020906114f09060081c6001600160a01b03166114d284612088565b6040519586809481936323b872dd60e01b83523033600485016120ac565b03925af1908115610b585761152f6040927f9795f222c951ae3e749f872dbe287f78d21fa52353e9175cb20ed3aa2b29b82b945f9161158a5750611fec565b61153881612088565b845f52600a60205261154e835f2091825461207b565b905561155981612088565b845f52600860205261156f835f2091825461207b565b9055835f52600a602052815f205482519182526020820152a2005b6115a3915060203d602011610c9457610c868183611f04565b86610904565b60405162461bcd60e51b8152602060048201526024808201527f52657761726420616d6f756e74206d75737420626520677265617465722074686044820152630616e20360e41b6064820152608490fd5b34610230575f36600319011261023057611612612131565b5f80546001600160a01b0319811682556001600160a01b03165f5160206121785f395f51905f528280a3005b3461023057602036600319011261023057611657611eb6565b61165f612131565b6001600160a01b031680156116b157600380546001600160a01b0319811683179091556001600160a01b03167ffe66ddef0f2a9c1d6f97182ba039017c769bd48d0d1ec0a3cc405c078f3c17f45f80a3005b60405162461bcd60e51b815260206004820152601f60248201527f496e76616c696420636c61696d7320636f6e74726163742061646472657373006044820152606490fd5b34610230576020366003190112610230576004355f52600460205260405f20805490600181019060405191825f82549261172f84611ecc565b808452936001811690811561183c57506001146117f8575b5061175492500383611f04565b60028101549060ff6003820154600483015460058401546006850154906007860154926008870154946117a787600a60098b01549a0154169a61018060206040519e8f90815201526101808d0190611f27565b9860408c015260608b015260808a015260a089015260c088015260e0870152818116151561010087015260081c161515610120850152610140840152600582101561053d5782916101608301520390f35b90505f9291925260205f20905f915b8183106118205750509060206117549282010186611747565b6020919350806001915483858901015201910190918492611807565b90506020925061175494915060ff191682840152151560051b82010186611747565b3461023057602036600319011261023057611877611eb6565b61187f612131565b6001600160a01b0381169081156118e45760028054610100600160a81b03198116600893841b610100600160a81b031617909155901c6001600160a01b03167f92852dbadca7e6fa4e0d5dd87891e6dd13f50a304561a86ea9d5a710b972e4495f80a3005b60405162461bcd60e51b815260206004820152601a602482015279496e76616c6964205553445420746f6b656e206164647265737360301b6044820152606490fd5b34610230576020366003190112610230576004355f526008602052602060405f2054604051908152f35b34610230575f36600319011261023057602060ff600254166040519015158152f35b34610230576020366003190112610230576004355f526005602052602060405f2054604051908152f35b34610230576020366003190112610230576001600160a01b036119bd611eb6565b165f52600960205260405f206040519081602082549182815201915f5260205f20905f5b8181106119f8576110cf856110c381870382611f04565b82548452602090930192600192830192016119e1565b34610230575f366003190112610230576020600d54604051908152f35b3461023057606036600319011261023057611a44611eb6565b60243560443591611a53612131565b6001600160a01b03168015611aab57815f526004602052611a8060ff600860405f20015460081c16611f76565b611a8b83151561202f565b5f52600b60205260405f20905f5260205261119c60405f2091825461207b565b60405162461bcd60e51b8152602060048201526014602482015273496e76616c69642075736572206164647265737360601b6044820152606490fd5b3461023057604036600319011261023057611b00611eb6565b60243590611b0c612131565b6001600160a01b03811615611c4157611b2682151561202f565b6002546040516370a0823160e01b815230600482015260089190911c6001600160a01b03169290602081602481875afa8015610b585782915f91611c0c575b5010611bcb57611b8f926020925f60405180968195829463a9059cbb60e01b845260048401611fd1565b03925af18015610b58576020915f91611bae575b506040519015158152f35b611bc59150823d8411610c9457610c868183611f04565b82611ba3565b60405162461bcd60e51b8152602060048201526019602482015278496e73756666696369656e7420555344542062616c616e636560381b6044820152606490fd5b9150506020813d602011611c39575b81611c2860209383611f04565b810103126102305781905185611b65565b3d9150611c1b565b60405162461bcd60e51b8152602060048201526019602482015278496e76616c696420726563697069656e74206164647265737360381b6044820152606490fd5b3461023057604036600319011261023057611c9b611ea0565b6004355f52600760205260405f209060018060a01b03165f5260205260405f206040519081602082549182815201915f5260205f20905f5b818110611cea576110cf856110c381870382611f04565b8254845260209093019260019283019201611cd3565b34610230576020366003190112610230576004355f52600560205260405f206040519081602082549182815201915f5260205f20905f5b818110611d4e576110cf856110c381870382611f04565b8254845260209093019260019283019201611d37565b3461023057602036600319011261023057600435611d80612131565b611d88612157565b805f526004602052611da660ff600860405f20015460081c16611f76565b5f8181526008602081815260408084208054908590556002548554925163a9059cbb60e01b8152959394869491901c6001600160a01b039081169385938492611df3921660048401611fd1565b03925af18015610b5857611e0d915f91611e2e5750611fec565b5f908152600460205260409020600a01805460ff1916600317905560018055005b611e47915060203d602011610c9457610c868183611f04565b83610904565b34610230575f36600319011261023057602090600e548152f35b60206040818301928281528451809452019201905f5b818110611e8a5750505090565b8251845260209384019390920191600101611e7d565b602435906001600160a01b038216820361023057565b600435906001600160a01b038216820361023057565b90600182811c92168015611efa575b6020831014611ee657565b634e487b7160e01b5f52602260045260245ffd5b91607f1691611edb565b601f909101601f19168101906001600160401b0382119082101761061257604052565b805180835260209291819084018484015e5f828201840152601f01601f1916010190565b6040906003190112610230576004359060243590565b8054821015610c1b575f5260205f2001905f90565b15611f7d57565b60405162461bcd60e51b8152602060048201526014602482015273149bdd5b9908191bd95cc81b9bdd08195e1a5cdd60621b6044820152606490fd5b90816020910312610230575180151581036102305790565b6001600160a01b039091168152602081019190915260400190565b15611ff357565b60405162461bcd60e51b81526020600482015260146024820152731554d115081d1c985b9cd9995c8819985a5b195960621b6044820152606490fd5b1561203657565b60405162461bcd60e51b815260206004820152601d60248201527f416d6f756e74206d7573742062652067726561746572207468616e20300000006044820152606490fd5b91908201809211610cf257565b90670de0b6b3a7640000820291808304670de0b6b3a76400001490151715610cf257565b6001600160a01b03918216815291166020820152604081019190915260600190565b91908203918211610cf257565b8051821015610c1b5760209160051b010190565b8054600160401b8110156106125761210c91600182018155611f61565b819291549060031b91821b915f19901b1916179055565b5f198114610cf25760010190565b5f546001600160a01b0316330361214457565b63118cdaa760e01b5f523360045260245ffd5b600260015414612168576002600155565b633ee5aeb560e01b5f5260045ffdfe8be0079c531659141344cd1fd0a4f28419497f9722a3daafe3b4186f6b6457e0a2646970667358221220925e98b69619a154796eb11e8834d7fdf4d7e63fc78ecc6fcd53465fa048009c64736f6c634300081c0033",
  "linkReferences": {},
  "deployedLinkReferences": {},
  "immutableReferences": {
    "9580": [
      {
        "length": 32,
        "start": 2417
      },
      {
        "length": 32,
        "start": 3037
      },
      {
        "length": 32,
        "start": 4350
      }
    ]
  },
  "inputSourceName": "project/contracts/FundRaisingCore.sol",
  "buildInfoId": "solc-0_8_28-cea8ee7a133c0289a091bcc9f1729e02566979d2"
}