{
  "_format": "hh3-artifact-1",
  "contractName": "FundRaisingContractNFT",
  "sourceName": "contracts/FundRaisingContractNFT.sol",
  "abi": [
    {
      "inputs": [
        {
          "internalType": "address",
          "name": "_dzNFT",
          "type": "address"
        },
        {
          "internalType": "address",
          "name": "_usdtToken",
          "type": "address"
        }
      ],
      "stateMutability": "nonpayable",
      "type": "constructor"
    },
    {
      "inputs": [],
      "name": "EnforcedPause",
      "type": "error"
    },
    {
      "inputs": [],
      "name": "ExpectedPause",
      "type": "error"
    },
    {
      "inputs": [
        {
          "internalType": "address",
          "name": "owner",
          "type": "address"
        }
      ],
      "name": "OwnableInvalidOwner",
      "type": "error"
    },
    {
      "inputs": [
        {
          "internalType": "address",
          "name": "account",
          "type": "address"
        }
      ],
      "name": "OwnableUnauthorizedAccount",
      "type": "error"
    },
    {
      "inputs": [],
      "name": "ReentrancyGuardReentrantCall",
      "type": "error"
    },
    {
      "anonymous": false,
      "inputs": [
        {
          "indexed": true,
          "internalType": "uint256",
          "name": "tokenId",
          "type": "uint256"
        },
        {
          "indexed": true,
          "internalType": "address",
          "name": "investor",
          "type": "address"
        },
        {
          "indexed": false,
          "internalType": "uint256",
          "name": "rewardAmount",
          "type": "uint256"
        }
      ],
      "name": "EarlyRewardClaimed",
      "type": "event"
    },
    {
      "anonymous": false,
      "inputs": [
        {
          "indexed": true,
          "internalType": "uint256",
          "name": "roundId",
          "type": "uint256"
        },
        {
          "indexed": true,
          "internalType": "uint256",
          "name": "tokenId",
          "type": "uint256"
        },
        {
          "indexed": true,
          "internalType": "address",
          "name": "investor",
          "type": "address"
        },
        {
          "indexed": false,
          "internalType": "uint256",
          "name": "amountUSDT",
          "type": "uint256"
        },
        {
          "indexed": false,
          "internalType": "uint256",
          "name": "tokensReceived",
          "type": "uint256"
        }
      ],
      "name": "InvestmentMade",
      "type": "event"
    },
    {
      "anonymous": false,
      "inputs": [
        {
          "indexed": true,
          "internalType": "address",
          "name": "previousOwner",
          "type": "address"
        },
        {
          "indexed": true,
          "internalType": "address",
          "name": "newOwner",
          "type": "address"
        }
      ],
      "name": "OwnershipTransferred",
      "type": "event"
    },
    {
      "anonymous": false,
      "inputs": [
        {
          "indexed": false,
          "internalType": "address",
          "name": "account",
          "type": "address"
        }
      ],
      "name": "Paused",
      "type": "event"
    },
    {
      "anonymous": false,
      "inputs": [
        {
          "indexed": true,
          "internalType": "uint256",
          "name": "tokenId",
          "type": "uint256"
        },
        {
          "indexed": true,
          "internalType": "address",
          "name": "investor",
          "type": "address"
        },
        {
          "indexed": false,
          "internalType": "uint256",
          "name": "payout",
          "type": "uint256"
        }
      ],
      "name": "RedemptionMade",
      "type": "event"
    },
    {
      "anonymous": false,
      "inputs": [
        {
          "indexed": true,
          "internalType": "uint256",
          "name": "roundId",
          "type": "uint256"
        },
        {
          "indexed": false,
          "internalType": "uint256",
          "name": "amount",
          "type": "uint256"
        },
        {
          "indexed": false,
          "internalType": "uint256",
          "name": "totalPoolAmount",
          "type": "uint256"
        }
      ],
      "name": "RewardAdded",
      "type": "event"
    },
    {
      "anonymous": false,
      "inputs": [
        {
          "indexed": true,
          "internalType": "address",
          "name": "investor",
          "type": "address"
        },
        {
          "indexed": false,
          "internalType": "uint256",
          "name": "totalClaimable",
          "type": "uint256"
        },
        {
          "indexed": false,
          "internalType": "uint256",
          "name": "nftCount",
          "type": "uint256"
        },
        {
          "indexed": false,
          "internalType": "uint256[]",
          "name": "roundIds",
          "type": "uint256[]"
        }
      ],
      "name": "RewardDistributionCalculated",
      "type": "event"
    },
    {
      "anonymous": false,
      "inputs": [
        {
          "indexed": true,
          "internalType": "address",
          "name": "investor",
          "type": "address"
        },
        {
          "indexed": false,
          "internalType": "uint256",
          "name": "totalAmount",
          "type": "uint256"
        },
        {
          "indexed": false,
          "internalType": "uint256[]",
          "name": "roundIds",
          "type": "uint256[]"
        },
        {
          "indexed": false,
          "internalType": "uint256[]",
          "name": "amounts",
          "type": "uint256[]"
        },
        {
          "indexed": false,
          "internalType": "uint256[]",
          "name": "tokenIds",
          "type": "uint256[]"
        }
      ],
      "name": "RewardsClaimed",
      "type": "event"
    },
    {
      "anonymous": false,
      "inputs": [
        {
          "indexed": true,
          "internalType": "uint256",
          "name": "roundId",
          "type": "uint256"
        },
        {
          "indexed": false,
          "internalType": "string",
          "name": "roundName",
          "type": "string"
        },
        {
          "indexed": false,
          "internalType": "uint256",
          "name": "tokenPrice",
          "type": "uint256"
        },
        {
          "indexed": false,
          "internalType": "uint256",
          "name": "rewardPercentage",
          "type": "uint256"
        },
        {
          "indexed": false,
          "internalType": "uint256",
          "name": "totalTokenOpenInvestment",
          "type": "uint256"
        },
        {
          "indexed": false,
          "internalType": "uint256",
          "name": "closeDateInvestment",
          "type": "uint256"
        },
        {
          "indexed": false,
          "internalType": "uint256",
          "name": "endDateInvestment",
          "type": "uint256"
        }
      ],
      "name": "RoundCreated",
      "type": "event"
    },
    {
      "anonymous": false,
      "inputs": [
        {
          "indexed": true,
          "internalType": "uint256",
          "name": "roundId",
          "type": "uint256"
        },
        {
          "indexed": false,
          "internalType": "uint256",
          "name": "amount",
          "type": "uint256"
        }
      ],
      "name": "RoundEmergencyWithdraw",
      "type": "event"
    },
    {
      "anonymous": false,
      "inputs": [
        {
          "indexed": true,
          "internalType": "uint256",
          "name": "roundId",
          "type": "uint256"
        },
        {
          "indexed": false,
          "internalType": "uint256",
          "name": "amount",
          "type": "uint256"
        }
      ],
      "name": "RoundFunded",
      "type": "event"
    },
    {
      "anonymous": false,
      "inputs": [
        {
          "indexed": true,
          "internalType": "uint256",
          "name": "roundId",
          "type": "uint256"
        },
        {
          "indexed": false,
          "internalType": "bool",
          "name": "isActive",
          "type": "bool"
        }
      ],
      "name": "RoundStatusChanged",
      "type": "event"
    },
    {
      "anonymous": false,
      "inputs": [
        {
          "indexed": true,
          "internalType": "uint256",
          "name": "roundId",
          "type": "uint256"
        },
        {
          "indexed": false,
          "internalType": "enum FundRaisingContractNFT.Status",
          "name": "oldStatus",
          "type": "uint8"
        },
        {
          "indexed": false,
          "internalType": "enum FundRaisingContractNFT.Status",
          "name": "newStatus",
          "type": "uint8"
        }
      ],
      "name": "RoundStatusUpdated",
      "type": "event"
    },
    {
      "anonymous": false,
      "inputs": [
        {
          "indexed": true,
          "internalType": "address",
          "name": "oldToken",
          "type": "address"
        },
        {
          "indexed": true,
          "internalType": "address",
          "name": "newToken",
          "type": "address"
        }
      ],
      "name": "USDTTokenUpdated",
      "type": "event"
    },
    {
      "anonymous": false,
      "inputs": [
        {
          "indexed": false,
          "internalType": "address",
          "name": "account",
          "type": "address"
        }
      ],
      "name": "Unpaused",
      "type": "event"
    },
    {
      "inputs": [],
      "name": "MAX_BATCH_CLAIM",
      "outputs": [
        {
          "internalType": "uint256",
          "name": "",
          "type": "uint256"
        }
      ],
      "stateMutability": "view",
      "type": "function"
    },
    {
      "inputs": [],
      "name": "MAX_TOKENS_PER_INVESTMENT",
      "outputs": [
        {
          "internalType": "uint256",
          "name": "",
          "type": "uint256"
        }
      ],
      "stateMutability": "view",
      "type": "function"
    },
    {
      "inputs": [],
      "name": "USDT_DECIMALS",
      "outputs": [
        {
          "internalType": "uint256",
          "name": "",
          "type": "uint256"
        }
      ],
      "stateMutability": "view",
      "type": "function"
    },
    {
      "inputs": [],
      "name": "_nextRoundId",
      "outputs": [
        {
          "internalType": "uint256",
          "name": "",
          "type": "uint256"
        }
      ],
      "stateMutability": "view",
      "type": "function"
    },
    {
      "inputs": [
        {
          "internalType": "uint256",
          "name": "roundId",
          "type": "uint256"
        },
        {
          "internalType": "uint256",
          "name": "amount",
          "type": "uint256"
        }
      ],
      "name": "addRewardToRound",
      "outputs": [],
      "stateMutability": "nonpayable",
      "type": "function"
    },
    {
      "inputs": [
        {
          "internalType": "uint256",
          "name": "roundId",
          "type": "uint256"
        }
      ],
      "name": "claimRewardRound",
      "outputs": [],
      "stateMutability": "nonpayable",
      "type": "function"
    },
    {
      "inputs": [
        {
          "internalType": "string",
          "name": "roundName",
          "type": "string"
        },
        {
          "internalType": "uint256",
          "name": "tokenPrice",
          "type": "uint256"
        },
        {
          "internalType": "uint256",
          "name": "rewardPercentage",
          "type": "uint256"
        },
        {
          "internalType": "uint256",
          "name": "totalTokenOpenInvestment",
          "type": "uint256"
        },
        {
          "internalType": "uint256",
          "name": "closeDateInvestment",
          "type": "uint256"
        },
        {
          "internalType": "uint256",
          "name": "endDateInvestment",
          "type": "uint256"
        }
      ],
      "name": "createInvestmentRound",
      "outputs": [
        {
          "internalType": "uint256",
          "name": "",
          "type": "uint256"
        }
      ],
      "stateMutability": "nonpayable",
      "type": "function"
    },
    {
      "inputs": [],
      "name": "dzNFT",
      "outputs": [
        {
          "internalType": "contract DZNFT",
          "name": "",
          "type": "address"
        }
      ],
      "stateMutability": "view",
      "type": "function"
    },
    {
      "inputs": [
        {
          "internalType": "uint256",
          "name": "amount",
          "type": "uint256"
        }
      ],
      "name": "emergencyWithdraw",
      "outputs": [],
      "stateMutability": "nonpayable",
      "type": "function"
    },
    {
      "inputs": [
        {
          "internalType": "uint256",
          "name": "roundId",
          "type": "uint256"
        },
        {
          "internalType": "uint256",
          "name": "amount",
          "type": "uint256"
        }
      ],
      "name": "emergencyWithdrawFromRound",
      "outputs": [],
      "stateMutability": "nonpayable",
      "type": "function"
    },
    {
      "inputs": [],
      "name": "getContractUSDTBalance",
      "outputs": [
        {
          "internalType": "uint256",
          "name": "",
          "type": "uint256"
        }
      ],
      "stateMutability": "view",
      "type": "function"
    },
    {
      "inputs": [
        {
          "internalType": "uint256",
          "name": "roundId",
          "type": "uint256"
        }
      ],
      "name": "getInvestmentRound",
      "outputs": [
        {
          "components": [
            {
              "internalType": "uint256",
              "name": "roundId",
              "type": "uint256"
            },
            {
              "internalType": "string",
              "name": "roundName",
              "type": "string"
            },
            {
              "internalType": "uint256",
              "name": "tokenPrice",
              "type": "uint256"
            },
            {
              "internalType": "uint256",
              "name": "rewardPercentage",
              "type": "uint256"
            },
            {
              "internalType": "uint256",
              "name": "totalTokenOpenInvestment",
              "type": "uint256"
            },
            {
              "internalType": "uint256",
              "name": "tokensSold",
              "type": "uint256"
            },
            {
              "internalType": "uint256",
              "name": "closeDateInvestment",
              "type": "uint256"
            },
            {
              "internalType": "uint256",
              "name": "endDateInvestment",
              "type": "uint256"
            },
            {
              "internalType": "bool",
              "name": "isActive",
              "type": "bool"
            },
            {
              "internalType": "bool",
              "name": "exists",
              "type": "bool"
            },
            {
              "internalType": "uint256",
              "name": "createdAt",
              "type": "uint256"
            },
            {
              "internalType": "enum FundRaisingContractNFT.Status",
              "name": "status",
              "type": "uint8"
            }
          ],
          "internalType": "struct FundRaisingContractNFT.InvestmentRound",
          "name": "",
          "type": "tuple"
        }
      ],
      "stateMutability": "view",
      "type": "function"
    },
    {
      "inputs": [
        {
          "internalType": "uint256",
          "name": "roundId",
          "type": "uint256"
        }
      ],
      "name": "getRoundInvestors",
      "outputs": [
        {
          "internalType": "address[]",
          "name": "investors",
          "type": "address[]"
        },
        {
          "internalType": "uint256[]",
          "name": "nftCounts",
          "type": "uint256[]"
        }
      ],
      "stateMutability": "view",
      "type": "function"
    },
    {
      "inputs": [
        {
          "internalType": "uint256",
          "name": "roundId",
          "type": "uint256"
        }
      ],
      "name": "getRoundStatus",
      "outputs": [
        {
          "internalType": "enum FundRaisingContractNFT.Status",
          "name": "status",
          "type": "uint8"
        }
      ],
      "stateMutability": "view",
      "type": "function"
    },
    {
      "inputs": [
        {
          "internalType": "uint256",
          "name": "roundId",
          "type": "uint256"
        }
      ],
      "name": "getRoundTokenIds",
      "outputs": [
        {
          "internalType": "uint256[]",
          "name": "",
          "type": "uint256[]"
        }
      ],
      "stateMutability": "view",
      "type": "function"
    },
    {
      "inputs": [
        {
          "internalType": "uint256",
          "name": "roundId",
          "type": "uint256"
        }
      ],
      "name": "getRoundUSDTBalance",
      "outputs": [
        {
          "internalType": "uint256",
          "name": "",
          "type": "uint256"
        }
      ],
      "stateMutability": "view",
      "type": "function"
    },
    {
      "inputs": [],
      "name": "getRoundsCount",
      "outputs": [
        {
          "internalType": "uint256",
          "name": "totalRounds",
          "type": "uint256"
        },
        {
          "internalType": "uint256",
          "name": "activeRounds",
          "type": "uint256"
        }
      ],
      "stateMutability": "view",
      "type": "function"
    },
    {
      "inputs": [],
      "name": "getUSDTTokenAddress",
      "outputs": [
        {
          "internalType": "address",
          "name": "",
          "type": "address"
        }
      ],
      "stateMutability": "view",
      "type": "function"
    },
    {
      "inputs": [
        {
          "internalType": "address",
          "name": "user",
          "type": "address"
        }
      ],
      "name": "getUserInvestments",
      "outputs": [
        {
          "internalType": "uint256[]",
          "name": "",
          "type": "uint256[]"
        }
      ],
      "stateMutability": "view",
      "type": "function"
    },
    {
      "inputs": [
        {
          "internalType": "uint256",
          "name": "roundId",
          "type": "uint256"
        },
        {
          "internalType": "address",
          "name": "user",
          "type": "address"
        }
      ],
      "name": "getUserNFTsInRound",
      "outputs": [
        {
          "internalType": "uint256[]",
          "name": "",
          "type": "uint256[]"
        }
      ],
      "stateMutability": "view",
      "type": "function"
    },
    {
      "inputs": [
        {
          "internalType": "uint256",
          "name": "roundId",
          "type": "uint256"
        },
        {
          "internalType": "uint256",
          "name": "tokenAmount",
          "type": "uint256"
        }
      ],
      "name": "investInRound",
      "outputs": [
        {
          "internalType": "uint256",
          "name": "",
          "type": "uint256"
        }
      ],
      "stateMutability": "nonpayable",
      "type": "function"
    },
    {
      "inputs": [
        {
          "internalType": "uint256",
          "name": "",
          "type": "uint256"
        }
      ],
      "name": "investmentRounds",
      "outputs": [
        {
          "internalType": "uint256",
          "name": "roundId",
          "type": "uint256"
        },
        {
          "internalType": "string",
          "name": "roundName",
          "type": "string"
        },
        {
          "internalType": "uint256",
          "name": "tokenPrice",
          "type": "uint256"
        },
        {
          "internalType": "uint256",
          "name": "rewardPercentage",
          "type": "uint256"
        },
        {
          "internalType": "uint256",
          "name": "totalTokenOpenInvestment",
          "type": "uint256"
        },
        {
          "internalType": "uint256",
          "name": "tokensSold",
          "type": "uint256"
        },
        {
          "internalType": "uint256",
          "name": "closeDateInvestment",
          "type": "uint256"
        },
        {
          "internalType": "uint256",
          "name": "endDateInvestment",
          "type": "uint256"
        },
        {
          "internalType": "bool",
          "name": "isActive",
          "type": "bool"
        },
        {
          "internalType": "bool",
          "name": "exists",
          "type": "bool"
        },
        {
          "internalType": "uint256",
          "name": "createdAt",
          "type": "uint256"
        },
        {
          "internalType": "enum FundRaisingContractNFT.Status",
          "name": "status",
          "type": "uint8"
        }
      ],
      "stateMutability": "view",
      "type": "function"
    },
    {
      "inputs": [],
      "name": "owner",
      "outputs": [
        {
          "internalType": "address",
          "name": "",
          "type": "address"
        }
      ],
      "stateMutability": "view",
      "type": "function"
    },
    {
      "inputs": [],
      "name": "pause",
      "outputs": [],
      "stateMutability": "nonpayable",
      "type": "function"
    },
    {
      "inputs": [],
      "name": "paused",
      "outputs": [
        {
          "internalType": "bool",
          "name": "",
          "type": "bool"
        }
      ],
      "stateMutability": "view",
      "type": "function"
    },
    {
      "inputs": [],
      "name": "renounceOwnership",
      "outputs": [],
      "stateMutability": "nonpayable",
      "type": "function"
    },
    {
      "inputs": [
        {
          "internalType": "uint256",
          "name": "",
          "type": "uint256"
        },
        {
          "internalType": "uint256",
          "name": "",
          "type": "uint256"
        }
      ],
      "name": "rewardClaimHistory",
      "outputs": [
        {
          "internalType": "uint256",
          "name": "",
          "type": "uint256"
        }
      ],
      "stateMutability": "view",
      "type": "function"
    },
    {
      "inputs": [
        {
          "internalType": "uint256",
          "name": "",
          "type": "uint256"
        }
      ],
      "name": "roundLedger",
      "outputs": [
        {
          "internalType": "uint256",
          "name": "",
          "type": "uint256"
        }
      ],
      "stateMutability": "view",
      "type": "function"
    },
    {
      "inputs": [
        {
          "internalType": "uint256",
          "name": "",
          "type": "uint256"
        }
      ],
      "name": "roundRewardPerNFT",
      "outputs": [
        {
          "internalType": "uint256",
          "name": "",
          "type": "uint256"
        }
      ],
      "stateMutability": "view",
      "type": "function"
    },
    {
      "inputs": [
        {
          "internalType": "uint256",
          "name": "",
          "type": "uint256"
        }
      ],
      "name": "roundRewardPool",
      "outputs": [
        {
          "internalType": "uint256",
          "name": "",
          "type": "uint256"
        }
      ],
      "stateMutability": "view",
      "type": "function"
    },
    {
      "inputs": [
        {
          "internalType": "uint256",
          "name": "",
          "type": "uint256"
        },
        {
          "internalType": "uint256",
          "name": "",
          "type": "uint256"
        }
      ],
      "name": "roundTokenIds",
      "outputs": [
        {
          "internalType": "uint256",
          "name": "",
          "type": "uint256"
        }
      ],
      "stateMutability": "view",
      "type": "function"
    },
    {
      "inputs": [
        {
          "internalType": "uint256",
          "name": "roundId",
          "type": "uint256"
        },
        {
          "internalType": "bool",
          "name": "active",
          "type": "bool"
        }
      ],
      "name": "setRoundActive",
      "outputs": [],
      "stateMutability": "nonpayable",
      "type": "function"
    },
    {
      "inputs": [
        {
          "internalType": "address",
          "name": "newUSDTToken",
          "type": "address"
        }
      ],
      "name": "setUSDTToken",
      "outputs": [],
      "stateMutability": "nonpayable",
      "type": "function"
    },
    {
      "inputs": [],
      "name": "totalRoundsCreated",
      "outputs": [
        {
          "internalType": "uint256",
          "name": "",
          "type": "uint256"
        }
      ],
      "stateMutability": "view",
      "type": "function"
    },
    {
      "inputs": [],
      "name": "totalUSDTRaised",
      "outputs": [
        {
          "internalType": "uint256",
          "name": "",
          "type": "uint256"
        }
      ],
      "stateMutability": "view",
      "type": "function"
    },
    {
      "inputs": [
        {
          "internalType": "address",
          "name": "",
          "type": "address"
        }
      ],
      "name": "totalUserRewardsClaimed",
      "outputs": [
        {
          "internalType": "uint256",
          "name": "",
          "type": "uint256"
        }
      ],
      "stateMutability": "view",
      "type": "function"
    },
    {
      "inputs": [
        {
          "internalType": "address",
          "name": "newOwner",
          "type": "address"
        }
      ],
      "name": "transferOwnership",
      "outputs": [],
      "stateMutability": "nonpayable",
      "type": "function"
    },
    {
      "inputs": [],
      "name": "unpause",
      "outputs": [],
      "stateMutability": "nonpayable",
      "type": "function"
    },
    {
      "inputs": [
        {
          "internalType": "uint256",
          "name": "roundId",
          "type": "uint256"
        },
        {
          "internalType": "enum FundRaisingContractNFT.Status",
          "name": "status",
          "type": "uint8"
        }
      ],
      "name": "updateStatus",
      "outputs": [],
      "stateMutability": "nonpayable",
      "type": "function"
    },
    {
      "inputs": [],
      "name": "usdtToken",
      "outputs": [
        {
          "internalType": "contract IERC20",
          "name": "",
          "type": "address"
        }
      ],
      "stateMutability": "view",
      "type": "function"
    },
    {
      "inputs": [
        {
          "internalType": "address",
          "name": "",
          "type": "address"
        },
        {
          "internalType": "uint256",
          "name": "",
          "type": "uint256"
        }
      ],
      "name": "userClaimedRewards",
      "outputs": [
        {
          "internalType": "uint256",
          "name": "",
          "type": "uint256"
        }
      ],
      "stateMutability": "view",
      "type": "function"
    },
    {
      "inputs": [
        {
          "internalType": "address",
          "name": "",
          "type": "address"
        },
        {
          "internalType": "uint256",
          "name": "",
          "type": "uint256"
        }
      ],
      "name": "userInvestments",
      "outputs": [
        {
          "internalType": "uint256",
          "name": "",
          "type": "uint256"
        }
      ],
      "stateMutability": "view",
      "type": "function"
    },
    {
      "inputs": [
        {
          "internalType": "uint256",
          "name": "",
          "type": "uint256"
        },
        {
          "internalType": "address",
          "name": "",
          "type": "address"
        },
        {
          "internalType": "uint256",
          "name": "",
          "type": "uint256"
        }
      ],
      "name": "userNFTsInRound",
      "outputs": [
        {
          "internalType": "uint256",
          "name": "",
          "type": "uint256"
        }
      ],
      "stateMutability": "view",
      "type": "function"
    },
    {
      "inputs": [
        {
          "internalType": "address",
          "name": "",
          "type": "address"
        },
        {
          "internalType": "uint256",
          "name": "",
          "type": "uint256"
        }
      ],
      "name": "userRewardClaimHistory",
      "outputs": [
        {
          "internalType": "uint256",
          "name": "",
          "type": "uint256"
        }
      ],
      "stateMutability": "view",
      "type": "function"
    },
    {
      "inputs": [
        {
          "internalType": "uint256",
          "name": "roundId",
          "type": "uint256"
        }
      ],
      "name": "withdrawFund",
      "outputs": [],
      "stateMutability": "nonpayable",
      "type": "function"
    }
  ],
  "bytecode": "0x60a0346101bb57601f61352838819003918201601f19168301916001600160401b038311848410176101bf5780849260409485528339810103126101bb57610052602061004b836101d3565b92016101d3565b9033156101a8575f8054336001600160a01b0319821681178355604051939290916001600160a01b0316907f8be0079c531659141344cd1fd0a4f28419497f9722a3daafe3b4186f6b6457e09080a3600180556001600160a01b031690811561016657506001600160a01b038216156101215760805260028054610100600160a81b03191660089290921b610100600160a81b031691909117905560405161334090816101e88239608051818181610a1101528181610c630152818161102e015281816118dc01526124670152f35b60405162461bcd60e51b815260206004820152601460248201527f496e76616c6964205553445420616464726573730000000000000000000000006044820152606490fd5b62461bcd60e51b815260206004820152601560248201527f496e76616c696420445a4e4654206164647265737300000000000000000000006044820152606490fd5b631e4fbdf760e01b5f525f60045260245ffd5b5f80fd5b634e487b7160e01b5f52604160045260245ffd5b51906001600160a01b03821682036101bb5756fe6080806040526004361015610012575f80fd5b5f3560e01c90816308c89b6d14612c74575080630cee172514612b795780631086bfdc14612b245780631144e79e14612b095780631470e87d146112e0578063161f662214612a8757806318f38da2146129ea57806330814b1b146129cd5780633a1b3d31146129275780633f4ba83a146128c1578063464687631461265d5780634cadabdc146123e55780635312ea8e1461228a5780635c975abb146122685780635e21b3ea1461223e5780635eeea32014612206578063632d45eb146121dc57806366e226bd146120c9578063676045511461183757806369fbd3cc1461176c578063715018a614611728578063760ca4f41461153857806379b2c17a146114a15780638456cb59146114485780638da5cb5b146114215780639244adcd146113d857806393b58d8114611394578063a09686c41461130c578063a98ad46c146112e0578063b0eff316146112c3578063b175b32f14611299578063b201c0c31461126a578063b4ad7d3a14611222578063b82e4fc31461105d578063bf32eb0114611019578063c52c5c8814610f8f578063c6f8341814610f74578063c79bbd4914610f2b578063c8f7604014610ea1578063df8493b014610886578063e96d87b41461032c578063ef1b92a4146102da578063ef2cfd1a146102bf578063f2fde38b1461024d5763fc93f07c1461020b575f80fd5b346102495761021936612cfa565b905f52600c60205260405f2080548210156102495760209161023a91612e4b565b90549060031b1c604051908152f35b5f80fd5b3461024957602036600319011261024957610266612ce4565b61026e613269565b6001600160a01b031680156102ac575f80546001600160a01b03198116831782556001600160a01b0316905f5160206132cb5f395f51905f529080a3005b631e4fbdf760e01b5f525f60045260245ffd5b34610249575f36600319011261024957602060405160128152f35b34610249576060366003190112610249576102f3612cce565b604435906004355f52600660205260405f209060018060a01b03165f5260205260405f2080548210156102495760209161023a91612e4b565b346102495760c0366003190112610249576004356001600160401b038111610249573660238201121561024957806004013561036781612e74565b916103756040519384612d64565b818352366024838301011161024957815f926024602093018386013783010152608435906064356024356103a7613269565b825115610844578015610800576044351515806107f2575b156107a1578115610750574284111561070c578360a43511156106bd57600e54926103e984613132565b600e556103f582613184565b9060405161040281612d48565b8581526020810192828452604082015260443560608201528460808201525f60a08201528660c082015260a43560e082015260016101008201526001610120820152426101408201525f610160820152855f52600360205260405f2092815184555180519060018060401b0382116106a9576104816001860154612d10565b601f8111610665575b50602090601f83116001146105f6576101609392915f91836105eb575b50508160011b915f199060031b1c19161760018501555b60408101516002850155606081015160038501556080810151600485015560a0810151600585015560c0810151600685015560e081015160078501556008840161051b6101008301511515829060ff801983541691151516179055565b610120820151815461ff00191690151560081b61ff0016179055610140810151600985015501519360058510156105d7576020966105987f068fdde760e5730532959669855b5a6f20cb96e8685d2d1330a83d3a6fad0bbb956105858998600a6105ad9801612f3d565b610590600f54613132565b600f55613184565b9160405194859460c0865260c0860190612e27565b928985015260443560408501526060840152608083015260a43560a08301520390a2604051908152f35b634e487b7160e01b5f52602160045260245ffd5b015190508a806104a7565b90600186015f52805f20915f5b601f198516811061064d57509183916001936101609695601f19811610610635575b505050811b0160018501556104be565b01515f1960f88460031b161c191690558a8080610625565b91926020600181928685015181550194019201610603565b600186015f5260205f20601f840160051c8101602085106106a2575b601f830160051c8201811061069757505061048a565b5f8155600101610681565b5080610681565b634e487b7160e01b5f52604160045260245ffd5b60405162461bcd60e51b815260206004820152602160248201527f456e642064617465206d75737420626520616674657220636c6f7365206461746044820152606560f81b6064820152608490fd5b60405162461bcd60e51b815260206004820152601c60248201527b436c6f73652064617465206d75737420626520696e2066757475726560201b6044820152606490fd5b60405162461bcd60e51b815260206004820152602360248201527f546f74616c20746f6b656e73206d75737420626520677265617465722074686160448201526206e20360ec1b6064820152608490fd5b60405162461bcd60e51b815260206004820152602360248201527f496e76616c6964207265776172642070657263656e746167652028302d31303060448201526230302960e81b6064820152608490fd5b5061271060443511156103bf565b60405162461bcd60e51b815260206004820152601c60248201527b05072696365206d7573742062652067726561746572207468616e20360241b6044820152606490fd5b60405162461bcd60e51b815260206004820152601a602482015279526f756e64206e616d652063616e6e6f7420626520656d70747960301b6044820152606490fd5b346102495761089436612cfa565b61089c61328f565b6108a46132af565b815f5260036020526108c260ff600860405f20015460081c16612e8f565b815f52600360205260ff600860405f2001541615610e6657815f5260036020526108f5600660405f2001544211156131ea565b815f52600360205261090f600660405f20015442106131ea565b8015610e155760648111610db357815f52600360205260405f2090600282019261093a8454836131a8565b918215610d755760058401946109518287546131dd565b600486015410610d1e576002546040516323b872dd60e01b815290602090829060081c6001600160a01b0316815f8161098f8b3033600485016131bb565b03925af18015610bef575f90610ce3575b6109aa9150612efa565b54936003810154906007600682015491015490600184115f14610bfa57604051632fdc968f60e21b81523360048201526024810185905260448101869052606481018890526084810193909352600160a484015260c483015260e48201525f8161010481837f00000000000000000000000000000000000000000000000000000000000000006001600160a01b03165af1908115610bef575f91610b5f575b50935b825f52600460205260405f2090335f52600560205260405f20845f52600660205260405f2060018060a01b0333165f5260205260405f20905f5b858110610adb576020610ace8a8a8a8e610aa18c82546131dd565b9055610aaf826010546131dd565b6010555f5260078452610ac760405f209182546131dd565b9055612fbf565b5160018055604051908152f35b80610af2610aeb6001938c612fcc565b5187613235565b610b06610aff828c612fcc565b5184613235565b610b1a610b13828c612fcc565b5185613235565b610b24818b612fcc565b5160405190868252836020830152897f30a6facb9fa9a18999d5ff7f2ce5641caca8d5f45c8ff24bced9833614b8e88060403394a401610a86565b90503d805f833e610b708183612d64565b810190602081830312610249578051906001600160401b03821161024957019080601f83011215610249578151610ba681612f76565b92610bb46040519485612d64565b81845260208085019260051b82010192831161024957602001905b828210610bdf5750505086610a49565b8151815260209182019101610bcf565b6040513d5f823e3d90fd5b959190604091825191610c0d8484612d64565b60018352601f198401366020850137829884519263f4fb815960e01b845233600485015288602485015286604485015260648401526001608484015260a483015260c482015260208160e4815f60018060a01b037f0000000000000000000000000000000000000000000000000000000000000000165af1928315610cda57505f92610ca4575b50610c9e90612fbf565b52610a4c565b9091506020813d602011610cd2575b81610cc060209383612d64565b81010312610249575190610c9e610c94565b3d9150610cb3565b513d5f823e3d90fd5b506020813d602011610d16575b81610cfd60209383612d64565b8101031261024957610d116109aa91612ed2565b6109a0565b3d9150610cf0565b60405162461bcd60e51b815260206004820152602960248201527f4e6f7420656e6f75676820746f6b656e7320617661696c61626c6520696e20746044820152681a1a5cc81c9bdd5b9960ba1b6064820152608490fd5b60405162461bcd60e51b8152602060048201526016602482015275151bdad95b88185b5bdd5b9d081d1bdbc81cdb585b1b60521b6044820152606490fd5b60405162461bcd60e51b815260206004820152603460248201527f546f6b656e20616d6f756e742065786365656473206d6178696d756d20616c6c60448201527337bbb2b2103832b9103a3930b739b0b1ba34b7b760611b6064820152608490fd5b60405162461bcd60e51b815260206004820152602360248201527f546f6b656e20616d6f756e74206d75737420626520677265617465722074686160448201526206e20360ec1b6064820152608490fd5b60405162461bcd60e51b8152602060048201526013602482015272526f756e64206973206e6f742061637469766560681b6044820152606490fd5b34610249575f366003190112610249576002546040516370a0823160e01b8152306004820152906020908290602490829060081c6001600160a01b03165afa8015610bef575f90610ef8575b602090604051908152f35b506020813d602011610f23575b81610f1260209383612d64565b810103126102495760209051610eed565b3d9150610f05565b3461024957604036600319011261024957610f44612ce4565b6001600160a01b03165f908152600d60205260409020805460243591908210156102495760209161023a91612e4b565b34610249575f36600319011261024957602060405160648152f35b34610249576020366003190112610249576001600160a01b03610fb0612ce4565b165f52600560205260405f206040519081602082549182815201915f5260205f20905f5b81811061100357610fff85610feb81870382612d64565b604051918291602083526020830190612c9b565b0390f35b8254845260209093019260019283019201610fd4565b34610249575f366003190112610249576040517f00000000000000000000000000000000000000000000000000000000000000006001600160a01b03168152602090f35b34610249576020366003190112610249576004355f61016060405161108181612d48565b828152606060208201528260408201528260608201528260808201528260a08201528260c08201528260e08201528261010082015282610120820152826101408201520152805f5260036020526110e460ff600860405f20015460081c16612e8f565b5f52600360205260405f206040516110fb81612d48565b8154815261110b60018301612d87565b90602081019182526002830154906040810191825260038401546060820190815260048501549460808301958652600581015460a0840190815260068201549060c08501918252600783015460e0860190815260088401549261010087019260ff85161515845260ff61012089019560081c161515855260ff600a6009880154976101408b019889520154169a61016089019760058d10156105d7576111d7610fff9a6101a09e8b526040519e8f9e8f9260208452516020840152519161018060408201520190612e27565b9a5160608d01525160808c01525160a08b01525160c08a01525160e0890152516101008801525115156101208701525115156101408601525161016085015251610180840190612c8e565b3461024957602036600319011261024957600435805f52600360205261125460ff600860405f20015460081c16612e8f565b5f526007602052602060405f2054604051908152f35b346102495761127836612cfa565b905f52600460205260405f2080548210156102495760209161023a91612e4b565b34610249576020366003190112610249576004355f526008602052602060405f2054604051908152f35b34610249575f366003190112610249576020600e54604051908152f35b34610249575f3660031901126102495760025460405160089190911c6001600160a01b03168152602090f35b34610249575f36600319011261024957600f545f905f600e54905b81811061133e576040838582519182526020820152f35b805f52600360205260ff600860405f20015460081c168061137b575b611367575b600101611327565b92611373600191613132565b93905061135f565b50805f52600360205260ff600860405f2001541661135a565b34610249576040366003190112610249576001600160a01b036113b5612ce4565b165f52600a60205260405f206024355f52602052602060405f2054604051908152f35b34610249576040366003190112610249576113f1612ce4565b6001600160a01b03165f908152600560205260409020805460243591908210156102495760209161023a91612e4b565b34610249575f366003190112610249575f546040516001600160a01b039091168152602090f35b34610249575f36600319011261024957611460613269565b6114686132af565b600160ff1960025416176002557f62e78cea01bee320cd4e420270b5ea74000d11b0c9f74754ebdbfc544b05a2586020604051338152a1005b346102495760403660031901126102495760043560243580151590818103610249577fdd8c33b779db77b877161fe300dfc92dc5b0d87c7e4199701eb25330a83e16f99161152f6020926114f3613269565b855f526003845261151060ff600860405f20015460081c16612e8f565b855f5260038452600860405f20019060ff801983541691151516179055565b604051908152a2005b346102495761154636612cfa565b61154e613269565b815f52600360205261156c60ff600860405f20015460081c16612e8f565b80156116d7576002545f906020906115b19060081c6001600160a01b031661159385613184565b6040519485809481936323b872dd60e01b83523033600485016131bb565b03925af18015610bef575f9061169c575b6115cc9150612efa565b6115d581613184565b825f5260086020526115ec60405f209182546131dd565b90556115f781613184565b825f52600760205261160e60405f209182546131dd565b9055815f52600460205260405f20549081159061162b8215613140565b835f52600860205260405f205491611688577f9795f222c951ae3e749f872dbe287f78d21fa52353e9175cb20ed3aa2b29b82b9260409204845f526009602052825f2055835f526008602052815f205482519182526020820152a2005b634e487b7160e01b5f52601260045260245ffd5b506020813d6020116116cf575b816116b660209383612d64565b81010312610249576116ca6115cc91612ed2565b6115c2565b3d91506116a9565b60405162461bcd60e51b8152602060048201526024808201527f52657761726420616d6f756e74206d75737420626520677265617465722074686044820152630616e20360e41b6064820152608490fd5b34610249575f36600319011261024957611740613269565b5f80546001600160a01b0319811682556001600160a01b03165f5160206132cb5f395f51905f528280a3005b34610249576020366003190112610249576004355f52600360205261018060405f20805490610fff6117a060018301612d87565b60028301549260ff6003820154600483015460058401546006850154906007860154926008870154946117f087600a60098b01549a015416996040519e8f9e8f9081528160208201520190612e27565b9a60408d015260608c015260808b015260a08a015260c089015260e0880152818116151561010088015260081c161515610120860152610140850152610160840190612c8e565b346102495760203660031901126102495760043561185361328f565b61185b6132af565b805f52600360205261187960ff600860405f20015460081c16612e8f565b805f52600660205260405f2060018060a01b0333165f5260205260405f20604051808260208294549384815201905f5260205f20925f5b8181106120b05750506118c592500382612d64565b6118d181511515613140565b603281511161203b577f00000000000000000000000000000000000000000000000000000000000000006001600160a01b031691905f908190815b8151831015611ae15761191f8383612fcc565b51604051906331a9108f60e11b825260048201526020816024818a5afa908115610bef575f91611aa8575b50336001600160a01b0390911603611a9e576119668383612fcc565b519060405191634712f17360e11b835260048301525f826024818a5afa918215610bef575f92611a7a575b50610120820151611a6f576119aa60a083015142612f55565b62ed4e008110611a63576119c760808401516040850151906131a8565b926301e1338060646119dd6060840151876131a8565b049210611a2c576101400151600193611a15939092909115611a1f57611a0f92611a0991861c906131dd565b906131dd565b94613132565b925b01919261190c565b611a0990611a0f936131dd565b6101409192969350015115611a48575b50611a15600191613132565b611a5b60019295611a1592841c906131dd565b949150611a3c565b50939260019150611a17565b939260019150611a17565b611a979192503d805f833e611a8f8183612d64565b810190612ff4565b9087611991565b9291600190611a17565b90506020813d8211611ad9575b81611ac260209383612d64565b8101031261024957611ad390612fe0565b8761194a565b3d9150611ab5565b9150939115611ffa578015611fc0576002546040516370a0823160e01b8152306004820152906020908290602490829060081c6001600160a01b03165afa8015610bef5782915f91611f8b575b5010611f3b57825f5260086020528060405f205410611ef6575f5b8451811015611e3357611b5c8186612fcc565b51604051906331a9108f60e11b82526004820152602081602481875afa908115610bef575f91611dfa575b50336001600160a01b0390911603611df257611ba38186612fcc565b5160405190634712f17360e11b825260048201525f81602481875afa908115610bef575f91611dd8575b50610120810151611dcf57611be660a082015142612f55565b62ed4e008110611dc557611c0360808301516040840151906131a8565b916301e133806064611c196060840151866131a8565b049210611d2057610140015115611d115790611c389160011c906131dd565b905b611c448187612fcc565b51843b1561024957604051906319f477d960e01b825260048201525f8160248183895af18015610bef57611d01575b50611c7e8187612fcc565b5191843b15610249576040519263bed62f3560e01b845260048401525f8360248183895af1928315610bef57600193611cf1575b50611cbd8288612fcc565b516040519182527fec830d68f9642b924e6a2bbc2ebeb8f06c0ab5417a38f641b088b2412cbaba9560203393a35b01611b49565b5f611cfb91612d64565b87611cb2565b5f611d0b91612d64565b86611c73565b611d1a916131dd565b90611c3a565b61014091939250015115611d38575b60019150611ceb565b611d428187612fcc565b5191843b1561024957604051926318d8e2a560e01b845260048401525f8360248183895af1928315610bef57600193611db5575b50611d818288612fcc565b5160405191841c82527f05609d8b66d3b17249aefcaaa68fa2000914aeeb46371ad3fcae3db02304bde960203393a3611d2f565b5f611dbf91612d64565b87611d76565b5050600190611ceb565b50600190611ceb565b611dec91503d805f833e611a8f8183612d64565b86611bcd565b600190611ceb565b90506020813d8211611e2b575b81611e1460209383612d64565b8101031261024957611e2590612fe0565b86611b87565b3d9150611e07565b5f6020611e9b84878085526008845260408520611e51838254612f55565b905584526007835260408420611e68828254612f55565b905560025460405163a9059cbb60e01b815294859360089290921c6001600160a01b031692849283913360048401612edf565b03925af18015610bef575f90611ebb575b611eb590612efa565b60018055005b506020813d602011611eee575b81611ed560209383612d64565b8101031261024957611ee9611eb591612ed2565b611eac565b3d9150611ec8565b60405162461bcd60e51b815260206004820152601f60248201527f496e73756666696369656e7420726f756e6420555344542062616c616e6365006044820152606490fd5b60405162461bcd60e51b815260206004820152602260248201527f496e73756666696369656e7420636f6e747261637420555344542062616c616e604482015261636560f01b6064820152608490fd5b9150506020813d602011611fb8575b81611fa760209383612d64565b810103126102495781905186611b2e565b3d9150611f9a565b60405162461bcd60e51b81526020600482015260126024820152714e6f20616d6f756e7420746f20636c61696d60701b6044820152606490fd5b60405162461bcd60e51b81526020600482015260196024820152784e6f20656c696769626c65204e46547320746f20636c61696d60381b6044820152606490fd5b60405162461bcd60e51b815260206004820152604160248201527f546f6f206d616e79204e46547320746f20636c61696d206174206f6e63652c2060448201527f706c656173652073706c697420696e746f20736d616c6c6572206261746368656064820152607360f81b608482015260a490fd5b84548352600194850194869450602090930192016118b0565b34610249576020366003190112610249576120e2612ce4565b6120ea613269565b6001600160a01b03811690811561219a57600254600881901c6001600160a01b03169183831461215b57610100600160a81b031990911660089190911b610100600160a81b0316176002557f92852dbadca7e6fa4e0d5dd87891e6dd13f50a304561a86ea9d5a710b972e4495f80a3005b60405162461bcd60e51b815260206004820152601760248201527653616d65205553445420746f6b656e206164647265737360481b6044820152606490fd5b60405162461bcd60e51b815260206004820152601a602482015279496e76616c6964205553445420746f6b656e206164647265737360301b6044820152606490fd5b34610249576020366003190112610249576004355f526007602052602060405f2054604051908152f35b34610249576020366003190112610249576001600160a01b03612227612ce4565b165f52600b602052602060405f2054604051908152f35b34610249576020366003190112610249576004355f526009602052602060405f2054604051908152f35b34610249575f36600319011261024957602060ff600254166040519015158152f35b34610249576020366003190112610249576004356122a6613269565b6002546040516370a0823160e01b815230600482015260089190911c6001600160a01b031690602081602481855afa8015610bef5783915f916123b0575b5010612374575f805460405163a9059cbb60e01b815293602093859390928492839161231d91906001600160a01b031660048401612edf565b03925af18015610bef575f90612339575b61233790612efa565b005b506020813d60201161236c575b8161235360209383612d64565b810103126102495761236761233791612ed2565b61232e565b3d9150612346565b60405162461bcd60e51b8152602060048201526014602482015273496e73756666696369656e742062616c616e636560601b6044820152606490fd5b9150506020813d6020116123dd575b816123cc60209383612d64565b8101031261024957829051846122e4565b3d91506123bf565b3461024957602036600319011261024957600435805f52600360205261241760ff600860405f20015460081c16612e8f565b5f52600460205260405f20604051808260208294549384815201905f5260205f20925f5b81811061264457505061245092500382612d64565b61245a8151612f8d565b906124658151612f8d565b7f00000000000000000000000000000000000000000000000000000000000000006001600160a01b0316925f805b845182101561258f576124a68286612fcc565b5160405190634712f17360e11b825260048201525f816024818a5afa908115610bef575f91612575575b5061010001516001600160a01b0316915f80805b848110612548575b501561251d57600192935061251461250d6125078389612fcc565b51613132565b9187612fcc565b525b0190612493565b5091816125429161253060019487612fcc565b528261253c8288612fcc565b52613132565b91612516565b856001600160a01b0361255b838a612fcc565b51161461256a576001016124e4565b9150506001896124ec565b61258991503d805f833e611a8f8183612d64565b876124d0565b905061259a81612f8d565b926125a482612f8d565b925f5b83811061260657858560405190604082016040835283518091526020606084019401905f5b8181106125e7578480610fff88878382036020850152612c9b565b82516001600160a01b03168652602095860195909201916001016125cc565b6001906001600160a01b0361261b8285612fcc565b51166126278289612fcc565b526126328185612fcc565b5161263d8288612fcc565b52016125a7565b845483526001948501948694506020909301920161243b565b346102495761266b36612cfa565b612673613269565b815f52600360205261269160ff600860405f20015460081c16612e8f565b801561287c57815f5260076020528060405f20541061283a576002546040516370a0823160e01b8152306004820152906020908290602490829060081c6001600160a01b03165afa8015610bef5782915f91612805575b50106127c057815f52600760205260405f20612705828254612f55565b905561274260208260018060a01b0360025460081c1660018060a01b035f54165f60405180968195829463a9059cbb60e01b845260048401612edf565b03925af1908115610bef575f9161276f575b505f5160206132eb5f395f51905f529161152f602092612efa565b90506020813d6020116127b8575b8161278a60209383612d64565b81010312610249575f5160206132eb5f395f51905f529161152f6127af602093612ed2565b92505091612754565b3d915061277d565b60405162461bcd60e51b815260206004820152601d60248201527f496e73756666696369656e7420636f6e74726163742062616c616e63650000006044820152606490fd5b9150506020813d602011612832575b8161282160209383612d64565b8101031261024957819051846126e8565b3d9150612814565b60405162461bcd60e51b815260206004820152601a602482015279496e73756666696369656e7420726f756e642062616c616e636560301b6044820152606490fd5b60405162461bcd60e51b815260206004820152601d60248201527f416d6f756e74206d7573742062652067726561746572207468616e20300000006044820152606490fd5b34610249575f366003190112610249576128d9613269565b60025460ff8116156129185760ff19166002557f5db9ee0a495bf2e6ff9c91a7834c1ba4fdd244a5e8aa4e537bd38aeae4b073aa6020604051338152a1005b638dfc202b60e01b5f5260045ffd5b346102495760403660031901126102495760043560243560058110156102495760407f20be72359ce8a4671d77d8b6c6bf0142bce6d46a8669633f1781144cf77894e591612973613269565b835f52600360205261299060ff6008845f20015460081c16612e8f565b5f8481526003602052829020600a01805460ff16916129ca916129b4908290612f3d565b6129c084518094612c8e565b6020830190612c8e565ba2005b34610249575f366003190112610249576020600f54604051908152f35b3461024957604036600319011261024957600435612a06612cce565b90805f526003602052612a2560ff600860405f20015460081c16612e8f565b5f52600660205260405f209060018060a01b03165f5260205260405f206040519081602082549182815201915f5260205f20905f5b818110612a7157610fff85610feb81870382612d64565b8254845260209093019260019283019201612a5a565b3461024957602036600319011261024957600435805f526003602052612ab960ff600860405f20015460081c16612e8f565b5f52600460205260405f206040519081602082549182815201915f5260205f20905f5b818110612af357610fff85610feb81870382612d64565b8254845260209093019260019283019201612adc565b34610249575f36600319011261024957602060405160328152f35b3461024957602036600319011261024957600435805f526003602052612b5660ff600860405f20015460081c16612e8f565b5f526003602052602060ff600a60405f20015416612b776040518092612c8e565bf35b3461024957602036600319011261024957600435612b95613269565b805f526003602052612bb360ff600860405f20015460081c16612e8f565b5f8181526007602090815260408083208054908490556002548454925163a9059cbb60e01b81529485936001600160a01b0360089390931c83169385938492612c0192911660048401612edf565b03925af18015610bef575f90612c39575b612c1c9150612efa565b5f526003602052600a60405f2001600360ff198254161790555f80f35b506020813d602011612c6c575b81612c5360209383612d64565b8101031261024957612c67612c1c91612ed2565b612c12565b3d9150612c46565b34610249575f366003190112610249576020906010548152f35b9060058210156105d75752565b90602080835192838152019201905f5b818110612cb85750505090565b8251845260209384019390920191600101612cab565b602435906001600160a01b038216820361024957565b600435906001600160a01b038216820361024957565b6040906003190112610249576004359060243590565b90600182811c92168015612d3e575b6020831014612d2a57565b634e487b7160e01b5f52602260045260245ffd5b91607f1691612d1f565b61018081019081106001600160401b038211176106a957604052565b601f909101601f19168101906001600160401b038211908210176106a957604052565b9060405191825f825492612d9a84612d10565b8084529360018116908115612e055750600114612dc1575b50612dbf92500383612d64565b565b90505f9291925260205f20905f915b818310612de9575050906020612dbf928201015f612db2565b6020919350806001915483858901015201910190918492612dd0565b905060209250612dbf94915060ff191682840152151560051b8201015f612db2565b805180835260209291819084018484015e5f828201840152601f01601f1916010190565b8054821015612e60575f5260205f2001905f90565b634e487b7160e01b5f52603260045260245ffd5b6001600160401b0381116106a957601f01601f191660200190565b15612e9657565b60405162461bcd60e51b8152602060048201526014602482015273149bdd5b9908191bd95cc81b9bdd08195e1a5cdd60621b6044820152606490fd5b5190811515820361024957565b6001600160a01b039091168152602081019190915260400190565b15612f0157565b60405162461bcd60e51b81526020600482015260146024820152731554d115081d1c985b9cd9995c8819985a5b195960621b6044820152606490fd5b9060058110156105d75760ff80198354169116179055565b91908203918211612f6257565b634e487b7160e01b5f52601160045260245ffd5b6001600160401b0381116106a95760051b60200190565b90612f9782612f76565b612fa46040519182612d64565b8281528092612fb5601f1991612f76565b0190602036910137565b805115612e605760200190565b8051821015612e605760209160051b010190565b51906001600160a01b038216820361024957565b602081830312610249578051906001600160401b0382116102495701906101a08282031261024957604051916101a083016001600160401b038111848210176106a957604052805183526020810151602084015260408101516040840152606081015160608401526080810151608084015260a081015160a084015260c081015160c084015260e081015160e08401526130916101008201612fe0565b6101008401526130a46101208201612ed2565b6101208401526130b76101408201612ed2565b6101408401526130ca6101608201612ed2565b610160840152610180810151906001600160401b038211610249570181601f82011215610249578051906130fd82612e74565b9261310b6040519485612d64565b8284526020838301011161024957815f9260208093018386015e8301015261018082015290565b5f198114612f625760010190565b1561314757565b60405162461bcd60e51b8152602060048201526015602482015274139bc81391951cc81a5b881d1a1a5cc81c9bdd5b99605a1b6044820152606490fd5b90670de0b6b3a7640000820291808304670de0b6b3a76400001490151715612f6257565b81810292918115918404141715612f6257565b6001600160a01b03918216815291166020820152604081019190915260600190565b91908201809211612f6257565b156131f157565b60405162461bcd60e51b815260206004820152601c60248201527b125b9d995cdd1b595b9d081c195c9a5bd9081a185cc818db1bdcd95960221b6044820152606490fd5b8054600160401b8110156106a95761325291600182018155612e4b565b819291549060031b91821b915f19901b1916179055565b5f546001600160a01b0316330361327c57565b63118cdaa760e01b5f523360045260245ffd5b6002600154146132a0576002600155565b633ee5aeb560e01b5f5260045ffd5b60ff600254166132bb57565b63d93c066560e01b5f5260045ffdfe8be0079c531659141344cd1fd0a4f28419497f9722a3daafe3b4186f6b6457e0c97223d9627a5c8977b5ce63bcc729264c8ab2575ef525d2d42e39af20550dc4a26469706673582212204b2a70373647ab3251bab8ad580ea133a45f0f61f4b5f6d98699312b9bae4e1464736f6c634300081c0033",
  "linkReferences": {},
  "deployedLinkReferences": {},
  "immutableReferences": {
    "9000": [
      {
        "length": 32,
        "start": 2577
      },
      {
        "length": 32,
        "start": 3171
      },
      {
        "length": 32,
        "start": 4142
      },
      {
        "length": 32,
        "start": 6364
      },
      {
        "length": 32,
        "start": 9319
      }
    ]
  },
  "inputSourceName": "project/contracts/FundRaisingContractNFT.sol",
  "buildInfoId": "solc-0_8_28-2d509b87df40aed0aaea16372e26eff870027f6a"
}