{
  "_format": "hh3-artifact-1",
  "contractName": "DZNFT",
  "sourceName": "contracts/DZNFT.sol",
  "abi": [
    {
      "inputs": [],
      "stateMutability": "nonpayable",
      "type": "constructor"
    },
    {
      "inputs": [],
      "name": "AccessControlBadConfirmation",
      "type": "error"
    },
    {
      "inputs": [
        {
          "internalType": "address",
          "name": "account",
          "type": "address"
        },
        {
          "internalType": "bytes32",
          "name": "neededRole",
          "type": "bytes32"
        }
      ],
      "name": "AccessControlUnauthorizedAccount",
      "type": "error"
    },
    {
      "inputs": [],
      "name": "ERC721EnumerableForbiddenBatchMint",
      "type": "error"
    },
    {
      "inputs": [
        {
          "internalType": "address",
          "name": "sender",
          "type": "address"
        },
        {
          "internalType": "uint256",
          "name": "tokenId",
          "type": "uint256"
        },
        {
          "internalType": "address",
          "name": "owner",
          "type": "address"
        }
      ],
      "name": "ERC721IncorrectOwner",
      "type": "error"
    },
    {
      "inputs": [
        {
          "internalType": "address",
          "name": "operator",
          "type": "address"
        },
        {
          "internalType": "uint256",
          "name": "tokenId",
          "type": "uint256"
        }
      ],
      "name": "ERC721InsufficientApproval",
      "type": "error"
    },
    {
      "inputs": [
        {
          "internalType": "address",
          "name": "approver",
          "type": "address"
        }
      ],
      "name": "ERC721InvalidApprover",
      "type": "error"
    },
    {
      "inputs": [
        {
          "internalType": "address",
          "name": "operator",
          "type": "address"
        }
      ],
      "name": "ERC721InvalidOperator",
      "type": "error"
    },
    {
      "inputs": [
        {
          "internalType": "address",
          "name": "owner",
          "type": "address"
        }
      ],
      "name": "ERC721InvalidOwner",
      "type": "error"
    },
    {
      "inputs": [
        {
          "internalType": "address",
          "name": "receiver",
          "type": "address"
        }
      ],
      "name": "ERC721InvalidReceiver",
      "type": "error"
    },
    {
      "inputs": [
        {
          "internalType": "address",
          "name": "sender",
          "type": "address"
        }
      ],
      "name": "ERC721InvalidSender",
      "type": "error"
    },
    {
      "inputs": [
        {
          "internalType": "uint256",
          "name": "tokenId",
          "type": "uint256"
        }
      ],
      "name": "ERC721NonexistentToken",
      "type": "error"
    },
    {
      "inputs": [
        {
          "internalType": "address",
          "name": "owner",
          "type": "address"
        },
        {
          "internalType": "uint256",
          "name": "index",
          "type": "uint256"
        }
      ],
      "name": "ERC721OutOfBoundsIndex",
      "type": "error"
    },
    {
      "inputs": [],
      "name": "EnforcedPause",
      "type": "error"
    },
    {
      "inputs": [],
      "name": "ExpectedPause",
      "type": "error"
    },
    {
      "inputs": [
        {
          "internalType": "address",
          "name": "owner",
          "type": "address"
        }
      ],
      "name": "OwnableInvalidOwner",
      "type": "error"
    },
    {
      "inputs": [
        {
          "internalType": "address",
          "name": "account",
          "type": "address"
        }
      ],
      "name": "OwnableUnauthorizedAccount",
      "type": "error"
    },
    {
      "anonymous": false,
      "inputs": [
        {
          "indexed": true,
          "internalType": "address",
          "name": "owner",
          "type": "address"
        },
        {
          "indexed": true,
          "internalType": "address",
          "name": "approved",
          "type": "address"
        },
        {
          "indexed": true,
          "internalType": "uint256",
          "name": "tokenId",
          "type": "uint256"
        }
      ],
      "name": "Approval",
      "type": "event"
    },
    {
      "anonymous": false,
      "inputs": [
        {
          "indexed": true,
          "internalType": "address",
          "name": "owner",
          "type": "address"
        },
        {
          "indexed": true,
          "internalType": "address",
          "name": "operator",
          "type": "address"
        },
        {
          "indexed": false,
          "internalType": "bool",
          "name": "approved",
          "type": "bool"
        }
      ],
      "name": "ApprovalForAll",
      "type": "event"
    },
    {
      "anonymous": false,
      "inputs": [
        {
          "indexed": false,
          "internalType": "string",
          "name": "newBaseURI",
          "type": "string"
        }
      ],
      "name": "BaseURIUpdated",
      "type": "event"
    },
    {
      "anonymous": false,
      "inputs": [
        {
          "indexed": true,
          "internalType": "address",
          "name": "account",
          "type": "address"
        },
        {
          "indexed": false,
          "internalType": "bool",
          "name": "granted",
          "type": "bool"
        }
      ],
      "name": "ExecutorRoleUpdated",
      "type": "event"
    },
    {
      "anonymous": false,
      "inputs": [
        {
          "indexed": true,
          "internalType": "uint256",
          "name": "tokenId",
          "type": "uint256"
        },
        {
          "indexed": false,
          "internalType": "string",
          "name": "metadata",
          "type": "string"
        }
      ],
      "name": "MetadataStamped",
      "type": "event"
    },
    {
      "anonymous": false,
      "inputs": [
        {
          "indexed": true,
          "internalType": "uint256",
          "name": "tokenId",
          "type": "uint256"
        },
        {
          "indexed": true,
          "internalType": "address",
          "name": "owner",
          "type": "address"
        }
      ],
      "name": "NFTBurned",
      "type": "event"
    },
    {
      "anonymous": false,
      "inputs": [
        {
          "indexed": true,
          "internalType": "uint256",
          "name": "tokenId",
          "type": "uint256"
        },
        {
          "indexed": true,
          "internalType": "address",
          "name": "buyer",
          "type": "address"
        },
        {
          "indexed": true,
          "internalType": "uint256",
          "name": "roundId",
          "type": "uint256"
        },
        {
          "indexed": false,
          "internalType": "uint256",
          "name": "tokenPrice",
          "type": "uint256"
        },
        {
          "indexed": false,
          "internalType": "uint256",
          "name": "rewardPercentage",
          "type": "uint256"
        }
      ],
      "name": "NFTMinted",
      "type": "event"
    },
    {
      "anonymous": false,
      "inputs": [
        {
          "indexed": true,
          "internalType": "uint256",
          "name": "tokenId",
          "type": "uint256"
        },
        {
          "indexed": true,
          "internalType": "address",
          "name": "owner",
          "type": "address"
        }
      ],
      "name": "NFTRedeemed",
      "type": "event"
    },
    {
      "anonymous": false,
      "inputs": [
        {
          "indexed": true,
          "internalType": "address",
          "name": "previousOwner",
          "type": "address"
        },
        {
          "indexed": true,
          "internalType": "address",
          "name": "newOwner",
          "type": "address"
        }
      ],
      "name": "OwnershipTransferred",
      "type": "event"
    },
    {
      "anonymous": false,
      "inputs": [
        {
          "indexed": false,
          "internalType": "address",
          "name": "account",
          "type": "address"
        }
      ],
      "name": "Paused",
      "type": "event"
    },
    {
      "anonymous": false,
      "inputs": [
        {
          "indexed": true,
          "internalType": "uint256",
          "name": "tokenId",
          "type": "uint256"
        },
        {
          "indexed": true,
          "internalType": "address",
          "name": "claimer",
          "type": "address"
        }
      ],
      "name": "RewardClaimed",
      "type": "event"
    },
    {
      "anonymous": false,
      "inputs": [
        {
          "indexed": true,
          "internalType": "bytes32",
          "name": "role",
          "type": "bytes32"
        },
        {
          "indexed": true,
          "internalType": "bytes32",
          "name": "previousAdminRole",
          "type": "bytes32"
        },
        {
          "indexed": true,
          "internalType": "bytes32",
          "name": "newAdminRole",
          "type": "bytes32"
        }
      ],
      "name": "RoleAdminChanged",
      "type": "event"
    },
    {
      "anonymous": false,
      "inputs": [
        {
          "indexed": true,
          "internalType": "bytes32",
          "name": "role",
          "type": "bytes32"
        },
        {
          "indexed": true,
          "internalType": "address",
          "name": "account",
          "type": "address"
        },
        {
          "indexed": true,
          "internalType": "address",
          "name": "sender",
          "type": "address"
        }
      ],
      "name": "RoleGranted",
      "type": "event"
    },
    {
      "anonymous": false,
      "inputs": [
        {
          "indexed": true,
          "internalType": "bytes32",
          "name": "role",
          "type": "bytes32"
        },
        {
          "indexed": true,
          "internalType": "address",
          "name": "account",
          "type": "address"
        },
        {
          "indexed": true,
          "internalType": "address",
          "name": "sender",
          "type": "address"
        }
      ],
      "name": "RoleRevoked",
      "type": "event"
    },
    {
      "anonymous": false,
      "inputs": [
        {
          "indexed": true,
          "internalType": "uint256",
          "name": "tokenId",
          "type": "uint256"
        },
        {
          "indexed": false,
          "internalType": "string",
          "name": "newTokenURI",
          "type": "string"
        }
      ],
      "name": "TokenURIUpdated",
      "type": "event"
    },
    {
      "anonymous": false,
      "inputs": [
        {
          "indexed": true,
          "internalType": "address",
          "name": "from",
          "type": "address"
        },
        {
          "indexed": true,
          "internalType": "address",
          "name": "to",
          "type": "address"
        },
        {
          "indexed": true,
          "internalType": "uint256",
          "name": "tokenId",
          "type": "uint256"
        }
      ],
      "name": "Transfer",
      "type": "event"
    },
    {
      "anonymous": false,
      "inputs": [
        {
          "indexed": true,
          "internalType": "uint256",
          "name": "tokenId",
          "type": "uint256"
        },
        {
          "indexed": false,
          "internalType": "bool",
          "name": "locked",
          "type": "bool"
        }
      ],
      "name": "TransferLockUpdated",
      "type": "event"
    },
    {
      "anonymous": false,
      "inputs": [
        {
          "indexed": true,
          "internalType": "uint256",
          "name": "tokenId",
          "type": "uint256"
        },
        {
          "indexed": true,
          "internalType": "address",
          "name": "owner",
          "type": "address"
        }
      ],
      "name": "TransferUnlocked",
      "type": "event"
    },
    {
      "anonymous": false,
      "inputs": [
        {
          "indexed": false,
          "internalType": "address",
          "name": "account",
          "type": "address"
        }
      ],
      "name": "Unpaused",
      "type": "event"
    },
    {
      "inputs": [],
      "name": "DEFAULT_ADMIN_ROLE",
      "outputs": [
        {
          "internalType": "bytes32",
          "name": "",
          "type": "bytes32"
        }
      ],
      "stateMutability": "view",
      "type": "function"
    },
    {
      "inputs": [],
      "name": "EXECUTOR_ROLE",
      "outputs": [
        {
          "internalType": "bytes32",
          "name": "",
          "type": "bytes32"
        }
      ],
      "stateMutability": "view",
      "type": "function"
    },
    {
      "inputs": [
        {
          "internalType": "address",
          "name": "to",
          "type": "address"
        },
        {
          "internalType": "uint256",
          "name": "tokenId",
          "type": "uint256"
        }
      ],
      "name": "approve",
      "outputs": [],
      "stateMutability": "nonpayable",
      "type": "function"
    },
    {
      "inputs": [
        {
          "internalType": "address",
          "name": "owner",
          "type": "address"
        }
      ],
      "name": "balanceOf",
      "outputs": [
        {
          "internalType": "uint256",
          "name": "",
          "type": "uint256"
        }
      ],
      "stateMutability": "view",
      "type": "function"
    },
    {
      "inputs": [],
      "name": "baseURI",
      "outputs": [
        {
          "internalType": "string",
          "name": "",
          "type": "string"
        }
      ],
      "stateMutability": "view",
      "type": "function"
    },
    {
      "inputs": [
        {
          "internalType": "uint256[]",
          "name": "tokenIds",
          "type": "uint256[]"
        }
      ],
      "name": "batchGetTokensDetail",
      "outputs": [
        {
          "components": [
            {
              "internalType": "uint256",
              "name": "tokenId",
              "type": "uint256"
            },
            {
              "internalType": "uint256",
              "name": "roundId",
              "type": "uint256"
            },
            {
              "internalType": "uint256",
              "name": "tokenPrice",
              "type": "uint256"
            },
            {
              "internalType": "uint256",
              "name": "rewardPercentage",
              "type": "uint256"
            },
            {
              "internalType": "uint256",
              "name": "purchaseTimestamp",
              "type": "uint256"
            },
            {
              "internalType": "uint256",
              "name": "closeDateInvestment",
              "type": "uint256"
            },
            {
              "internalType": "uint256",
              "name": "endDateInvestment",
              "type": "uint256"
            },
            {
              "internalType": "address",
              "name": "originalBuyer",
              "type": "address"
            },
            {
              "internalType": "bool",
              "name": "redeemed",
              "type": "bool"
            },
            {
              "internalType": "bool",
              "name": "rewardClaimed",
              "type": "bool"
            },
            {
              "internalType": "bool",
              "name": "transferLocked",
              "type": "bool"
            },
            {
              "internalType": "string",
              "name": "metadata",
              "type": "string"
            }
          ],
          "internalType": "struct DZNFT.InvestmentData[]",
          "name": "investments",
          "type": "tuple[]"
        }
      ],
      "stateMutability": "view",
      "type": "function"
    },
    {
      "inputs": [
        {
          "internalType": "uint256[]",
          "name": "tokenIds",
          "type": "uint256[]"
        }
      ],
      "name": "batchMarkAsRedeemed",
      "outputs": [],
      "stateMutability": "nonpayable",
      "type": "function"
    },
    {
      "inputs": [
        {
          "internalType": "uint256[]",
          "name": "tokenIds",
          "type": "uint256[]"
        }
      ],
      "name": "batchMarkRewardClaimed",
      "outputs": [],
      "stateMutability": "nonpayable",
      "type": "function"
    },
    {
      "inputs": [
        {
          "internalType": "address",
          "name": "to",
          "type": "address"
        },
        {
          "internalType": "uint256",
          "name": "count",
          "type": "uint256"
        },
        {
          "internalType": "uint256",
          "name": "roundId",
          "type": "uint256"
        },
        {
          "internalType": "uint256",
          "name": "tokenPrice",
          "type": "uint256"
        },
        {
          "internalType": "uint256",
          "name": "rewardPercentage",
          "type": "uint256"
        },
        {
          "internalType": "uint256",
          "name": "closeDateInvestment",
          "type": "uint256"
        },
        {
          "internalType": "uint256",
          "name": "endDateInvestment",
          "type": "uint256"
        }
      ],
      "name": "batchMintNFT",
      "outputs": [
        {
          "internalType": "uint256[]",
          "name": "tokenIds",
          "type": "uint256[]"
        }
      ],
      "stateMutability": "nonpayable",
      "type": "function"
    },
    {
      "inputs": [
        {
          "internalType": "uint256[]",
          "name": "tokenIds",
          "type": "uint256[]"
        }
      ],
      "name": "batchUnlockTransfer",
      "outputs": [],
      "stateMutability": "nonpayable",
      "type": "function"
    },
    {
      "inputs": [
        {
          "internalType": "uint256",
          "name": "tokenId",
          "type": "uint256"
        }
      ],
      "name": "burn",
      "outputs": [],
      "stateMutability": "nonpayable",
      "type": "function"
    },
    {
      "inputs": [
        {
          "internalType": "uint256",
          "name": "tokenId",
          "type": "uint256"
        }
      ],
      "name": "canClaimEarlyReward",
      "outputs": [
        {
          "internalType": "bool",
          "name": "",
          "type": "bool"
        }
      ],
      "stateMutability": "view",
      "type": "function"
    },
    {
      "inputs": [
        {
          "internalType": "uint256",
          "name": "tokenId",
          "type": "uint256"
        }
      ],
      "name": "canFullyRedeem",
      "outputs": [
        {
          "internalType": "bool",
          "name": "",
          "type": "bool"
        }
      ],
      "stateMutability": "view",
      "type": "function"
    },
    {
      "inputs": [
        {
          "internalType": "address",
          "name": "owner",
          "type": "address"
        }
      ],
      "name": "getAllTokensOwnedBy",
      "outputs": [
        {
          "internalType": "uint256[]",
          "name": "ownedTokens",
          "type": "uint256[]"
        }
      ],
      "stateMutability": "view",
      "type": "function"
    },
    {
      "inputs": [
        {
          "internalType": "uint256",
          "name": "tokenId",
          "type": "uint256"
        }
      ],
      "name": "getApproved",
      "outputs": [
        {
          "internalType": "address",
          "name": "",
          "type": "address"
        }
      ],
      "stateMutability": "view",
      "type": "function"
    },
    {
      "inputs": [
        {
          "internalType": "uint256",
          "name": "tokenId",
          "type": "uint256"
        }
      ],
      "name": "getInvestmentData",
      "outputs": [
        {
          "components": [
            {
              "internalType": "uint256",
              "name": "tokenId",
              "type": "uint256"
            },
            {
              "internalType": "uint256",
              "name": "roundId",
              "type": "uint256"
            },
            {
              "internalType": "uint256",
              "name": "tokenPrice",
              "type": "uint256"
            },
            {
              "internalType": "uint256",
              "name": "rewardPercentage",
              "type": "uint256"
            },
            {
              "internalType": "uint256",
              "name": "purchaseTimestamp",
              "type": "uint256"
            },
            {
              "internalType": "uint256",
              "name": "closeDateInvestment",
              "type": "uint256"
            },
            {
              "internalType": "uint256",
              "name": "endDateInvestment",
              "type": "uint256"
            },
            {
              "internalType": "address",
              "name": "originalBuyer",
              "type": "address"
            },
            {
              "internalType": "bool",
              "name": "redeemed",
              "type": "bool"
            },
            {
              "internalType": "bool",
              "name": "rewardClaimed",
              "type": "bool"
            },
            {
              "internalType": "bool",
              "name": "transferLocked",
              "type": "bool"
            },
            {
              "internalType": "string",
              "name": "metadata",
              "type": "string"
            }
          ],
          "internalType": "struct DZNFT.InvestmentData",
          "name": "",
          "type": "tuple"
        }
      ],
      "stateMutability": "view",
      "type": "function"
    },
    {
      "inputs": [
        {
          "internalType": "bytes32",
          "name": "role",
          "type": "bytes32"
        }
      ],
      "name": "getRoleAdmin",
      "outputs": [
        {
          "internalType": "bytes32",
          "name": "",
          "type": "bytes32"
        }
      ],
      "stateMutability": "view",
      "type": "function"
    },
    {
      "inputs": [
        {
          "internalType": "uint256",
          "name": "tokenId",
          "type": "uint256"
        }
      ],
      "name": "getTokenDetail",
      "outputs": [
        {
          "components": [
            {
              "internalType": "uint256",
              "name": "tokenId",
              "type": "uint256"
            },
            {
              "internalType": "uint256",
              "name": "roundId",
              "type": "uint256"
            },
            {
              "internalType": "uint256",
              "name": "tokenPrice",
              "type": "uint256"
            },
            {
              "internalType": "uint256",
              "name": "rewardPercentage",
              "type": "uint256"
            },
            {
              "internalType": "uint256",
              "name": "purchaseTimestamp",
              "type": "uint256"
            },
            {
              "internalType": "uint256",
              "name": "closeDateInvestment",
              "type": "uint256"
            },
            {
              "internalType": "uint256",
              "name": "endDateInvestment",
              "type": "uint256"
            },
            {
              "internalType": "address",
              "name": "originalBuyer",
              "type": "address"
            },
            {
              "internalType": "bool",
              "name": "redeemed",
              "type": "bool"
            },
            {
              "internalType": "bool",
              "name": "rewardClaimed",
              "type": "bool"
            },
            {
              "internalType": "bool",
              "name": "transferLocked",
              "type": "bool"
            },
            {
              "internalType": "string",
              "name": "metadata",
              "type": "string"
            }
          ],
          "internalType": "struct DZNFT.InvestmentData",
          "name": "",
          "type": "tuple"
        }
      ],
      "stateMutability": "view",
      "type": "function"
    },
    {
      "inputs": [
        {
          "internalType": "address",
          "name": "user",
          "type": "address"
        },
        {
          "internalType": "uint256",
          "name": "roundId",
          "type": "uint256"
        }
      ],
      "name": "getUserNFTsByRound",
      "outputs": [
        {
          "internalType": "uint256[]",
          "name": "tokenIds",
          "type": "uint256[]"
        }
      ],
      "stateMutability": "view",
      "type": "function"
    },
    {
      "inputs": [
        {
          "internalType": "address",
          "name": "walletAddress",
          "type": "address"
        }
      ],
      "name": "getWalletTokensDetail",
      "outputs": [
        {
          "internalType": "uint256[]",
          "name": "tokenIds",
          "type": "uint256[]"
        },
        {
          "components": [
            {
              "internalType": "uint256",
              "name": "tokenId",
              "type": "uint256"
            },
            {
              "internalType": "uint256",
              "name": "roundId",
              "type": "uint256"
            },
            {
              "internalType": "uint256",
              "name": "tokenPrice",
              "type": "uint256"
            },
            {
              "internalType": "uint256",
              "name": "rewardPercentage",
              "type": "uint256"
            },
            {
              "internalType": "uint256",
              "name": "purchaseTimestamp",
              "type": "uint256"
            },
            {
              "internalType": "uint256",
              "name": "closeDateInvestment",
              "type": "uint256"
            },
            {
              "internalType": "uint256",
              "name": "endDateInvestment",
              "type": "uint256"
            },
            {
              "internalType": "address",
              "name": "originalBuyer",
              "type": "address"
            },
            {
              "internalType": "bool",
              "name": "redeemed",
              "type": "bool"
            },
            {
              "internalType": "bool",
              "name": "rewardClaimed",
              "type": "bool"
            },
            {
              "internalType": "bool",
              "name": "transferLocked",
              "type": "bool"
            },
            {
              "internalType": "string",
              "name": "metadata",
              "type": "string"
            }
          ],
          "internalType": "struct DZNFT.InvestmentData[]",
          "name": "nftsDetail",
          "type": "tuple[]"
        }
      ],
      "stateMutability": "view",
      "type": "function"
    },
    {
      "inputs": [
        {
          "internalType": "bytes32",
          "name": "role",
          "type": "bytes32"
        },
        {
          "internalType": "address",
          "name": "account",
          "type": "address"
        }
      ],
      "name": "grantRole",
      "outputs": [],
      "stateMutability": "nonpayable",
      "type": "function"
    },
    {
      "inputs": [
        {
          "internalType": "bytes32",
          "name": "role",
          "type": "bytes32"
        },
        {
          "internalType": "address",
          "name": "account",
          "type": "address"
        }
      ],
      "name": "hasRole",
      "outputs": [
        {
          "internalType": "bool",
          "name": "",
          "type": "bool"
        }
      ],
      "stateMutability": "view",
      "type": "function"
    },
    {
      "inputs": [
        {
          "internalType": "uint256",
          "name": "",
          "type": "uint256"
        }
      ],
      "name": "investmentData",
      "outputs": [
        {
          "internalType": "uint256",
          "name": "tokenId",
          "type": "uint256"
        },
        {
          "internalType": "uint256",
          "name": "roundId",
          "type": "uint256"
        },
        {
          "internalType": "uint256",
          "name": "tokenPrice",
          "type": "uint256"
        },
        {
          "internalType": "uint256",
          "name": "rewardPercentage",
          "type": "uint256"
        },
        {
          "internalType": "uint256",
          "name": "purchaseTimestamp",
          "type": "uint256"
        },
        {
          "internalType": "uint256",
          "name": "closeDateInvestment",
          "type": "uint256"
        },
        {
          "internalType": "uint256",
          "name": "endDateInvestment",
          "type": "uint256"
        },
        {
          "internalType": "address",
          "name": "originalBuyer",
          "type": "address"
        },
        {
          "internalType": "bool",
          "name": "redeemed",
          "type": "bool"
        },
        {
          "internalType": "bool",
          "name": "rewardClaimed",
          "type": "bool"
        },
        {
          "internalType": "bool",
          "name": "transferLocked",
          "type": "bool"
        },
        {
          "internalType": "string",
          "name": "metadata",
          "type": "string"
        }
      ],
      "stateMutability": "view",
      "type": "function"
    },
    {
      "inputs": [
        {
          "internalType": "address",
          "name": "owner",
          "type": "address"
        },
        {
          "internalType": "address",
          "name": "operator",
          "type": "address"
        }
      ],
      "name": "isApprovedForAll",
      "outputs": [
        {
          "internalType": "bool",
          "name": "",
          "type": "bool"
        }
      ],
      "stateMutability": "view",
      "type": "function"
    },
    {
      "inputs": [
        {
          "internalType": "address",
          "name": "account",
          "type": "address"
        }
      ],
      "name": "isExecutor",
      "outputs": [
        {
          "internalType": "bool",
          "name": "",
          "type": "bool"
        }
      ],
      "stateMutability": "view",
      "type": "function"
    },
    {
      "inputs": [
        {
          "internalType": "uint256",
          "name": "tokenId",
          "type": "uint256"
        }
      ],
      "name": "isInvestmentMatured",
      "outputs": [
        {
          "internalType": "bool",
          "name": "",
          "type": "bool"
        }
      ],
      "stateMutability": "view",
      "type": "function"
    },
    {
      "inputs": [
        {
          "internalType": "uint256",
          "name": "tokenId",
          "type": "uint256"
        }
      ],
      "name": "isInvestmentOpen",
      "outputs": [
        {
          "internalType": "bool",
          "name": "",
          "type": "bool"
        }
      ],
      "stateMutability": "view",
      "type": "function"
    },
    {
      "inputs": [
        {
          "internalType": "uint256",
          "name": "tokenId",
          "type": "uint256"
        }
      ],
      "name": "isTransferLocked",
      "outputs": [
        {
          "internalType": "bool",
          "name": "",
          "type": "bool"
        }
      ],
      "stateMutability": "view",
      "type": "function"
    },
    {
      "inputs": [
        {
          "internalType": "uint256",
          "name": "tokenId",
          "type": "uint256"
        }
      ],
      "name": "lockTransfer",
      "outputs": [],
      "stateMutability": "nonpayable",
      "type": "function"
    },
    {
      "inputs": [
        {
          "internalType": "uint256",
          "name": "tokenId",
          "type": "uint256"
        }
      ],
      "name": "markAsRedeemed",
      "outputs": [],
      "stateMutability": "nonpayable",
      "type": "function"
    },
    {
      "inputs": [
        {
          "internalType": "uint256",
          "name": "tokenId",
          "type": "uint256"
        }
      ],
      "name": "markRewardClaimed",
      "outputs": [],
      "stateMutability": "nonpayable",
      "type": "function"
    },
    {
      "inputs": [
        {
          "internalType": "address",
          "name": "to",
          "type": "address"
        },
        {
          "internalType": "uint256",
          "name": "roundId",
          "type": "uint256"
        },
        {
          "internalType": "uint256",
          "name": "tokenPrice",
          "type": "uint256"
        },
        {
          "internalType": "uint256",
          "name": "rewardPercentage",
          "type": "uint256"
        },
        {
          "internalType": "uint256",
          "name": "closeDateInvestment",
          "type": "uint256"
        },
        {
          "internalType": "uint256",
          "name": "endDateInvestment",
          "type": "uint256"
        }
      ],
      "name": "mintNFT",
      "outputs": [
        {
          "internalType": "uint256",
          "name": "",
          "type": "uint256"
        }
      ],
      "stateMutability": "nonpayable",
      "type": "function"
    },
    {
      "inputs": [],
      "name": "name",
      "outputs": [
        {
          "internalType": "string",
          "name": "",
          "type": "string"
        }
      ],
      "stateMutability": "view",
      "type": "function"
    },
    {
      "inputs": [],
      "name": "owner",
      "outputs": [
        {
          "internalType": "address",
          "name": "",
          "type": "address"
        }
      ],
      "stateMutability": "view",
      "type": "function"
    },
    {
      "inputs": [
        {
          "internalType": "uint256",
          "name": "tokenId",
          "type": "uint256"
        }
      ],
      "name": "ownerOf",
      "outputs": [
        {
          "internalType": "address",
          "name": "",
          "type": "address"
        }
      ],
      "stateMutability": "view",
      "type": "function"
    },
    {
      "inputs": [],
      "name": "pause",
      "outputs": [],
      "stateMutability": "nonpayable",
      "type": "function"
    },
    {
      "inputs": [],
      "name": "paused",
      "outputs": [
        {
          "internalType": "bool",
          "name": "",
          "type": "bool"
        }
      ],
      "stateMutability": "view",
      "type": "function"
    },
    {
      "inputs": [],
      "name": "renounceOwnership",
      "outputs": [],
      "stateMutability": "nonpayable",
      "type": "function"
    },
    {
      "inputs": [
        {
          "internalType": "bytes32",
          "name": "role",
          "type": "bytes32"
        },
        {
          "internalType": "address",
          "name": "callerConfirmation",
          "type": "address"
        }
      ],
      "name": "renounceRole",
      "outputs": [],
      "stateMutability": "nonpayable",
      "type": "function"
    },
    {
      "inputs": [
        {
          "internalType": "bytes32",
          "name": "role",
          "type": "bytes32"
        },
        {
          "internalType": "address",
          "name": "account",
          "type": "address"
        }
      ],
      "name": "revokeRole",
      "outputs": [],
      "stateMutability": "nonpayable",
      "type": "function"
    },
    {
      "inputs": [
        {
          "internalType": "address",
          "name": "from",
          "type": "address"
        },
        {
          "internalType": "address",
          "name": "to",
          "type": "address"
        },
        {
          "internalType": "uint256",
          "name": "tokenId",
          "type": "uint256"
        }
      ],
      "name": "safeTransferFrom",
      "outputs": [],
      "stateMutability": "nonpayable",
      "type": "function"
    },
    {
      "inputs": [
        {
          "internalType": "address",
          "name": "from",
          "type": "address"
        },
        {
          "internalType": "address",
          "name": "to",
          "type": "address"
        },
        {
          "internalType": "uint256",
          "name": "tokenId",
          "type": "uint256"
        },
        {
          "internalType": "bytes",
          "name": "data",
          "type": "bytes"
        }
      ],
      "name": "safeTransferFrom",
      "outputs": [],
      "stateMutability": "nonpayable",
      "type": "function"
    },
    {
      "inputs": [
        {
          "internalType": "address",
          "name": "operator",
          "type": "address"
        },
        {
          "internalType": "bool",
          "name": "approved",
          "type": "bool"
        }
      ],
      "name": "setApprovalForAll",
      "outputs": [],
      "stateMutability": "nonpayable",
      "type": "function"
    },
    {
      "inputs": [
        {
          "internalType": "string",
          "name": "newBaseURI",
          "type": "string"
        }
      ],
      "name": "setBaseURI",
      "outputs": [],
      "stateMutability": "nonpayable",
      "type": "function"
    },
    {
      "inputs": [
        {
          "internalType": "uint256",
          "name": "tokenId",
          "type": "uint256"
        },
        {
          "internalType": "string",
          "name": "newTokenURI",
          "type": "string"
        }
      ],
      "name": "setTokenURI",
      "outputs": [],
      "stateMutability": "nonpayable",
      "type": "function"
    },
    {
      "inputs": [
        {
          "internalType": "uint256",
          "name": "tokenId",
          "type": "uint256"
        },
        {
          "internalType": "string",
          "name": "metadata",
          "type": "string"
        }
      ],
      "name": "stampMetadata",
      "outputs": [],
      "stateMutability": "nonpayable",
      "type": "function"
    },
    {
      "inputs": [
        {
          "internalType": "bytes4",
          "name": "interfaceId",
          "type": "bytes4"
        }
      ],
      "name": "supportsInterface",
      "outputs": [
        {
          "internalType": "bool",
          "name": "",
          "type": "bool"
        }
      ],
      "stateMutability": "view",
      "type": "function"
    },
    {
      "inputs": [],
      "name": "symbol",
      "outputs": [
        {
          "internalType": "string",
          "name": "",
          "type": "string"
        }
      ],
      "stateMutability": "view",
      "type": "function"
    },
    {
      "inputs": [
        {
          "internalType": "uint256",
          "name": "index",
          "type": "uint256"
        }
      ],
      "name": "tokenByIndex",
      "outputs": [
        {
          "internalType": "uint256",
          "name": "",
          "type": "uint256"
        }
      ],
      "stateMutability": "view",
      "type": "function"
    },
    {
      "inputs": [
        {
          "internalType": "uint256",
          "name": "",
          "type": "uint256"
        }
      ],
      "name": "tokenExists",
      "outputs": [
        {
          "internalType": "bool",
          "name": "",
          "type": "bool"
        }
      ],
      "stateMutability": "view",
      "type": "function"
    },
    {
      "inputs": [
        {
          "internalType": "address",
          "name": "owner",
          "type": "address"
        },
        {
          "internalType": "uint256",
          "name": "index",
          "type": "uint256"
        }
      ],
      "name": "tokenOfOwnerByIndex",
      "outputs": [
        {
          "internalType": "uint256",
          "name": "",
          "type": "uint256"
        }
      ],
      "stateMutability": "view",
      "type": "function"
    },
    {
      "inputs": [
        {
          "internalType": "uint256",
          "name": "tokenId",
          "type": "uint256"
        }
      ],
      "name": "tokenURI",
      "outputs": [
        {
          "internalType": "string",
          "name": "",
          "type": "string"
        }
      ],
      "stateMutability": "view",
      "type": "function"
    },
    {
      "inputs": [],
      "name": "totalSupply",
      "outputs": [
        {
          "internalType": "uint256",
          "name": "",
          "type": "uint256"
        }
      ],
      "stateMutability": "view",
      "type": "function"
    },
    {
      "inputs": [
        {
          "internalType": "address",
          "name": "from",
          "type": "address"
        },
        {
          "internalType": "address",
          "name": "to",
          "type": "address"
        },
        {
          "internalType": "uint256",
          "name": "tokenId",
          "type": "uint256"
        }
      ],
      "name": "transferFrom",
      "outputs": [],
      "stateMutability": "nonpayable",
      "type": "function"
    },
    {
      "inputs": [
        {
          "internalType": "address",
          "name": "newOwner",
          "type": "address"
        }
      ],
      "name": "transferOwner",
      "outputs": [],
      "stateMutability": "nonpayable",
      "type": "function"
    },
    {
      "inputs": [
        {
          "internalType": "address",
          "name": "newOwner",
          "type": "address"
        }
      ],
      "name": "transferOwnership",
      "outputs": [],
      "stateMutability": "nonpayable",
      "type": "function"
    },
    {
      "inputs": [
        {
          "internalType": "uint256",
          "name": "tokenId",
          "type": "uint256"
        }
      ],
      "name": "unlockTransfer",
      "outputs": [],
      "stateMutability": "nonpayable",
      "type": "function"
    },
    {
      "inputs": [],
      "name": "unpause",
      "outputs": [],
      "stateMutability": "nonpayable",
      "type": "function"
    },
    {
      "inputs": [
        {
          "internalType": "address",
          "name": "account",
          "type": "address"
        },
        {
          "internalType": "bool",
          "name": "grant",
          "type": "bool"
        }
      ],
      "name": "updateExecutorRole",
      "outputs": [],
      "stateMutability": "nonpayable",
      "type": "function"
    }
  ],
  "bytecode": "0x6080604052346103af57604080519081016001600160401b038111828210176102dc5760409081526011825270111688125b9d995cdd1b595b9d08139195607a1b602083015280519081016001600160401b038111828210176102dc576040526005815264111693919560da1b602082015281516001600160401b0381116102dc5761008c6000546103b4565b601f8111610361575b50602092601f82116001146102fd57928192936000926102f2575b50508160011b916000199060031b1c1916176000555b80516001600160401b0381116102dc576100e16001546103b4565b601f8111610282575b50602091601f821160011461021e57918192600092610213575b50508160011b916000199060031b1c1916176001555b33156101fd57600a8054336001600160a01b0319821681179092556001600160a01b03167f8be0079c531659141344cd1fd0a4f28419497f9722a3daafe3b4186f6b6457e0600080a361016c33610405565b5061017633610481565b50610182600e546103b4565b601f81116101be575b7f68747470733a2f2f6170692e647a6e66742e636f6d2f6d657461646174612f3e600e556040516144cc908161051a8239f35b600e6000526101f790601f0160051c7fbb7b4a454dc3493923482f07822329ed19e8244eff582cc204f8554c3620c3fd908101906103ee565b3861018b565b631e4fbdf760e01b600052600060045260246000fd5b015190503880610104565b601f198216926001600052806000209160005b85811061026a57508360019510610251575b505050811b0160015561011a565b015160001960f88460031b161c19169055388080610243565b91926020600181928685015181550194019201610231565b60016000526102cc907fb10e2d527612073b26eecdfd717e6a320cf44b4afac2b0732d9fcbe2b7fa0cf6601f840160051c810191602085106102d2575b601f0160051c01906103ee565b386100ea565b90915081906102bf565b634e487b7160e01b600052604160045260246000fd5b0151905038806100b0565b601f1982169360008052806000209160005b8681106103495750836001959610610330575b505050811b016000556100c6565b015160001960f88460031b161c19169055388080610322565b9192602060018192868501518155019401920161030f565b600080526103a9907f290decd9548b62a8d60345a988386fc84ba6bc95484008f6362f93160ef3e563601f840160051c810191602085106102d257601f0160051c01906103ee565b38610095565b600080fd5b90600182811c921680156103e4575b60208310146103ce57565b634e487b7160e01b600052602260045260246000fd5b91607f16916103c3565b8181106103f9575050565b600081556001016103ee565b6001600160a01b0381166000908152600080516020614a06833981519152602052604090205460ff1661047b576001600160a01b03166000818152600080516020614a0683398151915260205260408120805460ff191660011790553391906000805160206149e68339815191528180a4600190565b50600090565b6001600160a01b0381166000908152600080516020614a26833981519152602052604090205460ff1661047b576001600160a01b03166000818152600080516020614a2683398151915260205260408120805460ff191660011790553391907fd8aa0f3194971a2a116679f7c2090f6939c8d4e01a2a8d7e41d55e5351469e63906000805160206149e68339815191529080a460019056fe61010080604052600436101561001457600080fd5b60003560e01c908162923f9e1461285c5750806301ffc9a7146127bb578063043ada68146126eb57806306fdde031461264657806307bd02651461261d578063081812fc146125ff578063095ea7b3146125105780630981551714612486578063162094c4146122f457806318160ddd146122d657806318d8e2a5146121c657806319f477d91461214a5780631ba9a77d14611d5f5780631d3653e314611c4b57806323b872dd14611c34578063248a9ca314611c075780632f2ff15d14611bc75780632f745c5914611ba0578063364b610114611b5457806336568abe14611b0e5780633f4ba83a14611aa557806342842e0e14611a7557806342966c68146118d45780634f6ccce7146118835780634fb2e45d1461186257806355f804b31461169a5780635a0ea3d41461155f5780635a7f04d51461143c5780635c8f45b1146112bc5780635c975abb146112995780636352211e146112695780636c0360eb1461124d57806370a0823114611222578063715018a6146111c55780638456cb591461116b5780638da5cb5b146111425780638debb546146110bd5780638e25e2e61461082657806391d148541461107057806395d89b4114610fa35780639913627f14610f525780639ad2d3e014610c25578063a217fddf14610c09578063a22cb46514610b7b578063acb7ebfa14610aaf578063b88d4fde14610a1b578063badd5c4d14610927578063bed62f351461082b578063c0bcc07a14610826578063c2bf0fa1146107da578063c87b56dd146107a3578063d547741f1461075e578063d9852f8d146106b7578063debfda3014610667578063e01beb9d146104d3578063e985e9c514610478578063f2fde38b14610429578063f72484eb1461037f5763f968dc18146102a857600080fd5b3461037a576102b6366128dd565b6102be6137c0565b6102c661384b565b60005b815181101561037857806102df60019284612e66565b518060005260116020526102fa60ff60406000205416612e90565b80600052601060205261031b60ff60076040600020015460a01c1615612ed3565b80600052601060205260076040600020018360a81b60ff60a81b19825416179055828060a01b0361034b82613868565b16907f5dd59f4285b36241394b73f8f7ae03d0290b030a86803cf2562ecf33eeb617bd600080a3016102c9565b005b600080fd5b3461037a5761038d366128dd565b6103956137c0565b61039d61384b565b60005b815181101561037857806103b660019284612e66565b518060005260116020526103d160ff60406000205416612e90565b806000526010602052600760406000200160ff60b01b198154169055828060a01b036103fc82613868565b16907f7e82599d85d81c67491320fb867ecdbad8d1781541890eed2953553e7870204d600080a3016103a0565b3461037a57602036600319011261037a576104426129a3565b61044a614114565b6001600160a01b03811615610462576103789061421c565b631e4fbdf760e01b600052600060045260246000fd5b3461037a57604036600319011261037a576104916129a3565b6104996129b9565b9060018060a01b0316600052600560205260406000209060018060a01b0316600052602052602060ff604060002054166040519015158152f35b3461037a576104e136612af0565b336000908152600080516020614457833981519152602052604090205491929161050d9060ff16613069565b81600052601160205261052760ff60406000205416612e90565b8160005260106020526008604060002001926001600160401b0382116106515761055b826105558654612cb6565b86613007565b600093601f83116001146105cf576105ad83807f0aa07a7d01a8e97dec64df7f721c779f94884dfd3f5a0c61bfc2dd469032661d96976000916105c4575b508160011b916000199060031b1c19161790565b90555b6105bf60405192839283613041565b0390a2005b905084013588610599565b80855260208520601f19841695805b8781106106395750847f0aa07a7d01a8e97dec64df7f721c779f94884dfd3f5a0c61bfc2dd469032661d96971061061f575b5050600183811b0190556105b0565b830135600019600386901b60f8161c191690558580610610565b909160206001819285880135815501930191016105de565b634e487b7160e01b600052604160045260246000fd5b3461037a57602036600319011261037a576106806129a3565b6001600160a01b03166000908152600080516020614457833981519152602090815260409182902054915160ff9092161515825290f35b3461037a57602036600319011261037a573360009081526000805160206144578339815191526020526040902054600435906106f59060ff16613069565b80600052601160205261070f60ff60406000205416612e90565b8060005260106020526007604060002001600160b01b60ff60b01b198254161790557f90e929fbd463dd0bab90901d998cd0d0908551c0e028b559f240ef01b23058be602060405160018152a2005b3461037a57604036600319011261037a5761037860043561077d6129b9565b9061079e61079982600052600b60205260016040600020015490565b61380e565b61408e565b3461037a57602036600319011261037a576107d66107c2600435613703565b60405191829160208352602083019061297e565b0390f35b3461037a57602036600319011261037a5760043580600052601160205261080860ff60406000205416612e90565b60005260106020526020600560406000200154421115604051908152f35b612b91565b3461037a57602036600319011261037a573360009081526000805160206144578339815191526020526040902054600435906108699060ff16613069565b80600052601160205261088360ff60406000205416612e90565b80600052601060205260ff60076040600020015460a01c16156108e957806000526010602052600760406000200160ff60b01b1981541690557f90e929fbd463dd0bab90901d998cd0d0908551c0e028b559f240ef01b23058be602060405160008152a2005b60405162461bcd60e51b8152602060048201526016602482015275135d5cdd081899481c995919595b595908199a5c9cdd60521b6044820152606490fd5b3461037a5760207f9440a95c3c13d1dc9ebcfdcf7b9963a680dd7ca9d62246a91a9be07e6de1f86f61095836612c87565b9290610962614114565b83156109ca57600080516020614477833981519152600052600b6020527f722c076037ad8ffdcc6741eab5f84938edc5ad0e2aada3e8603ecd986134c0fc546109aa9061380e565b6109b381613ecb565b505b60405193151584526001600160a01b031692a2005b600080516020614477833981519152600052600b6020527f722c076037ad8ffdcc6741eab5f84938edc5ad0e2aada3e8603ecd986134c0fc54610a0c9061380e565b610a1581613ff8565b506109b5565b3461037a57608036600319011261037a57610a346129a3565b610a3c6129b9565b90604435606435926001600160401b03841161037a573660238501121561037a57836004013592610a6c84612e4b565b93610a7a60405195866128a5565b808552366024828801011161037a57602081600092602461037899018389013786010152610aa983838361327c565b33614265565b3461037a57602036600319011261037a576004356000526010602052604060002080546107d660018301549260ff60028201549160038101546004820154600583015490600684015492610b0a600860078701549601612da9565b966040519a8b9a8b5260208b015260408a01526060890152608088015260a087015260c086015260018060a01b03811660e0860152818160a01c161515610100860152818160a81c16151561012086015260b01c16151561014084015261018061016084015261018083019061297e565b3461037a57610b8936612c87565b6001600160a01b03909116908115610bf45733600052600560205260406000208260005260205260406000209015159060ff1981541660ff83161790556040519081527f17307eab39ab6107e8899845ad3d59bd9653f200f220920489ca2b5937696c3160203392a3005b50630b61174360e31b60005260045260246000fd5b3461037a57600036600319011261037a57602060405160008152f35b3461037a5760c036600319011261037a57610c3e6129a3565b33600090815260008051602061445783398151915260205260409020546084359160a43591610c6f9060ff16613069565b610c7761384b565b610c8b6001600160a01b03821615156130b5565b610c986044351515613101565b606435151580610f44575b610cac9061314d565b610cb7428411613199565b610cc28383116131e5565b600d5491610ccf8361326d565b600d5560405193610cdf85612889565b83855260243560208601526044356040860152606435606086015242608086015260a085015260c084015260018060a01b03811660e0840152600061010084015260006101208401526000610140840152602092604051610d4085826128a5565b600080825261016083810192909252848152601086526040908190208351815560208401516001820155908301516002820155606083015160038201556080830151600482015560a080840151600583015560c0840151600683015560e084015160078301805461010087015161012088015161014089015190151560a81b60ff60a81b1691151590951b60ff60a01b166001600160a01b039094166001600160b81b031990921691909117929092179190911791151560b01b60ff60b01b169190911790556008019101518051906001600160401b03821161065157610e3182610e2b8554612cb6565b85613007565b8590601f8311600114610edd57610e61929160009183610ed2575b50508160011b916000199060031b1c19161790565b90555b81600052601183526040600020600160ff19825416179055610e86828261389f565b60408051604435815260643585820152602435926001600160a01b03169184917f19cc59039f8eb7ba436b5b291277e03e5209d6d8e48c1bdba4716897fc614b999190a4604051908152f35b015190508780610e4c565b90601f1983169184600052876000209260005b89828210610f2e575050908460019594939210610f15575b505050811b019055610e64565b015160001960f88460031b161c19169055868080610f08565b6001859682939686015181550195019301610ef0565b506127106064351115610ca3565b3461037a57602036600319011261037a57600435806000526011602052610f8060ff60406000205416612e90565b6000526010602052602060ff60076040600020015460b01c166040519015158152f35b3461037a57600036600319011261037a576040516000600154610fc581612cb6565b808452906001811690811561104c5750600114610fed575b6107d6836107c2818503826128a5565b600160009081527fb10e2d527612073b26eecdfd717e6a320cf44b4afac2b0732d9fcbe2b7fa0cf6939250905b808210611032575090915081016020016107c2610fdd565b91926001816020925483858801015201910190929161101a565b60ff191660208086019190915291151560051b840190910191506107c29050610fdd565b3461037a57604036600319011261037a576110896129b9565b600435600052600b60205260406000209060018060a01b0316600052602052602060ff604060002054166040519015158152f35b3461037a57602036600319011261037a576110d66129a3565b6001600160a01b03811615611105576110f16107d69161413d565b604051918291602083526020830190612b23565b60405162461bcd60e51b8152602060048201526015602482015274496e76616c6964206f776e6572206164647265737360581b6044820152606490fd5b3461037a57600036600319011261037a57600a546040516001600160a01b039091168152602090f35b3461037a57600036600319011261037a57611184614114565b61118c61384b565b600160ff19600c541617600c557f62e78cea01bee320cd4e420270b5ea74000d11b0c9f74754ebdbfc544b05a2586020604051338152a1005b3461037a57600036600319011261037a576111de614114565b600a80546001600160a01b031981169091556000906001600160a01b03167f8be0079c531659141344cd1fd0a4f28419497f9722a3daafe3b4186f6b6457e08280a3005b3461037a57602036600319011261037a5760206112456112406129a3565b6136cd565b604051908152f35b3461037a57600036600319011261037a576107d66107c2612cf0565b3461037a57602036600319011261037a576020611287600435613868565b6040516001600160a01b039091168152f35b3461037a57600036600319011261037a57602060ff600c54166040519015158152f35b3461037a57602036600319011261037a576112d56129a3565b6001600160a01b038116156113fe576112ed9061413d565b6112f78151612fa0565b9060005b81518110156113d4578061131160019284612e66565b51600052601060205260406000206113b260086040519261133184612889565b80548452858101546020850152600281015460408501526003810154606085015260048101546080850152600581015460a0850152600681015460c085015260ff6007820154878060a01b03811660e0870152818160a01c161515610100870152818160a81c16151561012087015260b01c16151561014085015201612da9565b6101608201526113c28286612e66565b526113cd8185612e66565b50016112fb565b506107d66113f092604051938493604085526040850190612b23565b908382036020850152612a6a565b60405162461bcd60e51b8152602060048201526016602482015275496e76616c69642077616c6c6574206164647265737360501b6044820152606490fd5b3461037a57602036600319011261037a5760043580600052601160205261146a60ff60406000205416612e90565b6000526010602052604060002060405161148381612889565b815481526001820154602082015260028201546040820152600382015460608201526004820154608082015260058201549060a08101918252600683015460c0820152610160611514600860078601549560018060a01b03871660e086015260ff610100860197818160a01c1615158952818160a81c16151561012088015260b01c16151561014086015201612da9565b91015251906301e13380820180921161154957602091421015908161153f575b506040519015158152f35b9050511582611534565b634e487b7160e01b600052601160045260246000fd5b3461037a57604036600319011261037a576115786129a3565b602435906001600160a01b0381161561165e57611594816136cd565b61159d8161323b565b92600092835b8381106115f55785856115b58161323b565b9160005b8281106115d657604051602080825281906107d690820187612b23565b806115e360019284612e66565b516115ee8287612e66565b52016115b9565b6115ff818361360f565b80600052601160205260ff6040600020541680611644575b611625575b506001016115a3565b8561163d91611637600194988a612e66565b5261326d565b949061161c565b508060005260106020528360016040600020015414611617565b60405162461bcd60e51b8152602060048201526014602482015273496e76616c69642075736572206164647265737360601b6044820152606490fd5b3461037a57602036600319011261037a576004356001600160401b03811161037a576116ca903690600401612ac3565b6116d2614114565b6001600160401b038111610651576116eb600e54612cb6565b601f8111611808575b50600091601f82116001146117685761174582807f6741b2fc379fad678116fe3d4d4b9a1a184ab53ba36b86ad0fa66340b1ab41ad9560009161175d57508160011b916000199060031b1c19161790565b600e555b61175860405192839283613041565b0390a1005b905083013586610599565b600e83527fbb7b4a454dc3493923482f07822329ed19e8244eff582cc204f8554c3620c3fd601f198316845b8181106117f0575093837f6741b2fc379fad678116fe3d4d4b9a1a184ab53ba36b86ad0fa66340b1ab41ad95106117d6575b5050600182811b01600e55611749565b820135600019600385901b60f8161c1916905583806117c6565b83860135835560209586019560019093019201611794565b600e600052611852907fbb7b4a454dc3493923482f07822329ed19e8244eff582cc204f8554c3620c3fd601f840160051c81019160208510611858575b601f0160051c0190612ff0565b826116f4565b9091508190611845565b3461037a57602036600319011261037a5761187b6129a3565b610442614114565b3461037a57602036600319011261037a576004356008548110156118bb576118ac6020916136b2565b90549060031b1c604051908152f35b63295f44f760e21b600052600060045260245260446000fd5b3461037a57602036600319011261037a5760043580600052601160205261190260ff60406000205416612e90565b61190b81613868565b6001600160a01b031633148015611a5b575b8015611a26575b156119e85761193281613868565b816000526011602052604060002060ff19815416905581600052601060205261199660086040600020600081556000600182015560006002820155600060038201556000600482015560006005820155600060068201556000600782015501613663565b81600052600f6020526119ac6040600020613663565b6119b63383613c24565b506001600160a01b0316907f8f0a80450bfbfadc6d05658c9dc494e43beb79be53b44adbb146c6d5040f8770600080a3005b60405162461bcd60e51b8152602060048201526016602482015275139bdd081bdddb995c881b9bdc88185c1c1c9bdd995960521b6044820152606490fd5b506001600160a01b03611a3882613868565b16600090815260056020908152604080832033845290915290205460ff16611924565b50336001600160a01b03611a6e83612f18565b161461191d565b3461037a57610378611a8636612b57565b9060405192611a966020856128a5565b60008452610aa983838361327c565b3461037a57600036600319011261037a57611abe614114565b600c5460ff811615611afd5760ff1916600c557f5db9ee0a495bf2e6ff9c91a7834c1ba4fdd244a5e8aa4e537bd38aeae4b073aa6020604051338152a1005b638dfc202b60e01b60005260046000fd5b3461037a57604036600319011261037a57611b276129b9565b336001600160a01b03821603611b43576103789060043561408e565b63334bd91960e11b60005260046000fd5b3461037a57602036600319011261037a57600435806000526011602052611b8260ff60406000205416612e90565b60005260106020526020600660406000200154421015604051908152f35b3461037a57604036600319011261037a576020611245611bbe6129a3565b6024359061360f565b3461037a57604036600319011261037a57610378600435611be66129b9565b90611c0261079982600052600b60205260016040600020015490565b613f69565b3461037a57602036600319011261037a576020611245600435600052600b60205260016040600020015490565b3461037a57610378611c4536612b57565b9161327c565b3461037a57602036600319011261037a57600435806000526011602052611c7960ff60406000205416612e90565b60005260106020526040600020604051611c9281612889565b8154815260018201546020820152600282015460408201526003820154606082015260048201546080820152600582015460a08201908152600683015460c083015260078301549160018060a01b03831660e0820152610160611d25600861010084019660ff8760a01c161515885260ff610120860197818160a81c161515895260b01c16151561014086015201612da9565b910152519162ed4e008301809311611549576020924210159182611d55575b508161153f57506040519015158152f35b5115915083611d44565b3461037a5760e036600319011261037a57611d786129a3565b336000908152600080516020614457833981519152602052604090205460243590611da59060ff16613069565b611dad61384b565b611dc16001600160a01b03831615156130b5565b8015158061213f575b1561210357611ddc6064351515613101565b611de9608435151561314d565b611df64260a43511613199565b611e0560a43560c435116131e5565b611e0e8161323b565b60c052602060805260005b818110611e39576040516080518152806107d6608051820160c051612b23565b600d54611e458161326d565b600d5580611e558360c051612e66565b526000611fa58583611f8a604051611e6c81612889565b828152608051810160e05260443560e05152611f6f6040820160643581526060830160843581526080840142815260a085019060a435825260c086019260c435845260e087019960018060a01b03168a526101008701948c86526101208801978d895261014081019a8e8c526040519e8f611ee9608051826128a5565b5261016082019e8f526000908152608051601090526040902060a08181529151815560e051516001820155915160028301559151600382015591516004830155915160058201559151600683015596516007909101805492516001600160a81b03199093166001600160a01b03929092169190911791151590961b60ff60a01b16178555565b51835460ff60a81b191690151560a81b60ff60a81b16178355565b51815460ff60b01b191690151560b01b60ff60b01b16179055565b518051906001600160401b03821161065157611fd582611fca600860a0510154612cb6565b600860a05101613007565b60805190601f831160011461208957918061200b92600196959460009261207e5750508160011b916000199060031b1c19161790565b600860a05101555b8060005260116080515260406000208360ff19825416179055612036818661389f565b6040516064358152608435608051820152604435917f19cc59039f8eb7ba436b5b291277e03e5209d6d8e48c1bdba4716897fc614b996040868060a01b03891693a401611e19565b015190508880610e4c565b90600860a051016000526080516000209160005b601f19851681106120ea57509183916001969594938794601f198116106120d1575b505050811b01600860a0510155612013565b015160001960f88460031b161c191690558780806120bf565b818301518455608051600190940193928301920161209d565b60405162461bcd60e51b8152602060048201526014602482015273496e76616c696420636f756e742028312d38302960601b6044820152606490fd5b506032811115611dca565b3461037a57602036600319011261037a573360009081526000805160206144578339815191526020526040902054600435906121889060ff16613069565b8060005260116020526121a260ff60406000205416612e90565b6000908152601060205260409020600701805460ff60a01b1916600160a01b179055005b3461037a57602036600319011261037a573360009081526000805160206144578339815191526020526040902054600435906122049060ff16613069565b80600052601160205261221e60ff60406000205416612e90565b80600052601060205260ff60076040600020015460a81c16612298576000818152601060205260409020600701805461ffff60a81b191661010160a81b1790556001600160a01b0361226f82613868565b16907f5dd59f4285b36241394b73f8f7ae03d0290b030a86803cf2562ecf33eeb617bd600080a3005b60405162461bcd60e51b815260206004820152601660248201527514995dd85c9908185b1c9958591e4818db185a5b595960521b6044820152606490fd5b3461037a57600036600319011261037a576020600854604051908152f35b3461037a5761230236612af0565b600a549192916001600160a01b031633148015612460575b1561241c5781600052601160205261233960ff60406000205416612e90565b81600052600f6020526040600020926001600160401b03821161065157612364826105558654612cb6565b600093601f83116001146123b5576105ad83807f931f495b9a8e5d8e61946ea5d61e021f636cfe213a801f97589c18c152e408bd96976000916105c457508160011b916000199060031b1c19161790565b80855260208520601f19841695805b8781106124045750847f931f495b9a8e5d8e61946ea5d61e021f636cfe213a801f97589c18c152e408bd96971061061f575050600183811b0190556105b0565b909160206001819285880135815501930191016123c4565b606460405162461bcd60e51b815260206004820152602060248201527f43616c6c6572206973206e6f74206f776e6572206e6f72206578656375746f726044820152fd5b50336000908152600080516020614457833981519152602052604090205460ff1661231a565b3461037a57612494366128dd565b61249e8151612fa0565b9060005b81518110156124fa57806124b860019284612e66565b51600052601060205260406000206124d860086040519261133184612889565b6101608201526124e88286612e66565b526124f38185612e66565b50016124a2565b604051602080825281906107d690820186612a6a565b3461037a57604036600319011261037a576125296129a3565b60243561253581613868565b331515806125ec575b806125be575b6125a95781906001600160a01b0384811691167f8c5be1e5ebec7d5bd14f71427d1e84f3dd0314c0f7b2291e5b200ac8c7c3b925600080a4600090815260046020526040902080546001600160a01b0319166001600160a01b03909216919091179055005b63a9fbf51f60e01b6000523360045260246000fd5b506001600160a01b038116600090815260056020908152604080832033845290915290205460ff1615612544565b506001600160a01b03811633141561253e565b3461037a57602036600319011261037a576020611287600435612f18565b3461037a57600036600319011261037a5760206040516000805160206144778339815191528152f35b3461037a57600036600319011261037a576040516000805461266781612cb6565b808452906001811690811561104c575060011461268e576107d6836107c2818503826128a5565b60008080527f290decd9548b62a8d60345a988386fc84ba6bc95484008f6362f93160ef3e563939250905b8082106126d1575090915081016020016107c2610fdd565b9192600181602092548385880101520191019092916126b9565b3461037a576126f9366128dd565b6127016137c0565b61270961384b565b60005b8151811015610378578061272260019284612e66565b5180600052601160205261273d60ff60406000205416612e90565b80600052601060205261275e60ff60076040600020015460a01c1615612ed3565b80600052601060205260076040600020018360a01b60ff60a01b19825416179055828060a01b0361278e82613868565b16907f7be71752f68c15e043adc3b4f121846c1f4860a79b7e8ecc932ddbc10e63b493600080a30161270c565b3461037a57602036600319011261037a5760043563ffffffff60e01b811680910361037a57602090637965db0b60e01b81149081156127ff57506040519015158152f35b63780e9d6360e01b811491508115612819575b5082611534565b6380ac58cd60e01b81149150811561284b575b811561283a575b5082612812565b6301ffc9a760e01b14905082612833565b635b5e139f60e01b8114915061282c565b3461037a57602036600319011261037a576020906004356000526011825260ff6040600020541615158152f35b61018081019081106001600160401b0382111761065157604052565b90601f801991011681019081106001600160401b0382111761065157604052565b6001600160401b0381116106515760051b60200190565b602060031982011261037a57600435906001600160401b03821161037a578060238301121561037a578160040135612914816128c6565b9261292260405194856128a5565b8184526024602085019260051b82010192831161037a57602401905b82821061294b5750505090565b813581526020918201910161293e565b60005b83811061296e5750506000910152565b818101518382015260200161295e565b906020916129978151809281855285808601910161295b565b601f01601f1916010190565b600435906001600160a01b038216820361037a57565b602435906001600160a01b038216820361037a57565b90610180610160612a6793805184526020810151602085015260408101516040850152606081015160608501526080810151608085015260a081015160a085015260c081015160c085015260018060a01b0360e08201511660e085015261010081015115156101008501526101208101511515610120850152610140810151151561014085015201519181610160820152019061297e565b90565b9080602083519182815201916020808360051b8301019401926000915b838310612a9657505050505090565b9091929394602080612ab4600193601f1986820301875289516129cf565b97019301930191939290612a87565b9181601f8401121561037a578235916001600160401b03831161037a576020838186019501011161037a57565b90604060031983011261037a5760043591602435906001600160401b03821161037a57612b1f91600401612ac3565b9091565b906020808351928381520192019060005b818110612b415750505090565b8251845260209384019390920191600101612b34565b606090600319011261037a576004356001600160a01b038116810361037a57906024356001600160a01b038116810361037a579060443590565b3461037a57602036600319011261037a57600435612bad612f3d565b50806000526011602052612bc860ff60406000205416612e90565b60005260106020526107d66040600020612c6d600860405192612bea84612889565b8054845260018101546020850152600281015460408501526003810154606085015260048101546080850152600581015460a0850152600681015460c085015260ff600782015460018060a01b03811660e0870152818160a01c161515610100870152818160a81c16151561012087015260b01c16151561014085015201612da9565b6101608201526040519182916020835260208301906129cf565b604090600319011261037a576004356001600160a01b038116810361037a5790602435801515810361037a5790565b90600182811c92168015612ce6575b6020831014612cd057565b634e487b7160e01b600052602260045260246000fd5b91607f1691612cc5565b60405190600082600e5491612d0483612cb6565b8083529260018116908115612d8a5750600114612d2a575b612d28925003836128a5565b565b50600e600090815290917fbb7b4a454dc3493923482f07822329ed19e8244eff582cc204f8554c3620c3fd5b818310612d6e575050906020612d2892820101612d1c565b6020919350806001915483858901015201910190918492612d56565b60209250612d2894915060ff191682840152151560051b820101612d1c565b9060405191826000825492612dbd84612cb6565b8084529360018116908115612e295750600114612de2575b50612d28925003836128a5565b90506000929192526020600020906000915b818310612e0d575050906020612d289282010138612dd5565b6020919350806001915483858901015201910190918492612df4565b905060209250612d2894915060ff191682840152151560051b82010138612dd5565b6001600160401b03811161065157601f01601f191660200190565b8051821015612e7a5760209160051b010190565b634e487b7160e01b600052603260045260246000fd5b15612e9757565b60405162461bcd60e51b8152602060048201526014602482015273151bdad95b88191bd95cc81b9bdd08195e1a5cdd60621b6044820152606490fd5b15612eda57565b60405162461bcd60e51b8152602060048201526016602482015275151bdad95b88185b1c9958591e481c995919595b595960521b6044820152606490fd5b612f2181613868565b506000908152600460205260409020546001600160a01b031690565b60405190612f4a82612889565b60606101608360008152600060208201526000604082015260008382015260006080820152600060a0820152600060c0820152600060e08201526000610100820152600061012082015260006101408201520152565b90612faa826128c6565b612fb760405191826128a5565b8281528092612fc8601f19916128c6565b019060005b828110612fd957505050565b602090612fe4612f3d565b82828501015201612fcd565b818110612ffb575050565b60008155600101612ff0565b9190601f811161301657505050565b612d28926000526020600020906020601f840160051c8301931061185857601f0160051c0190612ff0565b90918060409360208452816020850152848401376000828201840152601f01601f1916010190565b1561307057565b60405162461bcd60e51b815260206004820152601960248201527f43616c6c6572206973206e6f7420616e206578656375746f72000000000000006044820152606490fd5b156130bc57565b60405162461bcd60e51b815260206004820152601960248201527f496e76616c696420726563697069656e742061646472657373000000000000006044820152606490fd5b1561310857565b60405162461bcd60e51b815260206004820152601c60248201527f5072696365206d7573742062652067726561746572207468616e2030000000006044820152606490fd5b1561315457565b60405162461bcd60e51b815260206004820152601960248201527f496e76616c6964207265776172642070657263656e74616765000000000000006044820152606490fd5b156131a057565b60405162461bcd60e51b815260206004820152601c60248201527f436c6f73652064617465206d75737420626520696e20667574757265000000006044820152606490fd5b156131ec57565b60405162461bcd60e51b815260206004820152602160248201527f456e642064617465206d75737420626520616674657220636c6f7365206461746044820152606560f81b6064820152608490fd5b90613245826128c6565b61325260405191826128a5565b8281528092613263601f19916128c6565b0190602036910137565b60001981146115495760010190565b9091906001600160a01b03831680156135f957600060ff600c54166135b457331515948561355c575b848252600260205260408220546001600160a01b031695806134cd575b5085158015613498575b83835260036020526040832060018154019055858352600260205260408320846bffffffffffffffffffffffff60a01b8254161790558584887fddf252ad1be2c89b69c2b068fc378daa952ba7f163c4a11628f55a4df523b3ef8680a41561341b576008548583526009602052806040842055600160401b811015613407578561335f82600161337894016008556136b2565b90919082549060031b91821b91600019901b1916179055565b8286036133b2575b5050506001600160a01b031680830361339857505050565b6364283d7b60e01b60005260045260245260445260646000fd5b6133bb906136cd565b6000198101929083116133f3579060409181526006602052818120838252602052848282205584815260076020522055388080613380565b634e487b7160e01b82526011600452602482fd5b634e487b7160e01b83526041600452602483fd5b8583146133785761342b866136cd565b85835260076020526040832054908784526006602052604084209181810361346d575b5086845260076020528360408120558352602052816040812055613378565b818552826020526040852054818652836020528060408720558552600760205260408520553861344e565b600086815260046020526040902080546001600160a01b031916905586835260036020526040832080546000190190556132cc565b8061350d575b156134de57386132c2565b8482876134f757602491637e27328960e01b8252600452fd5b60449163177e802f60e01b825233600452602452fd5b50338614801561353b575b806134d35750848252600460205260408220546001600160a01b031633146134d3565b5085825260056020908152604080842033855290915282205460ff16613518565b848252601060205260ff600760408420015460b01c16156132a55760405162461bcd60e51b8152602060048201526015602482015274151bdad95b881d1c985b9cd9995c881b1bd8dad959605a1b6044820152606490fd5b60405162461bcd60e51b815260206004820152601b60248201527f546f6b656e207472616e73666572207768696c652070617573656400000000006044820152606490fd5b633250574960e11b600052600060045260246000fd5b613618816136cd565b8210156136445760018060a01b0316600052600660205260406000209060005260205260406000205490565b63295f44f760e21b60005260018060a01b031660045260245260446000fd5b61366d8154612cb6565b9081613677575050565b81601f60009311600114613689575055565b818352602083206136a591601f0160051c810190600101612ff0565b8082528160208120915555565b600854811015612e7a57600860005260206000200190600090565b6001600160a01b031680156136ed57600052600360205260406000205490565b6322718ad960e21b600052600060045260246000fd5b80600052601160205261371d60ff60406000205416612e90565b80600052600f6020526137336040600020612da9565b9061373c612cf0565b9180516137ba5750815161376157505060405161375a6020826128a5565b6000815290565b600561376f612a679261438e565b926020604051948261378a879451809285808801910161295b565b830161379e8251809385808501910161295b565b010164173539b7b760d91b815203601a198101845201826128a5565b91505090565b336000908152600080516020614457833981519152602052604090205460ff16156137e757565b63e2517d3f60e01b6000523360045260008051602061447783398151915260245260446000fd5b6000818152600b6020908152604080832033845290915290205460ff16156138335750565b63e2517d3f60e01b6000523360045260245260446000fd5b60ff600c541661385757565b63d93c066560e01b60005260046000fd5b6000818152600260205260409020546001600160a01b031690811561388b575090565b637e27328960e01b60005260045260246000fd5b90602090604051906138b183836128a5565b600082526001600160a01b0384169384156135f957600060ff600c5416613bdf578281526002855260408120546001600160a01b031680158015929083613bab575b8882526003885260408083208054600101905586835260028952822080546001600160a01b0319168a1790558589847fddf252ad1be2c89b69c2b068fc378daa952ba7f163c4a11628f55a4df523b3ef8580a415613b355760085485825260098852806040832055600160401b811015613b21578561335f82600161397b94016008556136b2565b878203613ad1575b5050613abb573b613995575b50505050565b916139d391819495936040519384928392630a85bd0160e11b845233600485015260006024850152604484015260806064840152608483019061297e565b03816000885af18091600091613a76575b5090613a3d5750503d15613a35573d906139fd82612e4b565b91613a0b60405193846128a5565b82523d60008284013e5b81519182613a325783633250574960e11b60005260045260246000fd5b01fd5b606090613a15565b909291506001600160e01b03191663757a42ff60e11b01613a6257503880808061398f565b633250574960e11b60005260045260246000fd5b8481813d8311613ab4575b613a8b81836128a5565b81010312613ab05751906001600160e01b031982168203613aad5750386139e4565b80fd5b5080fd5b503d613a81565b6339e3563760e11b600052600060045260246000fd5b613ada846136cd565b600019810191908211613b0d57808960409252600689528181208382528952868282205586815260078952205538613983565b634e487b7160e01b81526011600452602490fd5b634e487b7160e01b82526041600452602482fd5b81881461397b57613b45826136cd565b85825260078852604082205490838352600689526040832091818103613b83575b50868352600789528260408120558252875280604081205561397b565b818452828a526040842054818552838b52806040862055845260078a52604084205538613b66565b600086815260046020526040902080546001600160a01b0319169055828252600388526040822080546000190190556138f3565b60405162461bcd60e51b815260048101869052601b60248201527f546f6b656e207472616e73666572207768696c652070617573656400000000006044820152606490fd5b60ff600c54166135b4576000818152600260205260409020546001600160a01b03908116921680151580613e35575b5050811580159081613dfe575b600083815260026020526040812080546001600160a01b03191690558390857fddf252ad1be2c89b69c2b068fc378daa952ba7f163c4a11628f55a4df523b3ef8280a415613d75575060085481600052600960205280604060002055600160401b811015610651578161335f826001613cdc94016008556136b2565b600854600019810190811161154957816000526009602052613d03604060002054916136b2565b90549060031b1c613d178161335f846136b2565b60005260096020526040600020556000526009602052600060408120556008548015613d5f5760001901613d4a816136b2565b8154906000199060031b1b1916905560085590565b634e487b7160e01b600052603160045260246000fd5b15613cdc57613d83826136cd565b81600052600760205260406000205490836000526006602052604060002091818103613dcd575b508260005260076020526000604081205560005260205260006040812055613cdc565b8160005282602052604060002054816000528360205280604060002055600052600760205260406000205538613daa565b600083815260046020526040902080546001600160a01b031916905583600052600360205260406000206000198154019055613c60565b80613e77575b15613e465780613c53565b82613e605750637e27328960e01b60005260045260246000fd5b63177e802f60e01b60005260045260245260446000fd5b508083148015613ea7575b80613e3b57506000828152600460205260409020546001600160a01b03168114613e3b565b5082600052600560205260406000208160005260205260ff60406000205416613e82565b6001600160a01b0381166000908152600080516020614457833981519152602052604090205460ff16613f63576001600160a01b0316600081815260008051602061445783398151915260205260408120805460ff19166001179055339190600080516020614477833981519152907f2f8788117e7eff1d82e926ec794901d17c78024a50270940304540a733656f0d9080a4600190565b50600090565b6000818152600b602090815260408083206001600160a01b038616845290915290205460ff16613ff1576000818152600b602090815260408083206001600160a01b0395909516808452949091528120805460ff19166001179055339291907f2f8788117e7eff1d82e926ec794901d17c78024a50270940304540a733656f0d9080a4600190565b5050600090565b6001600160a01b0381166000908152600080516020614457833981519152602052604090205460ff1615613f63576001600160a01b0316600081815260008051602061445783398151915260205260408120805460ff19169055339190600080516020614477833981519152907ff6391f5c32d9c69d2a47ea670b442974b53935d1edc7fd64eb21e047a839171b9080a4600190565b6000818152600b602090815260408083206001600160a01b038616845290915290205460ff1615613ff1576000818152600b602090815260408083206001600160a01b0395909516808452949091528120805460ff19169055339291907ff6391f5c32d9c69d2a47ea670b442974b53935d1edc7fd64eb21e047a839171b9080a4600190565b600a546001600160a01b0316330361412857565b63118cdaa760e01b6000523360045260246000fd5b600d546000805b8281106141c657506141559061323b565b9160009060005b83811061416a575050505090565b80600052601160205260ff60406000205416806141a9575b61418f575b60010161415c565b916141a1818461163760019489612e66565b929050614187565b506141b381613868565b6001600160a01b03838116911614614182565b80600052601160205260ff60406000205416806141ff575b6141eb575b600101614144565b906141f760019161326d565b9190506141e3565b5061420981613868565b6001600160a01b038581169116146141de565b600a80546001600160a01b039283166001600160a01b0319821681179092559091167f8be0079c531659141344cd1fd0a4f28419497f9722a3daafe3b4186f6b6457e0600080a3565b823b614273575b5050505050565b604051630a85bd0160e11b81526001600160a01b0391821660048201529181166024830152604482019390935260806064820152911691602090829081906142bf90608483019061297e565b03816000865af1809160009161434b575b509061432957503d15614322573d6142e781612e4b565b906142f560405192836128a5565b81523d6000602083013e5b8051908161431d5782633250574960e11b60005260045260246000fd5b602001fd5b6060614300565b6001600160e01b03191663757a42ff60e11b01613a625750388080808061426c565b6020813d602011614386575b81614364602093836128a5565b81010312613ab05751906001600160e01b031982168203613aad5750386142d0565b3d9150614357565b801561443657600081805b61442257506143a781612e4b565b906143b560405192836128a5565b808252601f196143c482612e4b565b013660208401375b8092801561441b576000198201918211611549578193600a820660300192836030116115495784511115612e7a57600a9260f81b6001600160f81b03191660001a908401601f015304916143cc565b5050905090565b9061442e600a9161326d565b910480614399565b506040516144456040826128a5565b60018152600360fc1b60208201529056fe722c076037ad8ffdcc6741eab5f84938edc5ad0e2aada3e8603ecd986134c0fbd8aa0f3194971a2a116679f7c2090f6939c8d4e01a2a8d7e41d55e5351469e63a2646970667358221220c5be0d305baeb238c97a9c8f1109b84d18211a956593e43cf8b5e1159df77af664736f6c634300081c00332f8788117e7eff1d82e926ec794901d17c78024a50270940304540a733656f0ddf7de25b7f1fd6d0b5205f0e18f1f35bd7b8d84cce336588d184533ce43a6f76722c076037ad8ffdcc6741eab5f84938edc5ad0e2aada3e8603ecd986134c0fb",
  "linkReferences": {},
  "deployedLinkReferences": {},
  "immutableReferences": {},
  "inputSourceName": "project/contracts/DZNFT.sol",
  "buildInfoId": "solc-0_8_28-b649deeb86d289c44372fbce781fa4fec16a4924"
}