{
  "_format": "hh3-artifact-1",
  "contractName": "DZNFT",
  "sourceName": "contracts/DZNFT.sol",
  "abi": [
    {
      "inputs": [],
      "stateMutability": "nonpayable",
      "type": "constructor"
    },
    {
      "inputs": [],
      "name": "AccessControlBadConfirmation",
      "type": "error"
    },
    {
      "inputs": [
        {
          "internalType": "address",
          "name": "account",
          "type": "address"
        },
        {
          "internalType": "bytes32",
          "name": "neededRole",
          "type": "bytes32"
        }
      ],
      "name": "AccessControlUnauthorizedAccount",
      "type": "error"
    },
    {
      "inputs": [],
      "name": "ERC721EnumerableForbiddenBatchMint",
      "type": "error"
    },
    {
      "inputs": [
        {
          "internalType": "address",
          "name": "sender",
          "type": "address"
        },
        {
          "internalType": "uint256",
          "name": "tokenId",
          "type": "uint256"
        },
        {
          "internalType": "address",
          "name": "owner",
          "type": "address"
        }
      ],
      "name": "ERC721IncorrectOwner",
      "type": "error"
    },
    {
      "inputs": [
        {
          "internalType": "address",
          "name": "operator",
          "type": "address"
        },
        {
          "internalType": "uint256",
          "name": "tokenId",
          "type": "uint256"
        }
      ],
      "name": "ERC721InsufficientApproval",
      "type": "error"
    },
    {
      "inputs": [
        {
          "internalType": "address",
          "name": "approver",
          "type": "address"
        }
      ],
      "name": "ERC721InvalidApprover",
      "type": "error"
    },
    {
      "inputs": [
        {
          "internalType": "address",
          "name": "operator",
          "type": "address"
        }
      ],
      "name": "ERC721InvalidOperator",
      "type": "error"
    },
    {
      "inputs": [
        {
          "internalType": "address",
          "name": "owner",
          "type": "address"
        }
      ],
      "name": "ERC721InvalidOwner",
      "type": "error"
    },
    {
      "inputs": [
        {
          "internalType": "address",
          "name": "receiver",
          "type": "address"
        }
      ],
      "name": "ERC721InvalidReceiver",
      "type": "error"
    },
    {
      "inputs": [
        {
          "internalType": "address",
          "name": "sender",
          "type": "address"
        }
      ],
      "name": "ERC721InvalidSender",
      "type": "error"
    },
    {
      "inputs": [
        {
          "internalType": "uint256",
          "name": "tokenId",
          "type": "uint256"
        }
      ],
      "name": "ERC721NonexistentToken",
      "type": "error"
    },
    {
      "inputs": [
        {
          "internalType": "address",
          "name": "owner",
          "type": "address"
        },
        {
          "internalType": "uint256",
          "name": "index",
          "type": "uint256"
        }
      ],
      "name": "ERC721OutOfBoundsIndex",
      "type": "error"
    },
    {
      "inputs": [],
      "name": "EnforcedPause",
      "type": "error"
    },
    {
      "inputs": [],
      "name": "ExpectedPause",
      "type": "error"
    },
    {
      "inputs": [
        {
          "internalType": "address",
          "name": "owner",
          "type": "address"
        }
      ],
      "name": "OwnableInvalidOwner",
      "type": "error"
    },
    {
      "inputs": [
        {
          "internalType": "address",
          "name": "account",
          "type": "address"
        }
      ],
      "name": "OwnableUnauthorizedAccount",
      "type": "error"
    },
    {
      "anonymous": false,
      "inputs": [
        {
          "indexed": true,
          "internalType": "address",
          "name": "owner",
          "type": "address"
        },
        {
          "indexed": true,
          "internalType": "address",
          "name": "approved",
          "type": "address"
        },
        {
          "indexed": true,
          "internalType": "uint256",
          "name": "tokenId",
          "type": "uint256"
        }
      ],
      "name": "Approval",
      "type": "event"
    },
    {
      "anonymous": false,
      "inputs": [
        {
          "indexed": true,
          "internalType": "address",
          "name": "owner",
          "type": "address"
        },
        {
          "indexed": true,
          "internalType": "address",
          "name": "operator",
          "type": "address"
        },
        {
          "indexed": false,
          "internalType": "bool",
          "name": "approved",
          "type": "bool"
        }
      ],
      "name": "ApprovalForAll",
      "type": "event"
    },
    {
      "anonymous": false,
      "inputs": [
        {
          "indexed": false,
          "internalType": "string",
          "name": "newBaseURI",
          "type": "string"
        }
      ],
      "name": "BaseURIUpdated",
      "type": "event"
    },
    {
      "anonymous": false,
      "inputs": [
        {
          "indexed": true,
          "internalType": "address",
          "name": "account",
          "type": "address"
        },
        {
          "indexed": false,
          "internalType": "bool",
          "name": "granted",
          "type": "bool"
        }
      ],
      "name": "ExecutorRoleUpdated",
      "type": "event"
    },
    {
      "anonymous": false,
      "inputs": [
        {
          "indexed": true,
          "internalType": "uint256",
          "name": "tokenId",
          "type": "uint256"
        },
        {
          "indexed": false,
          "internalType": "string",
          "name": "metadata",
          "type": "string"
        }
      ],
      "name": "MetadataStamped",
      "type": "event"
    },
    {
      "anonymous": false,
      "inputs": [
        {
          "indexed": true,
          "internalType": "uint256",
          "name": "tokenId",
          "type": "uint256"
        },
        {
          "indexed": true,
          "internalType": "address",
          "name": "owner",
          "type": "address"
        }
      ],
      "name": "NFTBurned",
      "type": "event"
    },
    {
      "anonymous": false,
      "inputs": [
        {
          "indexed": true,
          "internalType": "uint256",
          "name": "tokenId",
          "type": "uint256"
        },
        {
          "indexed": true,
          "internalType": "address",
          "name": "buyer",
          "type": "address"
        },
        {
          "indexed": true,
          "internalType": "uint256",
          "name": "roundId",
          "type": "uint256"
        },
        {
          "indexed": false,
          "internalType": "uint256",
          "name": "tokenPrice",
          "type": "uint256"
        },
        {
          "indexed": false,
          "internalType": "uint256",
          "name": "rewardPercentage",
          "type": "uint256"
        }
      ],
      "name": "NFTMinted",
      "type": "event"
    },
    {
      "anonymous": false,
      "inputs": [
        {
          "indexed": true,
          "internalType": "address",
          "name": "previousOwner",
          "type": "address"
        },
        {
          "indexed": true,
          "internalType": "address",
          "name": "newOwner",
          "type": "address"
        }
      ],
      "name": "OwnershipTransferred",
      "type": "event"
    },
    {
      "anonymous": false,
      "inputs": [
        {
          "indexed": false,
          "internalType": "address",
          "name": "account",
          "type": "address"
        }
      ],
      "name": "Paused",
      "type": "event"
    },
    {
      "anonymous": false,
      "inputs": [
        {
          "indexed": true,
          "internalType": "uint256",
          "name": "tokenId",
          "type": "uint256"
        },
        {
          "indexed": true,
          "internalType": "address",
          "name": "claimer",
          "type": "address"
        }
      ],
      "name": "RewardClaimed",
      "type": "event"
    },
    {
      "anonymous": false,
      "inputs": [
        {
          "indexed": true,
          "internalType": "bytes32",
          "name": "role",
          "type": "bytes32"
        },
        {
          "indexed": true,
          "internalType": "bytes32",
          "name": "previousAdminRole",
          "type": "bytes32"
        },
        {
          "indexed": true,
          "internalType": "bytes32",
          "name": "newAdminRole",
          "type": "bytes32"
        }
      ],
      "name": "RoleAdminChanged",
      "type": "event"
    },
    {
      "anonymous": false,
      "inputs": [
        {
          "indexed": true,
          "internalType": "bytes32",
          "name": "role",
          "type": "bytes32"
        },
        {
          "indexed": true,
          "internalType": "address",
          "name": "account",
          "type": "address"
        },
        {
          "indexed": true,
          "internalType": "address",
          "name": "sender",
          "type": "address"
        }
      ],
      "name": "RoleGranted",
      "type": "event"
    },
    {
      "anonymous": false,
      "inputs": [
        {
          "indexed": true,
          "internalType": "bytes32",
          "name": "role",
          "type": "bytes32"
        },
        {
          "indexed": true,
          "internalType": "address",
          "name": "account",
          "type": "address"
        },
        {
          "indexed": true,
          "internalType": "address",
          "name": "sender",
          "type": "address"
        }
      ],
      "name": "RoleRevoked",
      "type": "event"
    },
    {
      "anonymous": false,
      "inputs": [
        {
          "indexed": true,
          "internalType": "uint256",
          "name": "tokenId",
          "type": "uint256"
        },
        {
          "indexed": false,
          "internalType": "string",
          "name": "newTokenURI",
          "type": "string"
        }
      ],
      "name": "TokenURIUpdated",
      "type": "event"
    },
    {
      "anonymous": false,
      "inputs": [
        {
          "indexed": true,
          "internalType": "address",
          "name": "from",
          "type": "address"
        },
        {
          "indexed": true,
          "internalType": "address",
          "name": "to",
          "type": "address"
        },
        {
          "indexed": true,
          "internalType": "uint256",
          "name": "tokenId",
          "type": "uint256"
        }
      ],
      "name": "Transfer",
      "type": "event"
    },
    {
      "anonymous": false,
      "inputs": [
        {
          "indexed": true,
          "internalType": "uint256",
          "name": "tokenId",
          "type": "uint256"
        },
        {
          "indexed": false,
          "internalType": "bool",
          "name": "locked",
          "type": "bool"
        }
      ],
      "name": "TransferLockUpdated",
      "type": "event"
    },
    {
      "anonymous": false,
      "inputs": [
        {
          "indexed": false,
          "internalType": "address",
          "name": "account",
          "type": "address"
        }
      ],
      "name": "Unpaused",
      "type": "event"
    },
    {
      "inputs": [],
      "name": "DEFAULT_ADMIN_ROLE",
      "outputs": [
        {
          "internalType": "bytes32",
          "name": "",
          "type": "bytes32"
        }
      ],
      "stateMutability": "view",
      "type": "function"
    },
    {
      "inputs": [],
      "name": "EXECUTOR_ROLE",
      "outputs": [
        {
          "internalType": "bytes32",
          "name": "",
          "type": "bytes32"
        }
      ],
      "stateMutability": "view",
      "type": "function"
    },
    {
      "inputs": [
        {
          "internalType": "address",
          "name": "to",
          "type": "address"
        },
        {
          "internalType": "uint256",
          "name": "tokenId",
          "type": "uint256"
        }
      ],
      "name": "approve",
      "outputs": [],
      "stateMutability": "nonpayable",
      "type": "function"
    },
    {
      "inputs": [
        {
          "internalType": "address",
          "name": "owner",
          "type": "address"
        }
      ],
      "name": "balanceOf",
      "outputs": [
        {
          "internalType": "uint256",
          "name": "",
          "type": "uint256"
        }
      ],
      "stateMutability": "view",
      "type": "function"
    },
    {
      "inputs": [],
      "name": "baseURI",
      "outputs": [
        {
          "internalType": "string",
          "name": "",
          "type": "string"
        }
      ],
      "stateMutability": "view",
      "type": "function"
    },
    {
      "inputs": [
        {
          "internalType": "uint256[]",
          "name": "tokenIds",
          "type": "uint256[]"
        },
        {
          "internalType": "address",
          "name": "user",
          "type": "address"
        }
      ],
      "name": "batchCheckOwnership",
      "outputs": [
        {
          "internalType": "bool[]",
          "name": "ownedTokens",
          "type": "bool[]"
        }
      ],
      "stateMutability": "view",
      "type": "function"
    },
    {
      "inputs": [
        {
          "internalType": "uint256[]",
          "name": "tokenIds",
          "type": "uint256[]"
        }
      ],
      "name": "batchGetTokensDetail",
      "outputs": [
        {
          "components": [
            {
              "internalType": "uint256",
              "name": "tokenId",
              "type": "uint256"
            },
            {
              "internalType": "uint256",
              "name": "roundId",
              "type": "uint256"
            },
            {
              "internalType": "uint256",
              "name": "tokenPrice",
              "type": "uint256"
            },
            {
              "internalType": "uint256",
              "name": "rewardPercentage",
              "type": "uint256"
            },
            {
              "internalType": "uint256",
              "name": "totalTokenOpenInvestment",
              "type": "uint256"
            },
            {
              "internalType": "uint256",
              "name": "purchaseTimestamp",
              "type": "uint256"
            },
            {
              "internalType": "uint256",
              "name": "closeDateInvestment",
              "type": "uint256"
            },
            {
              "internalType": "uint256",
              "name": "endDateInvestment",
              "type": "uint256"
            },
            {
              "internalType": "address",
              "name": "originalBuyer",
              "type": "address"
            },
            {
              "internalType": "bool",
              "name": "redeemed",
              "type": "bool"
            },
            {
              "internalType": "bool",
              "name": "rewardClaimed",
              "type": "bool"
            },
            {
              "internalType": "bool",
              "name": "transferLocked",
              "type": "bool"
            },
            {
              "internalType": "string",
              "name": "metadata",
              "type": "string"
            }
          ],
          "internalType": "struct DZNFT.InvestmentData[]",
          "name": "investments",
          "type": "tuple[]"
        }
      ],
      "stateMutability": "view",
      "type": "function"
    },
    {
      "inputs": [
        {
          "internalType": "address",
          "name": "to",
          "type": "address"
        },
        {
          "internalType": "uint256",
          "name": "count",
          "type": "uint256"
        },
        {
          "internalType": "uint256",
          "name": "roundId",
          "type": "uint256"
        },
        {
          "internalType": "uint256",
          "name": "tokenPrice",
          "type": "uint256"
        },
        {
          "internalType": "uint256",
          "name": "rewardPercentage",
          "type": "uint256"
        },
        {
          "internalType": "uint256",
          "name": "totalTokenOpenInvestment",
          "type": "uint256"
        },
        {
          "internalType": "uint256",
          "name": "closeDateInvestment",
          "type": "uint256"
        },
        {
          "internalType": "uint256",
          "name": "endDateInvestment",
          "type": "uint256"
        }
      ],
      "name": "batchMintNFT",
      "outputs": [
        {
          "internalType": "uint256[]",
          "name": "tokenIds",
          "type": "uint256[]"
        }
      ],
      "stateMutability": "nonpayable",
      "type": "function"
    },
    {
      "inputs": [
        {
          "internalType": "uint256",
          "name": "tokenId",
          "type": "uint256"
        }
      ],
      "name": "burn",
      "outputs": [],
      "stateMutability": "nonpayable",
      "type": "function"
    },
    {
      "inputs": [
        {
          "internalType": "uint256",
          "name": "tokenId",
          "type": "uint256"
        }
      ],
      "name": "canClaimEarlyReward",
      "outputs": [
        {
          "internalType": "bool",
          "name": "",
          "type": "bool"
        }
      ],
      "stateMutability": "view",
      "type": "function"
    },
    {
      "inputs": [
        {
          "internalType": "uint256",
          "name": "tokenId",
          "type": "uint256"
        }
      ],
      "name": "canFullyRedeem",
      "outputs": [
        {
          "internalType": "bool",
          "name": "",
          "type": "bool"
        }
      ],
      "stateMutability": "view",
      "type": "function"
    },
    {
      "inputs": [
        {
          "internalType": "address",
          "name": "owner",
          "type": "address"
        }
      ],
      "name": "getAllTokensOwnedBy",
      "outputs": [
        {
          "internalType": "uint256[]",
          "name": "ownedTokens",
          "type": "uint256[]"
        }
      ],
      "stateMutability": "view",
      "type": "function"
    },
    {
      "inputs": [
        {
          "internalType": "uint256",
          "name": "tokenId",
          "type": "uint256"
        }
      ],
      "name": "getApproved",
      "outputs": [
        {
          "internalType": "address",
          "name": "",
          "type": "address"
        }
      ],
      "stateMutability": "view",
      "type": "function"
    },
    {
      "inputs": [
        {
          "internalType": "uint256",
          "name": "tokenId",
          "type": "uint256"
        }
      ],
      "name": "getInvestmentData",
      "outputs": [
        {
          "components": [
            {
              "internalType": "uint256",
              "name": "tokenId",
              "type": "uint256"
            },
            {
              "internalType": "uint256",
              "name": "roundId",
              "type": "uint256"
            },
            {
              "internalType": "uint256",
              "name": "tokenPrice",
              "type": "uint256"
            },
            {
              "internalType": "uint256",
              "name": "rewardPercentage",
              "type": "uint256"
            },
            {
              "internalType": "uint256",
              "name": "totalTokenOpenInvestment",
              "type": "uint256"
            },
            {
              "internalType": "uint256",
              "name": "purchaseTimestamp",
              "type": "uint256"
            },
            {
              "internalType": "uint256",
              "name": "closeDateInvestment",
              "type": "uint256"
            },
            {
              "internalType": "uint256",
              "name": "endDateInvestment",
              "type": "uint256"
            },
            {
              "internalType": "address",
              "name": "originalBuyer",
              "type": "address"
            },
            {
              "internalType": "bool",
              "name": "redeemed",
              "type": "bool"
            },
            {
              "internalType": "bool",
              "name": "rewardClaimed",
              "type": "bool"
            },
            {
              "internalType": "bool",
              "name": "transferLocked",
              "type": "bool"
            },
            {
              "internalType": "string",
              "name": "metadata",
              "type": "string"
            }
          ],
          "internalType": "struct DZNFT.InvestmentData",
          "name": "",
          "type": "tuple"
        }
      ],
      "stateMutability": "view",
      "type": "function"
    },
    {
      "inputs": [
        {
          "internalType": "bytes32",
          "name": "role",
          "type": "bytes32"
        }
      ],
      "name": "getRoleAdmin",
      "outputs": [
        {
          "internalType": "bytes32",
          "name": "",
          "type": "bytes32"
        }
      ],
      "stateMutability": "view",
      "type": "function"
    },
    {
      "inputs": [
        {
          "internalType": "uint256",
          "name": "tokenId",
          "type": "uint256"
        }
      ],
      "name": "getTokenDetail",
      "outputs": [
        {
          "components": [
            {
              "internalType": "uint256",
              "name": "tokenId",
              "type": "uint256"
            },
            {
              "internalType": "uint256",
              "name": "roundId",
              "type": "uint256"
            },
            {
              "internalType": "uint256",
              "name": "tokenPrice",
              "type": "uint256"
            },
            {
              "internalType": "uint256",
              "name": "rewardPercentage",
              "type": "uint256"
            },
            {
              "internalType": "uint256",
              "name": "totalTokenOpenInvestment",
              "type": "uint256"
            },
            {
              "internalType": "uint256",
              "name": "purchaseTimestamp",
              "type": "uint256"
            },
            {
              "internalType": "uint256",
              "name": "closeDateInvestment",
              "type": "uint256"
            },
            {
              "internalType": "uint256",
              "name": "endDateInvestment",
              "type": "uint256"
            },
            {
              "internalType": "address",
              "name": "originalBuyer",
              "type": "address"
            },
            {
              "internalType": "bool",
              "name": "redeemed",
              "type": "bool"
            },
            {
              "internalType": "bool",
              "name": "rewardClaimed",
              "type": "bool"
            },
            {
              "internalType": "bool",
              "name": "transferLocked",
              "type": "bool"
            },
            {
              "internalType": "string",
              "name": "metadata",
              "type": "string"
            }
          ],
          "internalType": "struct DZNFT.InvestmentData",
          "name": "",
          "type": "tuple"
        }
      ],
      "stateMutability": "view",
      "type": "function"
    },
    {
      "inputs": [
        {
          "internalType": "address",
          "name": "user",
          "type": "address"
        },
        {
          "internalType": "uint256",
          "name": "roundId",
          "type": "uint256"
        }
      ],
      "name": "getUserNFTsByRound",
      "outputs": [
        {
          "internalType": "uint256[]",
          "name": "tokenIds",
          "type": "uint256[]"
        }
      ],
      "stateMutability": "view",
      "type": "function"
    },
    {
      "inputs": [
        {
          "internalType": "bytes32",
          "name": "role",
          "type": "bytes32"
        },
        {
          "internalType": "address",
          "name": "account",
          "type": "address"
        }
      ],
      "name": "grantRole",
      "outputs": [],
      "stateMutability": "nonpayable",
      "type": "function"
    },
    {
      "inputs": [
        {
          "internalType": "bytes32",
          "name": "role",
          "type": "bytes32"
        },
        {
          "internalType": "address",
          "name": "account",
          "type": "address"
        }
      ],
      "name": "hasRole",
      "outputs": [
        {
          "internalType": "bool",
          "name": "",
          "type": "bool"
        }
      ],
      "stateMutability": "view",
      "type": "function"
    },
    {
      "inputs": [
        {
          "internalType": "uint256",
          "name": "",
          "type": "uint256"
        }
      ],
      "name": "investmentData",
      "outputs": [
        {
          "internalType": "uint256",
          "name": "tokenId",
          "type": "uint256"
        },
        {
          "internalType": "uint256",
          "name": "roundId",
          "type": "uint256"
        },
        {
          "internalType": "uint256",
          "name": "tokenPrice",
          "type": "uint256"
        },
        {
          "internalType": "uint256",
          "name": "rewardPercentage",
          "type": "uint256"
        },
        {
          "internalType": "uint256",
          "name": "totalTokenOpenInvestment",
          "type": "uint256"
        },
        {
          "internalType": "uint256",
          "name": "purchaseTimestamp",
          "type": "uint256"
        },
        {
          "internalType": "uint256",
          "name": "closeDateInvestment",
          "type": "uint256"
        },
        {
          "internalType": "uint256",
          "name": "endDateInvestment",
          "type": "uint256"
        },
        {
          "internalType": "address",
          "name": "originalBuyer",
          "type": "address"
        },
        {
          "internalType": "bool",
          "name": "redeemed",
          "type": "bool"
        },
        {
          "internalType": "bool",
          "name": "rewardClaimed",
          "type": "bool"
        },
        {
          "internalType": "bool",
          "name": "transferLocked",
          "type": "bool"
        },
        {
          "internalType": "string",
          "name": "metadata",
          "type": "string"
        }
      ],
      "stateMutability": "view",
      "type": "function"
    },
    {
      "inputs": [
        {
          "internalType": "address",
          "name": "owner",
          "type": "address"
        },
        {
          "internalType": "address",
          "name": "operator",
          "type": "address"
        }
      ],
      "name": "isApprovedForAll",
      "outputs": [
        {
          "internalType": "bool",
          "name": "",
          "type": "bool"
        }
      ],
      "stateMutability": "view",
      "type": "function"
    },
    {
      "inputs": [
        {
          "internalType": "address",
          "name": "account",
          "type": "address"
        }
      ],
      "name": "isExecutor",
      "outputs": [
        {
          "internalType": "bool",
          "name": "",
          "type": "bool"
        }
      ],
      "stateMutability": "view",
      "type": "function"
    },
    {
      "inputs": [
        {
          "internalType": "uint256",
          "name": "tokenId",
          "type": "uint256"
        }
      ],
      "name": "isInvestmentMatured",
      "outputs": [
        {
          "internalType": "bool",
          "name": "",
          "type": "bool"
        }
      ],
      "stateMutability": "view",
      "type": "function"
    },
    {
      "inputs": [
        {
          "internalType": "uint256",
          "name": "tokenId",
          "type": "uint256"
        }
      ],
      "name": "isInvestmentOpen",
      "outputs": [
        {
          "internalType": "bool",
          "name": "",
          "type": "bool"
        }
      ],
      "stateMutability": "view",
      "type": "function"
    },
    {
      "inputs": [
        {
          "internalType": "uint256",
          "name": "tokenId",
          "type": "uint256"
        }
      ],
      "name": "isTransferLocked",
      "outputs": [
        {
          "internalType": "bool",
          "name": "",
          "type": "bool"
        }
      ],
      "stateMutability": "view",
      "type": "function"
    },
    {
      "inputs": [
        {
          "internalType": "uint256",
          "name": "tokenId",
          "type": "uint256"
        }
      ],
      "name": "lockTransfer",
      "outputs": [],
      "stateMutability": "nonpayable",
      "type": "function"
    },
    {
      "inputs": [
        {
          "internalType": "uint256",
          "name": "tokenId",
          "type": "uint256"
        }
      ],
      "name": "markAsRedeemed",
      "outputs": [],
      "stateMutability": "nonpayable",
      "type": "function"
    },
    {
      "inputs": [
        {
          "internalType": "uint256",
          "name": "tokenId",
          "type": "uint256"
        }
      ],
      "name": "markRewardClaimed",
      "outputs": [],
      "stateMutability": "nonpayable",
      "type": "function"
    },
    {
      "inputs": [
        {
          "internalType": "address",
          "name": "to",
          "type": "address"
        },
        {
          "internalType": "uint256",
          "name": "roundId",
          "type": "uint256"
        },
        {
          "internalType": "uint256",
          "name": "tokenPrice",
          "type": "uint256"
        },
        {
          "internalType": "uint256",
          "name": "rewardPercentage",
          "type": "uint256"
        },
        {
          "internalType": "uint256",
          "name": "totalTokenOpenInvestment",
          "type": "uint256"
        },
        {
          "internalType": "uint256",
          "name": "closeDateInvestment",
          "type": "uint256"
        },
        {
          "internalType": "uint256",
          "name": "endDateInvestment",
          "type": "uint256"
        }
      ],
      "name": "mintNFT",
      "outputs": [
        {
          "internalType": "uint256",
          "name": "",
          "type": "uint256"
        }
      ],
      "stateMutability": "nonpayable",
      "type": "function"
    },
    {
      "inputs": [],
      "name": "name",
      "outputs": [
        {
          "internalType": "string",
          "name": "",
          "type": "string"
        }
      ],
      "stateMutability": "view",
      "type": "function"
    },
    {
      "inputs": [],
      "name": "owner",
      "outputs": [
        {
          "internalType": "address",
          "name": "",
          "type": "address"
        }
      ],
      "stateMutability": "view",
      "type": "function"
    },
    {
      "inputs": [
        {
          "internalType": "uint256",
          "name": "tokenId",
          "type": "uint256"
        }
      ],
      "name": "ownerOf",
      "outputs": [
        {
          "internalType": "address",
          "name": "",
          "type": "address"
        }
      ],
      "stateMutability": "view",
      "type": "function"
    },
    {
      "inputs": [],
      "name": "pause",
      "outputs": [],
      "stateMutability": "nonpayable",
      "type": "function"
    },
    {
      "inputs": [],
      "name": "paused",
      "outputs": [
        {
          "internalType": "bool",
          "name": "",
          "type": "bool"
        }
      ],
      "stateMutability": "view",
      "type": "function"
    },
    {
      "inputs": [],
      "name": "renounceOwnership",
      "outputs": [],
      "stateMutability": "nonpayable",
      "type": "function"
    },
    {
      "inputs": [
        {
          "internalType": "bytes32",
          "name": "role",
          "type": "bytes32"
        },
        {
          "internalType": "address",
          "name": "callerConfirmation",
          "type": "address"
        }
      ],
      "name": "renounceRole",
      "outputs": [],
      "stateMutability": "nonpayable",
      "type": "function"
    },
    {
      "inputs": [
        {
          "internalType": "bytes32",
          "name": "role",
          "type": "bytes32"
        },
        {
          "internalType": "address",
          "name": "account",
          "type": "address"
        }
      ],
      "name": "revokeRole",
      "outputs": [],
      "stateMutability": "nonpayable",
      "type": "function"
    },
    {
      "inputs": [
        {
          "internalType": "address",
          "name": "from",
          "type": "address"
        },
        {
          "internalType": "address",
          "name": "to",
          "type": "address"
        },
        {
          "internalType": "uint256",
          "name": "tokenId",
          "type": "uint256"
        }
      ],
      "name": "safeTransferFrom",
      "outputs": [],
      "stateMutability": "nonpayable",
      "type": "function"
    },
    {
      "inputs": [
        {
          "internalType": "address",
          "name": "from",
          "type": "address"
        },
        {
          "internalType": "address",
          "name": "to",
          "type": "address"
        },
        {
          "internalType": "uint256",
          "name": "tokenId",
          "type": "uint256"
        },
        {
          "internalType": "bytes",
          "name": "data",
          "type": "bytes"
        }
      ],
      "name": "safeTransferFrom",
      "outputs": [],
      "stateMutability": "nonpayable",
      "type": "function"
    },
    {
      "inputs": [
        {
          "internalType": "address",
          "name": "operator",
          "type": "address"
        },
        {
          "internalType": "bool",
          "name": "approved",
          "type": "bool"
        }
      ],
      "name": "setApprovalForAll",
      "outputs": [],
      "stateMutability": "nonpayable",
      "type": "function"
    },
    {
      "inputs": [
        {
          "internalType": "string",
          "name": "newBaseURI",
          "type": "string"
        }
      ],
      "name": "setBaseURI",
      "outputs": [],
      "stateMutability": "nonpayable",
      "type": "function"
    },
    {
      "inputs": [
        {
          "internalType": "uint256",
          "name": "tokenId",
          "type": "uint256"
        },
        {
          "internalType": "string",
          "name": "newTokenURI",
          "type": "string"
        }
      ],
      "name": "setTokenURI",
      "outputs": [],
      "stateMutability": "nonpayable",
      "type": "function"
    },
    {
      "inputs": [
        {
          "internalType": "uint256",
          "name": "tokenId",
          "type": "uint256"
        },
        {
          "internalType": "string",
          "name": "metadata",
          "type": "string"
        }
      ],
      "name": "stampMetadata",
      "outputs": [],
      "stateMutability": "nonpayable",
      "type": "function"
    },
    {
      "inputs": [
        {
          "internalType": "bytes4",
          "name": "interfaceId",
          "type": "bytes4"
        }
      ],
      "name": "supportsInterface",
      "outputs": [
        {
          "internalType": "bool",
          "name": "",
          "type": "bool"
        }
      ],
      "stateMutability": "view",
      "type": "function"
    },
    {
      "inputs": [],
      "name": "symbol",
      "outputs": [
        {
          "internalType": "string",
          "name": "",
          "type": "string"
        }
      ],
      "stateMutability": "view",
      "type": "function"
    },
    {
      "inputs": [
        {
          "internalType": "uint256",
          "name": "index",
          "type": "uint256"
        }
      ],
      "name": "tokenByIndex",
      "outputs": [
        {
          "internalType": "uint256",
          "name": "",
          "type": "uint256"
        }
      ],
      "stateMutability": "view",
      "type": "function"
    },
    {
      "inputs": [
        {
          "internalType": "uint256",
          "name": "",
          "type": "uint256"
        }
      ],
      "name": "tokenExists",
      "outputs": [
        {
          "internalType": "bool",
          "name": "",
          "type": "bool"
        }
      ],
      "stateMutability": "view",
      "type": "function"
    },
    {
      "inputs": [
        {
          "internalType": "address",
          "name": "owner",
          "type": "address"
        },
        {
          "internalType": "uint256",
          "name": "index",
          "type": "uint256"
        }
      ],
      "name": "tokenOfOwnerByIndex",
      "outputs": [
        {
          "internalType": "uint256",
          "name": "",
          "type": "uint256"
        }
      ],
      "stateMutability": "view",
      "type": "function"
    },
    {
      "inputs": [
        {
          "internalType": "uint256",
          "name": "tokenId",
          "type": "uint256"
        }
      ],
      "name": "tokenURI",
      "outputs": [
        {
          "internalType": "string",
          "name": "",
          "type": "string"
        }
      ],
      "stateMutability": "view",
      "type": "function"
    },
    {
      "inputs": [],
      "name": "totalSupply",
      "outputs": [
        {
          "internalType": "uint256",
          "name": "",
          "type": "uint256"
        }
      ],
      "stateMutability": "view",
      "type": "function"
    },
    {
      "inputs": [
        {
          "internalType": "address",
          "name": "from",
          "type": "address"
        },
        {
          "internalType": "address",
          "name": "to",
          "type": "address"
        },
        {
          "internalType": "uint256",
          "name": "tokenId",
          "type": "uint256"
        }
      ],
      "name": "transferFrom",
      "outputs": [],
      "stateMutability": "nonpayable",
      "type": "function"
    },
    {
      "inputs": [
        {
          "internalType": "address",
          "name": "newOwner",
          "type": "address"
        }
      ],
      "name": "transferOwner",
      "outputs": [],
      "stateMutability": "nonpayable",
      "type": "function"
    },
    {
      "inputs": [
        {
          "internalType": "address",
          "name": "newOwner",
          "type": "address"
        }
      ],
      "name": "transferOwnership",
      "outputs": [],
      "stateMutability": "nonpayable",
      "type": "function"
    },
    {
      "inputs": [
        {
          "internalType": "uint256",
          "name": "tokenId",
          "type": "uint256"
        }
      ],
      "name": "unlockTransfer",
      "outputs": [],
      "stateMutability": "nonpayable",
      "type": "function"
    },
    {
      "inputs": [],
      "name": "unpause",
      "outputs": [],
      "stateMutability": "nonpayable",
      "type": "function"
    },
    {
      "inputs": [
        {
          "internalType": "address",
          "name": "account",
          "type": "address"
        },
        {
          "internalType": "bool",
          "name": "grant",
          "type": "bool"
        }
      ],
      "name": "updateExecutorRole",
      "outputs": [],
      "stateMutability": "nonpayable",
      "type": "function"
    }
  ],
  "bytecode": "0x60806040523461039757604080519081016001600160401b038111828210176102cc5760409081526011825270111688125b9d995cdd1b595b9d08139195607a1b602083015280519081016001600160401b038111828210176102cc576040526005815264111693919560da1b602082015281516001600160401b0381116102cc5761008b5f5461039b565b601f811161034a575b50602092601f82116001146102eb57928192935f926102e0575b50508160011b915f199060031b1c1916175f555b80516001600160401b0381116102cc576100dd60015461039b565b601f8111610273575b50602091601f8211600114610213579181925f92610208575b50508160011b915f199060031b1c1916176001555b33156101f557600a8054336001600160a01b0319821681179092556001600160a01b03167f8be0079c531659141344cd1fd0a4f28419497f9722a3daafe3b4186f6b6457e05f80a3610165336103e9565b5061016f3361045f565b5061017b600e5461039b565b601f81116101b7575b7f68747470733a2f2f6170692e647a6e66742e636f6d2f6d657461646174612f3e600e55604051613f7390816104f38239f35b600e5f526101ef90601f0160051c7fbb7b4a454dc3493923482f07822329ed19e8244eff582cc204f8554c3620c3fd908101906103d3565b5f610184565b631e4fbdf760e01b5f525f60045260245ffd5b015190505f806100ff565b601f1982169260015f52805f20915f5b85811061025b57508360019510610243575b505050811b01600155610114565b01515f1960f88460031b161c191690555f8080610235565b91926020600181928685015181550194019201610223565b60015f526102bc907fb10e2d527612073b26eecdfd717e6a320cf44b4afac2b0732d9fcbe2b7fa0cf6601f840160051c810191602085106102c2575b601f0160051c01906103d3565b5f6100e6565b90915081906102af565b634e487b7160e01b5f52604160045260245ffd5b015190505f806100ae565b601f198216935f8052805f20915f5b868110610332575083600195961061031a575b505050811b015f556100c2565b01515f1960f88460031b161c191690555f808061030d565b919260206001819286850151815501940192016102fa565b5f8052610391907f290decd9548b62a8d60345a988386fc84ba6bc95484008f6362f93160ef3e563601f840160051c810191602085106102c257601f0160051c01906103d3565b5f610094565b5f80fd5b90600182811c921680156103c9575b60208310146103b557565b634e487b7160e01b5f52602260045260245ffd5b91607f16916103aa565b8181106103de575050565b5f81556001016103d3565b6001600160a01b0381165f9081525f5160206144865f395f51905f52602052604090205460ff1661045a576001600160a01b03165f8181525f5160206144865f395f51905f5260205260408120805460ff191660011790553391905f5160206144665f395f51905f528180a4600190565b505f90565b6001600160a01b0381165f9081525f5160206144a65f395f51905f52602052604090205460ff1661045a576001600160a01b03165f8181525f5160206144a65f395f51905f5260205260408120805460ff191660011790553391907fd8aa0f3194971a2a116679f7c2090f6939c8d4e01a2a8d7e41d55e5351469e63905f5160206144665f395f51905f529080a460019056fe6080806040526004361015610012575f80fd5b5f3560e01c908162923f9e146124c95750806301ffc9a71461242857806306fdde031461238657806307bd02651461235f578063081812fc14612341578063095ea7b3146122575780630981551714612090578063162094c414611f3857806318160ddd14611f1b57806318d8e2a514611e1357806319f477d914611d9c5780631d3653e314611c8157806323b872dd14611c6a578063248a9ca314611c4c578063293af81a14611b505780632f2ff15d14611b1f5780632f745c5914611af8578063364b610114611ab057806336568abe14611a6c5780633f4ba83a14611a0657806342842e0e146119d757806342966c68146118425780634f6ccce7146117f45780634fb2e45d146117d357806355f804b3146116665780635a0ea3d41461153f5780635a7f04d5146114175780635c975abb146113f55780636352211e146113c55780636c0360eb146113aa57806370a082311461137f578063715018a6146113375780638456cb59146112de5780638da5cb5b146112b65780638debb546146111725780638e25e2e61461091e57806391d148541461112957806395d89b411461105f5780639913627f14611012578063a217fddf14610ff8578063a22cb46514610f70578063acb7ebfa14610e9b578063b88d4fde14610e07578063badd5c4d14610d81578063bed62f3514610ca1578063bf725a3c14610923578063c0bcc07a1461091e578063c2bf0fa1146108d6578063c87b56dd1461089f578063d547741f14610869578063d9852f8d146107db578063debfda301461078d578063e01beb9d1461064a578063e985e9c5146105f3578063f2fde38b146105a55763f4fb815914610283575f80fd5b346105a15760e03660031901126105a15761029c612518565b335f9081525f516020613e5e5f395f51905f5260205260409020546084359160a4359160c435906102cf9060ff16612ba7565b6102d76139b0565b6102eb6001600160a01b03831615156130e9565b6102f86044351515613131565b606435151580610593575b61030c9061317c565b6103178415156131c4565b61032242841161321c565b61032d838211613267565b600d549261033a846130aa565b600d556040519461034a86612544565b84865260243560208701526044356040870152606435606087015260808601524260a086015260c085015260e084015260018060a01b0381166101008401525f6101208401525f6101408401525f6101608401526020926040516103ae8582612560565b5f8152610180820152825f5260108452610180600960405f20835181556020840151600182015560408401516002820155606084015160038201556080840151600482015560a0840151600582015560c0840151600682015560e0840151600782015561046c6008820160018060a01b0360018060a01b03610100880151161660018060a01b031982541617815561044d610120870151151582612c29565b61045e610140870151151582612bef565b610160860151151590612c0c565b0191015180519060018060401b03821161057f576104948261048e855461289d565b85612b36565b8590601f831160011461051c576104b592915f9183610511575b5050612b6e565b90555b815f526011835260405f20600160ff198254161790556104d882826139cb565b60408051604435815260643585820152602435926001600160a01b03169184915f516020613e3e5f395f51905f529190a4604051908152f35b015190505f806104ae565b90601f19831691845f52875f20925f5b89828210610569575050908460019594939210610551575b505050811b0190556104b8565b01515f1960f88460031b161c191690555f8080610544565b600185968293968601518155019501930161052c565b634e487b7160e01b5f52604160045260245ffd5b506127106064351115610303565b5f80fd5b346105a15760203660031901126105a1576105be612518565b6105c661381e565b6001600160a01b038116156105e0576105de90613845565b005b631e4fbdf760e01b5f525f60045260245ffd5b346105a15760403660031901126105a15761060c612518565b61061461252e565b9060018060a01b03165f52600560205260405f209060018060a01b03165f52602052602060ff60405f2054166040519015158152f35b346105a157610658366126cb565b335f9081525f516020613e5e5f395f51905f5260205260409020549192916106829060ff16612ba7565b815f52601160205261069a60ff60405f205416612add565b5f828152601060205260409020600901926001600160401b03821161057f576106cd826106c7865461289d565b86612b36565b5f93601f831160011461071e576106fc83805f516020613e7e5f395f51905f5296975f91610713575b50612b6e565b90555b61070e60405192839283612b80565b0390a2005b9050840135886106f6565b601f19831694815f5260205f20905f5b8781106107755750845f516020613e7e5f395f51905f5296971061075c575b5050600183811b0190556106ff565b8301355f19600386901b60f8161c19169055858061074d565b9091602060018192858801358155019301910161072e565b346105a15760203660031901126105a1576107a6612518565b6001600160a01b03165f9081525f516020613e5e5f395f51905f52602090815260409182902054915160ff9092161515825290f35b346105a15760203660031901126105a157335f9081525f516020613e5e5f395f51905f526020526040902054600435906108179060ff16612ba7565b805f52601160205261082f60ff60405f205416612add565b805f526010602052600860405f2001600160b01b60ff60b01b198254161790555f516020613e1e5f395f51905f52602060405160018152a2005b346105a15760403660031901126105a1576105de60043561088861252e565b9061089a61089582612fb2565b6135f7565b6137ad565b346105a15760203660031901126105a1576108d26108be6004356132bd565b6040519182916020835260208301906124f4565b0390f35b346105a15760203660031901126105a157600435805f52601160205261090260ff60405f205416612add565b5f5260106020526020600660405f200154421115604051908152f35b612771565b346105a1576101003660031901126105a15761093d612518565b335f9081525f516020613e5e5f395f51905f526020526040902054602435906109689060ff16612ba7565b6109706139b0565b6109846001600160a01b03831615156130e9565b80151580610c96575b15610c5a5761099f6064351515613131565b6109ac608435151561317c565b6109b960a43515156131c4565b6109c64260c4351161321c565b6109d560c43560e43511613267565b6109de81613078565b9160205f5b8381106109f857604051806108d28782612738565b600d54610a04816130aa565b600d5580610a128388612ab5565b52604051610a1f81612544565b8181528085838680840160443581526040850160643581526060860160843581526080870160a435815260a088019042825260c089019260c435845260e08a019460e43586526101008b0199600160a01b60019003168a526101208b01965f88526101408c01985f8a526101608d019a5f8c526040519d8e610aa18482612560565b5f90819052610180919091019e8f529081526010909152604090209c518d555160018d01555160028c01555160038b01555160048a015551600589015551600688015551600787015592516008860180546001600160a01b0319166001600160a01b03929092169190911781559251610b1c90151584612c29565b511515610b299083612bef565b511515610b3591612c0c565b518051906001600160401b03821161057f57610b6182610b58600986015461289d565b60098601612b36565b8590601f8311600114610bea5782600196959493600993610b89935f92610bdf575050612b6e565b9101555b805f526011845260405f208360ff19825416179055610bac81866139cb565b604051606435815260843585820152604435915f516020613e3e5f395f51905f526040868060a01b03891693a4016109e3565b015190508c806104ae565b90600984015f52865f20915f5b88601f1986168210610c445750509260099260019796959492889383601f19811610610c2c575b505050811b01910155610b8d565b01515f1960f88460031b161c191690558b8080610c1e565b6001849582939585015181550194019201610bf7565b60405162461bcd60e51b8152602060048201526014602482015273496e76616c696420636f756e742028312d38302960601b6044820152606490fd5b50603281111561098d565b346105a15760203660031901126105a157335f9081525f516020613e5e5f395f51905f52602052604090205460043590610cdd9060ff16612ba7565b805f526011602052610cf560ff60405f205416612add565b805f52601060205260ff600860405f20015460a01c1615610d4357805f526010602052600860405f200160ff60b01b1981541690555f516020613e1e5f395f51905f5260206040515f8152a2005b60405162461bcd60e51b8152602060048201526016602482015275135d5cdd081899481c995919595b595908199a5c9cdd60521b6044820152606490fd5b346105a15760207f9440a95c3c13d1dc9ebcfdcf7b9963a680dd7ca9d62246a91a9be07e6de1f86f610db23661286e565b9290610dbc61381e565b8315610ded57610dcd610895612f78565b610dd681613631565b505b60405193151584526001600160a01b031692a2005b610df8610895612f78565b610e018161372f565b50610dd8565b346105a15760803660031901126105a157610e20612518565b610e2861252e565b6064359190604435906001600160401b0384116105a157366023850112156105a157836004013592610e5984612a17565b93610e676040519586612560565b80855236602482880101116105a1576020815f9260246105de99018389013786010152610e95838383612c46565b3361387a565b346105a15760203660031901126105a1576004355f52601060205260405f2080546108d260018301549260ff600282015491600381015460048201546005830154600684015491600785015493610ef9600960088801549701612979565b976040519b8c9b8c5260208c015260408b015260608a0152608089015260a088015260c087015260e086015260018060a01b038116610100860152818160a01c161515610120860152818160a81c16151561014086015260b01c1615156101608401526101a06101808401526101a08301906124f4565b346105a157610f7e3661286e565b6001600160a01b03909116908115610fe557335f52600560205260405f20825f5260205260405f209015159060ff1981541660ff83161790556040519081527f17307eab39ab6107e8899845ad3d59bd9653f200f220920489ca2b5937696c3160203392a3005b50630b61174360e31b5f5260045260245ffd5b346105a1575f3660031901126105a15760206040515f8152f35b346105a15760203660031901126105a157600435805f52601160205261103e60ff60405f205416612add565b5f526010602052602060ff600860405f20015460b01c166040519015158152f35b346105a1575f3660031901126105a1576040515f60015461107f8161289d565b808452906001811690811561110557506001146110a7575b6108d2836108be81850382612560565b60015f9081527fb10e2d527612073b26eecdfd717e6a320cf44b4afac2b0732d9fcbe2b7fa0cf6939250905b8082106110eb575090915081016020016108be611097565b9192600181602092548385880101520191019092916110d3565b60ff191660208086019190915291151560051b840190910191506108be9050611097565b346105a15760403660031901126105a15761114261252e565b6004355f52600b60205260405f209060018060a01b03165f52602052602060ff60405f2054166040519015158152f35b346105a15760203660031901126105a1576001600160a01b03611193612518565b16801561127957600d545f805b82811061122857506111b190613078565b915f905f5b8381106111cb57604051806108d28782612738565b805f52601160205260ff60405f2054168061120e575b6111ee575b6001016111b6565b91611206818461120060019489612ab5565b526130aa565b9290506111e6565b50816001600160a01b036112218361336b565b16146111e1565b805f52601160205260ff60405f2054168061125f575b61124b575b6001016111a0565b906112576001916130aa565b919050611243565b50836001600160a01b036112728361336b565b161461123e565b60405162461bcd60e51b8152602060048201526015602482015274496e76616c6964206f776e6572206164647265737360581b6044820152606490fd5b346105a1575f3660031901126105a157600a546040516001600160a01b039091168152602090f35b346105a1575f3660031901126105a1576112f661381e565b6112fe6139b0565b600160ff19600c541617600c557f62e78cea01bee320cd4e420270b5ea74000d11b0c9f74754ebdbfc544b05a2586020604051338152a1005b346105a1575f3660031901126105a15761134f61381e565b600a80546001600160a01b031981169091555f906001600160a01b03165f516020613e9e5f395f51905f528280a3005b346105a15760203660031901126105a15760206113a261139d612518565b6130b8565b604051908152f35b346105a1575f3660031901126105a1576108d26108be6128d5565b346105a15760203660031901126105a15760206113e360043561336b565b6040516001600160a01b039091168152f35b346105a1575f3660031901126105a157602060ff600c54166040519015158152f35b346105a15760203660031901126105a157600435805f52601160205261144360ff60405f205416612add565b5f52601060205260405f2060405161145a81612544565b8154815260018201546020820152600282015460408201526003820154606082015260048201546080820152600582015460a082015260068201549060c08101918252600783015460e08201526101806114f6600960088601549560018060a01b03871661010086015260ff610120860197818160a01c1615158952818160a81c16151561014088015260b01c16151561016086015201612979565b91015251906301e13380820180921161152b576020914210159081611521575b506040519015158152f35b9050511582611516565b634e487b7160e01b5f52601160045260245ffd5b346105a15760403660031901126105a157611558612518565b602435906001600160a01b0381161561162a57611574816130b8565b61157d81613078565b925f925f5b8381106115cb57858561159481613078565b915f5b8281106115ac57604051806108d28682612738565b806115b960019284612ab5565b516115c48287612ab5565b5201611597565b6115d58183612fc4565b805f52601160205260ff60405f20541680611612575b6115f9575b50600101611582565b8561160b91611200600194988a612ab5565b94906115f0565b50805f52601060205283600160405f200154146115eb565b60405162461bcd60e51b8152602060048201526014602482015273496e76616c69642075736572206164647265737360601b6044820152606490fd5b346105a15760203660031901126105a1576004356001600160401b0381116105a15761169690369060040161269e565b61169e61381e565b6001600160401b03811161057f576116b7600e5461289d565b601f811161178d575b505f91601f8211600114611711576116ee82805f516020613f1e5f395f51905f52955f916117065750612b6e565b600e555b61170160405192839283612b80565b0390a1005b9050830135866106f6565b600e5f9081525f516020613dfe5f395f51905f5290601f198416905b818110611775575093835f516020613f1e5f395f51905f52951061175c575b5050600182811b01600e556116f2565b8201355f19600385901b60f8161c19169055838061174c565b8386013583556020958601956001909301920161172d565b600e5f526117c3905f516020613dfe5f395f51905f52601f840160051c810191602085106117c9575b601f0160051c0190612b20565b826116c0565b90915081906117b6565b346105a15760203660031901126105a1576117ec612518565b6105be61381e565b346105a15760203660031901126105a15760043560085481101561182c5761181d602091613060565b90549060031b1c604051908152f35b63295f44f760e21b5f525f60045260245260445ffd5b346105a15760203660031901126105a157600435805f52601160205261186e60ff60405f205416612add565b6118778161336b565b6001600160a01b0316331480156119bd575b8015611989575b1561194b5761189e8161336b565b815f52601160205260405f2060ff198154169055815f5260106020526118fc600960405f205f81555f60018201555f60028201555f60038201555f60048201555f60058201555f60068201555f60078201555f600882015501613012565b815f52600f60205261191060405f20613012565b61191a338361339f565b506001600160a01b0316907f8f0a80450bfbfadc6d05658c9dc494e43beb79be53b44adbb146c6d5040f87705f80a3005b60405162461bcd60e51b8152602060048201526016602482015275139bdd081bdddb995c881b9bdc88185c1c1c9bdd995960521b6044820152606490fd5b506001600160a01b0361199b8261336b565b165f90815260056020908152604080832033845290915290205460ff16611890565b50336001600160a01b036119d083612a32565b1614611889565b346105a1576105de6119e8366126fe565b90604051926119f8602085612560565b5f8452610e95838383612c46565b346105a1575f3660031901126105a157611a1e61381e565b600c5460ff811615611a5d5760ff1916600c557f5db9ee0a495bf2e6ff9c91a7834c1ba4fdd244a5e8aa4e537bd38aeae4b073aa6020604051338152a1005b638dfc202b60e01b5f5260045ffd5b346105a15760403660031901126105a157611a8561252e565b336001600160a01b03821603611aa1576105de906004356137ad565b63334bd91960e11b5f5260045ffd5b346105a15760203660031901126105a157600435805f526011602052611adc60ff60405f205416612add565b5f5260106020526020600760405f200154421015604051908152f35b346105a15760403660031901126105a15760206113a2611b16612518565b60243590612fc4565b346105a15760403660031901126105a1576105de600435611b3e61252e565b90611b4b61089582612fb2565b6136b6565b346105a15760403660031901126105a1576004356001600160401b0381116105a157611b8090369060040161259a565b611b8861252e565b90805191611bae611b9884612583565b93611ba66040519586612560565b808552612583565b602084019290601f19013684376001600160a01b03909116905f5b8151811015611c0457600190836001600160a01b03611bf1611beb8487612ab5565b5161336b565b1614611bfd8288612ab5565b5201611bc9565b50505090604051918291602083019060208452518091526040830191905f5b818110611c31575050500390f35b82511515845285945060209384019390920191600101611c23565b346105a15760203660031901126105a15760206113a2600435612fb2565b346105a1576105de611c7b366126fe565b91612c46565b346105a15760203660031901126105a157600435805f526011602052611cad60ff60405f205416612add565b5f52601060205260405f20604051611cc481612544565b8154815260018201546020820152600282015460408201526003820154606082015260048201546080820152600582015460a0820152600682015460c08201908152600783015460e083015260088301549160018060a01b038316610100820152610180611d62600961012084019660ff8760a01c161515885260ff610140860197818160a81c161515895260b01c16151561016086015201612979565b910152519162ed4e00830180931161152b576020924210159182611d92575b508161152157506040519015158152f35b5115915083611d81565b346105a15760203660031901126105a157335f9081525f516020613e5e5f395f51905f52602052604090205460043590611dd89060ff16612ba7565b805f526011602052611df060ff60405f205416612add565b5f908152601060205260409020600801805460ff60a01b1916600160a01b179055005b346105a15760203660031901126105a157335f9081525f516020613e5e5f395f51905f52602052604090205460043590611e4f9060ff16612ba7565b805f526011602052611e6760ff60405f205416612add565b805f52601060205260ff600860405f20015460a81c16611edd575f818152601060205260409020600801805461ffff60a81b191661010160a81b1790556001600160a01b03611eb58261336b565b16907f5dd59f4285b36241394b73f8f7ae03d0290b030a86803cf2562ecf33eeb617bd5f80a3005b60405162461bcd60e51b815260206004820152601660248201527514995dd85c9908185b1c9958591e4818db185a5b595960521b6044820152606490fd5b346105a1575f3660031901126105a1576020600854604051908152f35b346105a157611f46366126cb565b600a549192916001600160a01b03163314801561206c575b1561202857815f526011602052611f7b60ff60405f205416612add565b5f828152600f60205260409020926001600160401b03821161057f57611fa5826106c7865461289d565b5f93601f8311600114611fd3576106fc83805f516020613dde5f395f51905f5296975f916107135750612b6e565b601f19831694815f5260205f20905f5b8781106120105750845f516020613dde5f395f51905f5296971061075c575050600183811b0190556106ff565b90916020600181928588013581550193019101611fe3565b606460405162461bcd60e51b815260206004820152602060248201527f43616c6c6572206973206e6f74206f776e6572206e6f72206578656375746f726044820152fd5b50335f9081525f516020613e5e5f395f51905f52602052604090205460ff16611f5e565b346105a15760203660031901126105a1576004356001600160401b0381116105a1576120c090369060040161259a565b8051906120cc82612583565b916120da6040519384612560565b8083526120e9601f1991612583565b015f5b8181106122405750505f5b81518110156121d9578061210d60019284612ab5565b515f52601060205260405f206121b760096040519261212b84612544565b80548452858101546020850152600281015460408501526003810154606085015260048101546080850152600581015460a0850152600681015460c0850152600781015460e085015260ff6008820154878060a01b038116610100870152818160a01c161515610120870152818160a81c16151561014087015260b01c16151561016085015201612979565b6101808201526121c78286612ab5565b526121d28185612ab5565b50016120f7565b826040518091602082016020835281518091526040830190602060408260051b8601019301915f905b82821061221157505050500390f35b919360019193955060206122308192603f198a820301865288516125f7565b9601920192018594939192612202565b60209061224b612a56565b828287010152016120ec565b346105a15760403660031901126105a157612270612518565b60243561227c8161336b565b3315158061232e575b80612301575b6122ee5781906001600160a01b0384811691167f8c5be1e5ebec7d5bd14f71427d1e84f3dd0314c0f7b2291e5b200ac8c7c3b9255f80a45f90815260046020526040902080546001600160a01b0319166001600160a01b03909216919091179055005b63a9fbf51f60e01b5f523360045260245ffd5b506001600160a01b0381165f90815260056020908152604080832033845290915290205460ff161561228b565b506001600160a01b038116331415612285565b346105a15760203660031901126105a15760206113e3600435612a32565b346105a1575f3660031901126105a15760206040515f516020613efe5f395f51905f528152f35b346105a1575f3660031901126105a1576040515f5f546123a58161289d565b808452906001811690811561110557506001146123cc576108d2836108be81850382612560565b5f8080527f290decd9548b62a8d60345a988386fc84ba6bc95484008f6362f93160ef3e563939250905b80821061240e575090915081016020016108be611097565b9192600181602092548385880101520191019092916123f6565b346105a15760203660031901126105a15760043563ffffffff60e01b81168091036105a157602090637965db0b60e01b811490811561246c57506040519015158152f35b63780e9d6360e01b811491508115612486575b5082611516565b6380ac58cd60e01b8114915081156124b8575b81156124a7575b508261247f565b6301ffc9a760e01b149050826124a0565b635b5e139f60e01b81149150612499565b346105a15760203660031901126105a1576020906004355f526011825260ff60405f20541615158152f35b805180835260209291819084018484015e5f828201840152601f01601f1916010190565b600435906001600160a01b03821682036105a157565b602435906001600160a01b03821682036105a157565b6101a081019081106001600160401b0382111761057f57604052565b601f909101601f19168101906001600160401b0382119082101761057f57604052565b6001600160401b03811161057f5760051b60200190565b9080601f830112156105a15781356125b181612583565b926125bf6040519485612560565b81845260208085019260051b8201019283116105a157602001905b8282106125e75750505090565b81358152602091820191016125da565b906101a061018061269b93805184526020810151602085015260408101516040850152606081015160608501526080810151608085015260a081015160a085015260c081015160c085015260e081015160e085015260018060a01b03610100820151166101008501526101208101511515610120850152610140810151151561014085015261016081015115156101608501520151918161018082015201906124f4565b90565b9181601f840112156105a1578235916001600160401b0383116105a157602083818601950101116105a157565b9060406003198301126105a15760043591602435906001600160401b0382116105a1576126fa9160040161269e565b9091565b60609060031901126105a1576004356001600160a01b03811681036105a157906024356001600160a01b03811681036105a1579060443590565b60206040818301928281528451809452019201905f5b81811061275b5750505090565b825184526020938401939092019160010161274e565b346105a15760203660031901126105a15760043561278d612a56565b50805f5260116020526127a660ff60405f205416612add565b5f5260106020526108d260405f206128546009604051926127c684612544565b8054845260018101546020850152600281015460408501526003810154606085015260048101546080850152600581015460a0850152600681015460c0850152600781015460e085015260ff600882015460018060a01b038116610100870152818160a01c161515610120870152818160a81c16151561014087015260b01c16151561016085015201612979565b6101808201526040519182916020835260208301906125f7565b60409060031901126105a1576004356001600160a01b03811681036105a1579060243580151581036105a15790565b90600182811c921680156128cb575b60208310146128b757565b634e487b7160e01b5f52602260045260245ffd5b91607f16916128ac565b604051905f82600e54916128e88361289d565b808352926001811690811561295a575060011461290e575b61290c92500383612560565b565b50600e5f90815290915f516020613dfe5f395f51905f525b81831061293e57505090602061290c92820101612900565b6020919350806001915483858901015201910190918492612926565b6020925061290c94915060ff191682840152151560051b820101612900565b9060405191825f82549261298c8461289d565b80845293600181169081156129f557506001146129b1575b5061290c92500383612560565b90505f9291925260205f20905f915b8183106129d957505090602061290c928201015f6129a4565b60209193508060019154838589010152019101909184926129c0565b90506020925061290c94915060ff191682840152151560051b8201015f6129a4565b6001600160401b03811161057f57601f01601f191660200190565b612a3b8161336b565b505f908152600460205260409020546001600160a01b031690565b60405190612a6382612544565b6060610180835f81525f60208201525f60408201525f838201525f60808201525f60a08201525f60c08201525f60e08201525f6101008201525f6101208201525f6101408201525f6101608201520152565b8051821015612ac95760209160051b010190565b634e487b7160e01b5f52603260045260245ffd5b15612ae457565b60405162461bcd60e51b8152602060048201526014602482015273151bdad95b88191bd95cc81b9bdd08195e1a5cdd60621b6044820152606490fd5b818110612b2b575050565b5f8155600101612b20565b9190601f8111612b4557505050565b61290c925f5260205f20906020601f840160051c830193106117c957601f0160051c0190612b20565b8160011b915f199060031b1c19161790565b90918060409360208452816020850152848401375f828201840152601f01601f1916010190565b15612bae57565b60405162461bcd60e51b815260206004820152601960248201527821b0b63632b91034b9903737ba1030b71032bc32b1baba37b960391b6044820152606490fd5b805460ff60a81b191691151560a81b60ff60a81b16919091179055565b805460ff60b01b191691151560b01b60ff60b01b16919091179055565b805460ff60a01b191691151560a01b60ff60a01b16919091179055565b9091906001600160a01b0383168015612f655760ff600c5416612f22573315159384612eca575b5f848152600260205260409020546001600160a01b03169480612e3a575b5084158015612e19575b825f52600360205260405f2060018154019055845f52600260205260405f208360018060a01b03198254161790558483875f516020613ebe5f395f51905f525f80a415612d9c57600854845f5260096020528060405f2055600160401b81101561057f5784612d0d826001612d259401600855613060565b90919082549060031b91821b915f19901b1916179055565b818503612d5c575b50506001600160a01b0316808303612d4457505050565b6364283d7b60e01b5f5260045260245260445260645ffd5b612d65906130b8565b5f1981019190821161152b575f52600660205260405f20815f526020528260405f2055825f52600760205260405f20555f80612d2d565b848214612d2557612dac856130b8565b845f52600760205260405f205490865f52600660205260405f2091818103612dee575b50855f5260076020525f60408120555f526020525f6040812055612d25565b815f528260205260405f2054815f52836020528060405f20555f52600760205260405f20555f612dcf565b612e2285613da0565b855f52600360205260405f205f198154019055612c95565b80612e79575b15612e4b575f612c8b565b8385612e6357637e27328960e01b5f5260045260245ffd5b63177e802f60e01b5f523360045260245260445ffd5b503385148015612ea8575b80612e4057505f848152600460205260409020546001600160a01b03163314612e40565b505f85815260056020908152604080832033845290915290205460ff16612e84565b835f52601060205260ff600860405f20015460b01c1615612c6d5760405162461bcd60e51b8152602060048201526015602482015274151bdad95b881d1c985b9cd9995c881b1bd8dad959605a1b6044820152606490fd5b60405162461bcd60e51b815260206004820152601b60248201527a151bdad95b881d1c985b9cd9995c881dda1a5b19481c185d5cd959602a1b6044820152606490fd5b633250574960e11b5f525f60045260245ffd5b5f516020613efe5f395f51905f525f52600b6020527f722c076037ad8ffdcc6741eab5f84938edc5ad0e2aada3e8603ecd986134c0fc5490565b5f52600b602052600160405f20015490565b612fcd816130b8565b821015612ff55760018060a01b03165f52600660205260405f20905f5260205260405f205490565b63295f44f760e21b5f5260018060a01b031660045260245260445ffd5b61301c815461289d565b9081613026575050565b81601f5f9311600114613037575055565b8183526020832061305391601f0160051c810190600101612b20565b8082528160208120915555565b600854811015612ac95760085f5260205f2001905f90565b9061308282612583565b61308f6040519182612560565b82815280926130a0601f1991612583565b0190602036910137565b5f19811461152b5760010190565b6001600160a01b031680156130d6575f52600360205260405f205490565b6322718ad960e21b5f525f60045260245ffd5b156130f057565b60405162461bcd60e51b8152602060048201526019602482015278496e76616c696420726563697069656e74206164647265737360381b6044820152606490fd5b1561313857565b60405162461bcd60e51b815260206004820152601c60248201527b05072696365206d7573742062652067726561746572207468616e20360241b6044820152606490fd5b1561318357565b60405162461bcd60e51b8152602060048201526019602482015278496e76616c6964207265776172642070657263656e7461676560381b6044820152606490fd5b156131cb57565b60405162461bcd60e51b815260206004820152602360248201527f546f74616c20746f6b656e73206d75737420626520677265617465722074686160448201526206e20360ec1b6064820152608490fd5b1561322357565b60405162461bcd60e51b815260206004820152601c60248201527b436c6f73652064617465206d75737420626520696e2066757475726560201b6044820152606490fd5b1561326e57565b60405162461bcd60e51b815260206004820152602160248201527f456e642064617465206d75737420626520616674657220636c6f7365206461746044820152606560f81b6064820152608490fd5b805f5260116020526132d560ff60405f205416612add565b805f52600f6020526132e960405f20612979565b6132f16128d5565b9080516133655750805161331557505060405161330f602082612560565b5f815290565b600561269b916020806133288196613cdb565b6040519684889551918291018487015e8401908282015f8152815193849201905e010164173539b7b760d91b815203601a19810184520182612560565b91505090565b5f818152600260205260409020546001600160a01b031690811561338d575090565b637e27328960e01b5f5260045260245ffd5b60ff600c5416612f22575f818152600260205260409020546001600160a01b0390811692168015158061356a575b5050811580159081613549575b5f83815260026020526040812080546001600160a01b03191690558390855f516020613ebe5f395f51905f528280a4156134ce5750600854815f5260096020528060405f2055600160401b81101561057f5781612d0d8260016134409401600855613060565b6008545f19810190811161152b57815f52600960205261346460405f205491613060565b90549060031b1c61347881612d0d84613060565b5f52600960205260405f20555f5260096020525f604081205560085480156134ba575f19016134a681613060565b8154905f199060031b1b1916905560085590565b634e487b7160e01b5f52603160045260245ffd5b15613440576134dc826130b8565b815f52600760205260405f205490835f52600660205260405f209181810361351e575b50825f5260076020525f60408120555f526020525f6040812055613440565b815f528260205260405f2054815f52836020528060405f20555f52600760205260405f20555f6134ff565b61355283613da0565b835f52600360205260405f205f1981540190556133da565b806135a8575b1561357b57806133cd565b826135935750637e27328960e01b5f5260045260245ffd5b63177e802f60e01b5f5260045260245260445ffd5b5080831480156135d7575b8061357057505f828152600460205260409020546001600160a01b03168114613570565b50825f52600560205260405f20815f5260205260ff60405f2054166135b3565b5f818152600b6020908152604080832033845290915290205460ff161561361b5750565b63e2517d3f60e01b5f523360045260245260445ffd5b6001600160a01b0381165f9081525f516020613e5e5f395f51905f52602052604090205460ff166136b1576001600160a01b03165f8181525f516020613e5e5f395f51905f5260205260408120805460ff191660011790553391905f516020613efe5f395f51905f52905f516020613dbe5f395f51905f529080a4600190565b505f90565b5f818152600b602090815260408083206001600160a01b038616845290915290205460ff16613729575f818152600b602090815260408083206001600160a01b0395909516808452949091528120805460ff19166001179055339291905f516020613dbe5f395f51905f529080a4600190565b50505f90565b6001600160a01b0381165f9081525f516020613e5e5f395f51905f52602052604090205460ff16156136b1576001600160a01b03165f8181525f516020613e5e5f395f51905f5260205260408120805460ff191690553391905f516020613efe5f395f51905f52905f516020613ede5f395f51905f529080a4600190565b5f818152600b602090815260408083206001600160a01b038616845290915290205460ff1615613729575f818152600b602090815260408083206001600160a01b0395909516808452949091528120805460ff19169055339291905f516020613ede5f395f51905f529080a4600190565b600a546001600160a01b0316330361383257565b63118cdaa760e01b5f523360045260245ffd5b600a80546001600160a01b039283166001600160a01b0319821681179092559091165f516020613e9e5f395f51905f525f80a3565b823b613888575b5050505050565b604051630a85bd0160e11b81526001600160a01b0391821660048201529181166024830152604482019390935260806064820152911691602090829081906138d49060848301906124f4565b03815f865af15f918161396b575b5061393757503d15613930573d6138f881612a17565b906139066040519283612560565b81523d5f602083013e5b8051908161392b5782633250574960e11b5f5260045260245ffd5b602001fd5b6060613910565b6001600160e01b03191663757a42ff60e11b0161395957505f80808080613881565b633250574960e11b5f5260045260245ffd5b9091506020813d6020116139a8575b8161398760209383612560565b810103126105a157516001600160e01b0319811681036105a157905f6138e2565b3d915061397a565b60ff600c54166139bc57565b63d93c066560e01b5f5260045ffd5b90602090604051906139dd8383612560565b5f82526001600160a01b038416938415612f655760ff600c5416613c98575f8281526002855260409020546001600160a01b031680158015919082613c78575b5f8881526003885260408082208054600101905586825260028952812080546001600160a01b0319168a1790558590899084905f516020613ebe5f395f51905f529080a415613c0257600854845f52600987528060405f2055600160401b81101561057f5784612d0d826001613a969401600855613060565b868103613bc7575b50613bb4573b613aaf575b50505050565b91613aec91819495936040519384928392630a85bd0160e11b84523360048501525f602485015260448401526080606484015260848301906124f4565b03815f885af15f9181613b74575b50613b4f5750503d15613b47573d90613b1282612a17565b91613b206040519384612560565b82523d5f8284013e5b81519182613b445783633250574960e11b5f5260045260245ffd5b01fd5b606090613b29565b909291506001600160e01b03191663757a42ff60e11b0161395957505f808080613aa9565b9091508381813d8311613bad575b613b8c8183612560565b810103126105a157516001600160e01b0319811681036105a157905f613afa565b503d613b82565b6339e3563760e11b5f525f60045260245ffd5b613bd0836130b8565b5f19810190811161152b57875f526006875260405f20815f5287528460405f2055845f526007875260405f2055613a9e565b808714613a9657613c12816130b8565b845f526007875260405f205490825f526006885260405f2091818103613c50575b50855f52600788525f60408120555f5286525f6040812055613a96565b815f5282895260405f2054815f52838a528060405f20555f526007895260405f20555f613c33565b613c8185613da0565b815f526003875260405f205f198154019055613a1d565b60405162461bcd60e51b815260048101859052601b60248201527a151bdad95b881d1c985b9cd9995c881dda1a5b19481c185d5cd959602a1b6044820152606490fd5b8015613d80575f81805b613d6c5750613cf381612a17565b90613d016040519283612560565b808252601f19613d1082612a17565b013660208401375b80928015613d65575f19820191821161152b578193600a8206603001928360301161152b5784511115612ac957600a9260f81b6001600160f81b0319165f1a908401601f01530491613d18565b5050905090565b90613d78600a916130aa565b910480613ce5565b50604051613d8f604082612560565b60018152600360fc1b602082015290565b5f90815260046020526040902080546001600160a01b031916905556fe2f8788117e7eff1d82e926ec794901d17c78024a50270940304540a733656f0d931f495b9a8e5d8e61946ea5d61e021f636cfe213a801f97589c18c152e408bdbb7b4a454dc3493923482f07822329ed19e8244eff582cc204f8554c3620c3fd90e929fbd463dd0bab90901d998cd0d0908551c0e028b559f240ef01b23058be19cc59039f8eb7ba436b5b291277e03e5209d6d8e48c1bdba4716897fc614b99722c076037ad8ffdcc6741eab5f84938edc5ad0e2aada3e8603ecd986134c0fb0aa07a7d01a8e97dec64df7f721c779f94884dfd3f5a0c61bfc2dd469032661d8be0079c531659141344cd1fd0a4f28419497f9722a3daafe3b4186f6b6457e0ddf252ad1be2c89b69c2b068fc378daa952ba7f163c4a11628f55a4df523b3eff6391f5c32d9c69d2a47ea670b442974b53935d1edc7fd64eb21e047a839171bd8aa0f3194971a2a116679f7c2090f6939c8d4e01a2a8d7e41d55e5351469e636741b2fc379fad678116fe3d4d4b9a1a184ab53ba36b86ad0fa66340b1ab41ada26469706673582212206cae4c3980048b1fa7f0c0e230279d94b14144816121566dd3aa1e13361d567164736f6c634300081c00332f8788117e7eff1d82e926ec794901d17c78024a50270940304540a733656f0ddf7de25b7f1fd6d0b5205f0e18f1f35bd7b8d84cce336588d184533ce43a6f76722c076037ad8ffdcc6741eab5f84938edc5ad0e2aada3e8603ecd986134c0fb",
  "linkReferences": {},
  "deployedLinkReferences": {},
  "immutableReferences": {},
  "inputSourceName": "project/contracts/DZNFT.sol",
  "buildInfoId": "solc-0_8_28-d4f061109b32caed2b5bd348d7326fbddffb80ec"
}