{
  "_format": "hh3-artifact-1",
  "contractName": "FundRaisingContractNFT",
  "sourceName": "contracts/FundRaisingContractNFT.sol",
  "abi": [
    {
      "inputs": [
        {
          "internalType": "address",
          "name": "_dzNFT",
          "type": "address"
        },
        {
          "internalType": "address",
          "name": "_usdtToken",
          "type": "address"
        }
      ],
      "stateMutability": "nonpayable",
      "type": "constructor"
    },
    {
      "inputs": [],
      "name": "EnforcedPause",
      "type": "error"
    },
    {
      "inputs": [],
      "name": "ExpectedPause",
      "type": "error"
    },
    {
      "inputs": [
        {
          "internalType": "address",
          "name": "owner",
          "type": "address"
        }
      ],
      "name": "OwnableInvalidOwner",
      "type": "error"
    },
    {
      "inputs": [
        {
          "internalType": "address",
          "name": "account",
          "type": "address"
        }
      ],
      "name": "OwnableUnauthorizedAccount",
      "type": "error"
    },
    {
      "inputs": [],
      "name": "ReentrancyGuardReentrantCall",
      "type": "error"
    },
    {
      "anonymous": false,
      "inputs": [
        {
          "indexed": true,
          "internalType": "uint256",
          "name": "tokenId",
          "type": "uint256"
        },
        {
          "indexed": true,
          "internalType": "address",
          "name": "investor",
          "type": "address"
        },
        {
          "indexed": false,
          "internalType": "uint256",
          "name": "rewardAmount",
          "type": "uint256"
        }
      ],
      "name": "EarlyRewardClaimed",
      "type": "event"
    },
    {
      "anonymous": false,
      "inputs": [
        {
          "indexed": true,
          "internalType": "address",
          "name": "previousOwner",
          "type": "address"
        },
        {
          "indexed": true,
          "internalType": "address",
          "name": "newOwner",
          "type": "address"
        }
      ],
      "name": "OwnershipTransferred",
      "type": "event"
    },
    {
      "anonymous": false,
      "inputs": [
        {
          "indexed": false,
          "internalType": "address",
          "name": "account",
          "type": "address"
        }
      ],
      "name": "Paused",
      "type": "event"
    },
    {
      "anonymous": false,
      "inputs": [
        {
          "indexed": true,
          "internalType": "uint256",
          "name": "roundId",
          "type": "uint256"
        },
        {
          "indexed": false,
          "internalType": "uint256",
          "name": "amount",
          "type": "uint256"
        },
        {
          "indexed": false,
          "internalType": "uint256",
          "name": "totalPoolAmount",
          "type": "uint256"
        }
      ],
      "name": "RewardAdded",
      "type": "event"
    },
    {
      "anonymous": false,
      "inputs": [
        {
          "indexed": true,
          "internalType": "uint256",
          "name": "roundId",
          "type": "uint256"
        },
        {
          "indexed": false,
          "internalType": "uint256",
          "name": "amount",
          "type": "uint256"
        }
      ],
      "name": "RoundFunded",
      "type": "event"
    },
    {
      "anonymous": false,
      "inputs": [
        {
          "indexed": true,
          "internalType": "uint256",
          "name": "roundId",
          "type": "uint256"
        },
        {
          "indexed": false,
          "internalType": "bool",
          "name": "isActive",
          "type": "bool"
        }
      ],
      "name": "RoundStatusChanged",
      "type": "event"
    },
    {
      "anonymous": false,
      "inputs": [
        {
          "indexed": true,
          "internalType": "address",
          "name": "oldToken",
          "type": "address"
        },
        {
          "indexed": true,
          "internalType": "address",
          "name": "newToken",
          "type": "address"
        }
      ],
      "name": "USDTTokenUpdated",
      "type": "event"
    },
    {
      "anonymous": false,
      "inputs": [
        {
          "indexed": false,
          "internalType": "address",
          "name": "account",
          "type": "address"
        }
      ],
      "name": "Unpaused",
      "type": "event"
    },
    {
      "inputs": [],
      "name": "MAX_BATCH_CLAIM",
      "outputs": [
        {
          "internalType": "uint256",
          "name": "",
          "type": "uint256"
        }
      ],
      "stateMutability": "view",
      "type": "function"
    },
    {
      "inputs": [],
      "name": "MAX_TOKENS_PER_INVESTMENT",
      "outputs": [
        {
          "internalType": "uint256",
          "name": "",
          "type": "uint256"
        }
      ],
      "stateMutability": "view",
      "type": "function"
    },
    {
      "inputs": [],
      "name": "USDT_DECIMALS",
      "outputs": [
        {
          "internalType": "uint256",
          "name": "",
          "type": "uint256"
        }
      ],
      "stateMutability": "view",
      "type": "function"
    },
    {
      "inputs": [],
      "name": "_nextRoundId",
      "outputs": [
        {
          "internalType": "uint256",
          "name": "",
          "type": "uint256"
        }
      ],
      "stateMutability": "view",
      "type": "function"
    },
    {
      "inputs": [
        {
          "internalType": "uint256",
          "name": "roundId",
          "type": "uint256"
        },
        {
          "internalType": "uint256",
          "name": "amount",
          "type": "uint256"
        }
      ],
      "name": "addRewardToRound",
      "outputs": [],
      "stateMutability": "nonpayable",
      "type": "function"
    },
    {
      "inputs": [
        {
          "internalType": "uint256",
          "name": "roundId",
          "type": "uint256"
        }
      ],
      "name": "claimRewardRound",
      "outputs": [],
      "stateMutability": "nonpayable",
      "type": "function"
    },
    {
      "inputs": [
        {
          "internalType": "string",
          "name": "roundName",
          "type": "string"
        },
        {
          "internalType": "uint256",
          "name": "tokenPrice",
          "type": "uint256"
        },
        {
          "internalType": "uint256",
          "name": "rewardPercentage",
          "type": "uint256"
        },
        {
          "internalType": "uint256",
          "name": "totalTokenOpenInvestment",
          "type": "uint256"
        },
        {
          "internalType": "uint256",
          "name": "closeDateInvestment",
          "type": "uint256"
        },
        {
          "internalType": "uint256",
          "name": "endDateInvestment",
          "type": "uint256"
        }
      ],
      "name": "createInvestmentRound",
      "outputs": [
        {
          "internalType": "uint256",
          "name": "",
          "type": "uint256"
        }
      ],
      "stateMutability": "nonpayable",
      "type": "function"
    },
    {
      "inputs": [],
      "name": "dzNFT",
      "outputs": [
        {
          "internalType": "contract DZNFT",
          "name": "",
          "type": "address"
        }
      ],
      "stateMutability": "view",
      "type": "function"
    },
    {
      "inputs": [
        {
          "internalType": "uint256",
          "name": "amount",
          "type": "uint256"
        }
      ],
      "name": "emergencyWithdraw",
      "outputs": [],
      "stateMutability": "nonpayable",
      "type": "function"
    },
    {
      "inputs": [
        {
          "internalType": "uint256",
          "name": "roundId",
          "type": "uint256"
        },
        {
          "internalType": "uint256",
          "name": "amount",
          "type": "uint256"
        }
      ],
      "name": "emergencyWithdrawFromRound",
      "outputs": [],
      "stateMutability": "nonpayable",
      "type": "function"
    },
    {
      "inputs": [],
      "name": "getContractUSDTBalance",
      "outputs": [
        {
          "internalType": "uint256",
          "name": "",
          "type": "uint256"
        }
      ],
      "stateMutability": "view",
      "type": "function"
    },
    {
      "inputs": [
        {
          "internalType": "uint256",
          "name": "roundId",
          "type": "uint256"
        }
      ],
      "name": "getInvestmentRound",
      "outputs": [
        {
          "components": [
            {
              "internalType": "uint256",
              "name": "roundId",
              "type": "uint256"
            },
            {
              "internalType": "string",
              "name": "roundName",
              "type": "string"
            },
            {
              "internalType": "uint256",
              "name": "tokenPrice",
              "type": "uint256"
            },
            {
              "internalType": "uint256",
              "name": "rewardPercentage",
              "type": "uint256"
            },
            {
              "internalType": "uint256",
              "name": "totalTokenOpenInvestment",
              "type": "uint256"
            },
            {
              "internalType": "uint256",
              "name": "tokensSold",
              "type": "uint256"
            },
            {
              "internalType": "uint256",
              "name": "closeDateInvestment",
              "type": "uint256"
            },
            {
              "internalType": "uint256",
              "name": "endDateInvestment",
              "type": "uint256"
            },
            {
              "internalType": "bool",
              "name": "isActive",
              "type": "bool"
            },
            {
              "internalType": "bool",
              "name": "exists",
              "type": "bool"
            },
            {
              "internalType": "uint256",
              "name": "createdAt",
              "type": "uint256"
            },
            {
              "internalType": "enum FundRaisingContractNFT.Status",
              "name": "status",
              "type": "uint8"
            }
          ],
          "internalType": "struct FundRaisingContractNFT.InvestmentRound",
          "name": "",
          "type": "tuple"
        }
      ],
      "stateMutability": "view",
      "type": "function"
    },
    {
      "inputs": [
        {
          "internalType": "address",
          "name": "investor",
          "type": "address"
        }
      ],
      "name": "getInvestorDetail",
      "outputs": [
        {
          "internalType": "uint256",
          "name": "totalTokensOwned",
          "type": "uint256"
        },
        {
          "internalType": "uint256[]",
          "name": "nftTokenIds",
          "type": "uint256[]"
        },
        {
          "internalType": "uint256",
          "name": "totalInvestment",
          "type": "uint256"
        },
        {
          "internalType": "uint256",
          "name": "dividendsEarned",
          "type": "uint256"
        },
        {
          "internalType": "uint256[]",
          "name": "activeRounds",
          "type": "uint256[]"
        }
      ],
      "stateMutability": "view",
      "type": "function"
    },
    {
      "inputs": [
        {
          "internalType": "address",
          "name": "investor",
          "type": "address"
        }
      ],
      "name": "getInvestorRoundIds",
      "outputs": [
        {
          "internalType": "uint256[]",
          "name": "roundIds",
          "type": "uint256[]"
        }
      ],
      "stateMutability": "view",
      "type": "function"
    },
    {
      "inputs": [
        {
          "internalType": "address",
          "name": "investor",
          "type": "address"
        }
      ],
      "name": "getInvestorRounds",
      "outputs": [
        {
          "internalType": "uint256[]",
          "name": "roundIds",
          "type": "uint256[]"
        },
        {
          "components": [
            {
              "internalType": "uint256",
              "name": "roundId",
              "type": "uint256"
            },
            {
              "internalType": "string",
              "name": "roundName",
              "type": "string"
            },
            {
              "internalType": "uint256",
              "name": "tokenPrice",
              "type": "uint256"
            },
            {
              "internalType": "uint256",
              "name": "rewardPercentage",
              "type": "uint256"
            },
            {
              "internalType": "uint256",
              "name": "totalTokenOpenInvestment",
              "type": "uint256"
            },
            {
              "internalType": "uint256",
              "name": "tokensSold",
              "type": "uint256"
            },
            {
              "internalType": "uint256",
              "name": "closeDateInvestment",
              "type": "uint256"
            },
            {
              "internalType": "uint256",
              "name": "endDateInvestment",
              "type": "uint256"
            },
            {
              "internalType": "bool",
              "name": "isActive",
              "type": "bool"
            },
            {
              "internalType": "bool",
              "name": "exists",
              "type": "bool"
            },
            {
              "internalType": "uint256",
              "name": "createdAt",
              "type": "uint256"
            },
            {
              "internalType": "enum FundRaisingContractNFT.Status",
              "name": "status",
              "type": "uint8"
            }
          ],
          "internalType": "struct FundRaisingContractNFT.InvestmentRound[]",
          "name": "rounds",
          "type": "tuple[]"
        },
        {
          "internalType": "uint256[][]",
          "name": "nfts",
          "type": "uint256[][]"
        }
      ],
      "stateMutability": "view",
      "type": "function"
    },
    {
      "inputs": [
        {
          "internalType": "uint256",
          "name": "roundId",
          "type": "uint256"
        }
      ],
      "name": "getRoundStatus",
      "outputs": [
        {
          "internalType": "enum FundRaisingContractNFT.Status",
          "name": "status",
          "type": "uint8"
        }
      ],
      "stateMutability": "view",
      "type": "function"
    },
    {
      "inputs": [
        {
          "internalType": "uint256",
          "name": "roundId",
          "type": "uint256"
        }
      ],
      "name": "getRoundTokenIds",
      "outputs": [
        {
          "internalType": "uint256[]",
          "name": "",
          "type": "uint256[]"
        }
      ],
      "stateMutability": "view",
      "type": "function"
    },
    {
      "inputs": [
        {
          "internalType": "uint256",
          "name": "roundId",
          "type": "uint256"
        }
      ],
      "name": "getRoundUSDTBalance",
      "outputs": [
        {
          "internalType": "uint256",
          "name": "",
          "type": "uint256"
        }
      ],
      "stateMutability": "view",
      "type": "function"
    },
    {
      "inputs": [],
      "name": "getRoundsCount",
      "outputs": [
        {
          "internalType": "uint256",
          "name": "totalRounds",
          "type": "uint256"
        },
        {
          "internalType": "uint256",
          "name": "activeRounds",
          "type": "uint256"
        }
      ],
      "stateMutability": "view",
      "type": "function"
    },
    {
      "inputs": [],
      "name": "getUSDTTokenAddress",
      "outputs": [
        {
          "internalType": "address",
          "name": "",
          "type": "address"
        }
      ],
      "stateMutability": "view",
      "type": "function"
    },
    {
      "inputs": [
        {
          "internalType": "address",
          "name": "user",
          "type": "address"
        }
      ],
      "name": "getUserInvestments",
      "outputs": [
        {
          "internalType": "uint256[]",
          "name": "",
          "type": "uint256[]"
        }
      ],
      "stateMutability": "view",
      "type": "function"
    },
    {
      "inputs": [
        {
          "internalType": "uint256",
          "name": "roundId",
          "type": "uint256"
        },
        {
          "internalType": "address",
          "name": "user",
          "type": "address"
        }
      ],
      "name": "getUserNFTsInRound",
      "outputs": [
        {
          "internalType": "uint256[]",
          "name": "",
          "type": "uint256[]"
        }
      ],
      "stateMutability": "view",
      "type": "function"
    },
    {
      "inputs": [
        {
          "internalType": "uint256",
          "name": "roundId",
          "type": "uint256"
        },
        {
          "internalType": "uint256",
          "name": "tokenAmount",
          "type": "uint256"
        }
      ],
      "name": "investInRound",
      "outputs": [
        {
          "internalType": "uint256",
          "name": "",
          "type": "uint256"
        }
      ],
      "stateMutability": "nonpayable",
      "type": "function"
    },
    {
      "inputs": [
        {
          "internalType": "uint256",
          "name": "",
          "type": "uint256"
        }
      ],
      "name": "investmentRounds",
      "outputs": [
        {
          "internalType": "uint256",
          "name": "roundId",
          "type": "uint256"
        },
        {
          "internalType": "string",
          "name": "roundName",
          "type": "string"
        },
        {
          "internalType": "uint256",
          "name": "tokenPrice",
          "type": "uint256"
        },
        {
          "internalType": "uint256",
          "name": "rewardPercentage",
          "type": "uint256"
        },
        {
          "internalType": "uint256",
          "name": "totalTokenOpenInvestment",
          "type": "uint256"
        },
        {
          "internalType": "uint256",
          "name": "tokensSold",
          "type": "uint256"
        },
        {
          "internalType": "uint256",
          "name": "closeDateInvestment",
          "type": "uint256"
        },
        {
          "internalType": "uint256",
          "name": "endDateInvestment",
          "type": "uint256"
        },
        {
          "internalType": "bool",
          "name": "isActive",
          "type": "bool"
        },
        {
          "internalType": "bool",
          "name": "exists",
          "type": "bool"
        },
        {
          "internalType": "uint256",
          "name": "createdAt",
          "type": "uint256"
        },
        {
          "internalType": "enum FundRaisingContractNFT.Status",
          "name": "status",
          "type": "uint8"
        }
      ],
      "stateMutability": "view",
      "type": "function"
    },
    {
      "inputs": [
        {
          "internalType": "address",
          "name": "",
          "type": "address"
        }
      ],
      "name": "investorDividendsEarned",
      "outputs": [
        {
          "internalType": "uint256",
          "name": "",
          "type": "uint256"
        }
      ],
      "stateMutability": "view",
      "type": "function"
    },
    {
      "inputs": [
        {
          "internalType": "address",
          "name": "",
          "type": "address"
        },
        {
          "internalType": "uint256",
          "name": "",
          "type": "uint256"
        }
      ],
      "name": "investorRounds",
      "outputs": [
        {
          "internalType": "uint256",
          "name": "",
          "type": "uint256"
        }
      ],
      "stateMutability": "view",
      "type": "function"
    },
    {
      "inputs": [],
      "name": "owner",
      "outputs": [
        {
          "internalType": "address",
          "name": "",
          "type": "address"
        }
      ],
      "stateMutability": "view",
      "type": "function"
    },
    {
      "inputs": [],
      "name": "pause",
      "outputs": [],
      "stateMutability": "nonpayable",
      "type": "function"
    },
    {
      "inputs": [],
      "name": "paused",
      "outputs": [
        {
          "internalType": "bool",
          "name": "",
          "type": "bool"
        }
      ],
      "stateMutability": "view",
      "type": "function"
    },
    {
      "inputs": [],
      "name": "renounceOwnership",
      "outputs": [],
      "stateMutability": "nonpayable",
      "type": "function"
    },
    {
      "inputs": [
        {
          "internalType": "uint256",
          "name": "",
          "type": "uint256"
        }
      ],
      "name": "roundLedger",
      "outputs": [
        {
          "internalType": "uint256",
          "name": "",
          "type": "uint256"
        }
      ],
      "stateMutability": "view",
      "type": "function"
    },
    {
      "inputs": [
        {
          "internalType": "uint256",
          "name": "",
          "type": "uint256"
        }
      ],
      "name": "roundRewardPool",
      "outputs": [
        {
          "internalType": "uint256",
          "name": "",
          "type": "uint256"
        }
      ],
      "stateMutability": "view",
      "type": "function"
    },
    {
      "inputs": [
        {
          "internalType": "uint256",
          "name": "",
          "type": "uint256"
        },
        {
          "internalType": "uint256",
          "name": "",
          "type": "uint256"
        }
      ],
      "name": "roundTokenIds",
      "outputs": [
        {
          "internalType": "uint256",
          "name": "",
          "type": "uint256"
        }
      ],
      "stateMutability": "view",
      "type": "function"
    },
    {
      "inputs": [
        {
          "internalType": "uint256",
          "name": "roundId",
          "type": "uint256"
        },
        {
          "internalType": "bool",
          "name": "active",
          "type": "bool"
        }
      ],
      "name": "setRoundActive",
      "outputs": [],
      "stateMutability": "nonpayable",
      "type": "function"
    },
    {
      "inputs": [
        {
          "internalType": "address",
          "name": "newUSDTToken",
          "type": "address"
        }
      ],
      "name": "setUSDTToken",
      "outputs": [],
      "stateMutability": "nonpayable",
      "type": "function"
    },
    {
      "inputs": [],
      "name": "totalRoundsCreated",
      "outputs": [
        {
          "internalType": "uint256",
          "name": "",
          "type": "uint256"
        }
      ],
      "stateMutability": "view",
      "type": "function"
    },
    {
      "inputs": [],
      "name": "totalUSDTRaised",
      "outputs": [
        {
          "internalType": "uint256",
          "name": "",
          "type": "uint256"
        }
      ],
      "stateMutability": "view",
      "type": "function"
    },
    {
      "inputs": [
        {
          "internalType": "address",
          "name": "newOwner",
          "type": "address"
        }
      ],
      "name": "transferOwnership",
      "outputs": [],
      "stateMutability": "nonpayable",
      "type": "function"
    },
    {
      "inputs": [],
      "name": "unpause",
      "outputs": [],
      "stateMutability": "nonpayable",
      "type": "function"
    },
    {
      "inputs": [
        {
          "internalType": "uint256",
          "name": "roundId",
          "type": "uint256"
        },
        {
          "internalType": "enum FundRaisingContractNFT.Status",
          "name": "status",
          "type": "uint8"
        }
      ],
      "name": "updateStatus",
      "outputs": [],
      "stateMutability": "nonpayable",
      "type": "function"
    },
    {
      "inputs": [],
      "name": "usdtToken",
      "outputs": [
        {
          "internalType": "contract IERC20",
          "name": "",
          "type": "address"
        }
      ],
      "stateMutability": "view",
      "type": "function"
    },
    {
      "inputs": [
        {
          "internalType": "address",
          "name": "",
          "type": "address"
        },
        {
          "internalType": "uint256",
          "name": "",
          "type": "uint256"
        }
      ],
      "name": "userClaimedRewards",
      "outputs": [
        {
          "internalType": "uint256",
          "name": "",
          "type": "uint256"
        }
      ],
      "stateMutability": "view",
      "type": "function"
    },
    {
      "inputs": [
        {
          "internalType": "address",
          "name": "",
          "type": "address"
        },
        {
          "internalType": "uint256",
          "name": "",
          "type": "uint256"
        }
      ],
      "name": "userInvestments",
      "outputs": [
        {
          "internalType": "uint256",
          "name": "",
          "type": "uint256"
        }
      ],
      "stateMutability": "view",
      "type": "function"
    },
    {
      "inputs": [
        {
          "internalType": "uint256",
          "name": "",
          "type": "uint256"
        },
        {
          "internalType": "address",
          "name": "",
          "type": "address"
        },
        {
          "internalType": "uint256",
          "name": "",
          "type": "uint256"
        }
      ],
      "name": "userNFTsInRound",
      "outputs": [
        {
          "internalType": "uint256",
          "name": "",
          "type": "uint256"
        }
      ],
      "stateMutability": "view",
      "type": "function"
    },
    {
      "inputs": [
        {
          "internalType": "uint256",
          "name": "roundId",
          "type": "uint256"
        }
      ],
      "name": "withdrawFund",
      "outputs": [],
      "stateMutability": "nonpayable",
      "type": "function"
    }
  ],
  "bytecode": "0x60a0346101bb57601f6136ff38819003918201601f19168301916001600160401b038311848410176101bf5780849260409485528339810103126101bb57610052602061004b836101d3565b92016101d3565b9033156101a8575f8054336001600160a01b0319821681178355604051939290916001600160a01b0316907f8be0079c531659141344cd1fd0a4f28419497f9722a3daafe3b4186f6b6457e09080a3600180556001600160a01b031690811561016657506001600160a01b038216156101215760805260028054610100600160a81b03191660089290921b610100600160a81b031691909117905560405161351790816101e8823960805181818161095701528181610b1c01528181610e88015281816116f7015261304b0152f35b60405162461bcd60e51b815260206004820152601460248201527f496e76616c6964205553445420616464726573730000000000000000000000006044820152606490fd5b62461bcd60e51b815260206004820152601560248201527f496e76616c696420445a4e4654206164647265737300000000000000000000006044820152606490fd5b631e4fbdf760e01b5f525f60045260245ffd5b5f80fd5b634e487b7160e01b5f52604160045260245ffd5b51906001600160a01b03821682036101bb5756fe6080806040526004361015610012575f80fd5b5f3560e01c90816308c89b6d146129a3575080630cee1725146128a85780631086bfdc146128535780631144e79e14610de45780631470e87d1461106c578063161f6622146127d157806318f38da2146127345780631f8cfb03146126d857806330814b1b146126bb57806330901347146123e25780633a1b3d31146123855780633f4ba83a1461231f5780634007a762146122e757806346468763146120fe5780635312ea8e14611fa35780635c975abb14611f81578063632d45eb14611f5757806366e226bd14611e44578063676045511461165257806369fbd3cc14611587578063715018a614611543578063760ca4f41461138a57806379b2c17a146112f35780637c315754146112aa5780637f46f82e1461122d5780638456cb59146111d45780638da5cb5b146111ad5780639244adcd1461116457806393b58d8114611120578063a09686c414611098578063a98ad46c1461106c578063b0eff3161461104f578063b175b32f14611025578063b201c0c314610ff6578063b4ad7d3a14610fae578063b82e4fc314610eb7578063bf32eb0114610e73578063c52c5c8814610de9578063c6f8341814610de4578063c8f7604014610d5a578063df8493b0146107ce578063e96d87b4146102fd578063ef1b92a41461029c578063ef2cfd1a146102815763f2fde38b1461020b575f80fd5b3461027d57602036600319011261027d57610224612a2e565b61022c613440565b6001600160a01b0316801561026a575f80546001600160a01b03198116831782556001600160a01b0316905f5160206134c25f395f51905f529080a3005b631e4fbdf760e01b5f525f60045260245ffd5b5f80fd5b3461027d575f36600319011261027d57602060405160128152f35b3461027d57606036600319011261027d576102b5612a18565b604435906004355f52600660205260405f209060018060a01b03165f5260205260405f20805482101561027d576020916102ee91612c2f565b90549060031b1c604051908152f35b3461027d5760c036600319011261027d576004356001600160401b03811161027d573660238201121561027d57806004013561033881612c58565b916103466040519384612b6c565b818352366024838301011161027d57815f926024602093018386013783010152608435906024359060a43560643560443561037f613440565b83511561078c578415610748578015158061073c575b156106eb57811561069a57428611156106565785831115610607576103c8600c54956103c08761300d565b600c55612fb5565b92604051966103d688612b50565b8688526020880195865260408801948552606088019283526080880193845260a088015f815260c0890191825260e08901928352610100890194600186526101208a0194600186526101408b01974289526101608c01995f8b528b5f52600360205260405f209c518d5560018d01905180519060018060401b0382116105f35781906104628454612b18565b601f81116105a3575b50602090601f8311600114610540575f92610535575b50508160011b915f199060031b1c19161790555b5160028c01555160038b01555160048a01555160058901555160068801555160078701556104d66008870192511515839060ff801983541691151516179055565b51815461ff00191690151560081b61ff00161790555160098401555191600583101561052157602092600a61050b9201612d21565b610516600d5461300d565b600d55604051908152f35b634e487b7160e01b5f52602160045260245ffd5b015190508f80610481565b5f8581528281209350601f198516905b81811061058b5750908460019594939210610573575b505050811b019055610495565b01515f1960f88460031b161c191690558f8080610566565b92936020600181928786015181550195019301610550565b909150835f5260205f20601f840160051c810191602085106105e9575b90601f859493920160051c01905b8181106105db575061046b565b5f81558493506001016105ce565b90915081906105c0565b634e487b7160e01b5f52604160045260245ffd5b60405162461bcd60e51b815260206004820152602160248201527f456e642064617465206d75737420626520616674657220636c6f7365206461746044820152606560f81b6064820152608490fd5b60405162461bcd60e51b815260206004820152601c60248201527b436c6f73652064617465206d75737420626520696e2066757475726560201b6044820152606490fd5b60405162461bcd60e51b815260206004820152602360248201527f546f74616c20746f6b656e73206d75737420626520677265617465722074686160448201526206e20360ec1b6064820152608490fd5b60405162461bcd60e51b815260206004820152602360248201527f496e76616c6964207265776172642070657263656e746167652028302d31303060448201526230302960e81b6064820152608490fd5b50612710811115610395565b60405162461bcd60e51b815260206004820152601c60248201527b05072696365206d7573742062652067726561746572207468616e20360241b6044820152606490fd5b60405162461bcd60e51b815260206004820152601a602482015279526f756e64206e616d652063616e6e6f7420626520656d70747960301b6044820152606490fd5b3461027d576107dc36612b02565b906107e5613466565b6107ed613486565b805f52600360205261080b60ff600860405f20015460081c16612c73565b805f52600360205260ff600860405f2001541615610d1f57805f52600360205261083e600660405f2001544211156133c1565b805f526003602052610858600660405f20015442106133c1565b8115610cce5760508211610c6c57805f52600360205260405f209060028201610882815485612fed565b928315610c2e576005810191610899868454613000565b600483015410610bd7576002546040516323b872dd60e01b815290602090829060081c6001600160a01b0316815f816108d78c30336004850161339f565b03925af18015610aaa575f90610b9c575b6108f29150612cde565b54906003810154906007600682015491015491600188115f14610ab557604051632fdc968f60e21b8152336004820152602481018990526044810187905260648101949094526084840152600160a484015260c483015260e48201525f8161010481837f00000000000000000000000000000000000000000000000000000000000000006001600160a01b03165af1908115610aaa575f91610a88575b50935b825f52600460205260405f20335f52600560205260405f2090845f52600660205260405f2060018060a01b0333165f5260205260405f20805415925f5b858110610a43576020610a1d8b8b8b8b6109f08c8c610a2a575b8254613000565b90556109fe82600e54613000565b600e555f5260078452610a1660405f20918254613000565b9055612e42565b5160018055604051908152f35b335f5260088852610a3e8460405f2061340c565b6109e9565b80610a5a610a536001938d612e4f565b518661340c565b610a6e610a67828d612e4f565b518461340c565b610a82610a7b828d612e4f565b518561340c565b016109cf565b610aa491503d805f833e610a9c8183612b6c565b810190612d97565b8561098f565b6040513d5f823e3d90fd5b9692604092835192610ac78585612b6c565b60018452601f198501366020860137839985519363f4fb815960e01b8552336004860152896024860152604485015260648401526001608484015260a483015260c482015260208160e4815f60018060a01b037f0000000000000000000000000000000000000000000000000000000000000000165af1928315610b9357505f92610b5d575b50610b5790612e42565b52610992565b9091506020813d602011610b8b575b81610b7960209383612b6c565b8101031261027d575190610b57610b4d565b3d9150610b6c565b513d5f823e3d90fd5b506020813d602011610bcf575b81610bb660209383612b6c565b8101031261027d57610bca6108f291612cb6565b6108e8565b3d9150610ba9565b60405162461bcd60e51b815260206004820152602960248201527f4e6f7420656e6f75676820746f6b656e7320617661696c61626c6520696e20746044820152681a1a5cc81c9bdd5b9960ba1b6064820152608490fd5b60405162461bcd60e51b8152602060048201526016602482015275151bdad95b88185b5bdd5b9d081d1bdbc81cdb585b1b60521b6044820152606490fd5b60405162461bcd60e51b815260206004820152603460248201527f546f6b656e20616d6f756e742065786365656473206d6178696d756d20616c6c60448201527337bbb2b2103832b9103a3930b739b0b1ba34b7b760611b6064820152608490fd5b60405162461bcd60e51b815260206004820152602360248201527f546f6b656e20616d6f756e74206d75737420626520677265617465722074686160448201526206e20360ec1b6064820152608490fd5b60405162461bcd60e51b8152602060048201526013602482015272526f756e64206973206e6f742061637469766560681b6044820152606490fd5b3461027d575f36600319011261027d576002546040516370a0823160e01b8152306004820152906020908290602490829060081c6001600160a01b03165afa8015610aaa575f90610db1575b602090604051908152f35b506020813d602011610ddc575b81610dcb60209383612b6c565b8101031261027d5760209051610da6565b3d9150610dbe565b6129ca565b3461027d57602036600319011261027d576001600160a01b03610e0a612a2e565b165f52600560205260405f206040519081602082549182815201915f5260205f20905f5b818110610e5d57610e5985610e4581870382612b6c565b6040519182916020835260208301906129e5565b0390f35b8254845260209093019260019283019201610e2e565b3461027d575f36600319011261027d576040517f00000000000000000000000000000000000000000000000000000000000000006001600160a01b03168152602090f35b3461027d57602036600319011261027d57600435610ed36132e9565b50805f526003602052610ef260ff600860405f20015460081c16612c73565b5f526003602052610e5960405f20610f9a60ff600a60405193610f1485612b50565b80548552610f2460018201612b8f565b6020860152600281015460408601526003810154606086015260048101546080860152600581015460a0860152600681015460c0860152600781015460e0860152826008820154818116151561010088015260081c16151561012086015260098101546101408601520154166101608301613342565b604051918291602083526020830190612a68565b3461027d57602036600319011261027d57600435805f526003602052610fe060ff600860405f20015460081c16612c73565b5f526007602052602060405f2054604051908152f35b3461027d5761100436612b02565b905f52600460205260405f20805482101561027d576020916102ee91612c2f565b3461027d57602036600319011261027d576004355f526009602052602060405f2054604051908152f35b3461027d575f36600319011261027d576020600c54604051908152f35b3461027d575f36600319011261027d5760025460405160089190911c6001600160a01b03168152602090f35b3461027d575f36600319011261027d57600d545f905f600c54905b8181106110ca576040838582519182526020820152f35b805f52600360205260ff600860405f20015460081c1680611107575b6110f3575b6001016110b3565b926110ff60019161300d565b9390506110eb565b50805f52600360205260ff600860405f200154166110e6565b3461027d57604036600319011261027d576001600160a01b03611141612a2e565b165f52600a60205260405f206024355f52602052602060405f2054604051908152f35b3461027d57604036600319011261027d5761117d612a2e565b6001600160a01b03165f9081526005602052604090208054602435919082101561027d576020916102ee91612c2f565b3461027d575f36600319011261027d575f546040516001600160a01b039091168152602090f35b3461027d575f36600319011261027d576111ec613440565b6111f4613486565b600160ff1960025416176002557f62e78cea01bee320cd4e420270b5ea74000d11b0c9f74754ebdbfc544b05a2586020604051338152a1005b3461027d57602036600319011261027d576001600160a01b0361124e612a2e565b1661125a811515612d39565b5f52600860205260405f206040519081602082549182815201915f5260205f20905f5b81811061129457610e5985610e4581870382612b6c565b825484526020909301926001928301920161127d565b3461027d57604036600319011261027d576112c3612a2e565b6001600160a01b03165f9081526008602052604090208054602435919082101561027d576020916102ee91612c2f565b3461027d57604036600319011261027d576004356024358015159081810361027d577fdd8c33b779db77b877161fe300dfc92dc5b0d87c7e4199701eb25330a83e16f991611381602092611345613440565b855f526003845261136260ff600860405f20015460081c16612c73565b855f5260038452600860405f20019060ff801983541691151516179055565b604051908152a2005b3461027d5761139836612b02565b6113a0613440565b815f5260036020526113be60ff600860405f20015460081c16612c73565b80156114f2576002545f906020906114039060081c6001600160a01b03166113e585612fb5565b6040519485809481936323b872dd60e01b835230336004850161339f565b03925af1908115610aaa575f916114a1575b505f5160206134a25f395f51905f5291611430604092612cde565b61143981612fb5565b845f52600960205261144f835f20918254613000565b905561145a81612fb5565b845f526007602052611470835f20918254613000565b9055835f526004602052611488825f2054151561335b565b835f526009602052815f205482519182526020820152a2005b90506020813d6020116114ea575b816114bc60209383612b6c565b8101031261027d575f5160206134a25f395f51905f52916114306114e1604093612cb6565b92505091611415565b3d91506114af565b60405162461bcd60e51b8152602060048201526024808201527f52657761726420616d6f756e74206d75737420626520677265617465722074686044820152630616e20360e41b6064820152608490fd5b3461027d575f36600319011261027d5761155b613440565b5f80546001600160a01b0319811682556001600160a01b03165f5160206134c25f395f51905f528280a3005b3461027d57602036600319011261027d576004355f52600360205261018060405f20805490610e596115bb60018301612b8f565b60028301549260ff60038201546004830154600584015460068501549060078601549260088701549461160b87600a60098b01549a015416996040519e8f9e8f9081528160208201520190612a44565b9a60408d015260608c015260808b015260a08a015260c089015260e0880152818116151561010088015260081c1615156101208601526101408501526101608401906129bd565b3461027d57602036600319011261027d5760043561166e613466565b611676613486565b805f52600360205261169460ff600860405f20015460081c16612c73565b805f52600660205260405f2060018060a01b0333165f5260205260405f20604051808260208294549384815201905f5260205f20925f5b818110611e2b5750506116e092500382612b6c565b6116ec8151151561335b565b6050815111611db6577f00000000000000000000000000000000000000000000000000000000000000006001600160a01b031691905f908190815b81518310156119055761173a8383612e4f565b51604051906331a9108f60e11b825260048201526020816024818a5afa908115610aaa575f916118cc575b50336001600160a01b03909116036118c2576117818383612e4f565b519060405191634712f17360e11b835260048301525f826024818a5afa918215610aaa575f9261189e575b506101208201516118935760c082015180421115611887576117ce904261334e565b62ed4e008110611887576117eb6080840151604085015190612fed565b926301e133806064611801606084015187612fed565b049210611850576101400151600193611839939092909115611843576118339261182d91861c90613000565b90613000565b9461300d565b925b019192611727565b61182d9061183393613000565b610140919296935001511561186c575b5061183960019161300d565b61187f6001929561183992841c90613000565b949150611860565b5093926001915061183b565b93926001915061183b565b6118bb9192503d805f833e6118b38183612b6c565b810190612e77565b90876117ac565b929160019061183b565b90506020813d82116118fd575b816118e660209383612b6c565b8101031261027d576118f790612e63565b87611765565b3d91506118d9565b91509115611d75578015611d3b576002546040516370a0823160e01b8152306004820152906020908290602490829060081c6001600160a01b03165afa8015610aaa5782915f91611d06575b5010611cb657825f5260096020528060405f205410611c71575f5b8251811015611b965761197f8184612e4f565b51604051906331a9108f60e11b82526004820152602081602481895afa908115610aaa575f91611b5d575b50336001600160a01b0390911603611ad2576119c68184612e4f565b5160405190634712f17360e11b825260048201525f81602481895afa908115610aaa575f91611b43575b50610120810151611b3a5760c081015180421115611b3057611a12904261334e565b62ed4e008110611b30576301e1338011611ac75750611a318184612e4f565b51853b1561027d57604051906319f477d960e01b825260048201525f81602481838a5af18015610aaa57611ab7575b50611a6b8184612e4f565b5190853b1561027d576040519163bed62f3560e01b835260048301525f82602481838a5af1918215610aaa57600192611aa7575b505b0161196c565b5f611ab191612b6c565b86611a9f565b5f611ac191612b6c565b85611a60565b610140015115611ada575b600190611aa1565b611ae48184612e4f565b5190853b1561027d57604051916318d8e2a560e01b835260048301525f82602481838a5af1918215610aaa57600192611b20575b509050611ad2565b5f611b2a91612b6c565b86611b18565b5050600190611aa1565b50600190611aa1565b611b5791503d805f833e6118b38183612b6c565b866119f0565b90506020813d8211611b8e575b81611b7760209383612b6c565b8101031261027d57611b8890612e63565b866119aa565b3d9150611b6a565b5f6020611c168487338552600b845260408520611bb4838254613000565b90558085526009845260408520611bcc83825461334e565b905584526007835260408420611be382825461334e565b905560025460405163a9059cbb60e01b815294859360089290921c6001600160a01b031692849283913360048401612cc3565b03925af18015610aaa575f90611c36575b611c3090612cde565b60018055005b506020813d602011611c69575b81611c5060209383612b6c565b8101031261027d57611c64611c3091612cb6565b611c27565b3d9150611c43565b60405162461bcd60e51b815260206004820152601f60248201527f496e73756666696369656e7420726f756e6420555344542062616c616e6365006044820152606490fd5b60405162461bcd60e51b815260206004820152602260248201527f496e73756666696369656e7420636f6e747261637420555344542062616c616e604482015261636560f01b6064820152608490fd5b9150506020813d602011611d33575b81611d2260209383612b6c565b8101031261027d5781905186611951565b3d9150611d15565b60405162461bcd60e51b81526020600482015260126024820152714e6f20616d6f756e7420746f20636c61696d60701b6044820152606490fd5b60405162461bcd60e51b81526020600482015260196024820152784e6f20656c696769626c65204e46547320746f20636c61696d60381b6044820152606490fd5b60405162461bcd60e51b815260206004820152604160248201527f546f6f206d616e79204e46547320746f20636c61696d206174206f6e63652c2060448201527f706c656173652073706c697420696e746f20736d616c6c6572206261746368656064820152607360f81b608482015260a490fd5b84548352600194850194869450602090930192016116cb565b3461027d57602036600319011261027d57611e5d612a2e565b611e65613440565b6001600160a01b038116908115611f1557600254600881901c6001600160a01b031691838314611ed657610100600160a81b031990911660089190911b610100600160a81b0316176002557f92852dbadca7e6fa4e0d5dd87891e6dd13f50a304561a86ea9d5a710b972e4495f80a3005b60405162461bcd60e51b815260206004820152601760248201527653616d65205553445420746f6b656e206164647265737360481b6044820152606490fd5b60405162461bcd60e51b815260206004820152601a602482015279496e76616c6964205553445420746f6b656e206164647265737360301b6044820152606490fd5b3461027d57602036600319011261027d576004355f526007602052602060405f2054604051908152f35b3461027d575f36600319011261027d57602060ff600254166040519015158152f35b3461027d57602036600319011261027d57600435611fbf613440565b6002546040516370a0823160e01b815230600482015260089190911c6001600160a01b031690602081602481855afa8015610aaa5783915f916120c9575b501061208d575f805460405163a9059cbb60e01b815293602093859390928492839161203691906001600160a01b031660048401612cc3565b03925af18015610aaa575f90612052575b61205090612cde565b005b506020813d602011612085575b8161206c60209383612b6c565b8101031261027d5761208061205091612cb6565b612047565b3d915061205f565b60405162461bcd60e51b8152602060048201526014602482015273496e73756666696369656e742062616c616e636560601b6044820152606490fd5b9150506020813d6020116120f6575b816120e560209383612b6c565b8101031261027d5782905184611ffd565b3d91506120d8565b3461027d5761210c36612b02565b90612115613440565b805f52600360205261213360ff600860405f20015460081c16612c73565b81156122a257805f5260076020528160405f205410612260576002546040516370a0823160e01b8152306004820152906020908290602490829060081c6001600160a01b03165afa8015610aaa5783915f9161222b575b50106121e657612036916020915f526007825260405f206121ac82825461334e565b90556002545f805460405163a9059cbb60e01b815295869460089490941c6001600160a01b03908116948694938593921660048401612cc3565b60405162461bcd60e51b815260206004820152601d60248201527f496e73756666696369656e7420636f6e74726163742062616c616e63650000006044820152606490fd5b9150506020813d602011612258575b8161224760209383612b6c565b8101031261027d578290518461218a565b3d915061223a565b60405162461bcd60e51b815260206004820152601a602482015279496e73756666696369656e7420726f756e642062616c616e636560301b6044820152606490fd5b60405162461bcd60e51b815260206004820152601d60248201527f416d6f756e74206d7573742062652067726561746572207468616e20300000006044820152606490fd5b3461027d57602036600319011261027d576001600160a01b03612308612a2e565b165f52600b602052602060405f2054604051908152f35b3461027d575f36600319011261027d57612337613440565b60025460ff8116156123765760ff19166002557f5db9ee0a495bf2e6ff9c91a7834c1ba4fdd244a5e8aa4e537bd38aeae4b073aa6020604051338152a1005b638dfc202b60e01b5f5260045ffd5b3461027d57604036600319011261027d57600435602435600581101561027d57612050916123b1613440565b805f5260036020526123cf60ff600860405f20015460081c16612c73565b5f526003602052600a60405f2001612d21565b3461027d57602036600319011261027d576001600160a01b03612403612a2e565b1661240f811515612d39565b805f52600860205260405f20604051808260208294549384815201905f5260205f20925f5b8181106126a257505061244992500382612b6c565b80519161245583612d80565b926124636040519485612b6c565b808452612472601f1991612d80565b015f5b81811061268b57505081519061248a82612d80565b916124986040519384612b6c565b8083526124a7601f1991612d80565b015f5b81811061267a5750505f5b8351811015612585576124c88185612e4f565b515f52600360205260405f206124e860ff600a60405193610f1485612b50565b6124f28287612e4f565b526124fd8186612e4f565b506125088185612e4f565b515f52600660205260405f20825f5260205260405f206040519081602082549182815201915f5260205f20905f905b80821061256d575050509061255181600194930382612b6c565b61255b8286612e4f565b526125668185612e4f565b50016124b5565b90919260016020819286548152019401920190612537565b505061259c604051926060845260608401906129e5565b8281036020840152835180825260208201916020808360051b8301019601925f915b83831061264d578787878183036040830152805180845260208401906020808260051b8701019301915f905b8282106125f75785850386f35b90919293601f19878203018252845190602080835192838152019201905f905b808210612635575050506020806001929601920192019092916125ea565b90919260208060019286518152019401920190612617565b909192939660208061266b600193601f198682030187528b51612a68565b990193019301919392906125be565b8060606020809387010152016124aa565b6020906126966132e9565b82828801015201612475565b8454835260019485019486945060209093019201612434565b3461027d575f36600319011261027d576020600d54604051908152f35b3461027d57602036600319011261027d57610e596126fc6126f7612a2e565b61301b565b9061271c604096949651968796875260a0602088015260a08701906129e5565b926040860152606085015283820360808501526129e5565b3461027d57604036600319011261027d57600435612750612a18565b90805f52600360205261276f60ff600860405f20015460081c16612c73565b5f52600660205260405f209060018060a01b03165f5260205260405f206040519081602082549182815201915f5260205f20905f5b8181106127bb57610e5985610e4581870382612b6c565b82548452602090930192600192830192016127a4565b3461027d57602036600319011261027d57600435805f52600360205261280360ff600860405f20015460081c16612c73565b5f52600460205260405f206040519081602082549182815201915f5260205f20905f5b81811061283d57610e5985610e4581870382612b6c565b8254845260209093019260019283019201612826565b3461027d57602036600319011261027d57600435805f52600360205261288560ff600860405f20015460081c16612c73565b5f526003602052602060ff600a60405f200154166128a660405180926129bd565bf35b3461027d57602036600319011261027d576004356128c4613440565b805f5260036020526128e260ff600860405f20015460081c16612c73565b5f8181526007602090815260408083208054908490556002548454925163a9059cbb60e01b81529485936001600160a01b0360089390931c8316938593849261293092911660048401612cc3565b03925af18015610aaa575f90612968575b61294b9150612cde565b5f526003602052600a60405f2001600360ff198254161790555f80f35b506020813d60201161299b575b8161298260209383612b6c565b8101031261027d5761299661294b91612cb6565b612941565b3d9150612975565b3461027d575f36600319011261027d57602090600e548152f35b9060058210156105215752565b3461027d575f36600319011261027d57602060405160508152f35b90602080835192838152019201905f5b818110612a025750505090565b82518452602093840193909201916001016129f5565b602435906001600160a01b038216820361027d57565b600435906001600160a01b038216820361027d57565b805180835260209291819084018484015e5f828201840152601f01601f1916010190565b90612aff908251815261016080612a9060208601516101806020860152610180850190612a44565b9460408101516040850152606081015160608501526080810151608085015260a081015160a085015260c081015160c085015260e081015160e08501526101008101511515610100850152610120810151151561012085015261014081015161014085015201519101906129bd565b90565b604090600319011261027d576004359060243590565b90600182811c92168015612b46575b6020831014612b3257565b634e487b7160e01b5f52602260045260245ffd5b91607f1691612b27565b61018081019081106001600160401b038211176105f357604052565b601f909101601f19168101906001600160401b038211908210176105f357604052565b9060405191825f825492612ba284612b18565b8084529360018116908115612c0d5750600114612bc9575b50612bc792500383612b6c565b565b90505f9291925260205f20905f915b818310612bf1575050906020612bc7928201015f612bba565b6020919350806001915483858901015201910190918492612bd8565b905060209250612bc794915060ff191682840152151560051b8201015f612bba565b8054821015612c44575f5260205f2001905f90565b634e487b7160e01b5f52603260045260245ffd5b6001600160401b0381116105f357601f01601f191660200190565b15612c7a57565b60405162461bcd60e51b8152602060048201526014602482015273149bdd5b9908191bd95cc81b9bdd08195e1a5cdd60621b6044820152606490fd5b5190811515820361027d57565b6001600160a01b039091168152602081019190915260400190565b15612ce557565b60405162461bcd60e51b81526020600482015260146024820152731554d115081d1c985b9cd9995c8819985a5b195960621b6044820152606490fd5b9060058110156105215760ff80198354169116179055565b15612d4057565b60405162461bcd60e51b8152602060048201526018602482015277496e76616c696420696e766573746f72206164647265737360401b6044820152606490fd5b6001600160401b0381116105f35760051b60200190565b60208183031261027d578051906001600160401b03821161027d57019080601f8301121561027d578151612dca81612d80565b92612dd86040519485612b6c565b81845260208085019260051b82010192831161027d57602001905b828210612e005750505090565b8151815260209182019101612df3565b90612e1a82612d80565b612e276040519182612b6c565b8281528092612e38601f1991612d80565b0190602036910137565b805115612c445760200190565b8051821015612c445760209160051b010190565b51906001600160a01b038216820361027d57565b60208183031261027d578051906001600160401b03821161027d5701906101a08282031261027d57604051916101a083016001600160401b038111848210176105f357604052805183526020810151602084015260408101516040840152606081015160608401526080810151608084015260a081015160a084015260c081015160c084015260e081015160e0840152612f146101008201612e63565b610100840152612f276101208201612cb6565b610120840152612f3a6101408201612cb6565b610140840152612f4d6101608201612cb6565b610160840152610180810151906001600160401b03821161027d570181601f8201121561027d57805190612f8082612c58565b92612f8e6040519485612b6c565b8284526020838301011161027d57815f9260208093018386015e8301015261018082015290565b90670de0b6b3a7640000820291808304670de0b6b3a76400001490151715612fd957565b634e487b7160e01b5f52601160045260245ffd5b81810292918115918404141715612fd957565b91908201809211612fd957565b5f198114612fd95760010190565b5f916001600160a01b0390911690613034821515612d39565b604051635447be0b60e01b815260048101839052907f00000000000000000000000000000000000000000000000000000000000000006001600160a01b03165f83602481845afa928315610aaa575f936132cd575b5082908351945f52600b60205260405f20549385156132a95750600d54916130b083612e10565b946130ba84612d80565b936130c86040519586612b6c565b8085526130d7601f1991612d80565b013660208601375f945f5b83518110156131a9576130f58185612e4f565b51996040519a634712f17360e11b8c5260048c01525f8b602481895afa9a8b15610aaa575f9b613186575b5061313b60209161182d8d6040608082015191015190612fed565b9a0151886131498289612e4f565b511561315a575b50506001016130e2565b9760016131788361317e946131718585989e612e4f565b528a612e4f565b5261300d565b969088613150565b6020919b506131a161313b913d805f833e6118b38183612b6c565b9b9150613120565b509350949390969591505f5f5b82811061324557506131c790612e10565b935f905f5b8381106131de57505050509493929190565b6131e88183612e4f565b51805f52600360205260ff600860405f20015460081c168061322c575b613213575b506001016131cc565b8361322591613178600194968b612e4f565b929061320a565b50805f52600360205260ff600860405f20015416613205565b61324f8187612e4f565b51805f52600360205260ff600860405f20015460081c16908161328f575b5061327b575b6001016131b6565b9061328760019161300d565b919050613273565b90505f52600360205260ff600860405f200154165f61326d565b9550505091506040516132bd602082612b6c565b5f81525f3681375f93925f929190565b6132e29193503d805f833e610a9c8183612b6c565b915f613089565b604051906132f682612b50565b5f61016083828152606060208201528260408201528260608201528260808201528260a08201528260c08201528260e08201528261010082015282610120820152826101408201520152565b60058210156105215752565b91908203918211612fd957565b1561336257565b60405162461bcd60e51b8152602060048201526015602482015274139bc81391951cc81a5b881d1a1a5cc81c9bdd5b99605a1b6044820152606490fd5b6001600160a01b03918216815291166020820152604081019190915260600190565b156133c857565b60405162461bcd60e51b815260206004820152601c60248201527b125b9d995cdd1b595b9d081c195c9a5bd9081a185cc818db1bdcd95960221b6044820152606490fd5b8054600160401b8110156105f35761342991600182018155612c2f565b819291549060031b91821b915f19901b1916179055565b5f546001600160a01b0316330361345357565b63118cdaa760e01b5f523360045260245ffd5b600260015414613477576002600155565b633ee5aeb560e01b5f5260045ffd5b60ff6002541661349257565b63d93c066560e01b5f5260045ffdfe9795f222c951ae3e749f872dbe287f78d21fa52353e9175cb20ed3aa2b29b82b8be0079c531659141344cd1fd0a4f28419497f9722a3daafe3b4186f6b6457e0a2646970667358221220ad422c108b29c9fcd3fc6edc4acaac82f19131a66feb628e5169d1c4c2f3357964736f6c634300081c0033",
  "linkReferences": {},
  "deployedLinkReferences": {},
  "immutableReferences": {
    "9024": [
      {
        "length": 32,
        "start": 2391
      },
      {
        "length": 32,
        "start": 2844
      },
      {
        "length": 32,
        "start": 3720
      },
      {
        "length": 32,
        "start": 5879
      },
      {
        "length": 32,
        "start": 12363
      }
    ]
  },
  "inputSourceName": "project/contracts/FundRaisingContractNFT.sol",
  "buildInfoId": "solc-0_8_28-56c47b3876f520167d6603294479b3125be2a860"
}